{"contracts/Trade.sol":{"Trade":{"abi":[{"inputs":[{"internalType":"address","name":"_registryAddress","type":"address"}],"stateMutability":"nonpayable","type":"constructor"},{"inputs":[],"name":"InvalidInitialization","type":"error"},{"inputs":[],"name":"NotInitializing","type":"error"},{"inputs":[],"name":"ReentrancyGuardReentrantCall","type":"error"},{"anonymous":false,"inputs":[{"indexed":true,"internalType":"address","name":"admin","type":"address"},{"indexed":false,"internalType":"bool","name":"isAdmin","type":"bool"}],"name":"AdminSet","type":"event"},{"anonymous":false,"inputs":[{"indexed":true,"internalType":"uint256","name":"tradeId","type":"uint256"},{"indexed":false,"internalType":"uint256","name":"amount","type":"uint256"}],"name":"CryptoLockedInEscrow","type":"event"},{"anonymous":false,"inputs":[{"indexed":true,"internalType":"uint256","name":"tradeId","type":"uint256"}],"name":"FiatMarkedAsPaid","type":"event"},{"anonymous":false,"inputs":[{"indexed":false,"internalType":"uint64","name":"version","type":"uint64"}],"name":"Initialized","type":"event"},{"anonymous":false,"inputs":[{"indexed":true,"internalType":"uint256","name":"tradeId","type":"uint256"}],"name":"TradeAccepted","type":"event"},{"anonymous":false,"inputs":[{"indexed":true,"internalType":"uint256","name":"tradeId","type":"uint256"},{"indexed":false,"internalType":"string","name":"reason","type":"string"}],"name":"TradeCancelled","type":"event"},{"anonymous":false,"inputs":[{"indexed":true,"internalType":"uint256","name":"tradeId","type":"uint256"}],"name":"TradeDisputed","type":"event"},{"anonymous":false,"inputs":[{"indexed":true,"internalType":"uint256","name":"tradeId","type":"uint256"},{"indexed":false,"internalType":"uint256","name":"timestamp","type":"uint256"}],"name":"TradeFinalized","type":"event"},{"anonymous":false,"inputs":[{"indexed":true,"internalType":"uint256","name":"tradeId","type":"uint256"},{"indexed":true,"internalType":"uint256","name":"offerId","type":"uint256"},{"indexed":true,"internalType":"address","name":"taker","type":"address"}],"name":"TradeInitiated","type":"event"},{"anonymous":false,"inputs":[{"indexed":true,"internalType":"uint256","name":"tradeId","type":"uint256"},{"indexed":false,"internalType":"uint256","name":"rating","type":"uint256"},{"indexed":false,"internalType":"string","name":"feedback","type":"string"}],"name":"TradeRated","type":"event"},{"anonymous":false,"inputs":[{"indexed":false,"internalType":"uint256[]","name":"tradeIds","type":"uint256[]"}],"name":"TradeSequenceCreated","type":"event"},{"anonymous":false,"inputs":[{"indexed":true,"internalType":"uint256","name":"tradeId","type":"uint256"}],"name":"TradeTimedOut","type":"event"},{"inputs":[{"internalType":"uint256","name":"_tradeId","type":"uint256"}],"name":"acceptTrade","outputs":[],"stateMutability":"nonpayable","type":"function"},{"inputs":[{"internalType":"address","name":"","type":"address"}],"name":"admins","outputs":[{"internalType":"bool","name":"","type":"bool"}],"stateMutability":"view","type":"function"},{"inputs":[{"internalType":"uint256","name":"_tradeId","type":"uint256"}],"name":"cancelTrade","outputs":[],"stateMutability":"nonpayable","type":"function"},{"inputs":[{"internalType":"uint256","name":"_tradeId","type":"uint256"}],"name":"disputeTrade","outputs":[],"stateMutability":"nonpayable","type":"function"},{"inputs":[{"internalType":"uint256","name":"_tradeId","type":"uint256"}],"name":"finalizeTrade","outputs":[],"stateMutability":"nonpayable","type":"function"},{"inputs":[{"internalType":"uint256","name":"_tradeId","type":"uint256"}],"name":"getNextTradeInSequence","outputs":[{"internalType":"uint256","name":"","type":"uint256"}],"stateMutability":"view","type":"function"},{"inputs":[{"internalType":"uint256","name":"_tradeId","type":"uint256"}],"name":"getPreviousTradeInSequence","outputs":[{"internalType":"uint256","name":"","type":"uint256"}],"stateMutability":"view","type":"function"},{"inputs":[],"name":"getTradeCounts","outputs":[{"internalType":"uint256","name":"","type":"uint256"},{"internalType":"uint256","name":"","type":"uint256"},{"internalType":"uint256","name":"","type":"uint256"},{"internalType":"uint256","name":"","type":"uint256"},{"internalType":"uint256","name":"","type":"uint256"},{"internalType":"uint256","name":"","type":"uint256"}],"stateMutability":"view","type":"function"},{"inputs":[{"internalType":"uint256","name":"_tradeId","type":"uint256"}],"name":"getTradeDetails","outputs":[{"internalType":"uint256","name":"","type":"uint256"},{"internalType":"address","name":"","type":"address"},{"internalType":"uint256","name":"","type":"uint256"},{"internalType":"uint256","name":"","type":"uint256"},{"internalType":"string","name":"","type":"string"},{"internalType":"string","name":"","type":"string"},{"internalType":"uint256","name":"","type":"uint256"},{"internalType":"string","name":"","type":"string"},{"internalType":"enum Trade.TradeStatus","name":"","type":"uint8"},{"internalType":"uint256","name":"","type":"uint256"},{"internalType":"uint256","name":"","type":"uint256"},{"internalType":"uint256","name":"","type":"uint256"}],"stateMutability":"view","type":"function"},{"inputs":[{"internalType":"uint256","name":"_tradeId","type":"uint256"}],"name":"getTradeMaker","outputs":[{"internalType":"address","name":"","type":"address"}],"stateMutability":"view","type":"function"},{"inputs":[{"internalType":"uint256[]","name":"_offerIds","type":"uint256[]"},{"internalType":"uint256","name":"_tradeAmountFiat","type":"uint256"},{"internalType":"uint256","name":"_tradeAmountCrypto","type":"uint256"},{"internalType":"string","name":"_tradeFiatCurrency","type":"string"},{"internalType":"string","name":"_tradeCryptoCurrency","type":"string"},{"internalType":"uint256","name":"_blocksTillTimeout","type":"uint256"},{"internalType":"string","name":"_tradeCancelationReason","type":"string"}],"name":"initiateTrade","outputs":[],"stateMutability":"nonpayable","type":"function"},{"inputs":[{"internalType":"uint256","name":"_tradeId","type":"uint256"}],"name":"lockCryptoInEscrow","outputs":[],"stateMutability":"nonpayable","type":"function"},{"inputs":[],"name":"owner","outputs":[{"internalType":"address","name":"","type":"address"}],"stateMutability":"view","type":"function"},{"inputs":[{"internalType":"uint256","name":"_tradeId","type":"uint256"},{"internalType":"uint256","name":"_rating","type":"uint256"},{"internalType":"string","name":"_feedback","type":"string"}],"name":"rateTrade","outputs":[],"stateMutability":"nonpayable","type":"function"},{"inputs":[{"internalType":"uint256","name":"_tradeId","type":"uint256"}],"name":"refundTrade","outputs":[],"stateMutability":"nonpayable","type":"function"},{"inputs":[],"name":"registry","outputs":[{"internalType":"contract ContractRegistry","name":"","type":"address"}],"stateMutability":"view","type":"function"},{"inputs":[{"internalType":"address","name":"_admin","type":"address"},{"internalType":"bool","name":"_isAdmin","type":"bool"}],"name":"setAdmin","outputs":[],"stateMutability":"nonpayable","type":"function"},{"inputs":[{"internalType":"address[]","name":"_admins","type":"address[]"}],"name":"setInitialAdmins","outputs":[],"stateMutability":"nonpayable","type":"function"},{"inputs":[{"internalType":"uint256","name":"_tradeId","type":"uint256"}],"name":"timeoutTrade","outputs":[],"stateMutability":"nonpayable","type":"function"},{"inputs":[],"name":"tradeCount","outputs":[{"internalType":"uint256","name":"","type":"uint256"}],"stateMutability":"view","type":"function"},{"inputs":[{"internalType":"uint256","name":"_tradeId","type":"uint256"}],"name":"tradeMarkFiatPaid","outputs":[],"stateMutability":"nonpayable","type":"function"},{"inputs":[{"internalType":"uint256","name":"","type":"uint256"},{"internalType":"address","name":"","type":"address"}],"name":"tradeRatings","outputs":[{"internalType":"bool","name":"","type":"bool"}],"stateMutability":"view","type":"function"},{"inputs":[{"internalType":"uint256","name":"","type":"uint256"},{"internalType":"uint256","name":"","type":"uint256"}],"name":"tradeSequence","outputs":[{"internalType":"uint256","name":"","type":"uint256"}],"stateMutability":"view","type":"function"},{"inputs":[{"internalType":"uint256","name":"","type":"uint256"}],"name":"trades","outputs":[{"internalType":"uint256","name":"offerId","type":"uint256"},{"internalType":"address","name":"taker","type":"address"},{"internalType":"uint256","name":"tradeAmountFiat","type":"uint256"},{"internalType":"uint256","name":"tradeAmountCrypto","type":"uint256"},{"internalType":"string","name":"tradeFiatCurrency","type":"string"},{"internalType":"string","name":"tradeCryptoCurrency","type":"string"},{"internalType":"uint256","name":"blocksTillTimeout","type":"uint256"},{"internalType":"string","name":"tradeCancelationReason","type":"string"},{"internalType":"enum Trade.TradeStatus","name":"tradeStatus","type":"uint8"},{"internalType":"uint256","name":"tradeInitiatedTime","type":"uint256"},{"internalType":"uint256","name":"tradeFinalizedTime","type":"uint256"},{"internalType":"uint256","name":"tradeFee","type":"uint256"}],"stateMutability":"view","type":"function"},{"inputs":[{"internalType":"uint256","name":"_tradeId","type":"uint256"},{"internalType":"enum Trade.TradeStatus","name":"_newStatus","type":"uint8"}],"name":"updateTradeStatusFromArbitration","outputs":[],"stateMutability":"nonpayable","type":"function"},{"inputs":[{"internalType":"enum Trade.TradeStatus","name":"","type":"uint8"},{"internalType":"enum Trade.TradeStatus","name":"","type":"uint8"}],"name":"validTransitions","outputs":[{"internalType":"bool","name":"","type":"bool"}],"stateMutability":"view","type":"function"}],"evm":{"bytecode":{"linkReferences":{},"object":"608034620001a657601f62003c4038819003918201601f1916830192916001600160401b03841183851017620001ab5780839260409586528339602092839181010312620001a657516001600160a01b03811690819003620001a6578260018060a01b03199160009083825416178155600192339084541617835580805260049384815282822084835281528282209460ff199585878254161790558280528082528383208184528252838320858782541617905584835280825283832060028452825283832085878254161790558483528082528383206005845282528383208587825416179055808252838320600384528252838320858782541617905560058352808252838320818452825283832085878254161790558280528082528383206006845282528383208587825416179055848352808252838320600684528252838320858782541617905584835280825283832081845282528383208587825416179055600283528082528383206003845282528383208587825416179055600283528152828220906005835252209182541617905551613a7e9081620001c28239f35b600080fd5b634e487b7160e01b600052604160045260246000fdfe6080604052600436101561001257600080fd5b60003560e01c806309ec6cc714612f9857806312ea634c14612f7a5780631e6c598e14612eeb57806340ebdad6146127d7578063419f778a146124a4578063429b62e514612465578063491719e5146121a55780634b0bddd2146120c75780635046fddd146120755780635395db6814611eda5780635741f73414611eb4578063695730a514611d775780637b10399914611d4e5780637f002e8114611d0757806388a2976e14611bd05780638a2829e7146117bf5780638ba9f7081461142f5780638da5cb5b1461140657806392479507146111d7578063a5350ea61461118c578063b4195c4714610f9b578063bd55022a14610f7d578063d58c71a514610984578063d684d5b1146106e6578063ded0bfbf146105ad5763ecb9fec31461013a57600080fd5b34610362576020806003193601126103625760043590811515806105a1575b6101629061365b565b8160005260039081815260ff60086040600020015416600881101561058b5761054857600054604051633ea42de360e01b81526001600160a01b039182168382600481845afa8015610356578392600091610510575b5086600052858552600060408120546040519283916327db25f160e11b83526004830152816024978892165afa908115610356576000916104e2575b50823391160361049057856000526007845260406000208054159081159182610463575b50501561039c57506004838260005416604051928380926303577be960e21b82525afa90811561035657600091610367575b5016846000528383528360406000200154813b156103625760009160448392604051948593849263342865ab60e11b84528b6004850152888401525af1801561035657610347575b505b836000528282526102af60ff6008604060002001541661362a565b6001600052825260ff6040600020541615610304575082600052526008604060002001600160ff198254161790557f102f3ccc8e36f2a6afb43e960eb0c3a01b90374f18f8370f68b83639924b4433600080a2005b90601f6064926040519262461bcd60e51b845260048401528201527f496e76616c696420747261646520737461747573207472616e736974696f6e006044820152fd5b610350906133c0565b38610292565b6040513d6000823e3d90fd5b600080fd5b90508381813d8311610395575b61037e81836133ef565b810103126103625761038f906136e9565b3861024a565b503d610374565b906004846103a988613811565b93604051928380926303577be960e21b82525afa9081156103565760009161042e575b501690856000528484528460406000200154823b1561036257606460009283604051958694859363be81abd560e01b855260048501528b8985015260448401525af180156103565761041f575b50610294565b610428906133c0565b38610419565b90508481813d831161045c575b61044581836133ef565b8101031261036257610456906136e9565b386103cc565b503d61043b565b90915061047b57600052858460002054143880610218565b83634e487b7160e01b60005260326004526000fd5b60405162461bcd60e51b8152600481018590526025818501527f4f6e6c79206f66666572206f776e65722063616e206163636570742074686520604482015264747261646560d81b6064820152608490fd5b6104ff91503d806000833e6104f781836133ef565b8101906136fd565b5050505050505050505050386101f4565b809350858092503d8311610541575b61052981836133ef565b810103126103625761053b83926136e9565b386101b8565b503d61051f565b6064906040519062461bcd60e51b825280600483015260248201527f5472616465206973206e6f7420696e20696e69746961746564207374617475736044820152fd5b634e487b7160e01b600052602160045260246000fd5b50600254821115610159565b346103625760003660031901126103625760008060008060009060009260019560016002545b8082111561060257505060c09650604051958652602086015260408501526060840152608083015260a0820152f35b90968760005260038060205260089060ff8260406000200154169182101561058b578161064357505061063761063d916138bb565b976138bb565b906105d3565b91989391818b0361066257505061065c61063d916138bb565b926138bb565b93949193810361067f575061067961063d916138bb565b936138bb565b939490936004810361069e575061069861063d916138bb565b946138bb565b94959094600581036106bd57506106b761063d916138bb565b956138bb565b9095906006146106d1575b61063d906138bb565b956106de61063d916138bb565b9690506106c8565b3461036257602080600319360112610362576004359081151580610978575b61070e9061365b565b81600052600380825260ff91600892808460406000200154168481101561058b57158015610956575b8015610934575b156108df5784600052828252808460406000200154168481101561058b5760061461089c5784600052828252604060002060066009820154910154810180911161088657421061083557846000528282526107a18185604060002001541661362a565b6006600052825260406000205416156107f1578360005252604060002001600660ff198254161790557fb5572d3c012c3c87cb7f7dea790839327df3e6ecdb3bbd1b1ab2ee4b18ace512600080a2005b6064906040519062461bcd60e51b82526004820152601f60248201527f496e76616c696420747261646520737461747573207472616e736974696f6e006044820152fd5b60405162461bcd60e51b815260048101839052602360248201527f54726164652074696d656f757420706572696f6420686173206e6f74207061736044820152621cd95960ea1b6064820152608490fd5b634e487b7160e01b600052601160045260246000fd5b6064826040519062461bcd60e51b825280600483015260248201527f54726164652068617320616c7265616479206265656e2074696d6564206f75746044820152fd5b60405162461bcd60e51b815260048101839052602760248201527f54726164652063616e6e6f742062652074696d6564206f7574206174207468696044820152667320737461676560c81b6064820152608490fd5b5084600052828252808460406000200154168481101561058b5760021461073e565b5084600052828252808460406000200154168481101561058b57600114610737565b50600254821115610705565b346103625760208060031936011261036257600435906109a26139f8565b81151580610f71575b6109b49061365b565b81600052600380825260ff90600891808360406000200154168381101561058b576002148015610f38575b15610ecd5784600052818452808360406000200154168381101561058b576004141580610eaa575b15610e3f5784600052818452808360406000200154168381101561058b5782610a3191141561369e565b600054604051633ea42de360e01b81526001600160a01b03918216908681600481855afa8015610356578391600091610e05575b506000908982528689526024604083205460405194859384926327db25f160e11b84526004840152165afa90811561035657600091610ddf575b50821633148015610dc9575b15610d6b578660005260078652604060002080548015159182610d44575b505015610c6d57506004858260005416604051928380926303577be960e21b82525afa8015610356578291600091610c35575b501690866000528386526001604060002001541690803b156103625760405163de9d858760e01b8152600481018890526001600160a01b039290921660248301526000908290604490829084905af1801561035657610c26575b505b84600052818452610b718184604060002001541661362a565b8260005284526040600020541615610be157907f143dba104ddac4c22c157c51909343d71e5765527a32b0d1647c14b39f41eaf392918460005280835260406000209182019060ff19825416179055600a42910155604051428152a26001600080516020613a2983398151915255005b60405162461bcd60e51b815260048101849052601f60248201527f496e76616c696420747261646520737461747573207472616e736974696f6e006044820152606490fd5b610c2f906133c0565b85610b56565b809250878092503d8311610c66575b610c4e81836133ef565b8101031261036257610c6082916136e9565b88610afc565b503d610c44565b90600486610c7a89613951565b93604051928380926303577be960e21b82525afa8015610356578291600091610d0c575b5016916000528386526001604060002001541690803b156103625760405163de9d858760e01b8152600481018890526001600160a01b039290921660248301526000908290604490829084905af1801561035657610cfd575b50610b58565b610d06906133c0565b85610cf7565b809250888092503d8311610d3d575b610d2581836133ef565b8101031261036257610d3782916136e9565b89610c9e565b503d610d1b565b60001982019250908211610886578891610d5d91613612565b905490861b1c148880610ac9565b60405162461bcd60e51b815260048101879052603060248201527f4f6e6c79206f66666572206f776e6572206f722061646d696e2063616e20666960448201526f6e616c697a652074686520747261646560801b6064820152608490fd5b5033600052600586528260406000205416610aab565b610df491503d806000833e6104f781836133ef565b505050505050505050505088610a9f565b809250888092503d8311610e38575b610e1e81836133ef565b81010312610362576000610e3284926136e9565b90610a65565b503d610e14565b60405162461bcd60e51b815260048101859052603960248201527f54726164652063616e6e6f742062652066696e616c697a65642069662069742060448201527f69732063616e63656c6c6564206f722074696d6564206f7574000000000000006064820152608490fd5b5084600052818452808360406000200154168381101561058b5760061415610a07565b60405162461bcd60e51b815260048101859052603d60248201527f5472616465206973206e6f7420696e20612066696e616c697a61626c6520737460448201527f617465206f722063616c6c6572206973206e6f7420616e2061646d696e0000006064820152608490fd5b5084600052818452808360406000200154168381101561058b5760051480156109df5750336000526005845280604060002054166109df565b506002548211156109ab565b34610362576000366003190112610362576020600254604051908152f35b34610362576020806003193601126103625760043580151580611180575b610fc29061365b565b610fca6139f8565b8060005260038252600860ff8160406000200154168181101561058b5760041491821561115a575b8215611133575b5050156110e0576000546040516303577be960e21b81526001600160a01b039183908290600490829086165afa908115610356576000916110ab575b50163303611051576001600080516020613a2983398151915255005b6084906040519062461bcd60e51b82526004820152602d60248201527f4f6e6c7920457363726f7720636f6e74726163742063616e2063616c6c20726560448201526c333ab73210333ab731ba34b7b760991b6064820152fd5b90508281813d83116110d9575b6110c281836133ef565b81010312610362576110d3906136e9565b83611035565b503d6110b8565b6084906040519062461bcd60e51b82526004820152602660248201527f54726164652063616e6e6f7420626520726566756e646564206174207468697360448201526520737461676560d01b6064820152fd5b9091506000526003825260ff8160406000200154169081101561058b576005148280610ff9565b8092506000526003835260ff8160406000200154168181101561058b5760061491610ff2565b50600254811115610fb9565b34610362576040366003190112610362576004356008811015610362576024356008811015610362576111cb60ff916111c660209461362a565b613643565b54166040519015158152f35b3461036257602080600319360112610362576004356001600160401b03811161036257366023820112156103625780600401359161121483613583565b9161122260405193846133ef565b838352818301602460059560051b8301019136831161036257602401905b8282106113e75750505060018060a01b036001928184541680330361138a576000526005835260ff60406000205416611339578394846000905b6112ca575b505050807fe68d2c359a771606c400cf8b87000cf5864010363d6a736e98f5047b7bbe18e99354166000526005825260406000208460ff1982541617905583541692604051908152a2005b82518110156113345780846112e08893866138a7565b511660005282865260406000208260ff198254161790558461130282866138a7565b51167fe68d2c359a771606c400cf8b87000cf5864010363d6a736e98f5047b7bbe18e987604051858152a2018561127a565b61127f565b60405162461bcd60e51b815260048101849052602360248201527f496e697469616c2061646d696e732063616e206f6e6c7920626520736574206f6044820152626e636560e81b6064820152608490fd5b60405162461bcd60e51b815260048101859052602f60248201527f4f6e6c792074686520636f6e7472616374206f776e65722063616e207065726660448201526e37b936903a3434b99030b1ba34b7b760891b6064820152608490fd5b81356001600160a01b0381168103610362578152908301908301611240565b34610362576000366003190112610362576001546040516001600160a01b039091168152602090f35b3461036257602080600319360112610362576004359061144d6139f8565b811515806117b3575b61145f9061365b565b8160005260039081815260ff91600890838260406000200154168281101561058b576001148015611791575b1561173d5784600052808352838260406000200154168281101561058b576005146116f85784600052808352838260406000200154168281101561058b57816114d591141561369e565b600054604051633ea42de360e01b81526001600160a01b0395918590829060049082908a165afa80156103565786916000916116be575b506000908882528487526024604083205460405194859384926327db25f160e11b84526004840152165afa80156103565761156c91600091611698575b50876000528386528660016040600020015416331490811561168c575b506137b4565b856000528184526115858184604060002001541661362a565b600560005284526040600020541615610be157846000528252604060002001600560ff19825416179055600481836000541660405192838092637050565360e01b82525afa91821561035657600092611656575b505016803b156103625760008091602460405180948193634b54a37960e01b83528760048401525af1801561035657611647575b507f995328816eb12e50ec2691560298922cd9ead6191e59874ef2ef6ca8c766d725600080a26001600080516020613a2983398151915255005b611650906133c0565b8161160d565b90809250813d8311611685575b61166d81836133ef565b810103126103625761167e906136e9565b83806115d9565b503d611663565b87163314905088611566565b6116ad91503d806000833e6104f781836133ef565b505050505050505050505088611549565b809250868092503d83116116f1575b6116d781836133ef565b810103126103625760006116eb87926136e9565b9061150c565b503d6116cd565b60405162461bcd60e51b815260048101849052601960248201527f547261646520697320616c7265616479206469737075746564000000000000006044820152606490fd5b60405162461bcd60e51b815260048101849052602660248201527f54726164652063616e6e6f74206265206469737075746564206174207468697360448201526520737461676560d01b6064820152608490fd5b5084600052808352838260406000200154168281101561058b5760021461148b565b50600254821115611456565b3461036257606036600319011261036257600435602480359060449081356001600160401b038111610362576117f99036906004016135b5565b600054604051633ea42de360e01b8152602094916001600160a01b03919086908290600490829086165afa8015610356578291600091611b96575b506000908982526003885286604083205460405194859384926327db25f160e11b84526004840152165afa90811561035657600091611b70575b50876000526003865281600160406000200154163314908115611b64575b5015611b0e5786151580611b02575b6118a49061365b565b866000526003855260ff600860406000200154166008811015611aed57600303611ab157600186101580611aa6575b15611a6c578660005260068552604060002033600052855260ff60406000205416611a1857866000526006855260406000203360005285526040600020600160ff19825416179055600485826000541660405192838092631ecc605560e21b82525afa908115610356576000916119e3575b501692833b156103625785936060600093604051988994638a2829e760e01b86528b600487015285015283015281838161198260648201886134d8565b03925af1908115610356577f5e72c1f0055c90b360f39e32f2e35808960aa9d049e8c3847b383ca534554398946119cf926119d4575b5060408051948594855284015260408301906134d8565b0390a2005b6119dd906133c0565b866119b8565b90508581813d8311611a11575b6119fa81836133ef565b8101031261036257611a0b906136e9565b88611945565b503d6119f0565b60405162461bcd60e51b8152600481018690526028818601527f54726164652068617320616c7265616479206265656e2072617465642062792081840152673a3432903ab9b2b960c11b6064820152608490fd5b60405162461bcd60e51b81526004810186905260148186015273496e76616c696420726174696e672076616c756560601b81840152606490fd5b5060058611156118d3565b60405162461bcd60e51b81526004810186905260168186015275151c985919481a5cc81b9bdd08199a5b985b1a5e995960521b81840152606490fd5b84634e487b7160e01b60005260216004526000fd5b5060025487111561189b565b60405162461bcd60e51b815260048101869052602a818601527f4f6e6c7920747261646520706172746965732063616e20706572666f726d207481840152693434b99030b1ba34b7b760b11b6064820152608490fd5b8216331490508861188c565b611b8591503d806000833e6104f781836133ef565b50505050505050505050508861186e565b809250878092503d8311611bc9575b611baf81836133ef565b81010312610362576000611bc383926136e9565b90611834565b503d611ba5565b3461036257604036600319011261036257600435602435600881101561036257600054604051637050565360e01b8152602093916001600160a01b03919085908290600490829086165afa90811561035657600091611cd2575b50163303611c7457806000526003835260ff611c53836111c6836008604060002001541661362a565b541615610be157611c72926003916000525260086040600020016138ed565b005b60405162461bcd60e51b815260048101849052603060248201527f4f6e6c79204172626974726174696f6e20636f6e74726163742063616e20636160448201526f3636103a3434b990333ab731ba34b7b760811b6064820152608490fd5b90508481813d8311611d00575b611ce981836133ef565b8101031261036257611cfa906136e9565b85611c2a565b503d611cdf565b346103625760403660031901126103625760243560043560005260076020526040600020805482101561036257602091611d4091613612565b90546040519160031b1c8152f35b34610362576000366003190112610362576000546040516001600160a01b039091168152602090f35b346103625760203660031901126103625760043580151580611ea8575b611d9d9061365b565b6000526003602052604060002060405190611db7826133d3565b8054825260018060a01b038060018301541691602084019283526002810154936040810194855260038201549160608201928352611df760048201613410565b60808301908152611e0a60058301613410565b60a08401908152600683015460c08501908152611e2960078501613410565b9060e0860191825260ff60088601541692611e49610100880194856138ca565b6009860154986101208801998a52600b600a880154976101408a019889520154976101608101988952519a51169a5197519451905191519251935194600886101561058b57611ea4995196519751986040519c8d9c8d6134fd565b0390f35b50600254811115611d94565b34610362576020366003190112610362576020611ed2600435613951565b604051908152f35b346103625760208060031936011261036257600435600052600381526040600020604051611f07816133d3565b8154815260018201546001600160a01b0390811684830152600283015460408301526003830154606083015291600b90611f4360048201613410565b6080840152611f5460058201613410565b60a0840152600681015460c0840152611f6f60078201613410565b60e0840152611f8960ff60088301541661010085016138ca565b6009810154610120840152600a8101546101408401520154610160820152600483836000541660405192838092633ea42de360e01b82525afa8015610356578391600091612035575b506024600092935160405195869384926327db25f160e11b84526004840152165afa9182156103565760009261200d575b5060405191168152f35b6120239192503d806000833e6104f781836133ef565b50505050505050505050509083612003565b809250858092503d831161206e575b61204e81836133ef565b8101031261036257829160246120656000936136e9565b91939250611fd2565b503d612044565b34610362576040366003190112610362576024356001600160a01b03811690819003610362576004356000526006602052604060002090600052602052602060ff604060002054166040519015158152f35b34610362576040366003190112610362576120e06135fc565b602435908115158092036103625733600052600560205260ff60406000205416156121555760207fe68d2c359a771606c400cf8b87000cf5864010363d6a736e98f5047b7bbe18e99160018060a01b0316928360005260058252604060002060ff1981541660ff8316179055604051908152a2005b60405162461bcd60e51b815260206004820152602260248201527f4f6e6c792061646d696e2063616e20706572666f726d2074686973206163746960448201526137b760f11b6064820152608490fd5b346103625760208060031936011261036257600435906121c36139f8565b81151580612459575b6121d59061365b565b8160005260039081815260ff60086040600020015416600881101561058b5760016122009114613905565b8260005281815260ff60086040600020015416600881101561058b578261222891141561369e565b600054604051633ea42de360e01b81526001600160a01b03918216908381600481855afa801561035657839160009161241f575b506000908782528686526024604083205460405194859384926327db25f160e11b84526004840152165afa908115610356576000916123f9575b5082339116036123a15782600491604051928380926303577be960e21b82525afa9081156103565760009161236c575b501691836000528082528060406000200154833b156103625760009360448592604051968793849263342865ab60e11b84528a600485015260248401525af1928315610356577fc46f70879f2c8e8b148399f0e29f0a2ad37cec5d4a75ba302c254f80ca91fc439361235d575b508360005280825260406000200154604051908152a26001600080516020613a2983398151915255005b612366906133c0565b84612333565b90508281813d831161239a575b61238381836133ef565b8101031261036257612394906136e9565b856122c6565b503d612379565b60405162461bcd60e51b815260048101849052602a60248201527f4f6e6c79206f66666572206f776e65722063616e206c6f636b2063727970746f60448201526920696e20657363726f7760b01b6064820152608490fd5b61240e91503d806000833e6104f781836133ef565b505050505050505050505086612296565b809250858092503d8311612452575b61243881836133ef565b8101031261036257600061244c84926136e9565b9061225c565b503d61242e565b506002548211156121cc565b34610362576020366003190112610362576001600160a01b036124866135fc565b166000526005602052602060ff604060002054166040519015158152f35b34610362576020806003193601126103625760043590811515806127cb575b6124cc9061365b565b8160005260039081815260ff60086040600020015416600881101561058b5760016124f79114613905565b600083815282825260409020600101546001600160a01b039081163303612777578360005260078252604060002080548015159182612750575b505015612675576004828260005416604051928380926303577be960e21b82525afa801561035657829160009161263d575b501690846000528383526001604060002001541690803b156103625760405163de9d858760e01b8152600481018690526001600160a01b039290921660248301526000908290604490829084905af180156103565761262e575b505b826000528181526125da60ff6008604060002001541661362a565b6002600052815260ff60406000205416156107f15782600052526008604060002001600260ff198254161790557f451a001db5c51b7ca11b027313b2ad79d5049cb6fabaa4d3648cf7dddf732eaf600080a2005b612637906133c0565b836125bd565b809250848092503d831161266e575b61265681836133ef565b810103126103625761266882916136e9565b86612563565b503d61264c565b61267e84613951565b906004838260005416604051928380926303577be960e21b82525afa8015610356578291600091612718575b5016916000528383526001604060002001541690803b156103625760405163de9d858760e01b8152600481018690526001600160a01b039290921660248301526000908290604490829084905af1801561035657612709575b506125bf565b612712906133c0565b83612703565b809250858092503d8311612749575b61273181836133ef565b810103126103625761274382916136e9565b876126aa565b503d612727565b6000198201925090821161088657859161276991613612565b905490851b1c148580612531565b60405162461bcd60e51b815260048101839052602660248201527f4f6e6c792074726164652074616b65722063616e206d61726b206669617420616044820152651cc81c185a5960d21b6064820152608490fd5b506002548211156124c3565b346103625760e0366003190112610362576004356001600160401b03811161036257366023820112156103625780600401359061281382613583565b9161282160405193846133ef565b8083526024602084019160051b8301019136831161036257602401905b828210612edb57836064356001600160401b038111610362576128659036906004016135b5565b906084356001600160401b038111610362576128859036906004016135b5565b60c4356001600160401b038111610362576128a49036906004016135b5565b825115612e8c578251916128d06128ba84613583565b936128c860405195866133ef565b808552613583565b601f190136602085013760005b8451811015612d82576128f081866138a7565b51906128fd6002546138bb565b91826002556040519261290f846133d3565b818452336020850152602435604085015260443560608501528860808501528460a085015260a43560c08501528560e08501526000610100850152426101208501526000610140850152600061016085015260005260036020526040600020835181556001810160018060a01b036020860151166bffffffffffffffffffffffff60a01b825416179055604084015160028201556060840151600382015560808401518051906001600160401b038211612c085781906129d26004850154613386565b601f8111612d4d575b50602090601f8311600114612cdb57600092612cd0575b50508160011b916000199060031b1c19161760048201555b60a08401518051906001600160401b038211612c08578190612a2f6005850154613386565b601f8111612c9b575b50602090601f8311600114612c2957600092612c1e575b50508160011b916000199060031b1c19161760058201555b60c0840151600682015560e08401518051906001600160401b038211612c08578190612a966007850154613386565b601f8111612bc8575b50602090601f8311600114612b5657600092612b4b575b50508160011b916000199060031b1c19161760078201555b61010084015193600885101561058b57610160600b91612af3600197600886016138ed565b6101208101516009850155610140810151600a85015501519101556002549081612b1d84896138a7565b5233917f6e1cf3a650ca8202a8a7876101e709a4307e5639c8d4015993e000f3d026e310600080a4016128dd565b015190508b80612ab6565b9250600784016000526020600020906000935b601f1984168510612bad576001945083601f19811610612b94575b505050811b016007820155612ace565b015160001960f88460031b161c191690558b8080612b84565b81810151835560209485019460019093019290910190612b69565b612bf890600786016000526020600020601f850160051c81019160208610612bfe575b601f0160051c01906138d6565b8c612a9f565b9091508190612beb565b634e487b7160e01b600052604160045260246000fd5b015190508b80612a4f565b9250600584016000526020600020906000935b601f1984168510612c80576001945083601f19811610612c67575b505050811b016005820155612a67565b015160001960f88460031b161c191690558b8080612c57565b81810151835560209485019460019093019290910190612c3c565b612cca90600586016000526020600020601f850160051c81019160208610612bfe57601f0160051c01906138d6565b8c612a38565b015190508b806129f2565b9250600484016000526020600020906000935b601f1984168510612d32576001945083601f19811610612d19575b505050811b016004820155612a0a565b015160001960f88460031b161c191690558b8080612d09565b81810151835560209485019460019093019290910190612cee565b612d7c90600486016000526020600020601f850160051c81019160208610612bfe57601f0160051c01906138d6565b8c6129db565b83805115612e76576020810151600052600760205260406000208151906001600160401b038211612c0857680100000000000000008211612c08578054828255808310612e58575b506020830190600052602060002060005b838110612e4457846040516020810160208252825180915260206040830193019060005b818110612e2e577ff6b8cf4789b130b38fe88fbc6db8baf8120d8f060232f086490925a25737ce9e84860385a1005b8251855260209485019490920191600101612dff565b600190602084519401938184015501612ddb565b612e70908260005283602060002091820191016138d6565b83612dca565b634e487b7160e01b600052603260045260246000fd5b60405162461bcd60e51b815260206004820152602160248201527f4174206c65617374206f6e65206f6666657220494420697320726571756972656044820152601960fa1b6064820152608490fd5b813581526020918201910161283e565b3461036257602036600319011261036257600435600052600360205260406000208054611ea460018060a01b03600184015416926002810154906003810154612f3660048301613410565b612f4260058401613410565b6006840154612f5360078601613410565b9160ff60088701541693600987015495600b600a890154980154986040519c8d9c8d6134fd565b34610362576020366003190112610362576020611ed2600435613811565b34610362576020806003193601126103625760043590612fb66139f8565b8115158061337a575b612fc89061365b565b8160005260039081815260ff91600890838260406000200154168281101561058b57158015613358575b156133035784600052808352838260406000200154168281101561058b576005146132a25784600052808352838260406000200154168281101561058b578161303c91141561369e565b600054604051633ea42de360e01b81526001600160a01b0395918590829060049082908a165afa8015610356578691600091613268575b5060009088825284875260246040832054604051998a9384926327db25f160e11b84526004840152165afa9586156103565760009661323c575b506130d8908760005283865260019681600160406000200154163314918215613230575b50506137b4565b856000528184526130f18184604060002001541661362a565b600460005284526040600020541615610be157846000528252600760406000209182019160ff1992600484825416179055019160405193818552600093805461313981613386565b9485858901526001821691826000146131ea575050600114613191575b867fc742381126185889f1ed17e46bced0266b422cdd0ee6e26d1ccac51250ff63c687870388a26001600080516020613a2983398151915255005b60009081528281209094505b8385106131d657505050508101604001817fc742381126185889f1ed17e46bced0266b422cdd0ee6e26d1ccac51250ff63c68580613156565b80548686016040015293820193810161319d565b91509150869550604093507fc742381126185889f1ed17e46bced0266b422cdd0ee6e26d1ccac51250ff63c6969492501682840152151560051b82010191928580613156565b163314905088806130d1565b6130d8919650613256903d806000833e6104f781836133ef565b505050505050505050505095906130ad565b809250868092503d831161329b575b61328181836133ef565b8101031261036257600061329587926136e9565b90613073565b503d613277565b60405162461bcd60e51b815260048101849052603360248201527f54726164652063616e6e6f742062652063616e63656c6c6564206966206974206044820152721a5cc8185b1c9958591e48191a5cdc1d5d1959606a1b6064820152608490fd5b60405162461bcd60e51b815260048101849052602760248201527f54726164652063616e6e6f742062652063616e63656c6c6564206174207468696044820152667320737461676560c81b6064820152608490fd5b5084600052808352838260406000200154168281101561058b57600114612ff2565b50600254821115612fbf565b90600182811c921680156133b6575b60208310146133a057565b634e487b7160e01b600052602260045260246000fd5b91607f1691613395565b6001600160401b038111612c0857604052565b61018081019081106001600160401b03821117612c0857604052565b90601f801991011681019081106001600160401b03821117612c0857604052565b9060405191826000825461342381613386565b908184526020946001916001811690816000146134935750600114613454575b505050613452925003836133ef565b565b600090815285812095935091905b81831061347b5750506134529350820101388080613443565b85548884018501529485019487945091830191613462565b9250505061345294925060ff191682840152151560051b820101388080613443565b60005b8381106134c85750506000910152565b81810151838201526020016134b8565b906020916134f1815180928185528580860191016134b5565b601f01601f1916010190565b98999c9b9a97949061354c9461355f98979461353e94610180938d5260018060a01b031660208d015260408c015260608b01528060808b01528901906134d8565b9087820360a08901526134d8565b9160c086015284820360e08601526134d8565b95600884101561058b57610160936101008401526101208301526101408201520152565b6001600160401b038111612c085760051b60200190565b6001600160401b038111612c0857601f01601f191660200190565b81601f82011215610362578035906135cc8261359a565b926135da60405194856133ef565b8284526020838301011161036257816000926020809301838601378301015290565b600435906001600160a01b038216820361036257565b8054821015612e765760005260206000200190600090565b600881101561058b576000526004602052604060002090565b90600881101561058b57600052602052604060002090565b1561366257565b60405162461bcd60e51b8152602060048201526014602482015273151c98591948191bd95cc81b9bdd08195e1a5cdd60621b6044820152606490fd5b156136a557565b606460405162461bcd60e51b815260206004820152602060248201527f54726164652068617320616c7265616479206265656e2066696e616c697a65646044820152fd5b51906001600160a01b038216820361036257565b6101808183031261036257613711816136e9565b9260208201519260408301519260608101519260808201519260a08301519260c08101519260e0820151926101008301516001600160401b03811161036257830181601f820112156103625780516137688161359a565b9261377660405194856133ef565b818452602082840101116103625761379491602080850191016134b5565b916101208101518015158103610362579161016061014083015192015190565b156137bb57565b60405162461bcd60e51b815260206004820152602860248201527f4f6e6c7920747261646520706172746965732063616e20646973707574652074604482015267686520747261646560c01b6064820152608490fd5b6000908060005260076020526040600020908154916001936001841161383c575b5050505050600090565b60015b84811061384c5750613832565b836138578285613612565b919054600392831b1c1461386d5750850161383f565b95506000198101945091925090831161389357509061388b91613612565b9054911b1c90565b634e487b7160e01b81526011600452602490fd5b8051821015612e765760209160051b010190565b60001981146108865760010190565b600882101561058b5752565b8181106138e1575050565b600081556001016138d6565b90600881101561058b5760ff80198354169116179055565b1561390c57565b60405162461bcd60e51b815260206004820152601f60248201527f5472616465206973206e6f7420696e20616363657074656420737461747573006044820152606490fd5b6000908082526007602052604082209081549060019260018311613977575b5050505090565b8493926000198101908111845b613993575b5050839450613970565b806139e457818710156139df57836139ab8885613612565b919054600392831b1c146139c457509584019584613984565b96959350505091830180931161389357509061388b91613612565b613989565b634e487b7160e01b86526011600452602486fd5b600080516020613a298339815191526002815414613a165760029055565b604051633ee5aeb560e01b8152600490fdfe9b779b17422d0df92223018b32b4d1fa46e071723d6817e2486d003becc55f00a264697066735822122043519868f94fd8615218eac44aab4582e15eb432bb285be47d82d8b2a8408ca164736f6c63430008180033","opcodes":"PUSH1 0x80 CALLVALUE PUSH3 0x1A6 JUMPI PUSH1 0x1F PUSH3 0x3C40 CODESIZE DUP2 SWAP1 SUB SWAP2 DUP3 ADD PUSH1 0x1F NOT AND DUP4 ADD SWAP3 SWAP2 PUSH1 0x1 PUSH1 0x1 PUSH1 0x40 SHL SUB DUP5 GT DUP4 DUP6 LT OR PUSH3 0x1AB JUMPI DUP1 DUP4 SWAP3 PUSH1 0x40 SWAP6 DUP7 MSTORE DUP4 CODECOPY PUSH1 0x20 SWAP3 DUP4 SWAP2 DUP2 ADD SUB SLT PUSH3 0x1A6 JUMPI MLOAD PUSH1 0x1 PUSH1 0x1 PUSH1 0xA0 SHL SUB DUP2 AND SWAP1 DUP2 SWAP1 SUB PUSH3 0x1A6 JUMPI DUP3 PUSH1 0x1 DUP1 PUSH1 0xA0 SHL SUB NOT SWAP2 PUSH1 0x0 SWAP1 DUP4 DUP3 SLOAD AND OR DUP2 SSTORE PUSH1 0x1 SWAP3 CALLER SWAP1 DUP5 SLOAD AND OR DUP4 SSTORE DUP1 DUP1 MSTORE PUSH1 0x4 SWAP4 DUP5 DUP2 MSTORE DUP3 DUP3 KECCAK256 DUP5 DUP4 MSTORE DUP2 MSTORE DUP3 DUP3 KECCAK256 SWAP5 PUSH1 0xFF NOT SWAP6 DUP6 DUP8 DUP3 SLOAD AND OR SWAP1 SSTORE DUP3 DUP1 MSTORE DUP1 DUP3 MSTORE DUP4 DUP4 KECCAK256 DUP2 DUP5 MSTORE DUP3 MSTORE DUP4 DUP4 KECCAK256 DUP6 DUP8 DUP3 SLOAD AND OR SWAP1 SSTORE DUP5 DUP4 MSTORE DUP1 DUP3 MSTORE DUP4 DUP4 KECCAK256 PUSH1 0x2 DUP5 MSTORE DUP3 MSTORE DUP4 DUP4 KECCAK256 DUP6 DUP8 DUP3 SLOAD AND OR SWAP1 SSTORE DUP5 DUP4 MSTORE DUP1 DUP3 MSTORE DUP4 DUP4 KECCAK256 PUSH1 0x5 DUP5 MSTORE DUP3 MSTORE DUP4 DUP4 KECCAK256 DUP6 DUP8 DUP3 SLOAD AND OR SWAP1 SSTORE DUP1 DUP3 MSTORE DUP4 DUP4 KECCAK256 PUSH1 0x3 DUP5 MSTORE DUP3 MSTORE DUP4 DUP4 KECCAK256 DUP6 DUP8 DUP3 SLOAD AND OR SWAP1 SSTORE PUSH1 0x5 DUP4 MSTORE DUP1 DUP3 MSTORE DUP4 DUP4 KECCAK256 DUP2 DUP5 MSTORE DUP3 MSTORE DUP4 DUP4 KECCAK256 DUP6 DUP8 DUP3 SLOAD AND OR SWAP1 SSTORE DUP3 DUP1 MSTORE DUP1 DUP3 MSTORE DUP4 DUP4 KECCAK256 PUSH1 0x6 DUP5 MSTORE DUP3 MSTORE DUP4 DUP4 KECCAK256 DUP6 DUP8 DUP3 SLOAD AND OR SWAP1 SSTORE DUP5 DUP4 MSTORE DUP1 DUP3 MSTORE DUP4 DUP4 KECCAK256 PUSH1 0x6 DUP5 MSTORE DUP3 MSTORE DUP4 DUP4 KECCAK256 DUP6 DUP8 DUP3 SLOAD AND OR SWAP1 SSTORE DUP5 DUP4 MSTORE DUP1 DUP3 MSTORE DUP4 DUP4 KECCAK256 DUP2 DUP5 MSTORE DUP3 MSTORE DUP4 DUP4 KECCAK256 DUP6 DUP8 DUP3 SLOAD AND OR SWAP1 SSTORE PUSH1 0x2 DUP4 MSTORE DUP1 DUP3 MSTORE DUP4 DUP4 KECCAK256 PUSH1 0x3 DUP5 MSTORE DUP3 MSTORE DUP4 DUP4 KECCAK256 DUP6 DUP8 DUP3 SLOAD AND OR SWAP1 SSTORE PUSH1 0x2 DUP4 MSTORE DUP2 MSTORE DUP3 DUP3 KECCAK256 SWAP1 PUSH1 0x5 DUP4 MSTORE MSTORE KECCAK256 SWAP2 DUP3 SLOAD AND OR SWAP1 SSTORE MLOAD PUSH2 0x3A7E SWAP1 DUP2 PUSH3 0x1C2 DUP3 CODECOPY RETURN JUMPDEST PUSH1 0x0 DUP1 REVERT JUMPDEST PUSH4 0x4E487B71 PUSH1 0xE0 SHL PUSH1 0x0 MSTORE PUSH1 0x41 PUSH1 0x4 MSTORE PUSH1 0x24 PUSH1 0x0 REVERT INVALID PUSH1 0x80 PUSH1 0x40 MSTORE PUSH1 0x4 CALLDATASIZE LT ISZERO PUSH2 0x12 JUMPI PUSH1 0x0 DUP1 REVERT JUMPDEST PUSH1 0x0 CALLDATALOAD PUSH1 0xE0 SHR DUP1 PUSH4 0x9EC6CC7 EQ PUSH2 0x2F98 JUMPI DUP1 PUSH4 0x12EA634C EQ PUSH2 0x2F7A JUMPI DUP1 PUSH4 0x1E6C598E EQ PUSH2 0x2EEB JUMPI DUP1 PUSH4 0x40EBDAD6 EQ PUSH2 0x27D7 JUMPI DUP1 PUSH4 0x419F778A EQ PUSH2 0x24A4 JUMPI DUP1 PUSH4 0x429B62E5 EQ PUSH2 0x2465 JUMPI DUP1 PUSH4 0x491719E5 EQ PUSH2 0x21A5 JUMPI DUP1 PUSH4 0x4B0BDDD2 EQ PUSH2 0x20C7 JUMPI DUP1 PUSH4 0x5046FDDD EQ PUSH2 0x2075 JUMPI DUP1 PUSH4 0x5395DB68 EQ PUSH2 0x1EDA JUMPI DUP1 PUSH4 0x5741F734 EQ PUSH2 0x1EB4 JUMPI DUP1 PUSH4 0x695730A5 EQ PUSH2 0x1D77 JUMPI DUP1 PUSH4 0x7B103999 EQ PUSH2 0x1D4E JUMPI DUP1 PUSH4 0x7F002E81 EQ PUSH2 0x1D07 JUMPI DUP1 PUSH4 0x88A2976E EQ PUSH2 0x1BD0 JUMPI DUP1 PUSH4 0x8A2829E7 EQ PUSH2 0x17BF JUMPI DUP1 PUSH4 0x8BA9F708 EQ PUSH2 0x142F JUMPI DUP1 PUSH4 0x8DA5CB5B EQ PUSH2 0x1406 JUMPI DUP1 PUSH4 0x92479507 EQ PUSH2 0x11D7 JUMPI DUP1 PUSH4 0xA5350EA6 EQ PUSH2 0x118C JUMPI DUP1 PUSH4 0xB4195C47 EQ PUSH2 0xF9B JUMPI DUP1 PUSH4 0xBD55022A EQ PUSH2 0xF7D JUMPI DUP1 PUSH4 0xD58C71A5 EQ PUSH2 0x984 JUMPI DUP1 PUSH4 0xD684D5B1 EQ PUSH2 0x6E6 JUMPI DUP1 PUSH4 0xDED0BFBF EQ PUSH2 0x5AD JUMPI PUSH4 0xECB9FEC3 EQ PUSH2 0x13A JUMPI PUSH1 0x0 DUP1 REVERT JUMPDEST CALLVALUE PUSH2 0x362 JUMPI PUSH1 0x20 DUP1 PUSH1 0x3 NOT CALLDATASIZE ADD SLT PUSH2 0x362 JUMPI PUSH1 0x4 CALLDATALOAD SWAP1 DUP2 ISZERO ISZERO DUP1 PUSH2 0x5A1 JUMPI JUMPDEST PUSH2 0x162 SWAP1 PUSH2 0x365B JUMP JUMPDEST DUP2 PUSH1 0x0 MSTORE PUSH1 0x3 SWAP1 DUP2 DUP2 MSTORE PUSH1 0xFF PUSH1 0x8 PUSH1 0x40 PUSH1 0x0 KECCAK256 ADD SLOAD AND PUSH1 0x8 DUP2 LT ISZERO PUSH2 0x58B JUMPI PUSH2 0x548 JUMPI PUSH1 0x0 SLOAD PUSH1 0x40 MLOAD PUSH4 0x3EA42DE3 PUSH1 0xE0 SHL DUP2 MSTORE PUSH1 0x1 PUSH1 0x1 PUSH1 0xA0 SHL SUB SWAP2 DUP3 AND DUP4 DUP3 PUSH1 0x4 DUP2 DUP5 GAS STATICCALL DUP1 ISZERO PUSH2 0x356 JUMPI DUP4 SWAP3 PUSH1 0x0 SWAP2 PUSH2 0x510 JUMPI JUMPDEST POP DUP7 PUSH1 0x0 MSTORE DUP6 DUP6 MSTORE PUSH1 0x0 PUSH1 0x40 DUP2 KECCAK256 SLOAD PUSH1 0x40 MLOAD SWAP3 DUP4 SWAP2 PUSH4 0x27DB25F1 PUSH1 0xE1 SHL DUP4 MSTORE PUSH1 0x4 DUP4 ADD MSTORE DUP2 PUSH1 0x24 SWAP8 DUP9 SWAP3 AND GAS STATICCALL SWAP1 DUP2 ISZERO PUSH2 0x356 JUMPI PUSH1 0x0 SWAP2 PUSH2 0x4E2 JUMPI JUMPDEST POP DUP3 CALLER SWAP2 AND SUB PUSH2 0x490 JUMPI DUP6 PUSH1 0x0 MSTORE PUSH1 0x7 DUP5 MSTORE PUSH1 0x40 PUSH1 0x0 KECCAK256 DUP1 SLOAD ISZERO SWAP1 DUP2 ISZERO SWAP2 DUP3 PUSH2 0x463 JUMPI JUMPDEST POP POP ISZERO PUSH2 0x39C JUMPI POP PUSH1 0x4 DUP4 DUP3 PUSH1 0x0 SLOAD AND PUSH1 0x40 MLOAD SWAP3 DUP4 DUP1 SWAP3 PUSH4 0x3577BE9 PUSH1 0xE2 SHL DUP3 MSTORE GAS STATICCALL SWAP1 DUP2 ISZERO PUSH2 0x356 JUMPI PUSH1 0x0 SWAP2 PUSH2 0x367 JUMPI JUMPDEST POP AND DUP5 PUSH1 0x0 MSTORE DUP4 DUP4 MSTORE DUP4 PUSH1 0x40 PUSH1 0x0 KECCAK256 ADD SLOAD DUP2 EXTCODESIZE ISZERO PUSH2 0x362 JUMPI PUSH1 0x0 SWAP2 PUSH1 0x44 DUP4 SWAP3 PUSH1 0x40 MLOAD SWAP5 DUP6 SWAP4 DUP5 SWAP3 PUSH4 0x342865AB PUSH1 0xE1 SHL DUP5 MSTORE DUP12 PUSH1 0x4 DUP6 ADD MSTORE DUP9 DUP5 ADD MSTORE GAS CALL DUP1 ISZERO PUSH2 0x356 JUMPI PUSH2 0x347 JUMPI JUMPDEST POP JUMPDEST DUP4 PUSH1 0x0 MSTORE DUP3 DUP3 MSTORE PUSH2 0x2AF PUSH1 0xFF PUSH1 0x8 PUSH1 0x40 PUSH1 0x0 KECCAK256 ADD SLOAD AND PUSH2 0x362A JUMP JUMPDEST PUSH1 0x1 PUSH1 0x0 MSTORE DUP3 MSTORE PUSH1 0xFF PUSH1 0x40 PUSH1 0x0 KECCAK256 SLOAD AND ISZERO PUSH2 0x304 JUMPI POP DUP3 PUSH1 0x0 MSTORE MSTORE PUSH1 0x8 PUSH1 0x40 PUSH1 0x0 KECCAK256 ADD PUSH1 0x1 PUSH1 0xFF NOT DUP3 SLOAD AND OR SWAP1 SSTORE PUSH32 0x102F3CCC8E36F2A6AFB43E960EB0C3A01B90374F18F8370F68B83639924B4433 PUSH1 0x0 DUP1 LOG2 STOP JUMPDEST SWAP1 PUSH1 0x1F PUSH1 0x64 SWAP3 PUSH1 0x40 MLOAD SWAP3 PUSH3 0x461BCD PUSH1 0xE5 SHL DUP5 MSTORE PUSH1 0x4 DUP5 ADD MSTORE DUP3 ADD MSTORE PUSH32 0x496E76616C696420747261646520737461747573207472616E736974696F6E00 PUSH1 0x44 DUP3 ADD MSTORE REVERT JUMPDEST PUSH2 0x350 SWAP1 PUSH2 0x33C0 JUMP JUMPDEST CODESIZE PUSH2 0x292 JUMP JUMPDEST PUSH1 0x40 MLOAD RETURNDATASIZE PUSH1 0x0 DUP3 RETURNDATACOPY RETURNDATASIZE SWAP1 REVERT JUMPDEST PUSH1 0x0 DUP1 REVERT JUMPDEST SWAP1 POP DUP4 DUP2 DUP2 RETURNDATASIZE DUP4 GT PUSH2 0x395 JUMPI JUMPDEST PUSH2 0x37E DUP2 DUP4 PUSH2 0x33EF JUMP JUMPDEST DUP2 ADD SUB SLT PUSH2 0x362 JUMPI PUSH2 0x38F SWAP1 PUSH2 0x36E9 JUMP JUMPDEST CODESIZE PUSH2 0x24A JUMP JUMPDEST POP RETURNDATASIZE PUSH2 0x374 JUMP JUMPDEST SWAP1 PUSH1 0x4 DUP5 PUSH2 0x3A9 DUP9 PUSH2 0x3811 JUMP JUMPDEST SWAP4 PUSH1 0x40 MLOAD SWAP3 DUP4 DUP1 SWAP3 PUSH4 0x3577BE9 PUSH1 0xE2 SHL DUP3 MSTORE GAS STATICCALL SWAP1 DUP2 ISZERO PUSH2 0x356 JUMPI PUSH1 0x0 SWAP2 PUSH2 0x42E JUMPI JUMPDEST POP AND SWAP1 DUP6 PUSH1 0x0 MSTORE DUP5 DUP5 MSTORE DUP5 PUSH1 0x40 PUSH1 0x0 KECCAK256 ADD SLOAD DUP3 EXTCODESIZE ISZERO PUSH2 0x362 JUMPI PUSH1 0x64 PUSH1 0x0 SWAP3 DUP4 PUSH1 0x40 MLOAD SWAP6 DUP7 SWAP5 DUP6 SWAP4 PUSH4 0xBE81ABD5 PUSH1 0xE0 SHL DUP6 MSTORE PUSH1 0x4 DUP6 ADD MSTORE DUP12 DUP10 DUP6 ADD MSTORE PUSH1 0x44 DUP5 ADD MSTORE GAS CALL DUP1 ISZERO PUSH2 0x356 JUMPI PUSH2 0x41F JUMPI JUMPDEST POP PUSH2 0x294 JUMP JUMPDEST PUSH2 0x428 SWAP1 PUSH2 0x33C0 JUMP JUMPDEST CODESIZE PUSH2 0x419 JUMP JUMPDEST SWAP1 POP DUP5 DUP2 DUP2 RETURNDATASIZE DUP4 GT PUSH2 0x45C JUMPI JUMPDEST PUSH2 0x445 DUP2 DUP4 PUSH2 0x33EF JUMP JUMPDEST DUP2 ADD SUB SLT PUSH2 0x362 JUMPI PUSH2 0x456 SWAP1 PUSH2 0x36E9 JUMP JUMPDEST CODESIZE PUSH2 0x3CC JUMP JUMPDEST POP RETURNDATASIZE PUSH2 0x43B JUMP JUMPDEST SWAP1 SWAP2 POP PUSH2 0x47B JUMPI PUSH1 0x0 MSTORE DUP6 DUP5 PUSH1 0x0 KECCAK256 SLOAD EQ CODESIZE DUP1 PUSH2 0x218 JUMP JUMPDEST DUP4 PUSH4 0x4E487B71 PUSH1 0xE0 SHL PUSH1 0x0 MSTORE PUSH1 0x32 PUSH1 0x4 MSTORE PUSH1 0x0 REVERT JUMPDEST PUSH1 0x40 MLOAD PUSH3 0x461BCD PUSH1 0xE5 SHL DUP2 MSTORE PUSH1 0x4 DUP2 ADD DUP6 SWAP1 MSTORE PUSH1 0x25 DUP2 DUP6 ADD MSTORE PUSH32 0x4F6E6C79206F66666572206F776E65722063616E206163636570742074686520 PUSH1 0x44 DUP3 ADD MSTORE PUSH5 0x7472616465 PUSH1 0xD8 SHL PUSH1 0x64 DUP3 ADD MSTORE PUSH1 0x84 SWAP1 REVERT JUMPDEST PUSH2 0x4FF SWAP2 POP RETURNDATASIZE DUP1 PUSH1 0x0 DUP4 RETURNDATACOPY PUSH2 0x4F7 DUP2 DUP4 PUSH2 0x33EF JUMP JUMPDEST DUP2 ADD SWAP1 PUSH2 0x36FD JUMP JUMPDEST POP POP POP POP POP POP POP POP POP POP POP CODESIZE PUSH2 0x1F4 JUMP JUMPDEST DUP1 SWAP4 POP DUP6 DUP1 SWAP3 POP RETURNDATASIZE DUP4 GT PUSH2 0x541 JUMPI JUMPDEST PUSH2 0x529 DUP2 DUP4 PUSH2 0x33EF JUMP JUMPDEST DUP2 ADD SUB SLT PUSH2 0x362 JUMPI PUSH2 0x53B DUP4 SWAP3 PUSH2 0x36E9 JUMP JUMPDEST CODESIZE PUSH2 0x1B8 JUMP JUMPDEST POP RETURNDATASIZE PUSH2 0x51F JUMP JUMPDEST PUSH1 0x64 SWAP1 PUSH1 0x40 MLOAD SWAP1 PUSH3 0x461BCD PUSH1 0xE5 SHL DUP3 MSTORE DUP1 PUSH1 0x4 DUP4 ADD MSTORE PUSH1 0x24 DUP3 ADD MSTORE PUSH32 0x5472616465206973206E6F7420696E20696E6974696174656420737461747573 PUSH1 0x44 DUP3 ADD MSTORE REVERT JUMPDEST PUSH4 0x4E487B71 PUSH1 0xE0 SHL PUSH1 0x0 MSTORE PUSH1 0x21 PUSH1 0x4 MSTORE PUSH1 0x24 PUSH1 0x0 REVERT JUMPDEST POP PUSH1 0x2 SLOAD DUP3 GT ISZERO PUSH2 0x159 JUMP JUMPDEST CALLVALUE PUSH2 0x362 JUMPI PUSH1 0x0 CALLDATASIZE PUSH1 0x3 NOT ADD SLT PUSH2 0x362 JUMPI PUSH1 0x0 DUP1 PUSH1 0x0 DUP1 PUSH1 0x0 SWAP1 PUSH1 0x0 SWAP3 PUSH1 0x1 SWAP6 PUSH1 0x1 PUSH1 0x2 SLOAD JUMPDEST DUP1 DUP3 GT ISZERO PUSH2 0x602 JUMPI POP POP PUSH1 0xC0 SWAP7 POP PUSH1 0x40 MLOAD SWAP6 DUP7 MSTORE PUSH1 0x20 DUP7 ADD MSTORE PUSH1 0x40 DUP6 ADD MSTORE PUSH1 0x60 DUP5 ADD MSTORE PUSH1 0x80 DUP4 ADD MSTORE PUSH1 0xA0 DUP3 ADD MSTORE RETURN JUMPDEST SWAP1 SWAP7 DUP8 PUSH1 0x0 MSTORE PUSH1 0x3 DUP1 PUSH1 0x20 MSTORE PUSH1 0x8 SWAP1 PUSH1 0xFF DUP3 PUSH1 0x40 PUSH1 0x0 KECCAK256 ADD SLOAD AND SWAP2 DUP3 LT ISZERO PUSH2 0x58B JUMPI DUP2 PUSH2 0x643 JUMPI POP POP PUSH2 0x637 PUSH2 0x63D SWAP2 PUSH2 0x38BB JUMP JUMPDEST SWAP8 PUSH2 0x38BB JUMP JUMPDEST SWAP1 PUSH2 0x5D3 JUMP JUMPDEST SWAP2 SWAP9 SWAP4 SWAP2 DUP2 DUP12 SUB PUSH2 0x662 JUMPI POP POP PUSH2 0x65C PUSH2 0x63D SWAP2 PUSH2 0x38BB JUMP JUMPDEST SWAP3 PUSH2 0x38BB JUMP JUMPDEST SWAP4 SWAP5 SWAP2 SWAP4 DUP2 SUB PUSH2 0x67F JUMPI POP PUSH2 0x679 PUSH2 0x63D SWAP2 PUSH2 0x38BB JUMP JUMPDEST SWAP4 PUSH2 0x38BB JUMP JUMPDEST SWAP4 SWAP5 SWAP1 SWAP4 PUSH1 0x4 DUP2 SUB PUSH2 0x69E JUMPI POP PUSH2 0x698 PUSH2 0x63D SWAP2 PUSH2 0x38BB JUMP JUMPDEST SWAP5 PUSH2 0x38BB JUMP JUMPDEST SWAP5 SWAP6 SWAP1 SWAP5 PUSH1 0x5 DUP2 SUB PUSH2 0x6BD JUMPI POP PUSH2 0x6B7 PUSH2 0x63D SWAP2 PUSH2 0x38BB JUMP JUMPDEST SWAP6 PUSH2 0x38BB JUMP JUMPDEST SWAP1 SWAP6 SWAP1 PUSH1 0x6 EQ PUSH2 0x6D1 JUMPI JUMPDEST PUSH2 0x63D SWAP1 PUSH2 0x38BB JUMP JUMPDEST SWAP6 PUSH2 0x6DE PUSH2 0x63D SWAP2 PUSH2 0x38BB JUMP JUMPDEST SWAP7 SWAP1 POP PUSH2 0x6C8 JUMP JUMPDEST CALLVALUE PUSH2 0x362 JUMPI PUSH1 0x20 DUP1 PUSH1 0x3 NOT CALLDATASIZE ADD SLT PUSH2 0x362 JUMPI PUSH1 0x4 CALLDATALOAD SWAP1 DUP2 ISZERO ISZERO DUP1 PUSH2 0x978 JUMPI JUMPDEST PUSH2 0x70E SWAP1 PUSH2 0x365B JUMP JUMPDEST DUP2 PUSH1 0x0 MSTORE PUSH1 0x3 DUP1 DUP3 MSTORE PUSH1 0xFF SWAP2 PUSH1 0x8 SWAP3 DUP1 DUP5 PUSH1 0x40 PUSH1 0x0 KECCAK256 ADD SLOAD AND DUP5 DUP2 LT ISZERO PUSH2 0x58B JUMPI ISZERO DUP1 ISZERO PUSH2 0x956 JUMPI JUMPDEST DUP1 ISZERO PUSH2 0x934 JUMPI JUMPDEST ISZERO PUSH2 0x8DF JUMPI DUP5 PUSH1 0x0 MSTORE DUP3 DUP3 MSTORE DUP1 DUP5 PUSH1 0x40 PUSH1 0x0 KECCAK256 ADD SLOAD AND DUP5 DUP2 LT ISZERO PUSH2 0x58B JUMPI PUSH1 0x6 EQ PUSH2 0x89C JUMPI DUP5 PUSH1 0x0 MSTORE DUP3 DUP3 MSTORE PUSH1 0x40 PUSH1 0x0 KECCAK256 PUSH1 0x6 PUSH1 0x9 DUP3 ADD SLOAD SWAP2 ADD SLOAD DUP2 ADD DUP1 SWAP2 GT PUSH2 0x886 JUMPI TIMESTAMP LT PUSH2 0x835 JUMPI DUP5 PUSH1 0x0 MSTORE DUP3 DUP3 MSTORE PUSH2 0x7A1 DUP2 DUP6 PUSH1 0x40 PUSH1 0x0 KECCAK256 ADD SLOAD AND PUSH2 0x362A JUMP JUMPDEST PUSH1 0x6 PUSH1 0x0 MSTORE DUP3 MSTORE PUSH1 0x40 PUSH1 0x0 KECCAK256 SLOAD AND ISZERO PUSH2 0x7F1 JUMPI DUP4 PUSH1 0x0 MSTORE MSTORE PUSH1 0x40 PUSH1 0x0 KECCAK256 ADD PUSH1 0x6 PUSH1 0xFF NOT DUP3 SLOAD AND OR SWAP1 SSTORE PUSH32 0xB5572D3C012C3C87CB7F7DEA790839327DF3E6ECDB3BBD1B1AB2EE4B18ACE512 PUSH1 0x0 DUP1 LOG2 STOP JUMPDEST PUSH1 0x64 SWAP1 PUSH1 0x40 MLOAD SWAP1 PUSH3 0x461BCD PUSH1 0xE5 SHL DUP3 MSTORE PUSH1 0x4 DUP3 ADD MSTORE PUSH1 0x1F PUSH1 0x24 DUP3 ADD MSTORE PUSH32 0x496E76616C696420747261646520737461747573207472616E736974696F6E00 PUSH1 0x44 DUP3 ADD MSTORE REVERT JUMPDEST PUSH1 0x40 MLOAD PUSH3 0x461BCD PUSH1 0xE5 SHL DUP2 MSTORE PUSH1 0x4 DUP2 ADD DUP4 SWAP1 MSTORE PUSH1 0x23 PUSH1 0x24 DUP3 ADD MSTORE PUSH32 0x54726164652074696D656F757420706572696F6420686173206E6F7420706173 PUSH1 0x44 DUP3 ADD MSTORE PUSH3 0x1CD959 PUSH1 0xEA SHL PUSH1 0x64 DUP3 ADD MSTORE PUSH1 0x84 SWAP1 REVERT JUMPDEST PUSH4 0x4E487B71 PUSH1 0xE0 SHL PUSH1 0x0 MSTORE PUSH1 0x11 PUSH1 0x4 MSTORE PUSH1 0x24 PUSH1 0x0 REVERT JUMPDEST PUSH1 0x64 DUP3 PUSH1 0x40 MLOAD SWAP1 PUSH3 0x461BCD PUSH1 0xE5 SHL DUP3 MSTORE DUP1 PUSH1 0x4 DUP4 ADD MSTORE PUSH1 0x24 DUP3 ADD MSTORE PUSH32 0x54726164652068617320616C7265616479206265656E2074696D6564206F7574 PUSH1 0x44 DUP3 ADD MSTORE REVERT JUMPDEST PUSH1 0x40 MLOAD PUSH3 0x461BCD PUSH1 0xE5 SHL DUP2 MSTORE PUSH1 0x4 DUP2 ADD DUP4 SWAP1 MSTORE PUSH1 0x27 PUSH1 0x24 DUP3 ADD MSTORE PUSH32 0x54726164652063616E6E6F742062652074696D6564206F757420617420746869 PUSH1 0x44 DUP3 ADD MSTORE PUSH7 0x73207374616765 PUSH1 0xC8 SHL PUSH1 0x64 DUP3 ADD MSTORE PUSH1 0x84 SWAP1 REVERT JUMPDEST POP DUP5 PUSH1 0x0 MSTORE DUP3 DUP3 MSTORE DUP1 DUP5 PUSH1 0x40 PUSH1 0x0 KECCAK256 ADD SLOAD AND DUP5 DUP2 LT ISZERO PUSH2 0x58B JUMPI PUSH1 0x2 EQ PUSH2 0x73E JUMP JUMPDEST POP DUP5 PUSH1 0x0 MSTORE DUP3 DUP3 MSTORE DUP1 DUP5 PUSH1 0x40 PUSH1 0x0 KECCAK256 ADD SLOAD AND DUP5 DUP2 LT ISZERO PUSH2 0x58B JUMPI PUSH1 0x1 EQ PUSH2 0x737 JUMP JUMPDEST POP PUSH1 0x2 SLOAD DUP3 GT ISZERO PUSH2 0x705 JUMP JUMPDEST CALLVALUE PUSH2 0x362 JUMPI PUSH1 0x20 DUP1 PUSH1 0x3 NOT CALLDATASIZE ADD SLT PUSH2 0x362 JUMPI PUSH1 0x4 CALLDATALOAD SWAP1 PUSH2 0x9A2 PUSH2 0x39F8 JUMP JUMPDEST DUP2 ISZERO ISZERO DUP1 PUSH2 0xF71 JUMPI JUMPDEST PUSH2 0x9B4 SWAP1 PUSH2 0x365B JUMP JUMPDEST DUP2 PUSH1 0x0 MSTORE PUSH1 0x3 DUP1 DUP3 MSTORE PUSH1 0xFF SWAP1 PUSH1 0x8 SWAP2 DUP1 DUP4 PUSH1 0x40 PUSH1 0x0 KECCAK256 ADD SLOAD AND DUP4 DUP2 LT ISZERO PUSH2 0x58B JUMPI PUSH1 0x2 EQ DUP1 ISZERO PUSH2 0xF38 JUMPI JUMPDEST ISZERO PUSH2 0xECD JUMPI DUP5 PUSH1 0x0 MSTORE DUP2 DUP5 MSTORE DUP1 DUP4 PUSH1 0x40 PUSH1 0x0 KECCAK256 ADD SLOAD AND DUP4 DUP2 LT ISZERO PUSH2 0x58B JUMPI PUSH1 0x4 EQ ISZERO DUP1 PUSH2 0xEAA JUMPI JUMPDEST ISZERO PUSH2 0xE3F JUMPI DUP5 PUSH1 0x0 MSTORE DUP2 DUP5 MSTORE DUP1 DUP4 PUSH1 0x40 PUSH1 0x0 KECCAK256 ADD SLOAD AND DUP4 DUP2 LT ISZERO PUSH2 0x58B JUMPI DUP3 PUSH2 0xA31 SWAP2 EQ ISZERO PUSH2 0x369E JUMP JUMPDEST PUSH1 0x0 SLOAD PUSH1 0x40 MLOAD PUSH4 0x3EA42DE3 PUSH1 0xE0 SHL DUP2 MSTORE PUSH1 0x1 PUSH1 0x1 PUSH1 0xA0 SHL SUB SWAP2 DUP3 AND SWAP1 DUP7 DUP2 PUSH1 0x4 DUP2 DUP6 GAS STATICCALL DUP1 ISZERO PUSH2 0x356 JUMPI DUP4 SWAP2 PUSH1 0x0 SWAP2 PUSH2 0xE05 JUMPI JUMPDEST POP PUSH1 0x0 SWAP1 DUP10 DUP3 MSTORE DUP7 DUP10 MSTORE PUSH1 0x24 PUSH1 0x40 DUP4 KECCAK256 SLOAD PUSH1 0x40 MLOAD SWAP5 DUP6 SWAP4 DUP5 SWAP3 PUSH4 0x27DB25F1 PUSH1 0xE1 SHL DUP5 MSTORE PUSH1 0x4 DUP5 ADD MSTORE AND GAS STATICCALL SWAP1 DUP2 ISZERO PUSH2 0x356 JUMPI PUSH1 0x0 SWAP2 PUSH2 0xDDF JUMPI JUMPDEST POP DUP3 AND CALLER EQ DUP1 ISZERO PUSH2 0xDC9 JUMPI JUMPDEST ISZERO PUSH2 0xD6B JUMPI DUP7 PUSH1 0x0 MSTORE PUSH1 0x7 DUP7 MSTORE PUSH1 0x40 PUSH1 0x0 KECCAK256 DUP1 SLOAD DUP1 ISZERO ISZERO SWAP2 DUP3 PUSH2 0xD44 JUMPI JUMPDEST POP POP ISZERO PUSH2 0xC6D JUMPI POP PUSH1 0x4 DUP6 DUP3 PUSH1 0x0 SLOAD AND PUSH1 0x40 MLOAD SWAP3 DUP4 DUP1 SWAP3 PUSH4 0x3577BE9 PUSH1 0xE2 SHL DUP3 MSTORE GAS STATICCALL DUP1 ISZERO PUSH2 0x356 JUMPI DUP3 SWAP2 PUSH1 0x0 SWAP2 PUSH2 0xC35 JUMPI JUMPDEST POP AND SWAP1 DUP7 PUSH1 0x0 MSTORE DUP4 DUP7 MSTORE PUSH1 0x1 PUSH1 0x40 PUSH1 0x0 KECCAK256 ADD SLOAD AND SWAP1 DUP1 EXTCODESIZE ISZERO PUSH2 0x362 JUMPI PUSH1 0x40 MLOAD PUSH4 0xDE9D8587 PUSH1 0xE0 SHL DUP2 MSTORE PUSH1 0x4 DUP2 ADD DUP9 SWAP1 MSTORE PUSH1 0x1 PUSH1 0x1 PUSH1 0xA0 SHL SUB SWAP3 SWAP1 SWAP3 AND PUSH1 0x24 DUP4 ADD MSTORE PUSH1 0x0 SWAP1 DUP3 SWAP1 PUSH1 0x44 SWAP1 DUP3 SWAP1 DUP5 SWAP1 GAS CALL DUP1 ISZERO PUSH2 0x356 JUMPI PUSH2 0xC26 JUMPI JUMPDEST POP JUMPDEST DUP5 PUSH1 0x0 MSTORE DUP2 DUP5 MSTORE PUSH2 0xB71 DUP2 DUP5 PUSH1 0x40 PUSH1 0x0 KECCAK256 ADD SLOAD AND PUSH2 0x362A JUMP JUMPDEST DUP3 PUSH1 0x0 MSTORE DUP5 MSTORE PUSH1 0x40 PUSH1 0x0 KECCAK256 SLOAD AND ISZERO PUSH2 0xBE1 JUMPI SWAP1 PUSH32 0x143DBA104DDAC4C22C157C51909343D71E5765527A32B0D1647C14B39F41EAF3 SWAP3 SWAP2 DUP5 PUSH1 0x0 MSTORE DUP1 DUP4 MSTORE PUSH1 0x40 PUSH1 0x0 KECCAK256 SWAP2 DUP3 ADD SWAP1 PUSH1 0xFF NOT DUP3 SLOAD AND OR SWAP1 SSTORE PUSH1 0xA TIMESTAMP SWAP2 ADD SSTORE PUSH1 0x40 MLOAD TIMESTAMP DUP2 MSTORE LOG2 PUSH1 0x1 PUSH1 0x0 DUP1 MLOAD PUSH1 0x20 PUSH2 0x3A29 DUP4 CODECOPY DUP2 MLOAD SWAP2 MSTORE SSTORE STOP JUMPDEST PUSH1 0x40 MLOAD PUSH3 0x461BCD PUSH1 0xE5 SHL DUP2 MSTORE PUSH1 0x4 DUP2 ADD DUP5 SWAP1 MSTORE PUSH1 0x1F PUSH1 0x24 DUP3 ADD MSTORE PUSH32 0x496E76616C696420747261646520737461747573207472616E736974696F6E00 PUSH1 0x44 DUP3 ADD MSTORE PUSH1 0x64 SWAP1 REVERT JUMPDEST PUSH2 0xC2F SWAP1 PUSH2 0x33C0 JUMP JUMPDEST DUP6 PUSH2 0xB56 JUMP JUMPDEST DUP1 SWAP3 POP DUP8 DUP1 SWAP3 POP RETURNDATASIZE DUP4 GT PUSH2 0xC66 JUMPI JUMPDEST PUSH2 0xC4E DUP2 DUP4 PUSH2 0x33EF JUMP JUMPDEST DUP2 ADD SUB SLT PUSH2 0x362 JUMPI PUSH2 0xC60 DUP3 SWAP2 PUSH2 0x36E9 JUMP JUMPDEST DUP9 PUSH2 0xAFC JUMP JUMPDEST POP RETURNDATASIZE PUSH2 0xC44 JUMP JUMPDEST SWAP1 PUSH1 0x4 DUP7 PUSH2 0xC7A DUP10 PUSH2 0x3951 JUMP JUMPDEST SWAP4 PUSH1 0x40 MLOAD SWAP3 DUP4 DUP1 SWAP3 PUSH4 0x3577BE9 PUSH1 0xE2 SHL DUP3 MSTORE GAS STATICCALL DUP1 ISZERO PUSH2 0x356 JUMPI DUP3 SWAP2 PUSH1 0x0 SWAP2 PUSH2 0xD0C JUMPI JUMPDEST POP AND SWAP2 PUSH1 0x0 MSTORE DUP4 DUP7 MSTORE PUSH1 0x1 PUSH1 0x40 PUSH1 0x0 KECCAK256 ADD SLOAD AND SWAP1 DUP1 EXTCODESIZE ISZERO PUSH2 0x362 JUMPI PUSH1 0x40 MLOAD PUSH4 0xDE9D8587 PUSH1 0xE0 SHL DUP2 MSTORE PUSH1 0x4 DUP2 ADD DUP9 SWAP1 MSTORE PUSH1 0x1 PUSH1 0x1 PUSH1 0xA0 SHL SUB SWAP3 SWAP1 SWAP3 AND PUSH1 0x24 DUP4 ADD MSTORE PUSH1 0x0 SWAP1 DUP3 SWAP1 PUSH1 0x44 SWAP1 DUP3 SWAP1 DUP5 SWAP1 GAS CALL DUP1 ISZERO PUSH2 0x356 JUMPI PUSH2 0xCFD JUMPI JUMPDEST POP PUSH2 0xB58 JUMP JUMPDEST PUSH2 0xD06 SWAP1 PUSH2 0x33C0 JUMP JUMPDEST DUP6 PUSH2 0xCF7 JUMP JUMPDEST DUP1 SWAP3 POP DUP9 DUP1 SWAP3 POP RETURNDATASIZE DUP4 GT PUSH2 0xD3D JUMPI JUMPDEST PUSH2 0xD25 DUP2 DUP4 PUSH2 0x33EF JUMP JUMPDEST DUP2 ADD SUB SLT PUSH2 0x362 JUMPI PUSH2 0xD37 DUP3 SWAP2 PUSH2 0x36E9 JUMP JUMPDEST DUP10 PUSH2 0xC9E JUMP JUMPDEST POP RETURNDATASIZE PUSH2 0xD1B JUMP JUMPDEST PUSH1 0x0 NOT DUP3 ADD SWAP3 POP SWAP1 DUP3 GT PUSH2 0x886 JUMPI DUP9 SWAP2 PUSH2 0xD5D SWAP2 PUSH2 0x3612 JUMP JUMPDEST SWAP1 SLOAD SWAP1 DUP7 SHL SHR EQ DUP9 DUP1 PUSH2 0xAC9 JUMP JUMPDEST PUSH1 0x40 MLOAD PUSH3 0x461BCD PUSH1 0xE5 SHL DUP2 MSTORE PUSH1 0x4 DUP2 ADD DUP8 SWAP1 MSTORE PUSH1 0x30 PUSH1 0x24 DUP3 ADD MSTORE PUSH32 0x4F6E6C79206F66666572206F776E6572206F722061646D696E2063616E206669 PUSH1 0x44 DUP3 ADD MSTORE PUSH16 0x6E616C697A6520746865207472616465 PUSH1 0x80 SHL PUSH1 0x64 DUP3 ADD MSTORE PUSH1 0x84 SWAP1 REVERT JUMPDEST POP CALLER PUSH1 0x0 MSTORE PUSH1 0x5 DUP7 MSTORE DUP3 PUSH1 0x40 PUSH1 0x0 KECCAK256 SLOAD AND PUSH2 0xAAB JUMP JUMPDEST PUSH2 0xDF4 SWAP2 POP RETURNDATASIZE DUP1 PUSH1 0x0 DUP4 RETURNDATACOPY PUSH2 0x4F7 DUP2 DUP4 PUSH2 0x33EF JUMP JUMPDEST POP POP POP POP POP POP POP POP POP POP POP DUP9 PUSH2 0xA9F JUMP JUMPDEST DUP1 SWAP3 POP DUP9 DUP1 SWAP3 POP RETURNDATASIZE DUP4 GT PUSH2 0xE38 JUMPI JUMPDEST PUSH2 0xE1E DUP2 DUP4 PUSH2 0x33EF JUMP JUMPDEST DUP2 ADD SUB SLT PUSH2 0x362 JUMPI PUSH1 0x0 PUSH2 0xE32 DUP5 SWAP3 PUSH2 0x36E9 JUMP JUMPDEST SWAP1 PUSH2 0xA65 JUMP JUMPDEST POP RETURNDATASIZE PUSH2 0xE14 JUMP JUMPDEST PUSH1 0x40 MLOAD PUSH3 0x461BCD PUSH1 0xE5 SHL DUP2 MSTORE PUSH1 0x4 DUP2 ADD DUP6 SWAP1 MSTORE PUSH1 0x39 PUSH1 0x24 DUP3 ADD MSTORE PUSH32 0x54726164652063616E6E6F742062652066696E616C697A656420696620697420 PUSH1 0x44 DUP3 ADD MSTORE PUSH32 0x69732063616E63656C6C6564206F722074696D6564206F757400000000000000 PUSH1 0x64 DUP3 ADD MSTORE PUSH1 0x84 SWAP1 REVERT JUMPDEST POP DUP5 PUSH1 0x0 MSTORE DUP2 DUP5 MSTORE DUP1 DUP4 PUSH1 0x40 PUSH1 0x0 KECCAK256 ADD SLOAD AND DUP4 DUP2 LT ISZERO PUSH2 0x58B JUMPI PUSH1 0x6 EQ ISZERO PUSH2 0xA07 JUMP JUMPDEST PUSH1 0x40 MLOAD PUSH3 0x461BCD PUSH1 0xE5 SHL DUP2 MSTORE PUSH1 0x4 DUP2 ADD DUP6 SWAP1 MSTORE PUSH1 0x3D PUSH1 0x24 DUP3 ADD MSTORE PUSH32 0x5472616465206973206E6F7420696E20612066696E616C697A61626C65207374 PUSH1 0x44 DUP3 ADD MSTORE PUSH32 0x617465206F722063616C6C6572206973206E6F7420616E2061646D696E000000 PUSH1 0x64 DUP3 ADD MSTORE PUSH1 0x84 SWAP1 REVERT JUMPDEST POP DUP5 PUSH1 0x0 MSTORE DUP2 DUP5 MSTORE DUP1 DUP4 PUSH1 0x40 PUSH1 0x0 KECCAK256 ADD SLOAD AND DUP4 DUP2 LT ISZERO PUSH2 0x58B JUMPI PUSH1 0x5 EQ DUP1 ISZERO PUSH2 0x9DF JUMPI POP CALLER PUSH1 0x0 MSTORE PUSH1 0x5 DUP5 MSTORE DUP1 PUSH1 0x40 PUSH1 0x0 KECCAK256 SLOAD AND PUSH2 0x9DF JUMP JUMPDEST POP PUSH1 0x2 SLOAD DUP3 GT ISZERO PUSH2 0x9AB JUMP JUMPDEST CALLVALUE PUSH2 0x362 JUMPI PUSH1 0x0 CALLDATASIZE PUSH1 0x3 NOT ADD SLT PUSH2 0x362 JUMPI PUSH1 0x20 PUSH1 0x2 SLOAD PUSH1 0x40 MLOAD SWAP1 DUP2 MSTORE RETURN JUMPDEST CALLVALUE PUSH2 0x362 JUMPI PUSH1 0x20 DUP1 PUSH1 0x3 NOT CALLDATASIZE ADD SLT PUSH2 0x362 JUMPI PUSH1 0x4 CALLDATALOAD DUP1 ISZERO ISZERO DUP1 PUSH2 0x1180 JUMPI JUMPDEST PUSH2 0xFC2 SWAP1 PUSH2 0x365B JUMP JUMPDEST PUSH2 0xFCA PUSH2 0x39F8 JUMP JUMPDEST DUP1 PUSH1 0x0 MSTORE PUSH1 0x3 DUP3 MSTORE PUSH1 0x8 PUSH1 0xFF DUP2 PUSH1 0x40 PUSH1 0x0 KECCAK256 ADD SLOAD AND DUP2 DUP2 LT ISZERO PUSH2 0x58B JUMPI PUSH1 0x4 EQ SWAP2 DUP3 ISZERO PUSH2 0x115A JUMPI JUMPDEST DUP3 ISZERO PUSH2 0x1133 JUMPI JUMPDEST POP POP ISZERO PUSH2 0x10E0 JUMPI PUSH1 0x0 SLOAD PUSH1 0x40 MLOAD PUSH4 0x3577BE9 PUSH1 0xE2 SHL DUP2 MSTORE PUSH1 0x1 PUSH1 0x1 PUSH1 0xA0 SHL SUB SWAP2 DUP4 SWAP1 DUP3 SWAP1 PUSH1 0x4 SWAP1 DUP3 SWAP1 DUP7 AND GAS STATICCALL SWAP1 DUP2 ISZERO PUSH2 0x356 JUMPI PUSH1 0x0 SWAP2 PUSH2 0x10AB JUMPI JUMPDEST POP AND CALLER SUB PUSH2 0x1051 JUMPI PUSH1 0x1 PUSH1 0x0 DUP1 MLOAD PUSH1 0x20 PUSH2 0x3A29 DUP4 CODECOPY DUP2 MLOAD SWAP2 MSTORE SSTORE STOP JUMPDEST PUSH1 0x84 SWAP1 PUSH1 0x40 MLOAD SWAP1 PUSH3 0x461BCD PUSH1 0xE5 SHL DUP3 MSTORE PUSH1 0x4 DUP3 ADD MSTORE PUSH1 0x2D PUSH1 0x24 DUP3 ADD MSTORE PUSH32 0x4F6E6C7920457363726F7720636F6E74726163742063616E2063616C6C207265 PUSH1 0x44 DUP3 ADD MSTORE PUSH13 0x333AB73210333AB731BA34B7B7 PUSH1 0x99 SHL PUSH1 0x64 DUP3 ADD MSTORE REVERT JUMPDEST SWAP1 POP DUP3 DUP2 DUP2 RETURNDATASIZE DUP4 GT PUSH2 0x10D9 JUMPI JUMPDEST PUSH2 0x10C2 DUP2 DUP4 PUSH2 0x33EF JUMP JUMPDEST DUP2 ADD SUB SLT PUSH2 0x362 JUMPI PUSH2 0x10D3 SWAP1 PUSH2 0x36E9 JUMP JUMPDEST DUP4 PUSH2 0x1035 JUMP JUMPDEST POP RETURNDATASIZE PUSH2 0x10B8 JUMP JUMPDEST PUSH1 0x84 SWAP1 PUSH1 0x40 MLOAD SWAP1 PUSH3 0x461BCD PUSH1 0xE5 SHL DUP3 MSTORE PUSH1 0x4 DUP3 ADD MSTORE PUSH1 0x26 PUSH1 0x24 DUP3 ADD MSTORE PUSH32 0x54726164652063616E6E6F7420626520726566756E6465642061742074686973 PUSH1 0x44 DUP3 ADD MSTORE PUSH6 0x207374616765 PUSH1 0xD0 SHL PUSH1 0x64 DUP3 ADD MSTORE REVERT JUMPDEST SWAP1 SWAP2 POP PUSH1 0x0 MSTORE PUSH1 0x3 DUP3 MSTORE PUSH1 0xFF DUP2 PUSH1 0x40 PUSH1 0x0 KECCAK256 ADD SLOAD AND SWAP1 DUP2 LT ISZERO PUSH2 0x58B JUMPI PUSH1 0x5 EQ DUP3 DUP1 PUSH2 0xFF9 JUMP JUMPDEST DUP1 SWAP3 POP PUSH1 0x0 MSTORE PUSH1 0x3 DUP4 MSTORE PUSH1 0xFF DUP2 PUSH1 0x40 PUSH1 0x0 KECCAK256 ADD SLOAD AND DUP2 DUP2 LT ISZERO PUSH2 0x58B JUMPI PUSH1 0x6 EQ SWAP2 PUSH2 0xFF2 JUMP JUMPDEST POP PUSH1 0x2 SLOAD DUP2 GT ISZERO PUSH2 0xFB9 JUMP JUMPDEST CALLVALUE PUSH2 0x362 JUMPI PUSH1 0x40 CALLDATASIZE PUSH1 0x3 NOT ADD SLT PUSH2 0x362 JUMPI PUSH1 0x4 CALLDATALOAD PUSH1 0x8 DUP2 LT ISZERO PUSH2 0x362 JUMPI PUSH1 0x24 CALLDATALOAD PUSH1 0x8 DUP2 LT ISZERO PUSH2 0x362 JUMPI PUSH2 0x11CB PUSH1 0xFF SWAP2 PUSH2 0x11C6 PUSH1 0x20 SWAP5 PUSH2 0x362A JUMP JUMPDEST PUSH2 0x3643 JUMP JUMPDEST SLOAD AND PUSH1 0x40 MLOAD SWAP1 ISZERO ISZERO DUP2 MSTORE RETURN JUMPDEST CALLVALUE PUSH2 0x362 JUMPI PUSH1 0x20 DUP1 PUSH1 0x3 NOT CALLDATASIZE ADD SLT PUSH2 0x362 JUMPI PUSH1 0x4 CALLDATALOAD PUSH1 0x1 PUSH1 0x1 PUSH1 0x40 SHL SUB DUP2 GT PUSH2 0x362 JUMPI CALLDATASIZE PUSH1 0x23 DUP3 ADD SLT ISZERO PUSH2 0x362 JUMPI DUP1 PUSH1 0x4 ADD CALLDATALOAD SWAP2 PUSH2 0x1214 DUP4 PUSH2 0x3583 JUMP JUMPDEST SWAP2 PUSH2 0x1222 PUSH1 0x40 MLOAD SWAP4 DUP5 PUSH2 0x33EF JUMP JUMPDEST DUP4 DUP4 MSTORE DUP2 DUP4 ADD PUSH1 0x24 PUSH1 0x5 SWAP6 PUSH1 0x5 SHL DUP4 ADD ADD SWAP2 CALLDATASIZE DUP4 GT PUSH2 0x362 JUMPI PUSH1 0x24 ADD SWAP1 JUMPDEST DUP3 DUP3 LT PUSH2 0x13E7 JUMPI POP POP POP PUSH1 0x1 DUP1 PUSH1 0xA0 SHL SUB PUSH1 0x1 SWAP3 DUP2 DUP5 SLOAD AND DUP1 CALLER SUB PUSH2 0x138A JUMPI PUSH1 0x0 MSTORE PUSH1 0x5 DUP4 MSTORE PUSH1 0xFF PUSH1 0x40 PUSH1 0x0 KECCAK256 SLOAD AND PUSH2 0x1339 JUMPI DUP4 SWAP5 DUP5 PUSH1 0x0 SWAP1 JUMPDEST PUSH2 0x12CA JUMPI JUMPDEST POP POP POP DUP1 PUSH32 0xE68D2C359A771606C400CF8B87000CF5864010363D6A736E98F5047B7BBE18E9 SWAP4 SLOAD AND PUSH1 0x0 MSTORE PUSH1 0x5 DUP3 MSTORE PUSH1 0x40 PUSH1 0x0 KECCAK256 DUP5 PUSH1 0xFF NOT DUP3 SLOAD AND OR SWAP1 SSTORE DUP4 SLOAD AND SWAP3 PUSH1 0x40 MLOAD SWAP1 DUP2 MSTORE LOG2 STOP JUMPDEST DUP3 MLOAD DUP2 LT ISZERO PUSH2 0x1334 JUMPI DUP1 DUP5 PUSH2 0x12E0 DUP9 SWAP4 DUP7 PUSH2 0x38A7 JUMP JUMPDEST MLOAD AND PUSH1 0x0 MSTORE DUP3 DUP7 MSTORE PUSH1 0x40 PUSH1 0x0 KECCAK256 DUP3 PUSH1 0xFF NOT DUP3 SLOAD AND OR SWAP1 SSTORE DUP5 PUSH2 0x1302 DUP3 DUP7 PUSH2 0x38A7 JUMP JUMPDEST MLOAD AND PUSH32 0xE68D2C359A771606C400CF8B87000CF5864010363D6A736E98F5047B7BBE18E9 DUP8 PUSH1 0x40 MLOAD DUP6 DUP2 MSTORE LOG2 ADD DUP6 PUSH2 0x127A JUMP JUMPDEST PUSH2 0x127F JUMP JUMPDEST PUSH1 0x40 MLOAD PUSH3 0x461BCD PUSH1 0xE5 SHL DUP2 MSTORE PUSH1 0x4 DUP2 ADD DUP5 SWAP1 MSTORE PUSH1 0x23 PUSH1 0x24 DUP3 ADD MSTORE PUSH32 0x496E697469616C2061646D696E732063616E206F6E6C7920626520736574206F PUSH1 0x44 DUP3 ADD MSTORE PUSH3 0x6E6365 PUSH1 0xE8 SHL PUSH1 0x64 DUP3 ADD MSTORE PUSH1 0x84 SWAP1 REVERT JUMPDEST PUSH1 0x40 MLOAD PUSH3 0x461BCD PUSH1 0xE5 SHL DUP2 MSTORE PUSH1 0x4 DUP2 ADD DUP6 SWAP1 MSTORE PUSH1 0x2F PUSH1 0x24 DUP3 ADD MSTORE PUSH32 0x4F6E6C792074686520636F6E7472616374206F776E65722063616E2070657266 PUSH1 0x44 DUP3 ADD MSTORE PUSH15 0x37B936903A3434B99030B1BA34B7B7 PUSH1 0x89 SHL PUSH1 0x64 DUP3 ADD MSTORE PUSH1 0x84 SWAP1 REVERT JUMPDEST DUP2 CALLDATALOAD PUSH1 0x1 PUSH1 0x1 PUSH1 0xA0 SHL SUB DUP2 AND DUP2 SUB PUSH2 0x362 JUMPI DUP2 MSTORE SWAP1 DUP4 ADD SWAP1 DUP4 ADD PUSH2 0x1240 JUMP JUMPDEST CALLVALUE PUSH2 0x362 JUMPI PUSH1 0x0 CALLDATASIZE PUSH1 0x3 NOT ADD SLT PUSH2 0x362 JUMPI PUSH1 0x1 SLOAD PUSH1 0x40 MLOAD PUSH1 0x1 PUSH1 0x1 PUSH1 0xA0 SHL SUB SWAP1 SWAP2 AND DUP2 MSTORE PUSH1 0x20 SWAP1 RETURN JUMPDEST CALLVALUE PUSH2 0x362 JUMPI PUSH1 0x20 DUP1 PUSH1 0x3 NOT CALLDATASIZE ADD SLT PUSH2 0x362 JUMPI PUSH1 0x4 CALLDATALOAD SWAP1 PUSH2 0x144D PUSH2 0x39F8 JUMP JUMPDEST DUP2 ISZERO ISZERO DUP1 PUSH2 0x17B3 JUMPI JUMPDEST PUSH2 0x145F SWAP1 PUSH2 0x365B JUMP JUMPDEST DUP2 PUSH1 0x0 MSTORE PUSH1 0x3 SWAP1 DUP2 DUP2 MSTORE PUSH1 0xFF SWAP2 PUSH1 0x8 SWAP1 DUP4 DUP3 PUSH1 0x40 PUSH1 0x0 KECCAK256 ADD SLOAD AND DUP3 DUP2 LT ISZERO PUSH2 0x58B JUMPI PUSH1 0x1 EQ DUP1 ISZERO PUSH2 0x1791 JUMPI JUMPDEST ISZERO PUSH2 0x173D JUMPI DUP5 PUSH1 0x0 MSTORE DUP1 DUP4 MSTORE DUP4 DUP3 PUSH1 0x40 PUSH1 0x0 KECCAK256 ADD SLOAD AND DUP3 DUP2 LT ISZERO PUSH2 0x58B JUMPI PUSH1 0x5 EQ PUSH2 0x16F8 JUMPI DUP5 PUSH1 0x0 MSTORE DUP1 DUP4 MSTORE DUP4 DUP3 PUSH1 0x40 PUSH1 0x0 KECCAK256 ADD SLOAD AND DUP3 DUP2 LT ISZERO PUSH2 0x58B JUMPI DUP2 PUSH2 0x14D5 SWAP2 EQ ISZERO PUSH2 0x369E JUMP JUMPDEST PUSH1 0x0 SLOAD PUSH1 0x40 MLOAD PUSH4 0x3EA42DE3 PUSH1 0xE0 SHL DUP2 MSTORE PUSH1 0x1 PUSH1 0x1 PUSH1 0xA0 SHL SUB SWAP6 SWAP2 DUP6 SWAP1 DUP3 SWAP1 PUSH1 0x4 SWAP1 DUP3 SWAP1 DUP11 AND GAS STATICCALL DUP1 ISZERO PUSH2 0x356 JUMPI DUP7 SWAP2 PUSH1 0x0 SWAP2 PUSH2 0x16BE JUMPI JUMPDEST POP PUSH1 0x0 SWAP1 DUP9 DUP3 MSTORE DUP5 DUP8 MSTORE PUSH1 0x24 PUSH1 0x40 DUP4 KECCAK256 SLOAD PUSH1 0x40 MLOAD SWAP5 DUP6 SWAP4 DUP5 SWAP3 PUSH4 0x27DB25F1 PUSH1 0xE1 SHL DUP5 MSTORE PUSH1 0x4 DUP5 ADD MSTORE AND GAS STATICCALL DUP1 ISZERO PUSH2 0x356 JUMPI PUSH2 0x156C SWAP2 PUSH1 0x0 SWAP2 PUSH2 0x1698 JUMPI JUMPDEST POP DUP8 PUSH1 0x0 MSTORE DUP4 DUP7 MSTORE DUP7 PUSH1 0x1 PUSH1 0x40 PUSH1 0x0 KECCAK256 ADD SLOAD AND CALLER EQ SWAP1 DUP2 ISZERO PUSH2 0x168C JUMPI JUMPDEST POP PUSH2 0x37B4 JUMP JUMPDEST DUP6 PUSH1 0x0 MSTORE DUP2 DUP5 MSTORE PUSH2 0x1585 DUP2 DUP5 PUSH1 0x40 PUSH1 0x0 KECCAK256 ADD SLOAD AND PUSH2 0x362A JUMP JUMPDEST PUSH1 0x5 PUSH1 0x0 MSTORE DUP5 MSTORE PUSH1 0x40 PUSH1 0x0 KECCAK256 SLOAD AND ISZERO PUSH2 0xBE1 JUMPI DUP5 PUSH1 0x0 MSTORE DUP3 MSTORE PUSH1 0x40 PUSH1 0x0 KECCAK256 ADD PUSH1 0x5 PUSH1 0xFF NOT DUP3 SLOAD AND OR SWAP1 SSTORE PUSH1 0x4 DUP2 DUP4 PUSH1 0x0 SLOAD AND PUSH1 0x40 MLOAD SWAP3 DUP4 DUP1 SWAP3 PUSH4 0x70505653 PUSH1 0xE0 SHL DUP3 MSTORE GAS STATICCALL SWAP2 DUP3 ISZERO PUSH2 0x356 JUMPI PUSH1 0x0 SWAP3 PUSH2 0x1656 JUMPI JUMPDEST POP POP AND DUP1 EXTCODESIZE ISZERO PUSH2 0x362 JUMPI PUSH1 0x0 DUP1 SWAP2 PUSH1 0x24 PUSH1 0x40 MLOAD DUP1 SWAP5 DUP2 SWAP4 PUSH4 0x4B54A379 PUSH1 0xE0 SHL DUP4 MSTORE DUP8 PUSH1 0x4 DUP5 ADD MSTORE GAS CALL DUP1 ISZERO PUSH2 0x356 JUMPI PUSH2 0x1647 JUMPI JUMPDEST POP PUSH32 0x995328816EB12E50EC2691560298922CD9EAD6191E59874EF2EF6CA8C766D725 PUSH1 0x0 DUP1 LOG2 PUSH1 0x1 PUSH1 0x0 DUP1 MLOAD PUSH1 0x20 PUSH2 0x3A29 DUP4 CODECOPY DUP2 MLOAD SWAP2 MSTORE SSTORE STOP JUMPDEST PUSH2 0x1650 SWAP1 PUSH2 0x33C0 JUMP JUMPDEST DUP2 PUSH2 0x160D JUMP JUMPDEST SWAP1 DUP1 SWAP3 POP DUP2 RETURNDATASIZE DUP4 GT PUSH2 0x1685 JUMPI JUMPDEST PUSH2 0x166D DUP2 DUP4 PUSH2 0x33EF JUMP JUMPDEST DUP2 ADD SUB SLT PUSH2 0x362 JUMPI PUSH2 0x167E SWAP1 PUSH2 0x36E9 JUMP JUMPDEST DUP4 DUP1 PUSH2 0x15D9 JUMP JUMPDEST POP RETURNDATASIZE PUSH2 0x1663 JUMP JUMPDEST DUP8 AND CALLER EQ SWAP1 POP DUP9 PUSH2 0x1566 JUMP JUMPDEST PUSH2 0x16AD SWAP2 POP RETURNDATASIZE DUP1 PUSH1 0x0 DUP4 RETURNDATACOPY PUSH2 0x4F7 DUP2 DUP4 PUSH2 0x33EF JUMP JUMPDEST POP POP POP POP POP POP POP POP POP POP POP DUP9 PUSH2 0x1549 JUMP JUMPDEST DUP1 SWAP3 POP DUP7 DUP1 SWAP3 POP RETURNDATASIZE DUP4 GT PUSH2 0x16F1 JUMPI JUMPDEST PUSH2 0x16D7 DUP2 DUP4 PUSH2 0x33EF JUMP JUMPDEST DUP2 ADD SUB SLT PUSH2 0x362 JUMPI PUSH1 0x0 PUSH2 0x16EB DUP8 SWAP3 PUSH2 0x36E9 JUMP JUMPDEST SWAP1 PUSH2 0x150C JUMP JUMPDEST POP RETURNDATASIZE PUSH2 0x16CD JUMP JUMPDEST PUSH1 0x40 MLOAD PUSH3 0x461BCD PUSH1 0xE5 SHL DUP2 MSTORE PUSH1 0x4 DUP2 ADD DUP5 SWAP1 MSTORE PUSH1 0x19 PUSH1 0x24 DUP3 ADD MSTORE PUSH32 0x547261646520697320616C726561647920646973707574656400000000000000 PUSH1 0x44 DUP3 ADD MSTORE PUSH1 0x64 SWAP1 REVERT JUMPDEST PUSH1 0x40 MLOAD PUSH3 0x461BCD PUSH1 0xE5 SHL DUP2 MSTORE PUSH1 0x4 DUP2 ADD DUP5 SWAP1 MSTORE PUSH1 0x26 PUSH1 0x24 DUP3 ADD MSTORE PUSH32 0x54726164652063616E6E6F742062652064697370757465642061742074686973 PUSH1 0x44 DUP3 ADD MSTORE PUSH6 0x207374616765 PUSH1 0xD0 SHL PUSH1 0x64 DUP3 ADD MSTORE PUSH1 0x84 SWAP1 REVERT JUMPDEST POP DUP5 PUSH1 0x0 MSTORE DUP1 DUP4 MSTORE DUP4 DUP3 PUSH1 0x40 PUSH1 0x0 KECCAK256 ADD SLOAD AND DUP3 DUP2 LT ISZERO PUSH2 0x58B JUMPI PUSH1 0x2 EQ PUSH2 0x148B JUMP JUMPDEST POP PUSH1 0x2 SLOAD DUP3 GT ISZERO PUSH2 0x1456 JUMP JUMPDEST CALLVALUE PUSH2 0x362 JUMPI PUSH1 0x60 CALLDATASIZE PUSH1 0x3 NOT ADD SLT PUSH2 0x362 JUMPI PUSH1 0x4 CALLDATALOAD PUSH1 0x24 DUP1 CALLDATALOAD SWAP1 PUSH1 0x44 SWAP1 DUP2 CALLDATALOAD PUSH1 0x1 PUSH1 0x1 PUSH1 0x40 SHL SUB DUP2 GT PUSH2 0x362 JUMPI PUSH2 0x17F9 SWAP1 CALLDATASIZE SWAP1 PUSH1 0x4 ADD PUSH2 0x35B5 JUMP JUMPDEST PUSH1 0x0 SLOAD PUSH1 0x40 MLOAD PUSH4 0x3EA42DE3 PUSH1 0xE0 SHL DUP2 MSTORE PUSH1 0x20 SWAP5 SWAP2 PUSH1 0x1 PUSH1 0x1 PUSH1 0xA0 SHL SUB SWAP2 SWAP1 DUP7 SWAP1 DUP3 SWAP1 PUSH1 0x4 SWAP1 DUP3 SWAP1 DUP7 AND GAS STATICCALL DUP1 ISZERO PUSH2 0x356 JUMPI DUP3 SWAP2 PUSH1 0x0 SWAP2 PUSH2 0x1B96 JUMPI JUMPDEST POP PUSH1 0x0 SWAP1 DUP10 DUP3 MSTORE PUSH1 0x3 DUP9 MSTORE DUP7 PUSH1 0x40 DUP4 KECCAK256 SLOAD PUSH1 0x40 MLOAD SWAP5 DUP6 SWAP4 DUP5 SWAP3 PUSH4 0x27DB25F1 PUSH1 0xE1 SHL DUP5 MSTORE PUSH1 0x4 DUP5 ADD MSTORE AND GAS STATICCALL SWAP1 DUP2 ISZERO PUSH2 0x356 JUMPI PUSH1 0x0 SWAP2 PUSH2 0x1B70 JUMPI JUMPDEST POP DUP8 PUSH1 0x0 MSTORE PUSH1 0x3 DUP7 MSTORE DUP2 PUSH1 0x1 PUSH1 0x40 PUSH1 0x0 KECCAK256 ADD SLOAD AND CALLER EQ SWAP1 DUP2 ISZERO PUSH2 0x1B64 JUMPI JUMPDEST POP ISZERO PUSH2 0x1B0E JUMPI DUP7 ISZERO ISZERO DUP1 PUSH2 0x1B02 JUMPI JUMPDEST PUSH2 0x18A4 SWAP1 PUSH2 0x365B JUMP JUMPDEST DUP7 PUSH1 0x0 MSTORE PUSH1 0x3 DUP6 MSTORE PUSH1 0xFF PUSH1 0x8 PUSH1 0x40 PUSH1 0x0 KECCAK256 ADD SLOAD AND PUSH1 0x8 DUP2 LT ISZERO PUSH2 0x1AED JUMPI PUSH1 0x3 SUB PUSH2 0x1AB1 JUMPI PUSH1 0x1 DUP7 LT ISZERO DUP1 PUSH2 0x1AA6 JUMPI JUMPDEST ISZERO PUSH2 0x1A6C JUMPI DUP7 PUSH1 0x0 MSTORE PUSH1 0x6 DUP6 MSTORE PUSH1 0x40 PUSH1 0x0 KECCAK256 CALLER PUSH1 0x0 MSTORE DUP6 MSTORE PUSH1 0xFF PUSH1 0x40 PUSH1 0x0 KECCAK256 SLOAD AND PUSH2 0x1A18 JUMPI DUP7 PUSH1 0x0 MSTORE PUSH1 0x6 DUP6 MSTORE PUSH1 0x40 PUSH1 0x0 KECCAK256 CALLER PUSH1 0x0 MSTORE DUP6 MSTORE PUSH1 0x40 PUSH1 0x0 KECCAK256 PUSH1 0x1 PUSH1 0xFF NOT DUP3 SLOAD AND OR SWAP1 SSTORE PUSH1 0x4 DUP6 DUP3 PUSH1 0x0 SLOAD AND PUSH1 0x40 MLOAD SWAP3 DUP4 DUP1 SWAP3 PUSH4 0x1ECC6055 PUSH1 0xE2 SHL DUP3 MSTORE GAS STATICCALL SWAP1 DUP2 ISZERO PUSH2 0x356 JUMPI PUSH1 0x0 SWAP2 PUSH2 0x19E3 JUMPI JUMPDEST POP AND SWAP3 DUP4 EXTCODESIZE ISZERO PUSH2 0x362 JUMPI DUP6 SWAP4 PUSH1 0x60 PUSH1 0x0 SWAP4 PUSH1 0x40 MLOAD SWAP9 DUP10 SWAP5 PUSH4 0x8A2829E7 PUSH1 0xE0 SHL DUP7 MSTORE DUP12 PUSH1 0x4 DUP8 ADD MSTORE DUP6 ADD MSTORE DUP4 ADD MSTORE DUP2 DUP4 DUP2 PUSH2 0x1982 PUSH1 0x64 DUP3 ADD DUP9 PUSH2 0x34D8 JUMP JUMPDEST SUB SWAP3 GAS CALL SWAP1 DUP2 ISZERO PUSH2 0x356 JUMPI PUSH32 0x5E72C1F0055C90B360F39E32F2E35808960AA9D049E8C3847B383CA534554398 SWAP5 PUSH2 0x19CF SWAP3 PUSH2 0x19D4 JUMPI JUMPDEST POP PUSH1 0x40 DUP1 MLOAD SWAP5 DUP6 SWAP5 DUP6 MSTORE DUP5 ADD MSTORE PUSH1 0x40 DUP4 ADD SWAP1 PUSH2 0x34D8 JUMP JUMPDEST SUB SWAP1 LOG2 STOP JUMPDEST PUSH2 0x19DD SWAP1 PUSH2 0x33C0 JUMP JUMPDEST DUP7 PUSH2 0x19B8 JUMP JUMPDEST SWAP1 POP DUP6 DUP2 DUP2 RETURNDATASIZE DUP4 GT PUSH2 0x1A11 JUMPI JUMPDEST PUSH2 0x19FA DUP2 DUP4 PUSH2 0x33EF JUMP JUMPDEST DUP2 ADD SUB SLT PUSH2 0x362 JUMPI PUSH2 0x1A0B SWAP1 PUSH2 0x36E9 JUMP JUMPDEST DUP9 PUSH2 0x1945 JUMP JUMPDEST POP RETURNDATASIZE PUSH2 0x19F0 JUMP JUMPDEST PUSH1 0x40 MLOAD PUSH3 0x461BCD PUSH1 0xE5 SHL DUP2 MSTORE PUSH1 0x4 DUP2 ADD DUP7 SWAP1 MSTORE PUSH1 0x28 DUP2 DUP7 ADD MSTORE PUSH32 0x54726164652068617320616C7265616479206265656E20726174656420627920 DUP2 DUP5 ADD MSTORE PUSH8 0x3A3432903AB9B2B9 PUSH1 0xC1 SHL PUSH1 0x64 DUP3 ADD MSTORE PUSH1 0x84 SWAP1 REVERT JUMPDEST PUSH1 0x40 MLOAD PUSH3 0x461BCD PUSH1 0xE5 SHL DUP2 MSTORE PUSH1 0x4 DUP2 ADD DUP7 SWAP1 MSTORE PUSH1 0x14 DUP2 DUP7 ADD MSTORE PUSH20 0x496E76616C696420726174696E672076616C7565 PUSH1 0x60 SHL DUP2 DUP5 ADD MSTORE PUSH1 0x64 SWAP1 REVERT JUMPDEST POP PUSH1 0x5 DUP7 GT ISZERO PUSH2 0x18D3 JUMP JUMPDEST PUSH1 0x40 MLOAD PUSH3 0x461BCD PUSH1 0xE5 SHL DUP2 MSTORE PUSH1 0x4 DUP2 ADD DUP7 SWAP1 MSTORE PUSH1 0x16 DUP2 DUP7 ADD MSTORE PUSH22 0x151C985919481A5CC81B9BDD08199A5B985B1A5E9959 PUSH1 0x52 SHL DUP2 DUP5 ADD MSTORE PUSH1 0x64 SWAP1 REVERT JUMPDEST DUP5 PUSH4 0x4E487B71 PUSH1 0xE0 SHL PUSH1 0x0 MSTORE PUSH1 0x21 PUSH1 0x4 MSTORE PUSH1 0x0 REVERT JUMPDEST POP PUSH1 0x2 SLOAD DUP8 GT ISZERO PUSH2 0x189B JUMP JUMPDEST PUSH1 0x40 MLOAD PUSH3 0x461BCD PUSH1 0xE5 SHL DUP2 MSTORE PUSH1 0x4 DUP2 ADD DUP7 SWAP1 MSTORE PUSH1 0x2A DUP2 DUP7 ADD MSTORE PUSH32 0x4F6E6C7920747261646520706172746965732063616E20706572666F726D2074 DUP2 DUP5 ADD MSTORE PUSH10 0x3434B99030B1BA34B7B7 PUSH1 0xB1 SHL PUSH1 0x64 DUP3 ADD MSTORE PUSH1 0x84 SWAP1 REVERT JUMPDEST DUP3 AND CALLER EQ SWAP1 POP DUP9 PUSH2 0x188C JUMP JUMPDEST PUSH2 0x1B85 SWAP2 POP RETURNDATASIZE DUP1 PUSH1 0x0 DUP4 RETURNDATACOPY PUSH2 0x4F7 DUP2 DUP4 PUSH2 0x33EF JUMP JUMPDEST POP POP POP POP POP POP POP POP POP POP POP DUP9 PUSH2 0x186E JUMP JUMPDEST DUP1 SWAP3 POP DUP8 DUP1 SWAP3 POP RETURNDATASIZE DUP4 GT PUSH2 0x1BC9 JUMPI JUMPDEST PUSH2 0x1BAF DUP2 DUP4 PUSH2 0x33EF JUMP JUMPDEST DUP2 ADD SUB SLT PUSH2 0x362 JUMPI PUSH1 0x0 PUSH2 0x1BC3 DUP4 SWAP3 PUSH2 0x36E9 JUMP JUMPDEST SWAP1 PUSH2 0x1834 JUMP JUMPDEST POP RETURNDATASIZE PUSH2 0x1BA5 JUMP JUMPDEST CALLVALUE PUSH2 0x362 JUMPI PUSH1 0x40 CALLDATASIZE PUSH1 0x3 NOT ADD SLT PUSH2 0x362 JUMPI PUSH1 0x4 CALLDATALOAD PUSH1 0x24 CALLDATALOAD PUSH1 0x8 DUP2 LT ISZERO PUSH2 0x362 JUMPI PUSH1 0x0 SLOAD PUSH1 0x40 MLOAD PUSH4 0x70505653 PUSH1 0xE0 SHL DUP2 MSTORE PUSH1 0x20 SWAP4 SWAP2 PUSH1 0x1 PUSH1 0x1 PUSH1 0xA0 SHL SUB SWAP2 SWAP1 DUP6 SWAP1 DUP3 SWAP1 PUSH1 0x4 SWAP1 DUP3 SWAP1 DUP7 AND GAS STATICCALL SWAP1 DUP2 ISZERO PUSH2 0x356 JUMPI PUSH1 0x0 SWAP2 PUSH2 0x1CD2 JUMPI JUMPDEST POP AND CALLER SUB PUSH2 0x1C74 JUMPI DUP1 PUSH1 0x0 MSTORE PUSH1 0x3 DUP4 MSTORE PUSH1 0xFF PUSH2 0x1C53 DUP4 PUSH2 0x11C6 DUP4 PUSH1 0x8 PUSH1 0x40 PUSH1 0x0 KECCAK256 ADD SLOAD AND PUSH2 0x362A JUMP JUMPDEST SLOAD AND ISZERO PUSH2 0xBE1 JUMPI PUSH2 0x1C72 SWAP3 PUSH1 0x3 SWAP2 PUSH1 0x0 MSTORE MSTORE PUSH1 0x8 PUSH1 0x40 PUSH1 0x0 KECCAK256 ADD PUSH2 0x38ED JUMP JUMPDEST STOP JUMPDEST PUSH1 0x40 MLOAD PUSH3 0x461BCD PUSH1 0xE5 SHL DUP2 MSTORE PUSH1 0x4 DUP2 ADD DUP5 SWAP1 MSTORE PUSH1 0x30 PUSH1 0x24 DUP3 ADD MSTORE PUSH32 0x4F6E6C79204172626974726174696F6E20636F6E74726163742063616E206361 PUSH1 0x44 DUP3 ADD MSTORE PUSH16 0x3636103A3434B990333AB731BA34B7B7 PUSH1 0x81 SHL PUSH1 0x64 DUP3 ADD MSTORE PUSH1 0x84 SWAP1 REVERT JUMPDEST SWAP1 POP DUP5 DUP2 DUP2 RETURNDATASIZE DUP4 GT PUSH2 0x1D00 JUMPI JUMPDEST PUSH2 0x1CE9 DUP2 DUP4 PUSH2 0x33EF JUMP JUMPDEST DUP2 ADD SUB SLT PUSH2 0x362 JUMPI PUSH2 0x1CFA SWAP1 PUSH2 0x36E9 JUMP JUMPDEST DUP6 PUSH2 0x1C2A JUMP JUMPDEST POP RETURNDATASIZE PUSH2 0x1CDF JUMP JUMPDEST CALLVALUE PUSH2 0x362 JUMPI PUSH1 0x40 CALLDATASIZE PUSH1 0x3 NOT ADD SLT PUSH2 0x362 JUMPI PUSH1 0x24 CALLDATALOAD PUSH1 0x4 CALLDATALOAD PUSH1 0x0 MSTORE PUSH1 0x7 PUSH1 0x20 MSTORE PUSH1 0x40 PUSH1 0x0 KECCAK256 DUP1 SLOAD DUP3 LT ISZERO PUSH2 0x362 JUMPI PUSH1 0x20 SWAP2 PUSH2 0x1D40 SWAP2 PUSH2 0x3612 JUMP JUMPDEST SWAP1 SLOAD PUSH1 0x40 MLOAD SWAP2 PUSH1 0x3 SHL SHR DUP2 MSTORE RETURN JUMPDEST CALLVALUE PUSH2 0x362 JUMPI PUSH1 0x0 CALLDATASIZE PUSH1 0x3 NOT ADD SLT PUSH2 0x362 JUMPI PUSH1 0x0 SLOAD PUSH1 0x40 MLOAD PUSH1 0x1 PUSH1 0x1 PUSH1 0xA0 SHL SUB SWAP1 SWAP2 AND DUP2 MSTORE PUSH1 0x20 SWAP1 RETURN JUMPDEST CALLVALUE PUSH2 0x362 JUMPI PUSH1 0x20 CALLDATASIZE PUSH1 0x3 NOT ADD SLT PUSH2 0x362 JUMPI PUSH1 0x4 CALLDATALOAD DUP1 ISZERO ISZERO DUP1 PUSH2 0x1EA8 JUMPI JUMPDEST PUSH2 0x1D9D SWAP1 PUSH2 0x365B JUMP JUMPDEST PUSH1 0x0 MSTORE PUSH1 0x3 PUSH1 0x20 MSTORE PUSH1 0x40 PUSH1 0x0 KECCAK256 PUSH1 0x40 MLOAD SWAP1 PUSH2 0x1DB7 DUP3 PUSH2 0x33D3 JUMP JUMPDEST DUP1 SLOAD DUP3 MSTORE PUSH1 0x1 DUP1 PUSH1 0xA0 SHL SUB DUP1 PUSH1 0x1 DUP4 ADD SLOAD AND SWAP2 PUSH1 0x20 DUP5 ADD SWAP3 DUP4 MSTORE PUSH1 0x2 DUP2 ADD SLOAD SWAP4 PUSH1 0x40 DUP2 ADD SWAP5 DUP6 MSTORE PUSH1 0x3 DUP3 ADD SLOAD SWAP2 PUSH1 0x60 DUP3 ADD SWAP3 DUP4 MSTORE PUSH2 0x1DF7 PUSH1 0x4 DUP3 ADD PUSH2 0x3410 JUMP JUMPDEST PUSH1 0x80 DUP4 ADD SWAP1 DUP2 MSTORE PUSH2 0x1E0A PUSH1 0x5 DUP4 ADD PUSH2 0x3410 JUMP JUMPDEST PUSH1 0xA0 DUP5 ADD SWAP1 DUP2 MSTORE PUSH1 0x6 DUP4 ADD SLOAD PUSH1 0xC0 DUP6 ADD SWAP1 DUP2 MSTORE PUSH2 0x1E29 PUSH1 0x7 DUP6 ADD PUSH2 0x3410 JUMP JUMPDEST SWAP1 PUSH1 0xE0 DUP7 ADD SWAP2 DUP3 MSTORE PUSH1 0xFF PUSH1 0x8 DUP7 ADD SLOAD AND SWAP3 PUSH2 0x1E49 PUSH2 0x100 DUP9 ADD SWAP5 DUP6 PUSH2 0x38CA JUMP JUMPDEST PUSH1 0x9 DUP7 ADD SLOAD SWAP9 PUSH2 0x120 DUP9 ADD SWAP10 DUP11 MSTORE PUSH1 0xB PUSH1 0xA DUP9 ADD SLOAD SWAP8 PUSH2 0x140 DUP11 ADD SWAP9 DUP10 MSTORE ADD SLOAD SWAP8 PUSH2 0x160 DUP2 ADD SWAP9 DUP10 MSTORE MLOAD SWAP11 MLOAD AND SWAP11 MLOAD SWAP8 MLOAD SWAP5 MLOAD SWAP1 MLOAD SWAP2 MLOAD SWAP3 MLOAD SWAP4 MLOAD SWAP5 PUSH1 0x8 DUP7 LT ISZERO PUSH2 0x58B JUMPI PUSH2 0x1EA4 SWAP10 MLOAD SWAP7 MLOAD SWAP8 MLOAD SWAP9 PUSH1 0x40 MLOAD SWAP13 DUP14 SWAP13 DUP14 PUSH2 0x34FD JUMP JUMPDEST SUB SWAP1 RETURN JUMPDEST POP PUSH1 0x2 SLOAD DUP2 GT ISZERO PUSH2 0x1D94 JUMP JUMPDEST CALLVALUE PUSH2 0x362 JUMPI PUSH1 0x20 CALLDATASIZE PUSH1 0x3 NOT ADD SLT PUSH2 0x362 JUMPI PUSH1 0x20 PUSH2 0x1ED2 PUSH1 0x4 CALLDATALOAD PUSH2 0x3951 JUMP JUMPDEST PUSH1 0x40 MLOAD SWAP1 DUP2 MSTORE RETURN JUMPDEST CALLVALUE PUSH2 0x362 JUMPI PUSH1 0x20 DUP1 PUSH1 0x3 NOT CALLDATASIZE ADD SLT PUSH2 0x362 JUMPI PUSH1 0x4 CALLDATALOAD PUSH1 0x0 MSTORE PUSH1 0x3 DUP2 MSTORE PUSH1 0x40 PUSH1 0x0 KECCAK256 PUSH1 0x40 MLOAD PUSH2 0x1F07 DUP2 PUSH2 0x33D3 JUMP JUMPDEST DUP2 SLOAD DUP2 MSTORE PUSH1 0x1 DUP3 ADD SLOAD PUSH1 0x1 PUSH1 0x1 PUSH1 0xA0 SHL SUB SWAP1 DUP2 AND DUP5 DUP4 ADD MSTORE PUSH1 0x2 DUP4 ADD SLOAD PUSH1 0x40 DUP4 ADD MSTORE PUSH1 0x3 DUP4 ADD SLOAD PUSH1 0x60 DUP4 ADD MSTORE SWAP2 PUSH1 0xB SWAP1 PUSH2 0x1F43 PUSH1 0x4 DUP3 ADD PUSH2 0x3410 JUMP JUMPDEST PUSH1 0x80 DUP5 ADD MSTORE PUSH2 0x1F54 PUSH1 0x5 DUP3 ADD PUSH2 0x3410 JUMP JUMPDEST PUSH1 0xA0 DUP5 ADD MSTORE PUSH1 0x6 DUP2 ADD SLOAD PUSH1 0xC0 DUP5 ADD MSTORE PUSH2 0x1F6F PUSH1 0x7 DUP3 ADD PUSH2 0x3410 JUMP JUMPDEST PUSH1 0xE0 DUP5 ADD MSTORE PUSH2 0x1F89 PUSH1 0xFF PUSH1 0x8 DUP4 ADD SLOAD AND PUSH2 0x100 DUP6 ADD PUSH2 0x38CA JUMP JUMPDEST PUSH1 0x9 DUP2 ADD SLOAD PUSH2 0x120 DUP5 ADD MSTORE PUSH1 0xA DUP2 ADD SLOAD PUSH2 0x140 DUP5 ADD MSTORE ADD SLOAD PUSH2 0x160 DUP3 ADD MSTORE PUSH1 0x4 DUP4 DUP4 PUSH1 0x0 SLOAD AND PUSH1 0x40 MLOAD SWAP3 DUP4 DUP1 SWAP3 PUSH4 0x3EA42DE3 PUSH1 0xE0 SHL DUP3 MSTORE GAS STATICCALL DUP1 ISZERO PUSH2 0x356 JUMPI DUP4 SWAP2 PUSH1 0x0 SWAP2 PUSH2 0x2035 JUMPI JUMPDEST POP PUSH1 0x24 PUSH1 0x0 SWAP3 SWAP4 MLOAD PUSH1 0x40 MLOAD SWAP6 DUP7 SWAP4 DUP5 SWAP3 PUSH4 0x27DB25F1 PUSH1 0xE1 SHL DUP5 MSTORE PUSH1 0x4 DUP5 ADD MSTORE AND GAS STATICCALL SWAP2 DUP3 ISZERO PUSH2 0x356 JUMPI PUSH1 0x0 SWAP3 PUSH2 0x200D JUMPI JUMPDEST POP PUSH1 0x40 MLOAD SWAP2 AND DUP2 MSTORE RETURN JUMPDEST PUSH2 0x2023 SWAP2 SWAP3 POP RETURNDATASIZE DUP1 PUSH1 0x0 DUP4 RETURNDATACOPY PUSH2 0x4F7 DUP2 DUP4 PUSH2 0x33EF JUMP JUMPDEST POP POP POP POP POP POP POP POP POP POP POP SWAP1 DUP4 PUSH2 0x2003 JUMP JUMPDEST DUP1 SWAP3 POP DUP6 DUP1 SWAP3 POP RETURNDATASIZE DUP4 GT PUSH2 0x206E JUMPI JUMPDEST PUSH2 0x204E DUP2 DUP4 PUSH2 0x33EF JUMP JUMPDEST DUP2 ADD SUB SLT PUSH2 0x362 JUMPI DUP3 SWAP2 PUSH1 0x24 PUSH2 0x2065 PUSH1 0x0 SWAP4 PUSH2 0x36E9 JUMP JUMPDEST SWAP2 SWAP4 SWAP3 POP PUSH2 0x1FD2 JUMP JUMPDEST POP RETURNDATASIZE PUSH2 0x2044 JUMP JUMPDEST CALLVALUE PUSH2 0x362 JUMPI PUSH1 0x40 CALLDATASIZE PUSH1 0x3 NOT ADD SLT PUSH2 0x362 JUMPI PUSH1 0x24 CALLDATALOAD PUSH1 0x1 PUSH1 0x1 PUSH1 0xA0 SHL SUB DUP2 AND SWAP1 DUP2 SWAP1 SUB PUSH2 0x362 JUMPI PUSH1 0x4 CALLDATALOAD PUSH1 0x0 MSTORE PUSH1 0x6 PUSH1 0x20 MSTORE PUSH1 0x40 PUSH1 0x0 KECCAK256 SWAP1 PUSH1 0x0 MSTORE PUSH1 0x20 MSTORE PUSH1 0x20 PUSH1 0xFF PUSH1 0x40 PUSH1 0x0 KECCAK256 SLOAD AND PUSH1 0x40 MLOAD SWAP1 ISZERO ISZERO DUP2 MSTORE RETURN JUMPDEST CALLVALUE PUSH2 0x362 JUMPI PUSH1 0x40 CALLDATASIZE PUSH1 0x3 NOT ADD SLT PUSH2 0x362 JUMPI PUSH2 0x20E0 PUSH2 0x35FC JUMP JUMPDEST PUSH1 0x24 CALLDATALOAD SWAP1 DUP2 ISZERO ISZERO DUP1 SWAP3 SUB PUSH2 0x362 JUMPI CALLER PUSH1 0x0 MSTORE PUSH1 0x5 PUSH1 0x20 MSTORE PUSH1 0xFF PUSH1 0x40 PUSH1 0x0 KECCAK256 SLOAD AND ISZERO PUSH2 0x2155 JUMPI PUSH1 0x20 PUSH32 0xE68D2C359A771606C400CF8B87000CF5864010363D6A736E98F5047B7BBE18E9 SWAP2 PUSH1 0x1 DUP1 PUSH1 0xA0 SHL SUB AND SWAP3 DUP4 PUSH1 0x0 MSTORE PUSH1 0x5 DUP3 MSTORE PUSH1 0x40 PUSH1 0x0 KECCAK256 PUSH1 0xFF NOT DUP2 SLOAD AND PUSH1 0xFF DUP4 AND OR SWAP1 SSTORE PUSH1 0x40 MLOAD SWAP1 DUP2 MSTORE LOG2 STOP JUMPDEST PUSH1 0x40 MLOAD PUSH3 0x461BCD PUSH1 0xE5 SHL DUP2 MSTORE PUSH1 0x20 PUSH1 0x4 DUP3 ADD MSTORE PUSH1 0x22 PUSH1 0x24 DUP3 ADD MSTORE PUSH32 0x4F6E6C792061646D696E2063616E20706572666F726D20746869732061637469 PUSH1 0x44 DUP3 ADD MSTORE PUSH2 0x37B7 PUSH1 0xF1 SHL PUSH1 0x64 DUP3 ADD MSTORE PUSH1 0x84 SWAP1 REVERT JUMPDEST CALLVALUE PUSH2 0x362 JUMPI PUSH1 0x20 DUP1 PUSH1 0x3 NOT CALLDATASIZE ADD SLT PUSH2 0x362 JUMPI PUSH1 0x4 CALLDATALOAD SWAP1 PUSH2 0x21C3 PUSH2 0x39F8 JUMP JUMPDEST DUP2 ISZERO ISZERO DUP1 PUSH2 0x2459 JUMPI JUMPDEST PUSH2 0x21D5 SWAP1 PUSH2 0x365B JUMP JUMPDEST DUP2 PUSH1 0x0 MSTORE PUSH1 0x3 SWAP1 DUP2 DUP2 MSTORE PUSH1 0xFF PUSH1 0x8 PUSH1 0x40 PUSH1 0x0 KECCAK256 ADD SLOAD AND PUSH1 0x8 DUP2 LT ISZERO PUSH2 0x58B JUMPI PUSH1 0x1 PUSH2 0x2200 SWAP2 EQ PUSH2 0x3905 JUMP JUMPDEST DUP3 PUSH1 0x0 MSTORE DUP2 DUP2 MSTORE PUSH1 0xFF PUSH1 0x8 PUSH1 0x40 PUSH1 0x0 KECCAK256 ADD SLOAD AND PUSH1 0x8 DUP2 LT ISZERO PUSH2 0x58B JUMPI DUP3 PUSH2 0x2228 SWAP2 EQ ISZERO PUSH2 0x369E JUMP JUMPDEST PUSH1 0x0 SLOAD PUSH1 0x40 MLOAD PUSH4 0x3EA42DE3 PUSH1 0xE0 SHL DUP2 MSTORE PUSH1 0x1 PUSH1 0x1 PUSH1 0xA0 SHL SUB SWAP2 DUP3 AND SWAP1 DUP4 DUP2 PUSH1 0x4 DUP2 DUP6 GAS STATICCALL DUP1 ISZERO PUSH2 0x356 JUMPI DUP4 SWAP2 PUSH1 0x0 SWAP2 PUSH2 0x241F JUMPI JUMPDEST POP PUSH1 0x0 SWAP1 DUP8 DUP3 MSTORE DUP7 DUP7 MSTORE PUSH1 0x24 PUSH1 0x40 DUP4 KECCAK256 SLOAD PUSH1 0x40 MLOAD SWAP5 DUP6 SWAP4 DUP5 SWAP3 PUSH4 0x27DB25F1 PUSH1 0xE1 SHL DUP5 MSTORE PUSH1 0x4 DUP5 ADD MSTORE AND GAS STATICCALL SWAP1 DUP2 ISZERO PUSH2 0x356 JUMPI PUSH1 0x0 SWAP2 PUSH2 0x23F9 JUMPI JUMPDEST POP DUP3 CALLER SWAP2 AND SUB PUSH2 0x23A1 JUMPI DUP3 PUSH1 0x4 SWAP2 PUSH1 0x40 MLOAD SWAP3 DUP4 DUP1 SWAP3 PUSH4 0x3577BE9 PUSH1 0xE2 SHL DUP3 MSTORE GAS STATICCALL SWAP1 DUP2 ISZERO PUSH2 0x356 JUMPI PUSH1 0x0 SWAP2 PUSH2 0x236C JUMPI JUMPDEST POP AND SWAP2 DUP4 PUSH1 0x0 MSTORE DUP1 DUP3 MSTORE DUP1 PUSH1 0x40 PUSH1 0x0 KECCAK256 ADD SLOAD DUP4 EXTCODESIZE ISZERO PUSH2 0x362 JUMPI PUSH1 0x0 SWAP4 PUSH1 0x44 DUP6 SWAP3 PUSH1 0x40 MLOAD SWAP7 DUP8 SWAP4 DUP5 SWAP3 PUSH4 0x342865AB PUSH1 0xE1 SHL DUP5 MSTORE DUP11 PUSH1 0x4 DUP6 ADD MSTORE PUSH1 0x24 DUP5 ADD MSTORE GAS CALL SWAP3 DUP4 ISZERO PUSH2 0x356 JUMPI PUSH32 0xC46F70879F2C8E8B148399F0E29F0A2AD37CEC5D4A75BA302C254F80CA91FC43 SWAP4 PUSH2 0x235D JUMPI JUMPDEST POP DUP4 PUSH1 0x0 MSTORE DUP1 DUP3 MSTORE PUSH1 0x40 PUSH1 0x0 KECCAK256 ADD SLOAD PUSH1 0x40 MLOAD SWAP1 DUP2 MSTORE LOG2 PUSH1 0x1 PUSH1 0x0 DUP1 MLOAD PUSH1 0x20 PUSH2 0x3A29 DUP4 CODECOPY DUP2 MLOAD SWAP2 MSTORE SSTORE STOP JUMPDEST PUSH2 0x2366 SWAP1 PUSH2 0x33C0 JUMP JUMPDEST DUP5 PUSH2 0x2333 JUMP JUMPDEST SWAP1 POP DUP3 DUP2 DUP2 RETURNDATASIZE DUP4 GT PUSH2 0x239A JUMPI JUMPDEST PUSH2 0x2383 DUP2 DUP4 PUSH2 0x33EF JUMP JUMPDEST DUP2 ADD SUB SLT PUSH2 0x362 JUMPI PUSH2 0x2394 SWAP1 PUSH2 0x36E9 JUMP JUMPDEST DUP6 PUSH2 0x22C6 JUMP JUMPDEST POP RETURNDATASIZE PUSH2 0x2379 JUMP JUMPDEST PUSH1 0x40 MLOAD PUSH3 0x461BCD PUSH1 0xE5 SHL DUP2 MSTORE PUSH1 0x4 DUP2 ADD DUP5 SWAP1 MSTORE PUSH1 0x2A PUSH1 0x24 DUP3 ADD MSTORE PUSH32 0x4F6E6C79206F66666572206F776E65722063616E206C6F636B2063727970746F PUSH1 0x44 DUP3 ADD MSTORE PUSH10 0x20696E20657363726F77 PUSH1 0xB0 SHL PUSH1 0x64 DUP3 ADD MSTORE PUSH1 0x84 SWAP1 REVERT JUMPDEST PUSH2 0x240E SWAP2 POP RETURNDATASIZE DUP1 PUSH1 0x0 DUP4 RETURNDATACOPY PUSH2 0x4F7 DUP2 DUP4 PUSH2 0x33EF JUMP JUMPDEST POP POP POP POP POP POP POP POP POP POP POP DUP7 PUSH2 0x2296 JUMP JUMPDEST DUP1 SWAP3 POP DUP6 DUP1 SWAP3 POP RETURNDATASIZE DUP4 GT PUSH2 0x2452 JUMPI JUMPDEST PUSH2 0x2438 DUP2 DUP4 PUSH2 0x33EF JUMP JUMPDEST DUP2 ADD SUB SLT PUSH2 0x362 JUMPI PUSH1 0x0 PUSH2 0x244C DUP5 SWAP3 PUSH2 0x36E9 JUMP JUMPDEST SWAP1 PUSH2 0x225C JUMP JUMPDEST POP RETURNDATASIZE PUSH2 0x242E JUMP JUMPDEST POP PUSH1 0x2 SLOAD DUP3 GT ISZERO PUSH2 0x21CC JUMP JUMPDEST CALLVALUE PUSH2 0x362 JUMPI PUSH1 0x20 CALLDATASIZE PUSH1 0x3 NOT ADD SLT PUSH2 0x362 JUMPI PUSH1 0x1 PUSH1 0x1 PUSH1 0xA0 SHL SUB PUSH2 0x2486 PUSH2 0x35FC JUMP JUMPDEST AND PUSH1 0x0 MSTORE PUSH1 0x5 PUSH1 0x20 MSTORE PUSH1 0x20 PUSH1 0xFF PUSH1 0x40 PUSH1 0x0 KECCAK256 SLOAD AND PUSH1 0x40 MLOAD SWAP1 ISZERO ISZERO DUP2 MSTORE RETURN JUMPDEST CALLVALUE PUSH2 0x362 JUMPI PUSH1 0x20 DUP1 PUSH1 0x3 NOT CALLDATASIZE ADD SLT PUSH2 0x362 JUMPI PUSH1 0x4 CALLDATALOAD SWAP1 DUP2 ISZERO ISZERO DUP1 PUSH2 0x27CB JUMPI JUMPDEST PUSH2 0x24CC SWAP1 PUSH2 0x365B JUMP JUMPDEST DUP2 PUSH1 0x0 MSTORE PUSH1 0x3 SWAP1 DUP2 DUP2 MSTORE PUSH1 0xFF PUSH1 0x8 PUSH1 0x40 PUSH1 0x0 KECCAK256 ADD SLOAD AND PUSH1 0x8 DUP2 LT ISZERO PUSH2 0x58B JUMPI PUSH1 0x1 PUSH2 0x24F7 SWAP2 EQ PUSH2 0x3905 JUMP JUMPDEST PUSH1 0x0 DUP4 DUP2 MSTORE DUP3 DUP3 MSTORE PUSH1 0x40 SWAP1 KECCAK256 PUSH1 0x1 ADD SLOAD PUSH1 0x1 PUSH1 0x1 PUSH1 0xA0 SHL SUB SWAP1 DUP2 AND CALLER SUB PUSH2 0x2777 JUMPI DUP4 PUSH1 0x0 MSTORE PUSH1 0x7 DUP3 MSTORE PUSH1 0x40 PUSH1 0x0 KECCAK256 DUP1 SLOAD DUP1 ISZERO ISZERO SWAP2 DUP3 PUSH2 0x2750 JUMPI JUMPDEST POP POP ISZERO PUSH2 0x2675 JUMPI PUSH1 0x4 DUP3 DUP3 PUSH1 0x0 SLOAD AND PUSH1 0x40 MLOAD SWAP3 DUP4 DUP1 SWAP3 PUSH4 0x3577BE9 PUSH1 0xE2 SHL DUP3 MSTORE GAS STATICCALL DUP1 ISZERO PUSH2 0x356 JUMPI DUP3 SWAP2 PUSH1 0x0 SWAP2 PUSH2 0x263D JUMPI JUMPDEST POP AND SWAP1 DUP5 PUSH1 0x0 MSTORE DUP4 DUP4 MSTORE PUSH1 0x1 PUSH1 0x40 PUSH1 0x0 KECCAK256 ADD SLOAD AND SWAP1 DUP1 EXTCODESIZE ISZERO PUSH2 0x362 JUMPI PUSH1 0x40 MLOAD PUSH4 0xDE9D8587 PUSH1 0xE0 SHL DUP2 MSTORE PUSH1 0x4 DUP2 ADD DUP7 SWAP1 MSTORE PUSH1 0x1 PUSH1 0x1 PUSH1 0xA0 SHL SUB SWAP3 SWAP1 SWAP3 AND PUSH1 0x24 DUP4 ADD MSTORE PUSH1 0x0 SWAP1 DUP3 SWAP1 PUSH1 0x44 SWAP1 DUP3 SWAP1 DUP5 SWAP1 GAS CALL DUP1 ISZERO PUSH2 0x356 JUMPI PUSH2 0x262E JUMPI JUMPDEST POP JUMPDEST DUP3 PUSH1 0x0 MSTORE DUP2 DUP2 MSTORE PUSH2 0x25DA PUSH1 0xFF PUSH1 0x8 PUSH1 0x40 PUSH1 0x0 KECCAK256 ADD SLOAD AND PUSH2 0x362A JUMP JUMPDEST PUSH1 0x2 PUSH1 0x0 MSTORE DUP2 MSTORE PUSH1 0xFF PUSH1 0x40 PUSH1 0x0 KECCAK256 SLOAD AND ISZERO PUSH2 0x7F1 JUMPI DUP3 PUSH1 0x0 MSTORE MSTORE PUSH1 0x8 PUSH1 0x40 PUSH1 0x0 KECCAK256 ADD PUSH1 0x2 PUSH1 0xFF NOT DUP3 SLOAD AND OR SWAP1 SSTORE PUSH32 0x451A001DB5C51B7CA11B027313B2AD79D5049CB6FABAA4D3648CF7DDDF732EAF PUSH1 0x0 DUP1 LOG2 STOP JUMPDEST PUSH2 0x2637 SWAP1 PUSH2 0x33C0 JUMP JUMPDEST DUP4 PUSH2 0x25BD JUMP JUMPDEST DUP1 SWAP3 POP DUP5 DUP1 SWAP3 POP RETURNDATASIZE DUP4 GT PUSH2 0x266E JUMPI JUMPDEST PUSH2 0x2656 DUP2 DUP4 PUSH2 0x33EF JUMP JUMPDEST DUP2 ADD SUB SLT PUSH2 0x362 JUMPI PUSH2 0x2668 DUP3 SWAP2 PUSH2 0x36E9 JUMP JUMPDEST DUP7 PUSH2 0x2563 JUMP JUMPDEST POP RETURNDATASIZE PUSH2 0x264C JUMP JUMPDEST PUSH2 0x267E DUP5 PUSH2 0x3951 JUMP JUMPDEST SWAP1 PUSH1 0x4 DUP4 DUP3 PUSH1 0x0 SLOAD AND PUSH1 0x40 MLOAD SWAP3 DUP4 DUP1 SWAP3 PUSH4 0x3577BE9 PUSH1 0xE2 SHL DUP3 MSTORE GAS STATICCALL DUP1 ISZERO PUSH2 0x356 JUMPI DUP3 SWAP2 PUSH1 0x0 SWAP2 PUSH2 0x2718 JUMPI JUMPDEST POP AND SWAP2 PUSH1 0x0 MSTORE DUP4 DUP4 MSTORE PUSH1 0x1 PUSH1 0x40 PUSH1 0x0 KECCAK256 ADD SLOAD AND SWAP1 DUP1 EXTCODESIZE ISZERO PUSH2 0x362 JUMPI PUSH1 0x40 MLOAD PUSH4 0xDE9D8587 PUSH1 0xE0 SHL DUP2 MSTORE PUSH1 0x4 DUP2 ADD DUP7 SWAP1 MSTORE PUSH1 0x1 PUSH1 0x1 PUSH1 0xA0 SHL SUB SWAP3 SWAP1 SWAP3 AND PUSH1 0x24 DUP4 ADD MSTORE PUSH1 0x0 SWAP1 DUP3 SWAP1 PUSH1 0x44 SWAP1 DUP3 SWAP1 DUP5 SWAP1 GAS CALL DUP1 ISZERO PUSH2 0x356 JUMPI PUSH2 0x2709 JUMPI JUMPDEST POP PUSH2 0x25BF JUMP JUMPDEST PUSH2 0x2712 SWAP1 PUSH2 0x33C0 JUMP JUMPDEST DUP4 PUSH2 0x2703 JUMP JUMPDEST DUP1 SWAP3 POP DUP6 DUP1 SWAP3 POP RETURNDATASIZE DUP4 GT PUSH2 0x2749 JUMPI JUMPDEST PUSH2 0x2731 DUP2 DUP4 PUSH2 0x33EF JUMP JUMPDEST DUP2 ADD SUB SLT PUSH2 0x362 JUMPI PUSH2 0x2743 DUP3 SWAP2 PUSH2 0x36E9 JUMP JUMPDEST DUP8 PUSH2 0x26AA JUMP JUMPDEST POP RETURNDATASIZE PUSH2 0x2727 JUMP JUMPDEST PUSH1 0x0 NOT DUP3 ADD SWAP3 POP SWAP1 DUP3 GT PUSH2 0x886 JUMPI DUP6 SWAP2 PUSH2 0x2769 SWAP2 PUSH2 0x3612 JUMP JUMPDEST SWAP1 SLOAD SWAP1 DUP6 SHL SHR EQ DUP6 DUP1 PUSH2 0x2531 JUMP JUMPDEST PUSH1 0x40 MLOAD PUSH3 0x461BCD PUSH1 0xE5 SHL DUP2 MSTORE PUSH1 0x4 DUP2 ADD DUP4 SWAP1 MSTORE PUSH1 0x26 PUSH1 0x24 DUP3 ADD MSTORE PUSH32 0x4F6E6C792074726164652074616B65722063616E206D61726B20666961742061 PUSH1 0x44 DUP3 ADD MSTORE PUSH6 0x1CC81C185A59 PUSH1 0xD2 SHL PUSH1 0x64 DUP3 ADD MSTORE PUSH1 0x84 SWAP1 REVERT JUMPDEST POP PUSH1 0x2 SLOAD DUP3 GT ISZERO PUSH2 0x24C3 JUMP JUMPDEST CALLVALUE PUSH2 0x362 JUMPI PUSH1 0xE0 CALLDATASIZE PUSH1 0x3 NOT ADD SLT PUSH2 0x362 JUMPI PUSH1 0x4 CALLDATALOAD PUSH1 0x1 PUSH1 0x1 PUSH1 0x40 SHL SUB DUP2 GT PUSH2 0x362 JUMPI CALLDATASIZE PUSH1 0x23 DUP3 ADD SLT ISZERO PUSH2 0x362 JUMPI DUP1 PUSH1 0x4 ADD CALLDATALOAD SWAP1 PUSH2 0x2813 DUP3 PUSH2 0x3583 JUMP JUMPDEST SWAP2 PUSH2 0x2821 PUSH1 0x40 MLOAD SWAP4 DUP5 PUSH2 0x33EF JUMP JUMPDEST DUP1 DUP4 MSTORE PUSH1 0x24 PUSH1 0x20 DUP5 ADD SWAP2 PUSH1 0x5 SHL DUP4 ADD ADD SWAP2 CALLDATASIZE DUP4 GT PUSH2 0x362 JUMPI PUSH1 0x24 ADD SWAP1 JUMPDEST DUP3 DUP3 LT PUSH2 0x2EDB JUMPI DUP4 PUSH1 0x64 CALLDATALOAD PUSH1 0x1 PUSH1 0x1 PUSH1 0x40 SHL SUB DUP2 GT PUSH2 0x362 JUMPI PUSH2 0x2865 SWAP1 CALLDATASIZE SWAP1 PUSH1 0x4 ADD PUSH2 0x35B5 JUMP JUMPDEST SWAP1 PUSH1 0x84 CALLDATALOAD PUSH1 0x1 PUSH1 0x1 PUSH1 0x40 SHL SUB DUP2 GT PUSH2 0x362 JUMPI PUSH2 0x2885 SWAP1 CALLDATASIZE SWAP1 PUSH1 0x4 ADD PUSH2 0x35B5 JUMP JUMPDEST PUSH1 0xC4 CALLDATALOAD PUSH1 0x1 PUSH1 0x1 PUSH1 0x40 SHL SUB DUP2 GT PUSH2 0x362 JUMPI PUSH2 0x28A4 SWAP1 CALLDATASIZE SWAP1 PUSH1 0x4 ADD PUSH2 0x35B5 JUMP JUMPDEST DUP3 MLOAD ISZERO PUSH2 0x2E8C JUMPI DUP3 MLOAD SWAP2 PUSH2 0x28D0 PUSH2 0x28BA DUP5 PUSH2 0x3583 JUMP JUMPDEST SWAP4 PUSH2 0x28C8 PUSH1 0x40 MLOAD SWAP6 DUP7 PUSH2 0x33EF JUMP JUMPDEST DUP1 DUP6 MSTORE PUSH2 0x3583 JUMP JUMPDEST PUSH1 0x1F NOT ADD CALLDATASIZE PUSH1 0x20 DUP6 ADD CALLDATACOPY PUSH1 0x0 JUMPDEST DUP5 MLOAD DUP2 LT ISZERO PUSH2 0x2D82 JUMPI PUSH2 0x28F0 DUP2 DUP7 PUSH2 0x38A7 JUMP JUMPDEST MLOAD SWAP1 PUSH2 0x28FD PUSH1 0x2 SLOAD PUSH2 0x38BB JUMP JUMPDEST SWAP2 DUP3 PUSH1 0x2 SSTORE PUSH1 0x40 MLOAD SWAP3 PUSH2 0x290F DUP5 PUSH2 0x33D3 JUMP JUMPDEST DUP2 DUP5 MSTORE CALLER PUSH1 0x20 DUP6 ADD MSTORE PUSH1 0x24 CALLDATALOAD PUSH1 0x40 DUP6 ADD MSTORE PUSH1 0x44 CALLDATALOAD PUSH1 0x60 DUP6 ADD MSTORE DUP9 PUSH1 0x80 DUP6 ADD MSTORE DUP5 PUSH1 0xA0 DUP6 ADD MSTORE PUSH1 0xA4 CALLDATALOAD PUSH1 0xC0 DUP6 ADD MSTORE DUP6 PUSH1 0xE0 DUP6 ADD MSTORE PUSH1 0x0 PUSH2 0x100 DUP6 ADD MSTORE TIMESTAMP PUSH2 0x120 DUP6 ADD MSTORE PUSH1 0x0 PUSH2 0x140 DUP6 ADD MSTORE PUSH1 0x0 PUSH2 0x160 DUP6 ADD MSTORE PUSH1 0x0 MSTORE PUSH1 0x3 PUSH1 0x20 MSTORE PUSH1 0x40 PUSH1 0x0 KECCAK256 DUP4 MLOAD DUP2 SSTORE PUSH1 0x1 DUP2 ADD PUSH1 0x1 DUP1 PUSH1 0xA0 SHL SUB PUSH1 0x20 DUP7 ADD MLOAD AND PUSH12 0xFFFFFFFFFFFFFFFFFFFFFFFF PUSH1 0xA0 SHL DUP3 SLOAD AND OR SWAP1 SSTORE PUSH1 0x40 DUP5 ADD MLOAD PUSH1 0x2 DUP3 ADD SSTORE PUSH1 0x60 DUP5 ADD MLOAD PUSH1 0x3 DUP3 ADD SSTORE PUSH1 0x80 DUP5 ADD MLOAD DUP1 MLOAD SWAP1 PUSH1 0x1 PUSH1 0x1 PUSH1 0x40 SHL SUB DUP3 GT PUSH2 0x2C08 JUMPI DUP2 SWAP1 PUSH2 0x29D2 PUSH1 0x4 DUP6 ADD SLOAD PUSH2 0x3386 JUMP JUMPDEST PUSH1 0x1F DUP2 GT PUSH2 0x2D4D JUMPI JUMPDEST POP PUSH1 0x20 SWAP1 PUSH1 0x1F DUP4 GT PUSH1 0x1 EQ PUSH2 0x2CDB JUMPI PUSH1 0x0 SWAP3 PUSH2 0x2CD0 JUMPI JUMPDEST POP POP DUP2 PUSH1 0x1 SHL SWAP2 PUSH1 0x0 NOT SWAP1 PUSH1 0x3 SHL SHR NOT AND OR PUSH1 0x4 DUP3 ADD SSTORE JUMPDEST PUSH1 0xA0 DUP5 ADD MLOAD DUP1 MLOAD SWAP1 PUSH1 0x1 PUSH1 0x1 PUSH1 0x40 SHL SUB DUP3 GT PUSH2 0x2C08 JUMPI DUP2 SWAP1 PUSH2 0x2A2F PUSH1 0x5 DUP6 ADD SLOAD PUSH2 0x3386 JUMP JUMPDEST PUSH1 0x1F DUP2 GT PUSH2 0x2C9B JUMPI JUMPDEST POP PUSH1 0x20 SWAP1 PUSH1 0x1F DUP4 GT PUSH1 0x1 EQ PUSH2 0x2C29 JUMPI PUSH1 0x0 SWAP3 PUSH2 0x2C1E JUMPI JUMPDEST POP POP DUP2 PUSH1 0x1 SHL SWAP2 PUSH1 0x0 NOT SWAP1 PUSH1 0x3 SHL SHR NOT AND OR PUSH1 0x5 DUP3 ADD SSTORE JUMPDEST PUSH1 0xC0 DUP5 ADD MLOAD PUSH1 0x6 DUP3 ADD SSTORE PUSH1 0xE0 DUP5 ADD MLOAD DUP1 MLOAD SWAP1 PUSH1 0x1 PUSH1 0x1 PUSH1 0x40 SHL SUB DUP3 GT PUSH2 0x2C08 JUMPI DUP2 SWAP1 PUSH2 0x2A96 PUSH1 0x7 DUP6 ADD SLOAD PUSH2 0x3386 JUMP JUMPDEST PUSH1 0x1F DUP2 GT PUSH2 0x2BC8 JUMPI JUMPDEST POP PUSH1 0x20 SWAP1 PUSH1 0x1F DUP4 GT PUSH1 0x1 EQ PUSH2 0x2B56 JUMPI PUSH1 0x0 SWAP3 PUSH2 0x2B4B JUMPI JUMPDEST POP POP DUP2 PUSH1 0x1 SHL SWAP2 PUSH1 0x0 NOT SWAP1 PUSH1 0x3 SHL SHR NOT AND OR PUSH1 0x7 DUP3 ADD SSTORE JUMPDEST PUSH2 0x100 DUP5 ADD MLOAD SWAP4 PUSH1 0x8 DUP6 LT ISZERO PUSH2 0x58B JUMPI PUSH2 0x160 PUSH1 0xB SWAP2 PUSH2 0x2AF3 PUSH1 0x1 SWAP8 PUSH1 0x8 DUP7 ADD PUSH2 0x38ED JUMP JUMPDEST PUSH2 0x120 DUP2 ADD MLOAD PUSH1 0x9 DUP6 ADD SSTORE PUSH2 0x140 DUP2 ADD MLOAD PUSH1 0xA DUP6 ADD SSTORE ADD MLOAD SWAP2 ADD SSTORE PUSH1 0x2 SLOAD SWAP1 DUP2 PUSH2 0x2B1D DUP5 DUP10 PUSH2 0x38A7 JUMP JUMPDEST MSTORE CALLER SWAP2 PUSH32 0x6E1CF3A650CA8202A8A7876101E709A4307E5639C8D4015993E000F3D026E310 PUSH1 0x0 DUP1 LOG4 ADD PUSH2 0x28DD JUMP JUMPDEST ADD MLOAD SWAP1 POP DUP12 DUP1 PUSH2 0x2AB6 JUMP JUMPDEST SWAP3 POP PUSH1 0x7 DUP5 ADD PUSH1 0x0 MSTORE PUSH1 0x20 PUSH1 0x0 KECCAK256 SWAP1 PUSH1 0x0 SWAP4 JUMPDEST PUSH1 0x1F NOT DUP5 AND DUP6 LT PUSH2 0x2BAD JUMPI PUSH1 0x1 SWAP5 POP DUP4 PUSH1 0x1F NOT DUP2 AND LT PUSH2 0x2B94 JUMPI JUMPDEST POP POP POP DUP2 SHL ADD PUSH1 0x7 DUP3 ADD SSTORE PUSH2 0x2ACE JUMP JUMPDEST ADD MLOAD PUSH1 0x0 NOT PUSH1 0xF8 DUP5 PUSH1 0x3 SHL AND SHR NOT AND SWAP1 SSTORE DUP12 DUP1 DUP1 PUSH2 0x2B84 JUMP JUMPDEST DUP2 DUP2 ADD MLOAD DUP4 SSTORE PUSH1 0x20 SWAP5 DUP6 ADD SWAP5 PUSH1 0x1 SWAP1 SWAP4 ADD SWAP3 SWAP1 SWAP2 ADD SWAP1 PUSH2 0x2B69 JUMP JUMPDEST PUSH2 0x2BF8 SWAP1 PUSH1 0x7 DUP7 ADD PUSH1 0x0 MSTORE PUSH1 0x20 PUSH1 0x0 KECCAK256 PUSH1 0x1F DUP6 ADD PUSH1 0x5 SHR DUP2 ADD SWAP2 PUSH1 0x20 DUP7 LT PUSH2 0x2BFE JUMPI JUMPDEST PUSH1 0x1F ADD PUSH1 0x5 SHR ADD SWAP1 PUSH2 0x38D6 JUMP JUMPDEST DUP13 PUSH2 0x2A9F JUMP JUMPDEST SWAP1 SWAP2 POP DUP2 SWAP1 PUSH2 0x2BEB JUMP JUMPDEST PUSH4 0x4E487B71 PUSH1 0xE0 SHL PUSH1 0x0 MSTORE PUSH1 0x41 PUSH1 0x4 MSTORE PUSH1 0x24 PUSH1 0x0 REVERT JUMPDEST ADD MLOAD SWAP1 POP DUP12 DUP1 PUSH2 0x2A4F JUMP JUMPDEST SWAP3 POP PUSH1 0x5 DUP5 ADD PUSH1 0x0 MSTORE PUSH1 0x20 PUSH1 0x0 KECCAK256 SWAP1 PUSH1 0x0 SWAP4 JUMPDEST PUSH1 0x1F NOT DUP5 AND DUP6 LT PUSH2 0x2C80 JUMPI PUSH1 0x1 SWAP5 POP DUP4 PUSH1 0x1F NOT DUP2 AND LT PUSH2 0x2C67 JUMPI JUMPDEST POP POP POP DUP2 SHL ADD PUSH1 0x5 DUP3 ADD SSTORE PUSH2 0x2A67 JUMP JUMPDEST ADD MLOAD PUSH1 0x0 NOT PUSH1 0xF8 DUP5 PUSH1 0x3 SHL AND SHR NOT AND SWAP1 SSTORE DUP12 DUP1 DUP1 PUSH2 0x2C57 JUMP JUMPDEST DUP2 DUP2 ADD MLOAD DUP4 SSTORE PUSH1 0x20 SWAP5 DUP6 ADD SWAP5 PUSH1 0x1 SWAP1 SWAP4 ADD SWAP3 SWAP1 SWAP2 ADD SWAP1 PUSH2 0x2C3C JUMP JUMPDEST PUSH2 0x2CCA SWAP1 PUSH1 0x5 DUP7 ADD PUSH1 0x0 MSTORE PUSH1 0x20 PUSH1 0x0 KECCAK256 PUSH1 0x1F DUP6 ADD PUSH1 0x5 SHR DUP2 ADD SWAP2 PUSH1 0x20 DUP7 LT PUSH2 0x2BFE JUMPI PUSH1 0x1F ADD PUSH1 0x5 SHR ADD SWAP1 PUSH2 0x38D6 JUMP JUMPDEST DUP13 PUSH2 0x2A38 JUMP JUMPDEST ADD MLOAD SWAP1 POP DUP12 DUP1 PUSH2 0x29F2 JUMP JUMPDEST SWAP3 POP PUSH1 0x4 DUP5 ADD PUSH1 0x0 MSTORE PUSH1 0x20 PUSH1 0x0 KECCAK256 SWAP1 PUSH1 0x0 SWAP4 JUMPDEST PUSH1 0x1F NOT DUP5 AND DUP6 LT PUSH2 0x2D32 JUMPI PUSH1 0x1 SWAP5 POP DUP4 PUSH1 0x1F NOT DUP2 AND LT PUSH2 0x2D19 JUMPI JUMPDEST POP POP POP DUP2 SHL ADD PUSH1 0x4 DUP3 ADD SSTORE PUSH2 0x2A0A JUMP JUMPDEST ADD MLOAD PUSH1 0x0 NOT PUSH1 0xF8 DUP5 PUSH1 0x3 SHL AND SHR NOT AND SWAP1 SSTORE DUP12 DUP1 DUP1 PUSH2 0x2D09 JUMP JUMPDEST DUP2 DUP2 ADD MLOAD DUP4 SSTORE PUSH1 0x20 SWAP5 DUP6 ADD SWAP5 PUSH1 0x1 SWAP1 SWAP4 ADD SWAP3 SWAP1 SWAP2 ADD SWAP1 PUSH2 0x2CEE JUMP JUMPDEST PUSH2 0x2D7C SWAP1 PUSH1 0x4 DUP7 ADD PUSH1 0x0 MSTORE PUSH1 0x20 PUSH1 0x0 KECCAK256 PUSH1 0x1F DUP6 ADD PUSH1 0x5 SHR DUP2 ADD SWAP2 PUSH1 0x20 DUP7 LT PUSH2 0x2BFE JUMPI PUSH1 0x1F ADD PUSH1 0x5 SHR ADD SWAP1 PUSH2 0x38D6 JUMP JUMPDEST DUP13 PUSH2 0x29DB JUMP JUMPDEST DUP4 DUP1 MLOAD ISZERO PUSH2 0x2E76 JUMPI PUSH1 0x20 DUP2 ADD MLOAD PUSH1 0x0 MSTORE PUSH1 0x7 PUSH1 0x20 MSTORE PUSH1 0x40 PUSH1 0x0 KECCAK256 DUP2 MLOAD SWAP1 PUSH1 0x1 PUSH1 0x1 PUSH1 0x40 SHL SUB DUP3 GT PUSH2 0x2C08 JUMPI PUSH9 0x10000000000000000 DUP3 GT PUSH2 0x2C08 JUMPI DUP1 SLOAD DUP3 DUP3 SSTORE DUP1 DUP4 LT PUSH2 0x2E58 JUMPI JUMPDEST POP PUSH1 0x20 DUP4 ADD SWAP1 PUSH1 0x0 MSTORE PUSH1 0x20 PUSH1 0x0 KECCAK256 PUSH1 0x0 JUMPDEST DUP4 DUP2 LT PUSH2 0x2E44 JUMPI DUP5 PUSH1 0x40 MLOAD PUSH1 0x20 DUP2 ADD PUSH1 0x20 DUP3 MSTORE DUP3 MLOAD DUP1 SWAP2 MSTORE PUSH1 0x20 PUSH1 0x40 DUP4 ADD SWAP4 ADD SWAP1 PUSH1 0x0 JUMPDEST DUP2 DUP2 LT PUSH2 0x2E2E JUMPI PUSH32 0xF6B8CF4789B130B38FE88FBC6DB8BAF8120D8F060232F086490925A25737CE9E DUP5 DUP7 SUB DUP6 LOG1 STOP JUMPDEST DUP3 MLOAD DUP6 MSTORE PUSH1 0x20 SWAP5 DUP6 ADD SWAP5 SWAP1 SWAP3 ADD SWAP2 PUSH1 0x1 ADD PUSH2 0x2DFF JUMP JUMPDEST PUSH1 0x1 SWAP1 PUSH1 0x20 DUP5 MLOAD SWAP5 ADD SWAP4 DUP2 DUP5 ADD SSTORE ADD PUSH2 0x2DDB JUMP JUMPDEST PUSH2 0x2E70 SWAP1 DUP3 PUSH1 0x0 MSTORE DUP4 PUSH1 0x20 PUSH1 0x0 KECCAK256 SWAP2 DUP3 ADD SWAP2 ADD PUSH2 0x38D6 JUMP JUMPDEST DUP4 PUSH2 0x2DCA JUMP JUMPDEST PUSH4 0x4E487B71 PUSH1 0xE0 SHL PUSH1 0x0 MSTORE PUSH1 0x32 PUSH1 0x4 MSTORE PUSH1 0x24 PUSH1 0x0 REVERT JUMPDEST PUSH1 0x40 MLOAD PUSH3 0x461BCD PUSH1 0xE5 SHL DUP2 MSTORE PUSH1 0x20 PUSH1 0x4 DUP3 ADD MSTORE PUSH1 0x21 PUSH1 0x24 DUP3 ADD MSTORE PUSH32 0x4174206C65617374206F6E65206F666665722049442069732072657175697265 PUSH1 0x44 DUP3 ADD MSTORE PUSH1 0x19 PUSH1 0xFA SHL PUSH1 0x64 DUP3 ADD MSTORE PUSH1 0x84 SWAP1 REVERT JUMPDEST DUP2 CALLDATALOAD DUP2 MSTORE PUSH1 0x20 SWAP2 DUP3 ADD SWAP2 ADD PUSH2 0x283E JUMP JUMPDEST CALLVALUE PUSH2 0x362 JUMPI PUSH1 0x20 CALLDATASIZE PUSH1 0x3 NOT ADD SLT PUSH2 0x362 JUMPI PUSH1 0x4 CALLDATALOAD PUSH1 0x0 MSTORE PUSH1 0x3 PUSH1 0x20 MSTORE PUSH1 0x40 PUSH1 0x0 KECCAK256 DUP1 SLOAD PUSH2 0x1EA4 PUSH1 0x1 DUP1 PUSH1 0xA0 SHL SUB PUSH1 0x1 DUP5 ADD SLOAD AND SWAP3 PUSH1 0x2 DUP2 ADD SLOAD SWAP1 PUSH1 0x3 DUP2 ADD SLOAD PUSH2 0x2F36 PUSH1 0x4 DUP4 ADD PUSH2 0x3410 JUMP JUMPDEST PUSH2 0x2F42 PUSH1 0x5 DUP5 ADD PUSH2 0x3410 JUMP JUMPDEST PUSH1 0x6 DUP5 ADD SLOAD PUSH2 0x2F53 PUSH1 0x7 DUP7 ADD PUSH2 0x3410 JUMP JUMPDEST SWAP2 PUSH1 0xFF PUSH1 0x8 DUP8 ADD SLOAD AND SWAP4 PUSH1 0x9 DUP8 ADD SLOAD SWAP6 PUSH1 0xB PUSH1 0xA DUP10 ADD SLOAD SWAP9 ADD SLOAD SWAP9 PUSH1 0x40 MLOAD SWAP13 DUP14 SWAP13 DUP14 PUSH2 0x34FD JUMP JUMPDEST CALLVALUE PUSH2 0x362 JUMPI PUSH1 0x20 CALLDATASIZE PUSH1 0x3 NOT ADD SLT PUSH2 0x362 JUMPI PUSH1 0x20 PUSH2 0x1ED2 PUSH1 0x4 CALLDATALOAD PUSH2 0x3811 JUMP JUMPDEST CALLVALUE PUSH2 0x362 JUMPI PUSH1 0x20 DUP1 PUSH1 0x3 NOT CALLDATASIZE ADD SLT PUSH2 0x362 JUMPI PUSH1 0x4 CALLDATALOAD SWAP1 PUSH2 0x2FB6 PUSH2 0x39F8 JUMP JUMPDEST DUP2 ISZERO ISZERO DUP1 PUSH2 0x337A JUMPI JUMPDEST PUSH2 0x2FC8 SWAP1 PUSH2 0x365B JUMP JUMPDEST DUP2 PUSH1 0x0 MSTORE PUSH1 0x3 SWAP1 DUP2 DUP2 MSTORE PUSH1 0xFF SWAP2 PUSH1 0x8 SWAP1 DUP4 DUP3 PUSH1 0x40 PUSH1 0x0 KECCAK256 ADD SLOAD AND DUP3 DUP2 LT ISZERO PUSH2 0x58B JUMPI ISZERO DUP1 ISZERO PUSH2 0x3358 JUMPI JUMPDEST ISZERO PUSH2 0x3303 JUMPI DUP5 PUSH1 0x0 MSTORE DUP1 DUP4 MSTORE DUP4 DUP3 PUSH1 0x40 PUSH1 0x0 KECCAK256 ADD SLOAD AND DUP3 DUP2 LT ISZERO PUSH2 0x58B JUMPI PUSH1 0x5 EQ PUSH2 0x32A2 JUMPI DUP5 PUSH1 0x0 MSTORE DUP1 DUP4 MSTORE DUP4 DUP3 PUSH1 0x40 PUSH1 0x0 KECCAK256 ADD SLOAD AND DUP3 DUP2 LT ISZERO PUSH2 0x58B JUMPI DUP2 PUSH2 0x303C SWAP2 EQ ISZERO PUSH2 0x369E JUMP JUMPDEST PUSH1 0x0 SLOAD PUSH1 0x40 MLOAD PUSH4 0x3EA42DE3 PUSH1 0xE0 SHL DUP2 MSTORE PUSH1 0x1 PUSH1 0x1 PUSH1 0xA0 SHL SUB SWAP6 SWAP2 DUP6 SWAP1 DUP3 SWAP1 PUSH1 0x4 SWAP1 DUP3 SWAP1 DUP11 AND GAS STATICCALL DUP1 ISZERO PUSH2 0x356 JUMPI DUP7 SWAP2 PUSH1 0x0 SWAP2 PUSH2 0x3268 JUMPI JUMPDEST POP PUSH1 0x0 SWAP1 DUP9 DUP3 MSTORE DUP5 DUP8 MSTORE PUSH1 0x24 PUSH1 0x40 DUP4 KECCAK256 SLOAD PUSH1 0x40 MLOAD SWAP10 DUP11 SWAP4 DUP5 SWAP3 PUSH4 0x27DB25F1 PUSH1 0xE1 SHL DUP5 MSTORE PUSH1 0x4 DUP5 ADD MSTORE AND GAS STATICCALL SWAP6 DUP7 ISZERO PUSH2 0x356 JUMPI PUSH1 0x0 SWAP7 PUSH2 0x323C JUMPI JUMPDEST POP PUSH2 0x30D8 SWAP1 DUP8 PUSH1 0x0 MSTORE DUP4 DUP7 MSTORE PUSH1 0x1 SWAP7 DUP2 PUSH1 0x1 PUSH1 0x40 PUSH1 0x0 KECCAK256 ADD SLOAD AND CALLER EQ SWAP2 DUP3 ISZERO PUSH2 0x3230 JUMPI JUMPDEST POP POP PUSH2 0x37B4 JUMP JUMPDEST DUP6 PUSH1 0x0 MSTORE DUP2 DUP5 MSTORE PUSH2 0x30F1 DUP2 DUP5 PUSH1 0x40 PUSH1 0x0 KECCAK256 ADD SLOAD AND PUSH2 0x362A JUMP JUMPDEST PUSH1 0x4 PUSH1 0x0 MSTORE DUP5 MSTORE PUSH1 0x40 PUSH1 0x0 KECCAK256 SLOAD AND ISZERO PUSH2 0xBE1 JUMPI DUP5 PUSH1 0x0 MSTORE DUP3 MSTORE PUSH1 0x7 PUSH1 0x40 PUSH1 0x0 KECCAK256 SWAP2 DUP3 ADD SWAP2 PUSH1 0xFF NOT SWAP3 PUSH1 0x4 DUP5 DUP3 SLOAD AND OR SWAP1 SSTORE ADD SWAP2 PUSH1 0x40 MLOAD SWAP4 DUP2 DUP6 MSTORE PUSH1 0x0 SWAP4 DUP1 SLOAD PUSH2 0x3139 DUP2 PUSH2 0x3386 JUMP JUMPDEST SWAP5 DUP6 DUP6 DUP10 ADD MSTORE PUSH1 0x1 DUP3 AND SWAP2 DUP3 PUSH1 0x0 EQ PUSH2 0x31EA JUMPI POP POP PUSH1 0x1 EQ PUSH2 0x3191 JUMPI JUMPDEST DUP7 PUSH32 0xC742381126185889F1ED17E46BCED0266B422CDD0EE6E26D1CCAC51250FF63C6 DUP8 DUP8 SUB DUP9 LOG2 PUSH1 0x1 PUSH1 0x0 DUP1 MLOAD PUSH1 0x20 PUSH2 0x3A29 DUP4 CODECOPY DUP2 MLOAD SWAP2 MSTORE SSTORE STOP JUMPDEST PUSH1 0x0 SWAP1 DUP2 MSTORE DUP3 DUP2 KECCAK256 SWAP1 SWAP5 POP JUMPDEST DUP4 DUP6 LT PUSH2 0x31D6 JUMPI POP POP POP POP DUP2 ADD PUSH1 0x40 ADD DUP2 PUSH32 0xC742381126185889F1ED17E46BCED0266B422CDD0EE6E26D1CCAC51250FF63C6 DUP6 DUP1 PUSH2 0x3156 JUMP JUMPDEST DUP1 SLOAD DUP7 DUP7 ADD PUSH1 0x40 ADD MSTORE SWAP4 DUP3 ADD SWAP4 DUP2 ADD PUSH2 0x319D JUMP JUMPDEST SWAP2 POP SWAP2 POP DUP7 SWAP6 POP PUSH1 0x40 SWAP4 POP PUSH32 0xC742381126185889F1ED17E46BCED0266B422CDD0EE6E26D1CCAC51250FF63C6 SWAP7 SWAP5 SWAP3 POP AND DUP3 DUP5 ADD MSTORE ISZERO ISZERO PUSH1 0x5 SHL DUP3 ADD ADD SWAP2 SWAP3 DUP6 DUP1 PUSH2 0x3156 JUMP JUMPDEST AND CALLER EQ SWAP1 POP DUP9 DUP1 PUSH2 0x30D1 JUMP JUMPDEST PUSH2 0x30D8 SWAP2 SWAP7 POP PUSH2 0x3256 SWAP1 RETURNDATASIZE DUP1 PUSH1 0x0 DUP4 RETURNDATACOPY PUSH2 0x4F7 DUP2 DUP4 PUSH2 0x33EF JUMP JUMPDEST POP POP POP POP POP POP POP POP POP POP POP SWAP6 SWAP1 PUSH2 0x30AD JUMP JUMPDEST DUP1 SWAP3 POP DUP7 DUP1 SWAP3 POP RETURNDATASIZE DUP4 GT PUSH2 0x329B JUMPI JUMPDEST PUSH2 0x3281 DUP2 DUP4 PUSH2 0x33EF JUMP JUMPDEST DUP2 ADD SUB SLT PUSH2 0x362 JUMPI PUSH1 0x0 PUSH2 0x3295 DUP8 SWAP3 PUSH2 0x36E9 JUMP JUMPDEST SWAP1 PUSH2 0x3073 JUMP JUMPDEST POP RETURNDATASIZE PUSH2 0x3277 JUMP JUMPDEST PUSH1 0x40 MLOAD PUSH3 0x461BCD PUSH1 0xE5 SHL DUP2 MSTORE PUSH1 0x4 DUP2 ADD DUP5 SWAP1 MSTORE PUSH1 0x33 PUSH1 0x24 DUP3 ADD MSTORE PUSH32 0x54726164652063616E6E6F742062652063616E63656C6C656420696620697420 PUSH1 0x44 DUP3 ADD MSTORE PUSH19 0x1A5CC8185B1C9958591E48191A5CDC1D5D1959 PUSH1 0x6A SHL PUSH1 0x64 DUP3 ADD MSTORE PUSH1 0x84 SWAP1 REVERT JUMPDEST PUSH1 0x40 MLOAD PUSH3 0x461BCD PUSH1 0xE5 SHL DUP2 MSTORE PUSH1 0x4 DUP2 ADD DUP5 SWAP1 MSTORE PUSH1 0x27 PUSH1 0x24 DUP3 ADD MSTORE PUSH32 0x54726164652063616E6E6F742062652063616E63656C6C656420617420746869 PUSH1 0x44 DUP3 ADD MSTORE PUSH7 0x73207374616765 PUSH1 0xC8 SHL PUSH1 0x64 DUP3 ADD MSTORE PUSH1 0x84 SWAP1 REVERT JUMPDEST POP DUP5 PUSH1 0x0 MSTORE DUP1 DUP4 MSTORE DUP4 DUP3 PUSH1 0x40 PUSH1 0x0 KECCAK256 ADD SLOAD AND DUP3 DUP2 LT ISZERO PUSH2 0x58B JUMPI PUSH1 0x1 EQ PUSH2 0x2FF2 JUMP JUMPDEST POP PUSH1 0x2 SLOAD DUP3 GT ISZERO PUSH2 0x2FBF JUMP JUMPDEST SWAP1 PUSH1 0x1 DUP3 DUP2 SHR SWAP3 AND DUP1 ISZERO PUSH2 0x33B6 JUMPI JUMPDEST PUSH1 0x20 DUP4 LT EQ PUSH2 0x33A0 JUMPI JUMP JUMPDEST PUSH4 0x4E487B71 PUSH1 0xE0 SHL PUSH1 0x0 MSTORE PUSH1 0x22 PUSH1 0x4 MSTORE PUSH1 0x24 PUSH1 0x0 REVERT JUMPDEST SWAP2 PUSH1 0x7F AND SWAP2 PUSH2 0x3395 JUMP JUMPDEST PUSH1 0x1 PUSH1 0x1 PUSH1 0x40 SHL SUB DUP2 GT PUSH2 0x2C08 JUMPI PUSH1 0x40 MSTORE JUMP JUMPDEST PUSH2 0x180 DUP2 ADD SWAP1 DUP2 LT PUSH1 0x1 PUSH1 0x1 PUSH1 0x40 SHL SUB DUP3 GT OR PUSH2 0x2C08 JUMPI PUSH1 0x40 MSTORE JUMP JUMPDEST SWAP1 PUSH1 0x1F DUP1 NOT SWAP2 ADD AND DUP2 ADD SWAP1 DUP2 LT PUSH1 0x1 PUSH1 0x1 PUSH1 0x40 SHL SUB DUP3 GT OR PUSH2 0x2C08 JUMPI PUSH1 0x40 MSTORE JUMP JUMPDEST SWAP1 PUSH1 0x40 MLOAD SWAP2 DUP3 PUSH1 0x0 DUP3 SLOAD PUSH2 0x3423 DUP2 PUSH2 0x3386 JUMP JUMPDEST SWAP1 DUP2 DUP5 MSTORE PUSH1 0x20 SWAP5 PUSH1 0x1 SWAP2 PUSH1 0x1 DUP2 AND SWAP1 DUP2 PUSH1 0x0 EQ PUSH2 0x3493 JUMPI POP PUSH1 0x1 EQ PUSH2 0x3454 JUMPI JUMPDEST POP POP POP PUSH2 0x3452 SWAP3 POP SUB DUP4 PUSH2 0x33EF JUMP JUMPDEST JUMP JUMPDEST PUSH1 0x0 SWAP1 DUP2 MSTORE DUP6 DUP2 KECCAK256 SWAP6 SWAP4 POP SWAP2 SWAP1 JUMPDEST DUP2 DUP4 LT PUSH2 0x347B JUMPI POP POP PUSH2 0x3452 SWAP4 POP DUP3 ADD ADD CODESIZE DUP1 DUP1 PUSH2 0x3443 JUMP JUMPDEST DUP6 SLOAD DUP9 DUP5 ADD DUP6 ADD MSTORE SWAP5 DUP6 ADD SWAP5 DUP8 SWAP5 POP SWAP2 DUP4 ADD SWAP2 PUSH2 0x3462 JUMP JUMPDEST SWAP3 POP POP POP PUSH2 0x3452 SWAP5 SWAP3 POP PUSH1 0xFF NOT AND DUP3 DUP5 ADD MSTORE ISZERO ISZERO PUSH1 0x5 SHL DUP3 ADD ADD CODESIZE DUP1 DUP1 PUSH2 0x3443 JUMP JUMPDEST PUSH1 0x0 JUMPDEST DUP4 DUP2 LT PUSH2 0x34C8 JUMPI POP POP PUSH1 0x0 SWAP2 ADD MSTORE JUMP JUMPDEST DUP2 DUP2 ADD MLOAD DUP4 DUP3 ADD MSTORE PUSH1 0x20 ADD PUSH2 0x34B8 JUMP JUMPDEST SWAP1 PUSH1 0x20 SWAP2 PUSH2 0x34F1 DUP2 MLOAD DUP1 SWAP3 DUP2 DUP6 MSTORE DUP6 DUP1 DUP7 ADD SWAP2 ADD PUSH2 0x34B5 JUMP JUMPDEST PUSH1 0x1F ADD PUSH1 0x1F NOT AND ADD ADD SWAP1 JUMP JUMPDEST SWAP9 SWAP10 SWAP13 SWAP12 SWAP11 SWAP8 SWAP5 SWAP1 PUSH2 0x354C SWAP5 PUSH2 0x355F SWAP9 SWAP8 SWAP5 PUSH2 0x353E SWAP5 PUSH2 0x180 SWAP4 DUP14 MSTORE PUSH1 0x1 DUP1 PUSH1 0xA0 SHL SUB AND PUSH1 0x20 DUP14 ADD MSTORE PUSH1 0x40 DUP13 ADD MSTORE PUSH1 0x60 DUP12 ADD MSTORE DUP1 PUSH1 0x80 DUP12 ADD MSTORE DUP10 ADD SWAP1 PUSH2 0x34D8 JUMP JUMPDEST SWAP1 DUP8 DUP3 SUB PUSH1 0xA0 DUP10 ADD MSTORE PUSH2 0x34D8 JUMP JUMPDEST SWAP2 PUSH1 0xC0 DUP7 ADD MSTORE DUP5 DUP3 SUB PUSH1 0xE0 DUP7 ADD MSTORE PUSH2 0x34D8 JUMP JUMPDEST SWAP6 PUSH1 0x8 DUP5 LT ISZERO PUSH2 0x58B JUMPI PUSH2 0x160 SWAP4 PUSH2 0x100 DUP5 ADD MSTORE PUSH2 0x120 DUP4 ADD MSTORE PUSH2 0x140 DUP3 ADD MSTORE ADD MSTORE JUMP JUMPDEST PUSH1 0x1 PUSH1 0x1 PUSH1 0x40 SHL SUB DUP2 GT PUSH2 0x2C08 JUMPI PUSH1 0x5 SHL PUSH1 0x20 ADD SWAP1 JUMP JUMPDEST PUSH1 0x1 PUSH1 0x1 PUSH1 0x40 SHL SUB DUP2 GT PUSH2 0x2C08 JUMPI PUSH1 0x1F ADD PUSH1 0x1F NOT AND PUSH1 0x20 ADD SWAP1 JUMP JUMPDEST DUP2 PUSH1 0x1F DUP3 ADD SLT ISZERO PUSH2 0x362 JUMPI DUP1 CALLDATALOAD SWAP1 PUSH2 0x35CC DUP3 PUSH2 0x359A JUMP JUMPDEST SWAP3 PUSH2 0x35DA PUSH1 0x40 MLOAD SWAP5 DUP6 PUSH2 0x33EF JUMP JUMPDEST DUP3 DUP5 MSTORE PUSH1 0x20 DUP4 DUP4 ADD ADD GT PUSH2 0x362 JUMPI DUP2 PUSH1 0x0 SWAP3 PUSH1 0x20 DUP1 SWAP4 ADD DUP4 DUP7 ADD CALLDATACOPY DUP4 ADD ADD MSTORE SWAP1 JUMP JUMPDEST PUSH1 0x4 CALLDATALOAD SWAP1 PUSH1 0x1 PUSH1 0x1 PUSH1 0xA0 SHL SUB DUP3 AND DUP3 SUB PUSH2 0x362 JUMPI JUMP JUMPDEST DUP1 SLOAD DUP3 LT ISZERO PUSH2 0x2E76 JUMPI PUSH1 0x0 MSTORE PUSH1 0x20 PUSH1 0x0 KECCAK256 ADD SWAP1 PUSH1 0x0 SWAP1 JUMP JUMPDEST PUSH1 0x8 DUP2 LT ISZERO PUSH2 0x58B JUMPI PUSH1 0x0 MSTORE PUSH1 0x4 PUSH1 0x20 MSTORE PUSH1 0x40 PUSH1 0x0 KECCAK256 SWAP1 JUMP JUMPDEST SWAP1 PUSH1 0x8 DUP2 LT ISZERO PUSH2 0x58B JUMPI PUSH1 0x0 MSTORE PUSH1 0x20 MSTORE PUSH1 0x40 PUSH1 0x0 KECCAK256 SWAP1 JUMP JUMPDEST ISZERO PUSH2 0x3662 JUMPI JUMP JUMPDEST PUSH1 0x40 MLOAD PUSH3 0x461BCD PUSH1 0xE5 SHL DUP2 MSTORE PUSH1 0x20 PUSH1 0x4 DUP3 ADD MSTORE PUSH1 0x14 PUSH1 0x24 DUP3 ADD MSTORE PUSH20 0x151C98591948191BD95CC81B9BDD08195E1A5CDD PUSH1 0x62 SHL PUSH1 0x44 DUP3 ADD MSTORE PUSH1 0x64 SWAP1 REVERT JUMPDEST ISZERO PUSH2 0x36A5 JUMPI JUMP JUMPDEST PUSH1 0x64 PUSH1 0x40 MLOAD PUSH3 0x461BCD PUSH1 0xE5 SHL DUP2 MSTORE PUSH1 0x20 PUSH1 0x4 DUP3 ADD MSTORE PUSH1 0x20 PUSH1 0x24 DUP3 ADD MSTORE PUSH32 0x54726164652068617320616C7265616479206265656E2066696E616C697A6564 PUSH1 0x44 DUP3 ADD MSTORE REVERT JUMPDEST MLOAD SWAP1 PUSH1 0x1 PUSH1 0x1 PUSH1 0xA0 SHL SUB DUP3 AND DUP3 SUB PUSH2 0x362 JUMPI JUMP JUMPDEST PUSH2 0x180 DUP2 DUP4 SUB SLT PUSH2 0x362 JUMPI PUSH2 0x3711 DUP2 PUSH2 0x36E9 JUMP JUMPDEST SWAP3 PUSH1 0x20 DUP3 ADD MLOAD SWAP3 PUSH1 0x40 DUP4 ADD MLOAD SWAP3 PUSH1 0x60 DUP2 ADD MLOAD SWAP3 PUSH1 0x80 DUP3 ADD MLOAD SWAP3 PUSH1 0xA0 DUP4 ADD MLOAD SWAP3 PUSH1 0xC0 DUP2 ADD MLOAD SWAP3 PUSH1 0xE0 DUP3 ADD MLOAD SWAP3 PUSH2 0x100 DUP4 ADD MLOAD PUSH1 0x1 PUSH1 0x1 PUSH1 0x40 SHL SUB DUP2 GT PUSH2 0x362 JUMPI DUP4 ADD DUP2 PUSH1 0x1F DUP3 ADD SLT ISZERO PUSH2 0x362 JUMPI DUP1 MLOAD PUSH2 0x3768 DUP2 PUSH2 0x359A JUMP JUMPDEST SWAP3 PUSH2 0x3776 PUSH1 0x40 MLOAD SWAP5 DUP6 PUSH2 0x33EF JUMP JUMPDEST DUP2 DUP5 MSTORE PUSH1 0x20 DUP3 DUP5 ADD ADD GT PUSH2 0x362 JUMPI PUSH2 0x3794 SWAP2 PUSH1 0x20 DUP1 DUP6 ADD SWAP2 ADD PUSH2 0x34B5 JUMP JUMPDEST SWAP2 PUSH2 0x120 DUP2 ADD MLOAD DUP1 ISZERO ISZERO DUP2 SUB PUSH2 0x362 JUMPI SWAP2 PUSH2 0x160 PUSH2 0x140 DUP4 ADD MLOAD SWAP3 ADD MLOAD SWAP1 JUMP JUMPDEST ISZERO PUSH2 0x37BB JUMPI JUMP JUMPDEST PUSH1 0x40 MLOAD PUSH3 0x461BCD PUSH1 0xE5 SHL DUP2 MSTORE PUSH1 0x20 PUSH1 0x4 DUP3 ADD MSTORE PUSH1 0x28 PUSH1 0x24 DUP3 ADD MSTORE PUSH32 0x4F6E6C7920747261646520706172746965732063616E20646973707574652074 PUSH1 0x44 DUP3 ADD MSTORE PUSH8 0x6865207472616465 PUSH1 0xC0 SHL PUSH1 0x64 DUP3 ADD MSTORE PUSH1 0x84 SWAP1 REVERT JUMPDEST PUSH1 0x0 SWAP1 DUP1 PUSH1 0x0 MSTORE PUSH1 0x7 PUSH1 0x20 MSTORE PUSH1 0x40 PUSH1 0x0 KECCAK256 SWAP1 DUP2 SLOAD SWAP2 PUSH1 0x1 SWAP4 PUSH1 0x1 DUP5 GT PUSH2 0x383C JUMPI JUMPDEST POP POP POP POP POP PUSH1 0x0 SWAP1 JUMP JUMPDEST PUSH1 0x1 JUMPDEST DUP5 DUP2 LT PUSH2 0x384C JUMPI POP PUSH2 0x3832 JUMP JUMPDEST DUP4 PUSH2 0x3857 DUP3 DUP6 PUSH2 0x3612 JUMP JUMPDEST SWAP2 SWAP1 SLOAD PUSH1 0x3 SWAP3 DUP4 SHL SHR EQ PUSH2 0x386D JUMPI POP DUP6 ADD PUSH2 0x383F JUMP JUMPDEST SWAP6 POP PUSH1 0x0 NOT DUP2 ADD SWAP5 POP SWAP2 SWAP3 POP SWAP1 DUP4 GT PUSH2 0x3893 JUMPI POP SWAP1 PUSH2 0x388B SWAP2 PUSH2 0x3612 JUMP JUMPDEST SWAP1 SLOAD SWAP2 SHL SHR SWAP1 JUMP JUMPDEST PUSH4 0x4E487B71 PUSH1 0xE0 SHL DUP2 MSTORE PUSH1 0x11 PUSH1 0x4 MSTORE PUSH1 0x24 SWAP1 REVERT JUMPDEST DUP1 MLOAD DUP3 LT ISZERO PUSH2 0x2E76 JUMPI PUSH1 0x20 SWAP2 PUSH1 0x5 SHL ADD ADD SWAP1 JUMP JUMPDEST PUSH1 0x0 NOT DUP2 EQ PUSH2 0x886 JUMPI PUSH1 0x1 ADD SWAP1 JUMP JUMPDEST PUSH1 0x8 DUP3 LT ISZERO PUSH2 0x58B JUMPI MSTORE JUMP JUMPDEST DUP2 DUP2 LT PUSH2 0x38E1 JUMPI POP POP JUMP JUMPDEST PUSH1 0x0 DUP2 SSTORE PUSH1 0x1 ADD PUSH2 0x38D6 JUMP JUMPDEST SWAP1 PUSH1 0x8 DUP2 LT ISZERO PUSH2 0x58B JUMPI PUSH1 0xFF DUP1 NOT DUP4 SLOAD AND SWAP2 AND OR SWAP1 SSTORE JUMP JUMPDEST ISZERO PUSH2 0x390C JUMPI JUMP JUMPDEST PUSH1 0x40 MLOAD PUSH3 0x461BCD PUSH1 0xE5 SHL DUP2 MSTORE PUSH1 0x20 PUSH1 0x4 DUP3 ADD MSTORE PUSH1 0x1F PUSH1 0x24 DUP3 ADD MSTORE PUSH32 0x5472616465206973206E6F7420696E2061636365707465642073746174757300 PUSH1 0x44 DUP3 ADD MSTORE PUSH1 0x64 SWAP1 REVERT JUMPDEST PUSH1 0x0 SWAP1 DUP1 DUP3 MSTORE PUSH1 0x7 PUSH1 0x20 MSTORE PUSH1 0x40 DUP3 KECCAK256 SWAP1 DUP2 SLOAD SWAP1 PUSH1 0x1 SWAP3 PUSH1 0x1 DUP4 GT PUSH2 0x3977 JUMPI JUMPDEST POP POP POP POP SWAP1 JUMP JUMPDEST DUP5 SWAP4 SWAP3 PUSH1 0x0 NOT DUP2 ADD SWAP1 DUP2 GT DUP5 JUMPDEST PUSH2 0x3993 JUMPI JUMPDEST POP POP DUP4 SWAP5 POP PUSH2 0x3970 JUMP JUMPDEST DUP1 PUSH2 0x39E4 JUMPI DUP2 DUP8 LT ISZERO PUSH2 0x39DF JUMPI DUP4 PUSH2 0x39AB DUP9 DUP6 PUSH2 0x3612 JUMP JUMPDEST SWAP2 SWAP1 SLOAD PUSH1 0x3 SWAP3 DUP4 SHL SHR EQ PUSH2 0x39C4 JUMPI POP SWAP6 DUP5 ADD SWAP6 DUP5 PUSH2 0x3984 JUMP JUMPDEST SWAP7 SWAP6 SWAP4 POP POP POP SWAP2 DUP4 ADD DUP1 SWAP4 GT PUSH2 0x3893 JUMPI POP SWAP1 PUSH2 0x388B SWAP2 PUSH2 0x3612 JUMP JUMPDEST PUSH2 0x3989 JUMP JUMPDEST PUSH4 0x4E487B71 PUSH1 0xE0 SHL DUP7 MSTORE PUSH1 0x11 PUSH1 0x4 MSTORE PUSH1 0x24 DUP7 REVERT JUMPDEST PUSH1 0x0 DUP1 MLOAD PUSH1 0x20 PUSH2 0x3A29 DUP4 CODECOPY DUP2 MLOAD SWAP2 MSTORE PUSH1 0x2 DUP2 SLOAD EQ PUSH2 0x3A16 JUMPI PUSH1 0x2 SWAP1 SSTORE JUMP JUMPDEST PUSH1 0x40 MLOAD PUSH4 0x3EE5AEB5 PUSH1 0xE0 SHL DUP2 MSTORE PUSH1 0x4 SWAP1 REVERT INVALID SWAP12 PUSH24 0x9B17422D0DF92223018B32B4D1FA46E071723D6817E2486D STOP EXTCODESIZE 0xEC 0xC5 PUSH0 STOP LOG2 PUSH5 0x6970667358 0x22 SLT KECCAK256 NUMBER MLOAD SWAP9 PUSH9 0xF94FD8615218EAC44A 0xAB GASLIMIT DUP3 0xE1 MCOPY 0xB4 ORIGIN 0xBB 0x28 JUMPDEST 0xE4 PUSH30 0x82D8B2A8408CA164736F6C63430008180033000000000000000000000000 "},"methodIdentifiers":{"acceptTrade(uint256)":"ecb9fec3","admins(address)":"429b62e5","cancelTrade(uint256)":"09ec6cc7","disputeTrade(uint256)":"8ba9f708","finalizeTrade(uint256)":"d58c71a5","getNextTradeInSequence(uint256)":"5741f734","getPreviousTradeInSequence(uint256)":"12ea634c","getTradeCounts()":"ded0bfbf","getTradeDetails(uint256)":"695730a5","getTradeMaker(uint256)":"5395db68","initiateTrade(uint256[],uint256,uint256,string,string,uint256,string)":"40ebdad6","lockCryptoInEscrow(uint256)":"491719e5","owner()":"8da5cb5b","rateTrade(uint256,uint256,string)":"8a2829e7","refundTrade(uint256)":"b4195c47","registry()":"7b103999","setAdmin(address,bool)":"4b0bddd2","setInitialAdmins(address[])":"92479507","timeoutTrade(uint256)":"d684d5b1","tradeCount()":"bd55022a","tradeMarkFiatPaid(uint256)":"419f778a","tradeRatings(uint256,address)":"5046fddd","tradeSequence(uint256,uint256)":"7f002e81","trades(uint256)":"1e6c598e","updateTradeStatusFromArbitration(uint256,uint8)":"88a2976e","validTransitions(uint8,uint8)":"a5350ea6"}}}}}