{"contracts/Offer.sol":{"Offer":{"abi":[{"inputs":[{"internalType":"address","name":"_registryAddress","type":"address"}],"stateMutability":"nonpayable","type":"constructor"},{"anonymous":false,"inputs":[],"name":"ContractPaused","type":"event"},{"anonymous":false,"inputs":[],"name":"ContractUnpaused","type":"event"},{"anonymous":false,"inputs":[{"indexed":true,"internalType":"uint256","name":"offerId","type":"uint256"}],"name":"OfferActivated","type":"event"},{"anonymous":false,"inputs":[{"indexed":true,"internalType":"uint256","name":"offerId","type":"uint256"},{"indexed":true,"internalType":"address","name":"offerOwner","type":"address"},{"indexed":false,"internalType":"uint256","name":"minTradeAmount","type":"uint256"},{"indexed":false,"internalType":"uint256","name":"maxTradeAmount","type":"uint256"},{"indexed":false,"internalType":"string","name":"fiatCurrency","type":"string"},{"indexed":false,"internalType":"enum Offer.OfferStatus","name":"status","type":"uint8"}],"name":"OfferCreated","type":"event"},{"anonymous":false,"inputs":[{"indexed":true,"internalType":"uint256","name":"offerId","type":"uint256"},{"indexed":false,"internalType":"uint256","name":"disputeId","type":"uint256"}],"name":"OfferDisputeInvolved","type":"event"},{"anonymous":false,"inputs":[{"indexed":true,"internalType":"uint256","name":"offerId","type":"uint256"},{"indexed":false,"internalType":"uint256","name":"disputeId","type":"uint256"}],"name":"OfferDisputeLost","type":"event"},{"anonymous":false,"inputs":[{"indexed":true,"internalType":"uint256","name":"offerId","type":"uint256"},{"indexed":false,"internalType":"uint256","name":"minAmount","type":"uint256"},{"indexed":false,"internalType":"uint256","name":"maxAmount","type":"uint256"}],"name":"OfferMinMaxTradeAmountsChanged","type":"event"},{"anonymous":false,"inputs":[{"indexed":true,"internalType":"uint256","name":"offerId","type":"uint256"}],"name":"OfferPaused","type":"event"},{"anonymous":false,"inputs":[{"indexed":true,"internalType":"uint256","name":"offerId","type":"uint256"}],"name":"OfferStatsUpdated","type":"event"},{"anonymous":false,"inputs":[{"indexed":true,"internalType":"uint256","name":"offerId","type":"uint256"}],"name":"OfferTradeAccepted","type":"event"},{"anonymous":false,"inputs":[{"indexed":true,"internalType":"uint256","name":"offerId","type":"uint256"},{"indexed":false,"internalType":"uint256","name":"tradeVolume","type":"uint256"}],"name":"OfferTradeCompleted","type":"event"},{"anonymous":false,"inputs":[{"indexed":true,"internalType":"uint256","name":"offerId","type":"uint256"},{"indexed":false,"internalType":"uint256","name":"minTradeAmount","type":"uint256"},{"indexed":false,"internalType":"uint256","name":"maxTradeAmount","type":"uint256"},{"indexed":false,"internalType":"enum Offer.OfferStatus","name":"status","type":"uint8"}],"name":"OfferUpdated","type":"event"},{"anonymous":false,"inputs":[{"indexed":true,"internalType":"uint256","name":"offerId","type":"uint256"}],"name":"OfferWithdrawn","type":"event"},{"anonymous":false,"inputs":[{"indexed":true,"internalType":"address","name":"previousOwner","type":"address"},{"indexed":true,"internalType":"address","name":"newOwner","type":"address"}],"name":"OwnershipTransferred","type":"event"},{"inputs":[],"name":"getOfferCounts","outputs":[{"internalType":"uint256","name":"","type":"uint256"},{"internalType":"uint256","name":"","type":"uint256"},{"internalType":"uint256","name":"","type":"uint256"},{"internalType":"uint256","name":"","type":"uint256"}],"stateMutability":"view","type":"function"},{"inputs":[{"internalType":"uint256","name":"_offerId","type":"uint256"}],"name":"getOfferDetails","outputs":[{"internalType":"address","name":"","type":"address"},{"internalType":"uint256","name":"","type":"uint256"},{"internalType":"uint256","name":"","type":"uint256"},{"internalType":"uint256","name":"","type":"uint256"},{"internalType":"uint256","name":"","type":"uint256"},{"internalType":"uint256","name":"","type":"uint256"},{"internalType":"uint256","name":"","type":"uint256"},{"internalType":"uint256","name":"","type":"uint256"},{"internalType":"string","name":"","type":"string"},{"internalType":"bool","name":"","type":"bool"},{"internalType":"uint256","name":"","type":"uint256"},{"internalType":"uint256","name":"","type":"uint256"}],"stateMutability":"view","type":"function"},{"inputs":[{"internalType":"address","name":"_user","type":"address"}],"name":"getUserOffers","outputs":[{"internalType":"uint256[]","name":"","type":"uint256[]"}],"stateMutability":"view","type":"function"},{"inputs":[],"name":"offerCount","outputs":[{"internalType":"uint256","name":"","type":"uint256"}],"stateMutability":"view","type":"function"},{"inputs":[{"internalType":"uint256","name":"_minTradeAmount","type":"uint256"},{"internalType":"uint256","name":"_maxTradeAmount","type":"uint256"},{"internalType":"string","name":"_fiatCurrency","type":"string"}],"name":"offerCreate","outputs":[],"stateMutability":"nonpayable","type":"function"},{"inputs":[{"internalType":"uint256","name":"","type":"uint256"},{"internalType":"uint256","name":"","type":"uint256"}],"name":"offerDisputeCounted","outputs":[{"internalType":"bool","name":"","type":"bool"}],"stateMutability":"view","type":"function"},{"inputs":[{"internalType":"address","name":"","type":"address"},{"internalType":"bytes32","name":"","type":"bytes32"}],"name":"offerParametersUsed","outputs":[{"internalType":"bool","name":"","type":"bool"}],"stateMutability":"view","type":"function"},{"inputs":[{"internalType":"uint256","name":"_offerId","type":"uint256"},{"internalType":"uint256","name":"_minTradeAmount","type":"uint256"},{"internalType":"uint256","name":"_maxTradeAmount","type":"uint256"},{"internalType":"enum Offer.OfferStatus","name":"_status","type":"uint8"}],"name":"offerUpdateOffer","outputs":[],"stateMutability":"nonpayable","type":"function"},{"inputs":[{"internalType":"uint256","name":"","type":"uint256"}],"name":"offers","outputs":[{"internalType":"address","name":"offerOwner","type":"address"},{"internalType":"uint256","name":"offerTotalTradesAccepted","type":"uint256"},{"internalType":"uint256","name":"offerTotalTradesCompleted","type":"uint256"},{"internalType":"uint256","name":"offerDisputesInvolved","type":"uint256"},{"internalType":"uint256","name":"offerDisputesLost","type":"uint256"},{"internalType":"uint256","name":"offerAverageTradeVolume","type":"uint256"},{"internalType":"uint256","name":"offerMinTradeAmount","type":"uint256"},{"internalType":"uint256","name":"offerMaxTradeAmount","type":"uint256"},{"internalType":"string","name":"offerFiatCurrency","type":"string"},{"internalType":"enum Offer.OfferStatus","name":"offerStatus","type":"uint8"},{"internalType":"uint256","name":"offerCreatedTime","type":"uint256"},{"internalType":"uint256","name":"offerLastUpdatedTime","type":"uint256"}],"stateMutability":"view","type":"function"},{"inputs":[],"name":"owner","outputs":[{"internalType":"address","name":"","type":"address"}],"stateMutability":"view","type":"function"},{"inputs":[],"name":"pauseContract","outputs":[],"stateMutability":"nonpayable","type":"function"},{"inputs":[],"name":"paused","outputs":[{"internalType":"bool","name":"","type":"bool"}],"stateMutability":"view","type":"function"},{"inputs":[],"name":"registry","outputs":[{"internalType":"contract ContractRegistry","name":"","type":"address"}],"stateMutability":"view","type":"function"},{"inputs":[{"internalType":"address","name":"_newOwner","type":"address"}],"name":"transferOwnership","outputs":[],"stateMutability":"nonpayable","type":"function"},{"inputs":[],"name":"unpauseContract","outputs":[],"stateMutability":"nonpayable","type":"function"},{"inputs":[{"internalType":"uint256","name":"_offerId","type":"uint256"},{"internalType":"uint256","name":"_tradeVolume","type":"uint256"},{"internalType":"bool","name":"_accepted","type":"bool"},{"internalType":"bool","name":"_completed","type":"bool"},{"internalType":"bool","name":"_disputed","type":"bool"},{"internalType":"bool","name":"_lost","type":"bool"},{"internalType":"uint256","name":"_disputeId","type":"uint256"}],"name":"updateOfferStats","outputs":[],"stateMutability":"nonpayable","type":"function"},{"inputs":[{"internalType":"address","name":"","type":"address"},{"internalType":"uint256","name":"","type":"uint256"}],"name":"userOffers","outputs":[{"internalType":"uint256","name":"","type":"uint256"}],"stateMutability":"view","type":"function"}],"evm":{"bytecode":{"linkReferences":{},"object":"6080346100c457601f61178c38819003918201601f19168301916001600160401b038311848410176100c9578084926020946040528339810103126100c457516001600160a01b038116908190036100c45780156100805760018060a01b03193381600054161760005560015416176001556040516116ac90816100e08239f35b606460405162461bcd60e51b815260206004820152602060248201527f496e76616c696420436f6e7472616374526567697374727920616464726573736044820152fd5b600080fd5b634e487b7160e01b600052604160045260246000fdfe6080604052600436101561001257600080fd5b60003560e01c806310bcb2e2146112785780631115c24d1461125a578063261d810214611032578063439766ce14610f825780634fb64be214610e155780635c975abb14610def578063661d2c2c14610d3b5780636862a30d14610cfc5780636f086d3a146108365780637b1039991461080d5780638a72ea6a1461073a5780638da5cb5b14610711578063b33712c51461066d578063bd5fec6514610615578063d9efb457146101e0578063e7c84dee146101935763f2fde38b146100d757600080fd5b3461018e57602036600319011261018e576100f0611389565b6000546001600160a01b038082169261010a3385146115d1565b169182156101495782907f8be0079c531659141344cd1fd0a4f28419497f9722a3daafe3b4186f6b6457e0600080a36001600160a01b03191617600055005b60405162461bcd60e51b815260206004820152601960248201527f496e76616c6964206e6577206f776e65722061646472657373000000000000006044820152606490fd5b600080fd5b3461018e57604036600319011261018e576001600160a01b036101b4611389565b1660005260066020526040600020602435600052602052602060ff604060002054166040519015158152f35b3461018e5760e036600319011261018e5760246004356044358235811515820361018e57606435801515810361018e5760843590811515820361018e5760a43590811515820361018e5760c4359186151580610609575b6102409061152a565b61025260ff60005460a01c1615611635565b60018060a01b0393600195858754169560405180976324ed653d60e11b825281600460209a8b935afa9081156105fd576000916105c7575b5016330361056f5784156105365788600052600386526040600020936000986104f8575b610416575b508798508097959697906103f3575b61038e575b8061036b575b610304575b50505050506102dd57005b7fd66b67374d1f0cfe2efd9e7c89fbe05eab80e430747d044742774ec81a700721600080a2005b7f1974caaa56f2396b7a1eeec15c7637b135dff85ae0a1bad43e7f14cd03317dae9394955060040161033681546114f8565b90558360005260058252604060002081600052825260406000208560ff19825416179055604051908152a282828180806102d2565b508360005260058352604060002082600052835260ff60406000205416156102cd565b95506003810161039e81546114f8565b90558360005260058352604060002082600052835260406000208560ff19825416179055837fd86f9dd1c77d777f69bde5be40f3c0a44f83a19822ec9f1d01706d627b1a649584604051858152a284956102c7565b508460005260058452604060002083600052845260ff60406000205416156102c2565b90965060028301908661042983546114f8565b8084558a7f6510c4115e936f9940135bbcf97d3e4ef247410d1d0b00d0ca466d80d8a5c7fd89604051868152a211156104e557600584019182549054916000198301918383116104d0578281029281840414901517156104bb5761048c9161151d565b81156104a657899a50989697980490555b859496896102b3565b8a634e487b7160e01b60005260126004526000fd5b8b634e487b7160e01b60005260116004526000fd5b8c634e487b7160e01b60005260116004526000fd5b905087985060058398969798015561049d565b975086840161050781546114f8565b9055887f7c9e0b0754047e1ead631140358526ca151225070ab023c5dc9a68f77f77e774600080a286976102ae565b60405162461bcd60e51b8152600481018790526012818c015271125b9d985b1a5908191a5cdc1d5d1948125160721b6044820152606490fd5b60405162461bcd60e51b815260048101879052602b818c01527f4f6e6c7920547261646520636f6e74726163742063616e20706572666f726d2060448201526a3a3434b99030b1ba34b7b760a91b6064820152608490fd5b90508781813d83116105f6575b6105de81836113bc565b8101031261018e5751818116810361018e578c61028a565b503d6105d4565b6040513d6000823e3d90fd5b50600254871115610237565b3461018e57604036600319011261018e5761062e611389565b6001600160a01b031660009081526004602052604090208054602435919082101561018e5760209161065f916114ca565b90546040519160031b1c8152f35b3461018e57600036600319011261018e57600054610695336001600160a01b038316146115d1565b60ff8160a01c16156106d35760ff60a01b191660009081557f0e5e3b3fb504c22cf5c42fa07d521225937514c654007e1f12646f89768d6f949080a1005b60405162461bcd60e51b815260206004820152601660248201527510dbdb9d1c9858dd081a5cc81b9bdd081c185d5cd95960521b6044820152606490fd5b3461018e57600036600319011261018e576000546040516001600160a01b039091168152602090f35b3461018e57602036600319011261018e57600435600052600360205260408060002060018060a01b038154166001820154916002810154906107fd6107f1600383015494600484015490600585015460068601546007870154916107a060088901611418565b9460ff60098a0154169a600b600a8b01549a01549a8e519e8f9e8f906101809982526020820152015260608d015260808c015260a08b015260c08a015260e089015280610100890152870190611364565b936101208601906114bd565b6101408401526101608301520390f35b3461018e57600036600319011261018e576001546040516001600160a01b039091168152602090f35b3461018e57606036600319011261018e5760443567ffffffffffffffff811161018e573660238201121561018e5780600401359067ffffffffffffffff8211610b855760405191610891601f8201601f1916602001846113bc565b8083526020830191366024838301011161018e57816000926024602093018537840101526108c760ff60005460a01c1615611635565b6108d7602435600435111561156d565b815115610cb75760405161092260748260208101943360601b8652600435603483015260243560548301526109128751809285850190611341565b81010360548101845201826113bc565b51902033600052600660205260406000208160005260205260ff60406000205416610c72573360005260066020526040600020906000526020526040600020600160ff198254161790556109776002546114f8565b9081600255604051916109898361139f565b33835260006020840152600060408401526000606084015260006080840152600060a084015260043560c084015260243560e084015281610100840152600061012084015242610140840152426101608401526000526003602052604060002060018060a01b038351166bffffffffffffffffffffffff60a01b8254161781556020830151600182015560408301516002820155606083015160038201556080830151600482015560a0830151600582015560c0830151600682015560e0830151600782015561010083015192835167ffffffffffffffff8111610b8557610a7460088401546113de565b601f8111610c2b575b506020601f8211600114610bbc578192939495600092610bb1575b50508160011b916000199060031b1c19161760088301555b6101208101516003811015610b9b57600b91610ad261016092600986016115b9565b610140810151600a8501550151910155336000526004602052604060002060025490805468010000000000000000811015610b8557610b16916001820181556114ca565b819291549060031b91821b91600019901b19161790556002547f4ff5427640a489b1309586ab0601b3a3efe935b24a10675c05b4c967c67e1af5610b756040519360043585526024356020860152608060408601526080850190611364565b92600060608201528033940390a3005b634e487b7160e01b600052604160045260246000fd5b634e487b7160e01b600052602160045260246000fd5b015190508580610a98565b6008840160005260206000209060005b601f1984168110610c13575060019394959683601f19811610610bfa575b505050811b016008830155610ab0565b015160001960f88460031b161c19169055858080610bea565b9091602060018192858b015181550193019101610bcc565b600884016000526020600020601f830160051c810160208410610c6b575b601f830160051c82018110610c5f575050610a7d565b60008155600101610c49565b5080610c49565b60405162461bcd60e51b815260206004820152601a60248201527f4475706c6963617465206f6666657220706172616d65746572730000000000006044820152606490fd5b60405162461bcd60e51b815260206004820152601d60248201527f466961742063757272656e63792063616e6e6f7420626520656d7074790000006044820152606490fd5b3461018e57604036600319011261018e5760043560005260056020526040600020602435600052602052602060ff604060002054166040519015158152f35b3461018e5760208060031936011261018e576001600160a01b03610d5d611389565b1660005260048152604060002060405190818382549182815201908192600052846000209060005b86828210610ddb578686610d9b828803836113bc565b604051928392818401908285525180915260408401929160005b828110610dc457505050500390f35b835185528695509381019392810192600101610db5565b835485529093019260019283019201610d85565b3461018e57600036600319011261018e57602060ff60005460a01c166040519015158152f35b3461018e57602036600319011261018e5760043580151580610f76575b610e3b9061152a565b60005260036020526040600020604051610e548161139f565b60018060a01b039081835416815260018301549160208201928352600284015493604083019485526003810154926060810193845260048201546080820152600582015460a0820152600682015460c0820152600782015460e0820152610ebd60088301611418565b61010082015260ff600983015416936003851015610b9b576020958286610120610f5e950152600b600a860154958661014084015201549586610160830152815116915198519251608082015160a08301519060c08401519261010060e0860151950151966040519d8e9d8e610180998152015260408d015260608c015260808b015260a08a015260c089015260e088015280610100880152860190611364565b92156101208501526101408401526101608301520390f35b50600254811115610e32565b3461018e57600036600319011261018e57600054610faa336001600160a01b038316146115d1565b60ff8160a01c16610fed5760ff60a01b1916600160a01b1760009081557fab35696f06e428ebc5ceba8cd17f8fed287baf43440206d1943af1ee53e6d2679080a1005b60405162461bcd60e51b815260206004820152601a60248201527f436f6e747261637420697320616c7265616479207061757365640000000000006044820152606490fd5b3461018e57608036600319011261018e57600435606435602435604435600383101561018e578315158061124e575b61106a9061152a565b6000848152600360205260409020546001600160a01b031633036111fb57837f717fc81b09bb28d1499ca69d8f6d21b741760663f18fe922dbe60d620edd02d66060846110bb85600997111561156d565b8360005260036020526040600020948160068701818154148015906111ed575b6111af575b505042600b870155604051918252602082015261110060408201886114bd565ba20160ff8154166003811015610b9b57820361111857005b81611122916115b9565b6001810361115257507f8775e89363a51ba48aada8894a2b439b5661fbdb59f8c48bf080272e04e7a4d8600080a2005b8061117f57507f5f69fa7e73fc633eabbf61aa5ba9af951cb73bbb6c0c1378638af9323a998e52600080a2005b60021461118857005b7facbc44b7f46dc350c99fc0d9e5f61ed5c588cb4cdc6b69ea0deb0c5b28e5efc4600080a2005b55806007870155847f55d5258cbaf85df9ff05dc6686d48ac69a8348fb5a953140fa91f218d3af9cbe60408051858152846020820152a2818a6110e0565b5082600789015414156110db565b60405162461bcd60e51b815260206004820152602560248201527f4f6e6c79206f66666572206f776e65722063616e20757064617465207468652060448201526437b33332b960d91b6064820152608490fd5b50600254841115611061565b3461018e57600036600319011261018e576020600254604051908152f35b3461018e57600036600319011261018e576000806000806001936001600295600254965b878311156112c25750505060809450604051938452602084015260408301526060820152f35b90919461133461133a918760009997969952600361131f6113096112f360209a848c5289604060002001549061151d565b9b8b600052838b5287604060002001549061151d565b978a600052828a5282604060002001549061151d565b9789600052526004604060002001549061151d565b956114f8565b919061129c565b60005b8381106113545750506000910152565b8181015183820152602001611344565b9060209161137d81518092818552858086019101611341565b601f01601f1916010190565b600435906001600160a01b038216820361018e57565b610180810190811067ffffffffffffffff821117610b8557604052565b90601f8019910116810190811067ffffffffffffffff821117610b8557604052565b90600182811c9216801561140e575b60208310146113f857565b634e487b7160e01b600052602260045260246000fd5b91607f16916113ed565b9060405191826000825461142b816113de565b9081845260209460019160018116908160001461149b575060011461145c575b50505061145a925003836113bc565b565b600090815285812095935091905b81831061148357505061145a935082010138808061144b565b8554888401850152948501948794509183019161146a565b9250505061145a94925060ff191682840152151560051b82010138808061144b565b906003821015610b9b5752565b80548210156114e25760005260206000200190600090565b634e487b7160e01b600052603260045260246000fd5b60001981146115075760010190565b634e487b7160e01b600052601160045260246000fd5b9190820180921161150757565b1561153157565b60405162461bcd60e51b815260206004820152601460248201527313d999995c88191bd95cc81b9bdd08195e1a5cdd60621b6044820152606490fd5b1561157457565b60405162461bcd60e51b815260206004820152601a60248201527f496e76616c696420747261646520616d6f756e742072616e67650000000000006044820152606490fd5b906003811015610b9b5760ff80198354169116179055565b156115d857565b60405162461bcd60e51b815260206004820152602f60248201527f4f6e6c792074686520636f6e7472616374206f776e65722063616e207065726660448201526e37b936903a3434b99030b1ba34b7b760891b6064820152608490fd5b1561163c57565b60405162461bcd60e51b815260206004820152601260248201527110dbdb9d1c9858dd081a5cc81c185d5cd95960721b6044820152606490fdfea264697066735822122047894616c8597168d7b98dd25739d12e5dca47a3612fd79e569e91ddc029394f64736f6c63430008180033","opcodes":"PUSH1 0x80 CALLVALUE PUSH2 0xC4 JUMPI PUSH1 0x1F PUSH2 0x178C CODESIZE DUP2 SWAP1 SUB SWAP2 DUP3 ADD PUSH1 0x1F NOT AND DUP4 ADD SWAP2 PUSH1 0x1 PUSH1 0x1 PUSH1 0x40 SHL SUB DUP4 GT DUP5 DUP5 LT OR PUSH2 0xC9 JUMPI DUP1 DUP5 SWAP3 PUSH1 0x20 SWAP5 PUSH1 0x40 MSTORE DUP4 CODECOPY DUP2 ADD SUB SLT PUSH2 0xC4 JUMPI MLOAD PUSH1 0x1 PUSH1 0x1 PUSH1 0xA0 SHL SUB DUP2 AND SWAP1 DUP2 SWAP1 SUB PUSH2 0xC4 JUMPI DUP1 ISZERO PUSH2 0x80 JUMPI PUSH1 0x1 DUP1 PUSH1 0xA0 SHL SUB NOT CALLER DUP2 PUSH1 0x0 SLOAD AND OR PUSH1 0x0 SSTORE PUSH1 0x1 SLOAD AND OR PUSH1 0x1 SSTORE PUSH1 0x40 MLOAD PUSH2 0x16AC SWAP1 DUP2 PUSH2 0xE0 DUP3 CODECOPY RETURN JUMPDEST PUSH1 0x64 PUSH1 0x40 MLOAD PUSH3 0x461BCD PUSH1 0xE5 SHL DUP2 MSTORE PUSH1 0x20 PUSH1 0x4 DUP3 ADD MSTORE PUSH1 0x20 PUSH1 0x24 DUP3 ADD MSTORE PUSH32 0x496E76616C696420436F6E747261637452656769737472792061646472657373 PUSH1 0x44 DUP3 ADD MSTORE REVERT JUMPDEST PUSH1 0x0 DUP1 REVERT JUMPDEST PUSH4 0x4E487B71 PUSH1 0xE0 SHL PUSH1 0x0 MSTORE PUSH1 0x41 PUSH1 0x4 MSTORE PUSH1 0x24 PUSH1 0x0 REVERT INVALID PUSH1 0x80 PUSH1 0x40 MSTORE PUSH1 0x4 CALLDATASIZE LT ISZERO PUSH2 0x12 JUMPI PUSH1 0x0 DUP1 REVERT JUMPDEST PUSH1 0x0 CALLDATALOAD PUSH1 0xE0 SHR DUP1 PUSH4 0x10BCB2E2 EQ PUSH2 0x1278 JUMPI DUP1 PUSH4 0x1115C24D EQ PUSH2 0x125A JUMPI DUP1 PUSH4 0x261D8102 EQ PUSH2 0x1032 JUMPI DUP1 PUSH4 0x439766CE EQ PUSH2 0xF82 JUMPI DUP1 PUSH4 0x4FB64BE2 EQ PUSH2 0xE15 JUMPI DUP1 PUSH4 0x5C975ABB EQ PUSH2 0xDEF JUMPI DUP1 PUSH4 0x661D2C2C EQ PUSH2 0xD3B JUMPI DUP1 PUSH4 0x6862A30D EQ PUSH2 0xCFC JUMPI DUP1 PUSH4 0x6F086D3A EQ PUSH2 0x836 JUMPI DUP1 PUSH4 0x7B103999 EQ PUSH2 0x80D JUMPI DUP1 PUSH4 0x8A72EA6A EQ PUSH2 0x73A JUMPI DUP1 PUSH4 0x8DA5CB5B EQ PUSH2 0x711 JUMPI DUP1 PUSH4 0xB33712C5 EQ PUSH2 0x66D JUMPI DUP1 PUSH4 0xBD5FEC65 EQ PUSH2 0x615 JUMPI DUP1 PUSH4 0xD9EFB457 EQ PUSH2 0x1E0 JUMPI DUP1 PUSH4 0xE7C84DEE EQ PUSH2 0x193 JUMPI PUSH4 0xF2FDE38B EQ PUSH2 0xD7 JUMPI PUSH1 0x0 DUP1 REVERT JUMPDEST CALLVALUE PUSH2 0x18E JUMPI PUSH1 0x20 CALLDATASIZE PUSH1 0x3 NOT ADD SLT PUSH2 0x18E JUMPI PUSH2 0xF0 PUSH2 0x1389 JUMP JUMPDEST PUSH1 0x0 SLOAD PUSH1 0x1 PUSH1 0x1 PUSH1 0xA0 SHL SUB DUP1 DUP3 AND SWAP3 PUSH2 0x10A CALLER DUP6 EQ PUSH2 0x15D1 JUMP JUMPDEST AND SWAP2 DUP3 ISZERO PUSH2 0x149 JUMPI DUP3 SWAP1 PUSH32 0x8BE0079C531659141344CD1FD0A4F28419497F9722A3DAAFE3B4186F6B6457E0 PUSH1 0x0 DUP1 LOG3 PUSH1 0x1 PUSH1 0x1 PUSH1 0xA0 SHL SUB NOT AND OR PUSH1 0x0 SSTORE STOP JUMPDEST PUSH1 0x40 MLOAD PUSH3 0x461BCD PUSH1 0xE5 SHL DUP2 MSTORE PUSH1 0x20 PUSH1 0x4 DUP3 ADD MSTORE PUSH1 0x19 PUSH1 0x24 DUP3 ADD MSTORE PUSH32 0x496E76616C6964206E6577206F776E6572206164647265737300000000000000 PUSH1 0x44 DUP3 ADD MSTORE PUSH1 0x64 SWAP1 REVERT JUMPDEST PUSH1 0x0 DUP1 REVERT JUMPDEST CALLVALUE PUSH2 0x18E JUMPI PUSH1 0x40 CALLDATASIZE PUSH1 0x3 NOT ADD SLT PUSH2 0x18E JUMPI PUSH1 0x1 PUSH1 0x1 PUSH1 0xA0 SHL SUB PUSH2 0x1B4 PUSH2 0x1389 JUMP JUMPDEST AND PUSH1 0x0 MSTORE PUSH1 0x6 PUSH1 0x20 MSTORE PUSH1 0x40 PUSH1 0x0 KECCAK256 PUSH1 0x24 CALLDATALOAD PUSH1 0x0 MSTORE PUSH1 0x20 MSTORE PUSH1 0x20 PUSH1 0xFF PUSH1 0x40 PUSH1 0x0 KECCAK256 SLOAD AND PUSH1 0x40 MLOAD SWAP1 ISZERO ISZERO DUP2 MSTORE RETURN JUMPDEST CALLVALUE PUSH2 0x18E JUMPI PUSH1 0xE0 CALLDATASIZE PUSH1 0x3 NOT ADD SLT PUSH2 0x18E JUMPI PUSH1 0x24 PUSH1 0x4 CALLDATALOAD PUSH1 0x44 CALLDATALOAD DUP3 CALLDATALOAD DUP2 ISZERO ISZERO DUP3 SUB PUSH2 0x18E JUMPI PUSH1 0x64 CALLDATALOAD DUP1 ISZERO ISZERO DUP2 SUB PUSH2 0x18E JUMPI PUSH1 0x84 CALLDATALOAD SWAP1 DUP2 ISZERO ISZERO DUP3 SUB PUSH2 0x18E JUMPI PUSH1 0xA4 CALLDATALOAD SWAP1 DUP2 ISZERO ISZERO DUP3 SUB PUSH2 0x18E JUMPI PUSH1 0xC4 CALLDATALOAD SWAP2 DUP7 ISZERO ISZERO DUP1 PUSH2 0x609 JUMPI JUMPDEST PUSH2 0x240 SWAP1 PUSH2 0x152A JUMP JUMPDEST PUSH2 0x252 PUSH1 0xFF PUSH1 0x0 SLOAD PUSH1 0xA0 SHR AND ISZERO PUSH2 0x1635 JUMP JUMPDEST PUSH1 0x1 DUP1 PUSH1 0xA0 SHL SUB SWAP4 PUSH1 0x1 SWAP6 DUP6 DUP8 SLOAD AND SWAP6 PUSH1 0x40 MLOAD DUP1 SWAP8 PUSH4 0x24ED653D PUSH1 0xE1 SHL DUP3 MSTORE DUP2 PUSH1 0x4 PUSH1 0x20 SWAP11 DUP12 SWAP4 GAS STATICCALL SWAP1 DUP2 ISZERO PUSH2 0x5FD JUMPI PUSH1 0x0 SWAP2 PUSH2 0x5C7 JUMPI JUMPDEST POP AND CALLER SUB PUSH2 0x56F JUMPI DUP5 ISZERO PUSH2 0x536 JUMPI DUP9 PUSH1 0x0 MSTORE PUSH1 0x3 DUP7 MSTORE PUSH1 0x40 PUSH1 0x0 KECCAK256 SWAP4 PUSH1 0x0 SWAP9 PUSH2 0x4F8 JUMPI JUMPDEST PUSH2 0x416 JUMPI JUMPDEST POP DUP8 SWAP9 POP DUP1 SWAP8 SWAP6 SWAP7 SWAP8 SWAP1 PUSH2 0x3F3 JUMPI JUMPDEST PUSH2 0x38E JUMPI JUMPDEST DUP1 PUSH2 0x36B JUMPI JUMPDEST PUSH2 0x304 JUMPI JUMPDEST POP POP POP POP POP PUSH2 0x2DD JUMPI STOP JUMPDEST PUSH32 0xD66B67374D1F0CFE2EFD9E7C89FBE05EAB80E430747D044742774EC81A700721 PUSH1 0x0 DUP1 LOG2 STOP JUMPDEST PUSH32 0x1974CAAA56F2396B7A1EEEC15C7637B135DFF85AE0A1BAD43E7F14CD03317DAE SWAP4 SWAP5 SWAP6 POP PUSH1 0x4 ADD PUSH2 0x336 DUP2 SLOAD PUSH2 0x14F8 JUMP JUMPDEST SWAP1 SSTORE DUP4 PUSH1 0x0 MSTORE PUSH1 0x5 DUP3 MSTORE PUSH1 0x40 PUSH1 0x0 KECCAK256 DUP2 PUSH1 0x0 MSTORE DUP3 MSTORE PUSH1 0x40 PUSH1 0x0 KECCAK256 DUP6 PUSH1 0xFF NOT DUP3 SLOAD AND OR SWAP1 SSTORE PUSH1 0x40 MLOAD SWAP1 DUP2 MSTORE LOG2 DUP3 DUP3 DUP2 DUP1 DUP1 PUSH2 0x2D2 JUMP JUMPDEST POP DUP4 PUSH1 0x0 MSTORE PUSH1 0x5 DUP4 MSTORE PUSH1 0x40 PUSH1 0x0 KECCAK256 DUP3 PUSH1 0x0 MSTORE DUP4 MSTORE PUSH1 0xFF PUSH1 0x40 PUSH1 0x0 KECCAK256 SLOAD AND ISZERO PUSH2 0x2CD JUMP JUMPDEST SWAP6 POP PUSH1 0x3 DUP2 ADD PUSH2 0x39E DUP2 SLOAD PUSH2 0x14F8 JUMP JUMPDEST SWAP1 SSTORE DUP4 PUSH1 0x0 MSTORE PUSH1 0x5 DUP4 MSTORE PUSH1 0x40 PUSH1 0x0 KECCAK256 DUP3 PUSH1 0x0 MSTORE DUP4 MSTORE PUSH1 0x40 PUSH1 0x0 KECCAK256 DUP6 PUSH1 0xFF NOT DUP3 SLOAD AND OR SWAP1 SSTORE DUP4 PUSH32 0xD86F9DD1C77D777F69BDE5BE40F3C0A44F83A19822EC9F1D01706D627B1A6495 DUP5 PUSH1 0x40 MLOAD DUP6 DUP2 MSTORE LOG2 DUP5 SWAP6 PUSH2 0x2C7 JUMP JUMPDEST POP DUP5 PUSH1 0x0 MSTORE PUSH1 0x5 DUP5 MSTORE PUSH1 0x40 PUSH1 0x0 KECCAK256 DUP4 PUSH1 0x0 MSTORE DUP5 MSTORE PUSH1 0xFF PUSH1 0x40 PUSH1 0x0 KECCAK256 SLOAD AND ISZERO PUSH2 0x2C2 JUMP JUMPDEST SWAP1 SWAP7 POP PUSH1 0x2 DUP4 ADD SWAP1 DUP7 PUSH2 0x429 DUP4 SLOAD PUSH2 0x14F8 JUMP JUMPDEST DUP1 DUP5 SSTORE DUP11 PUSH32 0x6510C4115E936F9940135BBCF97D3E4EF247410D1D0B00D0CA466D80D8A5C7FD DUP10 PUSH1 0x40 MLOAD DUP7 DUP2 MSTORE LOG2 GT ISZERO PUSH2 0x4E5 JUMPI PUSH1 0x5 DUP5 ADD SWAP2 DUP3 SLOAD SWAP1 SLOAD SWAP2 PUSH1 0x0 NOT DUP4 ADD SWAP2 DUP4 DUP4 GT PUSH2 0x4D0 JUMPI DUP3 DUP2 MUL SWAP3 DUP2 DUP5 DIV EQ SWAP1 ISZERO OR ISZERO PUSH2 0x4BB JUMPI PUSH2 0x48C SWAP2 PUSH2 0x151D JUMP JUMPDEST DUP2 ISZERO PUSH2 0x4A6 JUMPI DUP10 SWAP11 POP SWAP9 SWAP7 SWAP8 SWAP9 DIV SWAP1 SSTORE JUMPDEST DUP6 SWAP5 SWAP7 DUP10 PUSH2 0x2B3 JUMP JUMPDEST DUP11 PUSH4 0x4E487B71 PUSH1 0xE0 SHL PUSH1 0x0 MSTORE PUSH1 0x12 PUSH1 0x4 MSTORE PUSH1 0x0 REVERT JUMPDEST DUP12 PUSH4 0x4E487B71 PUSH1 0xE0 SHL PUSH1 0x0 MSTORE PUSH1 0x11 PUSH1 0x4 MSTORE PUSH1 0x0 REVERT JUMPDEST DUP13 PUSH4 0x4E487B71 PUSH1 0xE0 SHL PUSH1 0x0 MSTORE PUSH1 0x11 PUSH1 0x4 MSTORE PUSH1 0x0 REVERT JUMPDEST SWAP1 POP DUP8 SWAP9 POP PUSH1 0x5 DUP4 SWAP9 SWAP7 SWAP8 SWAP9 ADD SSTORE PUSH2 0x49D JUMP JUMPDEST SWAP8 POP DUP7 DUP5 ADD PUSH2 0x507 DUP2 SLOAD PUSH2 0x14F8 JUMP JUMPDEST SWAP1 SSTORE DUP9 PUSH32 0x7C9E0B0754047E1EAD631140358526CA151225070AB023C5DC9A68F77F77E774 PUSH1 0x0 DUP1 LOG2 DUP7 SWAP8 PUSH2 0x2AE JUMP JUMPDEST PUSH1 0x40 MLOAD PUSH3 0x461BCD PUSH1 0xE5 SHL DUP2 MSTORE PUSH1 0x4 DUP2 ADD DUP8 SWAP1 MSTORE PUSH1 0x12 DUP2 DUP13 ADD MSTORE PUSH18 0x125B9D985B1A5908191A5CDC1D5D19481251 PUSH1 0x72 SHL PUSH1 0x44 DUP3 ADD MSTORE PUSH1 0x64 SWAP1 REVERT JUMPDEST PUSH1 0x40 MLOAD PUSH3 0x461BCD PUSH1 0xE5 SHL DUP2 MSTORE PUSH1 0x4 DUP2 ADD DUP8 SWAP1 MSTORE PUSH1 0x2B DUP2 DUP13 ADD MSTORE PUSH32 0x4F6E6C7920547261646520636F6E74726163742063616E20706572666F726D20 PUSH1 0x44 DUP3 ADD MSTORE PUSH11 0x3A3434B99030B1BA34B7B7 PUSH1 0xA9 SHL PUSH1 0x64 DUP3 ADD MSTORE PUSH1 0x84 SWAP1 REVERT JUMPDEST SWAP1 POP DUP8 DUP2 DUP2 RETURNDATASIZE DUP4 GT PUSH2 0x5F6 JUMPI JUMPDEST PUSH2 0x5DE DUP2 DUP4 PUSH2 0x13BC JUMP JUMPDEST DUP2 ADD SUB SLT PUSH2 0x18E JUMPI MLOAD DUP2 DUP2 AND DUP2 SUB PUSH2 0x18E JUMPI DUP13 PUSH2 0x28A JUMP JUMPDEST POP RETURNDATASIZE PUSH2 0x5D4 JUMP JUMPDEST PUSH1 0x40 MLOAD RETURNDATASIZE PUSH1 0x0 DUP3 RETURNDATACOPY RETURNDATASIZE SWAP1 REVERT JUMPDEST POP PUSH1 0x2 SLOAD DUP8 GT ISZERO PUSH2 0x237 JUMP JUMPDEST CALLVALUE PUSH2 0x18E JUMPI PUSH1 0x40 CALLDATASIZE PUSH1 0x3 NOT ADD SLT PUSH2 0x18E JUMPI PUSH2 0x62E PUSH2 0x1389 JUMP JUMPDEST PUSH1 0x1 PUSH1 0x1 PUSH1 0xA0 SHL SUB AND PUSH1 0x0 SWAP1 DUP2 MSTORE PUSH1 0x4 PUSH1 0x20 MSTORE PUSH1 0x40 SWAP1 KECCAK256 DUP1 SLOAD PUSH1 0x24 CALLDATALOAD SWAP2 SWAP1 DUP3 LT ISZERO PUSH2 0x18E JUMPI PUSH1 0x20 SWAP2 PUSH2 0x65F SWAP2 PUSH2 0x14CA JUMP JUMPDEST SWAP1 SLOAD PUSH1 0x40 MLOAD SWAP2 PUSH1 0x3 SHL SHR DUP2 MSTORE RETURN JUMPDEST CALLVALUE PUSH2 0x18E JUMPI PUSH1 0x0 CALLDATASIZE PUSH1 0x3 NOT ADD SLT PUSH2 0x18E JUMPI PUSH1 0x0 SLOAD PUSH2 0x695 CALLER PUSH1 0x1 PUSH1 0x1 PUSH1 0xA0 SHL SUB DUP4 AND EQ PUSH2 0x15D1 JUMP JUMPDEST PUSH1 0xFF DUP2 PUSH1 0xA0 SHR AND ISZERO PUSH2 0x6D3 JUMPI PUSH1 0xFF PUSH1 0xA0 SHL NOT AND PUSH1 0x0 SWAP1 DUP2 SSTORE PUSH32 0xE5E3B3FB504C22CF5C42FA07D521225937514C654007E1F12646F89768D6F94 SWAP1 DUP1 LOG1 STOP JUMPDEST PUSH1 0x40 MLOAD PUSH3 0x461BCD PUSH1 0xE5 SHL DUP2 MSTORE PUSH1 0x20 PUSH1 0x4 DUP3 ADD MSTORE PUSH1 0x16 PUSH1 0x24 DUP3 ADD MSTORE PUSH22 0x10DBDB9D1C9858DD081A5CC81B9BDD081C185D5CD959 PUSH1 0x52 SHL PUSH1 0x44 DUP3 ADD MSTORE PUSH1 0x64 SWAP1 REVERT JUMPDEST CALLVALUE PUSH2 0x18E JUMPI PUSH1 0x0 CALLDATASIZE PUSH1 0x3 NOT ADD SLT PUSH2 0x18E JUMPI PUSH1 0x0 SLOAD PUSH1 0x40 MLOAD PUSH1 0x1 PUSH1 0x1 PUSH1 0xA0 SHL SUB SWAP1 SWAP2 AND DUP2 MSTORE PUSH1 0x20 SWAP1 RETURN JUMPDEST CALLVALUE PUSH2 0x18E JUMPI PUSH1 0x20 CALLDATASIZE PUSH1 0x3 NOT ADD SLT PUSH2 0x18E JUMPI PUSH1 0x4 CALLDATALOAD PUSH1 0x0 MSTORE PUSH1 0x3 PUSH1 0x20 MSTORE PUSH1 0x40 DUP1 PUSH1 0x0 KECCAK256 PUSH1 0x1 DUP1 PUSH1 0xA0 SHL SUB DUP2 SLOAD AND PUSH1 0x1 DUP3 ADD SLOAD SWAP2 PUSH1 0x2 DUP2 ADD SLOAD SWAP1 PUSH2 0x7FD PUSH2 0x7F1 PUSH1 0x3 DUP4 ADD SLOAD SWAP5 PUSH1 0x4 DUP5 ADD SLOAD SWAP1 PUSH1 0x5 DUP6 ADD SLOAD PUSH1 0x6 DUP7 ADD SLOAD PUSH1 0x7 DUP8 ADD SLOAD SWAP2 PUSH2 0x7A0 PUSH1 0x8 DUP10 ADD PUSH2 0x1418 JUMP JUMPDEST SWAP5 PUSH1 0xFF PUSH1 0x9 DUP11 ADD SLOAD AND SWAP11 PUSH1 0xB PUSH1 0xA DUP12 ADD SLOAD SWAP11 ADD SLOAD SWAP11 DUP15 MLOAD SWAP15 DUP16 SWAP15 DUP16 SWAP1 PUSH2 0x180 SWAP10 DUP3 MSTORE PUSH1 0x20 DUP3 ADD MSTORE ADD MSTORE PUSH1 0x60 DUP14 ADD MSTORE PUSH1 0x80 DUP13 ADD MSTORE PUSH1 0xA0 DUP12 ADD MSTORE PUSH1 0xC0 DUP11 ADD MSTORE PUSH1 0xE0 DUP10 ADD MSTORE DUP1 PUSH2 0x100 DUP10 ADD MSTORE DUP8 ADD SWAP1 PUSH2 0x1364 JUMP JUMPDEST SWAP4 PUSH2 0x120 DUP7 ADD SWAP1 PUSH2 0x14BD JUMP JUMPDEST PUSH2 0x140 DUP5 ADD MSTORE PUSH2 0x160 DUP4 ADD MSTORE SUB SWAP1 RETURN JUMPDEST CALLVALUE PUSH2 0x18E JUMPI PUSH1 0x0 CALLDATASIZE PUSH1 0x3 NOT ADD SLT PUSH2 0x18E JUMPI PUSH1 0x1 SLOAD PUSH1 0x40 MLOAD PUSH1 0x1 PUSH1 0x1 PUSH1 0xA0 SHL SUB SWAP1 SWAP2 AND DUP2 MSTORE PUSH1 0x20 SWAP1 RETURN JUMPDEST CALLVALUE PUSH2 0x18E JUMPI PUSH1 0x60 CALLDATASIZE PUSH1 0x3 NOT ADD SLT PUSH2 0x18E JUMPI PUSH1 0x44 CALLDATALOAD PUSH8 0xFFFFFFFFFFFFFFFF DUP2 GT PUSH2 0x18E JUMPI CALLDATASIZE PUSH1 0x23 DUP3 ADD SLT ISZERO PUSH2 0x18E JUMPI DUP1 PUSH1 0x4 ADD CALLDATALOAD SWAP1 PUSH8 0xFFFFFFFFFFFFFFFF DUP3 GT PUSH2 0xB85 JUMPI PUSH1 0x40 MLOAD SWAP2 PUSH2 0x891 PUSH1 0x1F DUP3 ADD PUSH1 0x1F NOT AND PUSH1 0x20 ADD DUP5 PUSH2 0x13BC JUMP JUMPDEST DUP1 DUP4 MSTORE PUSH1 0x20 DUP4 ADD SWAP2 CALLDATASIZE PUSH1 0x24 DUP4 DUP4 ADD ADD GT PUSH2 0x18E JUMPI DUP2 PUSH1 0x0 SWAP3 PUSH1 0x24 PUSH1 0x20 SWAP4 ADD DUP6 CALLDATACOPY DUP5 ADD ADD MSTORE PUSH2 0x8C7 PUSH1 0xFF PUSH1 0x0 SLOAD PUSH1 0xA0 SHR AND ISZERO PUSH2 0x1635 JUMP JUMPDEST PUSH2 0x8D7 PUSH1 0x24 CALLDATALOAD PUSH1 0x4 CALLDATALOAD GT ISZERO PUSH2 0x156D JUMP JUMPDEST DUP2 MLOAD ISZERO PUSH2 0xCB7 JUMPI PUSH1 0x40 MLOAD PUSH2 0x922 PUSH1 0x74 DUP3 PUSH1 0x20 DUP2 ADD SWAP5 CALLER PUSH1 0x60 SHL DUP7 MSTORE PUSH1 0x4 CALLDATALOAD PUSH1 0x34 DUP4 ADD MSTORE PUSH1 0x24 CALLDATALOAD PUSH1 0x54 DUP4 ADD MSTORE PUSH2 0x912 DUP8 MLOAD DUP1 SWAP3 DUP6 DUP6 ADD SWAP1 PUSH2 0x1341 JUMP JUMPDEST DUP2 ADD SUB PUSH1 0x54 DUP2 ADD DUP5 MSTORE ADD DUP3 PUSH2 0x13BC JUMP JUMPDEST MLOAD SWAP1 KECCAK256 CALLER PUSH1 0x0 MSTORE PUSH1 0x6 PUSH1 0x20 MSTORE PUSH1 0x40 PUSH1 0x0 KECCAK256 DUP2 PUSH1 0x0 MSTORE PUSH1 0x20 MSTORE PUSH1 0xFF PUSH1 0x40 PUSH1 0x0 KECCAK256 SLOAD AND PUSH2 0xC72 JUMPI CALLER PUSH1 0x0 MSTORE PUSH1 0x6 PUSH1 0x20 MSTORE PUSH1 0x40 PUSH1 0x0 KECCAK256 SWAP1 PUSH1 0x0 MSTORE PUSH1 0x20 MSTORE PUSH1 0x40 PUSH1 0x0 KECCAK256 PUSH1 0x1 PUSH1 0xFF NOT DUP3 SLOAD AND OR SWAP1 SSTORE PUSH2 0x977 PUSH1 0x2 SLOAD PUSH2 0x14F8 JUMP JUMPDEST SWAP1 DUP2 PUSH1 0x2 SSTORE PUSH1 0x40 MLOAD SWAP2 PUSH2 0x989 DUP4 PUSH2 0x139F JUMP JUMPDEST CALLER DUP4 MSTORE PUSH1 0x0 PUSH1 0x20 DUP5 ADD MSTORE PUSH1 0x0 PUSH1 0x40 DUP5 ADD MSTORE PUSH1 0x0 PUSH1 0x60 DUP5 ADD MSTORE PUSH1 0x0 PUSH1 0x80 DUP5 ADD MSTORE PUSH1 0x0 PUSH1 0xA0 DUP5 ADD MSTORE PUSH1 0x4 CALLDATALOAD PUSH1 0xC0 DUP5 ADD MSTORE PUSH1 0x24 CALLDATALOAD PUSH1 0xE0 DUP5 ADD MSTORE DUP2 PUSH2 0x100 DUP5 ADD MSTORE PUSH1 0x0 PUSH2 0x120 DUP5 ADD MSTORE TIMESTAMP PUSH2 0x140 DUP5 ADD MSTORE TIMESTAMP PUSH2 0x160 DUP5 ADD MSTORE PUSH1 0x0 MSTORE PUSH1 0x3 PUSH1 0x20 MSTORE PUSH1 0x40 PUSH1 0x0 KECCAK256 PUSH1 0x1 DUP1 PUSH1 0xA0 SHL SUB DUP4 MLOAD AND PUSH12 0xFFFFFFFFFFFFFFFFFFFFFFFF PUSH1 0xA0 SHL DUP3 SLOAD AND OR DUP2 SSTORE PUSH1 0x20 DUP4 ADD MLOAD PUSH1 0x1 DUP3 ADD SSTORE PUSH1 0x40 DUP4 ADD MLOAD PUSH1 0x2 DUP3 ADD SSTORE PUSH1 0x60 DUP4 ADD MLOAD PUSH1 0x3 DUP3 ADD SSTORE PUSH1 0x80 DUP4 ADD MLOAD PUSH1 0x4 DUP3 ADD SSTORE PUSH1 0xA0 DUP4 ADD MLOAD PUSH1 0x5 DUP3 ADD SSTORE PUSH1 0xC0 DUP4 ADD MLOAD PUSH1 0x6 DUP3 ADD SSTORE PUSH1 0xE0 DUP4 ADD MLOAD PUSH1 0x7 DUP3 ADD SSTORE PUSH2 0x100 DUP4 ADD MLOAD SWAP3 DUP4 MLOAD PUSH8 0xFFFFFFFFFFFFFFFF DUP2 GT PUSH2 0xB85 JUMPI PUSH2 0xA74 PUSH1 0x8 DUP5 ADD SLOAD PUSH2 0x13DE JUMP JUMPDEST PUSH1 0x1F DUP2 GT PUSH2 0xC2B JUMPI JUMPDEST POP PUSH1 0x20 PUSH1 0x1F DUP3 GT PUSH1 0x1 EQ PUSH2 0xBBC JUMPI DUP2 SWAP3 SWAP4 SWAP5 SWAP6 PUSH1 0x0 SWAP3 PUSH2 0xBB1 JUMPI JUMPDEST POP POP DUP2 PUSH1 0x1 SHL SWAP2 PUSH1 0x0 NOT SWAP1 PUSH1 0x3 SHL SHR NOT AND OR PUSH1 0x8 DUP4 ADD SSTORE JUMPDEST PUSH2 0x120 DUP2 ADD MLOAD PUSH1 0x3 DUP2 LT ISZERO PUSH2 0xB9B JUMPI PUSH1 0xB SWAP2 PUSH2 0xAD2 PUSH2 0x160 SWAP3 PUSH1 0x9 DUP7 ADD PUSH2 0x15B9 JUMP JUMPDEST PUSH2 0x140 DUP2 ADD MLOAD PUSH1 0xA DUP6 ADD SSTORE ADD MLOAD SWAP2 ADD SSTORE CALLER PUSH1 0x0 MSTORE PUSH1 0x4 PUSH1 0x20 MSTORE PUSH1 0x40 PUSH1 0x0 KECCAK256 PUSH1 0x2 SLOAD SWAP1 DUP1 SLOAD PUSH9 0x10000000000000000 DUP2 LT ISZERO PUSH2 0xB85 JUMPI PUSH2 0xB16 SWAP2 PUSH1 0x1 DUP3 ADD DUP2 SSTORE PUSH2 0x14CA JUMP JUMPDEST DUP2 SWAP3 SWAP2 SLOAD SWAP1 PUSH1 0x3 SHL SWAP2 DUP3 SHL SWAP2 PUSH1 0x0 NOT SWAP1 SHL NOT AND OR SWAP1 SSTORE PUSH1 0x2 SLOAD PUSH32 0x4FF5427640A489B1309586AB0601B3A3EFE935B24A10675C05B4C967C67E1AF5 PUSH2 0xB75 PUSH1 0x40 MLOAD SWAP4 PUSH1 0x4 CALLDATALOAD DUP6 MSTORE PUSH1 0x24 CALLDATALOAD PUSH1 0x20 DUP7 ADD MSTORE PUSH1 0x80 PUSH1 0x40 DUP7 ADD MSTORE PUSH1 0x80 DUP6 ADD SWAP1 PUSH2 0x1364 JUMP JUMPDEST SWAP3 PUSH1 0x0 PUSH1 0x60 DUP3 ADD MSTORE DUP1 CALLER SWAP5 SUB SWAP1 LOG3 STOP JUMPDEST PUSH4 0x4E487B71 PUSH1 0xE0 SHL PUSH1 0x0 MSTORE PUSH1 0x41 PUSH1 0x4 MSTORE PUSH1 0x24 PUSH1 0x0 REVERT JUMPDEST PUSH4 0x4E487B71 PUSH1 0xE0 SHL PUSH1 0x0 MSTORE PUSH1 0x21 PUSH1 0x4 MSTORE PUSH1 0x24 PUSH1 0x0 REVERT JUMPDEST ADD MLOAD SWAP1 POP DUP6 DUP1 PUSH2 0xA98 JUMP JUMPDEST PUSH1 0x8 DUP5 ADD PUSH1 0x0 MSTORE PUSH1 0x20 PUSH1 0x0 KECCAK256 SWAP1 PUSH1 0x0 JUMPDEST PUSH1 0x1F NOT DUP5 AND DUP2 LT PUSH2 0xC13 JUMPI POP PUSH1 0x1 SWAP4 SWAP5 SWAP6 SWAP7 DUP4 PUSH1 0x1F NOT DUP2 AND LT PUSH2 0xBFA JUMPI JUMPDEST POP POP POP DUP2 SHL ADD PUSH1 0x8 DUP4 ADD SSTORE PUSH2 0xAB0 JUMP JUMPDEST ADD MLOAD PUSH1 0x0 NOT PUSH1 0xF8 DUP5 PUSH1 0x3 SHL AND SHR NOT AND SWAP1 SSTORE DUP6 DUP1 DUP1 PUSH2 0xBEA JUMP JUMPDEST SWAP1 SWAP2 PUSH1 0x20 PUSH1 0x1 DUP2 SWAP3 DUP6 DUP12 ADD MLOAD DUP2 SSTORE ADD SWAP4 ADD SWAP2 ADD PUSH2 0xBCC JUMP JUMPDEST PUSH1 0x8 DUP5 ADD PUSH1 0x0 MSTORE PUSH1 0x20 PUSH1 0x0 KECCAK256 PUSH1 0x1F DUP4 ADD PUSH1 0x5 SHR DUP2 ADD PUSH1 0x20 DUP5 LT PUSH2 0xC6B JUMPI JUMPDEST PUSH1 0x1F DUP4 ADD PUSH1 0x5 SHR DUP3 ADD DUP2 LT PUSH2 0xC5F JUMPI POP POP PUSH2 0xA7D JUMP JUMPDEST PUSH1 0x0 DUP2 SSTORE PUSH1 0x1 ADD PUSH2 0xC49 JUMP JUMPDEST POP DUP1 PUSH2 0xC49 JUMP JUMPDEST PUSH1 0x40 MLOAD PUSH3 0x461BCD PUSH1 0xE5 SHL DUP2 MSTORE PUSH1 0x20 PUSH1 0x4 DUP3 ADD MSTORE PUSH1 0x1A PUSH1 0x24 DUP3 ADD MSTORE PUSH32 0x4475706C6963617465206F6666657220706172616D6574657273000000000000 PUSH1 0x44 DUP3 ADD MSTORE PUSH1 0x64 SWAP1 REVERT JUMPDEST PUSH1 0x40 MLOAD PUSH3 0x461BCD PUSH1 0xE5 SHL DUP2 MSTORE PUSH1 0x20 PUSH1 0x4 DUP3 ADD MSTORE PUSH1 0x1D PUSH1 0x24 DUP3 ADD MSTORE PUSH32 0x466961742063757272656E63792063616E6E6F7420626520656D707479000000 PUSH1 0x44 DUP3 ADD MSTORE PUSH1 0x64 SWAP1 REVERT JUMPDEST CALLVALUE PUSH2 0x18E JUMPI PUSH1 0x40 CALLDATASIZE PUSH1 0x3 NOT ADD SLT PUSH2 0x18E JUMPI PUSH1 0x4 CALLDATALOAD PUSH1 0x0 MSTORE PUSH1 0x5 PUSH1 0x20 MSTORE PUSH1 0x40 PUSH1 0x0 KECCAK256 PUSH1 0x24 CALLDATALOAD PUSH1 0x0 MSTORE PUSH1 0x20 MSTORE PUSH1 0x20 PUSH1 0xFF PUSH1 0x40 PUSH1 0x0 KECCAK256 SLOAD AND PUSH1 0x40 MLOAD SWAP1 ISZERO ISZERO DUP2 MSTORE RETURN JUMPDEST CALLVALUE PUSH2 0x18E JUMPI PUSH1 0x20 DUP1 PUSH1 0x3 NOT CALLDATASIZE ADD SLT PUSH2 0x18E JUMPI PUSH1 0x1 PUSH1 0x1 PUSH1 0xA0 SHL SUB PUSH2 0xD5D PUSH2 0x1389 JUMP JUMPDEST AND PUSH1 0x0 MSTORE PUSH1 0x4 DUP2 MSTORE PUSH1 0x40 PUSH1 0x0 KECCAK256 PUSH1 0x40 MLOAD SWAP1 DUP2 DUP4 DUP3 SLOAD SWAP2 DUP3 DUP2 MSTORE ADD SWAP1 DUP2 SWAP3 PUSH1 0x0 MSTORE DUP5 PUSH1 0x0 KECCAK256 SWAP1 PUSH1 0x0 JUMPDEST DUP7 DUP3 DUP3 LT PUSH2 0xDDB JUMPI DUP7 DUP7 PUSH2 0xD9B DUP3 DUP9 SUB DUP4 PUSH2 0x13BC JUMP JUMPDEST PUSH1 0x40 MLOAD SWAP3 DUP4 SWAP3 DUP2 DUP5 ADD SWAP1 DUP3 DUP6 MSTORE MLOAD DUP1 SWAP2 MSTORE PUSH1 0x40 DUP5 ADD SWAP3 SWAP2 PUSH1 0x0 JUMPDEST DUP3 DUP2 LT PUSH2 0xDC4 JUMPI POP POP POP POP SUB SWAP1 RETURN JUMPDEST DUP4 MLOAD DUP6 MSTORE DUP7 SWAP6 POP SWAP4 DUP2 ADD SWAP4 SWAP3 DUP2 ADD SWAP3 PUSH1 0x1 ADD PUSH2 0xDB5 JUMP JUMPDEST DUP4 SLOAD DUP6 MSTORE SWAP1 SWAP4 ADD SWAP3 PUSH1 0x1 SWAP3 DUP4 ADD SWAP3 ADD PUSH2 0xD85 JUMP JUMPDEST CALLVALUE PUSH2 0x18E JUMPI PUSH1 0x0 CALLDATASIZE PUSH1 0x3 NOT ADD SLT PUSH2 0x18E JUMPI PUSH1 0x20 PUSH1 0xFF PUSH1 0x0 SLOAD PUSH1 0xA0 SHR AND PUSH1 0x40 MLOAD SWAP1 ISZERO ISZERO DUP2 MSTORE RETURN JUMPDEST CALLVALUE PUSH2 0x18E JUMPI PUSH1 0x20 CALLDATASIZE PUSH1 0x3 NOT ADD SLT PUSH2 0x18E JUMPI PUSH1 0x4 CALLDATALOAD DUP1 ISZERO ISZERO DUP1 PUSH2 0xF76 JUMPI JUMPDEST PUSH2 0xE3B SWAP1 PUSH2 0x152A JUMP JUMPDEST PUSH1 0x0 MSTORE PUSH1 0x3 PUSH1 0x20 MSTORE PUSH1 0x40 PUSH1 0x0 KECCAK256 PUSH1 0x40 MLOAD PUSH2 0xE54 DUP2 PUSH2 0x139F JUMP JUMPDEST PUSH1 0x1 DUP1 PUSH1 0xA0 SHL SUB SWAP1 DUP2 DUP4 SLOAD AND DUP2 MSTORE PUSH1 0x1 DUP4 ADD SLOAD SWAP2 PUSH1 0x20 DUP3 ADD SWAP3 DUP4 MSTORE PUSH1 0x2 DUP5 ADD SLOAD SWAP4 PUSH1 0x40 DUP4 ADD SWAP5 DUP6 MSTORE PUSH1 0x3 DUP2 ADD SLOAD SWAP3 PUSH1 0x60 DUP2 ADD SWAP4 DUP5 MSTORE PUSH1 0x4 DUP3 ADD SLOAD PUSH1 0x80 DUP3 ADD MSTORE PUSH1 0x5 DUP3 ADD SLOAD PUSH1 0xA0 DUP3 ADD MSTORE PUSH1 0x6 DUP3 ADD SLOAD PUSH1 0xC0 DUP3 ADD MSTORE PUSH1 0x7 DUP3 ADD SLOAD PUSH1 0xE0 DUP3 ADD MSTORE PUSH2 0xEBD PUSH1 0x8 DUP4 ADD PUSH2 0x1418 JUMP JUMPDEST PUSH2 0x100 DUP3 ADD MSTORE PUSH1 0xFF PUSH1 0x9 DUP4 ADD SLOAD AND SWAP4 PUSH1 0x3 DUP6 LT ISZERO PUSH2 0xB9B JUMPI PUSH1 0x20 SWAP6 DUP3 DUP7 PUSH2 0x120 PUSH2 0xF5E SWAP6 ADD MSTORE PUSH1 0xB PUSH1 0xA DUP7 ADD SLOAD SWAP6 DUP7 PUSH2 0x140 DUP5 ADD MSTORE ADD SLOAD SWAP6 DUP7 PUSH2 0x160 DUP4 ADD MSTORE DUP2 MLOAD AND SWAP2 MLOAD SWAP9 MLOAD SWAP3 MLOAD PUSH1 0x80 DUP3 ADD MLOAD PUSH1 0xA0 DUP4 ADD MLOAD SWAP1 PUSH1 0xC0 DUP5 ADD MLOAD SWAP3 PUSH2 0x100 PUSH1 0xE0 DUP7 ADD MLOAD SWAP6 ADD MLOAD SWAP7 PUSH1 0x40 MLOAD SWAP14 DUP15 SWAP14 DUP15 PUSH2 0x180 SWAP10 DUP2 MSTORE ADD MSTORE PUSH1 0x40 DUP14 ADD MSTORE PUSH1 0x60 DUP13 ADD MSTORE PUSH1 0x80 DUP12 ADD MSTORE PUSH1 0xA0 DUP11 ADD MSTORE PUSH1 0xC0 DUP10 ADD MSTORE PUSH1 0xE0 DUP9 ADD MSTORE DUP1 PUSH2 0x100 DUP9 ADD MSTORE DUP7 ADD SWAP1 PUSH2 0x1364 JUMP JUMPDEST SWAP3 ISZERO PUSH2 0x120 DUP6 ADD MSTORE PUSH2 0x140 DUP5 ADD MSTORE PUSH2 0x160 DUP4 ADD MSTORE SUB SWAP1 RETURN JUMPDEST POP PUSH1 0x2 SLOAD DUP2 GT ISZERO PUSH2 0xE32 JUMP JUMPDEST CALLVALUE PUSH2 0x18E JUMPI PUSH1 0x0 CALLDATASIZE PUSH1 0x3 NOT ADD SLT PUSH2 0x18E JUMPI PUSH1 0x0 SLOAD PUSH2 0xFAA CALLER PUSH1 0x1 PUSH1 0x1 PUSH1 0xA0 SHL SUB DUP4 AND EQ PUSH2 0x15D1 JUMP JUMPDEST PUSH1 0xFF DUP2 PUSH1 0xA0 SHR AND PUSH2 0xFED JUMPI PUSH1 0xFF PUSH1 0xA0 SHL NOT AND PUSH1 0x1 PUSH1 0xA0 SHL OR PUSH1 0x0 SWAP1 DUP2 SSTORE PUSH32 0xAB35696F06E428EBC5CEBA8CD17F8FED287BAF43440206D1943AF1EE53E6D267 SWAP1 DUP1 LOG1 STOP JUMPDEST PUSH1 0x40 MLOAD PUSH3 0x461BCD PUSH1 0xE5 SHL DUP2 MSTORE PUSH1 0x20 PUSH1 0x4 DUP3 ADD MSTORE PUSH1 0x1A PUSH1 0x24 DUP3 ADD MSTORE PUSH32 0x436F6E747261637420697320616C726561647920706175736564000000000000 PUSH1 0x44 DUP3 ADD MSTORE PUSH1 0x64 SWAP1 REVERT JUMPDEST CALLVALUE PUSH2 0x18E JUMPI PUSH1 0x80 CALLDATASIZE PUSH1 0x3 NOT ADD SLT PUSH2 0x18E JUMPI PUSH1 0x4 CALLDATALOAD PUSH1 0x64 CALLDATALOAD PUSH1 0x24 CALLDATALOAD PUSH1 0x44 CALLDATALOAD PUSH1 0x3 DUP4 LT ISZERO PUSH2 0x18E JUMPI DUP4 ISZERO ISZERO DUP1 PUSH2 0x124E JUMPI JUMPDEST PUSH2 0x106A SWAP1 PUSH2 0x152A JUMP JUMPDEST PUSH1 0x0 DUP5 DUP2 MSTORE PUSH1 0x3 PUSH1 0x20 MSTORE PUSH1 0x40 SWAP1 KECCAK256 SLOAD PUSH1 0x1 PUSH1 0x1 PUSH1 0xA0 SHL SUB AND CALLER SUB PUSH2 0x11FB JUMPI DUP4 PUSH32 0x717FC81B09BB28D1499CA69D8F6D21B741760663F18FE922DBE60D620EDD02D6 PUSH1 0x60 DUP5 PUSH2 0x10BB DUP6 PUSH1 0x9 SWAP8 GT ISZERO PUSH2 0x156D JUMP JUMPDEST DUP4 PUSH1 0x0 MSTORE PUSH1 0x3 PUSH1 0x20 MSTORE PUSH1 0x40 PUSH1 0x0 KECCAK256 SWAP5 DUP2 PUSH1 0x6 DUP8 ADD DUP2 DUP2 SLOAD EQ DUP1 ISZERO SWAP1 PUSH2 0x11ED JUMPI JUMPDEST PUSH2 0x11AF JUMPI JUMPDEST POP POP TIMESTAMP PUSH1 0xB DUP8 ADD SSTORE PUSH1 0x40 MLOAD SWAP2 DUP3 MSTORE PUSH1 0x20 DUP3 ADD MSTORE PUSH2 0x1100 PUSH1 0x40 DUP3 ADD DUP9 PUSH2 0x14BD JUMP JUMPDEST LOG2 ADD PUSH1 0xFF DUP2 SLOAD AND PUSH1 0x3 DUP2 LT ISZERO PUSH2 0xB9B JUMPI DUP3 SUB PUSH2 0x1118 JUMPI STOP JUMPDEST DUP2 PUSH2 0x1122 SWAP2 PUSH2 0x15B9 JUMP JUMPDEST PUSH1 0x1 DUP2 SUB PUSH2 0x1152 JUMPI POP PUSH32 0x8775E89363A51BA48AADA8894A2B439B5661FBDB59F8C48BF080272E04E7A4D8 PUSH1 0x0 DUP1 LOG2 STOP JUMPDEST DUP1 PUSH2 0x117F JUMPI POP PUSH32 0x5F69FA7E73FC633EABBF61AA5BA9AF951CB73BBB6C0C1378638AF9323A998E52 PUSH1 0x0 DUP1 LOG2 STOP JUMPDEST PUSH1 0x2 EQ PUSH2 0x1188 JUMPI STOP JUMPDEST PUSH32 0xACBC44B7F46DC350C99FC0D9E5F61ED5C588CB4CDC6B69EA0DEB0C5B28E5EFC4 PUSH1 0x0 DUP1 LOG2 STOP JUMPDEST SSTORE DUP1 PUSH1 0x7 DUP8 ADD SSTORE DUP5 PUSH32 0x55D5258CBAF85DF9FF05DC6686D48AC69A8348FB5A953140FA91F218D3AF9CBE PUSH1 0x40 DUP1 MLOAD DUP6 DUP2 MSTORE DUP5 PUSH1 0x20 DUP3 ADD MSTORE LOG2 DUP2 DUP11 PUSH2 0x10E0 JUMP JUMPDEST POP DUP3 PUSH1 0x7 DUP10 ADD SLOAD EQ ISZERO PUSH2 0x10DB JUMP JUMPDEST PUSH1 0x40 MLOAD PUSH3 0x461BCD PUSH1 0xE5 SHL DUP2 MSTORE PUSH1 0x20 PUSH1 0x4 DUP3 ADD MSTORE PUSH1 0x25 PUSH1 0x24 DUP3 ADD MSTORE PUSH32 0x4F6E6C79206F66666572206F776E65722063616E207570646174652074686520 PUSH1 0x44 DUP3 ADD MSTORE PUSH5 0x37B33332B9 PUSH1 0xD9 SHL PUSH1 0x64 DUP3 ADD MSTORE PUSH1 0x84 SWAP1 REVERT JUMPDEST POP PUSH1 0x2 SLOAD DUP5 GT ISZERO PUSH2 0x1061 JUMP JUMPDEST CALLVALUE PUSH2 0x18E JUMPI PUSH1 0x0 CALLDATASIZE PUSH1 0x3 NOT ADD SLT PUSH2 0x18E JUMPI PUSH1 0x20 PUSH1 0x2 SLOAD PUSH1 0x40 MLOAD SWAP1 DUP2 MSTORE RETURN JUMPDEST CALLVALUE PUSH2 0x18E JUMPI PUSH1 0x0 CALLDATASIZE PUSH1 0x3 NOT ADD SLT PUSH2 0x18E JUMPI PUSH1 0x0 DUP1 PUSH1 0x0 DUP1 PUSH1 0x1 SWAP4 PUSH1 0x1 PUSH1 0x2 SWAP6 PUSH1 0x2 SLOAD SWAP7 JUMPDEST DUP8 DUP4 GT ISZERO PUSH2 0x12C2 JUMPI POP POP POP PUSH1 0x80 SWAP5 POP PUSH1 0x40 MLOAD SWAP4 DUP5 MSTORE PUSH1 0x20 DUP5 ADD MSTORE PUSH1 0x40 DUP4 ADD MSTORE PUSH1 0x60 DUP3 ADD MSTORE RETURN JUMPDEST SWAP1 SWAP2 SWAP5 PUSH2 0x1334 PUSH2 0x133A SWAP2 DUP8 PUSH1 0x0 SWAP10 SWAP8 SWAP7 SWAP10 MSTORE PUSH1 0x3 PUSH2 0x131F PUSH2 0x1309 PUSH2 0x12F3 PUSH1 0x20 SWAP11 DUP5 DUP13 MSTORE DUP10 PUSH1 0x40 PUSH1 0x0 KECCAK256 ADD SLOAD SWAP1 PUSH2 0x151D JUMP JUMPDEST SWAP12 DUP12 PUSH1 0x0 MSTORE DUP4 DUP12 MSTORE DUP8 PUSH1 0x40 PUSH1 0x0 KECCAK256 ADD SLOAD SWAP1 PUSH2 0x151D JUMP JUMPDEST SWAP8 DUP11 PUSH1 0x0 MSTORE DUP3 DUP11 MSTORE DUP3 PUSH1 0x40 PUSH1 0x0 KECCAK256 ADD SLOAD SWAP1 PUSH2 0x151D JUMP JUMPDEST SWAP8 DUP10 PUSH1 0x0 MSTORE MSTORE PUSH1 0x4 PUSH1 0x40 PUSH1 0x0 KECCAK256 ADD SLOAD SWAP1 PUSH2 0x151D JUMP JUMPDEST SWAP6 PUSH2 0x14F8 JUMP JUMPDEST SWAP2 SWAP1 PUSH2 0x129C JUMP JUMPDEST PUSH1 0x0 JUMPDEST DUP4 DUP2 LT PUSH2 0x1354 JUMPI POP POP PUSH1 0x0 SWAP2 ADD MSTORE JUMP JUMPDEST DUP2 DUP2 ADD MLOAD DUP4 DUP3 ADD MSTORE PUSH1 0x20 ADD PUSH2 0x1344 JUMP JUMPDEST SWAP1 PUSH1 0x20 SWAP2 PUSH2 0x137D DUP2 MLOAD DUP1 SWAP3 DUP2 DUP6 MSTORE DUP6 DUP1 DUP7 ADD SWAP2 ADD PUSH2 0x1341 JUMP JUMPDEST PUSH1 0x1F ADD PUSH1 0x1F NOT AND ADD ADD SWAP1 JUMP JUMPDEST PUSH1 0x4 CALLDATALOAD SWAP1 PUSH1 0x1 PUSH1 0x1 PUSH1 0xA0 SHL SUB DUP3 AND DUP3 SUB PUSH2 0x18E JUMPI JUMP JUMPDEST PUSH2 0x180 DUP2 ADD SWAP1 DUP2 LT PUSH8 0xFFFFFFFFFFFFFFFF DUP3 GT OR PUSH2 0xB85 JUMPI PUSH1 0x40 MSTORE JUMP JUMPDEST SWAP1 PUSH1 0x1F DUP1 NOT SWAP2 ADD AND DUP2 ADD SWAP1 DUP2 LT PUSH8 0xFFFFFFFFFFFFFFFF DUP3 GT OR PUSH2 0xB85 JUMPI PUSH1 0x40 MSTORE JUMP JUMPDEST SWAP1 PUSH1 0x1 DUP3 DUP2 SHR SWAP3 AND DUP1 ISZERO PUSH2 0x140E JUMPI JUMPDEST PUSH1 0x20 DUP4 LT EQ PUSH2 0x13F8 JUMPI JUMP JUMPDEST PUSH4 0x4E487B71 PUSH1 0xE0 SHL PUSH1 0x0 MSTORE PUSH1 0x22 PUSH1 0x4 MSTORE PUSH1 0x24 PUSH1 0x0 REVERT JUMPDEST SWAP2 PUSH1 0x7F AND SWAP2 PUSH2 0x13ED JUMP JUMPDEST SWAP1 PUSH1 0x40 MLOAD SWAP2 DUP3 PUSH1 0x0 DUP3 SLOAD PUSH2 0x142B DUP2 PUSH2 0x13DE JUMP JUMPDEST SWAP1 DUP2 DUP5 MSTORE PUSH1 0x20 SWAP5 PUSH1 0x1 SWAP2 PUSH1 0x1 DUP2 AND SWAP1 DUP2 PUSH1 0x0 EQ PUSH2 0x149B JUMPI POP PUSH1 0x1 EQ PUSH2 0x145C JUMPI JUMPDEST POP POP POP PUSH2 0x145A SWAP3 POP SUB DUP4 PUSH2 0x13BC JUMP JUMPDEST JUMP JUMPDEST PUSH1 0x0 SWAP1 DUP2 MSTORE DUP6 DUP2 KECCAK256 SWAP6 SWAP4 POP SWAP2 SWAP1 JUMPDEST DUP2 DUP4 LT PUSH2 0x1483 JUMPI POP POP PUSH2 0x145A SWAP4 POP DUP3 ADD ADD CODESIZE DUP1 DUP1 PUSH2 0x144B JUMP JUMPDEST DUP6 SLOAD DUP9 DUP5 ADD DUP6 ADD MSTORE SWAP5 DUP6 ADD SWAP5 DUP8 SWAP5 POP SWAP2 DUP4 ADD SWAP2 PUSH2 0x146A JUMP JUMPDEST SWAP3 POP POP POP PUSH2 0x145A SWAP5 SWAP3 POP PUSH1 0xFF NOT AND DUP3 DUP5 ADD MSTORE ISZERO ISZERO PUSH1 0x5 SHL DUP3 ADD ADD CODESIZE DUP1 DUP1 PUSH2 0x144B JUMP JUMPDEST SWAP1 PUSH1 0x3 DUP3 LT ISZERO PUSH2 0xB9B JUMPI MSTORE JUMP JUMPDEST DUP1 SLOAD DUP3 LT ISZERO PUSH2 0x14E2 JUMPI PUSH1 0x0 MSTORE PUSH1 0x20 PUSH1 0x0 KECCAK256 ADD SWAP1 PUSH1 0x0 SWAP1 JUMP JUMPDEST PUSH4 0x4E487B71 PUSH1 0xE0 SHL PUSH1 0x0 MSTORE PUSH1 0x32 PUSH1 0x4 MSTORE PUSH1 0x24 PUSH1 0x0 REVERT JUMPDEST PUSH1 0x0 NOT DUP2 EQ PUSH2 0x1507 JUMPI PUSH1 0x1 ADD SWAP1 JUMP JUMPDEST PUSH4 0x4E487B71 PUSH1 0xE0 SHL PUSH1 0x0 MSTORE PUSH1 0x11 PUSH1 0x4 MSTORE PUSH1 0x24 PUSH1 0x0 REVERT JUMPDEST SWAP2 SWAP1 DUP3 ADD DUP1 SWAP3 GT PUSH2 0x1507 JUMPI JUMP JUMPDEST ISZERO PUSH2 0x1531 JUMPI JUMP JUMPDEST PUSH1 0x40 MLOAD PUSH3 0x461BCD PUSH1 0xE5 SHL DUP2 MSTORE PUSH1 0x20 PUSH1 0x4 DUP3 ADD MSTORE PUSH1 0x14 PUSH1 0x24 DUP3 ADD MSTORE PUSH20 0x13D999995C88191BD95CC81B9BDD08195E1A5CDD PUSH1 0x62 SHL PUSH1 0x44 DUP3 ADD MSTORE PUSH1 0x64 SWAP1 REVERT JUMPDEST ISZERO PUSH2 0x1574 JUMPI JUMP JUMPDEST PUSH1 0x40 MLOAD PUSH3 0x461BCD PUSH1 0xE5 SHL DUP2 MSTORE PUSH1 0x20 PUSH1 0x4 DUP3 ADD MSTORE PUSH1 0x1A PUSH1 0x24 DUP3 ADD MSTORE PUSH32 0x496E76616C696420747261646520616D6F756E742072616E6765000000000000 PUSH1 0x44 DUP3 ADD MSTORE PUSH1 0x64 SWAP1 REVERT JUMPDEST SWAP1 PUSH1 0x3 DUP2 LT ISZERO PUSH2 0xB9B JUMPI PUSH1 0xFF DUP1 NOT DUP4 SLOAD AND SWAP2 AND OR SWAP1 SSTORE JUMP JUMPDEST ISZERO PUSH2 0x15D8 JUMPI JUMP JUMPDEST PUSH1 0x40 MLOAD PUSH3 0x461BCD PUSH1 0xE5 SHL DUP2 MSTORE PUSH1 0x20 PUSH1 0x4 DUP3 ADD MSTORE PUSH1 0x2F PUSH1 0x24 DUP3 ADD MSTORE PUSH32 0x4F6E6C792074686520636F6E7472616374206F776E65722063616E2070657266 PUSH1 0x44 DUP3 ADD MSTORE PUSH15 0x37B936903A3434B99030B1BA34B7B7 PUSH1 0x89 SHL PUSH1 0x64 DUP3 ADD MSTORE PUSH1 0x84 SWAP1 REVERT JUMPDEST ISZERO PUSH2 0x163C JUMPI JUMP JUMPDEST PUSH1 0x40 MLOAD PUSH3 0x461BCD PUSH1 0xE5 SHL DUP2 MSTORE PUSH1 0x20 PUSH1 0x4 DUP3 ADD MSTORE PUSH1 0x12 PUSH1 0x24 DUP3 ADD MSTORE PUSH18 0x10DBDB9D1C9858DD081A5CC81C185D5CD959 PUSH1 0x72 SHL PUSH1 0x44 DUP3 ADD MSTORE PUSH1 0x64 SWAP1 REVERT INVALID LOG2 PUSH5 0x6970667358 0x22 SLT KECCAK256 SELFBALANCE DUP10 CHAINID AND 0xC8 MSIZE PUSH18 0x68D7B98DD25739D12E5DCA47A3612FD79E56 SWAP15 SWAP2 0xDD 0xC0 0x29 CODECOPY 0x4F PUSH5 0x736F6C6343 STOP ADDMOD XOR STOP CALLER "},"methodIdentifiers":{"getOfferCounts()":"10bcb2e2","getOfferDetails(uint256)":"4fb64be2","getUserOffers(address)":"661d2c2c","offerCount()":"1115c24d","offerCreate(uint256,uint256,string)":"6f086d3a","offerDisputeCounted(uint256,uint256)":"6862a30d","offerParametersUsed(address,bytes32)":"e7c84dee","offerUpdateOffer(uint256,uint256,uint256,uint8)":"261d8102","offers(uint256)":"8a72ea6a","owner()":"8da5cb5b","pauseContract()":"439766ce","paused()":"5c975abb","registry()":"7b103999","transferOwnership(address)":"f2fde38b","unpauseContract()":"b33712c5","updateOfferStats(uint256,uint256,bool,bool,bool,bool,uint256)":"d9efb457","userOffers(address,uint256)":"bd5fec65"}}}}}