{"contracts/Rating.sol":{"Rating":{"abi":[{"inputs":[{"internalType":"address","name":"_registryAddress","type":"address"}],"stateMutability":"nonpayable","type":"constructor"},{"anonymous":false,"inputs":[{"indexed":true,"internalType":"uint256","name":"tradeId","type":"uint256"},{"indexed":true,"internalType":"uint256","name":"offerId","type":"uint256"},{"indexed":true,"internalType":"address","name":"raterId","type":"address"},{"indexed":false,"internalType":"address","name":"rateeId","type":"address"},{"indexed":false,"internalType":"uint256","name":"rateStars","type":"uint256"},{"indexed":false,"internalType":"string","name":"rateString","type":"string"}],"name":"TradeRated","type":"event"},{"anonymous":false,"inputs":[{"indexed":true,"internalType":"address","name":"user","type":"address"},{"indexed":false,"internalType":"uint256","name":"newReputation","type":"uint256"}],"name":"UserReputationUpdated","type":"event"},{"inputs":[{"internalType":"uint256","name":"_tradeId","type":"uint256"},{"internalType":"uint256","name":"_rateStars","type":"uint256"},{"internalType":"string","name":"_rateString","type":"string"}],"name":"rateTrade","outputs":[],"stateMutability":"nonpayable","type":"function"},{"inputs":[],"name":"ratingCount","outputs":[{"internalType":"uint256","name":"","type":"uint256"}],"stateMutability":"view","type":"function"},{"inputs":[{"internalType":"uint256","name":"","type":"uint256"}],"name":"ratings","outputs":[{"internalType":"uint256","name":"tradeId","type":"uint256"},{"internalType":"uint256","name":"offerId","type":"uint256"},{"internalType":"address","name":"raterId","type":"address"},{"internalType":"address","name":"rateeId","type":"address"},{"internalType":"uint256","name":"rateStars","type":"uint256"},{"internalType":"string","name":"rateString","type":"string"},{"internalType":"uint256","name":"rateTimestamp","type":"uint256"}],"stateMutability":"view","type":"function"},{"inputs":[],"name":"registry","outputs":[{"internalType":"contract ContractRegistry","name":"","type":"address"}],"stateMutability":"view","type":"function"},{"inputs":[{"internalType":"uint256","name":"","type":"uint256"},{"internalType":"address","name":"","type":"address"}],"name":"tradeRatings","outputs":[{"internalType":"bool","name":"","type":"bool"}],"stateMutability":"view","type":"function"}],"evm":{"bytecode":{"linkReferences":{},"object":"6080346100be57601f6110c538819003918201601f19168301916001600160401b038311848410176100c3578084926020946040528339810103126100be57516001600160a01b038116908190036100be57801561007a57600080546001600160a01b031916919091179055604051610feb90816100da8239f35b606460405162461bcd60e51b815260206004820152602060248201527f496e76616c696420436f6e7472616374526567697374727920616464726573736044820152fd5b600080fd5b634e487b7160e01b600052604160045260246000fdfe608080604052600436101561001357600080fd5b60003560e01c9081632486408114610dd7575080635046fddd14610d855780635d30e84d14610c605780637b10399914610c3757638a2829e71461005657600080fd5b346106315760603660031901126106315760443567ffffffffffffffff8111610631573660238201121561063157806004013561009281610e96565b916100a06040519384610e2c565b8183523660248383010111610631578160009260246020930183860137830101526000546040516324ed653d60e11b81526001600160a01b039091169190602081600481865afa90811561063e57600091610bf8575b5060405163695730a560e01b8152600480359082015290600090829060249082906001600160a01b03165afa90811561063e57600091610bd2575b5015610b96576040516324ed653d60e11b8152602081600481865afa90811561063e57600091610b57575b5060405163695730a560e01b8152600480359082015290600090829060249082906001600160a01b03165afa90811561063e57600091610b30575b506008811015610b1a57600303610ad6576040516324ed653d60e11b8152602081600481865afa90811561063e57600091610a97575b5060405163695730a560e01b8152600480359082015290600090829060249082906001600160a01b03165afa90811561063e57600091610a70575b506040516324ed653d60e11b815290602082600481875afa91821561063e57600092610a31575b5060405163695730a560e01b8152600480359082015291600090839060249082906001600160a01b03165afa91821561063e57600092610a08575b506001600160a01b031633149081156109f5575b501561099d57600435600052600360205260406000203360005260205260ff6040600020541661094757600160243510158061093a575b156108e957610118815111610894576040516324ed653d60e11b815291602083600481845afa92831561063e57600093610855575b5060405163695730a560e01b8152600480359082015292600090849060249082906001600160a01b03165afa801561063e57600093600091610822575b50336001600160a01b0382160361081a5750602060049160405192838092633ea42de360e01b82525afa90811561063e576000916107db575b506040516327db25f160e11b81526004810184905290600090829060249082906001600160a01b03165afa90811561063e5760009161077d575b50905b6001549260001984146107675760018401600155604051938460e081011067ffffffffffffffff60e0870111176107515760019060e086016040526004358652826020870152336040870152818060a01b038516606087015260243560808701528360a08701524260c0870152016000526002602052604060002084518155602085015160018201556002810160018060a01b03604087015116906bffffffffffffffffffffffff60a01b9182825416179055600382019060018060a01b03606088015116908254161790556080850151600482015560a085015194855167ffffffffffffffff8111610751576104976005840154610df2565b601f811161070a575b506020601f821160011461069457918160c09260069460049a600092610689575b50508160011b916000199060031b1c19161760058501555b0151910155833560005260036020526040600020336000526020526040600020600160ff198254161790556040519160018060a01b03841683526024356020840152606060408401527ff86a35bc856c0d69e6f57923c29f575e9d9499a47a49e44d25c2a5d26eaf0fd03393806105568835946060830190610e71565b0390a4600054604051630f4d898960e11b81529260209184919082906001600160a01b03165afa91821561063e5760009261064a575b50604051633dda807160e11b81526001600160a01b038281166004830152909260209184916024918391600091165af191821561063e57600092610604575b506040519182526001600160a01b0316907f2ed0252b8901e5ebb800f47a9b16756f232137a30e26b272dae6b2a2baf4e00290602090a2005b9091506020813d602011610636575b8161062060209383610e2c565b8101031261063157519060206105cb565b600080fd5b3d9150610613565b6040513d6000823e3d90fd5b91506020823d602011610681575b8161066560209383610e2c565b8101031261063157602061067a600093610eb2565b925061058c565b3d9150610658565b0151905038806104c1565b6005840160005260206000209760005b601f19841681106106f25750826004996006959360019360c096601f198116106106d9575b505050811b0160058501556104d9565b015160001960f88460031b161c191690553880806106c9565b828201518a55600190990198602092830192016106a4565b600584016000526020600020601f830160051c81016020841061074a575b601f830160051c8201811061073e5750506104a0565b60008155600101610728565b5080610728565b634e487b7160e01b600052604160045260246000fd5b634e487b7160e01b600052601160045260246000fd5b90503d806000833e61078f8183610e2c565b810161018082820312610631576107a582610eb2565b9161010081015167ffffffffffffffff811161063157610120926107ca918301610ec6565b50015180151503610631573861039a565b90506020813d602011610812575b816107f660209383610e2c565b8101031261063157600061080b602492610eb2565b9150610360565b3d91506107e9565b90509061039d565b90506108429193503d806000833e61083a8183610e2c565b810190610f0b565b5050505050505050505092909238610327565b92506020833d60201161088c575b8161087060209383610e2c565b81010312610631576000610885602494610eb2565b93506102ea565b3d9150610863565b60405162461bcd60e51b815260206004820152602760248201527f526174696e6720737472696e67206d757374206e6f74206578636565642032386044820152663020627974657360c81b6064820152608490fd5b60405162461bcd60e51b8152602060048201526024808201527f526174696e67207374617273206d757374206265206265747765656e203120616044820152636e64203560e01b6064820152608490fd5b50600560243511156102b5565b60405162461bcd60e51b815260206004820152602860248201527f54726164652068617320616c7265616479206265656e207261746564206279206044820152673a3432903ab9b2b960c11b6064820152608490fd5b60405162461bcd60e51b815260206004820152602a60248201527f4f6e6c7920747261646520706172746965732063616e20706572666f726d20746044820152693434b99030b1ba34b7b760b11b6064820152608490fd5b6001600160a01b0316331490503861027e565b610a1e9192503d806000833e61083a8183610e2c565b505050505050505050509050903861026a565b91506020823d602011610a68575b81610a4c60209383610e2c565b81010312610631576000610a61602493610eb2565b925061022f565b3d9150610a3f565b610a8591503d806000833e61083a8183610e2c565b50505050505050505050905038610208565b90506020813d602011610ace575b81610ab260209383610e2c565b81010312610631576000610ac7602492610eb2565b91506101cd565b3d9150610aa5565b606460405162461bcd60e51b815260206004820152602060248201527f5472616465206973206e6f7420696e2066696e616c697a6564207374617475736044820152fd5b634e487b7160e01b600052602160045260246000fd5b610b4591503d806000833e61083a8183610e2c565b50505097505050505050505038610197565b90506020813d602011610b8e575b81610b7260209383610e2c565b81010312610631576000610b87602492610eb2565b915061015c565b3d9150610b65565b60405162461bcd60e51b8152602060048201526014602482015273151c98591948191bd95cc81b9bdd08195e1a5cdd60621b6044820152606490fd5b610be791503d806000833e61083a8183610e2c565b505050505050505050505038610131565b90506020813d602011610c2f575b81610c1360209383610e2c565b81010312610631576000610c28602492610eb2565b91506100f6565b3d9150610c06565b34610631576000366003190112610631576000546040516001600160a01b039091168152602090f35b346106315760208060031936011261063157600435600052600281526040600020805460019160018101549060018060a01b03806002830154169060038301541660048301549160058401936040519489600099825492610cc084610df2565b808a529360018116908115610d645750600114610d28575b50505050600690610cf086610d1e98999a0387610e2c565b015495604051988998895288015260408701526060860152608085015260e060a085015260e0840190610e71565b9060c08301520390f35b6000908152828120929b5092915b828410610d5157505050850190970196808986610d1e610cd8565b80548985018d0152928b01928101610d36565b60ff1916848b015250505090151560051b8601019750808986610d1e610cd8565b34610631576040366003190112610631576024356001600160a01b03811690819003610631576004356000526003602052604060002090600052602052602060ff604060002054166040519015158152f35b34610631576000366003190112610631576020906001548152f35b90600182811c92168015610e22575b6020831014610e0c57565b634e487b7160e01b600052602260045260246000fd5b91607f1691610e01565b90601f8019910116810190811067ffffffffffffffff82111761075157604052565b60005b838110610e615750506000910152565b8181015183820152602001610e51565b90602091610e8a81518092818552858086019101610e4e565b601f01601f1916010190565b67ffffffffffffffff811161075157601f01601f191660200190565b51906001600160a01b038216820361063157565b81601f82011215610631578051610edc81610e96565b92610eea6040519485610e2c565b8184526020828401011161063157610f089160208085019101610e4e565b90565b90916101808284031261063157815192610f2760208401610eb2565b9260408101519260608201519260808301519167ffffffffffffffff928381116106315782610f57918601610ec6565b9360a08101518481116106315783610f70918301610ec6565b9360c08201519360e083015191821161063157610f8e918301610ec6565b9161010082015160088110156106315791610120810151916101606101408301519201519056fea264697066735822122095aacfa54bb74469ab8dcaf32a3325a1d7759f63772a7b052762fd8fb5bb538664736f6c63430008180033","opcodes":"PUSH1 0x80 CALLVALUE PUSH2 0xBE JUMPI PUSH1 0x1F PUSH2 0x10C5 CODESIZE DUP2 SWAP1 SUB SWAP2 DUP3 ADD PUSH1 0x1F NOT AND DUP4 ADD SWAP2 PUSH1 0x1 PUSH1 0x1 PUSH1 0x40 SHL SUB DUP4 GT DUP5 DUP5 LT OR PUSH2 0xC3 JUMPI DUP1 DUP5 SWAP3 PUSH1 0x20 SWAP5 PUSH1 0x40 MSTORE DUP4 CODECOPY DUP2 ADD SUB SLT PUSH2 0xBE JUMPI MLOAD PUSH1 0x1 PUSH1 0x1 PUSH1 0xA0 SHL SUB DUP2 AND SWAP1 DUP2 SWAP1 SUB PUSH2 0xBE JUMPI DUP1 ISZERO PUSH2 0x7A JUMPI PUSH1 0x0 DUP1 SLOAD PUSH1 0x1 PUSH1 0x1 PUSH1 0xA0 SHL SUB NOT AND SWAP2 SWAP1 SWAP2 OR SWAP1 SSTORE PUSH1 0x40 MLOAD PUSH2 0xFEB SWAP1 DUP2 PUSH2 0xDA DUP3 CODECOPY RETURN JUMPDEST PUSH1 0x64 PUSH1 0x40 MLOAD PUSH3 0x461BCD PUSH1 0xE5 SHL DUP2 MSTORE PUSH1 0x20 PUSH1 0x4 DUP3 ADD MSTORE PUSH1 0x20 PUSH1 0x24 DUP3 ADD MSTORE PUSH32 0x496E76616C696420436F6E747261637452656769737472792061646472657373 PUSH1 0x44 DUP3 ADD MSTORE REVERT JUMPDEST PUSH1 0x0 DUP1 REVERT JUMPDEST PUSH4 0x4E487B71 PUSH1 0xE0 SHL PUSH1 0x0 MSTORE PUSH1 0x41 PUSH1 0x4 MSTORE PUSH1 0x24 PUSH1 0x0 REVERT INVALID PUSH1 0x80 DUP1 PUSH1 0x40 MSTORE PUSH1 0x4 CALLDATASIZE LT ISZERO PUSH2 0x13 JUMPI PUSH1 0x0 DUP1 REVERT JUMPDEST PUSH1 0x0 CALLDATALOAD PUSH1 0xE0 SHR SWAP1 DUP2 PUSH4 0x24864081 EQ PUSH2 0xDD7 JUMPI POP DUP1 PUSH4 0x5046FDDD EQ PUSH2 0xD85 JUMPI DUP1 PUSH4 0x5D30E84D EQ PUSH2 0xC60 JUMPI DUP1 PUSH4 0x7B103999 EQ PUSH2 0xC37 JUMPI PUSH4 0x8A2829E7 EQ PUSH2 0x56 JUMPI PUSH1 0x0 DUP1 REVERT JUMPDEST CALLVALUE PUSH2 0x631 JUMPI PUSH1 0x60 CALLDATASIZE PUSH1 0x3 NOT ADD SLT PUSH2 0x631 JUMPI PUSH1 0x44 CALLDATALOAD PUSH8 0xFFFFFFFFFFFFFFFF DUP2 GT PUSH2 0x631 JUMPI CALLDATASIZE PUSH1 0x23 DUP3 ADD SLT ISZERO PUSH2 0x631 JUMPI DUP1 PUSH1 0x4 ADD CALLDATALOAD PUSH2 0x92 DUP2 PUSH2 0xE96 JUMP JUMPDEST SWAP2 PUSH2 0xA0 PUSH1 0x40 MLOAD SWAP4 DUP5 PUSH2 0xE2C JUMP JUMPDEST DUP2 DUP4 MSTORE CALLDATASIZE PUSH1 0x24 DUP4 DUP4 ADD ADD GT PUSH2 0x631 JUMPI DUP2 PUSH1 0x0 SWAP3 PUSH1 0x24 PUSH1 0x20 SWAP4 ADD DUP4 DUP7 ADD CALLDATACOPY DUP4 ADD ADD MSTORE PUSH1 0x0 SLOAD PUSH1 0x40 MLOAD PUSH4 0x24ED653D PUSH1 0xE1 SHL DUP2 MSTORE PUSH1 0x1 PUSH1 0x1 PUSH1 0xA0 SHL SUB SWAP1 SWAP2 AND SWAP2 SWAP1 PUSH1 0x20 DUP2 PUSH1 0x4 DUP2 DUP7 GAS STATICCALL SWAP1 DUP2 ISZERO PUSH2 0x63E JUMPI PUSH1 0x0 SWAP2 PUSH2 0xBF8 JUMPI JUMPDEST POP PUSH1 0x40 MLOAD PUSH4 0x695730A5 PUSH1 0xE0 SHL DUP2 MSTORE PUSH1 0x4 DUP1 CALLDATALOAD SWAP1 DUP3 ADD MSTORE SWAP1 PUSH1 0x0 SWAP1 DUP3 SWAP1 PUSH1 0x24 SWAP1 DUP3 SWAP1 PUSH1 0x1 PUSH1 0x1 PUSH1 0xA0 SHL SUB AND GAS STATICCALL SWAP1 DUP2 ISZERO PUSH2 0x63E JUMPI PUSH1 0x0 SWAP2 PUSH2 0xBD2 JUMPI JUMPDEST POP ISZERO PUSH2 0xB96 JUMPI PUSH1 0x40 MLOAD PUSH4 0x24ED653D PUSH1 0xE1 SHL DUP2 MSTORE PUSH1 0x20 DUP2 PUSH1 0x4 DUP2 DUP7 GAS STATICCALL SWAP1 DUP2 ISZERO PUSH2 0x63E JUMPI PUSH1 0x0 SWAP2 PUSH2 0xB57 JUMPI JUMPDEST POP PUSH1 0x40 MLOAD PUSH4 0x695730A5 PUSH1 0xE0 SHL DUP2 MSTORE PUSH1 0x4 DUP1 CALLDATALOAD SWAP1 DUP3 ADD MSTORE SWAP1 PUSH1 0x0 SWAP1 DUP3 SWAP1 PUSH1 0x24 SWAP1 DUP3 SWAP1 PUSH1 0x1 PUSH1 0x1 PUSH1 0xA0 SHL SUB AND GAS STATICCALL SWAP1 DUP2 ISZERO PUSH2 0x63E JUMPI PUSH1 0x0 SWAP2 PUSH2 0xB30 JUMPI JUMPDEST POP PUSH1 0x8 DUP2 LT ISZERO PUSH2 0xB1A JUMPI PUSH1 0x3 SUB PUSH2 0xAD6 JUMPI PUSH1 0x40 MLOAD PUSH4 0x24ED653D PUSH1 0xE1 SHL DUP2 MSTORE PUSH1 0x20 DUP2 PUSH1 0x4 DUP2 DUP7 GAS STATICCALL SWAP1 DUP2 ISZERO PUSH2 0x63E JUMPI PUSH1 0x0 SWAP2 PUSH2 0xA97 JUMPI JUMPDEST POP PUSH1 0x40 MLOAD PUSH4 0x695730A5 PUSH1 0xE0 SHL DUP2 MSTORE PUSH1 0x4 DUP1 CALLDATALOAD SWAP1 DUP3 ADD MSTORE SWAP1 PUSH1 0x0 SWAP1 DUP3 SWAP1 PUSH1 0x24 SWAP1 DUP3 SWAP1 PUSH1 0x1 PUSH1 0x1 PUSH1 0xA0 SHL SUB AND GAS STATICCALL SWAP1 DUP2 ISZERO PUSH2 0x63E JUMPI PUSH1 0x0 SWAP2 PUSH2 0xA70 JUMPI JUMPDEST POP PUSH1 0x40 MLOAD PUSH4 0x24ED653D PUSH1 0xE1 SHL DUP2 MSTORE SWAP1 PUSH1 0x20 DUP3 PUSH1 0x4 DUP2 DUP8 GAS STATICCALL SWAP2 DUP3 ISZERO PUSH2 0x63E JUMPI PUSH1 0x0 SWAP3 PUSH2 0xA31 JUMPI JUMPDEST POP PUSH1 0x40 MLOAD PUSH4 0x695730A5 PUSH1 0xE0 SHL DUP2 MSTORE PUSH1 0x4 DUP1 CALLDATALOAD SWAP1 DUP3 ADD MSTORE SWAP2 PUSH1 0x0 SWAP1 DUP4 SWAP1 PUSH1 0x24 SWAP1 DUP3 SWAP1 PUSH1 0x1 PUSH1 0x1 PUSH1 0xA0 SHL SUB AND GAS STATICCALL SWAP2 DUP3 ISZERO PUSH2 0x63E JUMPI PUSH1 0x0 SWAP3 PUSH2 0xA08 JUMPI JUMPDEST POP PUSH1 0x1 PUSH1 0x1 PUSH1 0xA0 SHL SUB AND CALLER EQ SWAP1 DUP2 ISZERO PUSH2 0x9F5 JUMPI JUMPDEST POP ISZERO PUSH2 0x99D JUMPI PUSH1 0x4 CALLDATALOAD PUSH1 0x0 MSTORE PUSH1 0x3 PUSH1 0x20 MSTORE PUSH1 0x40 PUSH1 0x0 KECCAK256 CALLER PUSH1 0x0 MSTORE PUSH1 0x20 MSTORE PUSH1 0xFF PUSH1 0x40 PUSH1 0x0 KECCAK256 SLOAD AND PUSH2 0x947 JUMPI PUSH1 0x1 PUSH1 0x24 CALLDATALOAD LT ISZERO DUP1 PUSH2 0x93A JUMPI JUMPDEST ISZERO PUSH2 0x8E9 JUMPI PUSH2 0x118 DUP2 MLOAD GT PUSH2 0x894 JUMPI PUSH1 0x40 MLOAD PUSH4 0x24ED653D PUSH1 0xE1 SHL DUP2 MSTORE SWAP2 PUSH1 0x20 DUP4 PUSH1 0x4 DUP2 DUP5 GAS STATICCALL SWAP3 DUP4 ISZERO PUSH2 0x63E JUMPI PUSH1 0x0 SWAP4 PUSH2 0x855 JUMPI JUMPDEST POP PUSH1 0x40 MLOAD PUSH4 0x695730A5 PUSH1 0xE0 SHL DUP2 MSTORE PUSH1 0x4 DUP1 CALLDATALOAD SWAP1 DUP3 ADD MSTORE SWAP3 PUSH1 0x0 SWAP1 DUP5 SWAP1 PUSH1 0x24 SWAP1 DUP3 SWAP1 PUSH1 0x1 PUSH1 0x1 PUSH1 0xA0 SHL SUB AND GAS STATICCALL DUP1 ISZERO PUSH2 0x63E JUMPI PUSH1 0x0 SWAP4 PUSH1 0x0 SWAP2 PUSH2 0x822 JUMPI JUMPDEST POP CALLER PUSH1 0x1 PUSH1 0x1 PUSH1 0xA0 SHL SUB DUP3 AND SUB PUSH2 0x81A JUMPI POP PUSH1 0x20 PUSH1 0x4 SWAP2 PUSH1 0x40 MLOAD SWAP3 DUP4 DUP1 SWAP3 PUSH4 0x3EA42DE3 PUSH1 0xE0 SHL DUP3 MSTORE GAS STATICCALL SWAP1 DUP2 ISZERO PUSH2 0x63E JUMPI PUSH1 0x0 SWAP2 PUSH2 0x7DB JUMPI JUMPDEST POP PUSH1 0x40 MLOAD PUSH4 0x27DB25F1 PUSH1 0xE1 SHL DUP2 MSTORE PUSH1 0x4 DUP2 ADD DUP5 SWAP1 MSTORE SWAP1 PUSH1 0x0 SWAP1 DUP3 SWAP1 PUSH1 0x24 SWAP1 DUP3 SWAP1 PUSH1 0x1 PUSH1 0x1 PUSH1 0xA0 SHL SUB AND GAS STATICCALL SWAP1 DUP2 ISZERO PUSH2 0x63E JUMPI PUSH1 0x0 SWAP2 PUSH2 0x77D JUMPI JUMPDEST POP SWAP1 JUMPDEST PUSH1 0x1 SLOAD SWAP3 PUSH1 0x0 NOT DUP5 EQ PUSH2 0x767 JUMPI PUSH1 0x1 DUP5 ADD PUSH1 0x1 SSTORE PUSH1 0x40 MLOAD SWAP4 DUP5 PUSH1 0xE0 DUP2 ADD LT PUSH8 0xFFFFFFFFFFFFFFFF PUSH1 0xE0 DUP8 ADD GT OR PUSH2 0x751 JUMPI PUSH1 0x1 SWAP1 PUSH1 0xE0 DUP7 ADD PUSH1 0x40 MSTORE PUSH1 0x4 CALLDATALOAD DUP7 MSTORE DUP3 PUSH1 0x20 DUP8 ADD MSTORE CALLER PUSH1 0x40 DUP8 ADD MSTORE DUP2 DUP1 PUSH1 0xA0 SHL SUB DUP6 AND PUSH1 0x60 DUP8 ADD MSTORE PUSH1 0x24 CALLDATALOAD PUSH1 0x80 DUP8 ADD MSTORE DUP4 PUSH1 0xA0 DUP8 ADD MSTORE TIMESTAMP PUSH1 0xC0 DUP8 ADD MSTORE ADD PUSH1 0x0 MSTORE PUSH1 0x2 PUSH1 0x20 MSTORE PUSH1 0x40 PUSH1 0x0 KECCAK256 DUP5 MLOAD DUP2 SSTORE PUSH1 0x20 DUP6 ADD MLOAD PUSH1 0x1 DUP3 ADD SSTORE PUSH1 0x2 DUP2 ADD PUSH1 0x1 DUP1 PUSH1 0xA0 SHL SUB PUSH1 0x40 DUP8 ADD MLOAD AND SWAP1 PUSH12 0xFFFFFFFFFFFFFFFFFFFFFFFF PUSH1 0xA0 SHL SWAP2 DUP3 DUP3 SLOAD AND OR SWAP1 SSTORE PUSH1 0x3 DUP3 ADD SWAP1 PUSH1 0x1 DUP1 PUSH1 0xA0 SHL SUB PUSH1 0x60 DUP9 ADD MLOAD AND SWAP1 DUP3 SLOAD AND OR SWAP1 SSTORE PUSH1 0x80 DUP6 ADD MLOAD PUSH1 0x4 DUP3 ADD SSTORE PUSH1 0xA0 DUP6 ADD MLOAD SWAP5 DUP6 MLOAD PUSH8 0xFFFFFFFFFFFFFFFF DUP2 GT PUSH2 0x751 JUMPI PUSH2 0x497 PUSH1 0x5 DUP5 ADD SLOAD PUSH2 0xDF2 JUMP JUMPDEST PUSH1 0x1F DUP2 GT PUSH2 0x70A JUMPI JUMPDEST POP PUSH1 0x20 PUSH1 0x1F DUP3 GT PUSH1 0x1 EQ PUSH2 0x694 JUMPI SWAP2 DUP2 PUSH1 0xC0 SWAP3 PUSH1 0x6 SWAP5 PUSH1 0x4 SWAP11 PUSH1 0x0 SWAP3 PUSH2 0x689 JUMPI JUMPDEST POP POP DUP2 PUSH1 0x1 SHL SWAP2 PUSH1 0x0 NOT SWAP1 PUSH1 0x3 SHL SHR NOT AND OR PUSH1 0x5 DUP6 ADD SSTORE JUMPDEST ADD MLOAD SWAP2 ADD SSTORE DUP4 CALLDATALOAD PUSH1 0x0 MSTORE PUSH1 0x3 PUSH1 0x20 MSTORE PUSH1 0x40 PUSH1 0x0 KECCAK256 CALLER PUSH1 0x0 MSTORE PUSH1 0x20 MSTORE PUSH1 0x40 PUSH1 0x0 KECCAK256 PUSH1 0x1 PUSH1 0xFF NOT DUP3 SLOAD AND OR SWAP1 SSTORE PUSH1 0x40 MLOAD SWAP2 PUSH1 0x1 DUP1 PUSH1 0xA0 SHL SUB DUP5 AND DUP4 MSTORE PUSH1 0x24 CALLDATALOAD PUSH1 0x20 DUP5 ADD MSTORE PUSH1 0x60 PUSH1 0x40 DUP5 ADD MSTORE PUSH32 0xF86A35BC856C0D69E6F57923C29F575E9D9499A47A49E44D25C2A5D26EAF0FD0 CALLER SWAP4 DUP1 PUSH2 0x556 DUP9 CALLDATALOAD SWAP5 PUSH1 0x60 DUP4 ADD SWAP1 PUSH2 0xE71 JUMP JUMPDEST SUB SWAP1 LOG4 PUSH1 0x0 SLOAD PUSH1 0x40 MLOAD PUSH4 0xF4D8989 PUSH1 0xE1 SHL DUP2 MSTORE SWAP3 PUSH1 0x20 SWAP2 DUP5 SWAP2 SWAP1 DUP3 SWAP1 PUSH1 0x1 PUSH1 0x1 PUSH1 0xA0 SHL SUB AND GAS STATICCALL SWAP2 DUP3 ISZERO PUSH2 0x63E JUMPI PUSH1 0x0 SWAP3 PUSH2 0x64A JUMPI JUMPDEST POP PUSH1 0x40 MLOAD PUSH4 0x3DDA8071 PUSH1 0xE1 SHL DUP2 MSTORE PUSH1 0x1 PUSH1 0x1 PUSH1 0xA0 SHL SUB DUP3 DUP2 AND PUSH1 0x4 DUP4 ADD MSTORE SWAP1 SWAP3 PUSH1 0x20 SWAP2 DUP5 SWAP2 PUSH1 0x24 SWAP2 DUP4 SWAP2 PUSH1 0x0 SWAP2 AND GAS CALL SWAP2 DUP3 ISZERO PUSH2 0x63E JUMPI PUSH1 0x0 SWAP3 PUSH2 0x604 JUMPI JUMPDEST POP PUSH1 0x40 MLOAD SWAP2 DUP3 MSTORE PUSH1 0x1 PUSH1 0x1 PUSH1 0xA0 SHL SUB AND SWAP1 PUSH32 0x2ED0252B8901E5EBB800F47A9B16756F232137A30E26B272DAE6B2A2BAF4E002 SWAP1 PUSH1 0x20 SWAP1 LOG2 STOP JUMPDEST SWAP1 SWAP2 POP PUSH1 0x20 DUP2 RETURNDATASIZE PUSH1 0x20 GT PUSH2 0x636 JUMPI JUMPDEST DUP2 PUSH2 0x620 PUSH1 0x20 SWAP4 DUP4 PUSH2 0xE2C JUMP JUMPDEST DUP2 ADD SUB SLT PUSH2 0x631 JUMPI MLOAD SWAP1 PUSH1 0x20 PUSH2 0x5CB JUMP JUMPDEST PUSH1 0x0 DUP1 REVERT JUMPDEST RETURNDATASIZE SWAP2 POP PUSH2 0x613 JUMP JUMPDEST PUSH1 0x40 MLOAD RETURNDATASIZE PUSH1 0x0 DUP3 RETURNDATACOPY RETURNDATASIZE SWAP1 REVERT JUMPDEST SWAP2 POP PUSH1 0x20 DUP3 RETURNDATASIZE PUSH1 0x20 GT PUSH2 0x681 JUMPI JUMPDEST DUP2 PUSH2 0x665 PUSH1 0x20 SWAP4 DUP4 PUSH2 0xE2C JUMP JUMPDEST DUP2 ADD SUB SLT PUSH2 0x631 JUMPI PUSH1 0x20 PUSH2 0x67A PUSH1 0x0 SWAP4 PUSH2 0xEB2 JUMP JUMPDEST SWAP3 POP PUSH2 0x58C JUMP JUMPDEST RETURNDATASIZE SWAP2 POP PUSH2 0x658 JUMP JUMPDEST ADD MLOAD SWAP1 POP CODESIZE DUP1 PUSH2 0x4C1 JUMP JUMPDEST PUSH1 0x5 DUP5 ADD PUSH1 0x0 MSTORE PUSH1 0x20 PUSH1 0x0 KECCAK256 SWAP8 PUSH1 0x0 JUMPDEST PUSH1 0x1F NOT DUP5 AND DUP2 LT PUSH2 0x6F2 JUMPI POP DUP3 PUSH1 0x4 SWAP10 PUSH1 0x6 SWAP6 SWAP4 PUSH1 0x1 SWAP4 PUSH1 0xC0 SWAP7 PUSH1 0x1F NOT DUP2 AND LT PUSH2 0x6D9 JUMPI JUMPDEST POP POP POP DUP2 SHL ADD PUSH1 0x5 DUP6 ADD SSTORE PUSH2 0x4D9 JUMP JUMPDEST ADD MLOAD PUSH1 0x0 NOT PUSH1 0xF8 DUP5 PUSH1 0x3 SHL AND SHR NOT AND SWAP1 SSTORE CODESIZE DUP1 DUP1 PUSH2 0x6C9 JUMP JUMPDEST DUP3 DUP3 ADD MLOAD DUP11 SSTORE PUSH1 0x1 SWAP1 SWAP10 ADD SWAP9 PUSH1 0x20 SWAP3 DUP4 ADD SWAP3 ADD PUSH2 0x6A4 JUMP JUMPDEST PUSH1 0x5 DUP5 ADD PUSH1 0x0 MSTORE PUSH1 0x20 PUSH1 0x0 KECCAK256 PUSH1 0x1F DUP4 ADD PUSH1 0x5 SHR DUP2 ADD PUSH1 0x20 DUP5 LT PUSH2 0x74A JUMPI JUMPDEST PUSH1 0x1F DUP4 ADD PUSH1 0x5 SHR DUP3 ADD DUP2 LT PUSH2 0x73E JUMPI POP POP PUSH2 0x4A0 JUMP JUMPDEST PUSH1 0x0 DUP2 SSTORE PUSH1 0x1 ADD PUSH2 0x728 JUMP JUMPDEST POP DUP1 PUSH2 0x728 JUMP JUMPDEST PUSH4 0x4E487B71 PUSH1 0xE0 SHL PUSH1 0x0 MSTORE PUSH1 0x41 PUSH1 0x4 MSTORE PUSH1 0x24 PUSH1 0x0 REVERT JUMPDEST PUSH4 0x4E487B71 PUSH1 0xE0 SHL PUSH1 0x0 MSTORE PUSH1 0x11 PUSH1 0x4 MSTORE PUSH1 0x24 PUSH1 0x0 REVERT JUMPDEST SWAP1 POP RETURNDATASIZE DUP1 PUSH1 0x0 DUP4 RETURNDATACOPY PUSH2 0x78F DUP2 DUP4 PUSH2 0xE2C JUMP JUMPDEST DUP2 ADD PUSH2 0x180 DUP3 DUP3 SUB SLT PUSH2 0x631 JUMPI PUSH2 0x7A5 DUP3 PUSH2 0xEB2 JUMP JUMPDEST SWAP2 PUSH2 0x100 DUP2 ADD MLOAD PUSH8 0xFFFFFFFFFFFFFFFF DUP2 GT PUSH2 0x631 JUMPI PUSH2 0x120 SWAP3 PUSH2 0x7CA SWAP2 DUP4 ADD PUSH2 0xEC6 JUMP JUMPDEST POP ADD MLOAD DUP1 ISZERO ISZERO SUB PUSH2 0x631 JUMPI CODESIZE PUSH2 0x39A JUMP JUMPDEST SWAP1 POP PUSH1 0x20 DUP2 RETURNDATASIZE PUSH1 0x20 GT PUSH2 0x812 JUMPI JUMPDEST DUP2 PUSH2 0x7F6 PUSH1 0x20 SWAP4 DUP4 PUSH2 0xE2C JUMP JUMPDEST DUP2 ADD SUB SLT PUSH2 0x631 JUMPI PUSH1 0x0 PUSH2 0x80B PUSH1 0x24 SWAP3 PUSH2 0xEB2 JUMP JUMPDEST SWAP2 POP PUSH2 0x360 JUMP JUMPDEST RETURNDATASIZE SWAP2 POP PUSH2 0x7E9 JUMP JUMPDEST SWAP1 POP SWAP1 PUSH2 0x39D JUMP JUMPDEST SWAP1 POP PUSH2 0x842 SWAP2 SWAP4 POP RETURNDATASIZE DUP1 PUSH1 0x0 DUP4 RETURNDATACOPY PUSH2 0x83A DUP2 DUP4 PUSH2 0xE2C JUMP JUMPDEST DUP2 ADD SWAP1 PUSH2 0xF0B JUMP JUMPDEST POP POP POP POP POP POP POP POP POP POP SWAP3 SWAP1 SWAP3 CODESIZE PUSH2 0x327 JUMP JUMPDEST SWAP3 POP PUSH1 0x20 DUP4 RETURNDATASIZE PUSH1 0x20 GT PUSH2 0x88C JUMPI JUMPDEST DUP2 PUSH2 0x870 PUSH1 0x20 SWAP4 DUP4 PUSH2 0xE2C JUMP JUMPDEST DUP2 ADD SUB SLT PUSH2 0x631 JUMPI PUSH1 0x0 PUSH2 0x885 PUSH1 0x24 SWAP5 PUSH2 0xEB2 JUMP JUMPDEST SWAP4 POP PUSH2 0x2EA JUMP JUMPDEST RETURNDATASIZE SWAP2 POP PUSH2 0x863 JUMP JUMPDEST PUSH1 0x40 MLOAD PUSH3 0x461BCD PUSH1 0xE5 SHL DUP2 MSTORE PUSH1 0x20 PUSH1 0x4 DUP3 ADD MSTORE PUSH1 0x27 PUSH1 0x24 DUP3 ADD MSTORE PUSH32 0x526174696E6720737472696E67206D757374206E6F7420657863656564203238 PUSH1 0x44 DUP3 ADD MSTORE PUSH7 0x30206279746573 PUSH1 0xC8 SHL PUSH1 0x64 DUP3 ADD MSTORE PUSH1 0x84 SWAP1 REVERT JUMPDEST PUSH1 0x40 MLOAD PUSH3 0x461BCD PUSH1 0xE5 SHL DUP2 MSTORE PUSH1 0x20 PUSH1 0x4 DUP3 ADD MSTORE PUSH1 0x24 DUP1 DUP3 ADD MSTORE PUSH32 0x526174696E67207374617273206D757374206265206265747765656E20312061 PUSH1 0x44 DUP3 ADD MSTORE PUSH4 0x6E642035 PUSH1 0xE0 SHL PUSH1 0x64 DUP3 ADD MSTORE PUSH1 0x84 SWAP1 REVERT JUMPDEST POP PUSH1 0x5 PUSH1 0x24 CALLDATALOAD GT ISZERO PUSH2 0x2B5 JUMP JUMPDEST PUSH1 0x40 MLOAD PUSH3 0x461BCD PUSH1 0xE5 SHL DUP2 MSTORE PUSH1 0x20 PUSH1 0x4 DUP3 ADD MSTORE PUSH1 0x28 PUSH1 0x24 DUP3 ADD MSTORE PUSH32 0x54726164652068617320616C7265616479206265656E20726174656420627920 PUSH1 0x44 DUP3 ADD MSTORE PUSH8 0x3A3432903AB9B2B9 PUSH1 0xC1 SHL PUSH1 0x64 DUP3 ADD MSTORE PUSH1 0x84 SWAP1 REVERT JUMPDEST PUSH1 0x40 MLOAD PUSH3 0x461BCD PUSH1 0xE5 SHL DUP2 MSTORE PUSH1 0x20 PUSH1 0x4 DUP3 ADD MSTORE PUSH1 0x2A PUSH1 0x24 DUP3 ADD MSTORE PUSH32 0x4F6E6C7920747261646520706172746965732063616E20706572666F726D2074 PUSH1 0x44 DUP3 ADD MSTORE PUSH10 0x3434B99030B1BA34B7B7 PUSH1 0xB1 SHL PUSH1 0x64 DUP3 ADD MSTORE PUSH1 0x84 SWAP1 REVERT JUMPDEST PUSH1 0x1 PUSH1 0x1 PUSH1 0xA0 SHL SUB AND CALLER EQ SWAP1 POP CODESIZE PUSH2 0x27E JUMP JUMPDEST PUSH2 0xA1E SWAP2 SWAP3 POP RETURNDATASIZE DUP1 PUSH1 0x0 DUP4 RETURNDATACOPY PUSH2 0x83A DUP2 DUP4 PUSH2 0xE2C JUMP JUMPDEST POP POP POP POP POP POP POP POP POP POP SWAP1 POP SWAP1 CODESIZE PUSH2 0x26A JUMP JUMPDEST SWAP2 POP PUSH1 0x20 DUP3 RETURNDATASIZE PUSH1 0x20 GT PUSH2 0xA68 JUMPI JUMPDEST DUP2 PUSH2 0xA4C PUSH1 0x20 SWAP4 DUP4 PUSH2 0xE2C JUMP JUMPDEST DUP2 ADD SUB SLT PUSH2 0x631 JUMPI PUSH1 0x0 PUSH2 0xA61 PUSH1 0x24 SWAP4 PUSH2 0xEB2 JUMP JUMPDEST SWAP3 POP PUSH2 0x22F JUMP JUMPDEST RETURNDATASIZE SWAP2 POP PUSH2 0xA3F JUMP JUMPDEST PUSH2 0xA85 SWAP2 POP RETURNDATASIZE DUP1 PUSH1 0x0 DUP4 RETURNDATACOPY PUSH2 0x83A DUP2 DUP4 PUSH2 0xE2C JUMP JUMPDEST POP POP POP POP POP POP POP POP POP POP SWAP1 POP CODESIZE PUSH2 0x208 JUMP JUMPDEST SWAP1 POP PUSH1 0x20 DUP2 RETURNDATASIZE PUSH1 0x20 GT PUSH2 0xACE JUMPI JUMPDEST DUP2 PUSH2 0xAB2 PUSH1 0x20 SWAP4 DUP4 PUSH2 0xE2C JUMP JUMPDEST DUP2 ADD SUB SLT PUSH2 0x631 JUMPI PUSH1 0x0 PUSH2 0xAC7 PUSH1 0x24 SWAP3 PUSH2 0xEB2 JUMP JUMPDEST SWAP2 POP PUSH2 0x1CD JUMP JUMPDEST RETURNDATASIZE SWAP2 POP PUSH2 0xAA5 JUMP JUMPDEST PUSH1 0x64 PUSH1 0x40 MLOAD PUSH3 0x461BCD PUSH1 0xE5 SHL DUP2 MSTORE PUSH1 0x20 PUSH1 0x4 DUP3 ADD MSTORE PUSH1 0x20 PUSH1 0x24 DUP3 ADD MSTORE PUSH32 0x5472616465206973206E6F7420696E2066696E616C697A656420737461747573 PUSH1 0x44 DUP3 ADD MSTORE REVERT JUMPDEST PUSH4 0x4E487B71 PUSH1 0xE0 SHL PUSH1 0x0 MSTORE PUSH1 0x21 PUSH1 0x4 MSTORE PUSH1 0x24 PUSH1 0x0 REVERT JUMPDEST PUSH2 0xB45 SWAP2 POP RETURNDATASIZE DUP1 PUSH1 0x0 DUP4 RETURNDATACOPY PUSH2 0x83A DUP2 DUP4 PUSH2 0xE2C JUMP JUMPDEST POP POP POP SWAP8 POP POP POP POP POP POP POP POP CODESIZE PUSH2 0x197 JUMP JUMPDEST SWAP1 POP PUSH1 0x20 DUP2 RETURNDATASIZE PUSH1 0x20 GT PUSH2 0xB8E JUMPI JUMPDEST DUP2 PUSH2 0xB72 PUSH1 0x20 SWAP4 DUP4 PUSH2 0xE2C JUMP JUMPDEST DUP2 ADD SUB SLT PUSH2 0x631 JUMPI PUSH1 0x0 PUSH2 0xB87 PUSH1 0x24 SWAP3 PUSH2 0xEB2 JUMP JUMPDEST SWAP2 POP PUSH2 0x15C JUMP JUMPDEST RETURNDATASIZE SWAP2 POP PUSH2 0xB65 JUMP JUMPDEST PUSH1 0x40 MLOAD PUSH3 0x461BCD PUSH1 0xE5 SHL DUP2 MSTORE PUSH1 0x20 PUSH1 0x4 DUP3 ADD MSTORE PUSH1 0x14 PUSH1 0x24 DUP3 ADD MSTORE PUSH20 0x151C98591948191BD95CC81B9BDD08195E1A5CDD PUSH1 0x62 SHL PUSH1 0x44 DUP3 ADD MSTORE PUSH1 0x64 SWAP1 REVERT JUMPDEST PUSH2 0xBE7 SWAP2 POP RETURNDATASIZE DUP1 PUSH1 0x0 DUP4 RETURNDATACOPY PUSH2 0x83A DUP2 DUP4 PUSH2 0xE2C JUMP JUMPDEST POP POP POP POP POP POP POP POP POP POP POP CODESIZE PUSH2 0x131 JUMP JUMPDEST SWAP1 POP PUSH1 0x20 DUP2 RETURNDATASIZE PUSH1 0x20 GT PUSH2 0xC2F JUMPI JUMPDEST DUP2 PUSH2 0xC13 PUSH1 0x20 SWAP4 DUP4 PUSH2 0xE2C JUMP JUMPDEST DUP2 ADD SUB SLT PUSH2 0x631 JUMPI PUSH1 0x0 PUSH2 0xC28 PUSH1 0x24 SWAP3 PUSH2 0xEB2 JUMP JUMPDEST SWAP2 POP PUSH2 0xF6 JUMP JUMPDEST RETURNDATASIZE SWAP2 POP PUSH2 0xC06 JUMP JUMPDEST CALLVALUE PUSH2 0x631 JUMPI PUSH1 0x0 CALLDATASIZE PUSH1 0x3 NOT ADD SLT PUSH2 0x631 JUMPI PUSH1 0x0 SLOAD PUSH1 0x40 MLOAD PUSH1 0x1 PUSH1 0x1 PUSH1 0xA0 SHL SUB SWAP1 SWAP2 AND DUP2 MSTORE PUSH1 0x20 SWAP1 RETURN JUMPDEST CALLVALUE PUSH2 0x631 JUMPI PUSH1 0x20 DUP1 PUSH1 0x3 NOT CALLDATASIZE ADD SLT PUSH2 0x631 JUMPI PUSH1 0x4 CALLDATALOAD PUSH1 0x0 MSTORE PUSH1 0x2 DUP2 MSTORE PUSH1 0x40 PUSH1 0x0 KECCAK256 DUP1 SLOAD PUSH1 0x1 SWAP2 PUSH1 0x1 DUP2 ADD SLOAD SWAP1 PUSH1 0x1 DUP1 PUSH1 0xA0 SHL SUB DUP1 PUSH1 0x2 DUP4 ADD SLOAD AND SWAP1 PUSH1 0x3 DUP4 ADD SLOAD AND PUSH1 0x4 DUP4 ADD SLOAD SWAP2 PUSH1 0x5 DUP5 ADD SWAP4 PUSH1 0x40 MLOAD SWAP5 DUP10 PUSH1 0x0 SWAP10 DUP3 SLOAD SWAP3 PUSH2 0xCC0 DUP5 PUSH2 0xDF2 JUMP JUMPDEST DUP1 DUP11 MSTORE SWAP4 PUSH1 0x1 DUP2 AND SWAP1 DUP2 ISZERO PUSH2 0xD64 JUMPI POP PUSH1 0x1 EQ PUSH2 0xD28 JUMPI JUMPDEST POP POP POP POP PUSH1 0x6 SWAP1 PUSH2 0xCF0 DUP7 PUSH2 0xD1E SWAP9 SWAP10 SWAP11 SUB DUP8 PUSH2 0xE2C JUMP JUMPDEST ADD SLOAD SWAP6 PUSH1 0x40 MLOAD SWAP9 DUP10 SWAP9 DUP10 MSTORE DUP9 ADD MSTORE PUSH1 0x40 DUP8 ADD MSTORE PUSH1 0x60 DUP7 ADD MSTORE PUSH1 0x80 DUP6 ADD MSTORE PUSH1 0xE0 PUSH1 0xA0 DUP6 ADD MSTORE PUSH1 0xE0 DUP5 ADD SWAP1 PUSH2 0xE71 JUMP JUMPDEST SWAP1 PUSH1 0xC0 DUP4 ADD MSTORE SUB SWAP1 RETURN JUMPDEST PUSH1 0x0 SWAP1 DUP2 MSTORE DUP3 DUP2 KECCAK256 SWAP3 SWAP12 POP SWAP3 SWAP2 JUMPDEST DUP3 DUP5 LT PUSH2 0xD51 JUMPI POP POP POP DUP6 ADD SWAP1 SWAP8 ADD SWAP7 DUP1 DUP10 DUP7 PUSH2 0xD1E PUSH2 0xCD8 JUMP JUMPDEST DUP1 SLOAD DUP10 DUP6 ADD DUP14 ADD MSTORE SWAP3 DUP12 ADD SWAP3 DUP2 ADD PUSH2 0xD36 JUMP JUMPDEST PUSH1 0xFF NOT AND DUP5 DUP12 ADD MSTORE POP POP POP SWAP1 ISZERO ISZERO PUSH1 0x5 SHL DUP7 ADD ADD SWAP8 POP DUP1 DUP10 DUP7 PUSH2 0xD1E PUSH2 0xCD8 JUMP JUMPDEST CALLVALUE PUSH2 0x631 JUMPI PUSH1 0x40 CALLDATASIZE PUSH1 0x3 NOT ADD SLT PUSH2 0x631 JUMPI PUSH1 0x24 CALLDATALOAD PUSH1 0x1 PUSH1 0x1 PUSH1 0xA0 SHL SUB DUP2 AND SWAP1 DUP2 SWAP1 SUB PUSH2 0x631 JUMPI PUSH1 0x4 CALLDATALOAD PUSH1 0x0 MSTORE PUSH1 0x3 PUSH1 0x20 MSTORE PUSH1 0x40 PUSH1 0x0 KECCAK256 SWAP1 PUSH1 0x0 MSTORE PUSH1 0x20 MSTORE PUSH1 0x20 PUSH1 0xFF PUSH1 0x40 PUSH1 0x0 KECCAK256 SLOAD AND PUSH1 0x40 MLOAD SWAP1 ISZERO ISZERO DUP2 MSTORE RETURN JUMPDEST CALLVALUE PUSH2 0x631 JUMPI PUSH1 0x0 CALLDATASIZE PUSH1 0x3 NOT ADD SLT PUSH2 0x631 JUMPI PUSH1 0x20 SWAP1 PUSH1 0x1 SLOAD DUP2 MSTORE RETURN JUMPDEST SWAP1 PUSH1 0x1 DUP3 DUP2 SHR SWAP3 AND DUP1 ISZERO PUSH2 0xE22 JUMPI JUMPDEST PUSH1 0x20 DUP4 LT EQ PUSH2 0xE0C JUMPI JUMP JUMPDEST PUSH4 0x4E487B71 PUSH1 0xE0 SHL PUSH1 0x0 MSTORE PUSH1 0x22 PUSH1 0x4 MSTORE PUSH1 0x24 PUSH1 0x0 REVERT JUMPDEST SWAP2 PUSH1 0x7F AND SWAP2 PUSH2 0xE01 JUMP JUMPDEST SWAP1 PUSH1 0x1F DUP1 NOT SWAP2 ADD AND DUP2 ADD SWAP1 DUP2 LT PUSH8 0xFFFFFFFFFFFFFFFF DUP3 GT OR PUSH2 0x751 JUMPI PUSH1 0x40 MSTORE JUMP JUMPDEST PUSH1 0x0 JUMPDEST DUP4 DUP2 LT PUSH2 0xE61 JUMPI POP POP PUSH1 0x0 SWAP2 ADD MSTORE JUMP JUMPDEST DUP2 DUP2 ADD MLOAD DUP4 DUP3 ADD MSTORE PUSH1 0x20 ADD PUSH2 0xE51 JUMP JUMPDEST SWAP1 PUSH1 0x20 SWAP2 PUSH2 0xE8A DUP2 MLOAD DUP1 SWAP3 DUP2 DUP6 MSTORE DUP6 DUP1 DUP7 ADD SWAP2 ADD PUSH2 0xE4E JUMP JUMPDEST PUSH1 0x1F ADD PUSH1 0x1F NOT AND ADD ADD SWAP1 JUMP JUMPDEST PUSH8 0xFFFFFFFFFFFFFFFF DUP2 GT PUSH2 0x751 JUMPI PUSH1 0x1F ADD PUSH1 0x1F NOT AND PUSH1 0x20 ADD SWAP1 JUMP JUMPDEST MLOAD SWAP1 PUSH1 0x1 PUSH1 0x1 PUSH1 0xA0 SHL SUB DUP3 AND DUP3 SUB PUSH2 0x631 JUMPI JUMP JUMPDEST DUP2 PUSH1 0x1F DUP3 ADD SLT ISZERO PUSH2 0x631 JUMPI DUP1 MLOAD PUSH2 0xEDC DUP2 PUSH2 0xE96 JUMP JUMPDEST SWAP3 PUSH2 0xEEA PUSH1 0x40 MLOAD SWAP5 DUP6 PUSH2 0xE2C JUMP JUMPDEST DUP2 DUP5 MSTORE PUSH1 0x20 DUP3 DUP5 ADD ADD GT PUSH2 0x631 JUMPI PUSH2 0xF08 SWAP2 PUSH1 0x20 DUP1 DUP6 ADD SWAP2 ADD PUSH2 0xE4E JUMP JUMPDEST SWAP1 JUMP JUMPDEST SWAP1 SWAP2 PUSH2 0x180 DUP3 DUP5 SUB SLT PUSH2 0x631 JUMPI DUP2 MLOAD SWAP3 PUSH2 0xF27 PUSH1 0x20 DUP5 ADD PUSH2 0xEB2 JUMP JUMPDEST SWAP3 PUSH1 0x40 DUP2 ADD MLOAD SWAP3 PUSH1 0x60 DUP3 ADD MLOAD SWAP3 PUSH1 0x80 DUP4 ADD MLOAD SWAP2 PUSH8 0xFFFFFFFFFFFFFFFF SWAP3 DUP4 DUP2 GT PUSH2 0x631 JUMPI DUP3 PUSH2 0xF57 SWAP2 DUP7 ADD PUSH2 0xEC6 JUMP JUMPDEST SWAP4 PUSH1 0xA0 DUP2 ADD MLOAD DUP5 DUP2 GT PUSH2 0x631 JUMPI DUP4 PUSH2 0xF70 SWAP2 DUP4 ADD PUSH2 0xEC6 JUMP JUMPDEST SWAP4 PUSH1 0xC0 DUP3 ADD MLOAD SWAP4 PUSH1 0xE0 DUP4 ADD MLOAD SWAP2 DUP3 GT PUSH2 0x631 JUMPI PUSH2 0xF8E SWAP2 DUP4 ADD PUSH2 0xEC6 JUMP JUMPDEST SWAP2 PUSH2 0x100 DUP3 ADD MLOAD PUSH1 0x8 DUP2 LT ISZERO PUSH2 0x631 JUMPI SWAP2 PUSH2 0x120 DUP2 ADD MLOAD SWAP2 PUSH2 0x160 PUSH2 0x140 DUP4 ADD MLOAD SWAP3 ADD MLOAD SWAP1 JUMP INVALID LOG2 PUSH5 0x6970667358 0x22 SLT KECCAK256 SWAP6 0xAA 0xCF 0xA5 0x4B 0xB7 PREVRANDAO PUSH10 0xAB8DCAF32A3325A1D775 SWAP16 PUSH4 0x772A7B05 0x27 PUSH3 0xFD8FB5 0xBB MSTORE8 DUP7 PUSH5 0x736F6C6343 STOP ADDMOD XOR STOP CALLER "},"methodIdentifiers":{"rateTrade(uint256,uint256,string)":"8a2829e7","ratingCount()":"24864081","ratings(uint256)":"5d30e84d","registry()":"7b103999","tradeRatings(uint256,address)":"5046fddd"}}}}}