{"contracts/ContractRegistry.sol":{"ContractRegistry":{"abi":[{"inputs":[{"internalType":"address","name":"_accountAddress","type":"address"},{"internalType":"address","name":"_offerAddress","type":"address"},{"internalType":"address","name":"_tradeAddress","type":"address"},{"internalType":"address","name":"_escrowAddress","type":"address"},{"internalType":"address","name":"_ratingAddress","type":"address"},{"internalType":"address","name":"_reputationAddress","type":"address"},{"internalType":"address","name":"_arbitrationAddress","type":"address"}],"stateMutability":"nonpayable","type":"constructor"},{"anonymous":false,"inputs":[{"indexed":false,"internalType":"string","name":"contractName","type":"string"},{"indexed":false,"internalType":"address","name":"newAddress","type":"address"}],"name":"ContractAddressUpdated","type":"event"},{"inputs":[],"name":"accountAddress","outputs":[{"internalType":"address","name":"","type":"address"}],"stateMutability":"view","type":"function"},{"inputs":[],"name":"arbitrationAddress","outputs":[{"internalType":"address","name":"","type":"address"}],"stateMutability":"view","type":"function"},{"inputs":[],"name":"escrowAddress","outputs":[{"internalType":"address","name":"","type":"address"}],"stateMutability":"view","type":"function"},{"inputs":[],"name":"offerAddress","outputs":[{"internalType":"address","name":"","type":"address"}],"stateMutability":"view","type":"function"},{"inputs":[],"name":"owner","outputs":[{"internalType":"address","name":"","type":"address"}],"stateMutability":"view","type":"function"},{"inputs":[],"name":"ratingAddress","outputs":[{"internalType":"address","name":"","type":"address"}],"stateMutability":"view","type":"function"},{"inputs":[],"name":"reputationAddress","outputs":[{"internalType":"address","name":"","type":"address"}],"stateMutability":"view","type":"function"},{"inputs":[],"name":"tradeAddress","outputs":[{"internalType":"address","name":"","type":"address"}],"stateMutability":"view","type":"function"},{"inputs":[{"internalType":"address","name":"_accountAddress","type":"address"},{"internalType":"address","name":"_offerAddress","type":"address"},{"internalType":"address","name":"_tradeAddress","type":"address"},{"internalType":"address","name":"_escrowAddress","type":"address"},{"internalType":"address","name":"_ratingAddress","type":"address"},{"internalType":"address","name":"_reputationAddress","type":"address"},{"internalType":"address","name":"_arbitrationAddress","type":"address"}],"name":"updateAddresses","outputs":[],"stateMutability":"nonpayable","type":"function"}],"evm":{"bytecode":{"linkReferences":{},"object":"60803461010c57601f6105dd38819003918201601f19168301916001600160401b038311848410176101115780849260e09460405283398101031261010c5761004781610127565b9061005460208201610127565b61006060408301610127565b61006c60608401610127565b9261007960808201610127565b9261009260c061008b60a08501610127565b9301610127565b9360018060a01b0319963388600754161760075560018060a01b0396878096818096818096168d6000541617600055168b600154161760015516896002541617600255168760035416176003551685600454161760045516836005541617600555169060065416176006556040516104a1908161013c8239f35b600080fd5b634e487b7160e01b600052604160045260246000fd5b51906001600160a01b038216820361010c5756fe6080806040526004908136101561001557600080fd5b600091823560e01c9182630d5defa414610446575081631e9b13121461041f5781633ea42de3146103f657816349daca7a146103cd57816370505653146103a45781637b318154146103785781638c200c4f146100db575080638da5cb5b146100b25763e8c28ce31461008757600080fd5b346100af57806003193601126100af576005546040516001600160a01b039091168152602090f35b80fd5b50346100af57806003193601126100af576007546040516001600160a01b039091168152602090f35b82346100af5760e03660031901126100af5781356001600160a01b0381811693918490036103745760243593818516809503610370576044359482861680960361036c5760643583811680910361036857608435918483168093036103645760a435938585168095036103605760c43596868816880361035c578660075416330361030057847fa42de6429c1410f4470a8ff5afeeae27c734519ac1693e8eb58798a81715c94760808682828e9f829f829f9e9d9a8f908f869f869f9d8f95899f93899f968b988b9889968b986bffffffffffffffffffffffff60a01b9688888254161790558a8760015416176001558d8760025416176002558660035416176003558582541617905583600554161760055516906006541617600655604051906040825260076040830152661058d8dbdd5b9d60ca1b60608301526020820152a16040519060408252600560408301526427b33332b960d91b60608301526020820152a160405190604082526005604083015264547261646560d81b60608301526020820152a160405190604082526006604083015265457363726f7760d01b60608301526020820152a160405190604082526006604083015265526174696e6760d01b60608301526020820152a16040519060408252600a6040830152692932b83aba30ba34b7b760b11b60608301526020820152a16040519160408352600b60408401526a20b93134ba3930ba34b7b760a91b6060840152166020820152a180f35b60849060206040519162461bcd60e51b8352820152602f60248201527f4f6e6c792074686520636f6e7472616374206f776e65722063616e207065726660448201526e37b936903a3434b99030b1ba34b7b760891b6064820152fd5b8880fd5b8780fd5b8680fd5b8580fd5b8480fd5b8380fd5b8280fd5b9050346103a057816003193601126103a057546040516001600160a01b039091168152602090f35b5080fd5b82346100af57806003193601126100af576006546040516001600160a01b039091168152602090f35b82346100af57806003193601126100af576002546040516001600160a01b039091168152602090f35b82346100af57806003193601126100af576001546040516001600160a01b039091168152602090f35b82346100af57806003193601126100af57546040516001600160a01b039091168152602090f35b8390346103a057816003193601126103a0576003546001600160a01b03168152602090f3fea2646970667358221220df908f8646202edf6dba17128068fccac8451067d6d9cbba0c81aa98a11fda0164736f6c63430008180033","opcodes":"PUSH1 0x80 CALLVALUE PUSH2 0x10C JUMPI PUSH1 0x1F PUSH2 0x5DD CODESIZE DUP2 SWAP1 SUB SWAP2 DUP3 ADD PUSH1 0x1F NOT AND DUP4 ADD SWAP2 PUSH1 0x1 PUSH1 0x1 PUSH1 0x40 SHL SUB DUP4 GT DUP5 DUP5 LT OR PUSH2 0x111 JUMPI DUP1 DUP5 SWAP3 PUSH1 0xE0 SWAP5 PUSH1 0x40 MSTORE DUP4 CODECOPY DUP2 ADD SUB SLT PUSH2 0x10C JUMPI PUSH2 0x47 DUP2 PUSH2 0x127 JUMP JUMPDEST SWAP1 PUSH2 0x54 PUSH1 0x20 DUP3 ADD PUSH2 0x127 JUMP JUMPDEST PUSH2 0x60 PUSH1 0x40 DUP4 ADD PUSH2 0x127 JUMP JUMPDEST PUSH2 0x6C PUSH1 0x60 DUP5 ADD PUSH2 0x127 JUMP JUMPDEST SWAP3 PUSH2 0x79 PUSH1 0x80 DUP3 ADD PUSH2 0x127 JUMP JUMPDEST SWAP3 PUSH2 0x92 PUSH1 0xC0 PUSH2 0x8B PUSH1 0xA0 DUP6 ADD PUSH2 0x127 JUMP JUMPDEST SWAP4 ADD PUSH2 0x127 JUMP JUMPDEST SWAP4 PUSH1 0x1 DUP1 PUSH1 0xA0 SHL SUB NOT SWAP7 CALLER DUP9 PUSH1 0x7 SLOAD AND OR PUSH1 0x7 SSTORE PUSH1 0x1 DUP1 PUSH1 0xA0 SHL SUB SWAP7 DUP8 DUP1 SWAP7 DUP2 DUP1 SWAP7 DUP2 DUP1 SWAP7 AND DUP14 PUSH1 0x0 SLOAD AND OR PUSH1 0x0 SSTORE AND DUP12 PUSH1 0x1 SLOAD AND OR PUSH1 0x1 SSTORE AND DUP10 PUSH1 0x2 SLOAD AND OR PUSH1 0x2 SSTORE AND DUP8 PUSH1 0x3 SLOAD AND OR PUSH1 0x3 SSTORE AND DUP6 PUSH1 0x4 SLOAD AND OR PUSH1 0x4 SSTORE AND DUP4 PUSH1 0x5 SLOAD AND OR PUSH1 0x5 SSTORE AND SWAP1 PUSH1 0x6 SLOAD AND OR PUSH1 0x6 SSTORE PUSH1 0x40 MLOAD PUSH2 0x4A1 SWAP1 DUP2 PUSH2 0x13C DUP3 CODECOPY RETURN JUMPDEST PUSH1 0x0 DUP1 REVERT JUMPDEST PUSH4 0x4E487B71 PUSH1 0xE0 SHL PUSH1 0x0 MSTORE PUSH1 0x41 PUSH1 0x4 MSTORE PUSH1 0x24 PUSH1 0x0 REVERT JUMPDEST MLOAD SWAP1 PUSH1 0x1 PUSH1 0x1 PUSH1 0xA0 SHL SUB DUP3 AND DUP3 SUB PUSH2 0x10C JUMPI JUMP INVALID PUSH1 0x80 DUP1 PUSH1 0x40 MSTORE PUSH1 0x4 SWAP1 DUP2 CALLDATASIZE LT ISZERO PUSH2 0x15 JUMPI PUSH1 0x0 DUP1 REVERT JUMPDEST PUSH1 0x0 SWAP2 DUP3 CALLDATALOAD PUSH1 0xE0 SHR SWAP2 DUP3 PUSH4 0xD5DEFA4 EQ PUSH2 0x446 JUMPI POP DUP2 PUSH4 0x1E9B1312 EQ PUSH2 0x41F JUMPI DUP2 PUSH4 0x3EA42DE3 EQ PUSH2 0x3F6 JUMPI DUP2 PUSH4 0x49DACA7A EQ PUSH2 0x3CD JUMPI DUP2 PUSH4 0x70505653 EQ PUSH2 0x3A4 JUMPI DUP2 PUSH4 0x7B318154 EQ PUSH2 0x378 JUMPI DUP2 PUSH4 0x8C200C4F EQ PUSH2 0xDB JUMPI POP DUP1 PUSH4 0x8DA5CB5B EQ PUSH2 0xB2 JUMPI PUSH4 0xE8C28CE3 EQ PUSH2 0x87 JUMPI PUSH1 0x0 DUP1 REVERT JUMPDEST CALLVALUE PUSH2 0xAF JUMPI DUP1 PUSH1 0x3 NOT CALLDATASIZE ADD SLT PUSH2 0xAF JUMPI PUSH1 0x5 SLOAD PUSH1 0x40 MLOAD PUSH1 0x1 PUSH1 0x1 PUSH1 0xA0 SHL SUB SWAP1 SWAP2 AND DUP2 MSTORE PUSH1 0x20 SWAP1 RETURN JUMPDEST DUP1 REVERT JUMPDEST POP CALLVALUE PUSH2 0xAF JUMPI DUP1 PUSH1 0x3 NOT CALLDATASIZE ADD SLT PUSH2 0xAF JUMPI PUSH1 0x7 SLOAD PUSH1 0x40 MLOAD PUSH1 0x1 PUSH1 0x1 PUSH1 0xA0 SHL SUB SWAP1 SWAP2 AND DUP2 MSTORE PUSH1 0x20 SWAP1 RETURN JUMPDEST DUP3 CALLVALUE PUSH2 0xAF JUMPI PUSH1 0xE0 CALLDATASIZE PUSH1 0x3 NOT ADD SLT PUSH2 0xAF JUMPI DUP2 CALLDATALOAD PUSH1 0x1 PUSH1 0x1 PUSH1 0xA0 SHL SUB DUP2 DUP2 AND SWAP4 SWAP2 DUP5 SWAP1 SUB PUSH2 0x374 JUMPI PUSH1 0x24 CALLDATALOAD SWAP4 DUP2 DUP6 AND DUP1 SWAP6 SUB PUSH2 0x370 JUMPI PUSH1 0x44 CALLDATALOAD SWAP5 DUP3 DUP7 AND DUP1 SWAP7 SUB PUSH2 0x36C JUMPI PUSH1 0x64 CALLDATALOAD DUP4 DUP2 AND DUP1 SWAP2 SUB PUSH2 0x368 JUMPI PUSH1 0x84 CALLDATALOAD SWAP2 DUP5 DUP4 AND DUP1 SWAP4 SUB PUSH2 0x364 JUMPI PUSH1 0xA4 CALLDATALOAD SWAP4 DUP6 DUP6 AND DUP1 SWAP6 SUB PUSH2 0x360 JUMPI PUSH1 0xC4 CALLDATALOAD SWAP7 DUP7 DUP9 AND DUP9 SUB PUSH2 0x35C JUMPI DUP7 PUSH1 0x7 SLOAD AND CALLER SUB PUSH2 0x300 JUMPI DUP5 PUSH32 0xA42DE6429C1410F4470A8FF5AFEEAE27C734519AC1693E8EB58798A81715C947 PUSH1 0x80 DUP7 DUP3 DUP3 DUP15 SWAP16 DUP3 SWAP16 DUP3 SWAP16 SWAP15 SWAP14 SWAP11 DUP16 SWAP1 DUP16 DUP7 SWAP16 DUP7 SWAP16 SWAP14 DUP16 SWAP6 DUP10 SWAP16 SWAP4 DUP10 SWAP16 SWAP7 DUP12 SWAP9 DUP12 SWAP9 DUP10 SWAP7 DUP12 SWAP9 PUSH12 0xFFFFFFFFFFFFFFFFFFFFFFFF PUSH1 0xA0 SHL SWAP7 DUP9 DUP9 DUP3 SLOAD AND OR SWAP1 SSTORE DUP11 DUP8 PUSH1 0x1 SLOAD AND OR PUSH1 0x1 SSTORE DUP14 DUP8 PUSH1 0x2 SLOAD AND OR PUSH1 0x2 SSTORE DUP7 PUSH1 0x3 SLOAD AND OR PUSH1 0x3 SSTORE DUP6 DUP3 SLOAD AND OR SWAP1 SSTORE DUP4 PUSH1 0x5 SLOAD AND OR PUSH1 0x5 SSTORE AND SWAP1 PUSH1 0x6 SLOAD AND OR PUSH1 0x6 SSTORE PUSH1 0x40 MLOAD SWAP1 PUSH1 0x40 DUP3 MSTORE PUSH1 0x7 PUSH1 0x40 DUP4 ADD MSTORE PUSH7 0x1058D8DBDD5B9D PUSH1 0xCA SHL PUSH1 0x60 DUP4 ADD MSTORE PUSH1 0x20 DUP3 ADD MSTORE LOG1 PUSH1 0x40 MLOAD SWAP1 PUSH1 0x40 DUP3 MSTORE PUSH1 0x5 PUSH1 0x40 DUP4 ADD MSTORE PUSH5 0x27B33332B9 PUSH1 0xD9 SHL PUSH1 0x60 DUP4 ADD MSTORE PUSH1 0x20 DUP3 ADD MSTORE LOG1 PUSH1 0x40 MLOAD SWAP1 PUSH1 0x40 DUP3 MSTORE PUSH1 0x5 PUSH1 0x40 DUP4 ADD MSTORE PUSH5 0x5472616465 PUSH1 0xD8 SHL PUSH1 0x60 DUP4 ADD MSTORE PUSH1 0x20 DUP3 ADD MSTORE LOG1 PUSH1 0x40 MLOAD SWAP1 PUSH1 0x40 DUP3 MSTORE PUSH1 0x6 PUSH1 0x40 DUP4 ADD MSTORE PUSH6 0x457363726F77 PUSH1 0xD0 SHL PUSH1 0x60 DUP4 ADD MSTORE PUSH1 0x20 DUP3 ADD MSTORE LOG1 PUSH1 0x40 MLOAD SWAP1 PUSH1 0x40 DUP3 MSTORE PUSH1 0x6 PUSH1 0x40 DUP4 ADD MSTORE PUSH6 0x526174696E67 PUSH1 0xD0 SHL PUSH1 0x60 DUP4 ADD MSTORE PUSH1 0x20 DUP3 ADD MSTORE LOG1 PUSH1 0x40 MLOAD SWAP1 PUSH1 0x40 DUP3 MSTORE PUSH1 0xA PUSH1 0x40 DUP4 ADD MSTORE PUSH10 0x2932B83ABA30BA34B7B7 PUSH1 0xB1 SHL PUSH1 0x60 DUP4 ADD MSTORE PUSH1 0x20 DUP3 ADD MSTORE LOG1 PUSH1 0x40 MLOAD SWAP2 PUSH1 0x40 DUP4 MSTORE PUSH1 0xB PUSH1 0x40 DUP5 ADD MSTORE PUSH11 0x20B93134BA3930BA34B7B7 PUSH1 0xA9 SHL PUSH1 0x60 DUP5 ADD MSTORE AND PUSH1 0x20 DUP3 ADD MSTORE LOG1 DUP1 RETURN JUMPDEST PUSH1 0x84 SWAP1 PUSH1 0x20 PUSH1 0x40 MLOAD SWAP2 PUSH3 0x461BCD PUSH1 0xE5 SHL DUP4 MSTORE DUP3 ADD MSTORE PUSH1 0x2F PUSH1 0x24 DUP3 ADD MSTORE PUSH32 0x4F6E6C792074686520636F6E7472616374206F776E65722063616E2070657266 PUSH1 0x44 DUP3 ADD MSTORE PUSH15 0x37B936903A3434B99030B1BA34B7B7 PUSH1 0x89 SHL PUSH1 0x64 DUP3 ADD MSTORE REVERT JUMPDEST DUP9 DUP1 REVERT JUMPDEST DUP8 DUP1 REVERT JUMPDEST DUP7 DUP1 REVERT JUMPDEST DUP6 DUP1 REVERT JUMPDEST DUP5 DUP1 REVERT JUMPDEST DUP4 DUP1 REVERT JUMPDEST DUP3 DUP1 REVERT JUMPDEST SWAP1 POP CALLVALUE PUSH2 0x3A0 JUMPI DUP2 PUSH1 0x3 NOT CALLDATASIZE ADD SLT PUSH2 0x3A0 JUMPI SLOAD PUSH1 0x40 MLOAD PUSH1 0x1 PUSH1 0x1 PUSH1 0xA0 SHL SUB SWAP1 SWAP2 AND DUP2 MSTORE PUSH1 0x20 SWAP1 RETURN JUMPDEST POP DUP1 REVERT JUMPDEST DUP3 CALLVALUE PUSH2 0xAF JUMPI DUP1 PUSH1 0x3 NOT CALLDATASIZE ADD SLT PUSH2 0xAF JUMPI PUSH1 0x6 SLOAD PUSH1 0x40 MLOAD PUSH1 0x1 PUSH1 0x1 PUSH1 0xA0 SHL SUB SWAP1 SWAP2 AND DUP2 MSTORE PUSH1 0x20 SWAP1 RETURN JUMPDEST DUP3 CALLVALUE PUSH2 0xAF JUMPI DUP1 PUSH1 0x3 NOT CALLDATASIZE ADD SLT PUSH2 0xAF JUMPI PUSH1 0x2 SLOAD PUSH1 0x40 MLOAD PUSH1 0x1 PUSH1 0x1 PUSH1 0xA0 SHL SUB SWAP1 SWAP2 AND DUP2 MSTORE PUSH1 0x20 SWAP1 RETURN JUMPDEST DUP3 CALLVALUE PUSH2 0xAF JUMPI DUP1 PUSH1 0x3 NOT CALLDATASIZE ADD SLT PUSH2 0xAF JUMPI PUSH1 0x1 SLOAD PUSH1 0x40 MLOAD PUSH1 0x1 PUSH1 0x1 PUSH1 0xA0 SHL SUB SWAP1 SWAP2 AND DUP2 MSTORE PUSH1 0x20 SWAP1 RETURN JUMPDEST DUP3 CALLVALUE PUSH2 0xAF JUMPI DUP1 PUSH1 0x3 NOT CALLDATASIZE ADD SLT PUSH2 0xAF JUMPI SLOAD PUSH1 0x40 MLOAD PUSH1 0x1 PUSH1 0x1 PUSH1 0xA0 SHL SUB SWAP1 SWAP2 AND DUP2 MSTORE PUSH1 0x20 SWAP1 RETURN JUMPDEST DUP4 SWAP1 CALLVALUE PUSH2 0x3A0 JUMPI DUP2 PUSH1 0x3 NOT CALLDATASIZE ADD SLT PUSH2 0x3A0 JUMPI PUSH1 0x3 SLOAD PUSH1 0x1 PUSH1 0x1 PUSH1 0xA0 SHL SUB AND DUP2 MSTORE PUSH1 0x20 SWAP1 RETURN INVALID LOG2 PUSH5 0x6970667358 0x22 SLT KECCAK256 0xDF SWAP1 DUP16 DUP7 CHAINID KECCAK256 0x2E 0xDF PUSH14 0xBA17128068FCCAC8451067D6D9CB 0xBA 0xC DUP2 0xAA SWAP9 LOG1 0x1F 0xDA ADD PUSH5 0x736F6C6343 STOP ADDMOD XOR STOP CALLER "},"methodIdentifiers":{"accountAddress()":"1e9b1312","arbitrationAddress()":"70505653","escrowAddress()":"0d5defa4","offerAddress()":"3ea42de3","owner()":"8da5cb5b","ratingAddress()":"7b318154","reputationAddress()":"e8c28ce3","tradeAddress()":"49daca7a","updateAddresses(address,address,address,address,address,address,address)":"8c200c4f"}}}}}