{"contracts/Arbitration.sol":{"Arbitration":{"abi":[{"inputs":[{"internalType":"address","name":"_admin","type":"address"},{"internalType":"address","name":"_registryAddress","type":"address"}],"stateMutability":"nonpayable","type":"constructor"},{"anonymous":false,"inputs":[{"indexed":true,"internalType":"uint256","name":"tradeId","type":"uint256"},{"indexed":false,"internalType":"uint256","name":"disputeId","type":"uint256"}],"name":"DisputeCreated","type":"event"},{"anonymous":false,"inputs":[{"indexed":true,"internalType":"uint256","name":"tradeId","type":"uint256"},{"indexed":false,"internalType":"uint256","name":"disputeId","type":"uint256"},{"indexed":true,"internalType":"address","name":"submitter","type":"address"},{"indexed":false,"internalType":"string","name":"evidence","type":"string"}],"name":"DisputeEvidenceSubmitted","type":"event"},{"anonymous":false,"inputs":[{"indexed":true,"internalType":"uint256","name":"tradeId","type":"uint256"},{"indexed":false,"internalType":"uint256","name":"disputeId","type":"uint256"}],"name":"DisputeResolutionCanceled","type":"event"},{"anonymous":false,"inputs":[{"indexed":true,"internalType":"uint256","name":"tradeId","type":"uint256"},{"indexed":false,"internalType":"uint256","name":"disputeId","type":"uint256"},{"indexed":false,"internalType":"uint256","name":"resolutionTimestamp","type":"uint256"}],"name":"DisputeResolutionInitiated","type":"event"},{"anonymous":false,"inputs":[{"indexed":true,"internalType":"uint256","name":"tradeId","type":"uint256"},{"indexed":false,"internalType":"uint256","name":"disputeId","type":"uint256"}],"name":"DisputeResolutionTimelockExpired","type":"event"},{"anonymous":false,"inputs":[{"indexed":true,"internalType":"uint256","name":"tradeId","type":"uint256"},{"indexed":false,"internalType":"uint256","name":"disputeId","type":"uint256"},{"indexed":false,"internalType":"bool","name":"resolvedInFavorOfMaker","type":"bool"}],"name":"DisputeResolved","type":"event"},{"anonymous":false,"inputs":[{"indexed":false,"internalType":"uint256","name":"newTimelock","type":"uint256"}],"name":"ResolutionTimelockUpdated","type":"event"},{"inputs":[],"name":"admin","outputs":[{"internalType":"address","name":"","type":"address"}],"stateMutability":"view","type":"function"},{"inputs":[{"internalType":"uint256","name":"_disputeId","type":"uint256"}],"name":"cancelDisputeResolution","outputs":[],"stateMutability":"nonpayable","type":"function"},{"inputs":[],"name":"disputeCount","outputs":[{"internalType":"uint256","name":"","type":"uint256"}],"stateMutability":"view","type":"function"},{"inputs":[{"internalType":"uint256","name":"","type":"uint256"},{"internalType":"uint256","name":"","type":"uint256"}],"name":"disputeEvidence","outputs":[{"internalType":"string","name":"","type":"string"}],"stateMutability":"view","type":"function"},{"inputs":[{"internalType":"uint256","name":"","type":"uint256"}],"name":"disputes","outputs":[{"internalType":"uint256","name":"tradeId","type":"uint256"},{"internalType":"enum Arbitration.DisputeStatus","name":"status","type":"uint8"},{"internalType":"uint256","name":"disputeTimestamp","type":"uint256"},{"internalType":"uint256","name":"resolveTimestamp","type":"uint256"},{"internalType":"bool","name":"resolvedInFavorOfMaker","type":"bool"}],"stateMutability":"view","type":"function"},{"inputs":[{"internalType":"uint256","name":"_disputeId","type":"uint256"}],"name":"getDisputeDetails","outputs":[{"internalType":"uint256","name":"tradeId","type":"uint256"},{"internalType":"enum Arbitration.DisputeStatus","name":"status","type":"uint8"},{"internalType":"uint256","name":"disputeTimestamp","type":"uint256"},{"internalType":"uint256","name":"resolveTimestamp","type":"uint256"},{"internalType":"bool","name":"resolvedInFavorOfMaker","type":"bool"}],"stateMutability":"view","type":"function"},{"inputs":[{"internalType":"uint256","name":"_tradeId","type":"uint256"}],"name":"getDisputeOutcome","outputs":[{"internalType":"bool","name":"","type":"bool"}],"stateMutability":"view","type":"function"},{"inputs":[{"internalType":"uint256","name":"_tradeId","type":"uint256"}],"name":"handleDispute","outputs":[],"stateMutability":"nonpayable","type":"function"},{"inputs":[{"internalType":"uint256","name":"_disputeId","type":"uint256"},{"internalType":"bool","name":"_resolveInFavorOfMaker","type":"bool"}],"name":"initiateDisputeResolution","outputs":[],"stateMutability":"nonpayable","type":"function"},{"inputs":[{"internalType":"uint256","name":"_tradeId","type":"uint256"}],"name":"isDisputeResolved","outputs":[{"internalType":"bool","name":"","type":"bool"}],"stateMutability":"view","type":"function"},{"inputs":[],"name":"registry","outputs":[{"internalType":"contract ContractRegistry","name":"","type":"address"}],"stateMutability":"view","type":"function"},{"inputs":[],"name":"resolutionTimelock","outputs":[{"internalType":"uint256","name":"","type":"uint256"}],"stateMutability":"view","type":"function"},{"inputs":[{"internalType":"uint256","name":"_disputeId","type":"uint256"},{"internalType":"bool","name":"_resolveInFavorOfMaker","type":"bool"}],"name":"resolveDispute","outputs":[],"stateMutability":"nonpayable","type":"function"},{"inputs":[{"internalType":"uint256","name":"_disputeId","type":"uint256"}],"name":"resolveDisputeAfterTimelock","outputs":[],"stateMutability":"nonpayable","type":"function"},{"inputs":[{"internalType":"uint256","name":"_tradeId","type":"uint256"},{"internalType":"string","name":"_evidence","type":"string"}],"name":"submitEvidence","outputs":[],"stateMutability":"nonpayable","type":"function"},{"inputs":[{"internalType":"uint256","name":"","type":"uint256"}],"name":"tradeDisputeIds","outputs":[{"internalType":"uint256","name":"","type":"uint256"}],"stateMutability":"view","type":"function"},{"inputs":[{"internalType":"uint256","name":"_newTimelock","type":"uint256"}],"name":"updateResolutionTimelock","outputs":[],"stateMutability":"nonpayable","type":"function"}],"evm":{"bytecode":{"linkReferences":{},"object":"6080346200013157601f620023f338819003918201601f19168301916001600160401b038311848410176200013657808492604094855283398101031262000131576200005a602062000052836200014c565b92016200014c565b620151806002556001600160a01b0391821691908215620000ec5716908115620000a85760018060a01b03199081600054161760005560015416176001556040516122919081620001628239f35b606460405162461bcd60e51b815260206004820152602060248201527f496e76616c696420436f6e7472616374526567697374727920616464726573736044820152fd5b60405162461bcd60e51b815260206004820152601560248201527f496e76616c69642061646d696e206164647265737300000000000000000000006044820152606490fd5b600080fd5b634e487b7160e01b600052604160045260246000fd5b51906001600160a01b0382168203620001315756fe60806040818152600436101561001457600080fd5b600091823560e01c908163155e5fce14611cf8575080632d5db63014611bef57806334b25ee21461180257806339f0a711146116ec5780633d8f6e3b146115ef5780634b54a37914611240578063564a565d146111f45780637b103999146111cc57806390bad670146111ae5780639aaf3017146108c15780639bdad207146107f9578063a28889e1146107db578063a6a7f0eb1461023f578063dd2163f214610217578063ea89735d14610161578063f5439d6e146101075763f851a440146100dd57600080fd5b34610103578160031936011261010357905490516001600160a01b039091168152602090f35b5080fd5b50346101035760203660031901126101035760207f66c54fe8553b9f531053cc67de0a61d081aee025e39422c023c53175b1db0ec7916004359061015560018060a01b038654163314612107565b8160025551908152a180f35b50346101035760203660031901126101035780916004358015158061020b575b61018a9061215e565b81526004602052209080519161019f83611ecc565b8054835260ff6001820154169260038410156101f5576101f1918460208301526002810154808584015260ff600460038401549384606087015201541615159283608082015251945195869586611f76565b0390f35b634e487b7160e01b600052602160045260246000fd5b50600354811115610181565b5034610103576020366003190112610103578060209260043581526005845220549051908152f35b5034610103578060031936011261010357600435602467ffffffffffffffff81358181116107d757366023820112156107d7578060040135928661028285611fa5565b9261028f88519485611ee8565b8584526020953684828401011161076957808488930183870137840101526001805487516324ed653d60e11b80825292959290916001600160a01b0391908b908b9084168a86600481845afa80156106ee578c968491610799575b508386918a85518094819363695730a560e01b9c8d84526004840152165afa801561072257610322918591610774575b5015156120c4565b81518481528b81600481855afa9081156107225786918a8f8793849361072f575b50865194859384928d84526004840152165afa948515610722578c9185966106fa575b50600484518094819382525afa9586156106ee578c92899285986106af575b50869051978894859384526004840152165afa9283156106a5578b93610672575b5081163314918215610665575b50501561060f578588526005855286882054936103d18515156121ef565b8489526004865260ff81898b2001541660038110156105fc576105bb5784895260068652878920805490680100000000000000008210156105a8579061041b918382018155611e3a565b93909361059657845192831161058457506104368354611e68565b601f811161053e575b5085601f83116001146104b7579180806104a695937f8722164b9614b32a2b746677da9825964edb315b8226c7cec2996a2779d01885999897958d936104ac575b501b916000199060031b1c19161790555b86805194859485528401523396830190611f2d565b0390a380f35b860151925038610480565b838a52868a2091929190601f1983168b5b81811061052957509183916104a696947f8722164b9614b32a2b746677da9825964edb315b8226c7cec2996a2779d018859a9998969410610510575b5050811b019055610491565b85015160001960f88460031b161c191690553880610504565b878301518455928501929189019189016104c8565b838a52868a20601f840160051c81019188851061057a575b601f0160051c019082905b82811061056f57505061043f565b8b8155018290610561565b9091508190610556565b634e487b7160e01b8a52604160045289fd5b634e487b7160e01b8a5260048a905289fd5b634e487b7160e01b8b526041600452848bfd5b606483878a519162461bcd60e51b83528160048401528201527f44697370757465206973206e6f7420696e2070656e64696e67207374617475736044820152fd5b634e487b7160e01b8a526021600452838afd5b865162461bcd60e51b815260048101869052602a818401527f4f6e6c7920747261646520706172746965732063616e20706572666f726d20746044820152693434b99030b1ba34b7b760b11b6064820152608490fd5b90915016331438806103b3565b82919350610692908c3d8091833e61068a8183611ee8565b81019061201a565b50505050505050505050905092906103a6565b8a513d8d823e3d90fd5b9750509150508985813d83116106e7575b6106ca8183611ee8565b8101031261010357868b91856106e08f98611fc1565b9790610385565b503d6106c0565b505051903d90823e3d90fd5b61070f9196503d8087833e61068a8183611ee8565b5050505050505050505090509438610366565b50505051903d90823e3d90fd5b965050505050508a82813d831161076d575b61074b8183611ee8565b810103126107695784838d8f946107628c91611fc1565b9138610343565b8280fd5b503d610741565b61078891503d8087833e61068a8183611ee8565b50505050505050505050503861031a565b92505094508981813d83116107d0575b6107b38183611ee8565b81010312610103578a9484836107c98f94611fc1565b91506102ea565b503d6107a9565b8580fd5b50346101035781600319360112610103576020906003549051908152f35b50346101035760203660031901126101035760043561082260018060a01b038454163314612107565b801515806108b5575b6108349061215e565b808352600460205260ff600183852001541660038110156108a1577f8153c647bdabcde3ccefab0fd45d83162cd67fbae064c9d5b20e7d9668ca1e859161087d602092156121a3565b8085526004825283852093600185549501600260ff1982541617905551908152a280f35b634e487b7160e01b84526021600452602484fd5b5060035481111561082b565b5034610103576020366003190112610103576108e760018060a01b038354163314612107565b6004351515806111a0575b6108fb9061215e565b6004358252600460205260ff6001828420015416600381101561118c5761092290156121a3565b600435825260046020526003818320015442106111495781906004358252600460205280822090815491600160ff6004830154169101600160ff1982541617905560018060a01b03600154168251936324ed653d60e11b8552602085600481855afa8015611103578690819061110d575b855163695730a560e01b8152600481018490529650869060249082906001600160a01b03165afa9485156111035786956110db575b5083516324ed653d60e11b815291602083600481845afa8015610dbb578790819061109f575b865163695730a560e01b8152600481018590529450849060249082906001600160a01b03165afa928315610dbb578793611077575b508315610efb575060015484516303577be960e21b815290602090829060049082906001600160a01b03165afa908115610dbb578791610ec1575b506001600160a01b0316803b15610e2157845163de9d858760e01b8152600481018390526001600160a01b03871660248201529087908290604490829084905af18015610dbb57908791610ead575b505060015484516324ed653d60e11b815290602090829060049082906001600160a01b03165afa908115610dbb578791610e73575b506001600160a01b0316803b15610e215786809160448751809481936344514bb760e11b8352876004840152600360248401525af18015610dbb57908791610e5f575b50505b835160043581528315156020820152819060008051602061223c83398151915290604090a27fbf4cf4ef93105e711288dee33b87db5b6dd587ce71ff12b774c2a26bdacdc0b4602085516004358152a26001548351630f4d898960e11b8082529391602090829060049082906001600160a01b03165afa908115610dbb578791610e25575b506001600160a01b031691823b15610e21578451878160248183633a698a3760e11b9b8c835260018060a01b0316988960048401525af18015610e0357908891610e0d575b5050600154855185815290602090829060049082906001600160a01b03165afa908115610e03578891610dc9575b506001600160a01b031695863b15610dc55787916024839288519485938492835260018060a01b03169a8b60048401525af18015610dbb57908791610da7575b505015610d3957506001548251918252602090829060049082906001600160a01b03165afa908115610d2f578491610cf5575b506001600160a01b031691823b15610cf05783926024849284519586938492630f6913db60e31b845260048401525af1908115610ce75750610cd457505080f35b610cdd90611ea2565b610ce45780f35b80fd5b513d84823e3d90fd5b505050fd5b90506020813d602011610d27575b81610d1060209383611ee8565b81010312610cf057610d2190611fc1565b38610c93565b3d9150610d03565b82513d86823e3d90fd5b6001548351928352909350602090829060049082906001600160a01b03165afa908115610d2f578491610cf557506001600160a01b031691823b15610cf05783926024849284519586938492630f6913db60e31b845260048401525af1908115610ce75750610cd457505080f35b610db090611ea2565b6107d7578538610c60565b85513d89823e3d90fd5b8780fd5b90506020813d602011610dfb575b81610de460209383611ee8565b81010312610dc557610df590611fc1565b38610c20565b3d9150610dd7565b86513d8a823e3d90fd5b610e1690611ea2565b610e21578638610bf2565b8680fd5b90506020813d602011610e57575b81610e4060209383611ee8565b81010312610e2157610e5190611fc1565b38610bad565b3d9150610e33565b610e6890611ea2565b6107d7578538610b25565b90506020813d602011610ea5575b81610e8e60209383611ee8565b81010312610e2157610e9f90611fc1565b38610ae2565b3d9150610e81565b610eb690611ea2565b6107d7578538610aad565b90506020813d602011610ef3575b81610edc60209383611ee8565b81010312610e2157610eed90611fc1565b38610a5e565b3d9150610ecf565b60206004918651928380926303577be960e21b82525afa908115610dbb57879161103d575b506001600160a01b0316803b15610e2157868091602487518094819363277c2ee560e01b83528760048401525af18015610dbb57908791611029575b505060015484516324ed653d60e11b815290602090829060049082906001600160a01b03165afa908115610dbb578791610fef575b506001600160a01b0316803b15610e215786809160448751809481936344514bb760e11b8352876004840152600460248401525af18015610dbb57908791610fdb575b5050610b28565b610fe490611ea2565b6107d7578538610fd4565b90506020813d602011611021575b8161100a60209383611ee8565b81010312610e215761101b90611fc1565b38610f91565b3d9150610ffd565b61103290611ea2565b6107d7578538610f5c565b90506020813d60201161106f575b8161105860209383611ee8565b81010312610e215761106990611fc1565b38610f20565b3d915061104b565b61108c9193503d8089833e61068a8183611ee8565b5050505050505050505090509138610a23565b50506020833d6020116110d3575b816110ba60209383611ee8565b81010312610e2157866110ce602494611fc1565b6109ee565b3d91506110ad565b6110f09195503d8088833e61068a8183611ee8565b50505050505050505050905093386109c8565b84513d88823e3d90fd5b50506020853d602011611141575b8161112860209383611ee8565b810103126107d7578561113c602496611fc1565b610993565b3d915061111b565b5162461bcd60e51b815260206004820152601f60248201527f54696d656c6f636b20706572696f6420686173206e6f742065787069726564006044820152606490fd5b634e487b7160e01b83526021600452602483fd5b5060035460043511156108f2565b50346101035781600319360112610103576020906002549051908152f35b503461010357816003193601126101035760015490516001600160a01b039091168152602090f35b50346101035760203660031901126101035780916004358152600460205220906101f182549160ff60018501541693600281015460ff6004600384015493015416925195869586611f76565b509034610ce457602080600319360112610103576004359060018060a01b0393846001541681516324ed653d60e11b908181528481600481865afa9081156114fa5790889188916115b7575b5016330361155f578251908082528482600481865afa9182156114fa5790889392918892611522575b508451888163695730a560e01b948582528a60048301528160249d8e92165afa908115611518578792916112f1918b91611504575015156120c4565b600486518095819382525afa9182156114fa57879291899184936114be575b50855194859384928352896004840152165afa9081156114b457859161148e575b50600881101561147b57600503611438576003546000198114611425576001018060035581519561136187611ecc565b84875283870186815283880190428252606089019288845260808a019489865289526004875285892099518a5560018a0191519060038210156114135750926004926113fb95927ffa71779ecc1dd1ef48196a5af1776f8a748036653ce2b5b310ab5e31b61ca32b999a9b9560ff8019835416911617905551600285015551600384015551151591019060ff801983541691151516179055565b6003549084865260058352818187205551908152a280f35b634e487b7160e01b8a52602160045289fd5b634e487b7160e01b855260116004528585fd5b5162461bcd60e51b81526004810191909152601f818501527f5472616465206973206e6f7420696e20646973707574656420737461747573006044820152606490fd5b634e487b7160e01b855260216004528585fd5b6114a291503d8087833e61068a8183611ee8565b50505097505050505050505038611331565b82513d87823e3d90fd5b92509250508481813d83116114f3575b6114d88183611ee8565b81010312610e215790876114ec8893611fc1565b9138611310565b503d6114ce565b84513d89823e3d90fd5b61078891503d808d833e61068a8183611ee8565b86513d8b823e3d90fd5b8680929495508193503d8311611558575b61153d8183611ee8565b81010312610e215790611551889392611fc1565b90386112b5565b503d611533565b825162461bcd60e51b815260048101859052602b60248201527f4f6e6c7920547261646520636f6e74726163742063616e20706572666f726d2060448201526a3a3434b99030b1ba34b7b760a91b6064820152608490fd5b809250868092503d83116115e8575b6115d08183611ee8565b81010312610e21576115e28891611fc1565b3861128c565b503d6115c6565b5034610103576115fe36611f52565b919061161460018060a01b038554163314612107565b801515806116e0575b6116269061215e565b808452600460205260ff600183862001541660038110156116cc5761164b90156121a3565b6002544201928342116116b857907f211b2fc9cdb851a325fb3cc3d094f8c1f22f121f7a6e20977d9c5c0b44a40c10929181865260046020526116a78387209160038301968755600483019060ff801983541691151516179055565b54935482519182526020820152a280f35b634e487b7160e01b85526011600452602485fd5b634e487b7160e01b85526021600452602485fd5b5060035481111561161d565b50346101035760209182600319360112610ce45760015482516324ed653d60e11b815260048035926001600160a01b0392918791839190829086165afa9081156117f85790849182916117bc575b50602486518094819363695730a560e01b8352876004840152165afa9081156117b25792600492611777869360ff96849161179e575015156120c4565b8152600586528181205461178c8115156121ef565b81528286522001541690519015158152f35b61078891503d8086833e61068a8183611ee8565b84513d85823e3d90fd5b809250878092503d83116117f1575b6117d58183611ee8565b810103126117ed576117e78491611fc1565b3861173a565b8380fd5b503d6117cb565b85513d86823e3d90fd5b509034610ce45761181236611f52565b82546001600160a01b03929061182b9084163314612107565b80151580611be3575b61183d9061215e565b8084526020926004845260019360ff858888200154166003811015611bcf5761186690156121a3565b8286526004815260038787200154611b8057828652600481528686205494600482848354168a51928380926324ed653d60e11b82525afa908115611b37578493929189918291611b41575b5060248b518096819363695730a560e01b83528c6004840152165afa928315611b37578893611b0f575b50848852600482526119118660048b8b208481018560ff19825416179055426003820155019060ff801983541691151516179055565b8515611a285790600481858a9b999a96959454168951928380926303577be960e21b82525afa918215611a1e579084929186926119e6575b50501691823b156117ed57865163de9d858760e01b81526004810189905291166001600160a01b0316602482015290829082908183816044810103925af180156119dc576119c4575b50506119be60008051602061223c833981519152935b5191825291151560208201529081906040820190565b0390a280f35b6119cd90611ea2565b6119d8578438611992565b8480fd5b85513d84823e3d90fd5b8193508092503d8311611a17575b6119fe8183611ee8565b810103126117ed57611a108391611fc1565b3880611949565b503d6119f4565b88513d87823e3d90fd5b5488516303577be960e21b815291925082908290600490829087165afa918215611b05578792611acf575b505016803b156119d857848091602488518094819363277c2ee560e01b83528960048401525af18015611ac557611aa0575b506119be60008051602061223c8339815191529394956119a8565b60008051602061223c8339815191529394611abd6119be92611ea2565b949350611a85565b86513d87823e3d90fd5b90809250813d8311611afe575b611ae68183611ee8565b810103126107d757611af790611fc1565b3880611a53565b503d611adc565b88513d89823e3d90fd5b611b249193503d808a833e61068a8183611ee8565b50505050505050505050905091386118db565b89513d8a823e3d90fd5b92938095508092508391503d8311611b79575b611b5e8183611ee8565b81010312610dc5579087611b73859493611fc1565b386118b1565b503d611b54565b60849087519062461bcd60e51b825260048201526024808201527f44697370757465207265736f6c7574696f6e20616c726561647920696e697469604482015263185d195960e21b6064820152fd5b634e487b7160e01b87526021600452602487fd5b50600354811115611834565b5034610103578060031936011261010357602435906004358352602091600683528184209081548110156119d857611c2691611e3a565b611ce457815193849181815490611c3c82611e68565b9283865260019288600182169182600014611cba575050600114611c7c575b85886101f189611c6d848a0385611ee8565b51928284938452830190611f2d565b87945081939291528383205b828410611ca25750505082010181611c6d6101f138611c5b565b8054848a018601528895508794909301928101611c88565b60ff19168882015294151560051b87019094019450859350611c6d92506101f19150389050611c5b565b634e487b7160e01b84526004849052602484fd5b8383346101035760209283600319360112610769576004359060018060a01b0390858160048185600154166324ed653d60e11b82525afa908115611e30579085918291611df8575b50602485518094819363695730a560e01b8352876004840152165afa9081156107225790611d76918591611dd3575015156120c4565b82526005835280822054918215159283611d95575b5050519015158152f35b9080929350526004835260ff6001838320015416906003821015611dbf5750600114908380611d8b565b634e487b7160e01b81526021600452602490fd5b611de791503d8087833e61068a8183611ee8565b50505050505050505050508661031a565b809250878092503d8311611e29575b611e118183611ee8565b810103126119d857611e238591611fc1565b87611d40565b503d611e07565b84513d87823e3d90fd5b8054821015611e525760005260206000200190600090565b634e487b7160e01b600052603260045260246000fd5b90600182811c92168015611e98575b6020831014611e8257565b634e487b7160e01b600052602260045260246000fd5b91607f1691611e77565b67ffffffffffffffff8111611eb657604052565b634e487b7160e01b600052604160045260246000fd5b60a0810190811067ffffffffffffffff821117611eb657604052565b90601f8019910116810190811067ffffffffffffffff821117611eb657604052565b60005b838110611f1d5750506000910152565b8181015183820152602001611f0d565b90602091611f4681518092818552858086019101611f0a565b601f01601f1916010190565b6040906003190112611f7157600435906024358015158103611f715790565b600080fd5b93909594919260a0850196855260038410156101f5576080936020860152604085015260608401521515910152565b67ffffffffffffffff8111611eb657601f01601f191660200190565b51906001600160a01b0382168203611f7157565b81601f82011215611f71578051611feb81611fa5565b92611ff96040519485611ee8565b81845260208284010111611f71576120179160208085019101611f0a565b90565b909161018082840312611f715781519261203660208401611fc1565b9260408101519260608201519260808301519167ffffffffffffffff92838111611f715782612066918601611fd5565b9360a0810151848111611f71578361207f918301611fd5565b9360c08201519360e0830151918211611f715761209d918301611fd5565b916101008201516008811015611f7157916101208101519161016061014083015192015190565b156120cb57565b60405162461bcd60e51b8152602060048201526014602482015273151c98591948191bd95cc81b9bdd08195e1a5cdd60621b6044820152606490fd5b1561210e57565b60405162461bcd60e51b815260206004820152602260248201527f4f6e6c792061646d696e2063616e20706572666f726d2074686973206163746960448201526137b760f11b6064820152608490fd5b1561216557565b60405162461bcd60e51b8152602060048201526016602482015275111a5cdc1d5d1948191bd95cc81b9bdd08195e1a5cdd60521b6044820152606490fd5b156121aa57565b60405162461bcd60e51b815260206004820152601b60248201527f4469737075746520697320616c7265616479207265736f6c76656400000000006044820152606490fd5b156121f657565b60405162461bcd60e51b815260206004820152601e60248201527f4e6f206469737075746520666f756e6420666f722074686520747261646500006044820152606490fdfec84a77110774854ab237145b108e924962dbaa5191275eb044a6cb09621c4a94a2646970667358221220d53fc0d37fdf7c202de00b768ef31a94a78a346ed820b432f0626727de5a353564736f6c63430008180033","opcodes":"PUSH1 0x80 CALLVALUE PUSH3 0x131 JUMPI PUSH1 0x1F PUSH3 0x23F3 CODESIZE DUP2 SWAP1 SUB SWAP2 DUP3 ADD PUSH1 0x1F NOT AND DUP4 ADD SWAP2 PUSH1 0x1 PUSH1 0x1 PUSH1 0x40 SHL SUB DUP4 GT DUP5 DUP5 LT OR PUSH3 0x136 JUMPI DUP1 DUP5 SWAP3 PUSH1 0x40 SWAP5 DUP6 MSTORE DUP4 CODECOPY DUP2 ADD SUB SLT PUSH3 0x131 JUMPI PUSH3 0x5A PUSH1 0x20 PUSH3 0x52 DUP4 PUSH3 0x14C JUMP JUMPDEST SWAP3 ADD PUSH3 0x14C JUMP JUMPDEST PUSH3 0x15180 PUSH1 0x2 SSTORE PUSH1 0x1 PUSH1 0x1 PUSH1 0xA0 SHL SUB SWAP2 DUP3 AND SWAP2 SWAP1 DUP3 ISZERO PUSH3 0xEC JUMPI AND SWAP1 DUP2 ISZERO PUSH3 0xA8 JUMPI PUSH1 0x1 DUP1 PUSH1 0xA0 SHL SUB NOT SWAP1 DUP2 PUSH1 0x0 SLOAD AND OR PUSH1 0x0 SSTORE PUSH1 0x1 SLOAD AND OR PUSH1 0x1 SSTORE PUSH1 0x40 MLOAD PUSH2 0x2291 SWAP1 DUP2 PUSH3 0x162 DUP3 CODECOPY RETURN JUMPDEST PUSH1 0x64 PUSH1 0x40 MLOAD PUSH3 0x461BCD PUSH1 0xE5 SHL DUP2 MSTORE PUSH1 0x20 PUSH1 0x4 DUP3 ADD MSTORE PUSH1 0x20 PUSH1 0x24 DUP3 ADD MSTORE PUSH32 0x496E76616C696420436F6E747261637452656769737472792061646472657373 PUSH1 0x44 DUP3 ADD MSTORE REVERT JUMPDEST PUSH1 0x40 MLOAD PUSH3 0x461BCD PUSH1 0xE5 SHL DUP2 MSTORE PUSH1 0x20 PUSH1 0x4 DUP3 ADD MSTORE PUSH1 0x15 PUSH1 0x24 DUP3 ADD MSTORE PUSH32 0x496E76616C69642061646D696E20616464726573730000000000000000000000 PUSH1 0x44 DUP3 ADD MSTORE PUSH1 0x64 SWAP1 REVERT JUMPDEST PUSH1 0x0 DUP1 REVERT JUMPDEST PUSH4 0x4E487B71 PUSH1 0xE0 SHL PUSH1 0x0 MSTORE PUSH1 0x41 PUSH1 0x4 MSTORE PUSH1 0x24 PUSH1 0x0 REVERT JUMPDEST MLOAD SWAP1 PUSH1 0x1 PUSH1 0x1 PUSH1 0xA0 SHL SUB DUP3 AND DUP3 SUB PUSH3 0x131 JUMPI JUMP INVALID PUSH1 0x80 PUSH1 0x40 DUP2 DUP2 MSTORE PUSH1 0x4 CALLDATASIZE LT ISZERO PUSH2 0x14 JUMPI PUSH1 0x0 DUP1 REVERT JUMPDEST PUSH1 0x0 SWAP2 DUP3 CALLDATALOAD PUSH1 0xE0 SHR SWAP1 DUP2 PUSH4 0x155E5FCE EQ PUSH2 0x1CF8 JUMPI POP DUP1 PUSH4 0x2D5DB630 EQ PUSH2 0x1BEF JUMPI DUP1 PUSH4 0x34B25EE2 EQ PUSH2 0x1802 JUMPI DUP1 PUSH4 0x39F0A711 EQ PUSH2 0x16EC JUMPI DUP1 PUSH4 0x3D8F6E3B EQ PUSH2 0x15EF JUMPI DUP1 PUSH4 0x4B54A379 EQ PUSH2 0x1240 JUMPI DUP1 PUSH4 0x564A565D EQ PUSH2 0x11F4 JUMPI DUP1 PUSH4 0x7B103999 EQ PUSH2 0x11CC JUMPI DUP1 PUSH4 0x90BAD670 EQ PUSH2 0x11AE JUMPI DUP1 PUSH4 0x9AAF3017 EQ PUSH2 0x8C1 JUMPI DUP1 PUSH4 0x9BDAD207 EQ PUSH2 0x7F9 JUMPI DUP1 PUSH4 0xA28889E1 EQ PUSH2 0x7DB JUMPI DUP1 PUSH4 0xA6A7F0EB EQ PUSH2 0x23F JUMPI DUP1 PUSH4 0xDD2163F2 EQ PUSH2 0x217 JUMPI DUP1 PUSH4 0xEA89735D EQ PUSH2 0x161 JUMPI DUP1 PUSH4 0xF5439D6E EQ PUSH2 0x107 JUMPI PUSH4 0xF851A440 EQ PUSH2 0xDD JUMPI PUSH1 0x0 DUP1 REVERT JUMPDEST CALLVALUE PUSH2 0x103 JUMPI DUP2 PUSH1 0x3 NOT CALLDATASIZE ADD SLT PUSH2 0x103 JUMPI SWAP1 SLOAD SWAP1 MLOAD PUSH1 0x1 PUSH1 0x1 PUSH1 0xA0 SHL SUB SWAP1 SWAP2 AND DUP2 MSTORE PUSH1 0x20 SWAP1 RETURN JUMPDEST POP DUP1 REVERT JUMPDEST POP CALLVALUE PUSH2 0x103 JUMPI PUSH1 0x20 CALLDATASIZE PUSH1 0x3 NOT ADD SLT PUSH2 0x103 JUMPI PUSH1 0x20 PUSH32 0x66C54FE8553B9F531053CC67DE0A61D081AEE025E39422C023C53175B1DB0EC7 SWAP2 PUSH1 0x4 CALLDATALOAD SWAP1 PUSH2 0x155 PUSH1 0x1 DUP1 PUSH1 0xA0 SHL SUB DUP7 SLOAD AND CALLER EQ PUSH2 0x2107 JUMP JUMPDEST DUP2 PUSH1 0x2 SSTORE MLOAD SWAP1 DUP2 MSTORE LOG1 DUP1 RETURN JUMPDEST POP CALLVALUE PUSH2 0x103 JUMPI PUSH1 0x20 CALLDATASIZE PUSH1 0x3 NOT ADD SLT PUSH2 0x103 JUMPI DUP1 SWAP2 PUSH1 0x4 CALLDATALOAD DUP1 ISZERO ISZERO DUP1 PUSH2 0x20B JUMPI JUMPDEST PUSH2 0x18A SWAP1 PUSH2 0x215E JUMP JUMPDEST DUP2 MSTORE PUSH1 0x4 PUSH1 0x20 MSTORE KECCAK256 SWAP1 DUP1 MLOAD SWAP2 PUSH2 0x19F DUP4 PUSH2 0x1ECC JUMP JUMPDEST DUP1 SLOAD DUP4 MSTORE PUSH1 0xFF PUSH1 0x1 DUP3 ADD SLOAD AND SWAP3 PUSH1 0x3 DUP5 LT ISZERO PUSH2 0x1F5 JUMPI PUSH2 0x1F1 SWAP2 DUP5 PUSH1 0x20 DUP4 ADD MSTORE PUSH1 0x2 DUP2 ADD SLOAD DUP1 DUP6 DUP5 ADD MSTORE PUSH1 0xFF PUSH1 0x4 PUSH1 0x3 DUP5 ADD SLOAD SWAP4 DUP5 PUSH1 0x60 DUP8 ADD MSTORE ADD SLOAD AND ISZERO ISZERO SWAP3 DUP4 PUSH1 0x80 DUP3 ADD MSTORE MLOAD SWAP5 MLOAD SWAP6 DUP7 SWAP6 DUP7 PUSH2 0x1F76 JUMP JUMPDEST SUB SWAP1 RETURN JUMPDEST PUSH4 0x4E487B71 PUSH1 0xE0 SHL PUSH1 0x0 MSTORE PUSH1 0x21 PUSH1 0x4 MSTORE PUSH1 0x24 PUSH1 0x0 REVERT JUMPDEST POP PUSH1 0x3 SLOAD DUP2 GT ISZERO PUSH2 0x181 JUMP JUMPDEST POP CALLVALUE PUSH2 0x103 JUMPI PUSH1 0x20 CALLDATASIZE PUSH1 0x3 NOT ADD SLT PUSH2 0x103 JUMPI DUP1 PUSH1 0x20 SWAP3 PUSH1 0x4 CALLDATALOAD DUP2 MSTORE PUSH1 0x5 DUP5 MSTORE KECCAK256 SLOAD SWAP1 MLOAD SWAP1 DUP2 MSTORE RETURN JUMPDEST POP CALLVALUE PUSH2 0x103 JUMPI DUP1 PUSH1 0x3 NOT CALLDATASIZE ADD SLT PUSH2 0x103 JUMPI PUSH1 0x4 CALLDATALOAD PUSH1 0x24 PUSH8 0xFFFFFFFFFFFFFFFF DUP2 CALLDATALOAD DUP2 DUP2 GT PUSH2 0x7D7 JUMPI CALLDATASIZE PUSH1 0x23 DUP3 ADD SLT ISZERO PUSH2 0x7D7 JUMPI DUP1 PUSH1 0x4 ADD CALLDATALOAD SWAP3 DUP7 PUSH2 0x282 DUP6 PUSH2 0x1FA5 JUMP JUMPDEST SWAP3 PUSH2 0x28F DUP9 MLOAD SWAP5 DUP6 PUSH2 0x1EE8 JUMP JUMPDEST DUP6 DUP5 MSTORE PUSH1 0x20 SWAP6 CALLDATASIZE DUP5 DUP3 DUP5 ADD ADD GT PUSH2 0x769 JUMPI DUP1 DUP5 DUP9 SWAP4 ADD DUP4 DUP8 ADD CALLDATACOPY DUP5 ADD ADD MSTORE PUSH1 0x1 DUP1 SLOAD DUP8 MLOAD PUSH4 0x24ED653D PUSH1 0xE1 SHL DUP1 DUP3 MSTORE SWAP3 SWAP6 SWAP3 SWAP1 SWAP2 PUSH1 0x1 PUSH1 0x1 PUSH1 0xA0 SHL SUB SWAP2 SWAP1 DUP12 SWAP1 DUP12 SWAP1 DUP5 AND DUP11 DUP7 PUSH1 0x4 DUP2 DUP5 GAS STATICCALL DUP1 ISZERO PUSH2 0x6EE JUMPI DUP13 SWAP7 DUP5 SWAP2 PUSH2 0x799 JUMPI JUMPDEST POP DUP4 DUP7 SWAP2 DUP11 DUP6 MLOAD DUP1 SWAP5 DUP2 SWAP4 PUSH4 0x695730A5 PUSH1 0xE0 SHL SWAP13 DUP14 DUP5 MSTORE PUSH1 0x4 DUP5 ADD MSTORE AND GAS STATICCALL DUP1 ISZERO PUSH2 0x722 JUMPI PUSH2 0x322 SWAP2 DUP6 SWAP2 PUSH2 0x774 JUMPI JUMPDEST POP ISZERO ISZERO PUSH2 0x20C4 JUMP JUMPDEST DUP2 MLOAD DUP5 DUP2 MSTORE DUP12 DUP2 PUSH1 0x4 DUP2 DUP6 GAS STATICCALL SWAP1 DUP2 ISZERO PUSH2 0x722 JUMPI DUP7 SWAP2 DUP11 DUP16 DUP8 SWAP4 DUP5 SWAP4 PUSH2 0x72F JUMPI JUMPDEST POP DUP7 MLOAD SWAP5 DUP6 SWAP4 DUP5 SWAP3 DUP14 DUP5 MSTORE PUSH1 0x4 DUP5 ADD MSTORE AND GAS STATICCALL SWAP5 DUP6 ISZERO PUSH2 0x722 JUMPI DUP13 SWAP2 DUP6 SWAP7 PUSH2 0x6FA JUMPI JUMPDEST POP PUSH1 0x4 DUP5 MLOAD DUP1 SWAP5 DUP2 SWAP4 DUP3 MSTORE GAS STATICCALL SWAP6 DUP7 ISZERO PUSH2 0x6EE JUMPI DUP13 SWAP3 DUP10 SWAP3 DUP6 SWAP9 PUSH2 0x6AF JUMPI JUMPDEST POP DUP7 SWAP1 MLOAD SWAP8 DUP9 SWAP5 DUP6 SWAP4 DUP5 MSTORE PUSH1 0x4 DUP5 ADD MSTORE AND GAS STATICCALL SWAP3 DUP4 ISZERO PUSH2 0x6A5 JUMPI DUP12 SWAP4 PUSH2 0x672 JUMPI JUMPDEST POP DUP2 AND CALLER EQ SWAP2 DUP3 ISZERO PUSH2 0x665 JUMPI JUMPDEST POP POP ISZERO PUSH2 0x60F JUMPI DUP6 DUP9 MSTORE PUSH1 0x5 DUP6 MSTORE DUP7 DUP9 KECCAK256 SLOAD SWAP4 PUSH2 0x3D1 DUP6 ISZERO ISZERO PUSH2 0x21EF JUMP JUMPDEST DUP5 DUP10 MSTORE PUSH1 0x4 DUP7 MSTORE PUSH1 0xFF DUP2 DUP10 DUP12 KECCAK256 ADD SLOAD AND PUSH1 0x3 DUP2 LT ISZERO PUSH2 0x5FC JUMPI PUSH2 0x5BB JUMPI DUP5 DUP10 MSTORE PUSH1 0x6 DUP7 MSTORE DUP8 DUP10 KECCAK256 DUP1 SLOAD SWAP1 PUSH9 0x10000000000000000 DUP3 LT ISZERO PUSH2 0x5A8 JUMPI SWAP1 PUSH2 0x41B SWAP2 DUP4 DUP3 ADD DUP2 SSTORE PUSH2 0x1E3A JUMP JUMPDEST SWAP4 SWAP1 SWAP4 PUSH2 0x596 JUMPI DUP5 MLOAD SWAP3 DUP4 GT PUSH2 0x584 JUMPI POP PUSH2 0x436 DUP4 SLOAD PUSH2 0x1E68 JUMP JUMPDEST PUSH1 0x1F DUP2 GT PUSH2 0x53E JUMPI JUMPDEST POP DUP6 PUSH1 0x1F DUP4 GT PUSH1 0x1 EQ PUSH2 0x4B7 JUMPI SWAP2 DUP1 DUP1 PUSH2 0x4A6 SWAP6 SWAP4 PUSH32 0x8722164B9614B32A2B746677DA9825964EDB315B8226C7CEC2996A2779D01885 SWAP10 SWAP9 SWAP8 SWAP6 DUP14 SWAP4 PUSH2 0x4AC JUMPI JUMPDEST POP SHL SWAP2 PUSH1 0x0 NOT SWAP1 PUSH1 0x3 SHL SHR NOT AND OR SWAP1 SSTORE JUMPDEST DUP7 DUP1 MLOAD SWAP5 DUP6 SWAP5 DUP6 MSTORE DUP5 ADD MSTORE CALLER SWAP7 DUP4 ADD SWAP1 PUSH2 0x1F2D JUMP JUMPDEST SUB SWAP1 LOG3 DUP1 RETURN JUMPDEST DUP7 ADD MLOAD SWAP3 POP CODESIZE PUSH2 0x480 JUMP JUMPDEST DUP4 DUP11 MSTORE DUP7 DUP11 KECCAK256 SWAP2 SWAP3 SWAP2 SWAP1 PUSH1 0x1F NOT DUP4 AND DUP12 JUMPDEST DUP2 DUP2 LT PUSH2 0x529 JUMPI POP SWAP2 DUP4 SWAP2 PUSH2 0x4A6 SWAP7 SWAP5 PUSH32 0x8722164B9614B32A2B746677DA9825964EDB315B8226C7CEC2996A2779D01885 SWAP11 SWAP10 SWAP9 SWAP7 SWAP5 LT PUSH2 0x510 JUMPI JUMPDEST POP POP DUP2 SHL ADD SWAP1 SSTORE PUSH2 0x491 JUMP JUMPDEST DUP6 ADD MLOAD PUSH1 0x0 NOT PUSH1 0xF8 DUP5 PUSH1 0x3 SHL AND SHR NOT AND SWAP1 SSTORE CODESIZE DUP1 PUSH2 0x504 JUMP JUMPDEST DUP8 DUP4 ADD MLOAD DUP5 SSTORE SWAP3 DUP6 ADD SWAP3 SWAP2 DUP10 ADD SWAP2 DUP10 ADD PUSH2 0x4C8 JUMP JUMPDEST DUP4 DUP11 MSTORE DUP7 DUP11 KECCAK256 PUSH1 0x1F DUP5 ADD PUSH1 0x5 SHR DUP2 ADD SWAP2 DUP9 DUP6 LT PUSH2 0x57A JUMPI JUMPDEST PUSH1 0x1F ADD PUSH1 0x5 SHR ADD SWAP1 DUP3 SWAP1 JUMPDEST DUP3 DUP2 LT PUSH2 0x56F JUMPI POP POP PUSH2 0x43F JUMP JUMPDEST DUP12 DUP2 SSTORE ADD DUP3 SWAP1 PUSH2 0x561 JUMP JUMPDEST SWAP1 SWAP2 POP DUP2 SWAP1 PUSH2 0x556 JUMP JUMPDEST PUSH4 0x4E487B71 PUSH1 0xE0 SHL DUP11 MSTORE PUSH1 0x41 PUSH1 0x4 MSTORE DUP10 REVERT JUMPDEST PUSH4 0x4E487B71 PUSH1 0xE0 SHL DUP11 MSTORE PUSH1 0x4 DUP11 SWAP1 MSTORE DUP10 REVERT JUMPDEST PUSH4 0x4E487B71 PUSH1 0xE0 SHL DUP12 MSTORE PUSH1 0x41 PUSH1 0x4 MSTORE DUP5 DUP12 REVERT JUMPDEST PUSH1 0x64 DUP4 DUP8 DUP11 MLOAD SWAP2 PUSH3 0x461BCD PUSH1 0xE5 SHL DUP4 MSTORE DUP2 PUSH1 0x4 DUP5 ADD MSTORE DUP3 ADD MSTORE PUSH32 0x44697370757465206973206E6F7420696E2070656E64696E6720737461747573 PUSH1 0x44 DUP3 ADD MSTORE REVERT JUMPDEST PUSH4 0x4E487B71 PUSH1 0xE0 SHL DUP11 MSTORE PUSH1 0x21 PUSH1 0x4 MSTORE DUP4 DUP11 REVERT JUMPDEST DUP7 MLOAD PUSH3 0x461BCD PUSH1 0xE5 SHL DUP2 MSTORE PUSH1 0x4 DUP2 ADD DUP7 SWAP1 MSTORE PUSH1 0x2A DUP2 DUP5 ADD MSTORE PUSH32 0x4F6E6C7920747261646520706172746965732063616E20706572666F726D2074 PUSH1 0x44 DUP3 ADD MSTORE PUSH10 0x3434B99030B1BA34B7B7 PUSH1 0xB1 SHL PUSH1 0x64 DUP3 ADD MSTORE PUSH1 0x84 SWAP1 REVERT JUMPDEST SWAP1 SWAP2 POP AND CALLER EQ CODESIZE DUP1 PUSH2 0x3B3 JUMP JUMPDEST DUP3 SWAP2 SWAP4 POP PUSH2 0x692 SWAP1 DUP13 RETURNDATASIZE DUP1 SWAP2 DUP4 RETURNDATACOPY PUSH2 0x68A DUP2 DUP4 PUSH2 0x1EE8 JUMP JUMPDEST DUP2 ADD SWAP1 PUSH2 0x201A JUMP JUMPDEST POP POP POP POP POP POP POP POP POP POP SWAP1 POP SWAP3 SWAP1 PUSH2 0x3A6 JUMP JUMPDEST DUP11 MLOAD RETURNDATASIZE DUP14 DUP3 RETURNDATACOPY RETURNDATASIZE SWAP1 REVERT JUMPDEST SWAP8 POP POP SWAP2 POP POP DUP10 DUP6 DUP2 RETURNDATASIZE DUP4 GT PUSH2 0x6E7 JUMPI JUMPDEST PUSH2 0x6CA DUP2 DUP4 PUSH2 0x1EE8 JUMP JUMPDEST DUP2 ADD SUB SLT PUSH2 0x103 JUMPI DUP7 DUP12 SWAP2 DUP6 PUSH2 0x6E0 DUP16 SWAP9 PUSH2 0x1FC1 JUMP JUMPDEST SWAP8 SWAP1 PUSH2 0x385 JUMP JUMPDEST POP RETURNDATASIZE PUSH2 0x6C0 JUMP JUMPDEST POP POP MLOAD SWAP1 RETURNDATASIZE SWAP1 DUP3 RETURNDATACOPY RETURNDATASIZE SWAP1 REVERT JUMPDEST PUSH2 0x70F SWAP2 SWAP7 POP RETURNDATASIZE DUP1 DUP8 DUP4 RETURNDATACOPY PUSH2 0x68A DUP2 DUP4 PUSH2 0x1EE8 JUMP JUMPDEST POP POP POP POP POP POP POP POP POP POP SWAP1 POP SWAP5 CODESIZE PUSH2 0x366 JUMP JUMPDEST POP POP POP MLOAD SWAP1 RETURNDATASIZE SWAP1 DUP3 RETURNDATACOPY RETURNDATASIZE SWAP1 REVERT JUMPDEST SWAP7 POP POP POP POP POP POP DUP11 DUP3 DUP2 RETURNDATASIZE DUP4 GT PUSH2 0x76D JUMPI JUMPDEST PUSH2 0x74B DUP2 DUP4 PUSH2 0x1EE8 JUMP JUMPDEST DUP2 ADD SUB SLT PUSH2 0x769 JUMPI DUP5 DUP4 DUP14 DUP16 SWAP5 PUSH2 0x762 DUP13 SWAP2 PUSH2 0x1FC1 JUMP JUMPDEST SWAP2 CODESIZE PUSH2 0x343 JUMP JUMPDEST DUP3 DUP1 REVERT JUMPDEST POP RETURNDATASIZE PUSH2 0x741 JUMP JUMPDEST PUSH2 0x788 SWAP2 POP RETURNDATASIZE DUP1 DUP8 DUP4 RETURNDATACOPY PUSH2 0x68A DUP2 DUP4 PUSH2 0x1EE8 JUMP JUMPDEST POP POP POP POP POP POP POP POP POP POP POP CODESIZE PUSH2 0x31A JUMP JUMPDEST SWAP3 POP POP SWAP5 POP DUP10 DUP2 DUP2 RETURNDATASIZE DUP4 GT PUSH2 0x7D0 JUMPI JUMPDEST PUSH2 0x7B3 DUP2 DUP4 PUSH2 0x1EE8 JUMP JUMPDEST DUP2 ADD SUB SLT PUSH2 0x103 JUMPI DUP11 SWAP5 DUP5 DUP4 PUSH2 0x7C9 DUP16 SWAP5 PUSH2 0x1FC1 JUMP JUMPDEST SWAP2 POP PUSH2 0x2EA JUMP JUMPDEST POP RETURNDATASIZE PUSH2 0x7A9 JUMP JUMPDEST DUP6 DUP1 REVERT JUMPDEST POP CALLVALUE PUSH2 0x103 JUMPI DUP2 PUSH1 0x3 NOT CALLDATASIZE ADD SLT PUSH2 0x103 JUMPI PUSH1 0x20 SWAP1 PUSH1 0x3 SLOAD SWAP1 MLOAD SWAP1 DUP2 MSTORE RETURN JUMPDEST POP CALLVALUE PUSH2 0x103 JUMPI PUSH1 0x20 CALLDATASIZE PUSH1 0x3 NOT ADD SLT PUSH2 0x103 JUMPI PUSH1 0x4 CALLDATALOAD PUSH2 0x822 PUSH1 0x1 DUP1 PUSH1 0xA0 SHL SUB DUP5 SLOAD AND CALLER EQ PUSH2 0x2107 JUMP JUMPDEST DUP1 ISZERO ISZERO DUP1 PUSH2 0x8B5 JUMPI JUMPDEST PUSH2 0x834 SWAP1 PUSH2 0x215E JUMP JUMPDEST DUP1 DUP4 MSTORE PUSH1 0x4 PUSH1 0x20 MSTORE PUSH1 0xFF PUSH1 0x1 DUP4 DUP6 KECCAK256 ADD SLOAD AND PUSH1 0x3 DUP2 LT ISZERO PUSH2 0x8A1 JUMPI PUSH32 0x8153C647BDABCDE3CCEFAB0FD45D83162CD67FBAE064C9D5B20E7D9668CA1E85 SWAP2 PUSH2 0x87D PUSH1 0x20 SWAP3 ISZERO PUSH2 0x21A3 JUMP JUMPDEST DUP1 DUP6 MSTORE PUSH1 0x4 DUP3 MSTORE DUP4 DUP6 KECCAK256 SWAP4 PUSH1 0x1 DUP6 SLOAD SWAP6 ADD PUSH1 0x2 PUSH1 0xFF NOT DUP3 SLOAD AND OR SWAP1 SSTORE MLOAD SWAP1 DUP2 MSTORE LOG2 DUP1 RETURN JUMPDEST PUSH4 0x4E487B71 PUSH1 0xE0 SHL DUP5 MSTORE PUSH1 0x21 PUSH1 0x4 MSTORE PUSH1 0x24 DUP5 REVERT JUMPDEST POP PUSH1 0x3 SLOAD DUP2 GT ISZERO PUSH2 0x82B JUMP JUMPDEST POP CALLVALUE PUSH2 0x103 JUMPI PUSH1 0x20 CALLDATASIZE PUSH1 0x3 NOT ADD SLT PUSH2 0x103 JUMPI PUSH2 0x8E7 PUSH1 0x1 DUP1 PUSH1 0xA0 SHL SUB DUP4 SLOAD AND CALLER EQ PUSH2 0x2107 JUMP JUMPDEST PUSH1 0x4 CALLDATALOAD ISZERO ISZERO DUP1 PUSH2 0x11A0 JUMPI JUMPDEST PUSH2 0x8FB SWAP1 PUSH2 0x215E JUMP JUMPDEST PUSH1 0x4 CALLDATALOAD DUP3 MSTORE PUSH1 0x4 PUSH1 0x20 MSTORE PUSH1 0xFF PUSH1 0x1 DUP3 DUP5 KECCAK256 ADD SLOAD AND PUSH1 0x3 DUP2 LT ISZERO PUSH2 0x118C JUMPI PUSH2 0x922 SWAP1 ISZERO PUSH2 0x21A3 JUMP JUMPDEST PUSH1 0x4 CALLDATALOAD DUP3 MSTORE PUSH1 0x4 PUSH1 0x20 MSTORE PUSH1 0x3 DUP2 DUP4 KECCAK256 ADD SLOAD TIMESTAMP LT PUSH2 0x1149 JUMPI DUP2 SWAP1 PUSH1 0x4 CALLDATALOAD DUP3 MSTORE PUSH1 0x4 PUSH1 0x20 MSTORE DUP1 DUP3 KECCAK256 SWAP1 DUP2 SLOAD SWAP2 PUSH1 0x1 PUSH1 0xFF PUSH1 0x4 DUP4 ADD SLOAD AND SWAP2 ADD PUSH1 0x1 PUSH1 0xFF NOT DUP3 SLOAD AND OR SWAP1 SSTORE PUSH1 0x1 DUP1 PUSH1 0xA0 SHL SUB PUSH1 0x1 SLOAD AND DUP3 MLOAD SWAP4 PUSH4 0x24ED653D PUSH1 0xE1 SHL DUP6 MSTORE PUSH1 0x20 DUP6 PUSH1 0x4 DUP2 DUP6 GAS STATICCALL DUP1 ISZERO PUSH2 0x1103 JUMPI DUP7 SWAP1 DUP2 SWAP1 PUSH2 0x110D JUMPI JUMPDEST DUP6 MLOAD PUSH4 0x695730A5 PUSH1 0xE0 SHL DUP2 MSTORE PUSH1 0x4 DUP2 ADD DUP5 SWAP1 MSTORE SWAP7 POP DUP7 SWAP1 PUSH1 0x24 SWAP1 DUP3 SWAP1 PUSH1 0x1 PUSH1 0x1 PUSH1 0xA0 SHL SUB AND GAS STATICCALL SWAP5 DUP6 ISZERO PUSH2 0x1103 JUMPI DUP7 SWAP6 PUSH2 0x10DB JUMPI JUMPDEST POP DUP4 MLOAD PUSH4 0x24ED653D PUSH1 0xE1 SHL DUP2 MSTORE SWAP2 PUSH1 0x20 DUP4 PUSH1 0x4 DUP2 DUP5 GAS STATICCALL DUP1 ISZERO PUSH2 0xDBB JUMPI DUP8 SWAP1 DUP2 SWAP1 PUSH2 0x109F JUMPI JUMPDEST DUP7 MLOAD PUSH4 0x695730A5 PUSH1 0xE0 SHL DUP2 MSTORE PUSH1 0x4 DUP2 ADD DUP6 SWAP1 MSTORE SWAP5 POP DUP5 SWAP1 PUSH1 0x24 SWAP1 DUP3 SWAP1 PUSH1 0x1 PUSH1 0x1 PUSH1 0xA0 SHL SUB AND GAS STATICCALL SWAP3 DUP4 ISZERO PUSH2 0xDBB JUMPI DUP8 SWAP4 PUSH2 0x1077 JUMPI JUMPDEST POP DUP4 ISZERO PUSH2 0xEFB JUMPI POP PUSH1 0x1 SLOAD DUP5 MLOAD PUSH4 0x3577BE9 PUSH1 0xE2 SHL DUP2 MSTORE SWAP1 PUSH1 0x20 SWAP1 DUP3 SWAP1 PUSH1 0x4 SWAP1 DUP3 SWAP1 PUSH1 0x1 PUSH1 0x1 PUSH1 0xA0 SHL SUB AND GAS STATICCALL SWAP1 DUP2 ISZERO PUSH2 0xDBB JUMPI DUP8 SWAP2 PUSH2 0xEC1 JUMPI JUMPDEST POP PUSH1 0x1 PUSH1 0x1 PUSH1 0xA0 SHL SUB AND DUP1 EXTCODESIZE ISZERO PUSH2 0xE21 JUMPI DUP5 MLOAD PUSH4 0xDE9D8587 PUSH1 0xE0 SHL DUP2 MSTORE PUSH1 0x4 DUP2 ADD DUP4 SWAP1 MSTORE PUSH1 0x1 PUSH1 0x1 PUSH1 0xA0 SHL SUB DUP8 AND PUSH1 0x24 DUP3 ADD MSTORE SWAP1 DUP8 SWAP1 DUP3 SWAP1 PUSH1 0x44 SWAP1 DUP3 SWAP1 DUP5 SWAP1 GAS CALL DUP1 ISZERO PUSH2 0xDBB JUMPI SWAP1 DUP8 SWAP2 PUSH2 0xEAD JUMPI JUMPDEST POP POP PUSH1 0x1 SLOAD DUP5 MLOAD PUSH4 0x24ED653D PUSH1 0xE1 SHL DUP2 MSTORE SWAP1 PUSH1 0x20 SWAP1 DUP3 SWAP1 PUSH1 0x4 SWAP1 DUP3 SWAP1 PUSH1 0x1 PUSH1 0x1 PUSH1 0xA0 SHL SUB AND GAS STATICCALL SWAP1 DUP2 ISZERO PUSH2 0xDBB JUMPI DUP8 SWAP2 PUSH2 0xE73 JUMPI JUMPDEST POP PUSH1 0x1 PUSH1 0x1 PUSH1 0xA0 SHL SUB AND DUP1 EXTCODESIZE ISZERO PUSH2 0xE21 JUMPI DUP7 DUP1 SWAP2 PUSH1 0x44 DUP8 MLOAD DUP1 SWAP5 DUP2 SWAP4 PUSH4 0x44514BB7 PUSH1 0xE1 SHL DUP4 MSTORE DUP8 PUSH1 0x4 DUP5 ADD MSTORE PUSH1 0x3 PUSH1 0x24 DUP5 ADD MSTORE GAS CALL DUP1 ISZERO PUSH2 0xDBB JUMPI SWAP1 DUP8 SWAP2 PUSH2 0xE5F JUMPI JUMPDEST POP POP JUMPDEST DUP4 MLOAD PUSH1 0x4 CALLDATALOAD DUP2 MSTORE DUP4 ISZERO ISZERO PUSH1 0x20 DUP3 ADD MSTORE DUP2 SWAP1 PUSH1 0x0 DUP1 MLOAD PUSH1 0x20 PUSH2 0x223C DUP4 CODECOPY DUP2 MLOAD SWAP2 MSTORE SWAP1 PUSH1 0x40 SWAP1 LOG2 PUSH32 0xBF4CF4EF93105E711288DEE33B87DB5B6DD587CE71FF12B774C2A26BDACDC0B4 PUSH1 0x20 DUP6 MLOAD PUSH1 0x4 CALLDATALOAD DUP2 MSTORE LOG2 PUSH1 0x1 SLOAD DUP4 MLOAD PUSH4 0xF4D8989 PUSH1 0xE1 SHL DUP1 DUP3 MSTORE SWAP4 SWAP2 PUSH1 0x20 SWAP1 DUP3 SWAP1 PUSH1 0x4 SWAP1 DUP3 SWAP1 PUSH1 0x1 PUSH1 0x1 PUSH1 0xA0 SHL SUB AND GAS STATICCALL SWAP1 DUP2 ISZERO PUSH2 0xDBB JUMPI DUP8 SWAP2 PUSH2 0xE25 JUMPI JUMPDEST POP PUSH1 0x1 PUSH1 0x1 PUSH1 0xA0 SHL SUB AND SWAP2 DUP3 EXTCODESIZE ISZERO PUSH2 0xE21 JUMPI DUP5 MLOAD DUP8 DUP2 PUSH1 0x24 DUP2 DUP4 PUSH4 0x3A698A37 PUSH1 0xE1 SHL SWAP12 DUP13 DUP4 MSTORE PUSH1 0x1 DUP1 PUSH1 0xA0 SHL SUB AND SWAP9 DUP10 PUSH1 0x4 DUP5 ADD MSTORE GAS CALL DUP1 ISZERO PUSH2 0xE03 JUMPI SWAP1 DUP9 SWAP2 PUSH2 0xE0D JUMPI JUMPDEST POP POP PUSH1 0x1 SLOAD DUP6 MLOAD DUP6 DUP2 MSTORE SWAP1 PUSH1 0x20 SWAP1 DUP3 SWAP1 PUSH1 0x4 SWAP1 DUP3 SWAP1 PUSH1 0x1 PUSH1 0x1 PUSH1 0xA0 SHL SUB AND GAS STATICCALL SWAP1 DUP2 ISZERO PUSH2 0xE03 JUMPI DUP9 SWAP2 PUSH2 0xDC9 JUMPI JUMPDEST POP PUSH1 0x1 PUSH1 0x1 PUSH1 0xA0 SHL SUB AND SWAP6 DUP7 EXTCODESIZE ISZERO PUSH2 0xDC5 JUMPI DUP8 SWAP2 PUSH1 0x24 DUP4 SWAP3 DUP9 MLOAD SWAP5 DUP6 SWAP4 DUP5 SWAP3 DUP4 MSTORE PUSH1 0x1 DUP1 PUSH1 0xA0 SHL SUB AND SWAP11 DUP12 PUSH1 0x4 DUP5 ADD MSTORE GAS CALL DUP1 ISZERO PUSH2 0xDBB JUMPI SWAP1 DUP8 SWAP2 PUSH2 0xDA7 JUMPI JUMPDEST POP POP ISZERO PUSH2 0xD39 JUMPI POP PUSH1 0x1 SLOAD DUP3 MLOAD SWAP2 DUP3 MSTORE PUSH1 0x20 SWAP1 DUP3 SWAP1 PUSH1 0x4 SWAP1 DUP3 SWAP1 PUSH1 0x1 PUSH1 0x1 PUSH1 0xA0 SHL SUB AND GAS STATICCALL SWAP1 DUP2 ISZERO PUSH2 0xD2F JUMPI DUP5 SWAP2 PUSH2 0xCF5 JUMPI JUMPDEST POP PUSH1 0x1 PUSH1 0x1 PUSH1 0xA0 SHL SUB AND SWAP2 DUP3 EXTCODESIZE ISZERO PUSH2 0xCF0 JUMPI DUP4 SWAP3 PUSH1 0x24 DUP5 SWAP3 DUP5 MLOAD SWAP6 DUP7 SWAP4 DUP5 SWAP3 PUSH4 0xF6913DB PUSH1 0xE3 SHL DUP5 MSTORE PUSH1 0x4 DUP5 ADD MSTORE GAS CALL SWAP1 DUP2 ISZERO PUSH2 0xCE7 JUMPI POP PUSH2 0xCD4 JUMPI POP POP DUP1 RETURN JUMPDEST PUSH2 0xCDD SWAP1 PUSH2 0x1EA2 JUMP JUMPDEST PUSH2 0xCE4 JUMPI DUP1 RETURN JUMPDEST DUP1 REVERT JUMPDEST MLOAD RETURNDATASIZE DUP5 DUP3 RETURNDATACOPY RETURNDATASIZE SWAP1 REVERT JUMPDEST POP POP POP REVERT JUMPDEST SWAP1 POP PUSH1 0x20 DUP2 RETURNDATASIZE PUSH1 0x20 GT PUSH2 0xD27 JUMPI JUMPDEST DUP2 PUSH2 0xD10 PUSH1 0x20 SWAP4 DUP4 PUSH2 0x1EE8 JUMP JUMPDEST DUP2 ADD SUB SLT PUSH2 0xCF0 JUMPI PUSH2 0xD21 SWAP1 PUSH2 0x1FC1 JUMP JUMPDEST CODESIZE PUSH2 0xC93 JUMP JUMPDEST RETURNDATASIZE SWAP2 POP PUSH2 0xD03 JUMP JUMPDEST DUP3 MLOAD RETURNDATASIZE DUP7 DUP3 RETURNDATACOPY RETURNDATASIZE SWAP1 REVERT JUMPDEST PUSH1 0x1 SLOAD DUP4 MLOAD SWAP3 DUP4 MSTORE SWAP1 SWAP4 POP PUSH1 0x20 SWAP1 DUP3 SWAP1 PUSH1 0x4 SWAP1 DUP3 SWAP1 PUSH1 0x1 PUSH1 0x1 PUSH1 0xA0 SHL SUB AND GAS STATICCALL SWAP1 DUP2 ISZERO PUSH2 0xD2F JUMPI DUP5 SWAP2 PUSH2 0xCF5 JUMPI POP PUSH1 0x1 PUSH1 0x1 PUSH1 0xA0 SHL SUB AND SWAP2 DUP3 EXTCODESIZE ISZERO PUSH2 0xCF0 JUMPI DUP4 SWAP3 PUSH1 0x24 DUP5 SWAP3 DUP5 MLOAD SWAP6 DUP7 SWAP4 DUP5 SWAP3 PUSH4 0xF6913DB PUSH1 0xE3 SHL DUP5 MSTORE PUSH1 0x4 DUP5 ADD MSTORE GAS CALL SWAP1 DUP2 ISZERO PUSH2 0xCE7 JUMPI POP PUSH2 0xCD4 JUMPI POP POP DUP1 RETURN JUMPDEST PUSH2 0xDB0 SWAP1 PUSH2 0x1EA2 JUMP JUMPDEST PUSH2 0x7D7 JUMPI DUP6 CODESIZE PUSH2 0xC60 JUMP JUMPDEST DUP6 MLOAD RETURNDATASIZE DUP10 DUP3 RETURNDATACOPY RETURNDATASIZE SWAP1 REVERT JUMPDEST DUP8 DUP1 REVERT JUMPDEST SWAP1 POP PUSH1 0x20 DUP2 RETURNDATASIZE PUSH1 0x20 GT PUSH2 0xDFB JUMPI JUMPDEST DUP2 PUSH2 0xDE4 PUSH1 0x20 SWAP4 DUP4 PUSH2 0x1EE8 JUMP JUMPDEST DUP2 ADD SUB SLT PUSH2 0xDC5 JUMPI PUSH2 0xDF5 SWAP1 PUSH2 0x1FC1 JUMP JUMPDEST CODESIZE PUSH2 0xC20 JUMP JUMPDEST RETURNDATASIZE SWAP2 POP PUSH2 0xDD7 JUMP JUMPDEST DUP7 MLOAD RETURNDATASIZE DUP11 DUP3 RETURNDATACOPY RETURNDATASIZE SWAP1 REVERT JUMPDEST PUSH2 0xE16 SWAP1 PUSH2 0x1EA2 JUMP JUMPDEST PUSH2 0xE21 JUMPI DUP7 CODESIZE PUSH2 0xBF2 JUMP JUMPDEST DUP7 DUP1 REVERT JUMPDEST SWAP1 POP PUSH1 0x20 DUP2 RETURNDATASIZE PUSH1 0x20 GT PUSH2 0xE57 JUMPI JUMPDEST DUP2 PUSH2 0xE40 PUSH1 0x20 SWAP4 DUP4 PUSH2 0x1EE8 JUMP JUMPDEST DUP2 ADD SUB SLT PUSH2 0xE21 JUMPI PUSH2 0xE51 SWAP1 PUSH2 0x1FC1 JUMP JUMPDEST CODESIZE PUSH2 0xBAD JUMP JUMPDEST RETURNDATASIZE SWAP2 POP PUSH2 0xE33 JUMP JUMPDEST PUSH2 0xE68 SWAP1 PUSH2 0x1EA2 JUMP JUMPDEST PUSH2 0x7D7 JUMPI DUP6 CODESIZE PUSH2 0xB25 JUMP JUMPDEST SWAP1 POP PUSH1 0x20 DUP2 RETURNDATASIZE PUSH1 0x20 GT PUSH2 0xEA5 JUMPI JUMPDEST DUP2 PUSH2 0xE8E PUSH1 0x20 SWAP4 DUP4 PUSH2 0x1EE8 JUMP JUMPDEST DUP2 ADD SUB SLT PUSH2 0xE21 JUMPI PUSH2 0xE9F SWAP1 PUSH2 0x1FC1 JUMP JUMPDEST CODESIZE PUSH2 0xAE2 JUMP JUMPDEST RETURNDATASIZE SWAP2 POP PUSH2 0xE81 JUMP JUMPDEST PUSH2 0xEB6 SWAP1 PUSH2 0x1EA2 JUMP JUMPDEST PUSH2 0x7D7 JUMPI DUP6 CODESIZE PUSH2 0xAAD JUMP JUMPDEST SWAP1 POP PUSH1 0x20 DUP2 RETURNDATASIZE PUSH1 0x20 GT PUSH2 0xEF3 JUMPI JUMPDEST DUP2 PUSH2 0xEDC PUSH1 0x20 SWAP4 DUP4 PUSH2 0x1EE8 JUMP JUMPDEST DUP2 ADD SUB SLT PUSH2 0xE21 JUMPI PUSH2 0xEED SWAP1 PUSH2 0x1FC1 JUMP JUMPDEST CODESIZE PUSH2 0xA5E JUMP JUMPDEST RETURNDATASIZE SWAP2 POP PUSH2 0xECF JUMP JUMPDEST PUSH1 0x20 PUSH1 0x4 SWAP2 DUP7 MLOAD SWAP3 DUP4 DUP1 SWAP3 PUSH4 0x3577BE9 PUSH1 0xE2 SHL DUP3 MSTORE GAS STATICCALL SWAP1 DUP2 ISZERO PUSH2 0xDBB JUMPI DUP8 SWAP2 PUSH2 0x103D JUMPI JUMPDEST POP PUSH1 0x1 PUSH1 0x1 PUSH1 0xA0 SHL SUB AND DUP1 EXTCODESIZE ISZERO PUSH2 0xE21 JUMPI DUP7 DUP1 SWAP2 PUSH1 0x24 DUP8 MLOAD DUP1 SWAP5 DUP2 SWAP4 PUSH4 0x277C2EE5 PUSH1 0xE0 SHL DUP4 MSTORE DUP8 PUSH1 0x4 DUP5 ADD MSTORE GAS CALL DUP1 ISZERO PUSH2 0xDBB JUMPI SWAP1 DUP8 SWAP2 PUSH2 0x1029 JUMPI JUMPDEST POP POP PUSH1 0x1 SLOAD DUP5 MLOAD PUSH4 0x24ED653D PUSH1 0xE1 SHL DUP2 MSTORE SWAP1 PUSH1 0x20 SWAP1 DUP3 SWAP1 PUSH1 0x4 SWAP1 DUP3 SWAP1 PUSH1 0x1 PUSH1 0x1 PUSH1 0xA0 SHL SUB AND GAS STATICCALL SWAP1 DUP2 ISZERO PUSH2 0xDBB JUMPI DUP8 SWAP2 PUSH2 0xFEF JUMPI JUMPDEST POP PUSH1 0x1 PUSH1 0x1 PUSH1 0xA0 SHL SUB AND DUP1 EXTCODESIZE ISZERO PUSH2 0xE21 JUMPI DUP7 DUP1 SWAP2 PUSH1 0x44 DUP8 MLOAD DUP1 SWAP5 DUP2 SWAP4 PUSH4 0x44514BB7 PUSH1 0xE1 SHL DUP4 MSTORE DUP8 PUSH1 0x4 DUP5 ADD MSTORE PUSH1 0x4 PUSH1 0x24 DUP5 ADD MSTORE GAS CALL DUP1 ISZERO PUSH2 0xDBB JUMPI SWAP1 DUP8 SWAP2 PUSH2 0xFDB JUMPI JUMPDEST POP POP PUSH2 0xB28 JUMP JUMPDEST PUSH2 0xFE4 SWAP1 PUSH2 0x1EA2 JUMP JUMPDEST PUSH2 0x7D7 JUMPI DUP6 CODESIZE PUSH2 0xFD4 JUMP JUMPDEST SWAP1 POP PUSH1 0x20 DUP2 RETURNDATASIZE PUSH1 0x20 GT PUSH2 0x1021 JUMPI JUMPDEST DUP2 PUSH2 0x100A PUSH1 0x20 SWAP4 DUP4 PUSH2 0x1EE8 JUMP JUMPDEST DUP2 ADD SUB SLT PUSH2 0xE21 JUMPI PUSH2 0x101B SWAP1 PUSH2 0x1FC1 JUMP JUMPDEST CODESIZE PUSH2 0xF91 JUMP JUMPDEST RETURNDATASIZE SWAP2 POP PUSH2 0xFFD JUMP JUMPDEST PUSH2 0x1032 SWAP1 PUSH2 0x1EA2 JUMP JUMPDEST PUSH2 0x7D7 JUMPI DUP6 CODESIZE PUSH2 0xF5C JUMP JUMPDEST SWAP1 POP PUSH1 0x20 DUP2 RETURNDATASIZE PUSH1 0x20 GT PUSH2 0x106F JUMPI JUMPDEST DUP2 PUSH2 0x1058 PUSH1 0x20 SWAP4 DUP4 PUSH2 0x1EE8 JUMP JUMPDEST DUP2 ADD SUB SLT PUSH2 0xE21 JUMPI PUSH2 0x1069 SWAP1 PUSH2 0x1FC1 JUMP JUMPDEST CODESIZE PUSH2 0xF20 JUMP JUMPDEST RETURNDATASIZE SWAP2 POP PUSH2 0x104B JUMP JUMPDEST PUSH2 0x108C SWAP2 SWAP4 POP RETURNDATASIZE DUP1 DUP10 DUP4 RETURNDATACOPY PUSH2 0x68A DUP2 DUP4 PUSH2 0x1EE8 JUMP JUMPDEST POP POP POP POP POP POP POP POP POP POP SWAP1 POP SWAP2 CODESIZE PUSH2 0xA23 JUMP JUMPDEST POP POP PUSH1 0x20 DUP4 RETURNDATASIZE PUSH1 0x20 GT PUSH2 0x10D3 JUMPI JUMPDEST DUP2 PUSH2 0x10BA PUSH1 0x20 SWAP4 DUP4 PUSH2 0x1EE8 JUMP JUMPDEST DUP2 ADD SUB SLT PUSH2 0xE21 JUMPI DUP7 PUSH2 0x10CE PUSH1 0x24 SWAP5 PUSH2 0x1FC1 JUMP JUMPDEST PUSH2 0x9EE JUMP JUMPDEST RETURNDATASIZE SWAP2 POP PUSH2 0x10AD JUMP JUMPDEST PUSH2 0x10F0 SWAP2 SWAP6 POP RETURNDATASIZE DUP1 DUP9 DUP4 RETURNDATACOPY PUSH2 0x68A DUP2 DUP4 PUSH2 0x1EE8 JUMP JUMPDEST POP POP POP POP POP POP POP POP POP POP SWAP1 POP SWAP4 CODESIZE PUSH2 0x9C8 JUMP JUMPDEST DUP5 MLOAD RETURNDATASIZE DUP9 DUP3 RETURNDATACOPY RETURNDATASIZE SWAP1 REVERT JUMPDEST POP POP PUSH1 0x20 DUP6 RETURNDATASIZE PUSH1 0x20 GT PUSH2 0x1141 JUMPI JUMPDEST DUP2 PUSH2 0x1128 PUSH1 0x20 SWAP4 DUP4 PUSH2 0x1EE8 JUMP JUMPDEST DUP2 ADD SUB SLT PUSH2 0x7D7 JUMPI DUP6 PUSH2 0x113C PUSH1 0x24 SWAP7 PUSH2 0x1FC1 JUMP JUMPDEST PUSH2 0x993 JUMP JUMPDEST RETURNDATASIZE SWAP2 POP PUSH2 0x111B JUMP JUMPDEST MLOAD PUSH3 0x461BCD PUSH1 0xE5 SHL DUP2 MSTORE PUSH1 0x20 PUSH1 0x4 DUP3 ADD MSTORE PUSH1 0x1F PUSH1 0x24 DUP3 ADD MSTORE PUSH32 0x54696D656C6F636B20706572696F6420686173206E6F74206578706972656400 PUSH1 0x44 DUP3 ADD MSTORE PUSH1 0x64 SWAP1 REVERT JUMPDEST PUSH4 0x4E487B71 PUSH1 0xE0 SHL DUP4 MSTORE PUSH1 0x21 PUSH1 0x4 MSTORE PUSH1 0x24 DUP4 REVERT JUMPDEST POP PUSH1 0x3 SLOAD PUSH1 0x4 CALLDATALOAD GT ISZERO PUSH2 0x8F2 JUMP JUMPDEST POP CALLVALUE PUSH2 0x103 JUMPI DUP2 PUSH1 0x3 NOT CALLDATASIZE ADD SLT PUSH2 0x103 JUMPI PUSH1 0x20 SWAP1 PUSH1 0x2 SLOAD SWAP1 MLOAD SWAP1 DUP2 MSTORE RETURN JUMPDEST POP CALLVALUE PUSH2 0x103 JUMPI DUP2 PUSH1 0x3 NOT CALLDATASIZE ADD SLT PUSH2 0x103 JUMPI PUSH1 0x1 SLOAD SWAP1 MLOAD PUSH1 0x1 PUSH1 0x1 PUSH1 0xA0 SHL SUB SWAP1 SWAP2 AND DUP2 MSTORE PUSH1 0x20 SWAP1 RETURN JUMPDEST POP CALLVALUE PUSH2 0x103 JUMPI PUSH1 0x20 CALLDATASIZE PUSH1 0x3 NOT ADD SLT PUSH2 0x103 JUMPI DUP1 SWAP2 PUSH1 0x4 CALLDATALOAD DUP2 MSTORE PUSH1 0x4 PUSH1 0x20 MSTORE KECCAK256 SWAP1 PUSH2 0x1F1 DUP3 SLOAD SWAP2 PUSH1 0xFF PUSH1 0x1 DUP6 ADD SLOAD AND SWAP4 PUSH1 0x2 DUP2 ADD SLOAD PUSH1 0xFF PUSH1 0x4 PUSH1 0x3 DUP5 ADD SLOAD SWAP4 ADD SLOAD AND SWAP3 MLOAD SWAP6 DUP7 SWAP6 DUP7 PUSH2 0x1F76 JUMP JUMPDEST POP SWAP1 CALLVALUE PUSH2 0xCE4 JUMPI PUSH1 0x20 DUP1 PUSH1 0x3 NOT CALLDATASIZE ADD SLT PUSH2 0x103 JUMPI PUSH1 0x4 CALLDATALOAD SWAP1 PUSH1 0x1 DUP1 PUSH1 0xA0 SHL SUB SWAP4 DUP5 PUSH1 0x1 SLOAD AND DUP2 MLOAD PUSH4 0x24ED653D PUSH1 0xE1 SHL SWAP1 DUP2 DUP2 MSTORE DUP5 DUP2 PUSH1 0x4 DUP2 DUP7 GAS STATICCALL SWAP1 DUP2 ISZERO PUSH2 0x14FA JUMPI SWAP1 DUP9 SWAP2 DUP9 SWAP2 PUSH2 0x15B7 JUMPI JUMPDEST POP AND CALLER SUB PUSH2 0x155F JUMPI DUP3 MLOAD SWAP1 DUP1 DUP3 MSTORE DUP5 DUP3 PUSH1 0x4 DUP2 DUP7 GAS STATICCALL SWAP2 DUP3 ISZERO PUSH2 0x14FA JUMPI SWAP1 DUP9 SWAP4 SWAP3 SWAP2 DUP9 SWAP3 PUSH2 0x1522 JUMPI JUMPDEST POP DUP5 MLOAD DUP9 DUP2 PUSH4 0x695730A5 PUSH1 0xE0 SHL SWAP5 DUP6 DUP3 MSTORE DUP11 PUSH1 0x4 DUP4 ADD MSTORE DUP2 PUSH1 0x24 SWAP14 DUP15 SWAP3 AND GAS STATICCALL SWAP1 DUP2 ISZERO PUSH2 0x1518 JUMPI DUP8 SWAP3 SWAP2 PUSH2 0x12F1 SWAP2 DUP12 SWAP2 PUSH2 0x1504 JUMPI POP ISZERO ISZERO PUSH2 0x20C4 JUMP JUMPDEST PUSH1 0x4 DUP7 MLOAD DUP1 SWAP6 DUP2 SWAP4 DUP3 MSTORE GAS STATICCALL SWAP2 DUP3 ISZERO PUSH2 0x14FA JUMPI DUP8 SWAP3 SWAP2 DUP10 SWAP2 DUP5 SWAP4 PUSH2 0x14BE JUMPI JUMPDEST POP DUP6 MLOAD SWAP5 DUP6 SWAP4 DUP5 SWAP3 DUP4 MSTORE DUP10 PUSH1 0x4 DUP5 ADD MSTORE AND GAS STATICCALL SWAP1 DUP2 ISZERO PUSH2 0x14B4 JUMPI DUP6 SWAP2 PUSH2 0x148E JUMPI JUMPDEST POP PUSH1 0x8 DUP2 LT ISZERO PUSH2 0x147B JUMPI PUSH1 0x5 SUB PUSH2 0x1438 JUMPI PUSH1 0x3 SLOAD PUSH1 0x0 NOT DUP2 EQ PUSH2 0x1425 JUMPI PUSH1 0x1 ADD DUP1 PUSH1 0x3 SSTORE DUP2 MLOAD SWAP6 PUSH2 0x1361 DUP8 PUSH2 0x1ECC JUMP JUMPDEST DUP5 DUP8 MSTORE DUP4 DUP8 ADD DUP7 DUP2 MSTORE DUP4 DUP9 ADD SWAP1 TIMESTAMP DUP3 MSTORE PUSH1 0x60 DUP10 ADD SWAP3 DUP9 DUP5 MSTORE PUSH1 0x80 DUP11 ADD SWAP5 DUP10 DUP7 MSTORE DUP10 MSTORE PUSH1 0x4 DUP8 MSTORE DUP6 DUP10 KECCAK256 SWAP10 MLOAD DUP11 SSTORE PUSH1 0x1 DUP11 ADD SWAP2 MLOAD SWAP1 PUSH1 0x3 DUP3 LT ISZERO PUSH2 0x1413 JUMPI POP SWAP3 PUSH1 0x4 SWAP3 PUSH2 0x13FB SWAP6 SWAP3 PUSH32 0xFA71779ECC1DD1EF48196A5AF1776F8A748036653CE2B5B310AB5E31B61CA32B SWAP10 SWAP11 SWAP12 SWAP6 PUSH1 0xFF DUP1 NOT DUP4 SLOAD AND SWAP2 AND OR SWAP1 SSTORE MLOAD PUSH1 0x2 DUP6 ADD SSTORE MLOAD PUSH1 0x3 DUP5 ADD SSTORE MLOAD ISZERO ISZERO SWAP2 ADD SWAP1 PUSH1 0xFF DUP1 NOT DUP4 SLOAD AND SWAP2 ISZERO ISZERO AND OR SWAP1 SSTORE JUMP JUMPDEST PUSH1 0x3 SLOAD SWAP1 DUP5 DUP7 MSTORE PUSH1 0x5 DUP4 MSTORE DUP2 DUP2 DUP8 KECCAK256 SSTORE MLOAD SWAP1 DUP2 MSTORE LOG2 DUP1 RETURN JUMPDEST PUSH4 0x4E487B71 PUSH1 0xE0 SHL DUP11 MSTORE PUSH1 0x21 PUSH1 0x4 MSTORE DUP10 REVERT JUMPDEST PUSH4 0x4E487B71 PUSH1 0xE0 SHL DUP6 MSTORE PUSH1 0x11 PUSH1 0x4 MSTORE DUP6 DUP6 REVERT JUMPDEST MLOAD PUSH3 0x461BCD PUSH1 0xE5 SHL DUP2 MSTORE PUSH1 0x4 DUP2 ADD SWAP2 SWAP1 SWAP2 MSTORE PUSH1 0x1F DUP2 DUP6 ADD MSTORE PUSH32 0x5472616465206973206E6F7420696E2064697370757465642073746174757300 PUSH1 0x44 DUP3 ADD MSTORE PUSH1 0x64 SWAP1 REVERT JUMPDEST PUSH4 0x4E487B71 PUSH1 0xE0 SHL DUP6 MSTORE PUSH1 0x21 PUSH1 0x4 MSTORE DUP6 DUP6 REVERT JUMPDEST PUSH2 0x14A2 SWAP2 POP RETURNDATASIZE DUP1 DUP8 DUP4 RETURNDATACOPY PUSH2 0x68A DUP2 DUP4 PUSH2 0x1EE8 JUMP JUMPDEST POP POP POP SWAP8 POP POP POP POP POP POP POP POP CODESIZE PUSH2 0x1331 JUMP JUMPDEST DUP3 MLOAD RETURNDATASIZE DUP8 DUP3 RETURNDATACOPY RETURNDATASIZE SWAP1 REVERT JUMPDEST SWAP3 POP SWAP3 POP POP DUP5 DUP2 DUP2 RETURNDATASIZE DUP4 GT PUSH2 0x14F3 JUMPI JUMPDEST PUSH2 0x14D8 DUP2 DUP4 PUSH2 0x1EE8 JUMP JUMPDEST DUP2 ADD SUB SLT PUSH2 0xE21 JUMPI SWAP1 DUP8 PUSH2 0x14EC DUP9 SWAP4 PUSH2 0x1FC1 JUMP JUMPDEST SWAP2 CODESIZE PUSH2 0x1310 JUMP JUMPDEST POP RETURNDATASIZE PUSH2 0x14CE JUMP JUMPDEST DUP5 MLOAD RETURNDATASIZE DUP10 DUP3 RETURNDATACOPY RETURNDATASIZE SWAP1 REVERT JUMPDEST PUSH2 0x788 SWAP2 POP RETURNDATASIZE DUP1 DUP14 DUP4 RETURNDATACOPY PUSH2 0x68A DUP2 DUP4 PUSH2 0x1EE8 JUMP JUMPDEST DUP7 MLOAD RETURNDATASIZE DUP12 DUP3 RETURNDATACOPY RETURNDATASIZE SWAP1 REVERT JUMPDEST DUP7 DUP1 SWAP3 SWAP5 SWAP6 POP DUP2 SWAP4 POP RETURNDATASIZE DUP4 GT PUSH2 0x1558 JUMPI JUMPDEST PUSH2 0x153D DUP2 DUP4 PUSH2 0x1EE8 JUMP JUMPDEST DUP2 ADD SUB SLT PUSH2 0xE21 JUMPI SWAP1 PUSH2 0x1551 DUP9 SWAP4 SWAP3 PUSH2 0x1FC1 JUMP JUMPDEST SWAP1 CODESIZE PUSH2 0x12B5 JUMP JUMPDEST POP RETURNDATASIZE PUSH2 0x1533 JUMP JUMPDEST DUP3 MLOAD PUSH3 0x461BCD PUSH1 0xE5 SHL DUP2 MSTORE PUSH1 0x4 DUP2 ADD DUP6 SWAP1 MSTORE PUSH1 0x2B PUSH1 0x24 DUP3 ADD MSTORE PUSH32 0x4F6E6C7920547261646520636F6E74726163742063616E20706572666F726D20 PUSH1 0x44 DUP3 ADD MSTORE PUSH11 0x3A3434B99030B1BA34B7B7 PUSH1 0xA9 SHL PUSH1 0x64 DUP3 ADD MSTORE PUSH1 0x84 SWAP1 REVERT JUMPDEST DUP1 SWAP3 POP DUP7 DUP1 SWAP3 POP RETURNDATASIZE DUP4 GT PUSH2 0x15E8 JUMPI JUMPDEST PUSH2 0x15D0 DUP2 DUP4 PUSH2 0x1EE8 JUMP JUMPDEST DUP2 ADD SUB SLT PUSH2 0xE21 JUMPI PUSH2 0x15E2 DUP9 SWAP2 PUSH2 0x1FC1 JUMP JUMPDEST CODESIZE PUSH2 0x128C JUMP JUMPDEST POP RETURNDATASIZE PUSH2 0x15C6 JUMP JUMPDEST POP CALLVALUE PUSH2 0x103 JUMPI PUSH2 0x15FE CALLDATASIZE PUSH2 0x1F52 JUMP JUMPDEST SWAP2 SWAP1 PUSH2 0x1614 PUSH1 0x1 DUP1 PUSH1 0xA0 SHL SUB DUP6 SLOAD AND CALLER EQ PUSH2 0x2107 JUMP JUMPDEST DUP1 ISZERO ISZERO DUP1 PUSH2 0x16E0 JUMPI JUMPDEST PUSH2 0x1626 SWAP1 PUSH2 0x215E JUMP JUMPDEST DUP1 DUP5 MSTORE PUSH1 0x4 PUSH1 0x20 MSTORE PUSH1 0xFF PUSH1 0x1 DUP4 DUP7 KECCAK256 ADD SLOAD AND PUSH1 0x3 DUP2 LT ISZERO PUSH2 0x16CC JUMPI PUSH2 0x164B SWAP1 ISZERO PUSH2 0x21A3 JUMP JUMPDEST PUSH1 0x2 SLOAD TIMESTAMP ADD SWAP3 DUP4 TIMESTAMP GT PUSH2 0x16B8 JUMPI SWAP1 PUSH32 0x211B2FC9CDB851A325FB3CC3D094F8C1F22F121F7A6E20977D9C5C0B44A40C10 SWAP3 SWAP2 DUP2 DUP7 MSTORE PUSH1 0x4 PUSH1 0x20 MSTORE PUSH2 0x16A7 DUP4 DUP8 KECCAK256 SWAP2 PUSH1 0x3 DUP4 ADD SWAP7 DUP8 SSTORE PUSH1 0x4 DUP4 ADD SWAP1 PUSH1 0xFF DUP1 NOT DUP4 SLOAD AND SWAP2 ISZERO ISZERO AND OR SWAP1 SSTORE JUMP JUMPDEST SLOAD SWAP4 SLOAD DUP3 MLOAD SWAP2 DUP3 MSTORE PUSH1 0x20 DUP3 ADD MSTORE LOG2 DUP1 RETURN JUMPDEST PUSH4 0x4E487B71 PUSH1 0xE0 SHL DUP6 MSTORE PUSH1 0x11 PUSH1 0x4 MSTORE PUSH1 0x24 DUP6 REVERT JUMPDEST PUSH4 0x4E487B71 PUSH1 0xE0 SHL DUP6 MSTORE PUSH1 0x21 PUSH1 0x4 MSTORE PUSH1 0x24 DUP6 REVERT JUMPDEST POP PUSH1 0x3 SLOAD DUP2 GT ISZERO PUSH2 0x161D JUMP JUMPDEST POP CALLVALUE PUSH2 0x103 JUMPI PUSH1 0x20 SWAP2 DUP3 PUSH1 0x3 NOT CALLDATASIZE ADD SLT PUSH2 0xCE4 JUMPI PUSH1 0x1 SLOAD DUP3 MLOAD PUSH4 0x24ED653D PUSH1 0xE1 SHL DUP2 MSTORE PUSH1 0x4 DUP1 CALLDATALOAD SWAP3 PUSH1 0x1 PUSH1 0x1 PUSH1 0xA0 SHL SUB SWAP3 SWAP2 DUP8 SWAP2 DUP4 SWAP2 SWAP1 DUP3 SWAP1 DUP7 AND GAS STATICCALL SWAP1 DUP2 ISZERO PUSH2 0x17F8 JUMPI SWAP1 DUP5 SWAP2 DUP3 SWAP2 PUSH2 0x17BC JUMPI JUMPDEST POP PUSH1 0x24 DUP7 MLOAD DUP1 SWAP5 DUP2 SWAP4 PUSH4 0x695730A5 PUSH1 0xE0 SHL DUP4 MSTORE DUP8 PUSH1 0x4 DUP5 ADD MSTORE AND GAS STATICCALL SWAP1 DUP2 ISZERO PUSH2 0x17B2 JUMPI SWAP3 PUSH1 0x4 SWAP3 PUSH2 0x1777 DUP7 SWAP4 PUSH1 0xFF SWAP7 DUP5 SWAP2 PUSH2 0x179E JUMPI POP ISZERO ISZERO PUSH2 0x20C4 JUMP JUMPDEST DUP2 MSTORE PUSH1 0x5 DUP7 MSTORE DUP2 DUP2 KECCAK256 SLOAD PUSH2 0x178C DUP2 ISZERO ISZERO PUSH2 0x21EF JUMP JUMPDEST DUP2 MSTORE DUP3 DUP7 MSTORE KECCAK256 ADD SLOAD AND SWAP1 MLOAD SWAP1 ISZERO ISZERO DUP2 MSTORE RETURN JUMPDEST PUSH2 0x788 SWAP2 POP RETURNDATASIZE DUP1 DUP7 DUP4 RETURNDATACOPY PUSH2 0x68A DUP2 DUP4 PUSH2 0x1EE8 JUMP JUMPDEST DUP5 MLOAD RETURNDATASIZE DUP6 DUP3 RETURNDATACOPY RETURNDATASIZE SWAP1 REVERT JUMPDEST DUP1 SWAP3 POP DUP8 DUP1 SWAP3 POP RETURNDATASIZE DUP4 GT PUSH2 0x17F1 JUMPI JUMPDEST PUSH2 0x17D5 DUP2 DUP4 PUSH2 0x1EE8 JUMP JUMPDEST DUP2 ADD SUB SLT PUSH2 0x17ED JUMPI PUSH2 0x17E7 DUP5 SWAP2 PUSH2 0x1FC1 JUMP JUMPDEST CODESIZE PUSH2 0x173A JUMP JUMPDEST DUP4 DUP1 REVERT JUMPDEST POP RETURNDATASIZE PUSH2 0x17CB JUMP JUMPDEST DUP6 MLOAD RETURNDATASIZE DUP7 DUP3 RETURNDATACOPY RETURNDATASIZE SWAP1 REVERT JUMPDEST POP SWAP1 CALLVALUE PUSH2 0xCE4 JUMPI PUSH2 0x1812 CALLDATASIZE PUSH2 0x1F52 JUMP JUMPDEST DUP3 SLOAD PUSH1 0x1 PUSH1 0x1 PUSH1 0xA0 SHL SUB SWAP3 SWAP1 PUSH2 0x182B SWAP1 DUP5 AND CALLER EQ PUSH2 0x2107 JUMP JUMPDEST DUP1 ISZERO ISZERO DUP1 PUSH2 0x1BE3 JUMPI JUMPDEST PUSH2 0x183D SWAP1 PUSH2 0x215E JUMP JUMPDEST DUP1 DUP5 MSTORE PUSH1 0x20 SWAP3 PUSH1 0x4 DUP5 MSTORE PUSH1 0x1 SWAP4 PUSH1 0xFF DUP6 DUP9 DUP9 KECCAK256 ADD SLOAD AND PUSH1 0x3 DUP2 LT ISZERO PUSH2 0x1BCF JUMPI PUSH2 0x1866 SWAP1 ISZERO PUSH2 0x21A3 JUMP JUMPDEST DUP3 DUP7 MSTORE PUSH1 0x4 DUP2 MSTORE PUSH1 0x3 DUP8 DUP8 KECCAK256 ADD SLOAD PUSH2 0x1B80 JUMPI DUP3 DUP7 MSTORE PUSH1 0x4 DUP2 MSTORE DUP7 DUP7 KECCAK256 SLOAD SWAP5 PUSH1 0x4 DUP3 DUP5 DUP4 SLOAD AND DUP11 MLOAD SWAP3 DUP4 DUP1 SWAP3 PUSH4 0x24ED653D PUSH1 0xE1 SHL DUP3 MSTORE GAS STATICCALL SWAP1 DUP2 ISZERO PUSH2 0x1B37 JUMPI DUP5 SWAP4 SWAP3 SWAP2 DUP10 SWAP2 DUP3 SWAP2 PUSH2 0x1B41 JUMPI JUMPDEST POP PUSH1 0x24 DUP12 MLOAD DUP1 SWAP7 DUP2 SWAP4 PUSH4 0x695730A5 PUSH1 0xE0 SHL DUP4 MSTORE DUP13 PUSH1 0x4 DUP5 ADD MSTORE AND GAS STATICCALL SWAP3 DUP4 ISZERO PUSH2 0x1B37 JUMPI DUP9 SWAP4 PUSH2 0x1B0F JUMPI JUMPDEST POP DUP5 DUP9 MSTORE PUSH1 0x4 DUP3 MSTORE PUSH2 0x1911 DUP7 PUSH1 0x4 DUP12 DUP12 KECCAK256 DUP5 DUP2 ADD DUP6 PUSH1 0xFF NOT DUP3 SLOAD AND OR SWAP1 SSTORE TIMESTAMP PUSH1 0x3 DUP3 ADD SSTORE ADD SWAP1 PUSH1 0xFF DUP1 NOT DUP4 SLOAD AND SWAP2 ISZERO ISZERO AND OR SWAP1 SSTORE JUMP JUMPDEST DUP6 ISZERO PUSH2 0x1A28 JUMPI SWAP1 PUSH1 0x4 DUP2 DUP6 DUP11 SWAP12 SWAP10 SWAP11 SWAP7 SWAP6 SWAP5 SLOAD AND DUP10 MLOAD SWAP3 DUP4 DUP1 SWAP3 PUSH4 0x3577BE9 PUSH1 0xE2 SHL DUP3 MSTORE GAS STATICCALL SWAP2 DUP3 ISZERO PUSH2 0x1A1E JUMPI SWAP1 DUP5 SWAP3 SWAP2 DUP7 SWAP3 PUSH2 0x19E6 JUMPI JUMPDEST POP POP AND SWAP2 DUP3 EXTCODESIZE ISZERO PUSH2 0x17ED JUMPI DUP7 MLOAD PUSH4 0xDE9D8587 PUSH1 0xE0 SHL DUP2 MSTORE PUSH1 0x4 DUP2 ADD DUP10 SWAP1 MSTORE SWAP2 AND PUSH1 0x1 PUSH1 0x1 PUSH1 0xA0 SHL SUB AND PUSH1 0x24 DUP3 ADD MSTORE SWAP1 DUP3 SWAP1 DUP3 SWAP1 DUP2 DUP4 DUP2 PUSH1 0x44 DUP2 ADD SUB SWAP3 GAS CALL DUP1 ISZERO PUSH2 0x19DC JUMPI PUSH2 0x19C4 JUMPI JUMPDEST POP POP PUSH2 0x19BE PUSH1 0x0 DUP1 MLOAD PUSH1 0x20 PUSH2 0x223C DUP4 CODECOPY DUP2 MLOAD SWAP2 MSTORE SWAP4 JUMPDEST MLOAD SWAP2 DUP3 MSTORE SWAP2 ISZERO ISZERO PUSH1 0x20 DUP3 ADD MSTORE SWAP1 DUP2 SWAP1 PUSH1 0x40 DUP3 ADD SWAP1 JUMP JUMPDEST SUB SWAP1 LOG2 DUP1 RETURN JUMPDEST PUSH2 0x19CD SWAP1 PUSH2 0x1EA2 JUMP JUMPDEST PUSH2 0x19D8 JUMPI DUP5 CODESIZE PUSH2 0x1992 JUMP JUMPDEST DUP5 DUP1 REVERT JUMPDEST DUP6 MLOAD RETURNDATASIZE DUP5 DUP3 RETURNDATACOPY RETURNDATASIZE SWAP1 REVERT JUMPDEST DUP2 SWAP4 POP DUP1 SWAP3 POP RETURNDATASIZE DUP4 GT PUSH2 0x1A17 JUMPI JUMPDEST PUSH2 0x19FE DUP2 DUP4 PUSH2 0x1EE8 JUMP JUMPDEST DUP2 ADD SUB SLT PUSH2 0x17ED JUMPI PUSH2 0x1A10 DUP4 SWAP2 PUSH2 0x1FC1 JUMP JUMPDEST CODESIZE DUP1 PUSH2 0x1949 JUMP JUMPDEST POP RETURNDATASIZE PUSH2 0x19F4 JUMP JUMPDEST DUP9 MLOAD RETURNDATASIZE DUP8 DUP3 RETURNDATACOPY RETURNDATASIZE SWAP1 REVERT JUMPDEST SLOAD DUP9 MLOAD PUSH4 0x3577BE9 PUSH1 0xE2 SHL DUP2 MSTORE SWAP2 SWAP3 POP DUP3 SWAP1 DUP3 SWAP1 PUSH1 0x4 SWAP1 DUP3 SWAP1 DUP8 AND GAS STATICCALL SWAP2 DUP3 ISZERO PUSH2 0x1B05 JUMPI DUP8 SWAP3 PUSH2 0x1ACF JUMPI JUMPDEST POP POP AND DUP1 EXTCODESIZE ISZERO PUSH2 0x19D8 JUMPI DUP5 DUP1 SWAP2 PUSH1 0x24 DUP9 MLOAD DUP1 SWAP5 DUP2 SWAP4 PUSH4 0x277C2EE5 PUSH1 0xE0 SHL DUP4 MSTORE DUP10 PUSH1 0x4 DUP5 ADD MSTORE GAS CALL DUP1 ISZERO PUSH2 0x1AC5 JUMPI PUSH2 0x1AA0 JUMPI JUMPDEST POP PUSH2 0x19BE PUSH1 0x0 DUP1 MLOAD PUSH1 0x20 PUSH2 0x223C DUP4 CODECOPY DUP2 MLOAD SWAP2 MSTORE SWAP4 SWAP5 SWAP6 PUSH2 0x19A8 JUMP JUMPDEST PUSH1 0x0 DUP1 MLOAD PUSH1 0x20 PUSH2 0x223C DUP4 CODECOPY DUP2 MLOAD SWAP2 MSTORE SWAP4 SWAP5 PUSH2 0x1ABD PUSH2 0x19BE SWAP3 PUSH2 0x1EA2 JUMP JUMPDEST SWAP5 SWAP4 POP PUSH2 0x1A85 JUMP JUMPDEST DUP7 MLOAD RETURNDATASIZE DUP8 DUP3 RETURNDATACOPY RETURNDATASIZE SWAP1 REVERT JUMPDEST SWAP1 DUP1 SWAP3 POP DUP2 RETURNDATASIZE DUP4 GT PUSH2 0x1AFE JUMPI JUMPDEST PUSH2 0x1AE6 DUP2 DUP4 PUSH2 0x1EE8 JUMP JUMPDEST DUP2 ADD SUB SLT PUSH2 0x7D7 JUMPI PUSH2 0x1AF7 SWAP1 PUSH2 0x1FC1 JUMP JUMPDEST CODESIZE DUP1 PUSH2 0x1A53 JUMP JUMPDEST POP RETURNDATASIZE PUSH2 0x1ADC JUMP JUMPDEST DUP9 MLOAD RETURNDATASIZE DUP10 DUP3 RETURNDATACOPY RETURNDATASIZE SWAP1 REVERT JUMPDEST PUSH2 0x1B24 SWAP2 SWAP4 POP RETURNDATASIZE DUP1 DUP11 DUP4 RETURNDATACOPY PUSH2 0x68A DUP2 DUP4 PUSH2 0x1EE8 JUMP JUMPDEST POP POP POP POP POP POP POP POP POP POP SWAP1 POP SWAP2 CODESIZE PUSH2 0x18DB JUMP JUMPDEST DUP10 MLOAD RETURNDATASIZE DUP11 DUP3 RETURNDATACOPY RETURNDATASIZE SWAP1 REVERT JUMPDEST SWAP3 SWAP4 DUP1 SWAP6 POP DUP1 SWAP3 POP DUP4 SWAP2 POP RETURNDATASIZE DUP4 GT PUSH2 0x1B79 JUMPI JUMPDEST PUSH2 0x1B5E DUP2 DUP4 PUSH2 0x1EE8 JUMP JUMPDEST DUP2 ADD SUB SLT PUSH2 0xDC5 JUMPI SWAP1 DUP8 PUSH2 0x1B73 DUP6 SWAP5 SWAP4 PUSH2 0x1FC1 JUMP JUMPDEST CODESIZE PUSH2 0x18B1 JUMP JUMPDEST POP RETURNDATASIZE PUSH2 0x1B54 JUMP JUMPDEST PUSH1 0x84 SWAP1 DUP8 MLOAD SWAP1 PUSH3 0x461BCD PUSH1 0xE5 SHL DUP3 MSTORE PUSH1 0x4 DUP3 ADD MSTORE PUSH1 0x24 DUP1 DUP3 ADD MSTORE PUSH32 0x44697370757465207265736F6C7574696F6E20616C726561647920696E697469 PUSH1 0x44 DUP3 ADD MSTORE PUSH4 0x185D1959 PUSH1 0xE2 SHL PUSH1 0x64 DUP3 ADD MSTORE REVERT JUMPDEST PUSH4 0x4E487B71 PUSH1 0xE0 SHL DUP8 MSTORE PUSH1 0x21 PUSH1 0x4 MSTORE PUSH1 0x24 DUP8 REVERT JUMPDEST POP PUSH1 0x3 SLOAD DUP2 GT ISZERO PUSH2 0x1834 JUMP JUMPDEST POP CALLVALUE PUSH2 0x103 JUMPI DUP1 PUSH1 0x3 NOT CALLDATASIZE ADD SLT PUSH2 0x103 JUMPI PUSH1 0x24 CALLDATALOAD SWAP1 PUSH1 0x4 CALLDATALOAD DUP4 MSTORE PUSH1 0x20 SWAP2 PUSH1 0x6 DUP4 MSTORE DUP2 DUP5 KECCAK256 SWAP1 DUP2 SLOAD DUP2 LT ISZERO PUSH2 0x19D8 JUMPI PUSH2 0x1C26 SWAP2 PUSH2 0x1E3A JUMP JUMPDEST PUSH2 0x1CE4 JUMPI DUP2 MLOAD SWAP4 DUP5 SWAP2 DUP2 DUP2 SLOAD SWAP1 PUSH2 0x1C3C DUP3 PUSH2 0x1E68 JUMP JUMPDEST SWAP3 DUP4 DUP7 MSTORE PUSH1 0x1 SWAP3 DUP9 PUSH1 0x1 DUP3 AND SWAP2 DUP3 PUSH1 0x0 EQ PUSH2 0x1CBA JUMPI POP POP PUSH1 0x1 EQ PUSH2 0x1C7C JUMPI JUMPDEST DUP6 DUP9 PUSH2 0x1F1 DUP10 PUSH2 0x1C6D DUP5 DUP11 SUB DUP6 PUSH2 0x1EE8 JUMP JUMPDEST MLOAD SWAP3 DUP3 DUP5 SWAP4 DUP5 MSTORE DUP4 ADD SWAP1 PUSH2 0x1F2D JUMP JUMPDEST DUP8 SWAP5 POP DUP2 SWAP4 SWAP3 SWAP2 MSTORE DUP4 DUP4 KECCAK256 JUMPDEST DUP3 DUP5 LT PUSH2 0x1CA2 JUMPI POP POP POP DUP3 ADD ADD DUP2 PUSH2 0x1C6D PUSH2 0x1F1 CODESIZE PUSH2 0x1C5B JUMP JUMPDEST DUP1 SLOAD DUP5 DUP11 ADD DUP7 ADD MSTORE DUP9 SWAP6 POP DUP8 SWAP5 SWAP1 SWAP4 ADD SWAP3 DUP2 ADD PUSH2 0x1C88 JUMP JUMPDEST PUSH1 0xFF NOT AND DUP9 DUP3 ADD MSTORE SWAP5 ISZERO ISZERO PUSH1 0x5 SHL DUP8 ADD SWAP1 SWAP5 ADD SWAP5 POP DUP6 SWAP4 POP PUSH2 0x1C6D SWAP3 POP PUSH2 0x1F1 SWAP2 POP CODESIZE SWAP1 POP PUSH2 0x1C5B JUMP JUMPDEST PUSH4 0x4E487B71 PUSH1 0xE0 SHL DUP5 MSTORE PUSH1 0x4 DUP5 SWAP1 MSTORE PUSH1 0x24 DUP5 REVERT JUMPDEST DUP4 DUP4 CALLVALUE PUSH2 0x103 JUMPI PUSH1 0x20 SWAP3 DUP4 PUSH1 0x3 NOT CALLDATASIZE ADD SLT PUSH2 0x769 JUMPI PUSH1 0x4 CALLDATALOAD SWAP1 PUSH1 0x1 DUP1 PUSH1 0xA0 SHL SUB SWAP1 DUP6 DUP2 PUSH1 0x4 DUP2 DUP6 PUSH1 0x1 SLOAD AND PUSH4 0x24ED653D PUSH1 0xE1 SHL DUP3 MSTORE GAS STATICCALL SWAP1 DUP2 ISZERO PUSH2 0x1E30 JUMPI SWAP1 DUP6 SWAP2 DUP3 SWAP2 PUSH2 0x1DF8 JUMPI JUMPDEST POP PUSH1 0x24 DUP6 MLOAD DUP1 SWAP5 DUP2 SWAP4 PUSH4 0x695730A5 PUSH1 0xE0 SHL DUP4 MSTORE DUP8 PUSH1 0x4 DUP5 ADD MSTORE AND GAS STATICCALL SWAP1 DUP2 ISZERO PUSH2 0x722 JUMPI SWAP1 PUSH2 0x1D76 SWAP2 DUP6 SWAP2 PUSH2 0x1DD3 JUMPI POP ISZERO ISZERO PUSH2 0x20C4 JUMP JUMPDEST DUP3 MSTORE PUSH1 0x5 DUP4 MSTORE DUP1 DUP3 KECCAK256 SLOAD SWAP2 DUP3 ISZERO ISZERO SWAP3 DUP4 PUSH2 0x1D95 JUMPI JUMPDEST POP POP MLOAD SWAP1 ISZERO ISZERO DUP2 MSTORE RETURN JUMPDEST SWAP1 DUP1 SWAP3 SWAP4 POP MSTORE PUSH1 0x4 DUP4 MSTORE PUSH1 0xFF PUSH1 0x1 DUP4 DUP4 KECCAK256 ADD SLOAD AND SWAP1 PUSH1 0x3 DUP3 LT ISZERO PUSH2 0x1DBF JUMPI POP PUSH1 0x1 EQ SWAP1 DUP4 DUP1 PUSH2 0x1D8B JUMP JUMPDEST PUSH4 0x4E487B71 PUSH1 0xE0 SHL DUP2 MSTORE PUSH1 0x21 PUSH1 0x4 MSTORE PUSH1 0x24 SWAP1 REVERT JUMPDEST PUSH2 0x1DE7 SWAP2 POP RETURNDATASIZE DUP1 DUP8 DUP4 RETURNDATACOPY PUSH2 0x68A DUP2 DUP4 PUSH2 0x1EE8 JUMP JUMPDEST POP POP POP POP POP POP POP POP POP POP POP DUP7 PUSH2 0x31A JUMP JUMPDEST DUP1 SWAP3 POP DUP8 DUP1 SWAP3 POP RETURNDATASIZE DUP4 GT PUSH2 0x1E29 JUMPI JUMPDEST PUSH2 0x1E11 DUP2 DUP4 PUSH2 0x1EE8 JUMP JUMPDEST DUP2 ADD SUB SLT PUSH2 0x19D8 JUMPI PUSH2 0x1E23 DUP6 SWAP2 PUSH2 0x1FC1 JUMP JUMPDEST DUP8 PUSH2 0x1D40 JUMP JUMPDEST POP RETURNDATASIZE PUSH2 0x1E07 JUMP JUMPDEST DUP5 MLOAD RETURNDATASIZE DUP8 DUP3 RETURNDATACOPY RETURNDATASIZE SWAP1 REVERT JUMPDEST DUP1 SLOAD DUP3 LT ISZERO PUSH2 0x1E52 JUMPI PUSH1 0x0 MSTORE PUSH1 0x20 PUSH1 0x0 KECCAK256 ADD SWAP1 PUSH1 0x0 SWAP1 JUMP JUMPDEST PUSH4 0x4E487B71 PUSH1 0xE0 SHL PUSH1 0x0 MSTORE PUSH1 0x32 PUSH1 0x4 MSTORE PUSH1 0x24 PUSH1 0x0 REVERT JUMPDEST SWAP1 PUSH1 0x1 DUP3 DUP2 SHR SWAP3 AND DUP1 ISZERO PUSH2 0x1E98 JUMPI JUMPDEST PUSH1 0x20 DUP4 LT EQ PUSH2 0x1E82 JUMPI JUMP JUMPDEST PUSH4 0x4E487B71 PUSH1 0xE0 SHL PUSH1 0x0 MSTORE PUSH1 0x22 PUSH1 0x4 MSTORE PUSH1 0x24 PUSH1 0x0 REVERT JUMPDEST SWAP2 PUSH1 0x7F AND SWAP2 PUSH2 0x1E77 JUMP JUMPDEST PUSH8 0xFFFFFFFFFFFFFFFF DUP2 GT PUSH2 0x1EB6 JUMPI PUSH1 0x40 MSTORE JUMP JUMPDEST PUSH4 0x4E487B71 PUSH1 0xE0 SHL PUSH1 0x0 MSTORE PUSH1 0x41 PUSH1 0x4 MSTORE PUSH1 0x24 PUSH1 0x0 REVERT JUMPDEST PUSH1 0xA0 DUP2 ADD SWAP1 DUP2 LT PUSH8 0xFFFFFFFFFFFFFFFF DUP3 GT OR PUSH2 0x1EB6 JUMPI PUSH1 0x40 MSTORE JUMP JUMPDEST SWAP1 PUSH1 0x1F DUP1 NOT SWAP2 ADD AND DUP2 ADD SWAP1 DUP2 LT PUSH8 0xFFFFFFFFFFFFFFFF DUP3 GT OR PUSH2 0x1EB6 JUMPI PUSH1 0x40 MSTORE JUMP JUMPDEST PUSH1 0x0 JUMPDEST DUP4 DUP2 LT PUSH2 0x1F1D JUMPI POP POP PUSH1 0x0 SWAP2 ADD MSTORE JUMP JUMPDEST DUP2 DUP2 ADD MLOAD DUP4 DUP3 ADD MSTORE PUSH1 0x20 ADD PUSH2 0x1F0D JUMP JUMPDEST SWAP1 PUSH1 0x20 SWAP2 PUSH2 0x1F46 DUP2 MLOAD DUP1 SWAP3 DUP2 DUP6 MSTORE DUP6 DUP1 DUP7 ADD SWAP2 ADD PUSH2 0x1F0A JUMP JUMPDEST PUSH1 0x1F ADD PUSH1 0x1F NOT AND ADD ADD SWAP1 JUMP JUMPDEST PUSH1 0x40 SWAP1 PUSH1 0x3 NOT ADD SLT PUSH2 0x1F71 JUMPI PUSH1 0x4 CALLDATALOAD SWAP1 PUSH1 0x24 CALLDATALOAD DUP1 ISZERO ISZERO DUP2 SUB PUSH2 0x1F71 JUMPI SWAP1 JUMP JUMPDEST PUSH1 0x0 DUP1 REVERT JUMPDEST SWAP4 SWAP1 SWAP6 SWAP5 SWAP2 SWAP3 PUSH1 0xA0 DUP6 ADD SWAP7 DUP6 MSTORE PUSH1 0x3 DUP5 LT ISZERO PUSH2 0x1F5 JUMPI PUSH1 0x80 SWAP4 PUSH1 0x20 DUP7 ADD MSTORE PUSH1 0x40 DUP6 ADD MSTORE PUSH1 0x60 DUP5 ADD MSTORE ISZERO ISZERO SWAP2 ADD MSTORE JUMP JUMPDEST PUSH8 0xFFFFFFFFFFFFFFFF DUP2 GT PUSH2 0x1EB6 JUMPI PUSH1 0x1F ADD PUSH1 0x1F NOT AND PUSH1 0x20 ADD SWAP1 JUMP JUMPDEST MLOAD SWAP1 PUSH1 0x1 PUSH1 0x1 PUSH1 0xA0 SHL SUB DUP3 AND DUP3 SUB PUSH2 0x1F71 JUMPI JUMP JUMPDEST DUP2 PUSH1 0x1F DUP3 ADD SLT ISZERO PUSH2 0x1F71 JUMPI DUP1 MLOAD PUSH2 0x1FEB DUP2 PUSH2 0x1FA5 JUMP JUMPDEST SWAP3 PUSH2 0x1FF9 PUSH1 0x40 MLOAD SWAP5 DUP6 PUSH2 0x1EE8 JUMP JUMPDEST DUP2 DUP5 MSTORE PUSH1 0x20 DUP3 DUP5 ADD ADD GT PUSH2 0x1F71 JUMPI PUSH2 0x2017 SWAP2 PUSH1 0x20 DUP1 DUP6 ADD SWAP2 ADD PUSH2 0x1F0A JUMP JUMPDEST SWAP1 JUMP JUMPDEST SWAP1 SWAP2 PUSH2 0x180 DUP3 DUP5 SUB SLT PUSH2 0x1F71 JUMPI DUP2 MLOAD SWAP3 PUSH2 0x2036 PUSH1 0x20 DUP5 ADD PUSH2 0x1FC1 JUMP JUMPDEST SWAP3 PUSH1 0x40 DUP2 ADD MLOAD SWAP3 PUSH1 0x60 DUP3 ADD MLOAD SWAP3 PUSH1 0x80 DUP4 ADD MLOAD SWAP2 PUSH8 0xFFFFFFFFFFFFFFFF SWAP3 DUP4 DUP2 GT PUSH2 0x1F71 JUMPI DUP3 PUSH2 0x2066 SWAP2 DUP7 ADD PUSH2 0x1FD5 JUMP JUMPDEST SWAP4 PUSH1 0xA0 DUP2 ADD MLOAD DUP5 DUP2 GT PUSH2 0x1F71 JUMPI DUP4 PUSH2 0x207F SWAP2 DUP4 ADD PUSH2 0x1FD5 JUMP JUMPDEST SWAP4 PUSH1 0xC0 DUP3 ADD MLOAD SWAP4 PUSH1 0xE0 DUP4 ADD MLOAD SWAP2 DUP3 GT PUSH2 0x1F71 JUMPI PUSH2 0x209D SWAP2 DUP4 ADD PUSH2 0x1FD5 JUMP JUMPDEST SWAP2 PUSH2 0x100 DUP3 ADD MLOAD PUSH1 0x8 DUP2 LT ISZERO PUSH2 0x1F71 JUMPI SWAP2 PUSH2 0x120 DUP2 ADD MLOAD SWAP2 PUSH2 0x160 PUSH2 0x140 DUP4 ADD MLOAD SWAP3 ADD MLOAD SWAP1 JUMP JUMPDEST ISZERO PUSH2 0x20CB JUMPI JUMP JUMPDEST PUSH1 0x40 MLOAD PUSH3 0x461BCD PUSH1 0xE5 SHL DUP2 MSTORE PUSH1 0x20 PUSH1 0x4 DUP3 ADD MSTORE PUSH1 0x14 PUSH1 0x24 DUP3 ADD MSTORE PUSH20 0x151C98591948191BD95CC81B9BDD08195E1A5CDD PUSH1 0x62 SHL PUSH1 0x44 DUP3 ADD MSTORE PUSH1 0x64 SWAP1 REVERT JUMPDEST ISZERO PUSH2 0x210E JUMPI JUMP JUMPDEST PUSH1 0x40 MLOAD PUSH3 0x461BCD PUSH1 0xE5 SHL DUP2 MSTORE PUSH1 0x20 PUSH1 0x4 DUP3 ADD MSTORE PUSH1 0x22 PUSH1 0x24 DUP3 ADD MSTORE PUSH32 0x4F6E6C792061646D696E2063616E20706572666F726D20746869732061637469 PUSH1 0x44 DUP3 ADD MSTORE PUSH2 0x37B7 PUSH1 0xF1 SHL PUSH1 0x64 DUP3 ADD MSTORE PUSH1 0x84 SWAP1 REVERT JUMPDEST ISZERO PUSH2 0x2165 JUMPI JUMP JUMPDEST PUSH1 0x40 MLOAD PUSH3 0x461BCD PUSH1 0xE5 SHL DUP2 MSTORE PUSH1 0x20 PUSH1 0x4 DUP3 ADD MSTORE PUSH1 0x16 PUSH1 0x24 DUP3 ADD MSTORE PUSH22 0x111A5CDC1D5D1948191BD95CC81B9BDD08195E1A5CDD PUSH1 0x52 SHL PUSH1 0x44 DUP3 ADD MSTORE PUSH1 0x64 SWAP1 REVERT JUMPDEST ISZERO PUSH2 0x21AA JUMPI JUMP JUMPDEST PUSH1 0x40 MLOAD PUSH3 0x461BCD PUSH1 0xE5 SHL DUP2 MSTORE PUSH1 0x20 PUSH1 0x4 DUP3 ADD MSTORE PUSH1 0x1B PUSH1 0x24 DUP3 ADD MSTORE PUSH32 0x4469737075746520697320616C7265616479207265736F6C7665640000000000 PUSH1 0x44 DUP3 ADD MSTORE PUSH1 0x64 SWAP1 REVERT JUMPDEST ISZERO PUSH2 0x21F6 JUMPI JUMP JUMPDEST PUSH1 0x40 MLOAD PUSH3 0x461BCD PUSH1 0xE5 SHL DUP2 MSTORE PUSH1 0x20 PUSH1 0x4 DUP3 ADD MSTORE PUSH1 0x1E PUSH1 0x24 DUP3 ADD MSTORE PUSH32 0x4E6F206469737075746520666F756E6420666F72207468652074726164650000 PUSH1 0x44 DUP3 ADD MSTORE PUSH1 0x64 SWAP1 REVERT INVALID 0xC8 BLOBBASEFEE PUSH24 0x110774854AB237145B108E924962DBAA5191275EB044A6CB MULMOD PUSH3 0x1C4A94 LOG2 PUSH5 0x6970667358 0x22 SLT KECCAK256 0xD5 EXTCODEHASH 0xC0 0xD3 PUSH32 0xDF7C202DE00B768EF31A94A78A346ED820B432F0626727DE5A353564736F6C63 NUMBER STOP ADDMOD XOR STOP CALLER "},"methodIdentifiers":{"admin()":"f851a440","cancelDisputeResolution(uint256)":"9bdad207","disputeCount()":"a28889e1","disputeEvidence(uint256,uint256)":"2d5db630","disputes(uint256)":"564a565d","getDisputeDetails(uint256)":"ea89735d","getDisputeOutcome(uint256)":"39f0a711","handleDispute(uint256)":"4b54a379","initiateDisputeResolution(uint256,bool)":"3d8f6e3b","isDisputeResolved(uint256)":"155e5fce","registry()":"7b103999","resolutionTimelock()":"90bad670","resolveDispute(uint256,bool)":"34b25ee2","resolveDisputeAfterTimelock(uint256)":"9aaf3017","submitEvidence(uint256,string)":"a6a7f0eb","tradeDisputeIds(uint256)":"dd2163f2","updateResolutionTimelock(uint256)":"f5439d6e"}}}}}