{"contracts/Trade.sol":{"Trade":{"abi":[{"inputs":[{"internalType":"address","name":"_registryAddress","type":"address"}],"stateMutability":"nonpayable","type":"constructor"},{"inputs":[],"name":"InvalidInitialization","type":"error"},{"inputs":[],"name":"NotInitializing","type":"error"},{"inputs":[],"name":"ReentrancyGuardReentrantCall","type":"error"},{"anonymous":false,"inputs":[{"indexed":true,"internalType":"address","name":"admin","type":"address"},{"indexed":false,"internalType":"bool","name":"isAdmin","type":"bool"}],"name":"AdminSet","type":"event"},{"anonymous":false,"inputs":[{"indexed":true,"internalType":"uint256","name":"tradeId","type":"uint256"},{"indexed":false,"internalType":"uint256","name":"amount","type":"uint256"}],"name":"CryptoLockedInEscrow","type":"event"},{"anonymous":false,"inputs":[{"indexed":true,"internalType":"uint256","name":"tradeId","type":"uint256"}],"name":"FiatMarkedAsPaid","type":"event"},{"anonymous":false,"inputs":[{"indexed":false,"internalType":"uint64","name":"version","type":"uint64"}],"name":"Initialized","type":"event"},{"anonymous":false,"inputs":[{"indexed":true,"internalType":"uint256","name":"tradeId","type":"uint256"}],"name":"TradeAccepted","type":"event"},{"anonymous":false,"inputs":[{"indexed":true,"internalType":"uint256","name":"tradeId","type":"uint256"},{"indexed":false,"internalType":"string","name":"reason","type":"string"}],"name":"TradeCancelled","type":"event"},{"anonymous":false,"inputs":[{"indexed":true,"internalType":"uint256","name":"tradeId","type":"uint256"}],"name":"TradeDisputed","type":"event"},{"anonymous":false,"inputs":[{"indexed":true,"internalType":"uint256","name":"tradeId","type":"uint256"},{"indexed":false,"internalType":"uint256","name":"timestamp","type":"uint256"}],"name":"TradeFinalized","type":"event"},{"anonymous":false,"inputs":[{"indexed":true,"internalType":"uint256","name":"tradeId","type":"uint256"},{"indexed":true,"internalType":"uint256","name":"offerId","type":"uint256"},{"indexed":true,"internalType":"address","name":"taker","type":"address"}],"name":"TradeInitiated","type":"event"},{"anonymous":false,"inputs":[{"indexed":true,"internalType":"uint256","name":"tradeId","type":"uint256"},{"indexed":false,"internalType":"uint256","name":"rating","type":"uint256"},{"indexed":false,"internalType":"string","name":"feedback","type":"string"}],"name":"TradeRated","type":"event"},{"anonymous":false,"inputs":[{"indexed":false,"internalType":"uint256[]","name":"tradeIds","type":"uint256[]"}],"name":"TradeSequenceCreated","type":"event"},{"anonymous":false,"inputs":[{"indexed":true,"internalType":"uint256","name":"tradeId","type":"uint256"}],"name":"TradeTimedOut","type":"event"},{"inputs":[{"internalType":"uint256","name":"_tradeId","type":"uint256"}],"name":"acceptTrade","outputs":[],"stateMutability":"nonpayable","type":"function"},{"inputs":[{"internalType":"address","name":"","type":"address"}],"name":"admins","outputs":[{"internalType":"bool","name":"","type":"bool"}],"stateMutability":"view","type":"function"},{"inputs":[{"internalType":"uint256","name":"_tradeId","type":"uint256"}],"name":"cancelTrade","outputs":[],"stateMutability":"nonpayable","type":"function"},{"inputs":[{"internalType":"uint256","name":"_tradeId","type":"uint256"}],"name":"disputeTrade","outputs":[],"stateMutability":"nonpayable","type":"function"},{"inputs":[{"internalType":"uint256","name":"_tradeId","type":"uint256"}],"name":"finalizeTrade","outputs":[],"stateMutability":"nonpayable","type":"function"},{"inputs":[{"internalType":"uint256","name":"_tradeId","type":"uint256"}],"name":"getNextTradeInSequence","outputs":[{"internalType":"uint256","name":"","type":"uint256"}],"stateMutability":"view","type":"function"},{"inputs":[{"internalType":"uint256","name":"_tradeId","type":"uint256"}],"name":"getPreviousTradeInSequence","outputs":[{"internalType":"uint256","name":"","type":"uint256"}],"stateMutability":"view","type":"function"},{"inputs":[],"name":"getTradeCounts","outputs":[{"internalType":"uint256","name":"","type":"uint256"},{"internalType":"uint256","name":"","type":"uint256"},{"internalType":"uint256","name":"","type":"uint256"},{"internalType":"uint256","name":"","type":"uint256"},{"internalType":"uint256","name":"","type":"uint256"},{"internalType":"uint256","name":"","type":"uint256"}],"stateMutability":"view","type":"function"},{"inputs":[{"internalType":"uint256","name":"_tradeId","type":"uint256"}],"name":"getTradeDetails","outputs":[{"internalType":"uint256","name":"","type":"uint256"},{"internalType":"address","name":"","type":"address"},{"internalType":"uint256","name":"","type":"uint256"},{"internalType":"uint256","name":"","type":"uint256"},{"internalType":"string","name":"","type":"string"},{"internalType":"string","name":"","type":"string"},{"internalType":"uint256","name":"","type":"uint256"},{"internalType":"string","name":"","type":"string"},{"internalType":"enum Trade.TradeStatus","name":"","type":"uint8"},{"internalType":"uint256","name":"","type":"uint256"},{"internalType":"uint256","name":"","type":"uint256"},{"internalType":"uint256","name":"","type":"uint256"}],"stateMutability":"view","type":"function"},{"inputs":[{"internalType":"uint256","name":"_tradeId","type":"uint256"}],"name":"getTradeMaker","outputs":[{"internalType":"address","name":"","type":"address"}],"stateMutability":"view","type":"function"},{"inputs":[{"internalType":"uint256[]","name":"_offerIds","type":"uint256[]"},{"internalType":"uint256","name":"_tradeAmountFiat","type":"uint256"},{"internalType":"uint256","name":"_tradeAmountCrypto","type":"uint256"},{"internalType":"string","name":"_tradeFiatCurrency","type":"string"},{"internalType":"string","name":"_tradeCryptoCurrency","type":"string"},{"internalType":"uint256","name":"_blocksTillTimeout","type":"uint256"},{"internalType":"string","name":"_tradeCancelationReason","type":"string"}],"name":"initiateTrade","outputs":[],"stateMutability":"nonpayable","type":"function"},{"inputs":[{"internalType":"uint256","name":"_tradeId","type":"uint256"}],"name":"lockCryptoInEscrow","outputs":[],"stateMutability":"nonpayable","type":"function"},{"inputs":[],"name":"owner","outputs":[{"internalType":"address","name":"","type":"address"}],"stateMutability":"view","type":"function"},{"inputs":[{"internalType":"uint256","name":"_tradeId","type":"uint256"},{"internalType":"uint256","name":"_rating","type":"uint256"},{"internalType":"string","name":"_feedback","type":"string"}],"name":"rateTrade","outputs":[],"stateMutability":"nonpayable","type":"function"},{"inputs":[{"internalType":"uint256","name":"_tradeId","type":"uint256"}],"name":"refundTrade","outputs":[],"stateMutability":"nonpayable","type":"function"},{"inputs":[],"name":"registry","outputs":[{"internalType":"contract ContractRegistry","name":"","type":"address"}],"stateMutability":"view","type":"function"},{"inputs":[{"internalType":"address","name":"_admin","type":"address"},{"internalType":"bool","name":"_isAdmin","type":"bool"}],"name":"setAdmin","outputs":[],"stateMutability":"nonpayable","type":"function"},{"inputs":[{"internalType":"address[]","name":"_admins","type":"address[]"}],"name":"setInitialAdmins","outputs":[],"stateMutability":"nonpayable","type":"function"},{"inputs":[{"internalType":"uint256","name":"_tradeId","type":"uint256"}],"name":"timeoutTrade","outputs":[],"stateMutability":"nonpayable","type":"function"},{"inputs":[],"name":"tradeCount","outputs":[{"internalType":"uint256","name":"","type":"uint256"}],"stateMutability":"view","type":"function"},{"inputs":[{"internalType":"uint256","name":"_tradeId","type":"uint256"}],"name":"tradeMarkFiatPaid","outputs":[],"stateMutability":"nonpayable","type":"function"},{"inputs":[{"internalType":"uint256","name":"","type":"uint256"},{"internalType":"address","name":"","type":"address"}],"name":"tradeRatings","outputs":[{"internalType":"bool","name":"","type":"bool"}],"stateMutability":"view","type":"function"},{"inputs":[{"internalType":"uint256","name":"","type":"uint256"},{"internalType":"uint256","name":"","type":"uint256"}],"name":"tradeSequence","outputs":[{"internalType":"uint256","name":"","type":"uint256"}],"stateMutability":"view","type":"function"},{"inputs":[{"internalType":"uint256","name":"","type":"uint256"}],"name":"trades","outputs":[{"internalType":"uint256","name":"offerId","type":"uint256"},{"internalType":"address","name":"taker","type":"address"},{"internalType":"uint256","name":"tradeAmountFiat","type":"uint256"},{"internalType":"uint256","name":"tradeAmountCrypto","type":"uint256"},{"internalType":"string","name":"tradeFiatCurrency","type":"string"},{"internalType":"string","name":"tradeCryptoCurrency","type":"string"},{"internalType":"uint256","name":"blocksTillTimeout","type":"uint256"},{"internalType":"string","name":"tradeCancelationReason","type":"string"},{"internalType":"enum Trade.TradeStatus","name":"tradeStatus","type":"uint8"},{"internalType":"uint256","name":"tradeInitiatedTime","type":"uint256"},{"internalType":"uint256","name":"tradeFinalizedTime","type":"uint256"},{"internalType":"uint256","name":"tradeFee","type":"uint256"}],"stateMutability":"view","type":"function"},{"inputs":[{"internalType":"uint256","name":"_tradeId","type":"uint256"},{"internalType":"enum Trade.TradeStatus","name":"_newStatus","type":"uint8"}],"name":"updateTradeStatusFromArbitration","outputs":[],"stateMutability":"nonpayable","type":"function"},{"inputs":[{"internalType":"enum Trade.TradeStatus","name":"","type":"uint8"},{"internalType":"enum Trade.TradeStatus","name":"","type":"uint8"}],"name":"validTransitions","outputs":[{"internalType":"bool","name":"","type":"bool"}],"stateMutability":"view","type":"function"}],"evm":{"bytecode":{"linkReferences":{},"object":"608034620001a657601f62003cff38819003918201601f1916830192916001600160401b03841183851017620001ab5780839260409586528339602092839181010312620001a657516001600160a01b03811690819003620001a6578260018060a01b03199160009083825416178155600192339084541617835580805260049384815282822084835281528282209460ff199585878254161790558280528082528383208184528252838320858782541617905584835280825283832060028452825283832085878254161790558483528082528383206005845282528383208587825416179055808252838320600384528252838320858782541617905560058352808252838320818452825283832085878254161790558280528082528383206006845282528383208587825416179055848352808252838320600684528252838320858782541617905584835280825283832081845282528383208587825416179055600283528082528383206003845282528383208587825416179055600283528152828220906005835252209182541617905551613b3d9081620001c28239f35b600080fd5b634e487b7160e01b600052604160045260246000fdfe6080604052600436101561001257600080fd5b60003560e01c806309ec6cc714612fbc57806312ea634c14612f9e5780631e6c598e14612f0f57806340ebdad6146127fb578063419f778a146124c8578063429b62e514612489578063491719e5146121c35780634b0bddd2146120e55780635046fddd146120935780635395db6814611ef25780635741f73414611ecc578063695730a514611d8f5780637b10399914611d665780637f002e8114611d1f57806388a2976e14611be85780638a2829e7146117d15780638ba9f7081461143b5780638da5cb5b1461141257806392479507146111e3578063a5350ea614611198578063b4195c4714610fa7578063bd55022a14610f89578063d58c71a51461098a578063d684d5b1146106ec578063ded0bfbf146105b35763ecb9fec31461013a57600080fd5b34610362576020806003193601126103625760043590811515806105a7575b61016290613685565b8160005260039081815260ff6008604060002001541660088110156105915761054e57600054604051633ea42de360e01b81526001600160a01b039182168382600481845afa8015610356578392600091610516575b5086600052858552600060408120546040519283916327db25f160e11b83526004830152816024978892165afa908115610356576000916104e2575b50823391160361049057856000526007845260406000208054159081159182610463575b50501561039c57506004838260005416604051928380926303577be960e21b82525afa90811561035657600091610367575b5016846000528383528360406000200154813b156103625760009160448392604051948593849263342865ab60e11b84528b6004850152888401525af1801561035657610347575b505b836000528282526102af60ff60086040600020015416613654565b6001600052825260ff6040600020541615610304575082600052526008604060002001600160ff198254161790557f102f3ccc8e36f2a6afb43e960eb0c3a01b90374f18f8370f68b83639924b4433600080a2005b90601f6064926040519262461bcd60e51b845260048401528201527f496e76616c696420747261646520737461747573207472616e736974696f6e006044820152fd5b610350906133ea565b38610292565b6040513d6000823e3d90fd5b600080fd5b90508381813d8311610395575b61037e8183613419565b810103126103625761038f90613713565b3861024a565b503d610374565b906004846103a9886138d0565b93604051928380926303577be960e21b82525afa9081156103565760009161042e575b501690856000528484528460406000200154823b1561036257606460009283604051958694859363be81abd560e01b855260048501528b8985015260448401525af180156103565761041f575b50610294565b610428906133ea565b38610419565b90508481813d831161045c575b6104458183613419565b810103126103625761045690613713565b386103cc565b503d61043b565b90915061047b57600052858460002054143880610218565b83634e487b7160e01b60005260326004526000fd5b60405162461bcd60e51b8152600481018590526025818501527f4f6e6c79206f66666572206f776e65722063616e206163636570742074686520604482015264747261646560d81b6064820152608490fd5b6104ff91503d806000833e6104f78183613419565b810190613779565b5050505050505050505050505050505050386101f4565b809350858092503d8311610547575b61052f8183613419565b81010312610362576105418392613713565b386101b8565b503d610525565b6064906040519062461bcd60e51b825280600483015260248201527f5472616465206973206e6f7420696e20696e69746961746564207374617475736044820152fd5b634e487b7160e01b600052602160045260246000fd5b50600254821115610159565b346103625760003660031901126103625760008060008060009060009260019560016002545b8082111561060857505060c09650604051958652602086015260408501526060840152608083015260a0820152f35b90968760005260038060205260089060ff82604060002001541691821015610591578161064957505061063d6106439161397a565b9761397a565b906105d9565b91989391818b036106685750506106626106439161397a565b9261397a565b939491938103610685575061067f6106439161397a565b9361397a565b93949093600481036106a4575061069e6106439161397a565b9461397a565b94959094600581036106c357506106bd6106439161397a565b9561397a565b9095906006146106d7575b6106439061397a565b956106e46106439161397a565b9690506106ce565b346103625760208060031936011261036257600435908115158061097e575b61071490613685565b81600052600380825260ff9160089280846040600020015416848110156105915715801561095c575b801561093a575b156108e557846000528282528084604060002001541684811015610591576006146108a25784600052828252604060002060066009820154910154810180911161088c57421061083b57846000528282526107a781856040600020015416613654565b6006600052825260406000205416156107f7578360005252604060002001600660ff198254161790557fb5572d3c012c3c87cb7f7dea790839327df3e6ecdb3bbd1b1ab2ee4b18ace512600080a2005b6064906040519062461bcd60e51b82526004820152601f60248201527f496e76616c696420747261646520737461747573207472616e736974696f6e006044820152fd5b60405162461bcd60e51b815260048101839052602360248201527f54726164652074696d656f757420706572696f6420686173206e6f74207061736044820152621cd95960ea1b6064820152608490fd5b634e487b7160e01b600052601160045260246000fd5b6064826040519062461bcd60e51b825280600483015260248201527f54726164652068617320616c7265616479206265656e2074696d6564206f75746044820152fd5b60405162461bcd60e51b815260048101839052602760248201527f54726164652063616e6e6f742062652074696d6564206f7574206174207468696044820152667320737461676560c81b6064820152608490fd5b5084600052828252808460406000200154168481101561059157600214610744565b508460005282825280846040600020015416848110156105915760011461073d565b5060025482111561070b565b346103625760208060031936011261036257600435906109a8613ab7565b81151580610f7d575b6109ba90613685565b81600052600380825260ff906008918083604060002001541683811015610591576002148015610f44575b15610ed957846000528184528083604060002001541683811015610591576004141580610eb6575b15610e4b578460005281845280836040600020015416838110156105915782610a379114156136c8565b600054604051633ea42de360e01b81526001600160a01b03918216908681600481855afa8015610356578391600091610e11575b506000908982528689526024604083205460405194859384926327db25f160e11b84526004840152165afa90811561035657600091610de5575b50821633148015610dcf575b15610d71578660005260078652604060002080548015159182610d4a575b505015610c7357506004858260005416604051928380926303577be960e21b82525afa8015610356578291600091610c3b575b501690866000528386526001604060002001541690803b156103625760405163de9d858760e01b8152600481018890526001600160a01b039290921660248301526000908290604490829084905af1801561035657610c2c575b505b84600052818452610b7781846040600020015416613654565b8260005284526040600020541615610be757907f143dba104ddac4c22c157c51909343d71e5765527a32b0d1647c14b39f41eaf392918460005280835260406000209182019060ff19825416179055600a42910155604051428152a26001600080516020613ae883398151915255005b60405162461bcd60e51b815260048101849052601f60248201527f496e76616c696420747261646520737461747573207472616e736974696f6e006044820152606490fd5b610c35906133ea565b85610b5c565b809250878092503d8311610c6c575b610c548183613419565b8101031261036257610c668291613713565b88610b02565b503d610c4a565b90600486610c8089613a10565b93604051928380926303577be960e21b82525afa8015610356578291600091610d12575b5016916000528386526001604060002001541690803b156103625760405163de9d858760e01b8152600481018890526001600160a01b039290921660248301526000908290604490829084905af1801561035657610d03575b50610b5e565b610d0c906133ea565b85610cfd565b809250888092503d8311610d43575b610d2b8183613419565b8101031261036257610d3d8291613713565b89610ca4565b503d610d21565b6000198201925090821161088c578891610d639161363c565b905490861b1c148880610acf565b60405162461bcd60e51b815260048101879052603060248201527f4f6e6c79206f66666572206f776e6572206f722061646d696e2063616e20666960448201526f6e616c697a652074686520747261646560801b6064820152608490fd5b5033600052600586528260406000205416610ab1565b610dfa91503d806000833e6104f78183613419565b505050505050505050505050505050505088610aa5565b809250888092503d8311610e44575b610e2a8183613419565b81010312610362576000610e3e8492613713565b90610a6b565b503d610e20565b60405162461bcd60e51b815260048101859052603960248201527f54726164652063616e6e6f742062652066696e616c697a65642069662069742060448201527f69732063616e63656c6c6564206f722074696d6564206f7574000000000000006064820152608490fd5b508460005281845280836040600020015416838110156105915760061415610a0d565b60405162461bcd60e51b815260048101859052603d60248201527f5472616465206973206e6f7420696e20612066696e616c697a61626c6520737460448201527f617465206f722063616c6c6572206973206e6f7420616e2061646d696e0000006064820152608490fd5b508460005281845280836040600020015416838110156105915760051480156109e55750336000526005845280604060002054166109e5565b506002548211156109b1565b34610362576000366003190112610362576020600254604051908152f35b3461036257602080600319360112610362576004358015158061118c575b610fce90613685565b610fd6613ab7565b8060005260038252600860ff8160406000200154168181101561059157600414918215611166575b821561113f575b5050156110ec576000546040516303577be960e21b81526001600160a01b039183908290600490829086165afa908115610356576000916110b7575b5016330361105d576001600080516020613ae883398151915255005b6084906040519062461bcd60e51b82526004820152602d60248201527f4f6e6c7920457363726f7720636f6e74726163742063616e2063616c6c20726560448201526c333ab73210333ab731ba34b7b760991b6064820152fd5b90508281813d83116110e5575b6110ce8183613419565b81010312610362576110df90613713565b83611041565b503d6110c4565b6084906040519062461bcd60e51b82526004820152602660248201527f54726164652063616e6e6f7420626520726566756e646564206174207468697360448201526520737461676560d01b6064820152fd5b9091506000526003825260ff81604060002001541690811015610591576005148280611005565b8092506000526003835260ff816040600020015416818110156105915760061491610ffe565b50600254811115610fc5565b34610362576040366003190112610362576004356008811015610362576024356008811015610362576111d760ff916111d2602094613654565b61366d565b54166040519015158152f35b3461036257602080600319360112610362576004356001600160401b038111610362573660238201121561036257806004013591611220836135ad565b9161122e6040519384613419565b838352818301602460059560051b8301019136831161036257602401905b8282106113f35750505060018060a01b0360019281845416803303611396576000526005835260ff60406000205416611345578394846000905b6112d6575b505050807fe68d2c359a771606c400cf8b87000cf5864010363d6a736e98f5047b7bbe18e99354166000526005825260406000208460ff1982541617905583541692604051908152a2005b82518110156113405780846112ec889386613966565b511660005282865260406000208260ff198254161790558461130e8286613966565b51167fe68d2c359a771606c400cf8b87000cf5864010363d6a736e98f5047b7bbe18e987604051858152a20185611286565b61128b565b60405162461bcd60e51b815260048101849052602360248201527f496e697469616c2061646d696e732063616e206f6e6c7920626520736574206f6044820152626e636560e81b6064820152608490fd5b60405162461bcd60e51b815260048101859052602f60248201527f4f6e6c792074686520636f6e7472616374206f776e65722063616e207065726660448201526e37b936903a3434b99030b1ba34b7b760891b6064820152608490fd5b81356001600160a01b038116810361036257815290830190830161124c565b34610362576000366003190112610362576001546040516001600160a01b039091168152602090f35b34610362576020806003193601126103625760043590611459613ab7565b811515806117c5575b61146b90613685565b8160005260039081815260ff9160089083826040600020015416828110156105915760011480156117a3575b1561174f578460005280835283826040600020015416828110156105915760051461170a5784600052808352838260406000200154168281101561059157816114e19114156136c8565b600054604051633ea42de360e01b81526001600160a01b0395918590829060049082908a165afa80156103565786916000916116d0575b506000908882528487526024604083205460405194859384926327db25f160e11b84526004840152165afa801561035657611578916000916116a4575b508760005283865286600160406000200154163314908115611698575b50613873565b8560005281845261159181846040600020015416613654565b600560005284526040600020541615610be757846000528252604060002001600560ff19825416179055600481836000541660405192838092637050565360e01b82525afa91821561035657600092611662575b505016803b156103625760008091602460405180948193634b54a37960e01b83528760048401525af1801561035657611653575b507f995328816eb12e50ec2691560298922cd9ead6191e59874ef2ef6ca8c766d725600080a26001600080516020613ae883398151915255005b61165c906133ea565b81611619565b90809250813d8311611691575b6116798183613419565b810103126103625761168a90613713565b83806115e5565b503d61166f565b87163314905088611572565b6116b991503d806000833e6104f78183613419565b505050505050505050505050505050505088611555565b809250868092503d8311611703575b6116e98183613419565b810103126103625760006116fd8792613713565b90611518565b503d6116df565b60405162461bcd60e51b815260048101849052601960248201527f547261646520697320616c7265616479206469737075746564000000000000006044820152606490fd5b60405162461bcd60e51b815260048101849052602660248201527f54726164652063616e6e6f74206265206469737075746564206174207468697360448201526520737461676560d01b6064820152608490fd5b5084600052808352838260406000200154168281101561059157600214611497565b50600254821115611462565b3461036257606036600319011261036257600435602480359060449081356001600160401b0381116103625761180b9036906004016135df565b600054604051633ea42de360e01b8152602094916001600160a01b03919086908290600490829086165afa8015610356578291600091611bae575b506000908982526003885286604083205460405194859384926327db25f160e11b84526004840152165afa90811561035657600091611b82575b50876000526003865281600160406000200154163314908115611b76575b5015611b205786151580611b14575b6118b690613685565b866000526003855260ff600860406000200154166008811015611aff57600303611ac357600186101580611ab8575b15611a7e578660005260068552604060002033600052855260ff60406000205416611a2a57866000526006855260406000203360005285526040600020600160ff19825416179055600485826000541660405192838092631ecc605560e21b82525afa908115610356576000916119f5575b501692833b156103625785936060600093604051988994638a2829e760e01b86528b60048701528501528301528183816119946064820188613502565b03925af1908115610356577f5e72c1f0055c90b360f39e32f2e35808960aa9d049e8c3847b383ca534554398946119e1926119e6575b506040805194859485528401526040830190613502565b0390a2005b6119ef906133ea565b866119ca565b90508581813d8311611a23575b611a0c8183613419565b8101031261036257611a1d90613713565b88611957565b503d611a02565b60405162461bcd60e51b8152600481018690526028818601527f54726164652068617320616c7265616479206265656e2072617465642062792081840152673a3432903ab9b2b960c11b6064820152608490fd5b60405162461bcd60e51b81526004810186905260148186015273496e76616c696420726174696e672076616c756560601b81840152606490fd5b5060058611156118e5565b60405162461bcd60e51b81526004810186905260168186015275151c985919481a5cc81b9bdd08199a5b985b1a5e995960521b81840152606490fd5b84634e487b7160e01b60005260216004526000fd5b506002548711156118ad565b60405162461bcd60e51b815260048101869052602a818601527f4f6e6c7920747261646520706172746965732063616e20706572666f726d207481840152693434b99030b1ba34b7b760b11b6064820152608490fd5b8216331490508861189e565b611b9791503d806000833e6104f78183613419565b505050505050505050505050505050505088611880565b809250878092503d8311611be1575b611bc78183613419565b81010312610362576000611bdb8392613713565b90611846565b503d611bbd565b3461036257604036600319011261036257600435602435600881101561036257600054604051637050565360e01b8152602093916001600160a01b03919085908290600490829086165afa90811561035657600091611cea575b50163303611c8c57806000526003835260ff611c6b836111d28360086040600020015416613654565b541615610be757611c8a926003916000525260086040600020016139ac565b005b60405162461bcd60e51b815260048101849052603060248201527f4f6e6c79204172626974726174696f6e20636f6e74726163742063616e20636160448201526f3636103a3434b990333ab731ba34b7b760811b6064820152608490fd5b90508481813d8311611d18575b611d018183613419565b8101031261036257611d1290613713565b85611c42565b503d611cf7565b346103625760403660031901126103625760243560043560005260076020526040600020805482101561036257602091611d589161363c565b90546040519160031b1c8152f35b34610362576000366003190112610362576000546040516001600160a01b039091168152602090f35b346103625760203660031901126103625760043580151580611ec0575b611db590613685565b6000526003602052604060002060405190611dcf826133fd565b8054825260018060a01b038060018301541691602084019283526002810154936040810194855260038201549160608201928352611e0f6004820161343a565b60808301908152611e226005830161343a565b60a08401908152600683015460c08501908152611e416007850161343a565b9060e0860191825260ff60088601541692611e6161010088019485613989565b6009860154986101208801998a52600b600a880154976101408a019889520154976101608101988952519a51169a5197519451905191519251935194600886101561059157611ebc995196519751986040519c8d9c8d613527565b0390f35b50600254811115611dac565b34610362576020366003190112610362576020611eea600435613a10565b604051908152f35b346103625760208060031936011261036257600435600052600381526040600020604051611f1f816133fd565b8154815260018201546001600160a01b0390811684830152600283015460408301526003830154606083015291600b90611f5b6004820161343a565b6080840152611f6c6005820161343a565b60a0840152600681015460c0840152611f876007820161343a565b60e0840152611fa160ff6008830154166101008501613989565b6009810154610120840152600a8101546101408401520154610160820152600483836000541660405192838092633ea42de360e01b82525afa8015610356578391600091612053575b506024600092935160405195869384926327db25f160e11b84526004840152165afa91821561035657600092612025575b5060405191168152f35b61203b9192503d806000833e6104f78183613419565b5050505050505050505050505050505050908361201b565b809250858092503d831161208c575b61206c8183613419565b810103126103625782916024612083600093613713565b91939250611fea565b503d612062565b34610362576040366003190112610362576024356001600160a01b03811690819003610362576004356000526006602052604060002090600052602052602060ff604060002054166040519015158152f35b34610362576040366003190112610362576120fe613626565b602435908115158092036103625733600052600560205260ff60406000205416156121735760207fe68d2c359a771606c400cf8b87000cf5864010363d6a736e98f5047b7bbe18e99160018060a01b0316928360005260058252604060002060ff1981541660ff8316179055604051908152a2005b60405162461bcd60e51b815260206004820152602260248201527f4f6e6c792061646d696e2063616e20706572666f726d2074686973206163746960448201526137b760f11b6064820152608490fd5b346103625760208060031936011261036257600435906121e1613ab7565b8115158061247d575b6121f390613685565b8160005260039081815260ff60086040600020015416600881101561059157600161221e91146139c4565b8260005281815260ff60086040600020015416600881101561059157826122469114156136c8565b600054604051633ea42de360e01b81526001600160a01b03918216908381600481855afa8015610356578391600091612443575b506000908782528686526024604083205460405194859384926327db25f160e11b84526004840152165afa90811561035657600091612417575b5082339116036123bf5782600491604051928380926303577be960e21b82525afa9081156103565760009161238a575b501691836000528082528060406000200154833b156103625760009360448592604051968793849263342865ab60e11b84528a600485015260248401525af1928315610356577fc46f70879f2c8e8b148399f0e29f0a2ad37cec5d4a75ba302c254f80ca91fc439361237b575b508360005280825260406000200154604051908152a26001600080516020613ae883398151915255005b612384906133ea565b84612351565b90508281813d83116123b8575b6123a18183613419565b81010312610362576123b290613713565b856122e4565b503d612397565b60405162461bcd60e51b815260048101849052602a60248201527f4f6e6c79206f66666572206f776e65722063616e206c6f636b2063727970746f60448201526920696e20657363726f7760b01b6064820152608490fd5b61242c91503d806000833e6104f78183613419565b5050505050505050505050505050505050866122b4565b809250858092503d8311612476575b61245c8183613419565b810103126103625760006124708492613713565b9061227a565b503d612452565b506002548211156121ea565b34610362576020366003190112610362576001600160a01b036124aa613626565b166000526005602052602060ff604060002054166040519015158152f35b34610362576020806003193601126103625760043590811515806127ef575b6124f090613685565b8160005260039081815260ff60086040600020015416600881101561059157600161251b91146139c4565b600083815282825260409020600101546001600160a01b03908116330361279b578360005260078252604060002080548015159182612774575b505015612699576004828260005416604051928380926303577be960e21b82525afa8015610356578291600091612661575b501690846000528383526001604060002001541690803b156103625760405163de9d858760e01b8152600481018690526001600160a01b039290921660248301526000908290604490829084905af1801561035657612652575b505b826000528181526125fe60ff60086040600020015416613654565b6002600052815260ff60406000205416156107f75782600052526008604060002001600260ff198254161790557f451a001db5c51b7ca11b027313b2ad79d5049cb6fabaa4d3648cf7dddf732eaf600080a2005b61265b906133ea565b836125e1565b809250848092503d8311612692575b61267a8183613419565b810103126103625761268c8291613713565b86612587565b503d612670565b6126a284613a10565b906004838260005416604051928380926303577be960e21b82525afa801561035657829160009161273c575b5016916000528383526001604060002001541690803b156103625760405163de9d858760e01b8152600481018690526001600160a01b039290921660248301526000908290604490829084905af180156103565761272d575b506125e3565b612736906133ea565b83612727565b809250858092503d831161276d575b6127558183613419565b81010312610362576127678291613713565b876126ce565b503d61274b565b6000198201925090821161088c57859161278d9161363c565b905490851b1c148580612555565b60405162461bcd60e51b815260048101839052602660248201527f4f6e6c792074726164652074616b65722063616e206d61726b206669617420616044820152651cc81c185a5960d21b6064820152608490fd5b506002548211156124e7565b346103625760e0366003190112610362576004356001600160401b038111610362573660238201121561036257806004013590612837826135ad565b916128456040519384613419565b8083526024602084019160051b8301019136831161036257602401905b828210612eff57836064356001600160401b038111610362576128899036906004016135df565b906084356001600160401b038111610362576128a99036906004016135df565b60c4356001600160401b038111610362576128c89036906004016135df565b825115612eb0578251916128f46128de846135ad565b936128ec6040519586613419565b8085526135ad565b601f190136602085013760005b8451811015612da6576129148186613966565b519061292160025461397a565b918260025560405192612933846133fd565b818452336020850152602435604085015260443560608501528860808501528460a085015260a43560c08501528560e08501526000610100850152426101208501526000610140850152600061016085015260005260036020526040600020835181556001810160018060a01b036020860151166bffffffffffffffffffffffff60a01b825416179055604084015160028201556060840151600382015560808401518051906001600160401b038211612c2c5781906129f660048501546133b0565b601f8111612d71575b50602090601f8311600114612cff57600092612cf4575b50508160011b916000199060031b1c19161760048201555b60a08401518051906001600160401b038211612c2c578190612a5360058501546133b0565b601f8111612cbf575b50602090601f8311600114612c4d57600092612c42575b50508160011b916000199060031b1c19161760058201555b60c0840151600682015560e08401518051906001600160401b038211612c2c578190612aba60078501546133b0565b601f8111612bec575b50602090601f8311600114612b7a57600092612b6f575b50508160011b916000199060031b1c19161760078201555b61010084015193600885101561059157610160600b91612b17600197600886016139ac565b6101208101516009850155610140810151600a85015501519101556002549081612b418489613966565b5233917f6e1cf3a650ca8202a8a7876101e709a4307e5639c8d4015993e000f3d026e310600080a401612901565b015190508b80612ada565b9250600784016000526020600020906000935b601f1984168510612bd1576001945083601f19811610612bb8575b505050811b016007820155612af2565b015160001960f88460031b161c191690558b8080612ba8565b81810151835560209485019460019093019290910190612b8d565b612c1c90600786016000526020600020601f850160051c81019160208610612c22575b601f0160051c0190613995565b8c612ac3565b9091508190612c0f565b634e487b7160e01b600052604160045260246000fd5b015190508b80612a73565b9250600584016000526020600020906000935b601f1984168510612ca4576001945083601f19811610612c8b575b505050811b016005820155612a8b565b015160001960f88460031b161c191690558b8080612c7b565b81810151835560209485019460019093019290910190612c60565b612cee90600586016000526020600020601f850160051c81019160208610612c2257601f0160051c0190613995565b8c612a5c565b015190508b80612a16565b9250600484016000526020600020906000935b601f1984168510612d56576001945083601f19811610612d3d575b505050811b016004820155612a2e565b015160001960f88460031b161c191690558b8080612d2d565b81810151835560209485019460019093019290910190612d12565b612da090600486016000526020600020601f850160051c81019160208610612c2257601f0160051c0190613995565b8c6129ff565b83805115612e9a576020810151600052600760205260406000208151906001600160401b038211612c2c57680100000000000000008211612c2c578054828255808310612e7c575b506020830190600052602060002060005b838110612e6857846040516020810160208252825180915260206040830193019060005b818110612e52577ff6b8cf4789b130b38fe88fbc6db8baf8120d8f060232f086490925a25737ce9e84860385a1005b8251855260209485019490920191600101612e23565b600190602084519401938184015501612dff565b612e9490826000528360206000209182019101613995565b83612dee565b634e487b7160e01b600052603260045260246000fd5b60405162461bcd60e51b815260206004820152602160248201527f4174206c65617374206f6e65206f6666657220494420697320726571756972656044820152601960fa1b6064820152608490fd5b8135815260209182019101612862565b3461036257602036600319011261036257600435600052600360205260406000208054611ebc60018060a01b03600184015416926002810154906003810154612f5a6004830161343a565b612f666005840161343a565b6006840154612f776007860161343a565b9160ff60088701541693600987015495600b600a890154980154986040519c8d9c8d613527565b34610362576020366003190112610362576020611eea6004356138d0565b34610362576020806003193601126103625760043590612fda613ab7565b811515806133a4575b612fec90613685565b8160005260039081815260ff91600890838260406000200154168281101561059157158015613382575b1561332d57846000528083528382604060002001541682811015610591576005146132cc5784600052808352838260406000200154168281101561059157816130609114156136c8565b600054604051633ea42de360e01b81526001600160a01b0395918590829060049082908a165afa8015610356578691600091613292575b5060009088825284875260246040832054604051998a9384926327db25f160e11b84526004840152165afa95861561035657600096613260575b506130fc908760005283865260019681600160406000200154163314918215613254575b5050613873565b8560005281845261311581846040600020015416613654565b600460005284526040600020541615610be757846000528252600760406000209182019160ff1992600484825416179055019160405193818552600093805461315d816133b0565b94858589015260018216918260001461320e5750506001146131b5575b867fc742381126185889f1ed17e46bced0266b422cdd0ee6e26d1ccac51250ff63c687870388a26001600080516020613ae883398151915255005b60009081528281209094505b8385106131fa57505050508101604001817fc742381126185889f1ed17e46bced0266b422cdd0ee6e26d1ccac51250ff63c6858061317a565b8054868601604001529382019381016131c1565b91509150869550604093507fc742381126185889f1ed17e46bced0266b422cdd0ee6e26d1ccac51250ff63c6969492501682840152151560051b8201019192858061317a565b163314905088806130f5565b6130fc91965061327a903d806000833e6104f78183613419565b505050505050505050505050505050505095906130d1565b809250868092503d83116132c5575b6132ab8183613419565b810103126103625760006132bf8792613713565b90613097565b503d6132a1565b60405162461bcd60e51b815260048101849052603360248201527f54726164652063616e6e6f742062652063616e63656c6c6564206966206974206044820152721a5cc8185b1c9958591e48191a5cdc1d5d1959606a1b6064820152608490fd5b60405162461bcd60e51b815260048101849052602760248201527f54726164652063616e6e6f742062652063616e63656c6c6564206174207468696044820152667320737461676560c81b6064820152608490fd5b5084600052808352838260406000200154168281101561059157600114613016565b50600254821115612fe3565b90600182811c921680156133e0575b60208310146133ca57565b634e487b7160e01b600052602260045260246000fd5b91607f16916133bf565b6001600160401b038111612c2c57604052565b61018081019081106001600160401b03821117612c2c57604052565b90601f801991011681019081106001600160401b03821117612c2c57604052565b9060405191826000825461344d816133b0565b908184526020946001916001811690816000146134bd575060011461347e575b50505061347c92500383613419565b565b600090815285812095935091905b8183106134a557505061347c935082010138808061346d565b8554888401850152948501948794509183019161348c565b9250505061347c94925060ff191682840152151560051b82010138808061346d565b60005b8381106134f25750506000910152565b81810151838201526020016134e2565b9060209161351b815180928185528580860191016134df565b601f01601f1916010190565b98999c9b9a9794906135769461358998979461356894610180938d5260018060a01b031660208d015260408c015260608b01528060808b0152890190613502565b9087820360a0890152613502565b9160c086015284820360e0860152613502565b95600884101561059157610160936101008401526101208301526101408201520152565b6001600160401b038111612c2c5760051b60200190565b6001600160401b038111612c2c57601f01601f191660200190565b81601f82011215610362578035906135f6826135c4565b926136046040519485613419565b8284526020838301011161036257816000926020809301838601378301015290565b600435906001600160a01b038216820361036257565b8054821015612e9a5760005260206000200190600090565b6008811015610591576000526004602052604060002090565b90600881101561059157600052602052604060002090565b1561368c57565b60405162461bcd60e51b8152602060048201526014602482015273151c98591948191bd95cc81b9bdd08195e1a5cdd60621b6044820152606490fd5b156136cf57565b606460405162461bcd60e51b815260206004820152602060248201527f54726164652068617320616c7265616479206265656e2066696e616c697a65646044820152fd5b51906001600160a01b038216820361036257565b81601f8201121561036257805161373d816135c4565b9261374b6040519485613419565b818452602082840101116103625761376991602080850191016134df565b90565b5190811515820361036257565b90610240828203126103625761378e82613713565b9260208301519260408101519260608201519260808301519260a08101519260c08201519260e083015192610100810151926001600160401b039384811161036257816137dc918401613727565b936137ea610120840161376c565b936101408401519361016081015193613806610180830161376c565b936101a08301518181116103625782613820918501613727565b936101c0840151828111610362578361383a918601613727565b936101e08101518381116103625784613854918301613727565b9361020082015193610220830151908111610362576137699201613727565b1561387a57565b60405162461bcd60e51b815260206004820152602860248201527f4f6e6c7920747261646520706172746965732063616e20646973707574652074604482015267686520747261646560c01b6064820152608490fd5b600090806000526007602052604060002090815491600193600184116138fb575b5050505050600090565b60015b84811061390b57506138f1565b83613916828561363c565b919054600392831b1c1461392c575085016138fe565b95506000198101945091925090831161395257509061394a9161363c565b9054911b1c90565b634e487b7160e01b81526011600452602490fd5b8051821015612e9a5760209160051b010190565b600019811461088c5760010190565b60088210156105915752565b8181106139a0575050565b60008155600101613995565b9060088110156105915760ff80198354169116179055565b156139cb57565b60405162461bcd60e51b815260206004820152601f60248201527f5472616465206973206e6f7420696e20616363657074656420737461747573006044820152606490fd5b6000908082526007602052604082209081549060019260018311613a36575b5050505090565b8493926000198101908111845b613a52575b5050839450613a2f565b80613aa35781871015613a9e5783613a6a888561363c565b919054600392831b1c14613a8357509584019584613a43565b96959350505091830180931161395257509061394a9161363c565b613a48565b634e487b7160e01b86526011600452602486fd5b600080516020613ae88339815191526002815414613ad55760029055565b604051633ee5aeb560e01b8152600490fdfe9b779b17422d0df92223018b32b4d1fa46e071723d6817e2486d003becc55f00a2646970667358221220a30712cc6e7ec18e78933cd55353779db89ed81b10d43ddc7814f320637107b864736f6c63430008180033","opcodes":"PUSH1 0x80 CALLVALUE PUSH3 0x1A6 JUMPI PUSH1 0x1F PUSH3 0x3CFF CODESIZE DUP2 SWAP1 SUB SWAP2 DUP3 ADD PUSH1 0x1F NOT AND DUP4 ADD SWAP3 SWAP2 PUSH1 0x1 PUSH1 0x1 PUSH1 0x40 SHL SUB DUP5 GT DUP4 DUP6 LT OR PUSH3 0x1AB JUMPI DUP1 DUP4 SWAP3 PUSH1 0x40 SWAP6 DUP7 MSTORE DUP4 CODECOPY PUSH1 0x20 SWAP3 DUP4 SWAP2 DUP2 ADD SUB SLT PUSH3 0x1A6 JUMPI MLOAD PUSH1 0x1 PUSH1 0x1 PUSH1 0xA0 SHL SUB DUP2 AND SWAP1 DUP2 SWAP1 SUB PUSH3 0x1A6 JUMPI DUP3 PUSH1 0x1 DUP1 PUSH1 0xA0 SHL SUB NOT SWAP2 PUSH1 0x0 SWAP1 DUP4 DUP3 SLOAD AND OR DUP2 SSTORE PUSH1 0x1 SWAP3 CALLER SWAP1 DUP5 SLOAD AND OR DUP4 SSTORE DUP1 DUP1 MSTORE PUSH1 0x4 SWAP4 DUP5 DUP2 MSTORE DUP3 DUP3 KECCAK256 DUP5 DUP4 MSTORE DUP2 MSTORE DUP3 DUP3 KECCAK256 SWAP5 PUSH1 0xFF NOT SWAP6 DUP6 DUP8 DUP3 SLOAD AND OR SWAP1 SSTORE DUP3 DUP1 MSTORE DUP1 DUP3 MSTORE DUP4 DUP4 KECCAK256 DUP2 DUP5 MSTORE DUP3 MSTORE DUP4 DUP4 KECCAK256 DUP6 DUP8 DUP3 SLOAD AND OR SWAP1 SSTORE DUP5 DUP4 MSTORE DUP1 DUP3 MSTORE DUP4 DUP4 KECCAK256 PUSH1 0x2 DUP5 MSTORE DUP3 MSTORE DUP4 DUP4 KECCAK256 DUP6 DUP8 DUP3 SLOAD AND OR SWAP1 SSTORE DUP5 DUP4 MSTORE DUP1 DUP3 MSTORE DUP4 DUP4 KECCAK256 PUSH1 0x5 DUP5 MSTORE DUP3 MSTORE DUP4 DUP4 KECCAK256 DUP6 DUP8 DUP3 SLOAD AND OR SWAP1 SSTORE DUP1 DUP3 MSTORE DUP4 DUP4 KECCAK256 PUSH1 0x3 DUP5 MSTORE DUP3 MSTORE DUP4 DUP4 KECCAK256 DUP6 DUP8 DUP3 SLOAD AND OR SWAP1 SSTORE PUSH1 0x5 DUP4 MSTORE DUP1 DUP3 MSTORE DUP4 DUP4 KECCAK256 DUP2 DUP5 MSTORE DUP3 MSTORE DUP4 DUP4 KECCAK256 DUP6 DUP8 DUP3 SLOAD AND OR SWAP1 SSTORE DUP3 DUP1 MSTORE DUP1 DUP3 MSTORE DUP4 DUP4 KECCAK256 PUSH1 0x6 DUP5 MSTORE DUP3 MSTORE DUP4 DUP4 KECCAK256 DUP6 DUP8 DUP3 SLOAD AND OR SWAP1 SSTORE DUP5 DUP4 MSTORE DUP1 DUP3 MSTORE DUP4 DUP4 KECCAK256 PUSH1 0x6 DUP5 MSTORE DUP3 MSTORE DUP4 DUP4 KECCAK256 DUP6 DUP8 DUP3 SLOAD AND OR SWAP1 SSTORE DUP5 DUP4 MSTORE DUP1 DUP3 MSTORE DUP4 DUP4 KECCAK256 DUP2 DUP5 MSTORE DUP3 MSTORE DUP4 DUP4 KECCAK256 DUP6 DUP8 DUP3 SLOAD AND OR SWAP1 SSTORE PUSH1 0x2 DUP4 MSTORE DUP1 DUP3 MSTORE DUP4 DUP4 KECCAK256 PUSH1 0x3 DUP5 MSTORE DUP3 MSTORE DUP4 DUP4 KECCAK256 DUP6 DUP8 DUP3 SLOAD AND OR SWAP1 SSTORE PUSH1 0x2 DUP4 MSTORE DUP2 MSTORE DUP3 DUP3 KECCAK256 SWAP1 PUSH1 0x5 DUP4 MSTORE MSTORE KECCAK256 SWAP2 DUP3 SLOAD AND OR SWAP1 SSTORE MLOAD PUSH2 0x3B3D SWAP1 DUP2 PUSH3 0x1C2 DUP3 CODECOPY RETURN JUMPDEST PUSH1 0x0 DUP1 REVERT JUMPDEST PUSH4 0x4E487B71 PUSH1 0xE0 SHL PUSH1 0x0 MSTORE PUSH1 0x41 PUSH1 0x4 MSTORE PUSH1 0x24 PUSH1 0x0 REVERT INVALID PUSH1 0x80 PUSH1 0x40 MSTORE PUSH1 0x4 CALLDATASIZE LT ISZERO PUSH2 0x12 JUMPI PUSH1 0x0 DUP1 REVERT JUMPDEST PUSH1 0x0 CALLDATALOAD PUSH1 0xE0 SHR DUP1 PUSH4 0x9EC6CC7 EQ PUSH2 0x2FBC JUMPI DUP1 PUSH4 0x12EA634C EQ PUSH2 0x2F9E JUMPI DUP1 PUSH4 0x1E6C598E EQ PUSH2 0x2F0F JUMPI DUP1 PUSH4 0x40EBDAD6 EQ PUSH2 0x27FB JUMPI DUP1 PUSH4 0x419F778A EQ PUSH2 0x24C8 JUMPI DUP1 PUSH4 0x429B62E5 EQ PUSH2 0x2489 JUMPI DUP1 PUSH4 0x491719E5 EQ PUSH2 0x21C3 JUMPI DUP1 PUSH4 0x4B0BDDD2 EQ PUSH2 0x20E5 JUMPI DUP1 PUSH4 0x5046FDDD EQ PUSH2 0x2093 JUMPI DUP1 PUSH4 0x5395DB68 EQ PUSH2 0x1EF2 JUMPI DUP1 PUSH4 0x5741F734 EQ PUSH2 0x1ECC JUMPI DUP1 PUSH4 0x695730A5 EQ PUSH2 0x1D8F JUMPI DUP1 PUSH4 0x7B103999 EQ PUSH2 0x1D66 JUMPI DUP1 PUSH4 0x7F002E81 EQ PUSH2 0x1D1F JUMPI DUP1 PUSH4 0x88A2976E EQ PUSH2 0x1BE8 JUMPI DUP1 PUSH4 0x8A2829E7 EQ PUSH2 0x17D1 JUMPI DUP1 PUSH4 0x8BA9F708 EQ PUSH2 0x143B JUMPI DUP1 PUSH4 0x8DA5CB5B EQ PUSH2 0x1412 JUMPI DUP1 PUSH4 0x92479507 EQ PUSH2 0x11E3 JUMPI DUP1 PUSH4 0xA5350EA6 EQ PUSH2 0x1198 JUMPI DUP1 PUSH4 0xB4195C47 EQ PUSH2 0xFA7 JUMPI DUP1 PUSH4 0xBD55022A EQ PUSH2 0xF89 JUMPI DUP1 PUSH4 0xD58C71A5 EQ PUSH2 0x98A JUMPI DUP1 PUSH4 0xD684D5B1 EQ PUSH2 0x6EC JUMPI DUP1 PUSH4 0xDED0BFBF EQ PUSH2 0x5B3 JUMPI PUSH4 0xECB9FEC3 EQ PUSH2 0x13A JUMPI PUSH1 0x0 DUP1 REVERT JUMPDEST CALLVALUE PUSH2 0x362 JUMPI PUSH1 0x20 DUP1 PUSH1 0x3 NOT CALLDATASIZE ADD SLT PUSH2 0x362 JUMPI PUSH1 0x4 CALLDATALOAD SWAP1 DUP2 ISZERO ISZERO DUP1 PUSH2 0x5A7 JUMPI JUMPDEST PUSH2 0x162 SWAP1 PUSH2 0x3685 JUMP JUMPDEST DUP2 PUSH1 0x0 MSTORE PUSH1 0x3 SWAP1 DUP2 DUP2 MSTORE PUSH1 0xFF PUSH1 0x8 PUSH1 0x40 PUSH1 0x0 KECCAK256 ADD SLOAD AND PUSH1 0x8 DUP2 LT ISZERO PUSH2 0x591 JUMPI PUSH2 0x54E JUMPI PUSH1 0x0 SLOAD PUSH1 0x40 MLOAD PUSH4 0x3EA42DE3 PUSH1 0xE0 SHL DUP2 MSTORE PUSH1 0x1 PUSH1 0x1 PUSH1 0xA0 SHL SUB SWAP2 DUP3 AND DUP4 DUP3 PUSH1 0x4 DUP2 DUP5 GAS STATICCALL DUP1 ISZERO PUSH2 0x356 JUMPI DUP4 SWAP3 PUSH1 0x0 SWAP2 PUSH2 0x516 JUMPI JUMPDEST POP DUP7 PUSH1 0x0 MSTORE DUP6 DUP6 MSTORE PUSH1 0x0 PUSH1 0x40 DUP2 KECCAK256 SLOAD PUSH1 0x40 MLOAD SWAP3 DUP4 SWAP2 PUSH4 0x27DB25F1 PUSH1 0xE1 SHL DUP4 MSTORE PUSH1 0x4 DUP4 ADD MSTORE DUP2 PUSH1 0x24 SWAP8 DUP9 SWAP3 AND GAS STATICCALL SWAP1 DUP2 ISZERO PUSH2 0x356 JUMPI PUSH1 0x0 SWAP2 PUSH2 0x4E2 JUMPI JUMPDEST POP DUP3 CALLER SWAP2 AND SUB PUSH2 0x490 JUMPI DUP6 PUSH1 0x0 MSTORE PUSH1 0x7 DUP5 MSTORE PUSH1 0x40 PUSH1 0x0 KECCAK256 DUP1 SLOAD ISZERO SWAP1 DUP2 ISZERO SWAP2 DUP3 PUSH2 0x463 JUMPI JUMPDEST POP POP ISZERO PUSH2 0x39C JUMPI POP PUSH1 0x4 DUP4 DUP3 PUSH1 0x0 SLOAD AND PUSH1 0x40 MLOAD SWAP3 DUP4 DUP1 SWAP3 PUSH4 0x3577BE9 PUSH1 0xE2 SHL DUP3 MSTORE GAS STATICCALL SWAP1 DUP2 ISZERO PUSH2 0x356 JUMPI PUSH1 0x0 SWAP2 PUSH2 0x367 JUMPI JUMPDEST POP AND DUP5 PUSH1 0x0 MSTORE DUP4 DUP4 MSTORE DUP4 PUSH1 0x40 PUSH1 0x0 KECCAK256 ADD SLOAD DUP2 EXTCODESIZE ISZERO PUSH2 0x362 JUMPI PUSH1 0x0 SWAP2 PUSH1 0x44 DUP4 SWAP3 PUSH1 0x40 MLOAD SWAP5 DUP6 SWAP4 DUP5 SWAP3 PUSH4 0x342865AB PUSH1 0xE1 SHL DUP5 MSTORE DUP12 PUSH1 0x4 DUP6 ADD MSTORE DUP9 DUP5 ADD MSTORE GAS CALL DUP1 ISZERO PUSH2 0x356 JUMPI PUSH2 0x347 JUMPI JUMPDEST POP JUMPDEST DUP4 PUSH1 0x0 MSTORE DUP3 DUP3 MSTORE PUSH2 0x2AF PUSH1 0xFF PUSH1 0x8 PUSH1 0x40 PUSH1 0x0 KECCAK256 ADD SLOAD AND PUSH2 0x3654 JUMP JUMPDEST PUSH1 0x1 PUSH1 0x0 MSTORE DUP3 MSTORE PUSH1 0xFF PUSH1 0x40 PUSH1 0x0 KECCAK256 SLOAD AND ISZERO PUSH2 0x304 JUMPI POP DUP3 PUSH1 0x0 MSTORE MSTORE PUSH1 0x8 PUSH1 0x40 PUSH1 0x0 KECCAK256 ADD PUSH1 0x1 PUSH1 0xFF NOT DUP3 SLOAD AND OR SWAP1 SSTORE PUSH32 0x102F3CCC8E36F2A6AFB43E960EB0C3A01B90374F18F8370F68B83639924B4433 PUSH1 0x0 DUP1 LOG2 STOP JUMPDEST SWAP1 PUSH1 0x1F PUSH1 0x64 SWAP3 PUSH1 0x40 MLOAD SWAP3 PUSH3 0x461BCD PUSH1 0xE5 SHL DUP5 MSTORE PUSH1 0x4 DUP5 ADD MSTORE DUP3 ADD MSTORE PUSH32 0x496E76616C696420747261646520737461747573207472616E736974696F6E00 PUSH1 0x44 DUP3 ADD MSTORE REVERT JUMPDEST PUSH2 0x350 SWAP1 PUSH2 0x33EA JUMP JUMPDEST CODESIZE PUSH2 0x292 JUMP JUMPDEST PUSH1 0x40 MLOAD RETURNDATASIZE PUSH1 0x0 DUP3 RETURNDATACOPY RETURNDATASIZE SWAP1 REVERT JUMPDEST PUSH1 0x0 DUP1 REVERT JUMPDEST SWAP1 POP DUP4 DUP2 DUP2 RETURNDATASIZE DUP4 GT PUSH2 0x395 JUMPI JUMPDEST PUSH2 0x37E DUP2 DUP4 PUSH2 0x3419 JUMP JUMPDEST DUP2 ADD SUB SLT PUSH2 0x362 JUMPI PUSH2 0x38F SWAP1 PUSH2 0x3713 JUMP JUMPDEST CODESIZE PUSH2 0x24A JUMP JUMPDEST POP RETURNDATASIZE PUSH2 0x374 JUMP JUMPDEST SWAP1 PUSH1 0x4 DUP5 PUSH2 0x3A9 DUP9 PUSH2 0x38D0 JUMP JUMPDEST SWAP4 PUSH1 0x40 MLOAD SWAP3 DUP4 DUP1 SWAP3 PUSH4 0x3577BE9 PUSH1 0xE2 SHL DUP3 MSTORE GAS STATICCALL SWAP1 DUP2 ISZERO PUSH2 0x356 JUMPI PUSH1 0x0 SWAP2 PUSH2 0x42E JUMPI JUMPDEST POP AND SWAP1 DUP6 PUSH1 0x0 MSTORE DUP5 DUP5 MSTORE DUP5 PUSH1 0x40 PUSH1 0x0 KECCAK256 ADD SLOAD DUP3 EXTCODESIZE ISZERO PUSH2 0x362 JUMPI PUSH1 0x64 PUSH1 0x0 SWAP3 DUP4 PUSH1 0x40 MLOAD SWAP6 DUP7 SWAP5 DUP6 SWAP4 PUSH4 0xBE81ABD5 PUSH1 0xE0 SHL DUP6 MSTORE PUSH1 0x4 DUP6 ADD MSTORE DUP12 DUP10 DUP6 ADD MSTORE PUSH1 0x44 DUP5 ADD MSTORE GAS CALL DUP1 ISZERO PUSH2 0x356 JUMPI PUSH2 0x41F JUMPI JUMPDEST POP PUSH2 0x294 JUMP JUMPDEST PUSH2 0x428 SWAP1 PUSH2 0x33EA JUMP JUMPDEST CODESIZE PUSH2 0x419 JUMP JUMPDEST SWAP1 POP DUP5 DUP2 DUP2 RETURNDATASIZE DUP4 GT PUSH2 0x45C JUMPI JUMPDEST PUSH2 0x445 DUP2 DUP4 PUSH2 0x3419 JUMP JUMPDEST DUP2 ADD SUB SLT PUSH2 0x362 JUMPI PUSH2 0x456 SWAP1 PUSH2 0x3713 JUMP JUMPDEST CODESIZE PUSH2 0x3CC JUMP JUMPDEST POP RETURNDATASIZE PUSH2 0x43B JUMP JUMPDEST SWAP1 SWAP2 POP PUSH2 0x47B JUMPI PUSH1 0x0 MSTORE DUP6 DUP5 PUSH1 0x0 KECCAK256 SLOAD EQ CODESIZE DUP1 PUSH2 0x218 JUMP JUMPDEST DUP4 PUSH4 0x4E487B71 PUSH1 0xE0 SHL PUSH1 0x0 MSTORE PUSH1 0x32 PUSH1 0x4 MSTORE PUSH1 0x0 REVERT JUMPDEST PUSH1 0x40 MLOAD PUSH3 0x461BCD PUSH1 0xE5 SHL DUP2 MSTORE PUSH1 0x4 DUP2 ADD DUP6 SWAP1 MSTORE PUSH1 0x25 DUP2 DUP6 ADD MSTORE PUSH32 0x4F6E6C79206F66666572206F776E65722063616E206163636570742074686520 PUSH1 0x44 DUP3 ADD MSTORE PUSH5 0x7472616465 PUSH1 0xD8 SHL PUSH1 0x64 DUP3 ADD MSTORE PUSH1 0x84 SWAP1 REVERT JUMPDEST PUSH2 0x4FF SWAP2 POP RETURNDATASIZE DUP1 PUSH1 0x0 DUP4 RETURNDATACOPY PUSH2 0x4F7 DUP2 DUP4 PUSH2 0x3419 JUMP JUMPDEST DUP2 ADD SWAP1 PUSH2 0x3779 JUMP JUMPDEST POP POP POP POP POP POP POP POP POP POP POP POP POP POP POP POP POP CODESIZE PUSH2 0x1F4 JUMP JUMPDEST DUP1 SWAP4 POP DUP6 DUP1 SWAP3 POP RETURNDATASIZE DUP4 GT PUSH2 0x547 JUMPI JUMPDEST PUSH2 0x52F DUP2 DUP4 PUSH2 0x3419 JUMP JUMPDEST DUP2 ADD SUB SLT PUSH2 0x362 JUMPI PUSH2 0x541 DUP4 SWAP3 PUSH2 0x3713 JUMP JUMPDEST CODESIZE PUSH2 0x1B8 JUMP JUMPDEST POP RETURNDATASIZE PUSH2 0x525 JUMP JUMPDEST PUSH1 0x64 SWAP1 PUSH1 0x40 MLOAD SWAP1 PUSH3 0x461BCD PUSH1 0xE5 SHL DUP3 MSTORE DUP1 PUSH1 0x4 DUP4 ADD MSTORE PUSH1 0x24 DUP3 ADD MSTORE PUSH32 0x5472616465206973206E6F7420696E20696E6974696174656420737461747573 PUSH1 0x44 DUP3 ADD MSTORE REVERT JUMPDEST PUSH4 0x4E487B71 PUSH1 0xE0 SHL PUSH1 0x0 MSTORE PUSH1 0x21 PUSH1 0x4 MSTORE PUSH1 0x24 PUSH1 0x0 REVERT JUMPDEST POP PUSH1 0x2 SLOAD DUP3 GT ISZERO PUSH2 0x159 JUMP JUMPDEST CALLVALUE PUSH2 0x362 JUMPI PUSH1 0x0 CALLDATASIZE PUSH1 0x3 NOT ADD SLT PUSH2 0x362 JUMPI PUSH1 0x0 DUP1 PUSH1 0x0 DUP1 PUSH1 0x0 SWAP1 PUSH1 0x0 SWAP3 PUSH1 0x1 SWAP6 PUSH1 0x1 PUSH1 0x2 SLOAD JUMPDEST DUP1 DUP3 GT ISZERO PUSH2 0x608 JUMPI POP POP PUSH1 0xC0 SWAP7 POP PUSH1 0x40 MLOAD SWAP6 DUP7 MSTORE PUSH1 0x20 DUP7 ADD MSTORE PUSH1 0x40 DUP6 ADD MSTORE PUSH1 0x60 DUP5 ADD MSTORE PUSH1 0x80 DUP4 ADD MSTORE PUSH1 0xA0 DUP3 ADD MSTORE RETURN JUMPDEST SWAP1 SWAP7 DUP8 PUSH1 0x0 MSTORE PUSH1 0x3 DUP1 PUSH1 0x20 MSTORE PUSH1 0x8 SWAP1 PUSH1 0xFF DUP3 PUSH1 0x40 PUSH1 0x0 KECCAK256 ADD SLOAD AND SWAP2 DUP3 LT ISZERO PUSH2 0x591 JUMPI DUP2 PUSH2 0x649 JUMPI POP POP PUSH2 0x63D PUSH2 0x643 SWAP2 PUSH2 0x397A JUMP JUMPDEST SWAP8 PUSH2 0x397A JUMP JUMPDEST SWAP1 PUSH2 0x5D9 JUMP JUMPDEST SWAP2 SWAP9 SWAP4 SWAP2 DUP2 DUP12 SUB PUSH2 0x668 JUMPI POP POP PUSH2 0x662 PUSH2 0x643 SWAP2 PUSH2 0x397A JUMP JUMPDEST SWAP3 PUSH2 0x397A JUMP JUMPDEST SWAP4 SWAP5 SWAP2 SWAP4 DUP2 SUB PUSH2 0x685 JUMPI POP PUSH2 0x67F PUSH2 0x643 SWAP2 PUSH2 0x397A JUMP JUMPDEST SWAP4 PUSH2 0x397A JUMP JUMPDEST SWAP4 SWAP5 SWAP1 SWAP4 PUSH1 0x4 DUP2 SUB PUSH2 0x6A4 JUMPI POP PUSH2 0x69E PUSH2 0x643 SWAP2 PUSH2 0x397A JUMP JUMPDEST SWAP5 PUSH2 0x397A JUMP JUMPDEST SWAP5 SWAP6 SWAP1 SWAP5 PUSH1 0x5 DUP2 SUB PUSH2 0x6C3 JUMPI POP PUSH2 0x6BD PUSH2 0x643 SWAP2 PUSH2 0x397A JUMP JUMPDEST SWAP6 PUSH2 0x397A JUMP JUMPDEST SWAP1 SWAP6 SWAP1 PUSH1 0x6 EQ PUSH2 0x6D7 JUMPI JUMPDEST PUSH2 0x643 SWAP1 PUSH2 0x397A JUMP JUMPDEST SWAP6 PUSH2 0x6E4 PUSH2 0x643 SWAP2 PUSH2 0x397A JUMP JUMPDEST SWAP7 SWAP1 POP PUSH2 0x6CE JUMP JUMPDEST CALLVALUE PUSH2 0x362 JUMPI PUSH1 0x20 DUP1 PUSH1 0x3 NOT CALLDATASIZE ADD SLT PUSH2 0x362 JUMPI PUSH1 0x4 CALLDATALOAD SWAP1 DUP2 ISZERO ISZERO DUP1 PUSH2 0x97E JUMPI JUMPDEST PUSH2 0x714 SWAP1 PUSH2 0x3685 JUMP JUMPDEST DUP2 PUSH1 0x0 MSTORE PUSH1 0x3 DUP1 DUP3 MSTORE PUSH1 0xFF SWAP2 PUSH1 0x8 SWAP3 DUP1 DUP5 PUSH1 0x40 PUSH1 0x0 KECCAK256 ADD SLOAD AND DUP5 DUP2 LT ISZERO PUSH2 0x591 JUMPI ISZERO DUP1 ISZERO PUSH2 0x95C JUMPI JUMPDEST DUP1 ISZERO PUSH2 0x93A JUMPI JUMPDEST ISZERO PUSH2 0x8E5 JUMPI DUP5 PUSH1 0x0 MSTORE DUP3 DUP3 MSTORE DUP1 DUP5 PUSH1 0x40 PUSH1 0x0 KECCAK256 ADD SLOAD AND DUP5 DUP2 LT ISZERO PUSH2 0x591 JUMPI PUSH1 0x6 EQ PUSH2 0x8A2 JUMPI DUP5 PUSH1 0x0 MSTORE DUP3 DUP3 MSTORE PUSH1 0x40 PUSH1 0x0 KECCAK256 PUSH1 0x6 PUSH1 0x9 DUP3 ADD SLOAD SWAP2 ADD SLOAD DUP2 ADD DUP1 SWAP2 GT PUSH2 0x88C JUMPI TIMESTAMP LT PUSH2 0x83B JUMPI DUP5 PUSH1 0x0 MSTORE DUP3 DUP3 MSTORE PUSH2 0x7A7 DUP2 DUP6 PUSH1 0x40 PUSH1 0x0 KECCAK256 ADD SLOAD AND PUSH2 0x3654 JUMP JUMPDEST PUSH1 0x6 PUSH1 0x0 MSTORE DUP3 MSTORE PUSH1 0x40 PUSH1 0x0 KECCAK256 SLOAD AND ISZERO PUSH2 0x7F7 JUMPI DUP4 PUSH1 0x0 MSTORE MSTORE PUSH1 0x40 PUSH1 0x0 KECCAK256 ADD PUSH1 0x6 PUSH1 0xFF NOT DUP3 SLOAD AND OR SWAP1 SSTORE PUSH32 0xB5572D3C012C3C87CB7F7DEA790839327DF3E6ECDB3BBD1B1AB2EE4B18ACE512 PUSH1 0x0 DUP1 LOG2 STOP JUMPDEST PUSH1 0x64 SWAP1 PUSH1 0x40 MLOAD SWAP1 PUSH3 0x461BCD PUSH1 0xE5 SHL DUP3 MSTORE PUSH1 0x4 DUP3 ADD MSTORE PUSH1 0x1F PUSH1 0x24 DUP3 ADD MSTORE PUSH32 0x496E76616C696420747261646520737461747573207472616E736974696F6E00 PUSH1 0x44 DUP3 ADD MSTORE REVERT JUMPDEST PUSH1 0x40 MLOAD PUSH3 0x461BCD PUSH1 0xE5 SHL DUP2 MSTORE PUSH1 0x4 DUP2 ADD DUP4 SWAP1 MSTORE PUSH1 0x23 PUSH1 0x24 DUP3 ADD MSTORE PUSH32 0x54726164652074696D656F757420706572696F6420686173206E6F7420706173 PUSH1 0x44 DUP3 ADD MSTORE PUSH3 0x1CD959 PUSH1 0xEA SHL PUSH1 0x64 DUP3 ADD MSTORE PUSH1 0x84 SWAP1 REVERT JUMPDEST PUSH4 0x4E487B71 PUSH1 0xE0 SHL PUSH1 0x0 MSTORE PUSH1 0x11 PUSH1 0x4 MSTORE PUSH1 0x24 PUSH1 0x0 REVERT JUMPDEST PUSH1 0x64 DUP3 PUSH1 0x40 MLOAD SWAP1 PUSH3 0x461BCD PUSH1 0xE5 SHL DUP3 MSTORE DUP1 PUSH1 0x4 DUP4 ADD MSTORE PUSH1 0x24 DUP3 ADD MSTORE PUSH32 0x54726164652068617320616C7265616479206265656E2074696D6564206F7574 PUSH1 0x44 DUP3 ADD MSTORE REVERT JUMPDEST PUSH1 0x40 MLOAD PUSH3 0x461BCD PUSH1 0xE5 SHL DUP2 MSTORE PUSH1 0x4 DUP2 ADD DUP4 SWAP1 MSTORE PUSH1 0x27 PUSH1 0x24 DUP3 ADD MSTORE PUSH32 0x54726164652063616E6E6F742062652074696D6564206F757420617420746869 PUSH1 0x44 DUP3 ADD MSTORE PUSH7 0x73207374616765 PUSH1 0xC8 SHL PUSH1 0x64 DUP3 ADD MSTORE PUSH1 0x84 SWAP1 REVERT JUMPDEST POP DUP5 PUSH1 0x0 MSTORE DUP3 DUP3 MSTORE DUP1 DUP5 PUSH1 0x40 PUSH1 0x0 KECCAK256 ADD SLOAD AND DUP5 DUP2 LT ISZERO PUSH2 0x591 JUMPI PUSH1 0x2 EQ PUSH2 0x744 JUMP JUMPDEST POP DUP5 PUSH1 0x0 MSTORE DUP3 DUP3 MSTORE DUP1 DUP5 PUSH1 0x40 PUSH1 0x0 KECCAK256 ADD SLOAD AND DUP5 DUP2 LT ISZERO PUSH2 0x591 JUMPI PUSH1 0x1 EQ PUSH2 0x73D JUMP JUMPDEST POP PUSH1 0x2 SLOAD DUP3 GT ISZERO PUSH2 0x70B JUMP JUMPDEST CALLVALUE PUSH2 0x362 JUMPI PUSH1 0x20 DUP1 PUSH1 0x3 NOT CALLDATASIZE ADD SLT PUSH2 0x362 JUMPI PUSH1 0x4 CALLDATALOAD SWAP1 PUSH2 0x9A8 PUSH2 0x3AB7 JUMP JUMPDEST DUP2 ISZERO ISZERO DUP1 PUSH2 0xF7D JUMPI JUMPDEST PUSH2 0x9BA SWAP1 PUSH2 0x3685 JUMP JUMPDEST DUP2 PUSH1 0x0 MSTORE PUSH1 0x3 DUP1 DUP3 MSTORE PUSH1 0xFF SWAP1 PUSH1 0x8 SWAP2 DUP1 DUP4 PUSH1 0x40 PUSH1 0x0 KECCAK256 ADD SLOAD AND DUP4 DUP2 LT ISZERO PUSH2 0x591 JUMPI PUSH1 0x2 EQ DUP1 ISZERO PUSH2 0xF44 JUMPI JUMPDEST ISZERO PUSH2 0xED9 JUMPI DUP5 PUSH1 0x0 MSTORE DUP2 DUP5 MSTORE DUP1 DUP4 PUSH1 0x40 PUSH1 0x0 KECCAK256 ADD SLOAD AND DUP4 DUP2 LT ISZERO PUSH2 0x591 JUMPI PUSH1 0x4 EQ ISZERO DUP1 PUSH2 0xEB6 JUMPI JUMPDEST ISZERO PUSH2 0xE4B JUMPI DUP5 PUSH1 0x0 MSTORE DUP2 DUP5 MSTORE DUP1 DUP4 PUSH1 0x40 PUSH1 0x0 KECCAK256 ADD SLOAD AND DUP4 DUP2 LT ISZERO PUSH2 0x591 JUMPI DUP3 PUSH2 0xA37 SWAP2 EQ ISZERO PUSH2 0x36C8 JUMP JUMPDEST PUSH1 0x0 SLOAD PUSH1 0x40 MLOAD PUSH4 0x3EA42DE3 PUSH1 0xE0 SHL DUP2 MSTORE PUSH1 0x1 PUSH1 0x1 PUSH1 0xA0 SHL SUB SWAP2 DUP3 AND SWAP1 DUP7 DUP2 PUSH1 0x4 DUP2 DUP6 GAS STATICCALL DUP1 ISZERO PUSH2 0x356 JUMPI DUP4 SWAP2 PUSH1 0x0 SWAP2 PUSH2 0xE11 JUMPI JUMPDEST POP PUSH1 0x0 SWAP1 DUP10 DUP3 MSTORE DUP7 DUP10 MSTORE PUSH1 0x24 PUSH1 0x40 DUP4 KECCAK256 SLOAD PUSH1 0x40 MLOAD SWAP5 DUP6 SWAP4 DUP5 SWAP3 PUSH4 0x27DB25F1 PUSH1 0xE1 SHL DUP5 MSTORE PUSH1 0x4 DUP5 ADD MSTORE AND GAS STATICCALL SWAP1 DUP2 ISZERO PUSH2 0x356 JUMPI PUSH1 0x0 SWAP2 PUSH2 0xDE5 JUMPI JUMPDEST POP DUP3 AND CALLER EQ DUP1 ISZERO PUSH2 0xDCF JUMPI JUMPDEST ISZERO PUSH2 0xD71 JUMPI DUP7 PUSH1 0x0 MSTORE PUSH1 0x7 DUP7 MSTORE PUSH1 0x40 PUSH1 0x0 KECCAK256 DUP1 SLOAD DUP1 ISZERO ISZERO SWAP2 DUP3 PUSH2 0xD4A JUMPI JUMPDEST POP POP ISZERO PUSH2 0xC73 JUMPI POP PUSH1 0x4 DUP6 DUP3 PUSH1 0x0 SLOAD AND PUSH1 0x40 MLOAD SWAP3 DUP4 DUP1 SWAP3 PUSH4 0x3577BE9 PUSH1 0xE2 SHL DUP3 MSTORE GAS STATICCALL DUP1 ISZERO PUSH2 0x356 JUMPI DUP3 SWAP2 PUSH1 0x0 SWAP2 PUSH2 0xC3B JUMPI JUMPDEST POP AND SWAP1 DUP7 PUSH1 0x0 MSTORE DUP4 DUP7 MSTORE PUSH1 0x1 PUSH1 0x40 PUSH1 0x0 KECCAK256 ADD SLOAD AND SWAP1 DUP1 EXTCODESIZE ISZERO PUSH2 0x362 JUMPI PUSH1 0x40 MLOAD PUSH4 0xDE9D8587 PUSH1 0xE0 SHL DUP2 MSTORE PUSH1 0x4 DUP2 ADD DUP9 SWAP1 MSTORE PUSH1 0x1 PUSH1 0x1 PUSH1 0xA0 SHL SUB SWAP3 SWAP1 SWAP3 AND PUSH1 0x24 DUP4 ADD MSTORE PUSH1 0x0 SWAP1 DUP3 SWAP1 PUSH1 0x44 SWAP1 DUP3 SWAP1 DUP5 SWAP1 GAS CALL DUP1 ISZERO PUSH2 0x356 JUMPI PUSH2 0xC2C JUMPI JUMPDEST POP JUMPDEST DUP5 PUSH1 0x0 MSTORE DUP2 DUP5 MSTORE PUSH2 0xB77 DUP2 DUP5 PUSH1 0x40 PUSH1 0x0 KECCAK256 ADD SLOAD AND PUSH2 0x3654 JUMP JUMPDEST DUP3 PUSH1 0x0 MSTORE DUP5 MSTORE PUSH1 0x40 PUSH1 0x0 KECCAK256 SLOAD AND ISZERO PUSH2 0xBE7 JUMPI SWAP1 PUSH32 0x143DBA104DDAC4C22C157C51909343D71E5765527A32B0D1647C14B39F41EAF3 SWAP3 SWAP2 DUP5 PUSH1 0x0 MSTORE DUP1 DUP4 MSTORE PUSH1 0x40 PUSH1 0x0 KECCAK256 SWAP2 DUP3 ADD SWAP1 PUSH1 0xFF NOT DUP3 SLOAD AND OR SWAP1 SSTORE PUSH1 0xA TIMESTAMP SWAP2 ADD SSTORE PUSH1 0x40 MLOAD TIMESTAMP DUP2 MSTORE LOG2 PUSH1 0x1 PUSH1 0x0 DUP1 MLOAD PUSH1 0x20 PUSH2 0x3AE8 DUP4 CODECOPY DUP2 MLOAD SWAP2 MSTORE SSTORE STOP JUMPDEST PUSH1 0x40 MLOAD PUSH3 0x461BCD PUSH1 0xE5 SHL DUP2 MSTORE PUSH1 0x4 DUP2 ADD DUP5 SWAP1 MSTORE PUSH1 0x1F PUSH1 0x24 DUP3 ADD MSTORE PUSH32 0x496E76616C696420747261646520737461747573207472616E736974696F6E00 PUSH1 0x44 DUP3 ADD MSTORE PUSH1 0x64 SWAP1 REVERT JUMPDEST PUSH2 0xC35 SWAP1 PUSH2 0x33EA JUMP JUMPDEST DUP6 PUSH2 0xB5C JUMP JUMPDEST DUP1 SWAP3 POP DUP8 DUP1 SWAP3 POP RETURNDATASIZE DUP4 GT PUSH2 0xC6C JUMPI JUMPDEST PUSH2 0xC54 DUP2 DUP4 PUSH2 0x3419 JUMP JUMPDEST DUP2 ADD SUB SLT PUSH2 0x362 JUMPI PUSH2 0xC66 DUP3 SWAP2 PUSH2 0x3713 JUMP JUMPDEST DUP9 PUSH2 0xB02 JUMP JUMPDEST POP RETURNDATASIZE PUSH2 0xC4A JUMP JUMPDEST SWAP1 PUSH1 0x4 DUP7 PUSH2 0xC80 DUP10 PUSH2 0x3A10 JUMP JUMPDEST SWAP4 PUSH1 0x40 MLOAD SWAP3 DUP4 DUP1 SWAP3 PUSH4 0x3577BE9 PUSH1 0xE2 SHL DUP3 MSTORE GAS STATICCALL DUP1 ISZERO PUSH2 0x356 JUMPI DUP3 SWAP2 PUSH1 0x0 SWAP2 PUSH2 0xD12 JUMPI JUMPDEST POP AND SWAP2 PUSH1 0x0 MSTORE DUP4 DUP7 MSTORE PUSH1 0x1 PUSH1 0x40 PUSH1 0x0 KECCAK256 ADD SLOAD AND SWAP1 DUP1 EXTCODESIZE ISZERO PUSH2 0x362 JUMPI PUSH1 0x40 MLOAD PUSH4 0xDE9D8587 PUSH1 0xE0 SHL DUP2 MSTORE PUSH1 0x4 DUP2 ADD DUP9 SWAP1 MSTORE PUSH1 0x1 PUSH1 0x1 PUSH1 0xA0 SHL SUB SWAP3 SWAP1 SWAP3 AND PUSH1 0x24 DUP4 ADD MSTORE PUSH1 0x0 SWAP1 DUP3 SWAP1 PUSH1 0x44 SWAP1 DUP3 SWAP1 DUP5 SWAP1 GAS CALL DUP1 ISZERO PUSH2 0x356 JUMPI PUSH2 0xD03 JUMPI JUMPDEST POP PUSH2 0xB5E JUMP JUMPDEST PUSH2 0xD0C SWAP1 PUSH2 0x33EA JUMP JUMPDEST DUP6 PUSH2 0xCFD JUMP JUMPDEST DUP1 SWAP3 POP DUP9 DUP1 SWAP3 POP RETURNDATASIZE DUP4 GT PUSH2 0xD43 JUMPI JUMPDEST PUSH2 0xD2B DUP2 DUP4 PUSH2 0x3419 JUMP JUMPDEST DUP2 ADD SUB SLT PUSH2 0x362 JUMPI PUSH2 0xD3D DUP3 SWAP2 PUSH2 0x3713 JUMP JUMPDEST DUP10 PUSH2 0xCA4 JUMP JUMPDEST POP RETURNDATASIZE PUSH2 0xD21 JUMP JUMPDEST PUSH1 0x0 NOT DUP3 ADD SWAP3 POP SWAP1 DUP3 GT PUSH2 0x88C JUMPI DUP9 SWAP2 PUSH2 0xD63 SWAP2 PUSH2 0x363C JUMP JUMPDEST SWAP1 SLOAD SWAP1 DUP7 SHL SHR EQ DUP9 DUP1 PUSH2 0xACF JUMP JUMPDEST PUSH1 0x40 MLOAD PUSH3 0x461BCD PUSH1 0xE5 SHL DUP2 MSTORE PUSH1 0x4 DUP2 ADD DUP8 SWAP1 MSTORE PUSH1 0x30 PUSH1 0x24 DUP3 ADD MSTORE PUSH32 0x4F6E6C79206F66666572206F776E6572206F722061646D696E2063616E206669 PUSH1 0x44 DUP3 ADD MSTORE PUSH16 0x6E616C697A6520746865207472616465 PUSH1 0x80 SHL PUSH1 0x64 DUP3 ADD MSTORE PUSH1 0x84 SWAP1 REVERT JUMPDEST POP CALLER PUSH1 0x0 MSTORE PUSH1 0x5 DUP7 MSTORE DUP3 PUSH1 0x40 PUSH1 0x0 KECCAK256 SLOAD AND PUSH2 0xAB1 JUMP JUMPDEST PUSH2 0xDFA SWAP2 POP RETURNDATASIZE DUP1 PUSH1 0x0 DUP4 RETURNDATACOPY PUSH2 0x4F7 DUP2 DUP4 PUSH2 0x3419 JUMP JUMPDEST POP POP POP POP POP POP POP POP POP POP POP POP POP POP POP POP POP DUP9 PUSH2 0xAA5 JUMP JUMPDEST DUP1 SWAP3 POP DUP9 DUP1 SWAP3 POP RETURNDATASIZE DUP4 GT PUSH2 0xE44 JUMPI JUMPDEST PUSH2 0xE2A DUP2 DUP4 PUSH2 0x3419 JUMP JUMPDEST DUP2 ADD SUB SLT PUSH2 0x362 JUMPI PUSH1 0x0 PUSH2 0xE3E DUP5 SWAP3 PUSH2 0x3713 JUMP JUMPDEST SWAP1 PUSH2 0xA6B JUMP JUMPDEST POP RETURNDATASIZE PUSH2 0xE20 JUMP JUMPDEST PUSH1 0x40 MLOAD PUSH3 0x461BCD PUSH1 0xE5 SHL DUP2 MSTORE PUSH1 0x4 DUP2 ADD DUP6 SWAP1 MSTORE PUSH1 0x39 PUSH1 0x24 DUP3 ADD MSTORE PUSH32 0x54726164652063616E6E6F742062652066696E616C697A656420696620697420 PUSH1 0x44 DUP3 ADD MSTORE PUSH32 0x69732063616E63656C6C6564206F722074696D6564206F757400000000000000 PUSH1 0x64 DUP3 ADD MSTORE PUSH1 0x84 SWAP1 REVERT JUMPDEST POP DUP5 PUSH1 0x0 MSTORE DUP2 DUP5 MSTORE DUP1 DUP4 PUSH1 0x40 PUSH1 0x0 KECCAK256 ADD SLOAD AND DUP4 DUP2 LT ISZERO PUSH2 0x591 JUMPI PUSH1 0x6 EQ ISZERO PUSH2 0xA0D JUMP JUMPDEST PUSH1 0x40 MLOAD PUSH3 0x461BCD PUSH1 0xE5 SHL DUP2 MSTORE PUSH1 0x4 DUP2 ADD DUP6 SWAP1 MSTORE PUSH1 0x3D PUSH1 0x24 DUP3 ADD MSTORE PUSH32 0x5472616465206973206E6F7420696E20612066696E616C697A61626C65207374 PUSH1 0x44 DUP3 ADD MSTORE PUSH32 0x617465206F722063616C6C6572206973206E6F7420616E2061646D696E000000 PUSH1 0x64 DUP3 ADD MSTORE PUSH1 0x84 SWAP1 REVERT JUMPDEST POP DUP5 PUSH1 0x0 MSTORE DUP2 DUP5 MSTORE DUP1 DUP4 PUSH1 0x40 PUSH1 0x0 KECCAK256 ADD SLOAD AND DUP4 DUP2 LT ISZERO PUSH2 0x591 JUMPI PUSH1 0x5 EQ DUP1 ISZERO PUSH2 0x9E5 JUMPI POP CALLER PUSH1 0x0 MSTORE PUSH1 0x5 DUP5 MSTORE DUP1 PUSH1 0x40 PUSH1 0x0 KECCAK256 SLOAD AND PUSH2 0x9E5 JUMP JUMPDEST POP PUSH1 0x2 SLOAD DUP3 GT ISZERO PUSH2 0x9B1 JUMP JUMPDEST CALLVALUE PUSH2 0x362 JUMPI PUSH1 0x0 CALLDATASIZE PUSH1 0x3 NOT ADD SLT PUSH2 0x362 JUMPI PUSH1 0x20 PUSH1 0x2 SLOAD PUSH1 0x40 MLOAD SWAP1 DUP2 MSTORE RETURN JUMPDEST CALLVALUE PUSH2 0x362 JUMPI PUSH1 0x20 DUP1 PUSH1 0x3 NOT CALLDATASIZE ADD SLT PUSH2 0x362 JUMPI PUSH1 0x4 CALLDATALOAD DUP1 ISZERO ISZERO DUP1 PUSH2 0x118C JUMPI JUMPDEST PUSH2 0xFCE SWAP1 PUSH2 0x3685 JUMP JUMPDEST PUSH2 0xFD6 PUSH2 0x3AB7 JUMP JUMPDEST DUP1 PUSH1 0x0 MSTORE PUSH1 0x3 DUP3 MSTORE PUSH1 0x8 PUSH1 0xFF DUP2 PUSH1 0x40 PUSH1 0x0 KECCAK256 ADD SLOAD AND DUP2 DUP2 LT ISZERO PUSH2 0x591 JUMPI PUSH1 0x4 EQ SWAP2 DUP3 ISZERO PUSH2 0x1166 JUMPI JUMPDEST DUP3 ISZERO PUSH2 0x113F JUMPI JUMPDEST POP POP ISZERO PUSH2 0x10EC JUMPI PUSH1 0x0 SLOAD PUSH1 0x40 MLOAD PUSH4 0x3577BE9 PUSH1 0xE2 SHL DUP2 MSTORE PUSH1 0x1 PUSH1 0x1 PUSH1 0xA0 SHL SUB SWAP2 DUP4 SWAP1 DUP3 SWAP1 PUSH1 0x4 SWAP1 DUP3 SWAP1 DUP7 AND GAS STATICCALL SWAP1 DUP2 ISZERO PUSH2 0x356 JUMPI PUSH1 0x0 SWAP2 PUSH2 0x10B7 JUMPI JUMPDEST POP AND CALLER SUB PUSH2 0x105D JUMPI PUSH1 0x1 PUSH1 0x0 DUP1 MLOAD PUSH1 0x20 PUSH2 0x3AE8 DUP4 CODECOPY DUP2 MLOAD SWAP2 MSTORE SSTORE STOP JUMPDEST PUSH1 0x84 SWAP1 PUSH1 0x40 MLOAD SWAP1 PUSH3 0x461BCD PUSH1 0xE5 SHL DUP3 MSTORE PUSH1 0x4 DUP3 ADD MSTORE PUSH1 0x2D PUSH1 0x24 DUP3 ADD MSTORE PUSH32 0x4F6E6C7920457363726F7720636F6E74726163742063616E2063616C6C207265 PUSH1 0x44 DUP3 ADD MSTORE PUSH13 0x333AB73210333AB731BA34B7B7 PUSH1 0x99 SHL PUSH1 0x64 DUP3 ADD MSTORE REVERT JUMPDEST SWAP1 POP DUP3 DUP2 DUP2 RETURNDATASIZE DUP4 GT PUSH2 0x10E5 JUMPI JUMPDEST PUSH2 0x10CE DUP2 DUP4 PUSH2 0x3419 JUMP JUMPDEST DUP2 ADD SUB SLT PUSH2 0x362 JUMPI PUSH2 0x10DF SWAP1 PUSH2 0x3713 JUMP JUMPDEST DUP4 PUSH2 0x1041 JUMP JUMPDEST POP RETURNDATASIZE PUSH2 0x10C4 JUMP JUMPDEST PUSH1 0x84 SWAP1 PUSH1 0x40 MLOAD SWAP1 PUSH3 0x461BCD PUSH1 0xE5 SHL DUP3 MSTORE PUSH1 0x4 DUP3 ADD MSTORE PUSH1 0x26 PUSH1 0x24 DUP3 ADD MSTORE PUSH32 0x54726164652063616E6E6F7420626520726566756E6465642061742074686973 PUSH1 0x44 DUP3 ADD MSTORE PUSH6 0x207374616765 PUSH1 0xD0 SHL PUSH1 0x64 DUP3 ADD MSTORE REVERT JUMPDEST SWAP1 SWAP2 POP PUSH1 0x0 MSTORE PUSH1 0x3 DUP3 MSTORE PUSH1 0xFF DUP2 PUSH1 0x40 PUSH1 0x0 KECCAK256 ADD SLOAD AND SWAP1 DUP2 LT ISZERO PUSH2 0x591 JUMPI PUSH1 0x5 EQ DUP3 DUP1 PUSH2 0x1005 JUMP JUMPDEST DUP1 SWAP3 POP PUSH1 0x0 MSTORE PUSH1 0x3 DUP4 MSTORE PUSH1 0xFF DUP2 PUSH1 0x40 PUSH1 0x0 KECCAK256 ADD SLOAD AND DUP2 DUP2 LT ISZERO PUSH2 0x591 JUMPI PUSH1 0x6 EQ SWAP2 PUSH2 0xFFE JUMP JUMPDEST POP PUSH1 0x2 SLOAD DUP2 GT ISZERO PUSH2 0xFC5 JUMP JUMPDEST CALLVALUE PUSH2 0x362 JUMPI PUSH1 0x40 CALLDATASIZE PUSH1 0x3 NOT ADD SLT PUSH2 0x362 JUMPI PUSH1 0x4 CALLDATALOAD PUSH1 0x8 DUP2 LT ISZERO PUSH2 0x362 JUMPI PUSH1 0x24 CALLDATALOAD PUSH1 0x8 DUP2 LT ISZERO PUSH2 0x362 JUMPI PUSH2 0x11D7 PUSH1 0xFF SWAP2 PUSH2 0x11D2 PUSH1 0x20 SWAP5 PUSH2 0x3654 JUMP JUMPDEST PUSH2 0x366D JUMP JUMPDEST SLOAD AND PUSH1 0x40 MLOAD SWAP1 ISZERO ISZERO DUP2 MSTORE RETURN JUMPDEST CALLVALUE PUSH2 0x362 JUMPI PUSH1 0x20 DUP1 PUSH1 0x3 NOT CALLDATASIZE ADD SLT PUSH2 0x362 JUMPI PUSH1 0x4 CALLDATALOAD PUSH1 0x1 PUSH1 0x1 PUSH1 0x40 SHL SUB DUP2 GT PUSH2 0x362 JUMPI CALLDATASIZE PUSH1 0x23 DUP3 ADD SLT ISZERO PUSH2 0x362 JUMPI DUP1 PUSH1 0x4 ADD CALLDATALOAD SWAP2 PUSH2 0x1220 DUP4 PUSH2 0x35AD JUMP JUMPDEST SWAP2 PUSH2 0x122E PUSH1 0x40 MLOAD SWAP4 DUP5 PUSH2 0x3419 JUMP JUMPDEST DUP4 DUP4 MSTORE DUP2 DUP4 ADD PUSH1 0x24 PUSH1 0x5 SWAP6 PUSH1 0x5 SHL DUP4 ADD ADD SWAP2 CALLDATASIZE DUP4 GT PUSH2 0x362 JUMPI PUSH1 0x24 ADD SWAP1 JUMPDEST DUP3 DUP3 LT PUSH2 0x13F3 JUMPI POP POP POP PUSH1 0x1 DUP1 PUSH1 0xA0 SHL SUB PUSH1 0x1 SWAP3 DUP2 DUP5 SLOAD AND DUP1 CALLER SUB PUSH2 0x1396 JUMPI PUSH1 0x0 MSTORE PUSH1 0x5 DUP4 MSTORE PUSH1 0xFF PUSH1 0x40 PUSH1 0x0 KECCAK256 SLOAD AND PUSH2 0x1345 JUMPI DUP4 SWAP5 DUP5 PUSH1 0x0 SWAP1 JUMPDEST PUSH2 0x12D6 JUMPI JUMPDEST POP POP POP DUP1 PUSH32 0xE68D2C359A771606C400CF8B87000CF5864010363D6A736E98F5047B7BBE18E9 SWAP4 SLOAD AND PUSH1 0x0 MSTORE PUSH1 0x5 DUP3 MSTORE PUSH1 0x40 PUSH1 0x0 KECCAK256 DUP5 PUSH1 0xFF NOT DUP3 SLOAD AND OR SWAP1 SSTORE DUP4 SLOAD AND SWAP3 PUSH1 0x40 MLOAD SWAP1 DUP2 MSTORE LOG2 STOP JUMPDEST DUP3 MLOAD DUP2 LT ISZERO PUSH2 0x1340 JUMPI DUP1 DUP5 PUSH2 0x12EC DUP9 SWAP4 DUP7 PUSH2 0x3966 JUMP JUMPDEST MLOAD AND PUSH1 0x0 MSTORE DUP3 DUP7 MSTORE PUSH1 0x40 PUSH1 0x0 KECCAK256 DUP3 PUSH1 0xFF NOT DUP3 SLOAD AND OR SWAP1 SSTORE DUP5 PUSH2 0x130E DUP3 DUP7 PUSH2 0x3966 JUMP JUMPDEST MLOAD AND PUSH32 0xE68D2C359A771606C400CF8B87000CF5864010363D6A736E98F5047B7BBE18E9 DUP8 PUSH1 0x40 MLOAD DUP6 DUP2 MSTORE LOG2 ADD DUP6 PUSH2 0x1286 JUMP JUMPDEST PUSH2 0x128B JUMP JUMPDEST PUSH1 0x40 MLOAD PUSH3 0x461BCD PUSH1 0xE5 SHL DUP2 MSTORE PUSH1 0x4 DUP2 ADD DUP5 SWAP1 MSTORE PUSH1 0x23 PUSH1 0x24 DUP3 ADD MSTORE PUSH32 0x496E697469616C2061646D696E732063616E206F6E6C7920626520736574206F PUSH1 0x44 DUP3 ADD MSTORE PUSH3 0x6E6365 PUSH1 0xE8 SHL PUSH1 0x64 DUP3 ADD MSTORE PUSH1 0x84 SWAP1 REVERT JUMPDEST PUSH1 0x40 MLOAD PUSH3 0x461BCD PUSH1 0xE5 SHL DUP2 MSTORE PUSH1 0x4 DUP2 ADD DUP6 SWAP1 MSTORE PUSH1 0x2F PUSH1 0x24 DUP3 ADD MSTORE PUSH32 0x4F6E6C792074686520636F6E7472616374206F776E65722063616E2070657266 PUSH1 0x44 DUP3 ADD MSTORE PUSH15 0x37B936903A3434B99030B1BA34B7B7 PUSH1 0x89 SHL PUSH1 0x64 DUP3 ADD MSTORE PUSH1 0x84 SWAP1 REVERT JUMPDEST DUP2 CALLDATALOAD PUSH1 0x1 PUSH1 0x1 PUSH1 0xA0 SHL SUB DUP2 AND DUP2 SUB PUSH2 0x362 JUMPI DUP2 MSTORE SWAP1 DUP4 ADD SWAP1 DUP4 ADD PUSH2 0x124C JUMP JUMPDEST CALLVALUE PUSH2 0x362 JUMPI PUSH1 0x0 CALLDATASIZE PUSH1 0x3 NOT ADD SLT PUSH2 0x362 JUMPI PUSH1 0x1 SLOAD PUSH1 0x40 MLOAD PUSH1 0x1 PUSH1 0x1 PUSH1 0xA0 SHL SUB SWAP1 SWAP2 AND DUP2 MSTORE PUSH1 0x20 SWAP1 RETURN JUMPDEST CALLVALUE PUSH2 0x362 JUMPI PUSH1 0x20 DUP1 PUSH1 0x3 NOT CALLDATASIZE ADD SLT PUSH2 0x362 JUMPI PUSH1 0x4 CALLDATALOAD SWAP1 PUSH2 0x1459 PUSH2 0x3AB7 JUMP JUMPDEST DUP2 ISZERO ISZERO DUP1 PUSH2 0x17C5 JUMPI JUMPDEST PUSH2 0x146B SWAP1 PUSH2 0x3685 JUMP JUMPDEST DUP2 PUSH1 0x0 MSTORE PUSH1 0x3 SWAP1 DUP2 DUP2 MSTORE PUSH1 0xFF SWAP2 PUSH1 0x8 SWAP1 DUP4 DUP3 PUSH1 0x40 PUSH1 0x0 KECCAK256 ADD SLOAD AND DUP3 DUP2 LT ISZERO PUSH2 0x591 JUMPI PUSH1 0x1 EQ DUP1 ISZERO PUSH2 0x17A3 JUMPI JUMPDEST ISZERO PUSH2 0x174F JUMPI DUP5 PUSH1 0x0 MSTORE DUP1 DUP4 MSTORE DUP4 DUP3 PUSH1 0x40 PUSH1 0x0 KECCAK256 ADD SLOAD AND DUP3 DUP2 LT ISZERO PUSH2 0x591 JUMPI PUSH1 0x5 EQ PUSH2 0x170A JUMPI DUP5 PUSH1 0x0 MSTORE DUP1 DUP4 MSTORE DUP4 DUP3 PUSH1 0x40 PUSH1 0x0 KECCAK256 ADD SLOAD AND DUP3 DUP2 LT ISZERO PUSH2 0x591 JUMPI DUP2 PUSH2 0x14E1 SWAP2 EQ ISZERO PUSH2 0x36C8 JUMP JUMPDEST PUSH1 0x0 SLOAD PUSH1 0x40 MLOAD PUSH4 0x3EA42DE3 PUSH1 0xE0 SHL DUP2 MSTORE PUSH1 0x1 PUSH1 0x1 PUSH1 0xA0 SHL SUB SWAP6 SWAP2 DUP6 SWAP1 DUP3 SWAP1 PUSH1 0x4 SWAP1 DUP3 SWAP1 DUP11 AND GAS STATICCALL DUP1 ISZERO PUSH2 0x356 JUMPI DUP7 SWAP2 PUSH1 0x0 SWAP2 PUSH2 0x16D0 JUMPI JUMPDEST POP PUSH1 0x0 SWAP1 DUP9 DUP3 MSTORE DUP5 DUP8 MSTORE PUSH1 0x24 PUSH1 0x40 DUP4 KECCAK256 SLOAD PUSH1 0x40 MLOAD SWAP5 DUP6 SWAP4 DUP5 SWAP3 PUSH4 0x27DB25F1 PUSH1 0xE1 SHL DUP5 MSTORE PUSH1 0x4 DUP5 ADD MSTORE AND GAS STATICCALL DUP1 ISZERO PUSH2 0x356 JUMPI PUSH2 0x1578 SWAP2 PUSH1 0x0 SWAP2 PUSH2 0x16A4 JUMPI JUMPDEST POP DUP8 PUSH1 0x0 MSTORE DUP4 DUP7 MSTORE DUP7 PUSH1 0x1 PUSH1 0x40 PUSH1 0x0 KECCAK256 ADD SLOAD AND CALLER EQ SWAP1 DUP2 ISZERO PUSH2 0x1698 JUMPI JUMPDEST POP PUSH2 0x3873 JUMP JUMPDEST DUP6 PUSH1 0x0 MSTORE DUP2 DUP5 MSTORE PUSH2 0x1591 DUP2 DUP5 PUSH1 0x40 PUSH1 0x0 KECCAK256 ADD SLOAD AND PUSH2 0x3654 JUMP JUMPDEST PUSH1 0x5 PUSH1 0x0 MSTORE DUP5 MSTORE PUSH1 0x40 PUSH1 0x0 KECCAK256 SLOAD AND ISZERO PUSH2 0xBE7 JUMPI DUP5 PUSH1 0x0 MSTORE DUP3 MSTORE PUSH1 0x40 PUSH1 0x0 KECCAK256 ADD PUSH1 0x5 PUSH1 0xFF NOT DUP3 SLOAD AND OR SWAP1 SSTORE PUSH1 0x4 DUP2 DUP4 PUSH1 0x0 SLOAD AND PUSH1 0x40 MLOAD SWAP3 DUP4 DUP1 SWAP3 PUSH4 0x70505653 PUSH1 0xE0 SHL DUP3 MSTORE GAS STATICCALL SWAP2 DUP3 ISZERO PUSH2 0x356 JUMPI PUSH1 0x0 SWAP3 PUSH2 0x1662 JUMPI JUMPDEST POP POP AND DUP1 EXTCODESIZE ISZERO PUSH2 0x362 JUMPI PUSH1 0x0 DUP1 SWAP2 PUSH1 0x24 PUSH1 0x40 MLOAD DUP1 SWAP5 DUP2 SWAP4 PUSH4 0x4B54A379 PUSH1 0xE0 SHL DUP4 MSTORE DUP8 PUSH1 0x4 DUP5 ADD MSTORE GAS CALL DUP1 ISZERO PUSH2 0x356 JUMPI PUSH2 0x1653 JUMPI JUMPDEST POP PUSH32 0x995328816EB12E50EC2691560298922CD9EAD6191E59874EF2EF6CA8C766D725 PUSH1 0x0 DUP1 LOG2 PUSH1 0x1 PUSH1 0x0 DUP1 MLOAD PUSH1 0x20 PUSH2 0x3AE8 DUP4 CODECOPY DUP2 MLOAD SWAP2 MSTORE SSTORE STOP JUMPDEST PUSH2 0x165C SWAP1 PUSH2 0x33EA JUMP JUMPDEST DUP2 PUSH2 0x1619 JUMP JUMPDEST SWAP1 DUP1 SWAP3 POP DUP2 RETURNDATASIZE DUP4 GT PUSH2 0x1691 JUMPI JUMPDEST PUSH2 0x1679 DUP2 DUP4 PUSH2 0x3419 JUMP JUMPDEST DUP2 ADD SUB SLT PUSH2 0x362 JUMPI PUSH2 0x168A SWAP1 PUSH2 0x3713 JUMP JUMPDEST DUP4 DUP1 PUSH2 0x15E5 JUMP JUMPDEST POP RETURNDATASIZE PUSH2 0x166F JUMP JUMPDEST DUP8 AND CALLER EQ SWAP1 POP DUP9 PUSH2 0x1572 JUMP JUMPDEST PUSH2 0x16B9 SWAP2 POP RETURNDATASIZE DUP1 PUSH1 0x0 DUP4 RETURNDATACOPY PUSH2 0x4F7 DUP2 DUP4 PUSH2 0x3419 JUMP JUMPDEST POP POP POP POP POP POP POP POP POP POP POP POP POP POP POP POP POP DUP9 PUSH2 0x1555 JUMP JUMPDEST DUP1 SWAP3 POP DUP7 DUP1 SWAP3 POP RETURNDATASIZE DUP4 GT PUSH2 0x1703 JUMPI JUMPDEST PUSH2 0x16E9 DUP2 DUP4 PUSH2 0x3419 JUMP JUMPDEST DUP2 ADD SUB SLT PUSH2 0x362 JUMPI PUSH1 0x0 PUSH2 0x16FD DUP8 SWAP3 PUSH2 0x3713 JUMP JUMPDEST SWAP1 PUSH2 0x1518 JUMP JUMPDEST POP RETURNDATASIZE PUSH2 0x16DF JUMP JUMPDEST PUSH1 0x40 MLOAD PUSH3 0x461BCD PUSH1 0xE5 SHL DUP2 MSTORE PUSH1 0x4 DUP2 ADD DUP5 SWAP1 MSTORE PUSH1 0x19 PUSH1 0x24 DUP3 ADD MSTORE PUSH32 0x547261646520697320616C726561647920646973707574656400000000000000 PUSH1 0x44 DUP3 ADD MSTORE PUSH1 0x64 SWAP1 REVERT JUMPDEST PUSH1 0x40 MLOAD PUSH3 0x461BCD PUSH1 0xE5 SHL DUP2 MSTORE PUSH1 0x4 DUP2 ADD DUP5 SWAP1 MSTORE PUSH1 0x26 PUSH1 0x24 DUP3 ADD MSTORE PUSH32 0x54726164652063616E6E6F742062652064697370757465642061742074686973 PUSH1 0x44 DUP3 ADD MSTORE PUSH6 0x207374616765 PUSH1 0xD0 SHL PUSH1 0x64 DUP3 ADD MSTORE PUSH1 0x84 SWAP1 REVERT JUMPDEST POP DUP5 PUSH1 0x0 MSTORE DUP1 DUP4 MSTORE DUP4 DUP3 PUSH1 0x40 PUSH1 0x0 KECCAK256 ADD SLOAD AND DUP3 DUP2 LT ISZERO PUSH2 0x591 JUMPI PUSH1 0x2 EQ PUSH2 0x1497 JUMP JUMPDEST POP PUSH1 0x2 SLOAD DUP3 GT ISZERO PUSH2 0x1462 JUMP JUMPDEST CALLVALUE PUSH2 0x362 JUMPI PUSH1 0x60 CALLDATASIZE PUSH1 0x3 NOT ADD SLT PUSH2 0x362 JUMPI PUSH1 0x4 CALLDATALOAD PUSH1 0x24 DUP1 CALLDATALOAD SWAP1 PUSH1 0x44 SWAP1 DUP2 CALLDATALOAD PUSH1 0x1 PUSH1 0x1 PUSH1 0x40 SHL SUB DUP2 GT PUSH2 0x362 JUMPI PUSH2 0x180B SWAP1 CALLDATASIZE SWAP1 PUSH1 0x4 ADD PUSH2 0x35DF JUMP JUMPDEST PUSH1 0x0 SLOAD PUSH1 0x40 MLOAD PUSH4 0x3EA42DE3 PUSH1 0xE0 SHL DUP2 MSTORE PUSH1 0x20 SWAP5 SWAP2 PUSH1 0x1 PUSH1 0x1 PUSH1 0xA0 SHL SUB SWAP2 SWAP1 DUP7 SWAP1 DUP3 SWAP1 PUSH1 0x4 SWAP1 DUP3 SWAP1 DUP7 AND GAS STATICCALL DUP1 ISZERO PUSH2 0x356 JUMPI DUP3 SWAP2 PUSH1 0x0 SWAP2 PUSH2 0x1BAE JUMPI JUMPDEST POP PUSH1 0x0 SWAP1 DUP10 DUP3 MSTORE PUSH1 0x3 DUP9 MSTORE DUP7 PUSH1 0x40 DUP4 KECCAK256 SLOAD PUSH1 0x40 MLOAD SWAP5 DUP6 SWAP4 DUP5 SWAP3 PUSH4 0x27DB25F1 PUSH1 0xE1 SHL DUP5 MSTORE PUSH1 0x4 DUP5 ADD MSTORE AND GAS STATICCALL SWAP1 DUP2 ISZERO PUSH2 0x356 JUMPI PUSH1 0x0 SWAP2 PUSH2 0x1B82 JUMPI JUMPDEST POP DUP8 PUSH1 0x0 MSTORE PUSH1 0x3 DUP7 MSTORE DUP2 PUSH1 0x1 PUSH1 0x40 PUSH1 0x0 KECCAK256 ADD SLOAD AND CALLER EQ SWAP1 DUP2 ISZERO PUSH2 0x1B76 JUMPI JUMPDEST POP ISZERO PUSH2 0x1B20 JUMPI DUP7 ISZERO ISZERO DUP1 PUSH2 0x1B14 JUMPI JUMPDEST PUSH2 0x18B6 SWAP1 PUSH2 0x3685 JUMP JUMPDEST DUP7 PUSH1 0x0 MSTORE PUSH1 0x3 DUP6 MSTORE PUSH1 0xFF PUSH1 0x8 PUSH1 0x40 PUSH1 0x0 KECCAK256 ADD SLOAD AND PUSH1 0x8 DUP2 LT ISZERO PUSH2 0x1AFF JUMPI PUSH1 0x3 SUB PUSH2 0x1AC3 JUMPI PUSH1 0x1 DUP7 LT ISZERO DUP1 PUSH2 0x1AB8 JUMPI JUMPDEST ISZERO PUSH2 0x1A7E JUMPI DUP7 PUSH1 0x0 MSTORE PUSH1 0x6 DUP6 MSTORE PUSH1 0x40 PUSH1 0x0 KECCAK256 CALLER PUSH1 0x0 MSTORE DUP6 MSTORE PUSH1 0xFF PUSH1 0x40 PUSH1 0x0 KECCAK256 SLOAD AND PUSH2 0x1A2A JUMPI DUP7 PUSH1 0x0 MSTORE PUSH1 0x6 DUP6 MSTORE PUSH1 0x40 PUSH1 0x0 KECCAK256 CALLER PUSH1 0x0 MSTORE DUP6 MSTORE PUSH1 0x40 PUSH1 0x0 KECCAK256 PUSH1 0x1 PUSH1 0xFF NOT DUP3 SLOAD AND OR SWAP1 SSTORE PUSH1 0x4 DUP6 DUP3 PUSH1 0x0 SLOAD AND PUSH1 0x40 MLOAD SWAP3 DUP4 DUP1 SWAP3 PUSH4 0x1ECC6055 PUSH1 0xE2 SHL DUP3 MSTORE GAS STATICCALL SWAP1 DUP2 ISZERO PUSH2 0x356 JUMPI PUSH1 0x0 SWAP2 PUSH2 0x19F5 JUMPI JUMPDEST POP AND SWAP3 DUP4 EXTCODESIZE ISZERO PUSH2 0x362 JUMPI DUP6 SWAP4 PUSH1 0x60 PUSH1 0x0 SWAP4 PUSH1 0x40 MLOAD SWAP9 DUP10 SWAP5 PUSH4 0x8A2829E7 PUSH1 0xE0 SHL DUP7 MSTORE DUP12 PUSH1 0x4 DUP8 ADD MSTORE DUP6 ADD MSTORE DUP4 ADD MSTORE DUP2 DUP4 DUP2 PUSH2 0x1994 PUSH1 0x64 DUP3 ADD DUP9 PUSH2 0x3502 JUMP JUMPDEST SUB SWAP3 GAS CALL SWAP1 DUP2 ISZERO PUSH2 0x356 JUMPI PUSH32 0x5E72C1F0055C90B360F39E32F2E35808960AA9D049E8C3847B383CA534554398 SWAP5 PUSH2 0x19E1 SWAP3 PUSH2 0x19E6 JUMPI JUMPDEST POP PUSH1 0x40 DUP1 MLOAD SWAP5 DUP6 SWAP5 DUP6 MSTORE DUP5 ADD MSTORE PUSH1 0x40 DUP4 ADD SWAP1 PUSH2 0x3502 JUMP JUMPDEST SUB SWAP1 LOG2 STOP JUMPDEST PUSH2 0x19EF SWAP1 PUSH2 0x33EA JUMP JUMPDEST DUP7 PUSH2 0x19CA JUMP JUMPDEST SWAP1 POP DUP6 DUP2 DUP2 RETURNDATASIZE DUP4 GT PUSH2 0x1A23 JUMPI JUMPDEST PUSH2 0x1A0C DUP2 DUP4 PUSH2 0x3419 JUMP JUMPDEST DUP2 ADD SUB SLT PUSH2 0x362 JUMPI PUSH2 0x1A1D SWAP1 PUSH2 0x3713 JUMP JUMPDEST DUP9 PUSH2 0x1957 JUMP JUMPDEST POP RETURNDATASIZE PUSH2 0x1A02 JUMP JUMPDEST PUSH1 0x40 MLOAD PUSH3 0x461BCD PUSH1 0xE5 SHL DUP2 MSTORE PUSH1 0x4 DUP2 ADD DUP7 SWAP1 MSTORE PUSH1 0x28 DUP2 DUP7 ADD MSTORE PUSH32 0x54726164652068617320616C7265616479206265656E20726174656420627920 DUP2 DUP5 ADD MSTORE PUSH8 0x3A3432903AB9B2B9 PUSH1 0xC1 SHL PUSH1 0x64 DUP3 ADD MSTORE PUSH1 0x84 SWAP1 REVERT JUMPDEST PUSH1 0x40 MLOAD PUSH3 0x461BCD PUSH1 0xE5 SHL DUP2 MSTORE PUSH1 0x4 DUP2 ADD DUP7 SWAP1 MSTORE PUSH1 0x14 DUP2 DUP7 ADD MSTORE PUSH20 0x496E76616C696420726174696E672076616C7565 PUSH1 0x60 SHL DUP2 DUP5 ADD MSTORE PUSH1 0x64 SWAP1 REVERT JUMPDEST POP PUSH1 0x5 DUP7 GT ISZERO PUSH2 0x18E5 JUMP JUMPDEST PUSH1 0x40 MLOAD PUSH3 0x461BCD PUSH1 0xE5 SHL DUP2 MSTORE PUSH1 0x4 DUP2 ADD DUP7 SWAP1 MSTORE PUSH1 0x16 DUP2 DUP7 ADD MSTORE PUSH22 0x151C985919481A5CC81B9BDD08199A5B985B1A5E9959 PUSH1 0x52 SHL DUP2 DUP5 ADD MSTORE PUSH1 0x64 SWAP1 REVERT JUMPDEST DUP5 PUSH4 0x4E487B71 PUSH1 0xE0 SHL PUSH1 0x0 MSTORE PUSH1 0x21 PUSH1 0x4 MSTORE PUSH1 0x0 REVERT JUMPDEST POP PUSH1 0x2 SLOAD DUP8 GT ISZERO PUSH2 0x18AD JUMP JUMPDEST PUSH1 0x40 MLOAD PUSH3 0x461BCD PUSH1 0xE5 SHL DUP2 MSTORE PUSH1 0x4 DUP2 ADD DUP7 SWAP1 MSTORE PUSH1 0x2A DUP2 DUP7 ADD MSTORE PUSH32 0x4F6E6C7920747261646520706172746965732063616E20706572666F726D2074 DUP2 DUP5 ADD MSTORE PUSH10 0x3434B99030B1BA34B7B7 PUSH1 0xB1 SHL PUSH1 0x64 DUP3 ADD MSTORE PUSH1 0x84 SWAP1 REVERT JUMPDEST DUP3 AND CALLER EQ SWAP1 POP DUP9 PUSH2 0x189E JUMP JUMPDEST PUSH2 0x1B97 SWAP2 POP RETURNDATASIZE DUP1 PUSH1 0x0 DUP4 RETURNDATACOPY PUSH2 0x4F7 DUP2 DUP4 PUSH2 0x3419 JUMP JUMPDEST POP POP POP POP POP POP POP POP POP POP POP POP POP POP POP POP POP DUP9 PUSH2 0x1880 JUMP JUMPDEST DUP1 SWAP3 POP DUP8 DUP1 SWAP3 POP RETURNDATASIZE DUP4 GT PUSH2 0x1BE1 JUMPI JUMPDEST PUSH2 0x1BC7 DUP2 DUP4 PUSH2 0x3419 JUMP JUMPDEST DUP2 ADD SUB SLT PUSH2 0x362 JUMPI PUSH1 0x0 PUSH2 0x1BDB DUP4 SWAP3 PUSH2 0x3713 JUMP JUMPDEST SWAP1 PUSH2 0x1846 JUMP JUMPDEST POP RETURNDATASIZE PUSH2 0x1BBD JUMP JUMPDEST CALLVALUE PUSH2 0x362 JUMPI PUSH1 0x40 CALLDATASIZE PUSH1 0x3 NOT ADD SLT PUSH2 0x362 JUMPI PUSH1 0x4 CALLDATALOAD PUSH1 0x24 CALLDATALOAD PUSH1 0x8 DUP2 LT ISZERO PUSH2 0x362 JUMPI PUSH1 0x0 SLOAD PUSH1 0x40 MLOAD PUSH4 0x70505653 PUSH1 0xE0 SHL DUP2 MSTORE PUSH1 0x20 SWAP4 SWAP2 PUSH1 0x1 PUSH1 0x1 PUSH1 0xA0 SHL SUB SWAP2 SWAP1 DUP6 SWAP1 DUP3 SWAP1 PUSH1 0x4 SWAP1 DUP3 SWAP1 DUP7 AND GAS STATICCALL SWAP1 DUP2 ISZERO PUSH2 0x356 JUMPI PUSH1 0x0 SWAP2 PUSH2 0x1CEA JUMPI JUMPDEST POP AND CALLER SUB PUSH2 0x1C8C JUMPI DUP1 PUSH1 0x0 MSTORE PUSH1 0x3 DUP4 MSTORE PUSH1 0xFF PUSH2 0x1C6B DUP4 PUSH2 0x11D2 DUP4 PUSH1 0x8 PUSH1 0x40 PUSH1 0x0 KECCAK256 ADD SLOAD AND PUSH2 0x3654 JUMP JUMPDEST SLOAD AND ISZERO PUSH2 0xBE7 JUMPI PUSH2 0x1C8A SWAP3 PUSH1 0x3 SWAP2 PUSH1 0x0 MSTORE MSTORE PUSH1 0x8 PUSH1 0x40 PUSH1 0x0 KECCAK256 ADD PUSH2 0x39AC JUMP JUMPDEST STOP JUMPDEST PUSH1 0x40 MLOAD PUSH3 0x461BCD PUSH1 0xE5 SHL DUP2 MSTORE PUSH1 0x4 DUP2 ADD DUP5 SWAP1 MSTORE PUSH1 0x30 PUSH1 0x24 DUP3 ADD MSTORE PUSH32 0x4F6E6C79204172626974726174696F6E20636F6E74726163742063616E206361 PUSH1 0x44 DUP3 ADD MSTORE PUSH16 0x3636103A3434B990333AB731BA34B7B7 PUSH1 0x81 SHL PUSH1 0x64 DUP3 ADD MSTORE PUSH1 0x84 SWAP1 REVERT JUMPDEST SWAP1 POP DUP5 DUP2 DUP2 RETURNDATASIZE DUP4 GT PUSH2 0x1D18 JUMPI JUMPDEST PUSH2 0x1D01 DUP2 DUP4 PUSH2 0x3419 JUMP JUMPDEST DUP2 ADD SUB SLT PUSH2 0x362 JUMPI PUSH2 0x1D12 SWAP1 PUSH2 0x3713 JUMP JUMPDEST DUP6 PUSH2 0x1C42 JUMP JUMPDEST POP RETURNDATASIZE PUSH2 0x1CF7 JUMP JUMPDEST CALLVALUE PUSH2 0x362 JUMPI PUSH1 0x40 CALLDATASIZE PUSH1 0x3 NOT ADD SLT PUSH2 0x362 JUMPI PUSH1 0x24 CALLDATALOAD PUSH1 0x4 CALLDATALOAD PUSH1 0x0 MSTORE PUSH1 0x7 PUSH1 0x20 MSTORE PUSH1 0x40 PUSH1 0x0 KECCAK256 DUP1 SLOAD DUP3 LT ISZERO PUSH2 0x362 JUMPI PUSH1 0x20 SWAP2 PUSH2 0x1D58 SWAP2 PUSH2 0x363C JUMP JUMPDEST SWAP1 SLOAD PUSH1 0x40 MLOAD SWAP2 PUSH1 0x3 SHL SHR DUP2 MSTORE RETURN JUMPDEST CALLVALUE PUSH2 0x362 JUMPI PUSH1 0x0 CALLDATASIZE PUSH1 0x3 NOT ADD SLT PUSH2 0x362 JUMPI PUSH1 0x0 SLOAD PUSH1 0x40 MLOAD PUSH1 0x1 PUSH1 0x1 PUSH1 0xA0 SHL SUB SWAP1 SWAP2 AND DUP2 MSTORE PUSH1 0x20 SWAP1 RETURN JUMPDEST CALLVALUE PUSH2 0x362 JUMPI PUSH1 0x20 CALLDATASIZE PUSH1 0x3 NOT ADD SLT PUSH2 0x362 JUMPI PUSH1 0x4 CALLDATALOAD DUP1 ISZERO ISZERO DUP1 PUSH2 0x1EC0 JUMPI JUMPDEST PUSH2 0x1DB5 SWAP1 PUSH2 0x3685 JUMP JUMPDEST PUSH1 0x0 MSTORE PUSH1 0x3 PUSH1 0x20 MSTORE PUSH1 0x40 PUSH1 0x0 KECCAK256 PUSH1 0x40 MLOAD SWAP1 PUSH2 0x1DCF DUP3 PUSH2 0x33FD JUMP JUMPDEST DUP1 SLOAD DUP3 MSTORE PUSH1 0x1 DUP1 PUSH1 0xA0 SHL SUB DUP1 PUSH1 0x1 DUP4 ADD SLOAD AND SWAP2 PUSH1 0x20 DUP5 ADD SWAP3 DUP4 MSTORE PUSH1 0x2 DUP2 ADD SLOAD SWAP4 PUSH1 0x40 DUP2 ADD SWAP5 DUP6 MSTORE PUSH1 0x3 DUP3 ADD SLOAD SWAP2 PUSH1 0x60 DUP3 ADD SWAP3 DUP4 MSTORE PUSH2 0x1E0F PUSH1 0x4 DUP3 ADD PUSH2 0x343A JUMP JUMPDEST PUSH1 0x80 DUP4 ADD SWAP1 DUP2 MSTORE PUSH2 0x1E22 PUSH1 0x5 DUP4 ADD PUSH2 0x343A JUMP JUMPDEST PUSH1 0xA0 DUP5 ADD SWAP1 DUP2 MSTORE PUSH1 0x6 DUP4 ADD SLOAD PUSH1 0xC0 DUP6 ADD SWAP1 DUP2 MSTORE PUSH2 0x1E41 PUSH1 0x7 DUP6 ADD PUSH2 0x343A JUMP JUMPDEST SWAP1 PUSH1 0xE0 DUP7 ADD SWAP2 DUP3 MSTORE PUSH1 0xFF PUSH1 0x8 DUP7 ADD SLOAD AND SWAP3 PUSH2 0x1E61 PUSH2 0x100 DUP9 ADD SWAP5 DUP6 PUSH2 0x3989 JUMP JUMPDEST PUSH1 0x9 DUP7 ADD SLOAD SWAP9 PUSH2 0x120 DUP9 ADD SWAP10 DUP11 MSTORE PUSH1 0xB PUSH1 0xA DUP9 ADD SLOAD SWAP8 PUSH2 0x140 DUP11 ADD SWAP9 DUP10 MSTORE ADD SLOAD SWAP8 PUSH2 0x160 DUP2 ADD SWAP9 DUP10 MSTORE MLOAD SWAP11 MLOAD AND SWAP11 MLOAD SWAP8 MLOAD SWAP5 MLOAD SWAP1 MLOAD SWAP2 MLOAD SWAP3 MLOAD SWAP4 MLOAD SWAP5 PUSH1 0x8 DUP7 LT ISZERO PUSH2 0x591 JUMPI PUSH2 0x1EBC SWAP10 MLOAD SWAP7 MLOAD SWAP8 MLOAD SWAP9 PUSH1 0x40 MLOAD SWAP13 DUP14 SWAP13 DUP14 PUSH2 0x3527 JUMP JUMPDEST SUB SWAP1 RETURN JUMPDEST POP PUSH1 0x2 SLOAD DUP2 GT ISZERO PUSH2 0x1DAC JUMP JUMPDEST CALLVALUE PUSH2 0x362 JUMPI PUSH1 0x20 CALLDATASIZE PUSH1 0x3 NOT ADD SLT PUSH2 0x362 JUMPI PUSH1 0x20 PUSH2 0x1EEA PUSH1 0x4 CALLDATALOAD PUSH2 0x3A10 JUMP JUMPDEST PUSH1 0x40 MLOAD SWAP1 DUP2 MSTORE RETURN JUMPDEST CALLVALUE PUSH2 0x362 JUMPI PUSH1 0x20 DUP1 PUSH1 0x3 NOT CALLDATASIZE ADD SLT PUSH2 0x362 JUMPI PUSH1 0x4 CALLDATALOAD PUSH1 0x0 MSTORE PUSH1 0x3 DUP2 MSTORE PUSH1 0x40 PUSH1 0x0 KECCAK256 PUSH1 0x40 MLOAD PUSH2 0x1F1F DUP2 PUSH2 0x33FD JUMP JUMPDEST DUP2 SLOAD DUP2 MSTORE PUSH1 0x1 DUP3 ADD SLOAD PUSH1 0x1 PUSH1 0x1 PUSH1 0xA0 SHL SUB SWAP1 DUP2 AND DUP5 DUP4 ADD MSTORE PUSH1 0x2 DUP4 ADD SLOAD PUSH1 0x40 DUP4 ADD MSTORE PUSH1 0x3 DUP4 ADD SLOAD PUSH1 0x60 DUP4 ADD MSTORE SWAP2 PUSH1 0xB SWAP1 PUSH2 0x1F5B PUSH1 0x4 DUP3 ADD PUSH2 0x343A JUMP JUMPDEST PUSH1 0x80 DUP5 ADD MSTORE PUSH2 0x1F6C PUSH1 0x5 DUP3 ADD PUSH2 0x343A JUMP JUMPDEST PUSH1 0xA0 DUP5 ADD MSTORE PUSH1 0x6 DUP2 ADD SLOAD PUSH1 0xC0 DUP5 ADD MSTORE PUSH2 0x1F87 PUSH1 0x7 DUP3 ADD PUSH2 0x343A JUMP JUMPDEST PUSH1 0xE0 DUP5 ADD MSTORE PUSH2 0x1FA1 PUSH1 0xFF PUSH1 0x8 DUP4 ADD SLOAD AND PUSH2 0x100 DUP6 ADD PUSH2 0x3989 JUMP JUMPDEST PUSH1 0x9 DUP2 ADD SLOAD PUSH2 0x120 DUP5 ADD MSTORE PUSH1 0xA DUP2 ADD SLOAD PUSH2 0x140 DUP5 ADD MSTORE ADD SLOAD PUSH2 0x160 DUP3 ADD MSTORE PUSH1 0x4 DUP4 DUP4 PUSH1 0x0 SLOAD AND PUSH1 0x40 MLOAD SWAP3 DUP4 DUP1 SWAP3 PUSH4 0x3EA42DE3 PUSH1 0xE0 SHL DUP3 MSTORE GAS STATICCALL DUP1 ISZERO PUSH2 0x356 JUMPI DUP4 SWAP2 PUSH1 0x0 SWAP2 PUSH2 0x2053 JUMPI JUMPDEST POP PUSH1 0x24 PUSH1 0x0 SWAP3 SWAP4 MLOAD PUSH1 0x40 MLOAD SWAP6 DUP7 SWAP4 DUP5 SWAP3 PUSH4 0x27DB25F1 PUSH1 0xE1 SHL DUP5 MSTORE PUSH1 0x4 DUP5 ADD MSTORE AND GAS STATICCALL SWAP2 DUP3 ISZERO PUSH2 0x356 JUMPI PUSH1 0x0 SWAP3 PUSH2 0x2025 JUMPI JUMPDEST POP PUSH1 0x40 MLOAD SWAP2 AND DUP2 MSTORE RETURN JUMPDEST PUSH2 0x203B SWAP2 SWAP3 POP RETURNDATASIZE DUP1 PUSH1 0x0 DUP4 RETURNDATACOPY PUSH2 0x4F7 DUP2 DUP4 PUSH2 0x3419 JUMP JUMPDEST POP POP POP POP POP POP POP POP POP POP POP POP POP POP POP POP POP SWAP1 DUP4 PUSH2 0x201B JUMP JUMPDEST DUP1 SWAP3 POP DUP6 DUP1 SWAP3 POP RETURNDATASIZE DUP4 GT PUSH2 0x208C JUMPI JUMPDEST PUSH2 0x206C DUP2 DUP4 PUSH2 0x3419 JUMP JUMPDEST DUP2 ADD SUB SLT PUSH2 0x362 JUMPI DUP3 SWAP2 PUSH1 0x24 PUSH2 0x2083 PUSH1 0x0 SWAP4 PUSH2 0x3713 JUMP JUMPDEST SWAP2 SWAP4 SWAP3 POP PUSH2 0x1FEA JUMP JUMPDEST POP RETURNDATASIZE PUSH2 0x2062 JUMP JUMPDEST CALLVALUE PUSH2 0x362 JUMPI PUSH1 0x40 CALLDATASIZE PUSH1 0x3 NOT ADD SLT PUSH2 0x362 JUMPI PUSH1 0x24 CALLDATALOAD PUSH1 0x1 PUSH1 0x1 PUSH1 0xA0 SHL SUB DUP2 AND SWAP1 DUP2 SWAP1 SUB PUSH2 0x362 JUMPI PUSH1 0x4 CALLDATALOAD PUSH1 0x0 MSTORE PUSH1 0x6 PUSH1 0x20 MSTORE PUSH1 0x40 PUSH1 0x0 KECCAK256 SWAP1 PUSH1 0x0 MSTORE PUSH1 0x20 MSTORE PUSH1 0x20 PUSH1 0xFF PUSH1 0x40 PUSH1 0x0 KECCAK256 SLOAD AND PUSH1 0x40 MLOAD SWAP1 ISZERO ISZERO DUP2 MSTORE RETURN JUMPDEST CALLVALUE PUSH2 0x362 JUMPI PUSH1 0x40 CALLDATASIZE PUSH1 0x3 NOT ADD SLT PUSH2 0x362 JUMPI PUSH2 0x20FE PUSH2 0x3626 JUMP JUMPDEST PUSH1 0x24 CALLDATALOAD SWAP1 DUP2 ISZERO ISZERO DUP1 SWAP3 SUB PUSH2 0x362 JUMPI CALLER PUSH1 0x0 MSTORE PUSH1 0x5 PUSH1 0x20 MSTORE PUSH1 0xFF PUSH1 0x40 PUSH1 0x0 KECCAK256 SLOAD AND ISZERO PUSH2 0x2173 JUMPI PUSH1 0x20 PUSH32 0xE68D2C359A771606C400CF8B87000CF5864010363D6A736E98F5047B7BBE18E9 SWAP2 PUSH1 0x1 DUP1 PUSH1 0xA0 SHL SUB AND SWAP3 DUP4 PUSH1 0x0 MSTORE PUSH1 0x5 DUP3 MSTORE PUSH1 0x40 PUSH1 0x0 KECCAK256 PUSH1 0xFF NOT DUP2 SLOAD AND PUSH1 0xFF DUP4 AND OR SWAP1 SSTORE PUSH1 0x40 MLOAD SWAP1 DUP2 MSTORE LOG2 STOP JUMPDEST PUSH1 0x40 MLOAD PUSH3 0x461BCD PUSH1 0xE5 SHL DUP2 MSTORE PUSH1 0x20 PUSH1 0x4 DUP3 ADD MSTORE PUSH1 0x22 PUSH1 0x24 DUP3 ADD MSTORE PUSH32 0x4F6E6C792061646D696E2063616E20706572666F726D20746869732061637469 PUSH1 0x44 DUP3 ADD MSTORE PUSH2 0x37B7 PUSH1 0xF1 SHL PUSH1 0x64 DUP3 ADD MSTORE PUSH1 0x84 SWAP1 REVERT JUMPDEST CALLVALUE PUSH2 0x362 JUMPI PUSH1 0x20 DUP1 PUSH1 0x3 NOT CALLDATASIZE ADD SLT PUSH2 0x362 JUMPI PUSH1 0x4 CALLDATALOAD SWAP1 PUSH2 0x21E1 PUSH2 0x3AB7 JUMP JUMPDEST DUP2 ISZERO ISZERO DUP1 PUSH2 0x247D JUMPI JUMPDEST PUSH2 0x21F3 SWAP1 PUSH2 0x3685 JUMP JUMPDEST DUP2 PUSH1 0x0 MSTORE PUSH1 0x3 SWAP1 DUP2 DUP2 MSTORE PUSH1 0xFF PUSH1 0x8 PUSH1 0x40 PUSH1 0x0 KECCAK256 ADD SLOAD AND PUSH1 0x8 DUP2 LT ISZERO PUSH2 0x591 JUMPI PUSH1 0x1 PUSH2 0x221E SWAP2 EQ PUSH2 0x39C4 JUMP JUMPDEST DUP3 PUSH1 0x0 MSTORE DUP2 DUP2 MSTORE PUSH1 0xFF PUSH1 0x8 PUSH1 0x40 PUSH1 0x0 KECCAK256 ADD SLOAD AND PUSH1 0x8 DUP2 LT ISZERO PUSH2 0x591 JUMPI DUP3 PUSH2 0x2246 SWAP2 EQ ISZERO PUSH2 0x36C8 JUMP JUMPDEST PUSH1 0x0 SLOAD PUSH1 0x40 MLOAD PUSH4 0x3EA42DE3 PUSH1 0xE0 SHL DUP2 MSTORE PUSH1 0x1 PUSH1 0x1 PUSH1 0xA0 SHL SUB SWAP2 DUP3 AND SWAP1 DUP4 DUP2 PUSH1 0x4 DUP2 DUP6 GAS STATICCALL DUP1 ISZERO PUSH2 0x356 JUMPI DUP4 SWAP2 PUSH1 0x0 SWAP2 PUSH2 0x2443 JUMPI JUMPDEST POP PUSH1 0x0 SWAP1 DUP8 DUP3 MSTORE DUP7 DUP7 MSTORE PUSH1 0x24 PUSH1 0x40 DUP4 KECCAK256 SLOAD PUSH1 0x40 MLOAD SWAP5 DUP6 SWAP4 DUP5 SWAP3 PUSH4 0x27DB25F1 PUSH1 0xE1 SHL DUP5 MSTORE PUSH1 0x4 DUP5 ADD MSTORE AND GAS STATICCALL SWAP1 DUP2 ISZERO PUSH2 0x356 JUMPI PUSH1 0x0 SWAP2 PUSH2 0x2417 JUMPI JUMPDEST POP DUP3 CALLER SWAP2 AND SUB PUSH2 0x23BF JUMPI DUP3 PUSH1 0x4 SWAP2 PUSH1 0x40 MLOAD SWAP3 DUP4 DUP1 SWAP3 PUSH4 0x3577BE9 PUSH1 0xE2 SHL DUP3 MSTORE GAS STATICCALL SWAP1 DUP2 ISZERO PUSH2 0x356 JUMPI PUSH1 0x0 SWAP2 PUSH2 0x238A JUMPI JUMPDEST POP AND SWAP2 DUP4 PUSH1 0x0 MSTORE DUP1 DUP3 MSTORE DUP1 PUSH1 0x40 PUSH1 0x0 KECCAK256 ADD SLOAD DUP4 EXTCODESIZE ISZERO PUSH2 0x362 JUMPI PUSH1 0x0 SWAP4 PUSH1 0x44 DUP6 SWAP3 PUSH1 0x40 MLOAD SWAP7 DUP8 SWAP4 DUP5 SWAP3 PUSH4 0x342865AB PUSH1 0xE1 SHL DUP5 MSTORE DUP11 PUSH1 0x4 DUP6 ADD MSTORE PUSH1 0x24 DUP5 ADD MSTORE GAS CALL SWAP3 DUP4 ISZERO PUSH2 0x356 JUMPI PUSH32 0xC46F70879F2C8E8B148399F0E29F0A2AD37CEC5D4A75BA302C254F80CA91FC43 SWAP4 PUSH2 0x237B JUMPI JUMPDEST POP DUP4 PUSH1 0x0 MSTORE DUP1 DUP3 MSTORE PUSH1 0x40 PUSH1 0x0 KECCAK256 ADD SLOAD PUSH1 0x40 MLOAD SWAP1 DUP2 MSTORE LOG2 PUSH1 0x1 PUSH1 0x0 DUP1 MLOAD PUSH1 0x20 PUSH2 0x3AE8 DUP4 CODECOPY DUP2 MLOAD SWAP2 MSTORE SSTORE STOP JUMPDEST PUSH2 0x2384 SWAP1 PUSH2 0x33EA JUMP JUMPDEST DUP5 PUSH2 0x2351 JUMP JUMPDEST SWAP1 POP DUP3 DUP2 DUP2 RETURNDATASIZE DUP4 GT PUSH2 0x23B8 JUMPI JUMPDEST PUSH2 0x23A1 DUP2 DUP4 PUSH2 0x3419 JUMP JUMPDEST DUP2 ADD SUB SLT PUSH2 0x362 JUMPI PUSH2 0x23B2 SWAP1 PUSH2 0x3713 JUMP JUMPDEST DUP6 PUSH2 0x22E4 JUMP JUMPDEST POP RETURNDATASIZE PUSH2 0x2397 JUMP JUMPDEST PUSH1 0x40 MLOAD PUSH3 0x461BCD PUSH1 0xE5 SHL DUP2 MSTORE PUSH1 0x4 DUP2 ADD DUP5 SWAP1 MSTORE PUSH1 0x2A PUSH1 0x24 DUP3 ADD MSTORE PUSH32 0x4F6E6C79206F66666572206F776E65722063616E206C6F636B2063727970746F PUSH1 0x44 DUP3 ADD MSTORE PUSH10 0x20696E20657363726F77 PUSH1 0xB0 SHL PUSH1 0x64 DUP3 ADD MSTORE PUSH1 0x84 SWAP1 REVERT JUMPDEST PUSH2 0x242C SWAP2 POP RETURNDATASIZE DUP1 PUSH1 0x0 DUP4 RETURNDATACOPY PUSH2 0x4F7 DUP2 DUP4 PUSH2 0x3419 JUMP JUMPDEST POP POP POP POP POP POP POP POP POP POP POP POP POP POP POP POP POP DUP7 PUSH2 0x22B4 JUMP JUMPDEST DUP1 SWAP3 POP DUP6 DUP1 SWAP3 POP RETURNDATASIZE DUP4 GT PUSH2 0x2476 JUMPI JUMPDEST PUSH2 0x245C DUP2 DUP4 PUSH2 0x3419 JUMP JUMPDEST DUP2 ADD SUB SLT PUSH2 0x362 JUMPI PUSH1 0x0 PUSH2 0x2470 DUP5 SWAP3 PUSH2 0x3713 JUMP JUMPDEST SWAP1 PUSH2 0x227A JUMP JUMPDEST POP RETURNDATASIZE PUSH2 0x2452 JUMP JUMPDEST POP PUSH1 0x2 SLOAD DUP3 GT ISZERO PUSH2 0x21EA JUMP JUMPDEST CALLVALUE PUSH2 0x362 JUMPI PUSH1 0x20 CALLDATASIZE PUSH1 0x3 NOT ADD SLT PUSH2 0x362 JUMPI PUSH1 0x1 PUSH1 0x1 PUSH1 0xA0 SHL SUB PUSH2 0x24AA PUSH2 0x3626 JUMP JUMPDEST AND PUSH1 0x0 MSTORE PUSH1 0x5 PUSH1 0x20 MSTORE PUSH1 0x20 PUSH1 0xFF PUSH1 0x40 PUSH1 0x0 KECCAK256 SLOAD AND PUSH1 0x40 MLOAD SWAP1 ISZERO ISZERO DUP2 MSTORE RETURN JUMPDEST CALLVALUE PUSH2 0x362 JUMPI PUSH1 0x20 DUP1 PUSH1 0x3 NOT CALLDATASIZE ADD SLT PUSH2 0x362 JUMPI PUSH1 0x4 CALLDATALOAD SWAP1 DUP2 ISZERO ISZERO DUP1 PUSH2 0x27EF JUMPI JUMPDEST PUSH2 0x24F0 SWAP1 PUSH2 0x3685 JUMP JUMPDEST DUP2 PUSH1 0x0 MSTORE PUSH1 0x3 SWAP1 DUP2 DUP2 MSTORE PUSH1 0xFF PUSH1 0x8 PUSH1 0x40 PUSH1 0x0 KECCAK256 ADD SLOAD AND PUSH1 0x8 DUP2 LT ISZERO PUSH2 0x591 JUMPI PUSH1 0x1 PUSH2 0x251B SWAP2 EQ PUSH2 0x39C4 JUMP JUMPDEST PUSH1 0x0 DUP4 DUP2 MSTORE DUP3 DUP3 MSTORE PUSH1 0x40 SWAP1 KECCAK256 PUSH1 0x1 ADD SLOAD PUSH1 0x1 PUSH1 0x1 PUSH1 0xA0 SHL SUB SWAP1 DUP2 AND CALLER SUB PUSH2 0x279B JUMPI DUP4 PUSH1 0x0 MSTORE PUSH1 0x7 DUP3 MSTORE PUSH1 0x40 PUSH1 0x0 KECCAK256 DUP1 SLOAD DUP1 ISZERO ISZERO SWAP2 DUP3 PUSH2 0x2774 JUMPI JUMPDEST POP POP ISZERO PUSH2 0x2699 JUMPI PUSH1 0x4 DUP3 DUP3 PUSH1 0x0 SLOAD AND PUSH1 0x40 MLOAD SWAP3 DUP4 DUP1 SWAP3 PUSH4 0x3577BE9 PUSH1 0xE2 SHL DUP3 MSTORE GAS STATICCALL DUP1 ISZERO PUSH2 0x356 JUMPI DUP3 SWAP2 PUSH1 0x0 SWAP2 PUSH2 0x2661 JUMPI JUMPDEST POP AND SWAP1 DUP5 PUSH1 0x0 MSTORE DUP4 DUP4 MSTORE PUSH1 0x1 PUSH1 0x40 PUSH1 0x0 KECCAK256 ADD SLOAD AND SWAP1 DUP1 EXTCODESIZE ISZERO PUSH2 0x362 JUMPI PUSH1 0x40 MLOAD PUSH4 0xDE9D8587 PUSH1 0xE0 SHL DUP2 MSTORE PUSH1 0x4 DUP2 ADD DUP7 SWAP1 MSTORE PUSH1 0x1 PUSH1 0x1 PUSH1 0xA0 SHL SUB SWAP3 SWAP1 SWAP3 AND PUSH1 0x24 DUP4 ADD MSTORE PUSH1 0x0 SWAP1 DUP3 SWAP1 PUSH1 0x44 SWAP1 DUP3 SWAP1 DUP5 SWAP1 GAS CALL DUP1 ISZERO PUSH2 0x356 JUMPI PUSH2 0x2652 JUMPI JUMPDEST POP JUMPDEST DUP3 PUSH1 0x0 MSTORE DUP2 DUP2 MSTORE PUSH2 0x25FE PUSH1 0xFF PUSH1 0x8 PUSH1 0x40 PUSH1 0x0 KECCAK256 ADD SLOAD AND PUSH2 0x3654 JUMP JUMPDEST PUSH1 0x2 PUSH1 0x0 MSTORE DUP2 MSTORE PUSH1 0xFF PUSH1 0x40 PUSH1 0x0 KECCAK256 SLOAD AND ISZERO PUSH2 0x7F7 JUMPI DUP3 PUSH1 0x0 MSTORE MSTORE PUSH1 0x8 PUSH1 0x40 PUSH1 0x0 KECCAK256 ADD PUSH1 0x2 PUSH1 0xFF NOT DUP3 SLOAD AND OR SWAP1 SSTORE PUSH32 0x451A001DB5C51B7CA11B027313B2AD79D5049CB6FABAA4D3648CF7DDDF732EAF PUSH1 0x0 DUP1 LOG2 STOP JUMPDEST PUSH2 0x265B SWAP1 PUSH2 0x33EA JUMP JUMPDEST DUP4 PUSH2 0x25E1 JUMP JUMPDEST DUP1 SWAP3 POP DUP5 DUP1 SWAP3 POP RETURNDATASIZE DUP4 GT PUSH2 0x2692 JUMPI JUMPDEST PUSH2 0x267A DUP2 DUP4 PUSH2 0x3419 JUMP JUMPDEST DUP2 ADD SUB SLT PUSH2 0x362 JUMPI PUSH2 0x268C DUP3 SWAP2 PUSH2 0x3713 JUMP JUMPDEST DUP7 PUSH2 0x2587 JUMP JUMPDEST POP RETURNDATASIZE PUSH2 0x2670 JUMP JUMPDEST PUSH2 0x26A2 DUP5 PUSH2 0x3A10 JUMP JUMPDEST SWAP1 PUSH1 0x4 DUP4 DUP3 PUSH1 0x0 SLOAD AND PUSH1 0x40 MLOAD SWAP3 DUP4 DUP1 SWAP3 PUSH4 0x3577BE9 PUSH1 0xE2 SHL DUP3 MSTORE GAS STATICCALL DUP1 ISZERO PUSH2 0x356 JUMPI DUP3 SWAP2 PUSH1 0x0 SWAP2 PUSH2 0x273C JUMPI JUMPDEST POP AND SWAP2 PUSH1 0x0 MSTORE DUP4 DUP4 MSTORE PUSH1 0x1 PUSH1 0x40 PUSH1 0x0 KECCAK256 ADD SLOAD AND SWAP1 DUP1 EXTCODESIZE ISZERO PUSH2 0x362 JUMPI PUSH1 0x40 MLOAD PUSH4 0xDE9D8587 PUSH1 0xE0 SHL DUP2 MSTORE PUSH1 0x4 DUP2 ADD DUP7 SWAP1 MSTORE PUSH1 0x1 PUSH1 0x1 PUSH1 0xA0 SHL SUB SWAP3 SWAP1 SWAP3 AND PUSH1 0x24 DUP4 ADD MSTORE PUSH1 0x0 SWAP1 DUP3 SWAP1 PUSH1 0x44 SWAP1 DUP3 SWAP1 DUP5 SWAP1 GAS CALL DUP1 ISZERO PUSH2 0x356 JUMPI PUSH2 0x272D JUMPI JUMPDEST POP PUSH2 0x25E3 JUMP JUMPDEST PUSH2 0x2736 SWAP1 PUSH2 0x33EA JUMP JUMPDEST DUP4 PUSH2 0x2727 JUMP JUMPDEST DUP1 SWAP3 POP DUP6 DUP1 SWAP3 POP RETURNDATASIZE DUP4 GT PUSH2 0x276D JUMPI JUMPDEST PUSH2 0x2755 DUP2 DUP4 PUSH2 0x3419 JUMP JUMPDEST DUP2 ADD SUB SLT PUSH2 0x362 JUMPI PUSH2 0x2767 DUP3 SWAP2 PUSH2 0x3713 JUMP JUMPDEST DUP8 PUSH2 0x26CE JUMP JUMPDEST POP RETURNDATASIZE PUSH2 0x274B JUMP JUMPDEST PUSH1 0x0 NOT DUP3 ADD SWAP3 POP SWAP1 DUP3 GT PUSH2 0x88C JUMPI DUP6 SWAP2 PUSH2 0x278D SWAP2 PUSH2 0x363C JUMP JUMPDEST SWAP1 SLOAD SWAP1 DUP6 SHL SHR EQ DUP6 DUP1 PUSH2 0x2555 JUMP JUMPDEST PUSH1 0x40 MLOAD PUSH3 0x461BCD PUSH1 0xE5 SHL DUP2 MSTORE PUSH1 0x4 DUP2 ADD DUP4 SWAP1 MSTORE PUSH1 0x26 PUSH1 0x24 DUP3 ADD MSTORE PUSH32 0x4F6E6C792074726164652074616B65722063616E206D61726B20666961742061 PUSH1 0x44 DUP3 ADD MSTORE PUSH6 0x1CC81C185A59 PUSH1 0xD2 SHL PUSH1 0x64 DUP3 ADD MSTORE PUSH1 0x84 SWAP1 REVERT JUMPDEST POP PUSH1 0x2 SLOAD DUP3 GT ISZERO PUSH2 0x24E7 JUMP JUMPDEST CALLVALUE PUSH2 0x362 JUMPI PUSH1 0xE0 CALLDATASIZE PUSH1 0x3 NOT ADD SLT PUSH2 0x362 JUMPI PUSH1 0x4 CALLDATALOAD PUSH1 0x1 PUSH1 0x1 PUSH1 0x40 SHL SUB DUP2 GT PUSH2 0x362 JUMPI CALLDATASIZE PUSH1 0x23 DUP3 ADD SLT ISZERO PUSH2 0x362 JUMPI DUP1 PUSH1 0x4 ADD CALLDATALOAD SWAP1 PUSH2 0x2837 DUP3 PUSH2 0x35AD JUMP JUMPDEST SWAP2 PUSH2 0x2845 PUSH1 0x40 MLOAD SWAP4 DUP5 PUSH2 0x3419 JUMP JUMPDEST DUP1 DUP4 MSTORE PUSH1 0x24 PUSH1 0x20 DUP5 ADD SWAP2 PUSH1 0x5 SHL DUP4 ADD ADD SWAP2 CALLDATASIZE DUP4 GT PUSH2 0x362 JUMPI PUSH1 0x24 ADD SWAP1 JUMPDEST DUP3 DUP3 LT PUSH2 0x2EFF JUMPI DUP4 PUSH1 0x64 CALLDATALOAD PUSH1 0x1 PUSH1 0x1 PUSH1 0x40 SHL SUB DUP2 GT PUSH2 0x362 JUMPI PUSH2 0x2889 SWAP1 CALLDATASIZE SWAP1 PUSH1 0x4 ADD PUSH2 0x35DF JUMP JUMPDEST SWAP1 PUSH1 0x84 CALLDATALOAD PUSH1 0x1 PUSH1 0x1 PUSH1 0x40 SHL SUB DUP2 GT PUSH2 0x362 JUMPI PUSH2 0x28A9 SWAP1 CALLDATASIZE SWAP1 PUSH1 0x4 ADD PUSH2 0x35DF JUMP JUMPDEST PUSH1 0xC4 CALLDATALOAD PUSH1 0x1 PUSH1 0x1 PUSH1 0x40 SHL SUB DUP2 GT PUSH2 0x362 JUMPI PUSH2 0x28C8 SWAP1 CALLDATASIZE SWAP1 PUSH1 0x4 ADD PUSH2 0x35DF JUMP JUMPDEST DUP3 MLOAD ISZERO PUSH2 0x2EB0 JUMPI DUP3 MLOAD SWAP2 PUSH2 0x28F4 PUSH2 0x28DE DUP5 PUSH2 0x35AD JUMP JUMPDEST SWAP4 PUSH2 0x28EC PUSH1 0x40 MLOAD SWAP6 DUP7 PUSH2 0x3419 JUMP JUMPDEST DUP1 DUP6 MSTORE PUSH2 0x35AD JUMP JUMPDEST PUSH1 0x1F NOT ADD CALLDATASIZE PUSH1 0x20 DUP6 ADD CALLDATACOPY PUSH1 0x0 JUMPDEST DUP5 MLOAD DUP2 LT ISZERO PUSH2 0x2DA6 JUMPI PUSH2 0x2914 DUP2 DUP7 PUSH2 0x3966 JUMP JUMPDEST MLOAD SWAP1 PUSH2 0x2921 PUSH1 0x2 SLOAD PUSH2 0x397A JUMP JUMPDEST SWAP2 DUP3 PUSH1 0x2 SSTORE PUSH1 0x40 MLOAD SWAP3 PUSH2 0x2933 DUP5 PUSH2 0x33FD JUMP JUMPDEST DUP2 DUP5 MSTORE CALLER PUSH1 0x20 DUP6 ADD MSTORE PUSH1 0x24 CALLDATALOAD PUSH1 0x40 DUP6 ADD MSTORE PUSH1 0x44 CALLDATALOAD PUSH1 0x60 DUP6 ADD MSTORE DUP9 PUSH1 0x80 DUP6 ADD MSTORE DUP5 PUSH1 0xA0 DUP6 ADD MSTORE PUSH1 0xA4 CALLDATALOAD PUSH1 0xC0 DUP6 ADD MSTORE DUP6 PUSH1 0xE0 DUP6 ADD MSTORE PUSH1 0x0 PUSH2 0x100 DUP6 ADD MSTORE TIMESTAMP PUSH2 0x120 DUP6 ADD MSTORE PUSH1 0x0 PUSH2 0x140 DUP6 ADD MSTORE PUSH1 0x0 PUSH2 0x160 DUP6 ADD MSTORE PUSH1 0x0 MSTORE PUSH1 0x3 PUSH1 0x20 MSTORE PUSH1 0x40 PUSH1 0x0 KECCAK256 DUP4 MLOAD DUP2 SSTORE PUSH1 0x1 DUP2 ADD PUSH1 0x1 DUP1 PUSH1 0xA0 SHL SUB PUSH1 0x20 DUP7 ADD MLOAD AND PUSH12 0xFFFFFFFFFFFFFFFFFFFFFFFF PUSH1 0xA0 SHL DUP3 SLOAD AND OR SWAP1 SSTORE PUSH1 0x40 DUP5 ADD MLOAD PUSH1 0x2 DUP3 ADD SSTORE PUSH1 0x60 DUP5 ADD MLOAD PUSH1 0x3 DUP3 ADD SSTORE PUSH1 0x80 DUP5 ADD MLOAD DUP1 MLOAD SWAP1 PUSH1 0x1 PUSH1 0x1 PUSH1 0x40 SHL SUB DUP3 GT PUSH2 0x2C2C JUMPI DUP2 SWAP1 PUSH2 0x29F6 PUSH1 0x4 DUP6 ADD SLOAD PUSH2 0x33B0 JUMP JUMPDEST PUSH1 0x1F DUP2 GT PUSH2 0x2D71 JUMPI JUMPDEST POP PUSH1 0x20 SWAP1 PUSH1 0x1F DUP4 GT PUSH1 0x1 EQ PUSH2 0x2CFF JUMPI PUSH1 0x0 SWAP3 PUSH2 0x2CF4 JUMPI JUMPDEST POP POP DUP2 PUSH1 0x1 SHL SWAP2 PUSH1 0x0 NOT SWAP1 PUSH1 0x3 SHL SHR NOT AND OR PUSH1 0x4 DUP3 ADD SSTORE JUMPDEST PUSH1 0xA0 DUP5 ADD MLOAD DUP1 MLOAD SWAP1 PUSH1 0x1 PUSH1 0x1 PUSH1 0x40 SHL SUB DUP3 GT PUSH2 0x2C2C JUMPI DUP2 SWAP1 PUSH2 0x2A53 PUSH1 0x5 DUP6 ADD SLOAD PUSH2 0x33B0 JUMP JUMPDEST PUSH1 0x1F DUP2 GT PUSH2 0x2CBF JUMPI JUMPDEST POP PUSH1 0x20 SWAP1 PUSH1 0x1F DUP4 GT PUSH1 0x1 EQ PUSH2 0x2C4D JUMPI PUSH1 0x0 SWAP3 PUSH2 0x2C42 JUMPI JUMPDEST POP POP DUP2 PUSH1 0x1 SHL SWAP2 PUSH1 0x0 NOT SWAP1 PUSH1 0x3 SHL SHR NOT AND OR PUSH1 0x5 DUP3 ADD SSTORE JUMPDEST PUSH1 0xC0 DUP5 ADD MLOAD PUSH1 0x6 DUP3 ADD SSTORE PUSH1 0xE0 DUP5 ADD MLOAD DUP1 MLOAD SWAP1 PUSH1 0x1 PUSH1 0x1 PUSH1 0x40 SHL SUB DUP3 GT PUSH2 0x2C2C JUMPI DUP2 SWAP1 PUSH2 0x2ABA PUSH1 0x7 DUP6 ADD SLOAD PUSH2 0x33B0 JUMP JUMPDEST PUSH1 0x1F DUP2 GT PUSH2 0x2BEC JUMPI JUMPDEST POP PUSH1 0x20 SWAP1 PUSH1 0x1F DUP4 GT PUSH1 0x1 EQ PUSH2 0x2B7A JUMPI PUSH1 0x0 SWAP3 PUSH2 0x2B6F JUMPI JUMPDEST POP POP DUP2 PUSH1 0x1 SHL SWAP2 PUSH1 0x0 NOT SWAP1 PUSH1 0x3 SHL SHR NOT AND OR PUSH1 0x7 DUP3 ADD SSTORE JUMPDEST PUSH2 0x100 DUP5 ADD MLOAD SWAP4 PUSH1 0x8 DUP6 LT ISZERO PUSH2 0x591 JUMPI PUSH2 0x160 PUSH1 0xB SWAP2 PUSH2 0x2B17 PUSH1 0x1 SWAP8 PUSH1 0x8 DUP7 ADD PUSH2 0x39AC JUMP JUMPDEST PUSH2 0x120 DUP2 ADD MLOAD PUSH1 0x9 DUP6 ADD SSTORE PUSH2 0x140 DUP2 ADD MLOAD PUSH1 0xA DUP6 ADD SSTORE ADD MLOAD SWAP2 ADD SSTORE PUSH1 0x2 SLOAD SWAP1 DUP2 PUSH2 0x2B41 DUP5 DUP10 PUSH2 0x3966 JUMP JUMPDEST MSTORE CALLER SWAP2 PUSH32 0x6E1CF3A650CA8202A8A7876101E709A4307E5639C8D4015993E000F3D026E310 PUSH1 0x0 DUP1 LOG4 ADD PUSH2 0x2901 JUMP JUMPDEST ADD MLOAD SWAP1 POP DUP12 DUP1 PUSH2 0x2ADA JUMP JUMPDEST SWAP3 POP PUSH1 0x7 DUP5 ADD PUSH1 0x0 MSTORE PUSH1 0x20 PUSH1 0x0 KECCAK256 SWAP1 PUSH1 0x0 SWAP4 JUMPDEST PUSH1 0x1F NOT DUP5 AND DUP6 LT PUSH2 0x2BD1 JUMPI PUSH1 0x1 SWAP5 POP DUP4 PUSH1 0x1F NOT DUP2 AND LT PUSH2 0x2BB8 JUMPI JUMPDEST POP POP POP DUP2 SHL ADD PUSH1 0x7 DUP3 ADD SSTORE PUSH2 0x2AF2 JUMP JUMPDEST ADD MLOAD PUSH1 0x0 NOT PUSH1 0xF8 DUP5 PUSH1 0x3 SHL AND SHR NOT AND SWAP1 SSTORE DUP12 DUP1 DUP1 PUSH2 0x2BA8 JUMP JUMPDEST DUP2 DUP2 ADD MLOAD DUP4 SSTORE PUSH1 0x20 SWAP5 DUP6 ADD SWAP5 PUSH1 0x1 SWAP1 SWAP4 ADD SWAP3 SWAP1 SWAP2 ADD SWAP1 PUSH2 0x2B8D JUMP JUMPDEST PUSH2 0x2C1C SWAP1 PUSH1 0x7 DUP7 ADD PUSH1 0x0 MSTORE PUSH1 0x20 PUSH1 0x0 KECCAK256 PUSH1 0x1F DUP6 ADD PUSH1 0x5 SHR DUP2 ADD SWAP2 PUSH1 0x20 DUP7 LT PUSH2 0x2C22 JUMPI JUMPDEST PUSH1 0x1F ADD PUSH1 0x5 SHR ADD SWAP1 PUSH2 0x3995 JUMP JUMPDEST DUP13 PUSH2 0x2AC3 JUMP JUMPDEST SWAP1 SWAP2 POP DUP2 SWAP1 PUSH2 0x2C0F JUMP JUMPDEST PUSH4 0x4E487B71 PUSH1 0xE0 SHL PUSH1 0x0 MSTORE PUSH1 0x41 PUSH1 0x4 MSTORE PUSH1 0x24 PUSH1 0x0 REVERT JUMPDEST ADD MLOAD SWAP1 POP DUP12 DUP1 PUSH2 0x2A73 JUMP JUMPDEST SWAP3 POP PUSH1 0x5 DUP5 ADD PUSH1 0x0 MSTORE PUSH1 0x20 PUSH1 0x0 KECCAK256 SWAP1 PUSH1 0x0 SWAP4 JUMPDEST PUSH1 0x1F NOT DUP5 AND DUP6 LT PUSH2 0x2CA4 JUMPI PUSH1 0x1 SWAP5 POP DUP4 PUSH1 0x1F NOT DUP2 AND LT PUSH2 0x2C8B JUMPI JUMPDEST POP POP POP DUP2 SHL ADD PUSH1 0x5 DUP3 ADD SSTORE PUSH2 0x2A8B JUMP JUMPDEST ADD MLOAD PUSH1 0x0 NOT PUSH1 0xF8 DUP5 PUSH1 0x3 SHL AND SHR NOT AND SWAP1 SSTORE DUP12 DUP1 DUP1 PUSH2 0x2C7B JUMP JUMPDEST DUP2 DUP2 ADD MLOAD DUP4 SSTORE PUSH1 0x20 SWAP5 DUP6 ADD SWAP5 PUSH1 0x1 SWAP1 SWAP4 ADD SWAP3 SWAP1 SWAP2 ADD SWAP1 PUSH2 0x2C60 JUMP JUMPDEST PUSH2 0x2CEE SWAP1 PUSH1 0x5 DUP7 ADD PUSH1 0x0 MSTORE PUSH1 0x20 PUSH1 0x0 KECCAK256 PUSH1 0x1F DUP6 ADD PUSH1 0x5 SHR DUP2 ADD SWAP2 PUSH1 0x20 DUP7 LT PUSH2 0x2C22 JUMPI PUSH1 0x1F ADD PUSH1 0x5 SHR ADD SWAP1 PUSH2 0x3995 JUMP JUMPDEST DUP13 PUSH2 0x2A5C JUMP JUMPDEST ADD MLOAD SWAP1 POP DUP12 DUP1 PUSH2 0x2A16 JUMP JUMPDEST SWAP3 POP PUSH1 0x4 DUP5 ADD PUSH1 0x0 MSTORE PUSH1 0x20 PUSH1 0x0 KECCAK256 SWAP1 PUSH1 0x0 SWAP4 JUMPDEST PUSH1 0x1F NOT DUP5 AND DUP6 LT PUSH2 0x2D56 JUMPI PUSH1 0x1 SWAP5 POP DUP4 PUSH1 0x1F NOT DUP2 AND LT PUSH2 0x2D3D JUMPI JUMPDEST POP POP POP DUP2 SHL ADD PUSH1 0x4 DUP3 ADD SSTORE PUSH2 0x2A2E JUMP JUMPDEST ADD MLOAD PUSH1 0x0 NOT PUSH1 0xF8 DUP5 PUSH1 0x3 SHL AND SHR NOT AND SWAP1 SSTORE DUP12 DUP1 DUP1 PUSH2 0x2D2D JUMP JUMPDEST DUP2 DUP2 ADD MLOAD DUP4 SSTORE PUSH1 0x20 SWAP5 DUP6 ADD SWAP5 PUSH1 0x1 SWAP1 SWAP4 ADD SWAP3 SWAP1 SWAP2 ADD SWAP1 PUSH2 0x2D12 JUMP JUMPDEST PUSH2 0x2DA0 SWAP1 PUSH1 0x4 DUP7 ADD PUSH1 0x0 MSTORE PUSH1 0x20 PUSH1 0x0 KECCAK256 PUSH1 0x1F DUP6 ADD PUSH1 0x5 SHR DUP2 ADD SWAP2 PUSH1 0x20 DUP7 LT PUSH2 0x2C22 JUMPI PUSH1 0x1F ADD PUSH1 0x5 SHR ADD SWAP1 PUSH2 0x3995 JUMP JUMPDEST DUP13 PUSH2 0x29FF JUMP JUMPDEST DUP4 DUP1 MLOAD ISZERO PUSH2 0x2E9A JUMPI PUSH1 0x20 DUP2 ADD MLOAD PUSH1 0x0 MSTORE PUSH1 0x7 PUSH1 0x20 MSTORE PUSH1 0x40 PUSH1 0x0 KECCAK256 DUP2 MLOAD SWAP1 PUSH1 0x1 PUSH1 0x1 PUSH1 0x40 SHL SUB DUP3 GT PUSH2 0x2C2C JUMPI PUSH9 0x10000000000000000 DUP3 GT PUSH2 0x2C2C JUMPI DUP1 SLOAD DUP3 DUP3 SSTORE DUP1 DUP4 LT PUSH2 0x2E7C JUMPI JUMPDEST POP PUSH1 0x20 DUP4 ADD SWAP1 PUSH1 0x0 MSTORE PUSH1 0x20 PUSH1 0x0 KECCAK256 PUSH1 0x0 JUMPDEST DUP4 DUP2 LT PUSH2 0x2E68 JUMPI DUP5 PUSH1 0x40 MLOAD PUSH1 0x20 DUP2 ADD PUSH1 0x20 DUP3 MSTORE DUP3 MLOAD DUP1 SWAP2 MSTORE PUSH1 0x20 PUSH1 0x40 DUP4 ADD SWAP4 ADD SWAP1 PUSH1 0x0 JUMPDEST DUP2 DUP2 LT PUSH2 0x2E52 JUMPI PUSH32 0xF6B8CF4789B130B38FE88FBC6DB8BAF8120D8F060232F086490925A25737CE9E DUP5 DUP7 SUB DUP6 LOG1 STOP JUMPDEST DUP3 MLOAD DUP6 MSTORE PUSH1 0x20 SWAP5 DUP6 ADD SWAP5 SWAP1 SWAP3 ADD SWAP2 PUSH1 0x1 ADD PUSH2 0x2E23 JUMP JUMPDEST PUSH1 0x1 SWAP1 PUSH1 0x20 DUP5 MLOAD SWAP5 ADD SWAP4 DUP2 DUP5 ADD SSTORE ADD PUSH2 0x2DFF JUMP JUMPDEST PUSH2 0x2E94 SWAP1 DUP3 PUSH1 0x0 MSTORE DUP4 PUSH1 0x20 PUSH1 0x0 KECCAK256 SWAP2 DUP3 ADD SWAP2 ADD PUSH2 0x3995 JUMP JUMPDEST DUP4 PUSH2 0x2DEE JUMP JUMPDEST PUSH4 0x4E487B71 PUSH1 0xE0 SHL PUSH1 0x0 MSTORE PUSH1 0x32 PUSH1 0x4 MSTORE PUSH1 0x24 PUSH1 0x0 REVERT JUMPDEST PUSH1 0x40 MLOAD PUSH3 0x461BCD PUSH1 0xE5 SHL DUP2 MSTORE PUSH1 0x20 PUSH1 0x4 DUP3 ADD MSTORE PUSH1 0x21 PUSH1 0x24 DUP3 ADD MSTORE PUSH32 0x4174206C65617374206F6E65206F666665722049442069732072657175697265 PUSH1 0x44 DUP3 ADD MSTORE PUSH1 0x19 PUSH1 0xFA SHL PUSH1 0x64 DUP3 ADD MSTORE PUSH1 0x84 SWAP1 REVERT JUMPDEST DUP2 CALLDATALOAD DUP2 MSTORE PUSH1 0x20 SWAP2 DUP3 ADD SWAP2 ADD PUSH2 0x2862 JUMP JUMPDEST CALLVALUE PUSH2 0x362 JUMPI PUSH1 0x20 CALLDATASIZE PUSH1 0x3 NOT ADD SLT PUSH2 0x362 JUMPI PUSH1 0x4 CALLDATALOAD PUSH1 0x0 MSTORE PUSH1 0x3 PUSH1 0x20 MSTORE PUSH1 0x40 PUSH1 0x0 KECCAK256 DUP1 SLOAD PUSH2 0x1EBC PUSH1 0x1 DUP1 PUSH1 0xA0 SHL SUB PUSH1 0x1 DUP5 ADD SLOAD AND SWAP3 PUSH1 0x2 DUP2 ADD SLOAD SWAP1 PUSH1 0x3 DUP2 ADD SLOAD PUSH2 0x2F5A PUSH1 0x4 DUP4 ADD PUSH2 0x343A JUMP JUMPDEST PUSH2 0x2F66 PUSH1 0x5 DUP5 ADD PUSH2 0x343A JUMP JUMPDEST PUSH1 0x6 DUP5 ADD SLOAD PUSH2 0x2F77 PUSH1 0x7 DUP7 ADD PUSH2 0x343A JUMP JUMPDEST SWAP2 PUSH1 0xFF PUSH1 0x8 DUP8 ADD SLOAD AND SWAP4 PUSH1 0x9 DUP8 ADD SLOAD SWAP6 PUSH1 0xB PUSH1 0xA DUP10 ADD SLOAD SWAP9 ADD SLOAD SWAP9 PUSH1 0x40 MLOAD SWAP13 DUP14 SWAP13 DUP14 PUSH2 0x3527 JUMP JUMPDEST CALLVALUE PUSH2 0x362 JUMPI PUSH1 0x20 CALLDATASIZE PUSH1 0x3 NOT ADD SLT PUSH2 0x362 JUMPI PUSH1 0x20 PUSH2 0x1EEA PUSH1 0x4 CALLDATALOAD PUSH2 0x38D0 JUMP JUMPDEST CALLVALUE PUSH2 0x362 JUMPI PUSH1 0x20 DUP1 PUSH1 0x3 NOT CALLDATASIZE ADD SLT PUSH2 0x362 JUMPI PUSH1 0x4 CALLDATALOAD SWAP1 PUSH2 0x2FDA PUSH2 0x3AB7 JUMP JUMPDEST DUP2 ISZERO ISZERO DUP1 PUSH2 0x33A4 JUMPI JUMPDEST PUSH2 0x2FEC SWAP1 PUSH2 0x3685 JUMP JUMPDEST DUP2 PUSH1 0x0 MSTORE PUSH1 0x3 SWAP1 DUP2 DUP2 MSTORE PUSH1 0xFF SWAP2 PUSH1 0x8 SWAP1 DUP4 DUP3 PUSH1 0x40 PUSH1 0x0 KECCAK256 ADD SLOAD AND DUP3 DUP2 LT ISZERO PUSH2 0x591 JUMPI ISZERO DUP1 ISZERO PUSH2 0x3382 JUMPI JUMPDEST ISZERO PUSH2 0x332D JUMPI DUP5 PUSH1 0x0 MSTORE DUP1 DUP4 MSTORE DUP4 DUP3 PUSH1 0x40 PUSH1 0x0 KECCAK256 ADD SLOAD AND DUP3 DUP2 LT ISZERO PUSH2 0x591 JUMPI PUSH1 0x5 EQ PUSH2 0x32CC JUMPI DUP5 PUSH1 0x0 MSTORE DUP1 DUP4 MSTORE DUP4 DUP3 PUSH1 0x40 PUSH1 0x0 KECCAK256 ADD SLOAD AND DUP3 DUP2 LT ISZERO PUSH2 0x591 JUMPI DUP2 PUSH2 0x3060 SWAP2 EQ ISZERO PUSH2 0x36C8 JUMP JUMPDEST PUSH1 0x0 SLOAD PUSH1 0x40 MLOAD PUSH4 0x3EA42DE3 PUSH1 0xE0 SHL DUP2 MSTORE PUSH1 0x1 PUSH1 0x1 PUSH1 0xA0 SHL SUB SWAP6 SWAP2 DUP6 SWAP1 DUP3 SWAP1 PUSH1 0x4 SWAP1 DUP3 SWAP1 DUP11 AND GAS STATICCALL DUP1 ISZERO PUSH2 0x356 JUMPI DUP7 SWAP2 PUSH1 0x0 SWAP2 PUSH2 0x3292 JUMPI JUMPDEST POP PUSH1 0x0 SWAP1 DUP9 DUP3 MSTORE DUP5 DUP8 MSTORE PUSH1 0x24 PUSH1 0x40 DUP4 KECCAK256 SLOAD PUSH1 0x40 MLOAD SWAP10 DUP11 SWAP4 DUP5 SWAP3 PUSH4 0x27DB25F1 PUSH1 0xE1 SHL DUP5 MSTORE PUSH1 0x4 DUP5 ADD MSTORE AND GAS STATICCALL SWAP6 DUP7 ISZERO PUSH2 0x356 JUMPI PUSH1 0x0 SWAP7 PUSH2 0x3260 JUMPI JUMPDEST POP PUSH2 0x30FC SWAP1 DUP8 PUSH1 0x0 MSTORE DUP4 DUP7 MSTORE PUSH1 0x1 SWAP7 DUP2 PUSH1 0x1 PUSH1 0x40 PUSH1 0x0 KECCAK256 ADD SLOAD AND CALLER EQ SWAP2 DUP3 ISZERO PUSH2 0x3254 JUMPI JUMPDEST POP POP PUSH2 0x3873 JUMP JUMPDEST DUP6 PUSH1 0x0 MSTORE DUP2 DUP5 MSTORE PUSH2 0x3115 DUP2 DUP5 PUSH1 0x40 PUSH1 0x0 KECCAK256 ADD SLOAD AND PUSH2 0x3654 JUMP JUMPDEST PUSH1 0x4 PUSH1 0x0 MSTORE DUP5 MSTORE PUSH1 0x40 PUSH1 0x0 KECCAK256 SLOAD AND ISZERO PUSH2 0xBE7 JUMPI DUP5 PUSH1 0x0 MSTORE DUP3 MSTORE PUSH1 0x7 PUSH1 0x40 PUSH1 0x0 KECCAK256 SWAP2 DUP3 ADD SWAP2 PUSH1 0xFF NOT SWAP3 PUSH1 0x4 DUP5 DUP3 SLOAD AND OR SWAP1 SSTORE ADD SWAP2 PUSH1 0x40 MLOAD SWAP4 DUP2 DUP6 MSTORE PUSH1 0x0 SWAP4 DUP1 SLOAD PUSH2 0x315D DUP2 PUSH2 0x33B0 JUMP JUMPDEST SWAP5 DUP6 DUP6 DUP10 ADD MSTORE PUSH1 0x1 DUP3 AND SWAP2 DUP3 PUSH1 0x0 EQ PUSH2 0x320E JUMPI POP POP PUSH1 0x1 EQ PUSH2 0x31B5 JUMPI JUMPDEST DUP7 PUSH32 0xC742381126185889F1ED17E46BCED0266B422CDD0EE6E26D1CCAC51250FF63C6 DUP8 DUP8 SUB DUP9 LOG2 PUSH1 0x1 PUSH1 0x0 DUP1 MLOAD PUSH1 0x20 PUSH2 0x3AE8 DUP4 CODECOPY DUP2 MLOAD SWAP2 MSTORE SSTORE STOP JUMPDEST PUSH1 0x0 SWAP1 DUP2 MSTORE DUP3 DUP2 KECCAK256 SWAP1 SWAP5 POP JUMPDEST DUP4 DUP6 LT PUSH2 0x31FA JUMPI POP POP POP POP DUP2 ADD PUSH1 0x40 ADD DUP2 PUSH32 0xC742381126185889F1ED17E46BCED0266B422CDD0EE6E26D1CCAC51250FF63C6 DUP6 DUP1 PUSH2 0x317A JUMP JUMPDEST DUP1 SLOAD DUP7 DUP7 ADD PUSH1 0x40 ADD MSTORE SWAP4 DUP3 ADD SWAP4 DUP2 ADD PUSH2 0x31C1 JUMP JUMPDEST SWAP2 POP SWAP2 POP DUP7 SWAP6 POP PUSH1 0x40 SWAP4 POP PUSH32 0xC742381126185889F1ED17E46BCED0266B422CDD0EE6E26D1CCAC51250FF63C6 SWAP7 SWAP5 SWAP3 POP AND DUP3 DUP5 ADD MSTORE ISZERO ISZERO PUSH1 0x5 SHL DUP3 ADD ADD SWAP2 SWAP3 DUP6 DUP1 PUSH2 0x317A JUMP JUMPDEST AND CALLER EQ SWAP1 POP DUP9 DUP1 PUSH2 0x30F5 JUMP JUMPDEST PUSH2 0x30FC SWAP2 SWAP7 POP PUSH2 0x327A SWAP1 RETURNDATASIZE DUP1 PUSH1 0x0 DUP4 RETURNDATACOPY PUSH2 0x4F7 DUP2 DUP4 PUSH2 0x3419 JUMP JUMPDEST POP POP POP POP POP POP POP POP POP POP POP POP POP POP POP POP POP SWAP6 SWAP1 PUSH2 0x30D1 JUMP JUMPDEST DUP1 SWAP3 POP DUP7 DUP1 SWAP3 POP RETURNDATASIZE DUP4 GT PUSH2 0x32C5 JUMPI JUMPDEST PUSH2 0x32AB DUP2 DUP4 PUSH2 0x3419 JUMP JUMPDEST DUP2 ADD SUB SLT PUSH2 0x362 JUMPI PUSH1 0x0 PUSH2 0x32BF DUP8 SWAP3 PUSH2 0x3713 JUMP JUMPDEST SWAP1 PUSH2 0x3097 JUMP JUMPDEST POP RETURNDATASIZE PUSH2 0x32A1 JUMP JUMPDEST PUSH1 0x40 MLOAD PUSH3 0x461BCD PUSH1 0xE5 SHL DUP2 MSTORE PUSH1 0x4 DUP2 ADD DUP5 SWAP1 MSTORE PUSH1 0x33 PUSH1 0x24 DUP3 ADD MSTORE PUSH32 0x54726164652063616E6E6F742062652063616E63656C6C656420696620697420 PUSH1 0x44 DUP3 ADD MSTORE PUSH19 0x1A5CC8185B1C9958591E48191A5CDC1D5D1959 PUSH1 0x6A SHL PUSH1 0x64 DUP3 ADD MSTORE PUSH1 0x84 SWAP1 REVERT JUMPDEST PUSH1 0x40 MLOAD PUSH3 0x461BCD PUSH1 0xE5 SHL DUP2 MSTORE PUSH1 0x4 DUP2 ADD DUP5 SWAP1 MSTORE PUSH1 0x27 PUSH1 0x24 DUP3 ADD MSTORE PUSH32 0x54726164652063616E6E6F742062652063616E63656C6C656420617420746869 PUSH1 0x44 DUP3 ADD MSTORE PUSH7 0x73207374616765 PUSH1 0xC8 SHL PUSH1 0x64 DUP3 ADD MSTORE PUSH1 0x84 SWAP1 REVERT JUMPDEST POP DUP5 PUSH1 0x0 MSTORE DUP1 DUP4 MSTORE DUP4 DUP3 PUSH1 0x40 PUSH1 0x0 KECCAK256 ADD SLOAD AND DUP3 DUP2 LT ISZERO PUSH2 0x591 JUMPI PUSH1 0x1 EQ PUSH2 0x3016 JUMP JUMPDEST POP PUSH1 0x2 SLOAD DUP3 GT ISZERO PUSH2 0x2FE3 JUMP JUMPDEST SWAP1 PUSH1 0x1 DUP3 DUP2 SHR SWAP3 AND DUP1 ISZERO PUSH2 0x33E0 JUMPI JUMPDEST PUSH1 0x20 DUP4 LT EQ PUSH2 0x33CA JUMPI JUMP JUMPDEST PUSH4 0x4E487B71 PUSH1 0xE0 SHL PUSH1 0x0 MSTORE PUSH1 0x22 PUSH1 0x4 MSTORE PUSH1 0x24 PUSH1 0x0 REVERT JUMPDEST SWAP2 PUSH1 0x7F AND SWAP2 PUSH2 0x33BF JUMP JUMPDEST PUSH1 0x1 PUSH1 0x1 PUSH1 0x40 SHL SUB DUP2 GT PUSH2 0x2C2C JUMPI PUSH1 0x40 MSTORE JUMP JUMPDEST PUSH2 0x180 DUP2 ADD SWAP1 DUP2 LT PUSH1 0x1 PUSH1 0x1 PUSH1 0x40 SHL SUB DUP3 GT OR PUSH2 0x2C2C JUMPI PUSH1 0x40 MSTORE JUMP JUMPDEST SWAP1 PUSH1 0x1F DUP1 NOT SWAP2 ADD AND DUP2 ADD SWAP1 DUP2 LT PUSH1 0x1 PUSH1 0x1 PUSH1 0x40 SHL SUB DUP3 GT OR PUSH2 0x2C2C JUMPI PUSH1 0x40 MSTORE JUMP JUMPDEST SWAP1 PUSH1 0x40 MLOAD SWAP2 DUP3 PUSH1 0x0 DUP3 SLOAD PUSH2 0x344D DUP2 PUSH2 0x33B0 JUMP JUMPDEST SWAP1 DUP2 DUP5 MSTORE PUSH1 0x20 SWAP5 PUSH1 0x1 SWAP2 PUSH1 0x1 DUP2 AND SWAP1 DUP2 PUSH1 0x0 EQ PUSH2 0x34BD JUMPI POP PUSH1 0x1 EQ PUSH2 0x347E JUMPI JUMPDEST POP POP POP PUSH2 0x347C SWAP3 POP SUB DUP4 PUSH2 0x3419 JUMP JUMPDEST JUMP JUMPDEST PUSH1 0x0 SWAP1 DUP2 MSTORE DUP6 DUP2 KECCAK256 SWAP6 SWAP4 POP SWAP2 SWAP1 JUMPDEST DUP2 DUP4 LT PUSH2 0x34A5 JUMPI POP POP PUSH2 0x347C SWAP4 POP DUP3 ADD ADD CODESIZE DUP1 DUP1 PUSH2 0x346D JUMP JUMPDEST DUP6 SLOAD DUP9 DUP5 ADD DUP6 ADD MSTORE SWAP5 DUP6 ADD SWAP5 DUP8 SWAP5 POP SWAP2 DUP4 ADD SWAP2 PUSH2 0x348C JUMP JUMPDEST SWAP3 POP POP POP PUSH2 0x347C SWAP5 SWAP3 POP PUSH1 0xFF NOT AND DUP3 DUP5 ADD MSTORE ISZERO ISZERO PUSH1 0x5 SHL DUP3 ADD ADD CODESIZE DUP1 DUP1 PUSH2 0x346D JUMP JUMPDEST PUSH1 0x0 JUMPDEST DUP4 DUP2 LT PUSH2 0x34F2 JUMPI POP POP PUSH1 0x0 SWAP2 ADD MSTORE JUMP JUMPDEST DUP2 DUP2 ADD MLOAD DUP4 DUP3 ADD MSTORE PUSH1 0x20 ADD PUSH2 0x34E2 JUMP JUMPDEST SWAP1 PUSH1 0x20 SWAP2 PUSH2 0x351B DUP2 MLOAD DUP1 SWAP3 DUP2 DUP6 MSTORE DUP6 DUP1 DUP7 ADD SWAP2 ADD PUSH2 0x34DF JUMP JUMPDEST PUSH1 0x1F ADD PUSH1 0x1F NOT AND ADD ADD SWAP1 JUMP JUMPDEST SWAP9 SWAP10 SWAP13 SWAP12 SWAP11 SWAP8 SWAP5 SWAP1 PUSH2 0x3576 SWAP5 PUSH2 0x3589 SWAP9 SWAP8 SWAP5 PUSH2 0x3568 SWAP5 PUSH2 0x180 SWAP4 DUP14 MSTORE PUSH1 0x1 DUP1 PUSH1 0xA0 SHL SUB AND PUSH1 0x20 DUP14 ADD MSTORE PUSH1 0x40 DUP13 ADD MSTORE PUSH1 0x60 DUP12 ADD MSTORE DUP1 PUSH1 0x80 DUP12 ADD MSTORE DUP10 ADD SWAP1 PUSH2 0x3502 JUMP JUMPDEST SWAP1 DUP8 DUP3 SUB PUSH1 0xA0 DUP10 ADD MSTORE PUSH2 0x3502 JUMP JUMPDEST SWAP2 PUSH1 0xC0 DUP7 ADD MSTORE DUP5 DUP3 SUB PUSH1 0xE0 DUP7 ADD MSTORE PUSH2 0x3502 JUMP JUMPDEST SWAP6 PUSH1 0x8 DUP5 LT ISZERO PUSH2 0x591 JUMPI PUSH2 0x160 SWAP4 PUSH2 0x100 DUP5 ADD MSTORE PUSH2 0x120 DUP4 ADD MSTORE PUSH2 0x140 DUP3 ADD MSTORE ADD MSTORE JUMP JUMPDEST PUSH1 0x1 PUSH1 0x1 PUSH1 0x40 SHL SUB DUP2 GT PUSH2 0x2C2C JUMPI PUSH1 0x5 SHL PUSH1 0x20 ADD SWAP1 JUMP JUMPDEST PUSH1 0x1 PUSH1 0x1 PUSH1 0x40 SHL SUB DUP2 GT PUSH2 0x2C2C JUMPI PUSH1 0x1F ADD PUSH1 0x1F NOT AND PUSH1 0x20 ADD SWAP1 JUMP JUMPDEST DUP2 PUSH1 0x1F DUP3 ADD SLT ISZERO PUSH2 0x362 JUMPI DUP1 CALLDATALOAD SWAP1 PUSH2 0x35F6 DUP3 PUSH2 0x35C4 JUMP JUMPDEST SWAP3 PUSH2 0x3604 PUSH1 0x40 MLOAD SWAP5 DUP6 PUSH2 0x3419 JUMP JUMPDEST DUP3 DUP5 MSTORE PUSH1 0x20 DUP4 DUP4 ADD ADD GT PUSH2 0x362 JUMPI DUP2 PUSH1 0x0 SWAP3 PUSH1 0x20 DUP1 SWAP4 ADD DUP4 DUP7 ADD CALLDATACOPY DUP4 ADD ADD MSTORE SWAP1 JUMP JUMPDEST PUSH1 0x4 CALLDATALOAD SWAP1 PUSH1 0x1 PUSH1 0x1 PUSH1 0xA0 SHL SUB DUP3 AND DUP3 SUB PUSH2 0x362 JUMPI JUMP JUMPDEST DUP1 SLOAD DUP3 LT ISZERO PUSH2 0x2E9A JUMPI PUSH1 0x0 MSTORE PUSH1 0x20 PUSH1 0x0 KECCAK256 ADD SWAP1 PUSH1 0x0 SWAP1 JUMP JUMPDEST PUSH1 0x8 DUP2 LT ISZERO PUSH2 0x591 JUMPI PUSH1 0x0 MSTORE PUSH1 0x4 PUSH1 0x20 MSTORE PUSH1 0x40 PUSH1 0x0 KECCAK256 SWAP1 JUMP JUMPDEST SWAP1 PUSH1 0x8 DUP2 LT ISZERO PUSH2 0x591 JUMPI PUSH1 0x0 MSTORE PUSH1 0x20 MSTORE PUSH1 0x40 PUSH1 0x0 KECCAK256 SWAP1 JUMP JUMPDEST ISZERO PUSH2 0x368C JUMPI JUMP JUMPDEST PUSH1 0x40 MLOAD PUSH3 0x461BCD PUSH1 0xE5 SHL DUP2 MSTORE PUSH1 0x20 PUSH1 0x4 DUP3 ADD MSTORE PUSH1 0x14 PUSH1 0x24 DUP3 ADD MSTORE PUSH20 0x151C98591948191BD95CC81B9BDD08195E1A5CDD PUSH1 0x62 SHL PUSH1 0x44 DUP3 ADD MSTORE PUSH1 0x64 SWAP1 REVERT JUMPDEST ISZERO PUSH2 0x36CF JUMPI JUMP JUMPDEST PUSH1 0x64 PUSH1 0x40 MLOAD PUSH3 0x461BCD PUSH1 0xE5 SHL DUP2 MSTORE PUSH1 0x20 PUSH1 0x4 DUP3 ADD MSTORE PUSH1 0x20 PUSH1 0x24 DUP3 ADD MSTORE PUSH32 0x54726164652068617320616C7265616479206265656E2066696E616C697A6564 PUSH1 0x44 DUP3 ADD MSTORE REVERT JUMPDEST MLOAD SWAP1 PUSH1 0x1 PUSH1 0x1 PUSH1 0xA0 SHL SUB DUP3 AND DUP3 SUB PUSH2 0x362 JUMPI JUMP JUMPDEST DUP2 PUSH1 0x1F DUP3 ADD SLT ISZERO PUSH2 0x362 JUMPI DUP1 MLOAD PUSH2 0x373D DUP2 PUSH2 0x35C4 JUMP JUMPDEST SWAP3 PUSH2 0x374B PUSH1 0x40 MLOAD SWAP5 DUP6 PUSH2 0x3419 JUMP JUMPDEST DUP2 DUP5 MSTORE PUSH1 0x20 DUP3 DUP5 ADD ADD GT PUSH2 0x362 JUMPI PUSH2 0x3769 SWAP2 PUSH1 0x20 DUP1 DUP6 ADD SWAP2 ADD PUSH2 0x34DF JUMP JUMPDEST SWAP1 JUMP JUMPDEST MLOAD SWAP1 DUP2 ISZERO ISZERO DUP3 SUB PUSH2 0x362 JUMPI JUMP JUMPDEST SWAP1 PUSH2 0x240 DUP3 DUP3 SUB SLT PUSH2 0x362 JUMPI PUSH2 0x378E DUP3 PUSH2 0x3713 JUMP JUMPDEST SWAP3 PUSH1 0x20 DUP4 ADD MLOAD SWAP3 PUSH1 0x40 DUP2 ADD MLOAD SWAP3 PUSH1 0x60 DUP3 ADD MLOAD SWAP3 PUSH1 0x80 DUP4 ADD MLOAD SWAP3 PUSH1 0xA0 DUP2 ADD MLOAD SWAP3 PUSH1 0xC0 DUP3 ADD MLOAD SWAP3 PUSH1 0xE0 DUP4 ADD MLOAD SWAP3 PUSH2 0x100 DUP2 ADD MLOAD SWAP3 PUSH1 0x1 PUSH1 0x1 PUSH1 0x40 SHL SUB SWAP4 DUP5 DUP2 GT PUSH2 0x362 JUMPI DUP2 PUSH2 0x37DC SWAP2 DUP5 ADD PUSH2 0x3727 JUMP JUMPDEST SWAP4 PUSH2 0x37EA PUSH2 0x120 DUP5 ADD PUSH2 0x376C JUMP JUMPDEST SWAP4 PUSH2 0x140 DUP5 ADD MLOAD SWAP4 PUSH2 0x160 DUP2 ADD MLOAD SWAP4 PUSH2 0x3806 PUSH2 0x180 DUP4 ADD PUSH2 0x376C JUMP JUMPDEST SWAP4 PUSH2 0x1A0 DUP4 ADD MLOAD DUP2 DUP2 GT PUSH2 0x362 JUMPI DUP3 PUSH2 0x3820 SWAP2 DUP6 ADD PUSH2 0x3727 JUMP JUMPDEST SWAP4 PUSH2 0x1C0 DUP5 ADD MLOAD DUP3 DUP2 GT PUSH2 0x362 JUMPI DUP4 PUSH2 0x383A SWAP2 DUP7 ADD PUSH2 0x3727 JUMP JUMPDEST SWAP4 PUSH2 0x1E0 DUP2 ADD MLOAD DUP4 DUP2 GT PUSH2 0x362 JUMPI DUP5 PUSH2 0x3854 SWAP2 DUP4 ADD PUSH2 0x3727 JUMP JUMPDEST SWAP4 PUSH2 0x200 DUP3 ADD MLOAD SWAP4 PUSH2 0x220 DUP4 ADD MLOAD SWAP1 DUP2 GT PUSH2 0x362 JUMPI PUSH2 0x3769 SWAP3 ADD PUSH2 0x3727 JUMP JUMPDEST ISZERO PUSH2 0x387A JUMPI JUMP JUMPDEST PUSH1 0x40 MLOAD PUSH3 0x461BCD PUSH1 0xE5 SHL DUP2 MSTORE PUSH1 0x20 PUSH1 0x4 DUP3 ADD MSTORE PUSH1 0x28 PUSH1 0x24 DUP3 ADD MSTORE PUSH32 0x4F6E6C7920747261646520706172746965732063616E20646973707574652074 PUSH1 0x44 DUP3 ADD MSTORE PUSH8 0x6865207472616465 PUSH1 0xC0 SHL PUSH1 0x64 DUP3 ADD MSTORE PUSH1 0x84 SWAP1 REVERT JUMPDEST PUSH1 0x0 SWAP1 DUP1 PUSH1 0x0 MSTORE PUSH1 0x7 PUSH1 0x20 MSTORE PUSH1 0x40 PUSH1 0x0 KECCAK256 SWAP1 DUP2 SLOAD SWAP2 PUSH1 0x1 SWAP4 PUSH1 0x1 DUP5 GT PUSH2 0x38FB JUMPI JUMPDEST POP POP POP POP POP PUSH1 0x0 SWAP1 JUMP JUMPDEST PUSH1 0x1 JUMPDEST DUP5 DUP2 LT PUSH2 0x390B JUMPI POP PUSH2 0x38F1 JUMP JUMPDEST DUP4 PUSH2 0x3916 DUP3 DUP6 PUSH2 0x363C JUMP JUMPDEST SWAP2 SWAP1 SLOAD PUSH1 0x3 SWAP3 DUP4 SHL SHR EQ PUSH2 0x392C JUMPI POP DUP6 ADD PUSH2 0x38FE JUMP JUMPDEST SWAP6 POP PUSH1 0x0 NOT DUP2 ADD SWAP5 POP SWAP2 SWAP3 POP SWAP1 DUP4 GT PUSH2 0x3952 JUMPI POP SWAP1 PUSH2 0x394A SWAP2 PUSH2 0x363C JUMP JUMPDEST SWAP1 SLOAD SWAP2 SHL SHR SWAP1 JUMP JUMPDEST PUSH4 0x4E487B71 PUSH1 0xE0 SHL DUP2 MSTORE PUSH1 0x11 PUSH1 0x4 MSTORE PUSH1 0x24 SWAP1 REVERT JUMPDEST DUP1 MLOAD DUP3 LT ISZERO PUSH2 0x2E9A JUMPI PUSH1 0x20 SWAP2 PUSH1 0x5 SHL ADD ADD SWAP1 JUMP JUMPDEST PUSH1 0x0 NOT DUP2 EQ PUSH2 0x88C JUMPI PUSH1 0x1 ADD SWAP1 JUMP JUMPDEST PUSH1 0x8 DUP3 LT ISZERO PUSH2 0x591 JUMPI MSTORE JUMP JUMPDEST DUP2 DUP2 LT PUSH2 0x39A0 JUMPI POP POP JUMP JUMPDEST PUSH1 0x0 DUP2 SSTORE PUSH1 0x1 ADD PUSH2 0x3995 JUMP JUMPDEST SWAP1 PUSH1 0x8 DUP2 LT ISZERO PUSH2 0x591 JUMPI PUSH1 0xFF DUP1 NOT DUP4 SLOAD AND SWAP2 AND OR SWAP1 SSTORE JUMP JUMPDEST ISZERO PUSH2 0x39CB JUMPI JUMP JUMPDEST PUSH1 0x40 MLOAD PUSH3 0x461BCD PUSH1 0xE5 SHL DUP2 MSTORE PUSH1 0x20 PUSH1 0x4 DUP3 ADD MSTORE PUSH1 0x1F PUSH1 0x24 DUP3 ADD MSTORE PUSH32 0x5472616465206973206E6F7420696E2061636365707465642073746174757300 PUSH1 0x44 DUP3 ADD MSTORE PUSH1 0x64 SWAP1 REVERT JUMPDEST PUSH1 0x0 SWAP1 DUP1 DUP3 MSTORE PUSH1 0x7 PUSH1 0x20 MSTORE PUSH1 0x40 DUP3 KECCAK256 SWAP1 DUP2 SLOAD SWAP1 PUSH1 0x1 SWAP3 PUSH1 0x1 DUP4 GT PUSH2 0x3A36 JUMPI JUMPDEST POP POP POP POP SWAP1 JUMP JUMPDEST DUP5 SWAP4 SWAP3 PUSH1 0x0 NOT DUP2 ADD SWAP1 DUP2 GT DUP5 JUMPDEST PUSH2 0x3A52 JUMPI JUMPDEST POP POP DUP4 SWAP5 POP PUSH2 0x3A2F JUMP JUMPDEST DUP1 PUSH2 0x3AA3 JUMPI DUP2 DUP8 LT ISZERO PUSH2 0x3A9E JUMPI DUP4 PUSH2 0x3A6A DUP9 DUP6 PUSH2 0x363C JUMP JUMPDEST SWAP2 SWAP1 SLOAD PUSH1 0x3 SWAP3 DUP4 SHL SHR EQ PUSH2 0x3A83 JUMPI POP SWAP6 DUP5 ADD SWAP6 DUP5 PUSH2 0x3A43 JUMP JUMPDEST SWAP7 SWAP6 SWAP4 POP POP POP SWAP2 DUP4 ADD DUP1 SWAP4 GT PUSH2 0x3952 JUMPI POP SWAP1 PUSH2 0x394A SWAP2 PUSH2 0x363C JUMP JUMPDEST PUSH2 0x3A48 JUMP JUMPDEST PUSH4 0x4E487B71 PUSH1 0xE0 SHL DUP7 MSTORE PUSH1 0x11 PUSH1 0x4 MSTORE PUSH1 0x24 DUP7 REVERT JUMPDEST PUSH1 0x0 DUP1 MLOAD PUSH1 0x20 PUSH2 0x3AE8 DUP4 CODECOPY DUP2 MLOAD SWAP2 MSTORE PUSH1 0x2 DUP2 SLOAD EQ PUSH2 0x3AD5 JUMPI PUSH1 0x2 SWAP1 SSTORE JUMP JUMPDEST PUSH1 0x40 MLOAD PUSH4 0x3EE5AEB5 PUSH1 0xE0 SHL DUP2 MSTORE PUSH1 0x4 SWAP1 REVERT INVALID SWAP12 PUSH24 0x9B17422D0DF92223018B32B4D1FA46E071723D6817E2486D STOP EXTCODESIZE 0xEC 0xC5 PUSH0 STOP LOG2 PUSH5 0x6970667358 0x22 SLT KECCAK256 LOG3 SMOD SLT 0xCC PUSH15 0x7EC18E78933CD55353779DB89ED81B LT 0xD4 RETURNDATASIZE 0xDC PUSH25 0x14F320637107B864736F6C6343000818003300000000000000 "},"methodIdentifiers":{"acceptTrade(uint256)":"ecb9fec3","admins(address)":"429b62e5","cancelTrade(uint256)":"09ec6cc7","disputeTrade(uint256)":"8ba9f708","finalizeTrade(uint256)":"d58c71a5","getNextTradeInSequence(uint256)":"5741f734","getPreviousTradeInSequence(uint256)":"12ea634c","getTradeCounts()":"ded0bfbf","getTradeDetails(uint256)":"695730a5","getTradeMaker(uint256)":"5395db68","initiateTrade(uint256[],uint256,uint256,string,string,uint256,string)":"40ebdad6","lockCryptoInEscrow(uint256)":"491719e5","owner()":"8da5cb5b","rateTrade(uint256,uint256,string)":"8a2829e7","refundTrade(uint256)":"b4195c47","registry()":"7b103999","setAdmin(address,bool)":"4b0bddd2","setInitialAdmins(address[])":"92479507","timeoutTrade(uint256)":"d684d5b1","tradeCount()":"bd55022a","tradeMarkFiatPaid(uint256)":"419f778a","tradeRatings(uint256,address)":"5046fddd","tradeSequence(uint256,uint256)":"7f002e81","trades(uint256)":"1e6c598e","updateTradeStatusFromArbitration(uint256,uint8)":"88a2976e","validTransitions(uint8,uint8)":"a5350ea6"}}}}}