{"contracts/ContractRegistry.sol":{"ContractRegistry":{"abi":[{"inputs":[{"internalType":"address","name":"_accountAddress","type":"address"},{"internalType":"address","name":"_offerAddress","type":"address"},{"internalType":"address","name":"_tradeAddress","type":"address"},{"internalType":"address","name":"_escrowAddress","type":"address"},{"internalType":"address","name":"_ratingAddress","type":"address"},{"internalType":"address","name":"_reputationAddress","type":"address"},{"internalType":"address","name":"_arbitrationAddress","type":"address"}],"stateMutability":"nonpayable","type":"constructor"},{"anonymous":false,"inputs":[{"indexed":false,"internalType":"string","name":"contractName","type":"string"},{"indexed":false,"internalType":"address","name":"newAddress","type":"address"}],"name":"ContractAddressUpdated","type":"event"},{"inputs":[],"name":"accountAddress","outputs":[{"internalType":"address","name":"","type":"address"}],"stateMutability":"view","type":"function"},{"inputs":[],"name":"arbitrationAddress","outputs":[{"internalType":"address","name":"","type":"address"}],"stateMutability":"view","type":"function"},{"inputs":[],"name":"escrowAddress","outputs":[{"internalType":"address","name":"","type":"address"}],"stateMutability":"view","type":"function"},{"inputs":[],"name":"offerAddress","outputs":[{"internalType":"address","name":"","type":"address"}],"stateMutability":"view","type":"function"},{"inputs":[],"name":"owner","outputs":[{"internalType":"address","name":"","type":"address"}],"stateMutability":"view","type":"function"},{"inputs":[],"name":"ratingAddress","outputs":[{"internalType":"address","name":"","type":"address"}],"stateMutability":"view","type":"function"},{"inputs":[],"name":"reputationAddress","outputs":[{"internalType":"address","name":"","type":"address"}],"stateMutability":"view","type":"function"},{"inputs":[],"name":"tradeAddress","outputs":[{"internalType":"address","name":"","type":"address"}],"stateMutability":"view","type":"function"},{"inputs":[{"internalType":"address","name":"_accountAddress","type":"address"},{"internalType":"address","name":"_offerAddress","type":"address"},{"internalType":"address","name":"_tradeAddress","type":"address"},{"internalType":"address","name":"_escrowAddress","type":"address"},{"internalType":"address","name":"_ratingAddress","type":"address"},{"internalType":"address","name":"_reputationAddress","type":"address"},{"internalType":"address","name":"_arbitrationAddress","type":"address"}],"name":"updateAddresses","outputs":[],"stateMutability":"nonpayable","type":"function"},{"inputs":[{"internalType":"address","name":"_offerAddress","type":"address"}],"name":"updateOfferAddress","outputs":[],"stateMutability":"nonpayable","type":"function"}],"evm":{"bytecode":{"linkReferences":{},"object":"60803461010c57601f61069138819003918201601f19168301916001600160401b038311848410176101115780849260e09460405283398101031261010c5761004781610127565b9061005460208201610127565b61006060408301610127565b61006c60608401610127565b9261007960808201610127565b9261009260c061008b60a08501610127565b9301610127565b9360018060a01b0319963388600754161760075560018060a01b0396878096818096818096168d6000541617600055168b60015416176001551689600254161760025516876003541617600355168560045416176004551683600554161760055516906006541617600655604051610555908161013c8239f35b600080fd5b634e487b7160e01b600052604160045260246000fd5b51906001600160a01b038216820361010c5756fe608080604052600436101561001357600080fd5b600090813560e01c9081630d5defa41461047b575080631e9b1312146104545780633ea42de31461042b57806349daca7a1461040257806370505653146103d95780637b318154146103b05780638c200c4f146101765780638da5cb5b1461014d5780639b272e75146100ba5763e8c28ce31461008f57600080fd5b346100b757806003193601126100b7576005546040516001600160a01b039091168152602090f35b80fd5b50346100b75760203660031901126100b7576100d46104a0565b6007546001600160a01b0391906100ee90831633146104bb565b168015610110576bffffffffffffffffffffffff60a01b600154161760015580f35b60405162461bcd60e51b8152602060048201526015602482015274496e76616c6964204f66666572206164647265737360581b6044820152606490fd5b50346100b757806003193601126100b7576007546040516001600160a01b039091168152602090f35b50346100b75760e03660031901126100b7576101906104a0565b6001600160a01b03602435818116908190036103ac57604435918083168093036103a857606435938185168095036103a457608435948286168096036103a05760a43583811680910361039c578760c43595858716870361039857887fa42de6429c1410f4470a8ff5afeeae27c734519ac1693e8eb58798a81715c9476080868282809d829f828f998f869f839f8f9e899f93869f8b98958996838a9761023c826007541633146104bb565b16956bffffffffffffffffffffffff60a01b958787825416179055898660015416176001558c86600254161760025585600354161760035584600454161760045583600554161760055516906006541617600655604051906040825260076040830152661058d8dbdd5b9d60ca1b60608301526020820152a16040519060408252600560408301526427b33332b960d91b60608301526020820152a160405190604082526005604083015264547261646560d81b60608301526020820152a160405190604082526006604083015265457363726f7760d01b60608301526020820152a160405190604082526006604083015265526174696e6760d01b60608301526020820152a16040519060408252600a6040830152692932b83aba30ba34b7b760b11b60608301526020820152a16040519160408352600b60408401526a20b93134ba3930ba34b7b760a91b6060840152166020820152a180f35b5080fd5b8780fd5b8680fd5b8580fd5b8480fd5b8380fd5b50346100b757806003193601126100b7576004546040516001600160a01b039091168152602090f35b50346100b757806003193601126100b7576006546040516001600160a01b039091168152602090f35b50346100b757806003193601126100b7576002546040516001600160a01b039091168152602090f35b50346100b757806003193601126100b7576001546040516001600160a01b039091168152602090f35b50346100b757806003193601126100b757546040516001600160a01b039091168152602090f35b9050346103985781600319360112610398576003546001600160a01b03168152602090f35b600435906001600160a01b03821682036104b657565b600080fd5b156104c257565b60405162461bcd60e51b815260206004820152602f60248201527f4f6e6c792074686520636f6e7472616374206f776e65722063616e207065726660448201526e37b936903a3434b99030b1ba34b7b760891b6064820152608490fdfea26469706673582212206b1f822136fbd6d4eb4bb1ad80ceab8682b606d56f2c9e6d6bf25221fa147b5464736f6c63430008180033","opcodes":"PUSH1 0x80 CALLVALUE PUSH2 0x10C JUMPI PUSH1 0x1F PUSH2 0x691 CODESIZE DUP2 SWAP1 SUB SWAP2 DUP3 ADD PUSH1 0x1F NOT AND DUP4 ADD SWAP2 PUSH1 0x1 PUSH1 0x1 PUSH1 0x40 SHL SUB DUP4 GT DUP5 DUP5 LT OR PUSH2 0x111 JUMPI DUP1 DUP5 SWAP3 PUSH1 0xE0 SWAP5 PUSH1 0x40 MSTORE DUP4 CODECOPY DUP2 ADD SUB SLT PUSH2 0x10C JUMPI PUSH2 0x47 DUP2 PUSH2 0x127 JUMP JUMPDEST SWAP1 PUSH2 0x54 PUSH1 0x20 DUP3 ADD PUSH2 0x127 JUMP JUMPDEST PUSH2 0x60 PUSH1 0x40 DUP4 ADD PUSH2 0x127 JUMP JUMPDEST PUSH2 0x6C PUSH1 0x60 DUP5 ADD PUSH2 0x127 JUMP JUMPDEST SWAP3 PUSH2 0x79 PUSH1 0x80 DUP3 ADD PUSH2 0x127 JUMP JUMPDEST SWAP3 PUSH2 0x92 PUSH1 0xC0 PUSH2 0x8B PUSH1 0xA0 DUP6 ADD PUSH2 0x127 JUMP JUMPDEST SWAP4 ADD PUSH2 0x127 JUMP JUMPDEST SWAP4 PUSH1 0x1 DUP1 PUSH1 0xA0 SHL SUB NOT SWAP7 CALLER DUP9 PUSH1 0x7 SLOAD AND OR PUSH1 0x7 SSTORE PUSH1 0x1 DUP1 PUSH1 0xA0 SHL SUB SWAP7 DUP8 DUP1 SWAP7 DUP2 DUP1 SWAP7 DUP2 DUP1 SWAP7 AND DUP14 PUSH1 0x0 SLOAD AND OR PUSH1 0x0 SSTORE AND DUP12 PUSH1 0x1 SLOAD AND OR PUSH1 0x1 SSTORE AND DUP10 PUSH1 0x2 SLOAD AND OR PUSH1 0x2 SSTORE AND DUP8 PUSH1 0x3 SLOAD AND OR PUSH1 0x3 SSTORE AND DUP6 PUSH1 0x4 SLOAD AND OR PUSH1 0x4 SSTORE AND DUP4 PUSH1 0x5 SLOAD AND OR PUSH1 0x5 SSTORE AND SWAP1 PUSH1 0x6 SLOAD AND OR PUSH1 0x6 SSTORE PUSH1 0x40 MLOAD PUSH2 0x555 SWAP1 DUP2 PUSH2 0x13C DUP3 CODECOPY RETURN JUMPDEST PUSH1 0x0 DUP1 REVERT JUMPDEST PUSH4 0x4E487B71 PUSH1 0xE0 SHL PUSH1 0x0 MSTORE PUSH1 0x41 PUSH1 0x4 MSTORE PUSH1 0x24 PUSH1 0x0 REVERT JUMPDEST MLOAD SWAP1 PUSH1 0x1 PUSH1 0x1 PUSH1 0xA0 SHL SUB DUP3 AND DUP3 SUB PUSH2 0x10C JUMPI JUMP INVALID PUSH1 0x80 DUP1 PUSH1 0x40 MSTORE PUSH1 0x4 CALLDATASIZE LT ISZERO PUSH2 0x13 JUMPI PUSH1 0x0 DUP1 REVERT JUMPDEST PUSH1 0x0 SWAP1 DUP2 CALLDATALOAD PUSH1 0xE0 SHR SWAP1 DUP2 PUSH4 0xD5DEFA4 EQ PUSH2 0x47B JUMPI POP DUP1 PUSH4 0x1E9B1312 EQ PUSH2 0x454 JUMPI DUP1 PUSH4 0x3EA42DE3 EQ PUSH2 0x42B JUMPI DUP1 PUSH4 0x49DACA7A EQ PUSH2 0x402 JUMPI DUP1 PUSH4 0x70505653 EQ PUSH2 0x3D9 JUMPI DUP1 PUSH4 0x7B318154 EQ PUSH2 0x3B0 JUMPI DUP1 PUSH4 0x8C200C4F EQ PUSH2 0x176 JUMPI DUP1 PUSH4 0x8DA5CB5B EQ PUSH2 0x14D JUMPI DUP1 PUSH4 0x9B272E75 EQ PUSH2 0xBA JUMPI PUSH4 0xE8C28CE3 EQ PUSH2 0x8F JUMPI PUSH1 0x0 DUP1 REVERT JUMPDEST CALLVALUE PUSH2 0xB7 JUMPI DUP1 PUSH1 0x3 NOT CALLDATASIZE ADD SLT PUSH2 0xB7 JUMPI PUSH1 0x5 SLOAD PUSH1 0x40 MLOAD PUSH1 0x1 PUSH1 0x1 PUSH1 0xA0 SHL SUB SWAP1 SWAP2 AND DUP2 MSTORE PUSH1 0x20 SWAP1 RETURN JUMPDEST DUP1 REVERT JUMPDEST POP CALLVALUE PUSH2 0xB7 JUMPI PUSH1 0x20 CALLDATASIZE PUSH1 0x3 NOT ADD SLT PUSH2 0xB7 JUMPI PUSH2 0xD4 PUSH2 0x4A0 JUMP JUMPDEST PUSH1 0x7 SLOAD PUSH1 0x1 PUSH1 0x1 PUSH1 0xA0 SHL SUB SWAP2 SWAP1 PUSH2 0xEE SWAP1 DUP4 AND CALLER EQ PUSH2 0x4BB JUMP JUMPDEST AND DUP1 ISZERO PUSH2 0x110 JUMPI PUSH12 0xFFFFFFFFFFFFFFFFFFFFFFFF PUSH1 0xA0 SHL PUSH1 0x1 SLOAD AND OR PUSH1 0x1 SSTORE DUP1 RETURN JUMPDEST PUSH1 0x40 MLOAD PUSH3 0x461BCD PUSH1 0xE5 SHL DUP2 MSTORE PUSH1 0x20 PUSH1 0x4 DUP3 ADD MSTORE PUSH1 0x15 PUSH1 0x24 DUP3 ADD MSTORE PUSH21 0x496E76616C6964204F666665722061646472657373 PUSH1 0x58 SHL PUSH1 0x44 DUP3 ADD MSTORE PUSH1 0x64 SWAP1 REVERT JUMPDEST POP CALLVALUE PUSH2 0xB7 JUMPI DUP1 PUSH1 0x3 NOT CALLDATASIZE ADD SLT PUSH2 0xB7 JUMPI PUSH1 0x7 SLOAD PUSH1 0x40 MLOAD PUSH1 0x1 PUSH1 0x1 PUSH1 0xA0 SHL SUB SWAP1 SWAP2 AND DUP2 MSTORE PUSH1 0x20 SWAP1 RETURN JUMPDEST POP CALLVALUE PUSH2 0xB7 JUMPI PUSH1 0xE0 CALLDATASIZE PUSH1 0x3 NOT ADD SLT PUSH2 0xB7 JUMPI PUSH2 0x190 PUSH2 0x4A0 JUMP JUMPDEST PUSH1 0x1 PUSH1 0x1 PUSH1 0xA0 SHL SUB PUSH1 0x24 CALLDATALOAD DUP2 DUP2 AND SWAP1 DUP2 SWAP1 SUB PUSH2 0x3AC JUMPI PUSH1 0x44 CALLDATALOAD SWAP2 DUP1 DUP4 AND DUP1 SWAP4 SUB PUSH2 0x3A8 JUMPI PUSH1 0x64 CALLDATALOAD SWAP4 DUP2 DUP6 AND DUP1 SWAP6 SUB PUSH2 0x3A4 JUMPI PUSH1 0x84 CALLDATALOAD SWAP5 DUP3 DUP7 AND DUP1 SWAP7 SUB PUSH2 0x3A0 JUMPI PUSH1 0xA4 CALLDATALOAD DUP4 DUP2 AND DUP1 SWAP2 SUB PUSH2 0x39C JUMPI DUP8 PUSH1 0xC4 CALLDATALOAD SWAP6 DUP6 DUP8 AND DUP8 SUB PUSH2 0x398 JUMPI DUP9 PUSH32 0xA42DE6429C1410F4470A8FF5AFEEAE27C734519AC1693E8EB58798A81715C947 PUSH1 0x80 DUP7 DUP3 DUP3 DUP1 SWAP14 DUP3 SWAP16 DUP3 DUP16 SWAP10 DUP16 DUP7 SWAP16 DUP4 SWAP16 DUP16 SWAP15 DUP10 SWAP16 SWAP4 DUP7 SWAP16 DUP12 SWAP9 SWAP6 DUP10 SWAP7 DUP4 DUP11 SWAP8 PUSH2 0x23C DUP3 PUSH1 0x7 SLOAD AND CALLER EQ PUSH2 0x4BB JUMP JUMPDEST AND SWAP6 PUSH12 0xFFFFFFFFFFFFFFFFFFFFFFFF PUSH1 0xA0 SHL SWAP6 DUP8 DUP8 DUP3 SLOAD AND OR SWAP1 SSTORE DUP10 DUP7 PUSH1 0x1 SLOAD AND OR PUSH1 0x1 SSTORE DUP13 DUP7 PUSH1 0x2 SLOAD AND OR PUSH1 0x2 SSTORE DUP6 PUSH1 0x3 SLOAD AND OR PUSH1 0x3 SSTORE DUP5 PUSH1 0x4 SLOAD AND OR PUSH1 0x4 SSTORE DUP4 PUSH1 0x5 SLOAD AND OR PUSH1 0x5 SSTORE AND SWAP1 PUSH1 0x6 SLOAD AND OR PUSH1 0x6 SSTORE PUSH1 0x40 MLOAD SWAP1 PUSH1 0x40 DUP3 MSTORE PUSH1 0x7 PUSH1 0x40 DUP4 ADD MSTORE PUSH7 0x1058D8DBDD5B9D PUSH1 0xCA SHL PUSH1 0x60 DUP4 ADD MSTORE PUSH1 0x20 DUP3 ADD MSTORE LOG1 PUSH1 0x40 MLOAD SWAP1 PUSH1 0x40 DUP3 MSTORE PUSH1 0x5 PUSH1 0x40 DUP4 ADD MSTORE PUSH5 0x27B33332B9 PUSH1 0xD9 SHL PUSH1 0x60 DUP4 ADD MSTORE PUSH1 0x20 DUP3 ADD MSTORE LOG1 PUSH1 0x40 MLOAD SWAP1 PUSH1 0x40 DUP3 MSTORE PUSH1 0x5 PUSH1 0x40 DUP4 ADD MSTORE PUSH5 0x5472616465 PUSH1 0xD8 SHL PUSH1 0x60 DUP4 ADD MSTORE PUSH1 0x20 DUP3 ADD MSTORE LOG1 PUSH1 0x40 MLOAD SWAP1 PUSH1 0x40 DUP3 MSTORE PUSH1 0x6 PUSH1 0x40 DUP4 ADD MSTORE PUSH6 0x457363726F77 PUSH1 0xD0 SHL PUSH1 0x60 DUP4 ADD MSTORE PUSH1 0x20 DUP3 ADD MSTORE LOG1 PUSH1 0x40 MLOAD SWAP1 PUSH1 0x40 DUP3 MSTORE PUSH1 0x6 PUSH1 0x40 DUP4 ADD MSTORE PUSH6 0x526174696E67 PUSH1 0xD0 SHL PUSH1 0x60 DUP4 ADD MSTORE PUSH1 0x20 DUP3 ADD MSTORE LOG1 PUSH1 0x40 MLOAD SWAP1 PUSH1 0x40 DUP3 MSTORE PUSH1 0xA PUSH1 0x40 DUP4 ADD MSTORE PUSH10 0x2932B83ABA30BA34B7B7 PUSH1 0xB1 SHL PUSH1 0x60 DUP4 ADD MSTORE PUSH1 0x20 DUP3 ADD MSTORE LOG1 PUSH1 0x40 MLOAD SWAP2 PUSH1 0x40 DUP4 MSTORE PUSH1 0xB PUSH1 0x40 DUP5 ADD MSTORE PUSH11 0x20B93134BA3930BA34B7B7 PUSH1 0xA9 SHL PUSH1 0x60 DUP5 ADD MSTORE AND PUSH1 0x20 DUP3 ADD MSTORE LOG1 DUP1 RETURN JUMPDEST POP DUP1 REVERT JUMPDEST DUP8 DUP1 REVERT JUMPDEST DUP7 DUP1 REVERT JUMPDEST DUP6 DUP1 REVERT JUMPDEST DUP5 DUP1 REVERT JUMPDEST DUP4 DUP1 REVERT JUMPDEST POP CALLVALUE PUSH2 0xB7 JUMPI DUP1 PUSH1 0x3 NOT CALLDATASIZE ADD SLT PUSH2 0xB7 JUMPI PUSH1 0x4 SLOAD PUSH1 0x40 MLOAD PUSH1 0x1 PUSH1 0x1 PUSH1 0xA0 SHL SUB SWAP1 SWAP2 AND DUP2 MSTORE PUSH1 0x20 SWAP1 RETURN JUMPDEST POP CALLVALUE PUSH2 0xB7 JUMPI DUP1 PUSH1 0x3 NOT CALLDATASIZE ADD SLT PUSH2 0xB7 JUMPI PUSH1 0x6 SLOAD PUSH1 0x40 MLOAD PUSH1 0x1 PUSH1 0x1 PUSH1 0xA0 SHL SUB SWAP1 SWAP2 AND DUP2 MSTORE PUSH1 0x20 SWAP1 RETURN JUMPDEST POP CALLVALUE PUSH2 0xB7 JUMPI DUP1 PUSH1 0x3 NOT CALLDATASIZE ADD SLT PUSH2 0xB7 JUMPI PUSH1 0x2 SLOAD PUSH1 0x40 MLOAD PUSH1 0x1 PUSH1 0x1 PUSH1 0xA0 SHL SUB SWAP1 SWAP2 AND DUP2 MSTORE PUSH1 0x20 SWAP1 RETURN JUMPDEST POP CALLVALUE PUSH2 0xB7 JUMPI DUP1 PUSH1 0x3 NOT CALLDATASIZE ADD SLT PUSH2 0xB7 JUMPI PUSH1 0x1 SLOAD PUSH1 0x40 MLOAD PUSH1 0x1 PUSH1 0x1 PUSH1 0xA0 SHL SUB SWAP1 SWAP2 AND DUP2 MSTORE PUSH1 0x20 SWAP1 RETURN JUMPDEST POP CALLVALUE PUSH2 0xB7 JUMPI DUP1 PUSH1 0x3 NOT CALLDATASIZE ADD SLT PUSH2 0xB7 JUMPI SLOAD PUSH1 0x40 MLOAD PUSH1 0x1 PUSH1 0x1 PUSH1 0xA0 SHL SUB SWAP1 SWAP2 AND DUP2 MSTORE PUSH1 0x20 SWAP1 RETURN JUMPDEST SWAP1 POP CALLVALUE PUSH2 0x398 JUMPI DUP2 PUSH1 0x3 NOT CALLDATASIZE ADD SLT PUSH2 0x398 JUMPI PUSH1 0x3 SLOAD PUSH1 0x1 PUSH1 0x1 PUSH1 0xA0 SHL SUB AND DUP2 MSTORE PUSH1 0x20 SWAP1 RETURN JUMPDEST PUSH1 0x4 CALLDATALOAD SWAP1 PUSH1 0x1 PUSH1 0x1 PUSH1 0xA0 SHL SUB DUP3 AND DUP3 SUB PUSH2 0x4B6 JUMPI JUMP JUMPDEST PUSH1 0x0 DUP1 REVERT JUMPDEST ISZERO PUSH2 0x4C2 JUMPI JUMP JUMPDEST PUSH1 0x40 MLOAD PUSH3 0x461BCD PUSH1 0xE5 SHL DUP2 MSTORE PUSH1 0x20 PUSH1 0x4 DUP3 ADD MSTORE PUSH1 0x2F PUSH1 0x24 DUP3 ADD MSTORE PUSH32 0x4F6E6C792074686520636F6E7472616374206F776E65722063616E2070657266 PUSH1 0x44 DUP3 ADD MSTORE PUSH15 0x37B936903A3434B99030B1BA34B7B7 PUSH1 0x89 SHL PUSH1 0x64 DUP3 ADD MSTORE PUSH1 0x84 SWAP1 REVERT INVALID LOG2 PUSH5 0x6970667358 0x22 SLT KECCAK256 PUSH12 0x1F822136FBD6D4EB4BB1AD80 0xCE 0xAB DUP7 DUP3 0xB6 MOD 0xD5 PUSH16 0x2C9E6D6BF25221FA147B5464736F6C63 NUMBER STOP ADDMOD XOR STOP CALLER "},"methodIdentifiers":{"accountAddress()":"1e9b1312","arbitrationAddress()":"70505653","escrowAddress()":"0d5defa4","offerAddress()":"3ea42de3","owner()":"8da5cb5b","ratingAddress()":"7b318154","reputationAddress()":"e8c28ce3","tradeAddress()":"49daca7a","updateAddresses(address,address,address,address,address,address,address)":"8c200c4f","updateOfferAddress(address)":"9b272e75"}}}}}