{"contracts/Escrow.sol":{"Escrow":{"abi":[{"inputs":[{"internalType":"address","name":"_admin","type":"address"},{"internalType":"address","name":"_registryAddress","type":"address"},{"internalType":"uint256","name":"_platformFeePercentage","type":"uint256"},{"internalType":"uint256","name":"_penaltyPercentage","type":"uint256"}],"stateMutability":"nonpayable","type":"constructor"},{"inputs":[],"name":"InvalidInitialization","type":"error"},{"inputs":[],"name":"NotInitializing","type":"error"},{"inputs":[],"name":"ReentrancyGuardReentrantCall","type":"error"},{"anonymous":false,"inputs":[{"indexed":true,"internalType":"uint256","name":"tradeId","type":"uint256"},{"indexed":false,"internalType":"uint256","name":"amount","type":"uint256"}],"name":"CryptoLocked","type":"event"},{"anonymous":false,"inputs":[{"indexed":true,"internalType":"uint256","name":"tradeId","type":"uint256"},{"indexed":false,"internalType":"uint256","name":"amount","type":"uint256"},{"indexed":false,"internalType":"uint256","name":"penaltyAmount","type":"uint256"}],"name":"CryptoPenalized","type":"event"},{"anonymous":false,"inputs":[{"indexed":true,"internalType":"uint256","name":"tradeId","type":"uint256"},{"indexed":false,"internalType":"uint256","name":"amount","type":"uint256"}],"name":"CryptoRefunded","type":"event"},{"anonymous":false,"inputs":[{"indexed":true,"internalType":"uint256","name":"tradeId","type":"uint256"},{"indexed":false,"internalType":"uint256","name":"amount","type":"uint256"}],"name":"CryptoReleased","type":"event"},{"anonymous":false,"inputs":[{"indexed":true,"internalType":"uint256","name":"tradeId","type":"uint256"},{"indexed":false,"internalType":"uint256","name":"amount","type":"uint256"},{"indexed":false,"internalType":"uint256","name":"splitAmount","type":"uint256"}],"name":"CryptoSplit","type":"event"},{"anonymous":false,"inputs":[{"indexed":true,"internalType":"uint256","name":"sourceTradeId","type":"uint256"},{"indexed":true,"internalType":"uint256","name":"destTradeId","type":"uint256"},{"indexed":false,"internalType":"uint256","name":"amount","type":"uint256"}],"name":"EscrowTransferred","type":"event"},{"anonymous":false,"inputs":[{"indexed":false,"internalType":"uint256","name":"platformFeePercentage","type":"uint256"},{"indexed":false,"internalType":"uint256","name":"penaltyPercentage","type":"uint256"}],"name":"FeePercentagesUpdated","type":"event"},{"anonymous":false,"inputs":[{"indexed":false,"internalType":"uint64","name":"version","type":"uint64"}],"name":"Initialized","type":"event"},{"anonymous":false,"inputs":[{"indexed":true,"internalType":"uint256","name":"tradeId","type":"uint256"},{"indexed":false,"internalType":"uint256","name":"feeAmount","type":"uint256"}],"name":"PlatformFeePaid","type":"event"},{"inputs":[],"name":"admin","outputs":[{"internalType":"address","name":"","type":"address"}],"stateMutability":"view","type":"function"},{"inputs":[{"internalType":"uint256","name":"","type":"uint256"}],"name":"escrows","outputs":[{"internalType":"uint256","name":"tradeId","type":"uint256"},{"internalType":"uint256","name":"amount","type":"uint256"},{"internalType":"bool","name":"isLocked","type":"bool"},{"internalType":"bool","name":"isReleased","type":"bool"},{"internalType":"bool","name":"isRefunded","type":"bool"}],"stateMutability":"view","type":"function"},{"inputs":[{"internalType":"uint256","name":"_tradeId","type":"uint256"},{"internalType":"uint256","name":"_amount","type":"uint256"}],"name":"lockCrypto","outputs":[],"stateMutability":"nonpayable","type":"function"},{"inputs":[{"internalType":"uint256","name":"_tradeId","type":"uint256"}],"name":"payPlatformFee","outputs":[],"stateMutability":"nonpayable","type":"function"},{"inputs":[{"internalType":"uint256","name":"_tradeId","type":"uint256"}],"name":"penalizeCrypto","outputs":[],"stateMutability":"nonpayable","type":"function"},{"inputs":[],"name":"penaltyPercentage","outputs":[{"internalType":"uint256","name":"","type":"uint256"}],"stateMutability":"view","type":"function"},{"inputs":[],"name":"platformFeePercentage","outputs":[{"internalType":"uint256","name":"","type":"uint256"}],"stateMutability":"view","type":"function"},{"inputs":[{"internalType":"uint256","name":"_tradeId","type":"uint256"}],"name":"refundCrypto","outputs":[],"stateMutability":"nonpayable","type":"function"},{"inputs":[],"name":"registry","outputs":[{"internalType":"contract ContractRegistry","name":"","type":"address"}],"stateMutability":"view","type":"function"},{"inputs":[{"internalType":"uint256","name":"_tradeId","type":"uint256"},{"internalType":"address payable","name":"_receiver","type":"address"}],"name":"releaseCrypto","outputs":[],"stateMutability":"nonpayable","type":"function"},{"inputs":[{"internalType":"uint256","name":"_tradeId","type":"uint256"},{"internalType":"uint256","name":"_splitAmount","type":"uint256"},{"internalType":"address payable","name":"_receiver","type":"address"}],"name":"splitCrypto","outputs":[],"stateMutability":"nonpayable","type":"function"},{"inputs":[{"internalType":"uint256","name":"_sourceTradeId","type":"uint256"},{"internalType":"uint256","name":"_destTradeId","type":"uint256"},{"internalType":"uint256","name":"_amount","type":"uint256"}],"name":"transferEscrow","outputs":[],"stateMutability":"nonpayable","type":"function"},{"inputs":[{"internalType":"uint256","name":"_platformFeePercentage","type":"uint256"},{"internalType":"uint256","name":"_penaltyPercentage","type":"uint256"}],"name":"updateFeePercentages","outputs":[],"stateMutability":"nonpayable","type":"function"},{"inputs":[],"name":"withdrawPlatformFees","outputs":[],"stateMutability":"nonpayable","type":"function"}],"evm":{"bytecode":{"linkReferences":{},"object":"6080346200020257601f6200189438819003918201601f191683019291906001600160401b0384118385101762000207578160809284926040968752833981010312620002025762000051816200021d565b906020620000618183016200021d565b84830151606090930151936001600160a01b03908116918215620001be57169182156200017c5760018411620001215760648511620000c9575060018060a01b0319908160005416176000556001541617600155600255600355516116619081620002338239f35b60849086519062461bcd60e51b82526004820152602c60248201527f50656e616c74792070657263656e74616765206d75737420626520626574776560448201526b0656e203020616e64203130360a41b6064820152fd5b60849086519062461bcd60e51b82526004820152602f60248201527f506c6174666f726d206665652070657263656e74616765206d7573742062652060448201526e6265747765656e203020616e64203160881b6064820152fd5b60649086519062461bcd60e51b825280600483015260248201527f496e76616c696420436f6e7472616374526567697374727920616464726573736044820152fd5b865162461bcd60e51b815260048101859052601560248201527f496e76616c69642061646d696e206164647265737300000000000000000000006044820152606490fd5b600080fd5b634e487b7160e01b600052604160045260246000fd5b51906001600160a01b0382168203620002025756fe608060408181526004918236101561001657600080fd5b600092833560e01c918263012f52ee146112f75750816304c07093146111d157816315908d51146111b25781631dea25f814611026578163277c2ee514610bfc5781636850cb5614610a5357816378578bb3146109315781637b10399914610908578163af967b7c146107da578163be81abd5146103f7578163cdd78cfc146103d8578163d0b7830b1461036c578163de9d8587146100e9575063f851a440146100bf57600080fd5b346100e557816003193601126100e557905490516001600160a01b039091168152602090f35b5080fd5b9050346103685781600319360112610368578035906001600160a01b039060243582811691908290036103645761011e6115db565b826001541685519384916324ed653d60e11b8352828460209788935afa801561035a5761015592899161032d575b5016331461156a565b83865280835260ff6002868820015416156102da5783865280835260ff6002868820015460081c166102815783865280835260ff6002868820015460101c16610228578386528083528580808060018982200154809682821561021f575bf115610215579383947f7a31789475faba05f57ad17e6e2164d1072a06f3de2a1b2847e99c066ff3019c948752835260028187208760018201550161010061ff001982541617905551908152a2600160008051602061160c8339815191525580f35b84513d87823e3d90fd5b506108fc6101b3565b845162461bcd60e51b8152908101839052602d60248201527f5468652063727970746f20697320616c726561647920726566756e646564206660448201526c6f72207468697320747261646560981b6064820152608490fd5b845162461bcd60e51b8152908101839052602d60248201527f5468652063727970746f20697320616c72656164792072656c6561736564206660448201526c6f72207468697320747261646560981b6064820152608490fd5b845162461bcd60e51b8152908101839052602760248201527f5468652063727970746f206973206e6f74206c6f636b656420666f72207468696044820152667320747261646560c81b6064820152608490fd5b61034d9150863d8811610353575b6103458183611513565b81019061154b565b3861014c565b503d61033b565b87513d8a823e3d90fd5b8580fd5b8280fd5b5050346100e557816003193601126100e5576103866115db565b8180808060018060a01b0381541661039f81331461136f565b47908282156103cf575bf1156103c55750600160008051602061160c8339815191525580f35b51903d90823e3d90fd5b506108fc6103a9565b5050346100e557816003193601126100e5576020906002549051908152f35b9050346103685760603660031901126103685780356024928335926044918235916104206115db565b60018060a01b0393600197858954168451966324ed653d60e11b918289528c6020998a818981865afa9081156107d0578261046f866002948f948e9560ff98926107b3575b505016331461156a565b8d8152898d5220015416156107645760ff6002888f8d8152898d5220015460081c1661070f5760ff6002888f8d8152898d5220015460101c166106ba57888b15159384610607575b50505050156105c957868a528286528489858c20015410610578575050907f89e4b1459b49d20eb85836c6a44fdfa48b13ad5f744fa48c09a59cff289584b093929185895280845287828a200161050f848254611506565b905586895280845287828a20016105278482546115ce565b905585895283528088208781015415610567575b50858852808820600201805460ff19168817905551908152a360008051602061160c8339815191525580f35b600201805460ff191690553861053b565b9060297f496e73756666696369656e742062616c616e636520696e2074686520736f75729287608496519562461bcd60e51b875286015284015282015268636520657363726f7760b81b6064820152fd5b90857f44657374696e6174696f6e20747261646520646f6573206e6f742065786973749281606496519562461bcd60e51b8752860152840152820152fd5b90919293508688518094819382525afa9081156106b0579088918d91610693575b5085875180948193635eaa811560e11b8352165afa908115610689578b91610658575b50881115388088816104b7565b90508681813d8311610682575b61066f8183611513565b8101031261067e57513861064b565b8a80fd5b503d610665565b85513d8d823e3d90fd5b6106aa9150823d8411610353576103458183611513565b38610628565b86513d8e823e3d90fd5b865162461bcd60e51b81528087018a9052602b818601527f54686520736f7572636520747261646520657363726f7720697320616c726561818701526a191e481c99599d5b99195960aa1b6064820152608490fd5b865162461bcd60e51b81528087018a9052602b818601527f54686520736f7572636520747261646520657363726f7720697320616c726561818701526a191e481c995b19585cd95960aa1b6064820152608490fd5b865162461bcd60e51b81528087018a90526025818601527f54686520736f7572636520747261646520657363726f77206973206e6f74206c81870152641bd8dad95960da1b6064820152608490fd5b6107c99250803d10610353576103458183611513565b8f80610465565b89513d84823e3d90fd5b9190503461036857602080600319360112610904578235916107fa6115db565b84546001600160a01b03169061081133831461136f565b83865284835261082960ff60028389200154166113c9565b83865284835261084560ff6002838920015460081c1615611421565b83865284835261086160ff6002838920015460101c161561147f565b838652848352606461087c60018389200154600254906114dd565b049184875285845286808080866108998160018985200154611506565b958282156108fb575bf1156108f15784957f93e7aaa64db1f3164fb844c7465be63c3d09a211e1307c3fe2a96a3f585d441595885284526001828820015551908152a2600160008051602061160c8339815191525580f35b81513d88823e3d90fd5b506108fc6108a2565b8380fd5b5050346100e557816003193601126100e55760015490516001600160a01b039091168152602090f35b8383346100e55761094136611354565b9361095660018060a01b03855416331461136f565b600182116109f857606485116109a057507f073f097766577c031a7e3e9a4c6310cb7c54d9bf12b491c3ab986c1b55c1639f9293816002558060035582519182526020820152a180f35b608490602084519162461bcd60e51b8352820152602c60248201527f50656e616c74792070657263656e74616765206d75737420626520626574776560448201526b0656e203020616e64203130360a41b6064820152fd5b608490602084519162461bcd60e51b8352820152602f60248201527f506c6174666f726d206665652070657263656e74616765206d7573742062652060448201526e6265747765656e203020616e64203160881b6064820152fd5b8383346100e557610a6336611354565b60015483516324ed653d60e11b8152929360209390916001600160a01b039190859082908a90829086165afa908115610bf25790610aab92918891610bd5575016331461156a565b83855285835260ff6002828720015416610b7f57805160a0810181811067ffffffffffffffff821117610b6c57967fb8d9fb8008ad16c0fcdb3b7892877ae2803c9e2380132fc401d165477f664eb09596978352868252848201908482526002848401936001855260608101938b855260808201938c85528b8d528952868c209151825551600182015501925115159160ff62ff000061ff0086549351151560081b169351151560101b1693169062ffffff1916171717905551908152a280f35b634e487b7160e01b875260418852602487fd5b5162461bcd60e51b8152808601839052602b60248201527f5468652063727970746f20697320616c7265616479206c6f636b656420666f7260448201526a207468697320747261646560a81b6064820152608490fd5b610bec9150863d8811610353576103458183611513565b8961014c565b83513d89823e3d90fd5b9050346103685760208060031936011261090457813590610c1b6115db565b6001805485516324ed653d60e11b80825292966001600160a01b039693909287169185818681865afa90811561101c57610c609189918c91611005575016331461156a565b85895283855260029160ff83858c2001541615610fc257868a5284865260ff83858c20015460081c16610f7357868a5284865260ff83858c20015460101c16610f24579084868b938651928380928682525afa908115610ea55783929188918b9591610f07575b5060248751809c81936304ba98d360e21b83528d8c840152165afa988915610efd578299610ece575b508815610db157507f89e4b1459b49d20eb85836c6a44fdfa48b13ad5f744fa48c09a59cff289584b095949392915086905282845287828a2001928984549455878a5288838b2001610d438582546115ce565b9055868a52845280828a20016201000062ff00ff19825416179055868952818920018760ff19825416179055847f1f399fe92ae750e24fb2322835ceb5c791d578f23e7e7707adebb7d51c0f0f30848351858152a251908152a35b60008051602061160c8339815191525580f35b909194989750868252888652878483200194828654965586818a5416928b87518095819382525afa918215610ea5578392610eaf575b50868860248c8489519687948593630a72bb6d60e31b8552840152165afa918215610ea557868493849384938492610e86575b5083918315610e7c575b1690f115610e72578495967f1f399fe92ae750e24fb2322835ceb5c791d578f23e7e7707adebb7d51c0f0f309589528452818820016201000062ff00ff1982541617905551908152a2610d9e565b81513d89823e3d90fd5b6108fc9250610e24565b610e9e9192508b3d8d11610353576103458183611513565b9038610e1a565b85513d85823e3d90fd5b610ec7919250873d8911610353576103458183611513565b9038610de7565b9098508681813d8311610ef6575b610ee68183611513565b810103126100e557519738610cf0565b503d610edc565b85513d84823e3d90fd5b610f1e9150823d8411610353576103458183611513565b38610cc7565b835162461bcd60e51b81528086018790526024808201527f54686520747261646520657363726f7720697320616c726561647920726566756044820152631b99195960e21b6064820152608490fd5b835162461bcd60e51b81528086018790526024808201527f54686520747261646520657363726f7720697320616c72656164792072656c65604482015263185cd95960e21b6064820152608490fd5b835162461bcd60e51b8152808601879052601e60248201527f54686520747261646520657363726f77206973206e6f74206c6f636b656400006044820152606490fd5b61034d9150883d8a11610353576103458183611513565b84513d8c823e3d90fd5b91905034610368576060366003190112610368578135906001600160a01b0360443581811691602435918390036111ae5761106d906110636115db565b875416331461136f565b838652602085815261108760ff6002868a200154166113c9565b8487528581526110a360ff6002868a20015460081c1615611421565b8487528581526110bf60ff6002868a20015460101c161561147f565b84875285815260018488200154821161115d5784875285815286808080856110ed8160018b85200154611506565b97828215611154575bf11561114a5784957f2487c8055466e8a5c549f617bde385d5b6daa8a3bd11d1b59a3166fa4ac10acc958852815282600185892001558351928352820152a2600160008051602061160c8339815191525580f35b83513d88823e3d90fd5b506108fc6110f6565b8560849185519162461bcd60e51b8352820152602660248201527f53706c697420616d6f756e74206578636565647320746865206c6f636b656420604482015265185b5bdd5b9d60d21b6064820152fd5b8680fd5b5050346100e557816003193601126100e5576020906003549051908152f35b919050346103685760209081600319360112610904578235916111f26115db565b84546001600160a01b03169061120933831461136f565b83865284815261122160ff60028589200154166113c9565b83865284815261123d60ff6002858920015460081c1615611421565b83865284815261125960ff6002858920015460101c161561147f565b838652848152606461127460018589200154600354906114dd565b049084875285815286808080856112918160018b85200154611506565b978282156112ee575bf11561114a5784957ff5c946d1dae8f0d2d541d67fb006e85e756fd371b635bbc4a19cddd38bc5e5dc958852815282600185892001558351928352820152a2600160008051602061160c8339815191525580f35b506108fc61129a565b9291503461090457602036600319011261090457908060a0948360ff943582526020522090815491600260018201549101549285526020850152828216151590840152818160081c161515606084015260101c1615156080820152f35b604090600319011261136a576004359060243590565b600080fd5b1561137657565b60405162461bcd60e51b815260206004820152602560248201527f4f6e6c7920616e2061646d696e2063616e20706572666f726d2074686973206160448201526431ba34b7b760d91b6064820152608490fd5b156113d057565b60405162461bcd60e51b815260206004820152602360248201527f43727970746f206973206e6f74206c6f636b656420666f72207468697320747260448201526261646560e81b6064820152608490fd5b1561142857565b60405162461bcd60e51b815260206004820152602960248201527f43727970746f20697320616c72656164792072656c656173656420666f72207460448201526868697320747261646560b81b6064820152608490fd5b1561148657565b60405162461bcd60e51b815260206004820152602960248201527f43727970746f20697320616c726561647920726566756e64656420666f72207460448201526868697320747261646560b81b6064820152608490fd5b818102929181159184041417156114f057565b634e487b7160e01b600052601160045260246000fd5b919082039182116114f057565b90601f8019910116810190811067ffffffffffffffff82111761153557604052565b634e487b7160e01b600052604160045260246000fd5b9081602091031261136a57516001600160a01b038116810361136a5790565b1561157157565b60405162461bcd60e51b815260206004820152602f60248201527f4f6e6c792074686520547261646520636f6e74726163742063616e207065726660448201526e37b936903a3434b99030b1ba34b7b760891b6064820152608490fd5b919082018092116114f057565b60008051602061160c83398151915260028154146115f95760029055565b604051633ee5aeb560e01b8152600490fdfe9b779b17422d0df92223018b32b4d1fa46e071723d6817e2486d003becc55f00a26469706673582212204810189e66ba667b5191b192d6eb93d140445d28e98d3ea0217eb5d681ec68ad64736f6c63430008180033","opcodes":"PUSH1 0x80 CALLVALUE PUSH3 0x202 JUMPI PUSH1 0x1F PUSH3 0x1894 CODESIZE DUP2 SWAP1 SUB SWAP2 DUP3 ADD PUSH1 0x1F NOT AND DUP4 ADD SWAP3 SWAP2 SWAP1 PUSH1 0x1 PUSH1 0x1 PUSH1 0x40 SHL SUB DUP5 GT DUP4 DUP6 LT OR PUSH3 0x207 JUMPI DUP2 PUSH1 0x80 SWAP3 DUP5 SWAP3 PUSH1 0x40 SWAP7 DUP8 MSTORE DUP4 CODECOPY DUP2 ADD SUB SLT PUSH3 0x202 JUMPI PUSH3 0x51 DUP2 PUSH3 0x21D JUMP JUMPDEST SWAP1 PUSH1 0x20 PUSH3 0x61 DUP2 DUP4 ADD PUSH3 0x21D JUMP JUMPDEST DUP5 DUP4 ADD MLOAD PUSH1 0x60 SWAP1 SWAP4 ADD MLOAD SWAP4 PUSH1 0x1 PUSH1 0x1 PUSH1 0xA0 SHL SUB SWAP1 DUP2 AND SWAP2 DUP3 ISZERO PUSH3 0x1BE JUMPI AND SWAP2 DUP3 ISZERO PUSH3 0x17C JUMPI PUSH1 0x1 DUP5 GT PUSH3 0x121 JUMPI PUSH1 0x64 DUP6 GT PUSH3 0xC9 JUMPI POP PUSH1 0x1 DUP1 PUSH1 0xA0 SHL SUB NOT SWAP1 DUP2 PUSH1 0x0 SLOAD AND OR PUSH1 0x0 SSTORE PUSH1 0x1 SLOAD AND OR PUSH1 0x1 SSTORE PUSH1 0x2 SSTORE PUSH1 0x3 SSTORE MLOAD PUSH2 0x1661 SWAP1 DUP2 PUSH3 0x233 DUP3 CODECOPY RETURN JUMPDEST PUSH1 0x84 SWAP1 DUP7 MLOAD SWAP1 PUSH3 0x461BCD PUSH1 0xE5 SHL DUP3 MSTORE PUSH1 0x4 DUP3 ADD MSTORE PUSH1 0x2C PUSH1 0x24 DUP3 ADD MSTORE PUSH32 0x50656E616C74792070657263656E74616765206D757374206265206265747765 PUSH1 0x44 DUP3 ADD MSTORE PUSH12 0x656E203020616E642031303 PUSH1 0xA4 SHL PUSH1 0x64 DUP3 ADD MSTORE REVERT JUMPDEST PUSH1 0x84 SWAP1 DUP7 MLOAD SWAP1 PUSH3 0x461BCD PUSH1 0xE5 SHL DUP3 MSTORE PUSH1 0x4 DUP3 ADD MSTORE PUSH1 0x2F PUSH1 0x24 DUP3 ADD MSTORE PUSH32 0x506C6174666F726D206665652070657263656E74616765206D75737420626520 PUSH1 0x44 DUP3 ADD MSTORE PUSH15 0x6265747765656E203020616E642031 PUSH1 0x88 SHL PUSH1 0x64 DUP3 ADD MSTORE REVERT JUMPDEST PUSH1 0x64 SWAP1 DUP7 MLOAD SWAP1 PUSH3 0x461BCD PUSH1 0xE5 SHL DUP3 MSTORE DUP1 PUSH1 0x4 DUP4 ADD MSTORE PUSH1 0x24 DUP3 ADD MSTORE PUSH32 0x496E76616C696420436F6E747261637452656769737472792061646472657373 PUSH1 0x44 DUP3 ADD MSTORE REVERT JUMPDEST DUP7 MLOAD PUSH3 0x461BCD PUSH1 0xE5 SHL DUP2 MSTORE PUSH1 0x4 DUP2 ADD DUP6 SWAP1 MSTORE PUSH1 0x15 PUSH1 0x24 DUP3 ADD MSTORE PUSH32 0x496E76616C69642061646D696E20616464726573730000000000000000000000 PUSH1 0x44 DUP3 ADD MSTORE PUSH1 0x64 SWAP1 REVERT JUMPDEST PUSH1 0x0 DUP1 REVERT JUMPDEST PUSH4 0x4E487B71 PUSH1 0xE0 SHL PUSH1 0x0 MSTORE PUSH1 0x41 PUSH1 0x4 MSTORE PUSH1 0x24 PUSH1 0x0 REVERT JUMPDEST MLOAD SWAP1 PUSH1 0x1 PUSH1 0x1 PUSH1 0xA0 SHL SUB DUP3 AND DUP3 SUB PUSH3 0x202 JUMPI JUMP INVALID PUSH1 0x80 PUSH1 0x40 DUP2 DUP2 MSTORE PUSH1 0x4 SWAP2 DUP3 CALLDATASIZE LT ISZERO PUSH2 0x16 JUMPI PUSH1 0x0 DUP1 REVERT JUMPDEST PUSH1 0x0 SWAP3 DUP4 CALLDATALOAD PUSH1 0xE0 SHR SWAP2 DUP3 PUSH4 0x12F52EE EQ PUSH2 0x12F7 JUMPI POP DUP2 PUSH4 0x4C07093 EQ PUSH2 0x11D1 JUMPI DUP2 PUSH4 0x15908D51 EQ PUSH2 0x11B2 JUMPI DUP2 PUSH4 0x1DEA25F8 EQ PUSH2 0x1026 JUMPI DUP2 PUSH4 0x277C2EE5 EQ PUSH2 0xBFC JUMPI DUP2 PUSH4 0x6850CB56 EQ PUSH2 0xA53 JUMPI DUP2 PUSH4 0x78578BB3 EQ PUSH2 0x931 JUMPI DUP2 PUSH4 0x7B103999 EQ PUSH2 0x908 JUMPI DUP2 PUSH4 0xAF967B7C EQ PUSH2 0x7DA JUMPI DUP2 PUSH4 0xBE81ABD5 EQ PUSH2 0x3F7 JUMPI DUP2 PUSH4 0xCDD78CFC EQ PUSH2 0x3D8 JUMPI DUP2 PUSH4 0xD0B7830B EQ PUSH2 0x36C JUMPI DUP2 PUSH4 0xDE9D8587 EQ PUSH2 0xE9 JUMPI POP PUSH4 0xF851A440 EQ PUSH2 0xBF JUMPI PUSH1 0x0 DUP1 REVERT JUMPDEST CALLVALUE PUSH2 0xE5 JUMPI DUP2 PUSH1 0x3 NOT CALLDATASIZE ADD SLT PUSH2 0xE5 JUMPI SWAP1 SLOAD SWAP1 MLOAD PUSH1 0x1 PUSH1 0x1 PUSH1 0xA0 SHL SUB SWAP1 SWAP2 AND DUP2 MSTORE PUSH1 0x20 SWAP1 RETURN JUMPDEST POP DUP1 REVERT JUMPDEST SWAP1 POP CALLVALUE PUSH2 0x368 JUMPI DUP2 PUSH1 0x3 NOT CALLDATASIZE ADD SLT PUSH2 0x368 JUMPI DUP1 CALLDATALOAD SWAP1 PUSH1 0x1 PUSH1 0x1 PUSH1 0xA0 SHL SUB SWAP1 PUSH1 0x24 CALLDATALOAD DUP3 DUP2 AND SWAP2 SWAP1 DUP3 SWAP1 SUB PUSH2 0x364 JUMPI PUSH2 0x11E PUSH2 0x15DB JUMP JUMPDEST DUP3 PUSH1 0x1 SLOAD AND DUP6 MLOAD SWAP4 DUP5 SWAP2 PUSH4 0x24ED653D PUSH1 0xE1 SHL DUP4 MSTORE DUP3 DUP5 PUSH1 0x20 SWAP8 DUP9 SWAP4 GAS STATICCALL DUP1 ISZERO PUSH2 0x35A JUMPI PUSH2 0x155 SWAP3 DUP10 SWAP2 PUSH2 0x32D JUMPI JUMPDEST POP AND CALLER EQ PUSH2 0x156A JUMP JUMPDEST DUP4 DUP7 MSTORE DUP1 DUP4 MSTORE PUSH1 0xFF PUSH1 0x2 DUP7 DUP9 KECCAK256 ADD SLOAD AND ISZERO PUSH2 0x2DA JUMPI DUP4 DUP7 MSTORE DUP1 DUP4 MSTORE PUSH1 0xFF PUSH1 0x2 DUP7 DUP9 KECCAK256 ADD SLOAD PUSH1 0x8 SHR AND PUSH2 0x281 JUMPI DUP4 DUP7 MSTORE DUP1 DUP4 MSTORE PUSH1 0xFF PUSH1 0x2 DUP7 DUP9 KECCAK256 ADD SLOAD PUSH1 0x10 SHR AND PUSH2 0x228 JUMPI DUP4 DUP7 MSTORE DUP1 DUP4 MSTORE DUP6 DUP1 DUP1 DUP1 PUSH1 0x1 DUP10 DUP3 KECCAK256 ADD SLOAD DUP1 SWAP7 DUP3 DUP3 ISZERO PUSH2 0x21F JUMPI JUMPDEST CALL ISZERO PUSH2 0x215 JUMPI SWAP4 DUP4 SWAP5 PUSH32 0x7A31789475FABA05F57AD17E6E2164D1072A06F3DE2A1B2847E99C066FF3019C SWAP5 DUP8 MSTORE DUP4 MSTORE PUSH1 0x2 DUP2 DUP8 KECCAK256 DUP8 PUSH1 0x1 DUP3 ADD SSTORE ADD PUSH2 0x100 PUSH2 0xFF00 NOT DUP3 SLOAD AND OR SWAP1 SSTORE MLOAD SWAP1 DUP2 MSTORE LOG2 PUSH1 0x1 PUSH1 0x0 DUP1 MLOAD PUSH1 0x20 PUSH2 0x160C DUP4 CODECOPY DUP2 MLOAD SWAP2 MSTORE SSTORE DUP1 RETURN JUMPDEST DUP5 MLOAD RETURNDATASIZE DUP8 DUP3 RETURNDATACOPY RETURNDATASIZE SWAP1 REVERT JUMPDEST POP PUSH2 0x8FC PUSH2 0x1B3 JUMP JUMPDEST DUP5 MLOAD PUSH3 0x461BCD PUSH1 0xE5 SHL DUP2 MSTORE SWAP1 DUP2 ADD DUP4 SWAP1 MSTORE PUSH1 0x2D PUSH1 0x24 DUP3 ADD MSTORE PUSH32 0x5468652063727970746F20697320616C726561647920726566756E6465642066 PUSH1 0x44 DUP3 ADD MSTORE PUSH13 0x6F722074686973207472616465 PUSH1 0x98 SHL PUSH1 0x64 DUP3 ADD MSTORE PUSH1 0x84 SWAP1 REVERT JUMPDEST DUP5 MLOAD PUSH3 0x461BCD PUSH1 0xE5 SHL DUP2 MSTORE SWAP1 DUP2 ADD DUP4 SWAP1 MSTORE PUSH1 0x2D PUSH1 0x24 DUP3 ADD MSTORE PUSH32 0x5468652063727970746F20697320616C72656164792072656C65617365642066 PUSH1 0x44 DUP3 ADD MSTORE PUSH13 0x6F722074686973207472616465 PUSH1 0x98 SHL PUSH1 0x64 DUP3 ADD MSTORE PUSH1 0x84 SWAP1 REVERT JUMPDEST DUP5 MLOAD PUSH3 0x461BCD PUSH1 0xE5 SHL DUP2 MSTORE SWAP1 DUP2 ADD DUP4 SWAP1 MSTORE PUSH1 0x27 PUSH1 0x24 DUP3 ADD MSTORE PUSH32 0x5468652063727970746F206973206E6F74206C6F636B656420666F7220746869 PUSH1 0x44 DUP3 ADD MSTORE PUSH7 0x73207472616465 PUSH1 0xC8 SHL PUSH1 0x64 DUP3 ADD MSTORE PUSH1 0x84 SWAP1 REVERT JUMPDEST PUSH2 0x34D SWAP2 POP DUP7 RETURNDATASIZE DUP9 GT PUSH2 0x353 JUMPI JUMPDEST PUSH2 0x345 DUP2 DUP4 PUSH2 0x1513 JUMP JUMPDEST DUP2 ADD SWAP1 PUSH2 0x154B JUMP JUMPDEST CODESIZE PUSH2 0x14C JUMP JUMPDEST POP RETURNDATASIZE PUSH2 0x33B JUMP JUMPDEST DUP8 MLOAD RETURNDATASIZE DUP11 DUP3 RETURNDATACOPY RETURNDATASIZE SWAP1 REVERT JUMPDEST DUP6 DUP1 REVERT JUMPDEST DUP3 DUP1 REVERT JUMPDEST POP POP CALLVALUE PUSH2 0xE5 JUMPI DUP2 PUSH1 0x3 NOT CALLDATASIZE ADD SLT PUSH2 0xE5 JUMPI PUSH2 0x386 PUSH2 0x15DB JUMP JUMPDEST DUP2 DUP1 DUP1 DUP1 PUSH1 0x1 DUP1 PUSH1 0xA0 SHL SUB DUP2 SLOAD AND PUSH2 0x39F DUP2 CALLER EQ PUSH2 0x136F JUMP JUMPDEST SELFBALANCE SWAP1 DUP3 DUP3 ISZERO PUSH2 0x3CF JUMPI JUMPDEST CALL ISZERO PUSH2 0x3C5 JUMPI POP PUSH1 0x1 PUSH1 0x0 DUP1 MLOAD PUSH1 0x20 PUSH2 0x160C DUP4 CODECOPY DUP2 MLOAD SWAP2 MSTORE SSTORE DUP1 RETURN JUMPDEST MLOAD SWAP1 RETURNDATASIZE SWAP1 DUP3 RETURNDATACOPY RETURNDATASIZE SWAP1 REVERT JUMPDEST POP PUSH2 0x8FC PUSH2 0x3A9 JUMP JUMPDEST POP POP CALLVALUE PUSH2 0xE5 JUMPI DUP2 PUSH1 0x3 NOT CALLDATASIZE ADD SLT PUSH2 0xE5 JUMPI PUSH1 0x20 SWAP1 PUSH1 0x2 SLOAD SWAP1 MLOAD SWAP1 DUP2 MSTORE RETURN JUMPDEST SWAP1 POP CALLVALUE PUSH2 0x368 JUMPI PUSH1 0x60 CALLDATASIZE PUSH1 0x3 NOT ADD SLT PUSH2 0x368 JUMPI DUP1 CALLDATALOAD PUSH1 0x24 SWAP3 DUP4 CALLDATALOAD SWAP3 PUSH1 0x44 SWAP2 DUP3 CALLDATALOAD SWAP2 PUSH2 0x420 PUSH2 0x15DB JUMP JUMPDEST PUSH1 0x1 DUP1 PUSH1 0xA0 SHL SUB SWAP4 PUSH1 0x1 SWAP8 DUP6 DUP10 SLOAD AND DUP5 MLOAD SWAP7 PUSH4 0x24ED653D PUSH1 0xE1 SHL SWAP2 DUP3 DUP10 MSTORE DUP13 PUSH1 0x20 SWAP10 DUP11 DUP2 DUP10 DUP2 DUP7 GAS STATICCALL SWAP1 DUP2 ISZERO PUSH2 0x7D0 JUMPI DUP3 PUSH2 0x46F DUP7 PUSH1 0x2 SWAP5 DUP16 SWAP5 DUP15 SWAP6 PUSH1 0xFF SWAP9 SWAP3 PUSH2 0x7B3 JUMPI JUMPDEST POP POP AND CALLER EQ PUSH2 0x156A JUMP JUMPDEST DUP14 DUP2 MSTORE DUP10 DUP14 MSTORE KECCAK256 ADD SLOAD AND ISZERO PUSH2 0x764 JUMPI PUSH1 0xFF PUSH1 0x2 DUP9 DUP16 DUP14 DUP2 MSTORE DUP10 DUP14 MSTORE KECCAK256 ADD SLOAD PUSH1 0x8 SHR AND PUSH2 0x70F JUMPI PUSH1 0xFF PUSH1 0x2 DUP9 DUP16 DUP14 DUP2 MSTORE DUP10 DUP14 MSTORE KECCAK256 ADD SLOAD PUSH1 0x10 SHR AND PUSH2 0x6BA JUMPI DUP9 DUP12 ISZERO ISZERO SWAP4 DUP5 PUSH2 0x607 JUMPI JUMPDEST POP POP POP POP ISZERO PUSH2 0x5C9 JUMPI DUP7 DUP11 MSTORE DUP3 DUP7 MSTORE DUP5 DUP10 DUP6 DUP13 KECCAK256 ADD SLOAD LT PUSH2 0x578 JUMPI POP POP SWAP1 PUSH32 0x89E4B1459B49D20EB85836C6A44FDFA48B13AD5F744FA48C09A59CFF289584B0 SWAP4 SWAP3 SWAP2 DUP6 DUP10 MSTORE DUP1 DUP5 MSTORE DUP8 DUP3 DUP11 KECCAK256 ADD PUSH2 0x50F DUP5 DUP3 SLOAD PUSH2 0x1506 JUMP JUMPDEST SWAP1 SSTORE DUP7 DUP10 MSTORE DUP1 DUP5 MSTORE DUP8 DUP3 DUP11 KECCAK256 ADD PUSH2 0x527 DUP5 DUP3 SLOAD PUSH2 0x15CE JUMP JUMPDEST SWAP1 SSTORE DUP6 DUP10 MSTORE DUP4 MSTORE DUP1 DUP9 KECCAK256 DUP8 DUP2 ADD SLOAD ISZERO PUSH2 0x567 JUMPI JUMPDEST POP DUP6 DUP9 MSTORE DUP1 DUP9 KECCAK256 PUSH1 0x2 ADD DUP1 SLOAD PUSH1 0xFF NOT AND DUP9 OR SWAP1 SSTORE MLOAD SWAP1 DUP2 MSTORE LOG3 PUSH1 0x0 DUP1 MLOAD PUSH1 0x20 PUSH2 0x160C DUP4 CODECOPY DUP2 MLOAD SWAP2 MSTORE SSTORE DUP1 RETURN JUMPDEST PUSH1 0x2 ADD DUP1 SLOAD PUSH1 0xFF NOT AND SWAP1 SSTORE CODESIZE PUSH2 0x53B JUMP JUMPDEST SWAP1 PUSH1 0x29 PUSH32 0x496E73756666696369656E742062616C616E636520696E2074686520736F7572 SWAP3 DUP8 PUSH1 0x84 SWAP7 MLOAD SWAP6 PUSH3 0x461BCD PUSH1 0xE5 SHL DUP8 MSTORE DUP7 ADD MSTORE DUP5 ADD MSTORE DUP3 ADD MSTORE PUSH9 0x636520657363726F77 PUSH1 0xB8 SHL PUSH1 0x64 DUP3 ADD MSTORE REVERT JUMPDEST SWAP1 DUP6 PUSH32 0x44657374696E6174696F6E20747261646520646F6573206E6F74206578697374 SWAP3 DUP2 PUSH1 0x64 SWAP7 MLOAD SWAP6 PUSH3 0x461BCD PUSH1 0xE5 SHL DUP8 MSTORE DUP7 ADD MSTORE DUP5 ADD MSTORE DUP3 ADD MSTORE REVERT JUMPDEST SWAP1 SWAP2 SWAP3 SWAP4 POP DUP7 DUP9 MLOAD DUP1 SWAP5 DUP2 SWAP4 DUP3 MSTORE GAS STATICCALL SWAP1 DUP2 ISZERO PUSH2 0x6B0 JUMPI SWAP1 DUP9 SWAP2 DUP14 SWAP2 PUSH2 0x693 JUMPI JUMPDEST POP DUP6 DUP8 MLOAD DUP1 SWAP5 DUP2 SWAP4 PUSH4 0x5EAA8115 PUSH1 0xE1 SHL DUP4 MSTORE AND GAS STATICCALL SWAP1 DUP2 ISZERO PUSH2 0x689 JUMPI DUP12 SWAP2 PUSH2 0x658 JUMPI JUMPDEST POP DUP9 GT ISZERO CODESIZE DUP1 DUP9 DUP2 PUSH2 0x4B7 JUMP JUMPDEST SWAP1 POP DUP7 DUP2 DUP2 RETURNDATASIZE DUP4 GT PUSH2 0x682 JUMPI JUMPDEST PUSH2 0x66F DUP2 DUP4 PUSH2 0x1513 JUMP JUMPDEST DUP2 ADD SUB SLT PUSH2 0x67E JUMPI MLOAD CODESIZE PUSH2 0x64B JUMP JUMPDEST DUP11 DUP1 REVERT JUMPDEST POP RETURNDATASIZE PUSH2 0x665 JUMP JUMPDEST DUP6 MLOAD RETURNDATASIZE DUP14 DUP3 RETURNDATACOPY RETURNDATASIZE SWAP1 REVERT JUMPDEST PUSH2 0x6AA SWAP2 POP DUP3 RETURNDATASIZE DUP5 GT PUSH2 0x353 JUMPI PUSH2 0x345 DUP2 DUP4 PUSH2 0x1513 JUMP JUMPDEST CODESIZE PUSH2 0x628 JUMP JUMPDEST DUP7 MLOAD RETURNDATASIZE DUP15 DUP3 RETURNDATACOPY RETURNDATASIZE SWAP1 REVERT JUMPDEST DUP7 MLOAD PUSH3 0x461BCD PUSH1 0xE5 SHL DUP2 MSTORE DUP1 DUP8 ADD DUP11 SWAP1 MSTORE PUSH1 0x2B DUP2 DUP7 ADD MSTORE PUSH32 0x54686520736F7572636520747261646520657363726F7720697320616C726561 DUP2 DUP8 ADD MSTORE PUSH11 0x191E481C99599D5B991959 PUSH1 0xAA SHL PUSH1 0x64 DUP3 ADD MSTORE PUSH1 0x84 SWAP1 REVERT JUMPDEST DUP7 MLOAD PUSH3 0x461BCD PUSH1 0xE5 SHL DUP2 MSTORE DUP1 DUP8 ADD DUP11 SWAP1 MSTORE PUSH1 0x2B DUP2 DUP7 ADD MSTORE PUSH32 0x54686520736F7572636520747261646520657363726F7720697320616C726561 DUP2 DUP8 ADD MSTORE PUSH11 0x191E481C995B19585CD959 PUSH1 0xAA SHL PUSH1 0x64 DUP3 ADD MSTORE PUSH1 0x84 SWAP1 REVERT JUMPDEST DUP7 MLOAD PUSH3 0x461BCD PUSH1 0xE5 SHL DUP2 MSTORE DUP1 DUP8 ADD DUP11 SWAP1 MSTORE PUSH1 0x25 DUP2 DUP7 ADD MSTORE PUSH32 0x54686520736F7572636520747261646520657363726F77206973206E6F74206C DUP2 DUP8 ADD MSTORE PUSH5 0x1BD8DAD959 PUSH1 0xDA SHL PUSH1 0x64 DUP3 ADD MSTORE PUSH1 0x84 SWAP1 REVERT JUMPDEST PUSH2 0x7C9 SWAP3 POP DUP1 RETURNDATASIZE LT PUSH2 0x353 JUMPI PUSH2 0x345 DUP2 DUP4 PUSH2 0x1513 JUMP JUMPDEST DUP16 DUP1 PUSH2 0x465 JUMP JUMPDEST DUP10 MLOAD RETURNDATASIZE DUP5 DUP3 RETURNDATACOPY RETURNDATASIZE SWAP1 REVERT JUMPDEST SWAP2 SWAP1 POP CALLVALUE PUSH2 0x368 JUMPI PUSH1 0x20 DUP1 PUSH1 0x3 NOT CALLDATASIZE ADD SLT PUSH2 0x904 JUMPI DUP3 CALLDATALOAD SWAP2 PUSH2 0x7FA PUSH2 0x15DB JUMP JUMPDEST DUP5 SLOAD PUSH1 0x1 PUSH1 0x1 PUSH1 0xA0 SHL SUB AND SWAP1 PUSH2 0x811 CALLER DUP4 EQ PUSH2 0x136F JUMP JUMPDEST DUP4 DUP7 MSTORE DUP5 DUP4 MSTORE PUSH2 0x829 PUSH1 0xFF PUSH1 0x2 DUP4 DUP10 KECCAK256 ADD SLOAD AND PUSH2 0x13C9 JUMP JUMPDEST DUP4 DUP7 MSTORE DUP5 DUP4 MSTORE PUSH2 0x845 PUSH1 0xFF PUSH1 0x2 DUP4 DUP10 KECCAK256 ADD SLOAD PUSH1 0x8 SHR AND ISZERO PUSH2 0x1421 JUMP JUMPDEST DUP4 DUP7 MSTORE DUP5 DUP4 MSTORE PUSH2 0x861 PUSH1 0xFF PUSH1 0x2 DUP4 DUP10 KECCAK256 ADD SLOAD PUSH1 0x10 SHR AND ISZERO PUSH2 0x147F JUMP JUMPDEST DUP4 DUP7 MSTORE DUP5 DUP4 MSTORE PUSH1 0x64 PUSH2 0x87C PUSH1 0x1 DUP4 DUP10 KECCAK256 ADD SLOAD PUSH1 0x2 SLOAD SWAP1 PUSH2 0x14DD JUMP JUMPDEST DIV SWAP2 DUP5 DUP8 MSTORE DUP6 DUP5 MSTORE DUP7 DUP1 DUP1 DUP1 DUP7 PUSH2 0x899 DUP2 PUSH1 0x1 DUP10 DUP6 KECCAK256 ADD SLOAD PUSH2 0x1506 JUMP JUMPDEST SWAP6 DUP3 DUP3 ISZERO PUSH2 0x8FB JUMPI JUMPDEST CALL ISZERO PUSH2 0x8F1 JUMPI DUP5 SWAP6 PUSH32 0x93E7AAA64DB1F3164FB844C7465BE63C3D09A211E1307C3FE2A96A3F585D4415 SWAP6 DUP9 MSTORE DUP5 MSTORE PUSH1 0x1 DUP3 DUP9 KECCAK256 ADD SSTORE MLOAD SWAP1 DUP2 MSTORE LOG2 PUSH1 0x1 PUSH1 0x0 DUP1 MLOAD PUSH1 0x20 PUSH2 0x160C DUP4 CODECOPY DUP2 MLOAD SWAP2 MSTORE SSTORE DUP1 RETURN JUMPDEST DUP2 MLOAD RETURNDATASIZE DUP9 DUP3 RETURNDATACOPY RETURNDATASIZE SWAP1 REVERT JUMPDEST POP PUSH2 0x8FC PUSH2 0x8A2 JUMP JUMPDEST DUP4 DUP1 REVERT JUMPDEST POP POP CALLVALUE PUSH2 0xE5 JUMPI DUP2 PUSH1 0x3 NOT CALLDATASIZE ADD SLT PUSH2 0xE5 JUMPI PUSH1 0x1 SLOAD SWAP1 MLOAD PUSH1 0x1 PUSH1 0x1 PUSH1 0xA0 SHL SUB SWAP1 SWAP2 AND DUP2 MSTORE PUSH1 0x20 SWAP1 RETURN JUMPDEST DUP4 DUP4 CALLVALUE PUSH2 0xE5 JUMPI PUSH2 0x941 CALLDATASIZE PUSH2 0x1354 JUMP JUMPDEST SWAP4 PUSH2 0x956 PUSH1 0x1 DUP1 PUSH1 0xA0 SHL SUB DUP6 SLOAD AND CALLER EQ PUSH2 0x136F JUMP JUMPDEST PUSH1 0x1 DUP3 GT PUSH2 0x9F8 JUMPI PUSH1 0x64 DUP6 GT PUSH2 0x9A0 JUMPI POP PUSH32 0x73F097766577C031A7E3E9A4C6310CB7C54D9BF12B491C3AB986C1B55C1639F SWAP3 SWAP4 DUP2 PUSH1 0x2 SSTORE DUP1 PUSH1 0x3 SSTORE DUP3 MLOAD SWAP2 DUP3 MSTORE PUSH1 0x20 DUP3 ADD MSTORE LOG1 DUP1 RETURN JUMPDEST PUSH1 0x84 SWAP1 PUSH1 0x20 DUP5 MLOAD SWAP2 PUSH3 0x461BCD PUSH1 0xE5 SHL DUP4 MSTORE DUP3 ADD MSTORE PUSH1 0x2C PUSH1 0x24 DUP3 ADD MSTORE PUSH32 0x50656E616C74792070657263656E74616765206D757374206265206265747765 PUSH1 0x44 DUP3 ADD MSTORE PUSH12 0x656E203020616E642031303 PUSH1 0xA4 SHL PUSH1 0x64 DUP3 ADD MSTORE REVERT JUMPDEST PUSH1 0x84 SWAP1 PUSH1 0x20 DUP5 MLOAD SWAP2 PUSH3 0x461BCD PUSH1 0xE5 SHL DUP4 MSTORE DUP3 ADD MSTORE PUSH1 0x2F PUSH1 0x24 DUP3 ADD MSTORE PUSH32 0x506C6174666F726D206665652070657263656E74616765206D75737420626520 PUSH1 0x44 DUP3 ADD MSTORE PUSH15 0x6265747765656E203020616E642031 PUSH1 0x88 SHL PUSH1 0x64 DUP3 ADD MSTORE REVERT JUMPDEST DUP4 DUP4 CALLVALUE PUSH2 0xE5 JUMPI PUSH2 0xA63 CALLDATASIZE PUSH2 0x1354 JUMP JUMPDEST PUSH1 0x1 SLOAD DUP4 MLOAD PUSH4 0x24ED653D PUSH1 0xE1 SHL DUP2 MSTORE SWAP3 SWAP4 PUSH1 0x20 SWAP4 SWAP1 SWAP2 PUSH1 0x1 PUSH1 0x1 PUSH1 0xA0 SHL SUB SWAP2 SWAP1 DUP6 SWAP1 DUP3 SWAP1 DUP11 SWAP1 DUP3 SWAP1 DUP7 AND GAS STATICCALL SWAP1 DUP2 ISZERO PUSH2 0xBF2 JUMPI SWAP1 PUSH2 0xAAB SWAP3 SWAP2 DUP9 SWAP2 PUSH2 0xBD5 JUMPI POP AND CALLER EQ PUSH2 0x156A JUMP JUMPDEST DUP4 DUP6 MSTORE DUP6 DUP4 MSTORE PUSH1 0xFF PUSH1 0x2 DUP3 DUP8 KECCAK256 ADD SLOAD AND PUSH2 0xB7F JUMPI DUP1 MLOAD PUSH1 0xA0 DUP2 ADD DUP2 DUP2 LT PUSH8 0xFFFFFFFFFFFFFFFF DUP3 GT OR PUSH2 0xB6C JUMPI SWAP7 PUSH32 0xB8D9FB8008AD16C0FCDB3B7892877AE2803C9E2380132FC401D165477F664EB0 SWAP6 SWAP7 SWAP8 DUP4 MSTORE DUP7 DUP3 MSTORE DUP5 DUP3 ADD SWAP1 DUP5 DUP3 MSTORE PUSH1 0x2 DUP5 DUP5 ADD SWAP4 PUSH1 0x1 DUP6 MSTORE PUSH1 0x60 DUP2 ADD SWAP4 DUP12 DUP6 MSTORE PUSH1 0x80 DUP3 ADD SWAP4 DUP13 DUP6 MSTORE DUP12 DUP14 MSTORE DUP10 MSTORE DUP7 DUP13 KECCAK256 SWAP2 MLOAD DUP3 SSTORE MLOAD PUSH1 0x1 DUP3 ADD SSTORE ADD SWAP3 MLOAD ISZERO ISZERO SWAP2 PUSH1 0xFF PUSH3 0xFF0000 PUSH2 0xFF00 DUP7 SLOAD SWAP4 MLOAD ISZERO ISZERO PUSH1 0x8 SHL AND SWAP4 MLOAD ISZERO ISZERO PUSH1 0x10 SHL AND SWAP4 AND SWAP1 PUSH3 0xFFFFFF NOT AND OR OR OR SWAP1 SSTORE MLOAD SWAP1 DUP2 MSTORE LOG2 DUP1 RETURN JUMPDEST PUSH4 0x4E487B71 PUSH1 0xE0 SHL DUP8 MSTORE PUSH1 0x41 DUP9 MSTORE PUSH1 0x24 DUP8 REVERT JUMPDEST MLOAD PUSH3 0x461BCD PUSH1 0xE5 SHL DUP2 MSTORE DUP1 DUP7 ADD DUP4 SWAP1 MSTORE PUSH1 0x2B PUSH1 0x24 DUP3 ADD MSTORE PUSH32 0x5468652063727970746F20697320616C7265616479206C6F636B656420666F72 PUSH1 0x44 DUP3 ADD MSTORE PUSH11 0x2074686973207472616465 PUSH1 0xA8 SHL PUSH1 0x64 DUP3 ADD MSTORE PUSH1 0x84 SWAP1 REVERT JUMPDEST PUSH2 0xBEC SWAP2 POP DUP7 RETURNDATASIZE DUP9 GT PUSH2 0x353 JUMPI PUSH2 0x345 DUP2 DUP4 PUSH2 0x1513 JUMP JUMPDEST DUP10 PUSH2 0x14C JUMP JUMPDEST DUP4 MLOAD RETURNDATASIZE DUP10 DUP3 RETURNDATACOPY RETURNDATASIZE SWAP1 REVERT JUMPDEST SWAP1 POP CALLVALUE PUSH2 0x368 JUMPI PUSH1 0x20 DUP1 PUSH1 0x3 NOT CALLDATASIZE ADD SLT PUSH2 0x904 JUMPI DUP2 CALLDATALOAD SWAP1 PUSH2 0xC1B PUSH2 0x15DB JUMP JUMPDEST PUSH1 0x1 DUP1 SLOAD DUP6 MLOAD PUSH4 0x24ED653D PUSH1 0xE1 SHL DUP1 DUP3 MSTORE SWAP3 SWAP7 PUSH1 0x1 PUSH1 0x1 PUSH1 0xA0 SHL SUB SWAP7 SWAP4 SWAP1 SWAP3 DUP8 AND SWAP2 DUP6 DUP2 DUP7 DUP2 DUP7 GAS STATICCALL SWAP1 DUP2 ISZERO PUSH2 0x101C JUMPI PUSH2 0xC60 SWAP2 DUP10 SWAP2 DUP13 SWAP2 PUSH2 0x1005 JUMPI POP AND CALLER EQ PUSH2 0x156A JUMP JUMPDEST DUP6 DUP10 MSTORE DUP4 DUP6 MSTORE PUSH1 0x2 SWAP2 PUSH1 0xFF DUP4 DUP6 DUP13 KECCAK256 ADD SLOAD AND ISZERO PUSH2 0xFC2 JUMPI DUP7 DUP11 MSTORE DUP5 DUP7 MSTORE PUSH1 0xFF DUP4 DUP6 DUP13 KECCAK256 ADD SLOAD PUSH1 0x8 SHR AND PUSH2 0xF73 JUMPI DUP7 DUP11 MSTORE DUP5 DUP7 MSTORE PUSH1 0xFF DUP4 DUP6 DUP13 KECCAK256 ADD SLOAD PUSH1 0x10 SHR AND PUSH2 0xF24 JUMPI SWAP1 DUP5 DUP7 DUP12 SWAP4 DUP7 MLOAD SWAP3 DUP4 DUP1 SWAP3 DUP7 DUP3 MSTORE GAS STATICCALL SWAP1 DUP2 ISZERO PUSH2 0xEA5 JUMPI DUP4 SWAP3 SWAP2 DUP9 SWAP2 DUP12 SWAP6 SWAP2 PUSH2 0xF07 JUMPI JUMPDEST POP PUSH1 0x24 DUP8 MLOAD DUP1 SWAP13 DUP2 SWAP4 PUSH4 0x4BA98D3 PUSH1 0xE2 SHL DUP4 MSTORE DUP14 DUP13 DUP5 ADD MSTORE AND GAS STATICCALL SWAP9 DUP10 ISZERO PUSH2 0xEFD JUMPI DUP3 SWAP10 PUSH2 0xECE JUMPI JUMPDEST POP DUP9 ISZERO PUSH2 0xDB1 JUMPI POP PUSH32 0x89E4B1459B49D20EB85836C6A44FDFA48B13AD5F744FA48C09A59CFF289584B0 SWAP6 SWAP5 SWAP4 SWAP3 SWAP2 POP DUP7 SWAP1 MSTORE DUP3 DUP5 MSTORE DUP8 DUP3 DUP11 KECCAK256 ADD SWAP3 DUP10 DUP5 SLOAD SWAP5 SSTORE DUP8 DUP11 MSTORE DUP9 DUP4 DUP12 KECCAK256 ADD PUSH2 0xD43 DUP6 DUP3 SLOAD PUSH2 0x15CE JUMP JUMPDEST SWAP1 SSTORE DUP7 DUP11 MSTORE DUP5 MSTORE DUP1 DUP3 DUP11 KECCAK256 ADD PUSH3 0x10000 PUSH3 0xFF00FF NOT DUP3 SLOAD AND OR SWAP1 SSTORE DUP7 DUP10 MSTORE DUP2 DUP10 KECCAK256 ADD DUP8 PUSH1 0xFF NOT DUP3 SLOAD AND OR SWAP1 SSTORE DUP5 PUSH32 0x1F399FE92AE750E24FB2322835CEB5C791D578F23E7E7707ADEBB7D51C0F0F30 DUP5 DUP4 MLOAD DUP6 DUP2 MSTORE LOG2 MLOAD SWAP1 DUP2 MSTORE LOG3 JUMPDEST PUSH1 0x0 DUP1 MLOAD PUSH1 0x20 PUSH2 0x160C DUP4 CODECOPY DUP2 MLOAD SWAP2 MSTORE SSTORE DUP1 RETURN JUMPDEST SWAP1 SWAP2 SWAP5 SWAP9 SWAP8 POP DUP7 DUP3 MSTORE DUP9 DUP7 MSTORE DUP8 DUP5 DUP4 KECCAK256 ADD SWAP5 DUP3 DUP7 SLOAD SWAP7 SSTORE DUP7 DUP2 DUP11 SLOAD AND SWAP3 DUP12 DUP8 MLOAD DUP1 SWAP6 DUP2 SWAP4 DUP3 MSTORE GAS STATICCALL SWAP2 DUP3 ISZERO PUSH2 0xEA5 JUMPI DUP4 SWAP3 PUSH2 0xEAF JUMPI JUMPDEST POP DUP7 DUP9 PUSH1 0x24 DUP13 DUP5 DUP10 MLOAD SWAP7 DUP8 SWAP5 DUP6 SWAP4 PUSH4 0xA72BB6D PUSH1 0xE3 SHL DUP6 MSTORE DUP5 ADD MSTORE AND GAS STATICCALL SWAP2 DUP3 ISZERO PUSH2 0xEA5 JUMPI DUP7 DUP5 SWAP4 DUP5 SWAP4 DUP5 SWAP4 DUP5 SWAP3 PUSH2 0xE86 JUMPI JUMPDEST POP DUP4 SWAP2 DUP4 ISZERO PUSH2 0xE7C JUMPI JUMPDEST AND SWAP1 CALL ISZERO PUSH2 0xE72 JUMPI DUP5 SWAP6 SWAP7 PUSH32 0x1F399FE92AE750E24FB2322835CEB5C791D578F23E7E7707ADEBB7D51C0F0F30 SWAP6 DUP10 MSTORE DUP5 MSTORE DUP2 DUP9 KECCAK256 ADD PUSH3 0x10000 PUSH3 0xFF00FF NOT DUP3 SLOAD AND OR SWAP1 SSTORE MLOAD SWAP1 DUP2 MSTORE LOG2 PUSH2 0xD9E JUMP JUMPDEST DUP2 MLOAD RETURNDATASIZE DUP10 DUP3 RETURNDATACOPY RETURNDATASIZE SWAP1 REVERT JUMPDEST PUSH2 0x8FC SWAP3 POP PUSH2 0xE24 JUMP JUMPDEST PUSH2 0xE9E SWAP2 SWAP3 POP DUP12 RETURNDATASIZE DUP14 GT PUSH2 0x353 JUMPI PUSH2 0x345 DUP2 DUP4 PUSH2 0x1513 JUMP JUMPDEST SWAP1 CODESIZE PUSH2 0xE1A JUMP JUMPDEST DUP6 MLOAD RETURNDATASIZE DUP6 DUP3 RETURNDATACOPY RETURNDATASIZE SWAP1 REVERT JUMPDEST PUSH2 0xEC7 SWAP2 SWAP3 POP DUP8 RETURNDATASIZE DUP10 GT PUSH2 0x353 JUMPI PUSH2 0x345 DUP2 DUP4 PUSH2 0x1513 JUMP JUMPDEST SWAP1 CODESIZE PUSH2 0xDE7 JUMP JUMPDEST SWAP1 SWAP9 POP DUP7 DUP2 DUP2 RETURNDATASIZE DUP4 GT PUSH2 0xEF6 JUMPI JUMPDEST PUSH2 0xEE6 DUP2 DUP4 PUSH2 0x1513 JUMP JUMPDEST DUP2 ADD SUB SLT PUSH2 0xE5 JUMPI MLOAD SWAP8 CODESIZE PUSH2 0xCF0 JUMP JUMPDEST POP RETURNDATASIZE PUSH2 0xEDC JUMP JUMPDEST DUP6 MLOAD RETURNDATASIZE DUP5 DUP3 RETURNDATACOPY RETURNDATASIZE SWAP1 REVERT JUMPDEST PUSH2 0xF1E SWAP2 POP DUP3 RETURNDATASIZE DUP5 GT PUSH2 0x353 JUMPI PUSH2 0x345 DUP2 DUP4 PUSH2 0x1513 JUMP JUMPDEST CODESIZE PUSH2 0xCC7 JUMP JUMPDEST DUP4 MLOAD PUSH3 0x461BCD PUSH1 0xE5 SHL DUP2 MSTORE DUP1 DUP7 ADD DUP8 SWAP1 MSTORE PUSH1 0x24 DUP1 DUP3 ADD MSTORE PUSH32 0x54686520747261646520657363726F7720697320616C72656164792072656675 PUSH1 0x44 DUP3 ADD MSTORE PUSH4 0x1B991959 PUSH1 0xE2 SHL PUSH1 0x64 DUP3 ADD MSTORE PUSH1 0x84 SWAP1 REVERT JUMPDEST DUP4 MLOAD PUSH3 0x461BCD PUSH1 0xE5 SHL DUP2 MSTORE DUP1 DUP7 ADD DUP8 SWAP1 MSTORE PUSH1 0x24 DUP1 DUP3 ADD MSTORE PUSH32 0x54686520747261646520657363726F7720697320616C72656164792072656C65 PUSH1 0x44 DUP3 ADD MSTORE PUSH4 0x185CD959 PUSH1 0xE2 SHL PUSH1 0x64 DUP3 ADD MSTORE PUSH1 0x84 SWAP1 REVERT JUMPDEST DUP4 MLOAD PUSH3 0x461BCD PUSH1 0xE5 SHL DUP2 MSTORE DUP1 DUP7 ADD DUP8 SWAP1 MSTORE PUSH1 0x1E PUSH1 0x24 DUP3 ADD MSTORE PUSH32 0x54686520747261646520657363726F77206973206E6F74206C6F636B65640000 PUSH1 0x44 DUP3 ADD MSTORE PUSH1 0x64 SWAP1 REVERT JUMPDEST PUSH2 0x34D SWAP2 POP DUP9 RETURNDATASIZE DUP11 GT PUSH2 0x353 JUMPI PUSH2 0x345 DUP2 DUP4 PUSH2 0x1513 JUMP JUMPDEST DUP5 MLOAD RETURNDATASIZE DUP13 DUP3 RETURNDATACOPY RETURNDATASIZE SWAP1 REVERT JUMPDEST SWAP2 SWAP1 POP CALLVALUE PUSH2 0x368 JUMPI PUSH1 0x60 CALLDATASIZE PUSH1 0x3 NOT ADD SLT PUSH2 0x368 JUMPI DUP2 CALLDATALOAD SWAP1 PUSH1 0x1 PUSH1 0x1 PUSH1 0xA0 SHL SUB PUSH1 0x44 CALLDATALOAD DUP2 DUP2 AND SWAP2 PUSH1 0x24 CALLDATALOAD SWAP2 DUP4 SWAP1 SUB PUSH2 0x11AE JUMPI PUSH2 0x106D SWAP1 PUSH2 0x1063 PUSH2 0x15DB JUMP JUMPDEST DUP8 SLOAD AND CALLER EQ PUSH2 0x136F JUMP JUMPDEST DUP4 DUP7 MSTORE PUSH1 0x20 DUP6 DUP2 MSTORE PUSH2 0x1087 PUSH1 0xFF PUSH1 0x2 DUP7 DUP11 KECCAK256 ADD SLOAD AND PUSH2 0x13C9 JUMP JUMPDEST DUP5 DUP8 MSTORE DUP6 DUP2 MSTORE PUSH2 0x10A3 PUSH1 0xFF PUSH1 0x2 DUP7 DUP11 KECCAK256 ADD SLOAD PUSH1 0x8 SHR AND ISZERO PUSH2 0x1421 JUMP JUMPDEST DUP5 DUP8 MSTORE DUP6 DUP2 MSTORE PUSH2 0x10BF PUSH1 0xFF PUSH1 0x2 DUP7 DUP11 KECCAK256 ADD SLOAD PUSH1 0x10 SHR AND ISZERO PUSH2 0x147F JUMP JUMPDEST DUP5 DUP8 MSTORE DUP6 DUP2 MSTORE PUSH1 0x1 DUP5 DUP9 KECCAK256 ADD SLOAD DUP3 GT PUSH2 0x115D JUMPI DUP5 DUP8 MSTORE DUP6 DUP2 MSTORE DUP7 DUP1 DUP1 DUP1 DUP6 PUSH2 0x10ED DUP2 PUSH1 0x1 DUP12 DUP6 KECCAK256 ADD SLOAD PUSH2 0x1506 JUMP JUMPDEST SWAP8 DUP3 DUP3 ISZERO PUSH2 0x1154 JUMPI JUMPDEST CALL ISZERO PUSH2 0x114A JUMPI DUP5 SWAP6 PUSH32 0x2487C8055466E8A5C549F617BDE385D5B6DAA8A3BD11D1B59A3166FA4AC10ACC SWAP6 DUP9 MSTORE DUP2 MSTORE DUP3 PUSH1 0x1 DUP6 DUP10 KECCAK256 ADD SSTORE DUP4 MLOAD SWAP3 DUP4 MSTORE DUP3 ADD MSTORE LOG2 PUSH1 0x1 PUSH1 0x0 DUP1 MLOAD PUSH1 0x20 PUSH2 0x160C DUP4 CODECOPY DUP2 MLOAD SWAP2 MSTORE SSTORE DUP1 RETURN JUMPDEST DUP4 MLOAD RETURNDATASIZE DUP9 DUP3 RETURNDATACOPY RETURNDATASIZE SWAP1 REVERT JUMPDEST POP PUSH2 0x8FC PUSH2 0x10F6 JUMP JUMPDEST DUP6 PUSH1 0x84 SWAP2 DUP6 MLOAD SWAP2 PUSH3 0x461BCD PUSH1 0xE5 SHL DUP4 MSTORE DUP3 ADD MSTORE PUSH1 0x26 PUSH1 0x24 DUP3 ADD MSTORE PUSH32 0x53706C697420616D6F756E74206578636565647320746865206C6F636B656420 PUSH1 0x44 DUP3 ADD MSTORE PUSH6 0x185B5BDD5B9D PUSH1 0xD2 SHL PUSH1 0x64 DUP3 ADD MSTORE REVERT JUMPDEST DUP7 DUP1 REVERT JUMPDEST POP POP CALLVALUE PUSH2 0xE5 JUMPI DUP2 PUSH1 0x3 NOT CALLDATASIZE ADD SLT PUSH2 0xE5 JUMPI PUSH1 0x20 SWAP1 PUSH1 0x3 SLOAD SWAP1 MLOAD SWAP1 DUP2 MSTORE RETURN JUMPDEST SWAP2 SWAP1 POP CALLVALUE PUSH2 0x368 JUMPI PUSH1 0x20 SWAP1 DUP2 PUSH1 0x3 NOT CALLDATASIZE ADD SLT PUSH2 0x904 JUMPI DUP3 CALLDATALOAD SWAP2 PUSH2 0x11F2 PUSH2 0x15DB JUMP JUMPDEST DUP5 SLOAD PUSH1 0x1 PUSH1 0x1 PUSH1 0xA0 SHL SUB AND SWAP1 PUSH2 0x1209 CALLER DUP4 EQ PUSH2 0x136F JUMP JUMPDEST DUP4 DUP7 MSTORE DUP5 DUP2 MSTORE PUSH2 0x1221 PUSH1 0xFF PUSH1 0x2 DUP6 DUP10 KECCAK256 ADD SLOAD AND PUSH2 0x13C9 JUMP JUMPDEST DUP4 DUP7 MSTORE DUP5 DUP2 MSTORE PUSH2 0x123D PUSH1 0xFF PUSH1 0x2 DUP6 DUP10 KECCAK256 ADD SLOAD PUSH1 0x8 SHR AND ISZERO PUSH2 0x1421 JUMP JUMPDEST DUP4 DUP7 MSTORE DUP5 DUP2 MSTORE PUSH2 0x1259 PUSH1 0xFF PUSH1 0x2 DUP6 DUP10 KECCAK256 ADD SLOAD PUSH1 0x10 SHR AND ISZERO PUSH2 0x147F JUMP JUMPDEST DUP4 DUP7 MSTORE DUP5 DUP2 MSTORE PUSH1 0x64 PUSH2 0x1274 PUSH1 0x1 DUP6 DUP10 KECCAK256 ADD SLOAD PUSH1 0x3 SLOAD SWAP1 PUSH2 0x14DD JUMP JUMPDEST DIV SWAP1 DUP5 DUP8 MSTORE DUP6 DUP2 MSTORE DUP7 DUP1 DUP1 DUP1 DUP6 PUSH2 0x1291 DUP2 PUSH1 0x1 DUP12 DUP6 KECCAK256 ADD SLOAD PUSH2 0x1506 JUMP JUMPDEST SWAP8 DUP3 DUP3 ISZERO PUSH2 0x12EE JUMPI JUMPDEST CALL ISZERO PUSH2 0x114A JUMPI DUP5 SWAP6 PUSH32 0xF5C946D1DAE8F0D2D541D67FB006E85E756FD371B635BBC4A19CDDD38BC5E5DC SWAP6 DUP9 MSTORE DUP2 MSTORE DUP3 PUSH1 0x1 DUP6 DUP10 KECCAK256 ADD SSTORE DUP4 MLOAD SWAP3 DUP4 MSTORE DUP3 ADD MSTORE LOG2 PUSH1 0x1 PUSH1 0x0 DUP1 MLOAD PUSH1 0x20 PUSH2 0x160C DUP4 CODECOPY DUP2 MLOAD SWAP2 MSTORE SSTORE DUP1 RETURN JUMPDEST POP PUSH2 0x8FC PUSH2 0x129A JUMP JUMPDEST SWAP3 SWAP2 POP CALLVALUE PUSH2 0x904 JUMPI PUSH1 0x20 CALLDATASIZE PUSH1 0x3 NOT ADD SLT PUSH2 0x904 JUMPI SWAP1 DUP1 PUSH1 0xA0 SWAP5 DUP4 PUSH1 0xFF SWAP5 CALLDATALOAD DUP3 MSTORE PUSH1 0x20 MSTORE KECCAK256 SWAP1 DUP2 SLOAD SWAP2 PUSH1 0x2 PUSH1 0x1 DUP3 ADD SLOAD SWAP2 ADD SLOAD SWAP3 DUP6 MSTORE PUSH1 0x20 DUP6 ADD MSTORE DUP3 DUP3 AND ISZERO ISZERO SWAP1 DUP5 ADD MSTORE DUP2 DUP2 PUSH1 0x8 SHR AND ISZERO ISZERO PUSH1 0x60 DUP5 ADD MSTORE PUSH1 0x10 SHR AND ISZERO ISZERO PUSH1 0x80 DUP3 ADD MSTORE RETURN JUMPDEST PUSH1 0x40 SWAP1 PUSH1 0x3 NOT ADD SLT PUSH2 0x136A JUMPI PUSH1 0x4 CALLDATALOAD SWAP1 PUSH1 0x24 CALLDATALOAD SWAP1 JUMP JUMPDEST PUSH1 0x0 DUP1 REVERT JUMPDEST ISZERO PUSH2 0x1376 JUMPI JUMP JUMPDEST PUSH1 0x40 MLOAD PUSH3 0x461BCD PUSH1 0xE5 SHL DUP2 MSTORE PUSH1 0x20 PUSH1 0x4 DUP3 ADD MSTORE PUSH1 0x25 PUSH1 0x24 DUP3 ADD MSTORE PUSH32 0x4F6E6C7920616E2061646D696E2063616E20706572666F726D20746869732061 PUSH1 0x44 DUP3 ADD MSTORE PUSH5 0x31BA34B7B7 PUSH1 0xD9 SHL PUSH1 0x64 DUP3 ADD MSTORE PUSH1 0x84 SWAP1 REVERT JUMPDEST ISZERO PUSH2 0x13D0 JUMPI JUMP JUMPDEST PUSH1 0x40 MLOAD PUSH3 0x461BCD PUSH1 0xE5 SHL DUP2 MSTORE PUSH1 0x20 PUSH1 0x4 DUP3 ADD MSTORE PUSH1 0x23 PUSH1 0x24 DUP3 ADD MSTORE PUSH32 0x43727970746F206973206E6F74206C6F636B656420666F722074686973207472 PUSH1 0x44 DUP3 ADD MSTORE PUSH3 0x616465 PUSH1 0xE8 SHL PUSH1 0x64 DUP3 ADD MSTORE PUSH1 0x84 SWAP1 REVERT JUMPDEST ISZERO PUSH2 0x1428 JUMPI JUMP JUMPDEST PUSH1 0x40 MLOAD PUSH3 0x461BCD PUSH1 0xE5 SHL DUP2 MSTORE PUSH1 0x20 PUSH1 0x4 DUP3 ADD MSTORE PUSH1 0x29 PUSH1 0x24 DUP3 ADD MSTORE PUSH32 0x43727970746F20697320616C72656164792072656C656173656420666F722074 PUSH1 0x44 DUP3 ADD MSTORE PUSH9 0x686973207472616465 PUSH1 0xB8 SHL PUSH1 0x64 DUP3 ADD MSTORE PUSH1 0x84 SWAP1 REVERT JUMPDEST ISZERO PUSH2 0x1486 JUMPI JUMP JUMPDEST PUSH1 0x40 MLOAD PUSH3 0x461BCD PUSH1 0xE5 SHL DUP2 MSTORE PUSH1 0x20 PUSH1 0x4 DUP3 ADD MSTORE PUSH1 0x29 PUSH1 0x24 DUP3 ADD MSTORE PUSH32 0x43727970746F20697320616C726561647920726566756E64656420666F722074 PUSH1 0x44 DUP3 ADD MSTORE PUSH9 0x686973207472616465 PUSH1 0xB8 SHL PUSH1 0x64 DUP3 ADD MSTORE PUSH1 0x84 SWAP1 REVERT JUMPDEST DUP2 DUP2 MUL SWAP3 SWAP2 DUP2 ISZERO SWAP2 DUP5 DIV EQ OR ISZERO PUSH2 0x14F0 JUMPI JUMP JUMPDEST PUSH4 0x4E487B71 PUSH1 0xE0 SHL PUSH1 0x0 MSTORE PUSH1 0x11 PUSH1 0x4 MSTORE PUSH1 0x24 PUSH1 0x0 REVERT JUMPDEST SWAP2 SWAP1 DUP3 SUB SWAP2 DUP3 GT PUSH2 0x14F0 JUMPI JUMP JUMPDEST SWAP1 PUSH1 0x1F DUP1 NOT SWAP2 ADD AND DUP2 ADD SWAP1 DUP2 LT PUSH8 0xFFFFFFFFFFFFFFFF DUP3 GT OR PUSH2 0x1535 JUMPI PUSH1 0x40 MSTORE JUMP JUMPDEST PUSH4 0x4E487B71 PUSH1 0xE0 SHL PUSH1 0x0 MSTORE PUSH1 0x41 PUSH1 0x4 MSTORE PUSH1 0x24 PUSH1 0x0 REVERT JUMPDEST SWAP1 DUP2 PUSH1 0x20 SWAP2 SUB SLT PUSH2 0x136A JUMPI MLOAD PUSH1 0x1 PUSH1 0x1 PUSH1 0xA0 SHL SUB DUP2 AND DUP2 SUB PUSH2 0x136A JUMPI SWAP1 JUMP JUMPDEST ISZERO PUSH2 0x1571 JUMPI JUMP JUMPDEST PUSH1 0x40 MLOAD PUSH3 0x461BCD PUSH1 0xE5 SHL DUP2 MSTORE PUSH1 0x20 PUSH1 0x4 DUP3 ADD MSTORE PUSH1 0x2F PUSH1 0x24 DUP3 ADD MSTORE PUSH32 0x4F6E6C792074686520547261646520636F6E74726163742063616E2070657266 PUSH1 0x44 DUP3 ADD MSTORE PUSH15 0x37B936903A3434B99030B1BA34B7B7 PUSH1 0x89 SHL PUSH1 0x64 DUP3 ADD MSTORE PUSH1 0x84 SWAP1 REVERT JUMPDEST SWAP2 SWAP1 DUP3 ADD DUP1 SWAP3 GT PUSH2 0x14F0 JUMPI JUMP JUMPDEST PUSH1 0x0 DUP1 MLOAD PUSH1 0x20 PUSH2 0x160C DUP4 CODECOPY DUP2 MLOAD SWAP2 MSTORE PUSH1 0x2 DUP2 SLOAD EQ PUSH2 0x15F9 JUMPI PUSH1 0x2 SWAP1 SSTORE JUMP JUMPDEST PUSH1 0x40 MLOAD PUSH4 0x3EE5AEB5 PUSH1 0xE0 SHL DUP2 MSTORE PUSH1 0x4 SWAP1 REVERT INVALID SWAP12 PUSH24 0x9B17422D0DF92223018B32B4D1FA46E071723D6817E2486D STOP EXTCODESIZE 0xEC 0xC5 PUSH0 STOP LOG2 PUSH5 0x6970667358 0x22 SLT KECCAK256 BASEFEE LT XOR SWAP15 PUSH7 0xBA667B5191B192 0xD6 0xEB SWAP4 0xD1 BLOCKHASH PREVRANDAO TSTORE 0x28 0xE9 DUP14 RETURNDATACOPY LOG0 0x21 PUSH31 0xB5D681EC68AD64736F6C634300081800330000000000000000000000000000 "},"methodIdentifiers":{"admin()":"f851a440","escrows(uint256)":"012f52ee","lockCrypto(uint256,uint256)":"6850cb56","payPlatformFee(uint256)":"af967b7c","penalizeCrypto(uint256)":"04c07093","penaltyPercentage()":"15908d51","platformFeePercentage()":"cdd78cfc","refundCrypto(uint256)":"277c2ee5","registry()":"7b103999","releaseCrypto(uint256,address)":"de9d8587","splitCrypto(uint256,uint256,address)":"1dea25f8","transferEscrow(uint256,uint256,uint256)":"be81abd5","updateFeePercentages(uint256,uint256)":"78578bb3","withdrawPlatformFees()":"d0b7830b"}}}}}