{"contracts/Offer.sol":{"Offer":{"abi":[{"inputs":[{"internalType":"address","name":"_registryAddress","type":"address"}],"stateMutability":"nonpayable","type":"constructor"},{"anonymous":false,"inputs":[],"name":"ContractPaused","type":"event"},{"anonymous":false,"inputs":[],"name":"ContractUnpaused","type":"event"},{"anonymous":false,"inputs":[{"indexed":true,"internalType":"uint256","name":"offerId","type":"uint256"}],"name":"OfferActivated","type":"event"},{"anonymous":false,"inputs":[{"indexed":true,"internalType":"uint256","name":"offerId","type":"uint256"},{"indexed":true,"internalType":"address","name":"offerOwner","type":"address"},{"indexed":false,"internalType":"uint256","name":"minTradeAmount","type":"uint256"},{"indexed":false,"internalType":"uint256","name":"maxTradeAmount","type":"uint256"},{"indexed":false,"internalType":"string","name":"fiatCurrency","type":"string"},{"indexed":false,"internalType":"enum Offer.OfferStatus","name":"status","type":"uint8"}],"name":"OfferCreated","type":"event"},{"anonymous":false,"inputs":[{"indexed":true,"internalType":"uint256","name":"offerId","type":"uint256"},{"indexed":false,"internalType":"uint256","name":"disputeId","type":"uint256"}],"name":"OfferDisputeInvolved","type":"event"},{"anonymous":false,"inputs":[{"indexed":true,"internalType":"uint256","name":"offerId","type":"uint256"},{"indexed":false,"internalType":"uint256","name":"disputeId","type":"uint256"}],"name":"OfferDisputeLost","type":"event"},{"anonymous":false,"inputs":[{"indexed":true,"internalType":"uint256","name":"offerId","type":"uint256"},{"indexed":false,"internalType":"uint256","name":"minAmount","type":"uint256"},{"indexed":false,"internalType":"uint256","name":"maxAmount","type":"uint256"}],"name":"OfferMinMaxTradeAmountsChanged","type":"event"},{"anonymous":false,"inputs":[{"indexed":true,"internalType":"uint256","name":"offerId","type":"uint256"}],"name":"OfferPaused","type":"event"},{"anonymous":false,"inputs":[{"indexed":true,"internalType":"uint256","name":"offerId","type":"uint256"}],"name":"OfferStatsUpdated","type":"event"},{"anonymous":false,"inputs":[{"indexed":true,"internalType":"uint256","name":"offerId","type":"uint256"}],"name":"OfferTradeAccepted","type":"event"},{"anonymous":false,"inputs":[{"indexed":true,"internalType":"uint256","name":"offerId","type":"uint256"},{"indexed":false,"internalType":"uint256","name":"tradeVolume","type":"uint256"}],"name":"OfferTradeCompleted","type":"event"},{"anonymous":false,"inputs":[{"indexed":true,"internalType":"uint256","name":"offerId","type":"uint256"},{"indexed":false,"internalType":"uint256","name":"minTradeAmount","type":"uint256"},{"indexed":false,"internalType":"uint256","name":"maxTradeAmount","type":"uint256"},{"indexed":false,"internalType":"enum Offer.OfferStatus","name":"status","type":"uint8"}],"name":"OfferUpdated","type":"event"},{"anonymous":false,"inputs":[{"indexed":true,"internalType":"uint256","name":"offerId","type":"uint256"}],"name":"OfferWithdrawn","type":"event"},{"anonymous":false,"inputs":[{"indexed":true,"internalType":"address","name":"previousOwner","type":"address"},{"indexed":true,"internalType":"address","name":"newOwner","type":"address"}],"name":"OwnershipTransferred","type":"event"},{"inputs":[],"name":"getOfferCounts","outputs":[{"internalType":"uint256","name":"","type":"uint256"},{"internalType":"uint256","name":"","type":"uint256"},{"internalType":"uint256","name":"","type":"uint256"},{"internalType":"uint256","name":"","type":"uint256"}],"stateMutability":"view","type":"function"},{"inputs":[{"internalType":"uint256","name":"_offerId","type":"uint256"}],"name":"getOfferDetails","outputs":[{"internalType":"address","name":"","type":"address"},{"internalType":"uint256","name":"","type":"uint256"},{"internalType":"uint256","name":"","type":"uint256"},{"internalType":"uint256","name":"","type":"uint256"},{"internalType":"uint256","name":"","type":"uint256"},{"internalType":"uint256","name":"","type":"uint256"},{"internalType":"uint256","name":"","type":"uint256"},{"internalType":"uint256","name":"","type":"uint256"},{"internalType":"string","name":"","type":"string"},{"internalType":"bool","name":"","type":"bool"},{"internalType":"uint256","name":"","type":"uint256"},{"internalType":"uint256","name":"","type":"uint256"},{"internalType":"bool","name":"","type":"bool"},{"internalType":"string","name":"","type":"string"},{"internalType":"string","name":"","type":"string"},{"internalType":"string","name":"","type":"string"},{"internalType":"int256","name":"","type":"int256"},{"internalType":"string","name":"","type":"string"}],"stateMutability":"view","type":"function"},{"inputs":[{"internalType":"address","name":"_user","type":"address"}],"name":"getUserOffers","outputs":[{"internalType":"uint256[]","name":"","type":"uint256[]"}],"stateMutability":"view","type":"function"},{"inputs":[],"name":"offerCount","outputs":[{"internalType":"uint256","name":"","type":"uint256"}],"stateMutability":"view","type":"function"},{"inputs":[{"internalType":"uint256","name":"_minTradeAmount","type":"uint256"},{"internalType":"uint256","name":"_maxTradeAmount","type":"uint256"},{"internalType":"string","name":"_fiatCurrency","type":"string"},{"internalType":"bool","name":"_buyingCrypto","type":"bool"},{"internalType":"string","name":"_country","type":"string"},{"internalType":"string","name":"_paymentMethod","type":"string"},{"internalType":"string","name":"_terms","type":"string"},{"internalType":"int256","name":"_rate","type":"int256"},{"internalType":"string","name":"_title","type":"string"}],"name":"offerCreate","outputs":[],"stateMutability":"nonpayable","type":"function"},{"inputs":[{"internalType":"uint256","name":"","type":"uint256"},{"internalType":"uint256","name":"","type":"uint256"}],"name":"offerDisputeCounted","outputs":[{"internalType":"bool","name":"","type":"bool"}],"stateMutability":"view","type":"function"},{"inputs":[{"internalType":"address","name":"","type":"address"},{"internalType":"bytes32","name":"","type":"bytes32"}],"name":"offerParametersUsed","outputs":[{"internalType":"bool","name":"","type":"bool"}],"stateMutability":"view","type":"function"},{"inputs":[{"internalType":"uint256","name":"_offerId","type":"uint256"},{"internalType":"uint256","name":"_minTradeAmount","type":"uint256"},{"internalType":"uint256","name":"_maxTradeAmount","type":"uint256"},{"internalType":"enum Offer.OfferStatus","name":"_status","type":"uint8"},{"internalType":"bool","name":"_buyingCrypto","type":"bool"},{"internalType":"string","name":"_country","type":"string"},{"internalType":"string","name":"_paymentMethod","type":"string"},{"internalType":"string","name":"_terms","type":"string"},{"internalType":"int256","name":"_rate","type":"int256"},{"internalType":"string","name":"_title","type":"string"}],"name":"offerUpdateOffer","outputs":[],"stateMutability":"nonpayable","type":"function"},{"inputs":[{"internalType":"uint256","name":"","type":"uint256"}],"name":"offers","outputs":[{"internalType":"address","name":"offerOwner","type":"address"},{"internalType":"uint256","name":"offerTotalTradesAccepted","type":"uint256"},{"internalType":"uint256","name":"offerTotalTradesCompleted","type":"uint256"},{"internalType":"uint256","name":"offerDisputesInvolved","type":"uint256"},{"internalType":"uint256","name":"offerDisputesLost","type":"uint256"},{"internalType":"uint256","name":"offerAverageTradeVolume","type":"uint256"},{"internalType":"uint256","name":"offerMinTradeAmount","type":"uint256"},{"internalType":"uint256","name":"offerMaxTradeAmount","type":"uint256"},{"internalType":"string","name":"offerFiatCurrency","type":"string"},{"internalType":"enum Offer.OfferStatus","name":"offerStatus","type":"uint8"},{"internalType":"uint256","name":"offerCreatedTime","type":"uint256"},{"internalType":"uint256","name":"offerLastUpdatedTime","type":"uint256"},{"internalType":"bool","name":"offerBuyingCrypto","type":"bool"},{"internalType":"string","name":"offerCountry","type":"string"},{"internalType":"string","name":"offerPaymentMethod","type":"string"},{"internalType":"string","name":"offerTerms","type":"string"},{"internalType":"int256","name":"offerRate","type":"int256"},{"internalType":"string","name":"offerTitle","type":"string"}],"stateMutability":"view","type":"function"},{"inputs":[],"name":"owner","outputs":[{"internalType":"address","name":"","type":"address"}],"stateMutability":"view","type":"function"},{"inputs":[],"name":"pauseContract","outputs":[],"stateMutability":"nonpayable","type":"function"},{"inputs":[],"name":"paused","outputs":[{"internalType":"bool","name":"","type":"bool"}],"stateMutability":"view","type":"function"},{"inputs":[],"name":"registry","outputs":[{"internalType":"contract ContractRegistry","name":"","type":"address"}],"stateMutability":"view","type":"function"},{"inputs":[{"internalType":"address","name":"_newOwner","type":"address"}],"name":"transferOwnership","outputs":[],"stateMutability":"nonpayable","type":"function"},{"inputs":[],"name":"unpauseContract","outputs":[],"stateMutability":"nonpayable","type":"function"},{"inputs":[{"internalType":"uint256","name":"_offerId","type":"uint256"},{"internalType":"uint256","name":"_tradeVolume","type":"uint256"},{"internalType":"bool","name":"_accepted","type":"bool"},{"internalType":"bool","name":"_completed","type":"bool"},{"internalType":"bool","name":"_disputed","type":"bool"},{"internalType":"bool","name":"_lost","type":"bool"},{"internalType":"uint256","name":"_disputeId","type":"uint256"}],"name":"updateOfferStats","outputs":[],"stateMutability":"nonpayable","type":"function"},{"inputs":[{"internalType":"address","name":"","type":"address"},{"internalType":"uint256","name":"","type":"uint256"}],"name":"userOffers","outputs":[{"internalType":"uint256","name":"","type":"uint256"}],"stateMutability":"view","type":"function"}],"evm":{"bytecode":{"linkReferences":{},"object":"6080346100c657601f6200264638819003918201601f19168301916001600160401b038311848410176100cb578084926020946040528339810103126100c657516001600160a01b038116908190036100c65780156100825760018060a01b03193381600054161760005560015416176001556040516125649081620000e28239f35b606460405162461bcd60e51b815260206004820152602060248201527f496e76616c696420436f6e7472616374526567697374727920616464726573736044820152fd5b600080fd5b634e487b7160e01b600052604160045260246000fdfe6101c0604052600436101561001357600080fd5b60003560e01c806310bcb2e2146120be5780631115c24d146120a05780632337c5151461192957806337e5814c14610dd8578063439766ce14610d285780634fb64be214610a325780635c975abb14610a0c578063661d2c2c146109585780636862a30d146109195780637b103999146108f05780638a72ea6a146107335780638da5cb5b1461070a578063b33712c514610666578063bd5fec651461060e578063d9efb457146101e1578063e7c84dee146101945763f2fde38b146100d857600080fd5b3461018f57602036600319011261018f576100f1612280565b6000546001600160a01b038082169261010b3385146124ca565b1691821561014a5782907f8be0079c531659141344cd1fd0a4f28419497f9722a3daafe3b4186f6b6457e0600080a36001600160a01b03191617600055005b60405162461bcd60e51b815260206004820152601960248201527f496e76616c6964206e6577206f776e65722061646472657373000000000000006044820152606490fd5b600080fd5b3461018f57604036600319011261018f576001600160a01b036101b5612280565b1660005260066020526040600020602435600052602052602060ff604060002054166040519015158152f35b3461018f5760e036600319011261018f5760246004356044358235811515820361018f5761020d612196565b610215612187565b9060a43590811515820361018f5760c4359186151580610602575b610239906123e2565b61024b60ff60005460a01c1615612489565b60018060a01b0393600195858754169560405180976324ed653d60e11b825281600460209a8b935afa9081156105f6576000916105c0575b5016330361056857841561052f5788600052600386526040600020936000986104f1575b61040f575b508798508097959697906103ec575b610387575b80610364575b6102fd575b50505050506102d657005b7fd66b67374d1f0cfe2efd9e7c89fbe05eab80e430747d044742774ec81a700721600080a2005b7f1974caaa56f2396b7a1eeec15c7637b135dff85ae0a1bad43e7f14cd03317dae9394955060040161032f81546123b0565b90558360005260058252604060002081600052825260406000208560ff19825416179055604051908152a282828180806102cb565b508360005260058352604060002082600052835260ff60406000205416156102c6565b95506003810161039781546123b0565b90558360005260058352604060002082600052835260406000208560ff19825416179055837fd86f9dd1c77d777f69bde5be40f3c0a44f83a19822ec9f1d01706d627b1a649584604051858152a284956102c0565b508460005260058452604060002083600052845260ff60406000205416156102bb565b90965060028301908661042283546123b0565b8084558a7f6510c4115e936f9940135bbcf97d3e4ef247410d1d0b00d0ca466d80d8a5c7fd89604051868152a211156104de57600584019182549054916000198301918383116104c9578281029281840414901517156104b457610485916123d5565b811561049f57899a50989697980490555b859496896102ac565b8a634e487b7160e01b60005260126004526000fd5b8b634e487b7160e01b60005260116004526000fd5b8c634e487b7160e01b60005260116004526000fd5b9050879850600583989697980155610496565b975086840161050081546123b0565b9055887f7c9e0b0754047e1ead631140358526ca151225070ab023c5dc9a68f77f77e774600080a286976102a7565b60405162461bcd60e51b8152600481018790526012818c015271125b9d985b1a5908191a5cdc1d5d1948125160721b6044820152606490fd5b60405162461bcd60e51b815260048101879052602b818c01527f4f6e6c7920547261646520636f6e74726163742063616e20706572666f726d2060448201526a3a3434b99030b1ba34b7b760a91b6064820152608490fd5b90508781813d83116105ef575b6105d781836121c1565b8101031261018f5751818116810361018f578c610283565b503d6105cd565b6040513d6000823e3d90fd5b50600254871115610230565b3461018f57604036600319011261018f57610627612280565b6001600160a01b031660009081526004602052604090208054602435919082101561018f5760209161065891612382565b90546040519160031b1c8152f35b3461018f57600036600319011261018f5760005461068e336001600160a01b038316146124ca565b60ff8160a01c16156106cc5760ff60a01b191660009081557f0e5e3b3fb504c22cf5c42fa07d521225937514c654007e1f12646f89768d6f949080a1005b60405162461bcd60e51b815260206004820152601660248201527510dbdb9d1c9858dd081a5cc81b9bdd081c185d5cd95960521b6044820152606490fd5b3461018f57600036600319011261018f576000546040516001600160a01b039091168152602090f35b3461018f57602036600319011261018f576004356000526003602052604060002080600160a01b60019003815416600182015490600283015460e0526003830154610100526004830154600584015460068501546007860154936008870161079a906122d0565b90600988015460ff1695600a89015493600b8a015495600c8b015460ff1697600d8c016107c6906122d0565b9a6107d3600e8e016122d0565b9c600f016107e0906122d0565b9d60108101546080526011016107f5906122d0565b60a05260405160c0526102409560c0515260c0516020015260e05160c051604001526101005160c0516060015260c0516080015260c05160a0015260c05160c0015260c05160e001528060c051610100015260c051016108549161225b565b9360c0516101200161086591612375565b60c051610140015260c0516101600152151560c051610180015260c051810360c0516101a001526108959161225b565b60c051810360c0516101c001526108ab9161225b565b60c051810360c0516101e001526108c19161225b565b60805160c051610200015260c051810360c051610220015260c0519060a051906108ea9161225b565b0360c051f35b3461018f57600036600319011261018f576001546040516001600160a01b039091168152602090f35b3461018f57604036600319011261018f5760043560005260056020526040600020602435600052602052602060ff604060002054166040519015158152f35b3461018f5760208060031936011261018f576001600160a01b0361097a612280565b1660005260048152604060002060405190818382549182815201908192600052846000209060005b868282106109f85786866109b8828803836121c1565b604051928392818401908285525180915260408401929160005b8281106109e157505050500390f35b8351855286955093810193928101926001016109d2565b8354855290930192600192830192016109a2565b3461018f57600036600319011261018f57602060ff60005460a01c166040519015158152f35b3461018f57602036600319011261018f5760043580151580610d1c575b610a58906123e2565b6000526003602052604060002060405190610a72826121a5565b80546001600160a01b0316825260018101546020830152600281015460408301526003810154606083015260048101546080830152600581015460a0830152600681015460c0830152600781015460e0830152610ad1600882016122d0565b61010083015260ff6009820154166003811015610d0657610b6291601191610120850152600a810154610140850152600b81015461016085015260ff600c820154161515610180850152610b27600d82016122d0565b6101a0850152610b39600e82016122d0565b6101c0850152610b4b600f82016122d0565b6101e08501526010810154610200850152016122d0565b6102208201528051602082015160408301516101805260608301516101a052608083015160a084015160c085015160e0860151610100870151610120880151919691949392916001600160a01b03166003861015610d06578897610140890151936101608a0151956101808b01511515976101a08c01519a6101c08d01519c6101e001519d610200810151610120526102200151610140526040516101605261024095610160515261016051602001526101805161016051604001526101a051610160516060015261016051608001526101605160a001526101605160c001526101605160e00152806101605161010001526101605101610c629161225b565b9315610160516101200152610160516101400152610160516101600152610160516101800152610160518103610160516101a00152610ca09161225b565b610160518103610160516101c00152610cb89161225b565b610160518103610160516101e00152610cd09161225b565b6101205161016051610200015261016051810361016051610220015261016051906101405190610cff9161225b565b0361016051f35b634e487b7160e01b600052602160045260246000fd5b50600254811115610a4f565b3461018f57600036600319011261018f57600054610d50336001600160a01b038316146124ca565b60ff8160a01c16610d935760ff60a01b1916600160a01b1760009081557fab35696f06e428ebc5ceba8cd17f8fed287baf43440206d1943af1ee53e6d2679080a1005b60405162461bcd60e51b815260206004820152601a60248201527f436f6e747261637420697320616c7265616479207061757365640000000000006044820152606490fd5b3461018f5761012036600319011261018f576044356001600160401b03811161018f57610e099036906004016121e2565b610e11612196565b906084356001600160401b03811161018f57610e319036906004016121e2565b60a4356001600160401b03811161018f57610e509036906004016121e2565b60c4356001600160401b03811161018f57610e6f9036906004016121e2565b610104356001600160401b03811161018f57610e8f9036906004016121e2565b91610ea260ff60005460a01c1615612489565b610eb26024356004351115612425565b8451156118e45783511561189f5780511561185a5781511561181d578251156117e0576040513360601b602082015260043560348201526024356054820152610f846095828851610f0a816074840160208d01612238565b8a151560f81b60748284010152885190610f2d8260758386010160208d01612238565b820101855190610f44826075830160208a01612238565b01865190610f59826075830160208b01612238565b0160e4356075820152875190610f758285830160208c01612238565b010360758101845201826121c1565b6020815191012033600052600660205260406000208160005260205260ff6040600020541661179b573360005260066020526040600020906000526020526040600020600160ff19825416179055610fdd6002546123b0565b938460025560405196610fef886121a5565b33885260006020890152600060408901526000606089015260006080890152600060a089015260043560c089015260243560e0890152866101008901526000610120890152426101408901524261016089015215156101808801526101a08701526101c08601526101e085015260e4356102008501526102208401526000526003602052604060002060018060a01b038351166bffffffffffffffffffffffff60a01b8254161781556020830151600182015560408301516002820155606083015160038201556080830151600482015560a0830151600582015560c0830151600682015560e083015160078201556101008301519283516001600160401b0381116113bc576111026008840154612296565b601f8111611754575b506020601f82116001146116e55781929394956000926116da575b50508160011b916000199060031b1c19161760088301555b6101208101516003811015610d065761115a9060098401612471565b610140810151600a830155610160810151600b8301556111906101808201511515600c84019060ff801983541691151516179055565b6101a08101519283516001600160401b0381116113bc576111b4600d850154612296565b601f8111611693575b506020601f8211600114611624578192939495600092611619575b50508160011b916000199060031b1c191617600d8401555b6101c08201519283516001600160401b0381116113bc57611214600e830154612296565b601f81116115d2575b506020601f8211600114611563578192939495600092611558575b50508160011b916000199060031b1c191617600e8201555b6101e08301519283516001600160401b0381116113bc57611274600f840154612296565b601f8111611511575b506020601f821160011461149d578190610220949596600092611492575b50508160011b916000199060031b1c191617600f8401555b610200810151601084015501518051906001600160401b0382116113bc576112de6011840154612296565b601f811161144b575b50602090601f83116001146113dd5760119291600091836113d2575b50508160011b916000199060031b1c1916179101555b3360005260046020526040600020600254908054680100000000000000008110156113bc5761134d91600182018155612382565b819291549060031b91821b91600019901b19161790556002547f4ff5427640a489b1309586ab0601b3a3efe935b24a10675c05b4c967c67e1af56113ac604051936004358552602435602086015260806040860152608085019061225b565b92600060608201528033940390a3005b634e487b7160e01b600052604160045260246000fd5b015190508580611303565b90601f198316916011850160005260206000209260005b8181106114335750916001939185601196941061141a575b505050811b01910155611319565b015160001960f88460031b161c1916905585808061140c565b929360206001819287860151815501950193016113f4565b601184016000526020600020601f840160051c81016020851061148b575b601f830160051c8201811061147f5750506112e7565b60008155600101611469565b5080611469565b01519050868061129b565b600f840160005260206000209560005b601f19841681106114f95750958291610220959697600194601f198116106114e0575b505050811b01600f8401556112b3565b015160001960f88460031b161c191690558680806114d0565b828201518855600190970196602092830192016114ad565b600f84016000526020600020601f830160051c810160208410611551575b601f830160051c8201811061154557505061127d565b6000815560010161152f565b508061152f565b015190508580611238565b600e830160005260206000209060005b601f19841681106115ba575060019394959683601f198116106115a1575b505050811b01600e820155611250565b015160001960f88460031b161c19169055858080611591565b9091602060018192858b015181550193019101611573565b600e83016000526020600020601f830160051c810160208410611612575b601f830160051c8201811061160657505061121d565b600081556001016115f0565b50806115f0565b0151905085806111d8565b600d850160005260206000209060005b601f198416811061167b575060019394959683601f19811610611662575b505050811b01600d8401556111f0565b015160001960f88460031b161c19169055858080611652565b9091602060018192858b015181550193019101611634565b600d85016000526020600020601f830160051c8101602084106116d3575b601f830160051c820181106116c75750506111bd565b600081556001016116b1565b50806116b1565b015190508580611126565b6008840160005260206000209060005b601f198416811061173c575060019394959683601f19811610611723575b505050811b01600883015561113e565b015160001960f88460031b161c19169055858080611713565b9091602060018192858b0151815501930191016116f5565b600884016000526020600020601f830160051c810160208410611794575b601f830160051c8201811061178857505061110b565b60008155600101611772565b5080611772565b60405162461bcd60e51b815260206004820152601a60248201527f4475706c6963617465206f6666657220706172616d65746572730000000000006044820152606490fd5b60405162461bcd60e51b81526020600482015260156024820152745469746c652063616e6e6f7420626520656d70747960581b6044820152606490fd5b60405162461bcd60e51b81526020600482015260156024820152745465726d732063616e6e6f7420626520656d70747960581b6044820152606490fd5b60405162461bcd60e51b815260206004820152601e60248201527f5061796d656e74206d6574686f642063616e6e6f7420626520656d70747900006044820152606490fd5b60405162461bcd60e51b815260206004820152601760248201527f436f756e7472792063616e6e6f7420626520656d7074790000000000000000006044820152606490fd5b60405162461bcd60e51b815260206004820152601d60248201527f466961742063757272656e63792063616e6e6f7420626520656d7074790000006044820152606490fd5b3461018f5761014036600319011261018f576003606435101561018f5761194e612187565b60a4356001600160401b03811161018f5761196d9036906004016121e2565b9060c4356001600160401b03811161018f5761198d9036906004016121e2565b9160e4356001600160401b03811161018f576119ad9036906004016121e2565b91610124356001600160401b03811161018f576119ce9036906004016121e2565b91600435151580612092575b6119e3906123e2565b6004356000908152600360205260409020546001600160a01b0316330361203f57611a146044356024351115612425565b6004356000526003602052611a5b6040600020926006840160243581541480159061202f575b611fe4575b5042600b850155600c84019060ff801983541691151516179055565b8051906001600160401b0382116113bc578190611a7b600d850154612296565b601f8111611f91575b50602090601f8311600114611f1f57600092611f14575b50508160011b916000199060031b1c191617600d8201555b83516001600160401b0381116113bc57611ad0600e830154612296565b601f8111611ecd575b506020601f8211600114611e5e578192939495600092611e53575b50508160011b916000199060031b1c191617600e8201555b82516001600160401b0381116113bc57611b29600f830154612296565b601f8111611e0c575b506020601f8211600114611d9e5781929394600092611d93575b50508160011b916000199060031b1c191617600f8201555b6101043560108201558151916001600160401b0383116113bc57611b8b6011830154612296565b601f8111611d4c575b50602090601f8411600114611cda576009939160009183611ccf575b50508160011b916000199060031b1c19161760118201555b60405160243581526044356020820152611be760408201606435612375565b7f717fc81b09bb28d1499ca69d8f6d21b741760663f18fe922dbe60d620edd02d6606060043592a20160ff8154166003811015610d065760643503611c2857005b611c359060643590612471565b606435600103611c6a576004357f8775e89363a51ba48aada8894a2b439b5661fbdb59f8c48bf080272e04e7a4d8600080a25b005b606435611c9b576004357f5f69fa7e73fc633eabbf61aa5ba9af951cb73bbb6c0c1378638af9323a998e52600080a2005b600260643503611c68576004357facbc44b7f46dc350c99fc0d9e5f61ed5c588cb4cdc6b69ea0deb0c5b28e5efc4600080a2005b015190508480611bb0565b906011830160005260206000209160005b601f1986168110611d345750918491600193600996601f19811610611d1b575b505050811b016011820155611bc8565b015160001960f88460031b161c19169055848080611d0b565b91926020600181928685015181550194019201611ceb565b601183016000526020600020601f850160051c810160208610611d8c575b601f830160051c82018110611d80575050611b94565b60008155600101611d6a565b5080611d6a565b015190508480611b4c565b600f830160005260206000209060005b601f1984168110611df45750600193949583601f19811610611ddb575b505050811b01600f820155611b64565b015160001960f88460031b161c19169055848080611dcb565b9091602060018192858a015181550193019101611dae565b600f83016000526020600020601f830160051c810160208410611e4c575b601f830160051c82018110611e40575050611b32565b60008155600101611e2a565b5080611e2a565b015190508580611af4565b600e830160005260206000209060005b601f1984168110611eb5575060019394959683601f19811610611e9c575b505050811b01600e820155611b0c565b015160001960f88460031b161c19169055858080611e8c565b9091602060018192858b015181550193019101611e6e565b600e83016000526020600020601f830160051c810160208410611f0d575b601f830160051c82018110611f01575050611ad9565b60008155600101611eeb565b5080611eeb565b015190508680611a9b565b9250600d84016000526020600020906000935b601f1984168510611f76576001945083601f19811610611f5d575b505050811b01600d820155611ab3565b015160001960f88460031b161c19169055868080611f4d565b81810151835560209485019460019093019290910190611f32565b909150600d84016000526020600020601f840160051c810160208510611fdd575b90849392915b601f830160051c82018110611fce575050611a84565b60008155859450600101611fb8565b5080611fb2565b60243590556044356007850155604051602435815260443560208201527f55d5258cbaf85df9ff05dc6686d48ac69a8348fb5a953140fa91f218d3af9cbe604060043592a287611a3f565b5060443560078601541415611a3a565b60405162461bcd60e51b815260206004820152602560248201527f4f6e6c79206f66666572206f776e65722063616e20757064617465207468652060448201526437b33332b960d91b6064820152608490fd5b5060025460043511156119da565b3461018f57600036600319011261018f576020600254604051908152f35b3461018f57600036600319011261018f576000806000806001936001600295600254965b878311156121085750505060809450604051938452602084015260408301526060820152f35b90919461217a612180918760009997969952600361216561214f61213960209a848c528960406000200154906123d5565b9b8b600052838b528760406000200154906123d5565b978a600052828a528260406000200154906123d5565b978960005252600460406000200154906123d5565b956123b0565b91906120e2565b60843590811515820361018f57565b60643590811515820361018f57565b61024081019081106001600160401b038211176113bc57604052565b90601f801991011681019081106001600160401b038211176113bc57604052565b81601f8201121561018f578035906001600160401b0382116113bc5760405192612216601f8401601f1916602001856121c1565b8284526020838301011161018f57816000926020809301838601378301015290565b60005b83811061224b5750506000910152565b818101518382015260200161223b565b9060209161227481518092818552858086019101612238565b601f01601f1916010190565b600435906001600160a01b038216820361018f57565b90600182811c921680156122c6575b60208310146122b057565b634e487b7160e01b600052602260045260246000fd5b91607f16916122a5565b906040519182600082546122e381612296565b908184526020946001916001811690816000146123535750600114612314575b505050612312925003836121c1565b565b600090815285812095935091905b81831061233b5750506123129350820101388080612303565b85548884018501529485019487945091830191612322565b9250505061231294925060ff191682840152151560051b820101388080612303565b906003821015610d065752565b805482101561239a5760005260206000200190600090565b634e487b7160e01b600052603260045260246000fd5b60001981146123bf5760010190565b634e487b7160e01b600052601160045260246000fd5b919082018092116123bf57565b156123e957565b60405162461bcd60e51b815260206004820152601460248201527313d999995c88191bd95cc81b9bdd08195e1a5cdd60621b6044820152606490fd5b1561242c57565b60405162461bcd60e51b815260206004820152601a60248201527f496e76616c696420747261646520616d6f756e742072616e67650000000000006044820152606490fd5b906003811015610d065760ff80198354169116179055565b1561249057565b60405162461bcd60e51b815260206004820152601260248201527110dbdb9d1c9858dd081a5cc81c185d5cd95960721b6044820152606490fd5b156124d157565b60405162461bcd60e51b815260206004820152602f60248201527f4f6e6c792074686520636f6e7472616374206f776e65722063616e207065726660448201526e37b936903a3434b99030b1ba34b7b760891b6064820152608490fdfea26469706673582212209859cc9663d0934d91ef477548d7cceeff8f382f66629360a850141836ba7cea64736f6c63430008180033","opcodes":"PUSH1 0x80 CALLVALUE PUSH2 0xC6 JUMPI PUSH1 0x1F PUSH3 0x2646 CODESIZE DUP2 SWAP1 SUB SWAP2 DUP3 ADD PUSH1 0x1F NOT AND DUP4 ADD SWAP2 PUSH1 0x1 PUSH1 0x1 PUSH1 0x40 SHL SUB DUP4 GT DUP5 DUP5 LT OR PUSH2 0xCB JUMPI DUP1 DUP5 SWAP3 PUSH1 0x20 SWAP5 PUSH1 0x40 MSTORE DUP4 CODECOPY DUP2 ADD SUB SLT PUSH2 0xC6 JUMPI MLOAD PUSH1 0x1 PUSH1 0x1 PUSH1 0xA0 SHL SUB DUP2 AND SWAP1 DUP2 SWAP1 SUB PUSH2 0xC6 JUMPI DUP1 ISZERO PUSH2 0x82 JUMPI PUSH1 0x1 DUP1 PUSH1 0xA0 SHL SUB NOT CALLER DUP2 PUSH1 0x0 SLOAD AND OR PUSH1 0x0 SSTORE PUSH1 0x1 SLOAD AND OR PUSH1 0x1 SSTORE PUSH1 0x40 MLOAD PUSH2 0x2564 SWAP1 DUP2 PUSH3 0xE2 DUP3 CODECOPY RETURN JUMPDEST PUSH1 0x64 PUSH1 0x40 MLOAD PUSH3 0x461BCD PUSH1 0xE5 SHL DUP2 MSTORE PUSH1 0x20 PUSH1 0x4 DUP3 ADD MSTORE PUSH1 0x20 PUSH1 0x24 DUP3 ADD MSTORE PUSH32 0x496E76616C696420436F6E747261637452656769737472792061646472657373 PUSH1 0x44 DUP3 ADD MSTORE REVERT JUMPDEST PUSH1 0x0 DUP1 REVERT JUMPDEST PUSH4 0x4E487B71 PUSH1 0xE0 SHL PUSH1 0x0 MSTORE PUSH1 0x41 PUSH1 0x4 MSTORE PUSH1 0x24 PUSH1 0x0 REVERT INVALID PUSH2 0x1C0 PUSH1 0x40 MSTORE PUSH1 0x4 CALLDATASIZE LT ISZERO PUSH2 0x13 JUMPI PUSH1 0x0 DUP1 REVERT JUMPDEST PUSH1 0x0 CALLDATALOAD PUSH1 0xE0 SHR DUP1 PUSH4 0x10BCB2E2 EQ PUSH2 0x20BE JUMPI DUP1 PUSH4 0x1115C24D EQ PUSH2 0x20A0 JUMPI DUP1 PUSH4 0x2337C515 EQ PUSH2 0x1929 JUMPI DUP1 PUSH4 0x37E5814C EQ PUSH2 0xDD8 JUMPI DUP1 PUSH4 0x439766CE EQ PUSH2 0xD28 JUMPI DUP1 PUSH4 0x4FB64BE2 EQ PUSH2 0xA32 JUMPI DUP1 PUSH4 0x5C975ABB EQ PUSH2 0xA0C JUMPI DUP1 PUSH4 0x661D2C2C EQ PUSH2 0x958 JUMPI DUP1 PUSH4 0x6862A30D EQ PUSH2 0x919 JUMPI DUP1 PUSH4 0x7B103999 EQ PUSH2 0x8F0 JUMPI DUP1 PUSH4 0x8A72EA6A EQ PUSH2 0x733 JUMPI DUP1 PUSH4 0x8DA5CB5B EQ PUSH2 0x70A JUMPI DUP1 PUSH4 0xB33712C5 EQ PUSH2 0x666 JUMPI DUP1 PUSH4 0xBD5FEC65 EQ PUSH2 0x60E JUMPI DUP1 PUSH4 0xD9EFB457 EQ PUSH2 0x1E1 JUMPI DUP1 PUSH4 0xE7C84DEE EQ PUSH2 0x194 JUMPI PUSH4 0xF2FDE38B EQ PUSH2 0xD8 JUMPI PUSH1 0x0 DUP1 REVERT JUMPDEST CALLVALUE PUSH2 0x18F JUMPI PUSH1 0x20 CALLDATASIZE PUSH1 0x3 NOT ADD SLT PUSH2 0x18F JUMPI PUSH2 0xF1 PUSH2 0x2280 JUMP JUMPDEST PUSH1 0x0 SLOAD PUSH1 0x1 PUSH1 0x1 PUSH1 0xA0 SHL SUB DUP1 DUP3 AND SWAP3 PUSH2 0x10B CALLER DUP6 EQ PUSH2 0x24CA JUMP JUMPDEST AND SWAP2 DUP3 ISZERO PUSH2 0x14A JUMPI DUP3 SWAP1 PUSH32 0x8BE0079C531659141344CD1FD0A4F28419497F9722A3DAAFE3B4186F6B6457E0 PUSH1 0x0 DUP1 LOG3 PUSH1 0x1 PUSH1 0x1 PUSH1 0xA0 SHL SUB NOT AND OR PUSH1 0x0 SSTORE STOP JUMPDEST PUSH1 0x40 MLOAD PUSH3 0x461BCD PUSH1 0xE5 SHL DUP2 MSTORE PUSH1 0x20 PUSH1 0x4 DUP3 ADD MSTORE PUSH1 0x19 PUSH1 0x24 DUP3 ADD MSTORE PUSH32 0x496E76616C6964206E6577206F776E6572206164647265737300000000000000 PUSH1 0x44 DUP3 ADD MSTORE PUSH1 0x64 SWAP1 REVERT JUMPDEST PUSH1 0x0 DUP1 REVERT JUMPDEST CALLVALUE PUSH2 0x18F JUMPI PUSH1 0x40 CALLDATASIZE PUSH1 0x3 NOT ADD SLT PUSH2 0x18F JUMPI PUSH1 0x1 PUSH1 0x1 PUSH1 0xA0 SHL SUB PUSH2 0x1B5 PUSH2 0x2280 JUMP JUMPDEST AND PUSH1 0x0 MSTORE PUSH1 0x6 PUSH1 0x20 MSTORE PUSH1 0x40 PUSH1 0x0 KECCAK256 PUSH1 0x24 CALLDATALOAD PUSH1 0x0 MSTORE PUSH1 0x20 MSTORE PUSH1 0x20 PUSH1 0xFF PUSH1 0x40 PUSH1 0x0 KECCAK256 SLOAD AND PUSH1 0x40 MLOAD SWAP1 ISZERO ISZERO DUP2 MSTORE RETURN JUMPDEST CALLVALUE PUSH2 0x18F JUMPI PUSH1 0xE0 CALLDATASIZE PUSH1 0x3 NOT ADD SLT PUSH2 0x18F JUMPI PUSH1 0x24 PUSH1 0x4 CALLDATALOAD PUSH1 0x44 CALLDATALOAD DUP3 CALLDATALOAD DUP2 ISZERO ISZERO DUP3 SUB PUSH2 0x18F JUMPI PUSH2 0x20D PUSH2 0x2196 JUMP JUMPDEST PUSH2 0x215 PUSH2 0x2187 JUMP JUMPDEST SWAP1 PUSH1 0xA4 CALLDATALOAD SWAP1 DUP2 ISZERO ISZERO DUP3 SUB PUSH2 0x18F JUMPI PUSH1 0xC4 CALLDATALOAD SWAP2 DUP7 ISZERO ISZERO DUP1 PUSH2 0x602 JUMPI JUMPDEST PUSH2 0x239 SWAP1 PUSH2 0x23E2 JUMP JUMPDEST PUSH2 0x24B PUSH1 0xFF PUSH1 0x0 SLOAD PUSH1 0xA0 SHR AND ISZERO PUSH2 0x2489 JUMP JUMPDEST PUSH1 0x1 DUP1 PUSH1 0xA0 SHL SUB SWAP4 PUSH1 0x1 SWAP6 DUP6 DUP8 SLOAD AND SWAP6 PUSH1 0x40 MLOAD DUP1 SWAP8 PUSH4 0x24ED653D PUSH1 0xE1 SHL DUP3 MSTORE DUP2 PUSH1 0x4 PUSH1 0x20 SWAP11 DUP12 SWAP4 GAS STATICCALL SWAP1 DUP2 ISZERO PUSH2 0x5F6 JUMPI PUSH1 0x0 SWAP2 PUSH2 0x5C0 JUMPI JUMPDEST POP AND CALLER SUB PUSH2 0x568 JUMPI DUP5 ISZERO PUSH2 0x52F JUMPI DUP9 PUSH1 0x0 MSTORE PUSH1 0x3 DUP7 MSTORE PUSH1 0x40 PUSH1 0x0 KECCAK256 SWAP4 PUSH1 0x0 SWAP9 PUSH2 0x4F1 JUMPI JUMPDEST PUSH2 0x40F JUMPI JUMPDEST POP DUP8 SWAP9 POP DUP1 SWAP8 SWAP6 SWAP7 SWAP8 SWAP1 PUSH2 0x3EC JUMPI JUMPDEST PUSH2 0x387 JUMPI JUMPDEST DUP1 PUSH2 0x364 JUMPI JUMPDEST PUSH2 0x2FD JUMPI JUMPDEST POP POP POP POP POP PUSH2 0x2D6 JUMPI STOP JUMPDEST PUSH32 0xD66B67374D1F0CFE2EFD9E7C89FBE05EAB80E430747D044742774EC81A700721 PUSH1 0x0 DUP1 LOG2 STOP JUMPDEST PUSH32 0x1974CAAA56F2396B7A1EEEC15C7637B135DFF85AE0A1BAD43E7F14CD03317DAE SWAP4 SWAP5 SWAP6 POP PUSH1 0x4 ADD PUSH2 0x32F DUP2 SLOAD PUSH2 0x23B0 JUMP JUMPDEST SWAP1 SSTORE DUP4 PUSH1 0x0 MSTORE PUSH1 0x5 DUP3 MSTORE PUSH1 0x40 PUSH1 0x0 KECCAK256 DUP2 PUSH1 0x0 MSTORE DUP3 MSTORE PUSH1 0x40 PUSH1 0x0 KECCAK256 DUP6 PUSH1 0xFF NOT DUP3 SLOAD AND OR SWAP1 SSTORE PUSH1 0x40 MLOAD SWAP1 DUP2 MSTORE LOG2 DUP3 DUP3 DUP2 DUP1 DUP1 PUSH2 0x2CB JUMP JUMPDEST POP DUP4 PUSH1 0x0 MSTORE PUSH1 0x5 DUP4 MSTORE PUSH1 0x40 PUSH1 0x0 KECCAK256 DUP3 PUSH1 0x0 MSTORE DUP4 MSTORE PUSH1 0xFF PUSH1 0x40 PUSH1 0x0 KECCAK256 SLOAD AND ISZERO PUSH2 0x2C6 JUMP JUMPDEST SWAP6 POP PUSH1 0x3 DUP2 ADD PUSH2 0x397 DUP2 SLOAD PUSH2 0x23B0 JUMP JUMPDEST SWAP1 SSTORE DUP4 PUSH1 0x0 MSTORE PUSH1 0x5 DUP4 MSTORE PUSH1 0x40 PUSH1 0x0 KECCAK256 DUP3 PUSH1 0x0 MSTORE DUP4 MSTORE PUSH1 0x40 PUSH1 0x0 KECCAK256 DUP6 PUSH1 0xFF NOT DUP3 SLOAD AND OR SWAP1 SSTORE DUP4 PUSH32 0xD86F9DD1C77D777F69BDE5BE40F3C0A44F83A19822EC9F1D01706D627B1A6495 DUP5 PUSH1 0x40 MLOAD DUP6 DUP2 MSTORE LOG2 DUP5 SWAP6 PUSH2 0x2C0 JUMP JUMPDEST POP DUP5 PUSH1 0x0 MSTORE PUSH1 0x5 DUP5 MSTORE PUSH1 0x40 PUSH1 0x0 KECCAK256 DUP4 PUSH1 0x0 MSTORE DUP5 MSTORE PUSH1 0xFF PUSH1 0x40 PUSH1 0x0 KECCAK256 SLOAD AND ISZERO PUSH2 0x2BB JUMP JUMPDEST SWAP1 SWAP7 POP PUSH1 0x2 DUP4 ADD SWAP1 DUP7 PUSH2 0x422 DUP4 SLOAD PUSH2 0x23B0 JUMP JUMPDEST DUP1 DUP5 SSTORE DUP11 PUSH32 0x6510C4115E936F9940135BBCF97D3E4EF247410D1D0B00D0CA466D80D8A5C7FD DUP10 PUSH1 0x40 MLOAD DUP7 DUP2 MSTORE LOG2 GT ISZERO PUSH2 0x4DE JUMPI PUSH1 0x5 DUP5 ADD SWAP2 DUP3 SLOAD SWAP1 SLOAD SWAP2 PUSH1 0x0 NOT DUP4 ADD SWAP2 DUP4 DUP4 GT PUSH2 0x4C9 JUMPI DUP3 DUP2 MUL SWAP3 DUP2 DUP5 DIV EQ SWAP1 ISZERO OR ISZERO PUSH2 0x4B4 JUMPI PUSH2 0x485 SWAP2 PUSH2 0x23D5 JUMP JUMPDEST DUP2 ISZERO PUSH2 0x49F JUMPI DUP10 SWAP11 POP SWAP9 SWAP7 SWAP8 SWAP9 DIV SWAP1 SSTORE JUMPDEST DUP6 SWAP5 SWAP7 DUP10 PUSH2 0x2AC JUMP JUMPDEST DUP11 PUSH4 0x4E487B71 PUSH1 0xE0 SHL PUSH1 0x0 MSTORE PUSH1 0x12 PUSH1 0x4 MSTORE PUSH1 0x0 REVERT JUMPDEST DUP12 PUSH4 0x4E487B71 PUSH1 0xE0 SHL PUSH1 0x0 MSTORE PUSH1 0x11 PUSH1 0x4 MSTORE PUSH1 0x0 REVERT JUMPDEST DUP13 PUSH4 0x4E487B71 PUSH1 0xE0 SHL PUSH1 0x0 MSTORE PUSH1 0x11 PUSH1 0x4 MSTORE PUSH1 0x0 REVERT JUMPDEST SWAP1 POP DUP8 SWAP9 POP PUSH1 0x5 DUP4 SWAP9 SWAP7 SWAP8 SWAP9 ADD SSTORE PUSH2 0x496 JUMP JUMPDEST SWAP8 POP DUP7 DUP5 ADD PUSH2 0x500 DUP2 SLOAD PUSH2 0x23B0 JUMP JUMPDEST SWAP1 SSTORE DUP9 PUSH32 0x7C9E0B0754047E1EAD631140358526CA151225070AB023C5DC9A68F77F77E774 PUSH1 0x0 DUP1 LOG2 DUP7 SWAP8 PUSH2 0x2A7 JUMP JUMPDEST PUSH1 0x40 MLOAD PUSH3 0x461BCD PUSH1 0xE5 SHL DUP2 MSTORE PUSH1 0x4 DUP2 ADD DUP8 SWAP1 MSTORE PUSH1 0x12 DUP2 DUP13 ADD MSTORE PUSH18 0x125B9D985B1A5908191A5CDC1D5D19481251 PUSH1 0x72 SHL PUSH1 0x44 DUP3 ADD MSTORE PUSH1 0x64 SWAP1 REVERT JUMPDEST PUSH1 0x40 MLOAD PUSH3 0x461BCD PUSH1 0xE5 SHL DUP2 MSTORE PUSH1 0x4 DUP2 ADD DUP8 SWAP1 MSTORE PUSH1 0x2B DUP2 DUP13 ADD MSTORE PUSH32 0x4F6E6C7920547261646520636F6E74726163742063616E20706572666F726D20 PUSH1 0x44 DUP3 ADD MSTORE PUSH11 0x3A3434B99030B1BA34B7B7 PUSH1 0xA9 SHL PUSH1 0x64 DUP3 ADD MSTORE PUSH1 0x84 SWAP1 REVERT JUMPDEST SWAP1 POP DUP8 DUP2 DUP2 RETURNDATASIZE DUP4 GT PUSH2 0x5EF JUMPI JUMPDEST PUSH2 0x5D7 DUP2 DUP4 PUSH2 0x21C1 JUMP JUMPDEST DUP2 ADD SUB SLT PUSH2 0x18F JUMPI MLOAD DUP2 DUP2 AND DUP2 SUB PUSH2 0x18F JUMPI DUP13 PUSH2 0x283 JUMP JUMPDEST POP RETURNDATASIZE PUSH2 0x5CD JUMP JUMPDEST PUSH1 0x40 MLOAD RETURNDATASIZE PUSH1 0x0 DUP3 RETURNDATACOPY RETURNDATASIZE SWAP1 REVERT JUMPDEST POP PUSH1 0x2 SLOAD DUP8 GT ISZERO PUSH2 0x230 JUMP JUMPDEST CALLVALUE PUSH2 0x18F JUMPI PUSH1 0x40 CALLDATASIZE PUSH1 0x3 NOT ADD SLT PUSH2 0x18F JUMPI PUSH2 0x627 PUSH2 0x2280 JUMP JUMPDEST PUSH1 0x1 PUSH1 0x1 PUSH1 0xA0 SHL SUB AND PUSH1 0x0 SWAP1 DUP2 MSTORE PUSH1 0x4 PUSH1 0x20 MSTORE PUSH1 0x40 SWAP1 KECCAK256 DUP1 SLOAD PUSH1 0x24 CALLDATALOAD SWAP2 SWAP1 DUP3 LT ISZERO PUSH2 0x18F JUMPI PUSH1 0x20 SWAP2 PUSH2 0x658 SWAP2 PUSH2 0x2382 JUMP JUMPDEST SWAP1 SLOAD PUSH1 0x40 MLOAD SWAP2 PUSH1 0x3 SHL SHR DUP2 MSTORE RETURN JUMPDEST CALLVALUE PUSH2 0x18F JUMPI PUSH1 0x0 CALLDATASIZE PUSH1 0x3 NOT ADD SLT PUSH2 0x18F JUMPI PUSH1 0x0 SLOAD PUSH2 0x68E CALLER PUSH1 0x1 PUSH1 0x1 PUSH1 0xA0 SHL SUB DUP4 AND EQ PUSH2 0x24CA JUMP JUMPDEST PUSH1 0xFF DUP2 PUSH1 0xA0 SHR AND ISZERO PUSH2 0x6CC JUMPI PUSH1 0xFF PUSH1 0xA0 SHL NOT AND PUSH1 0x0 SWAP1 DUP2 SSTORE PUSH32 0xE5E3B3FB504C22CF5C42FA07D521225937514C654007E1F12646F89768D6F94 SWAP1 DUP1 LOG1 STOP JUMPDEST PUSH1 0x40 MLOAD PUSH3 0x461BCD PUSH1 0xE5 SHL DUP2 MSTORE PUSH1 0x20 PUSH1 0x4 DUP3 ADD MSTORE PUSH1 0x16 PUSH1 0x24 DUP3 ADD MSTORE PUSH22 0x10DBDB9D1C9858DD081A5CC81B9BDD081C185D5CD959 PUSH1 0x52 SHL PUSH1 0x44 DUP3 ADD MSTORE PUSH1 0x64 SWAP1 REVERT JUMPDEST CALLVALUE PUSH2 0x18F JUMPI PUSH1 0x0 CALLDATASIZE PUSH1 0x3 NOT ADD SLT PUSH2 0x18F JUMPI PUSH1 0x0 SLOAD PUSH1 0x40 MLOAD PUSH1 0x1 PUSH1 0x1 PUSH1 0xA0 SHL SUB SWAP1 SWAP2 AND DUP2 MSTORE PUSH1 0x20 SWAP1 RETURN JUMPDEST CALLVALUE PUSH2 0x18F JUMPI PUSH1 0x20 CALLDATASIZE PUSH1 0x3 NOT ADD SLT PUSH2 0x18F JUMPI PUSH1 0x4 CALLDATALOAD PUSH1 0x0 MSTORE PUSH1 0x3 PUSH1 0x20 MSTORE PUSH1 0x40 PUSH1 0x0 KECCAK256 DUP1 PUSH1 0x1 PUSH1 0xA0 SHL PUSH1 0x1 SWAP1 SUB DUP2 SLOAD AND PUSH1 0x1 DUP3 ADD SLOAD SWAP1 PUSH1 0x2 DUP4 ADD SLOAD PUSH1 0xE0 MSTORE PUSH1 0x3 DUP4 ADD SLOAD PUSH2 0x100 MSTORE PUSH1 0x4 DUP4 ADD SLOAD PUSH1 0x5 DUP5 ADD SLOAD PUSH1 0x6 DUP6 ADD SLOAD PUSH1 0x7 DUP7 ADD SLOAD SWAP4 PUSH1 0x8 DUP8 ADD PUSH2 0x79A SWAP1 PUSH2 0x22D0 JUMP JUMPDEST SWAP1 PUSH1 0x9 DUP9 ADD SLOAD PUSH1 0xFF AND SWAP6 PUSH1 0xA DUP10 ADD SLOAD SWAP4 PUSH1 0xB DUP11 ADD SLOAD SWAP6 PUSH1 0xC DUP12 ADD SLOAD PUSH1 0xFF AND SWAP8 PUSH1 0xD DUP13 ADD PUSH2 0x7C6 SWAP1 PUSH2 0x22D0 JUMP JUMPDEST SWAP11 PUSH2 0x7D3 PUSH1 0xE DUP15 ADD PUSH2 0x22D0 JUMP JUMPDEST SWAP13 PUSH1 0xF ADD PUSH2 0x7E0 SWAP1 PUSH2 0x22D0 JUMP JUMPDEST SWAP14 PUSH1 0x10 DUP2 ADD SLOAD PUSH1 0x80 MSTORE PUSH1 0x11 ADD PUSH2 0x7F5 SWAP1 PUSH2 0x22D0 JUMP JUMPDEST PUSH1 0xA0 MSTORE PUSH1 0x40 MLOAD PUSH1 0xC0 MSTORE PUSH2 0x240 SWAP6 PUSH1 0xC0 MLOAD MSTORE PUSH1 0xC0 MLOAD PUSH1 0x20 ADD MSTORE PUSH1 0xE0 MLOAD PUSH1 0xC0 MLOAD PUSH1 0x40 ADD MSTORE PUSH2 0x100 MLOAD PUSH1 0xC0 MLOAD PUSH1 0x60 ADD MSTORE PUSH1 0xC0 MLOAD PUSH1 0x80 ADD MSTORE PUSH1 0xC0 MLOAD PUSH1 0xA0 ADD MSTORE PUSH1 0xC0 MLOAD PUSH1 0xC0 ADD MSTORE PUSH1 0xC0 MLOAD PUSH1 0xE0 ADD MSTORE DUP1 PUSH1 0xC0 MLOAD PUSH2 0x100 ADD MSTORE PUSH1 0xC0 MLOAD ADD PUSH2 0x854 SWAP2 PUSH2 0x225B JUMP JUMPDEST SWAP4 PUSH1 0xC0 MLOAD PUSH2 0x120 ADD PUSH2 0x865 SWAP2 PUSH2 0x2375 JUMP JUMPDEST PUSH1 0xC0 MLOAD PUSH2 0x140 ADD MSTORE PUSH1 0xC0 MLOAD PUSH2 0x160 ADD MSTORE ISZERO ISZERO PUSH1 0xC0 MLOAD PUSH2 0x180 ADD MSTORE PUSH1 0xC0 MLOAD DUP2 SUB PUSH1 0xC0 MLOAD PUSH2 0x1A0 ADD MSTORE PUSH2 0x895 SWAP2 PUSH2 0x225B JUMP JUMPDEST PUSH1 0xC0 MLOAD DUP2 SUB PUSH1 0xC0 MLOAD PUSH2 0x1C0 ADD MSTORE PUSH2 0x8AB SWAP2 PUSH2 0x225B JUMP JUMPDEST PUSH1 0xC0 MLOAD DUP2 SUB PUSH1 0xC0 MLOAD PUSH2 0x1E0 ADD MSTORE PUSH2 0x8C1 SWAP2 PUSH2 0x225B JUMP JUMPDEST PUSH1 0x80 MLOAD PUSH1 0xC0 MLOAD PUSH2 0x200 ADD MSTORE PUSH1 0xC0 MLOAD DUP2 SUB PUSH1 0xC0 MLOAD PUSH2 0x220 ADD MSTORE PUSH1 0xC0 MLOAD SWAP1 PUSH1 0xA0 MLOAD SWAP1 PUSH2 0x8EA SWAP2 PUSH2 0x225B JUMP JUMPDEST SUB PUSH1 0xC0 MLOAD RETURN JUMPDEST CALLVALUE PUSH2 0x18F JUMPI PUSH1 0x0 CALLDATASIZE PUSH1 0x3 NOT ADD SLT PUSH2 0x18F JUMPI PUSH1 0x1 SLOAD PUSH1 0x40 MLOAD PUSH1 0x1 PUSH1 0x1 PUSH1 0xA0 SHL SUB SWAP1 SWAP2 AND DUP2 MSTORE PUSH1 0x20 SWAP1 RETURN JUMPDEST CALLVALUE PUSH2 0x18F JUMPI PUSH1 0x40 CALLDATASIZE PUSH1 0x3 NOT ADD SLT PUSH2 0x18F JUMPI PUSH1 0x4 CALLDATALOAD PUSH1 0x0 MSTORE PUSH1 0x5 PUSH1 0x20 MSTORE PUSH1 0x40 PUSH1 0x0 KECCAK256 PUSH1 0x24 CALLDATALOAD PUSH1 0x0 MSTORE PUSH1 0x20 MSTORE PUSH1 0x20 PUSH1 0xFF PUSH1 0x40 PUSH1 0x0 KECCAK256 SLOAD AND PUSH1 0x40 MLOAD SWAP1 ISZERO ISZERO DUP2 MSTORE RETURN JUMPDEST CALLVALUE PUSH2 0x18F JUMPI PUSH1 0x20 DUP1 PUSH1 0x3 NOT CALLDATASIZE ADD SLT PUSH2 0x18F JUMPI PUSH1 0x1 PUSH1 0x1 PUSH1 0xA0 SHL SUB PUSH2 0x97A PUSH2 0x2280 JUMP JUMPDEST AND PUSH1 0x0 MSTORE PUSH1 0x4 DUP2 MSTORE PUSH1 0x40 PUSH1 0x0 KECCAK256 PUSH1 0x40 MLOAD SWAP1 DUP2 DUP4 DUP3 SLOAD SWAP2 DUP3 DUP2 MSTORE ADD SWAP1 DUP2 SWAP3 PUSH1 0x0 MSTORE DUP5 PUSH1 0x0 KECCAK256 SWAP1 PUSH1 0x0 JUMPDEST DUP7 DUP3 DUP3 LT PUSH2 0x9F8 JUMPI DUP7 DUP7 PUSH2 0x9B8 DUP3 DUP9 SUB DUP4 PUSH2 0x21C1 JUMP JUMPDEST PUSH1 0x40 MLOAD SWAP3 DUP4 SWAP3 DUP2 DUP5 ADD SWAP1 DUP3 DUP6 MSTORE MLOAD DUP1 SWAP2 MSTORE PUSH1 0x40 DUP5 ADD SWAP3 SWAP2 PUSH1 0x0 JUMPDEST DUP3 DUP2 LT PUSH2 0x9E1 JUMPI POP POP POP POP SUB SWAP1 RETURN JUMPDEST DUP4 MLOAD DUP6 MSTORE DUP7 SWAP6 POP SWAP4 DUP2 ADD SWAP4 SWAP3 DUP2 ADD SWAP3 PUSH1 0x1 ADD PUSH2 0x9D2 JUMP JUMPDEST DUP4 SLOAD DUP6 MSTORE SWAP1 SWAP4 ADD SWAP3 PUSH1 0x1 SWAP3 DUP4 ADD SWAP3 ADD PUSH2 0x9A2 JUMP JUMPDEST CALLVALUE PUSH2 0x18F JUMPI PUSH1 0x0 CALLDATASIZE PUSH1 0x3 NOT ADD SLT PUSH2 0x18F JUMPI PUSH1 0x20 PUSH1 0xFF PUSH1 0x0 SLOAD PUSH1 0xA0 SHR AND PUSH1 0x40 MLOAD SWAP1 ISZERO ISZERO DUP2 MSTORE RETURN JUMPDEST CALLVALUE PUSH2 0x18F JUMPI PUSH1 0x20 CALLDATASIZE PUSH1 0x3 NOT ADD SLT PUSH2 0x18F JUMPI PUSH1 0x4 CALLDATALOAD DUP1 ISZERO ISZERO DUP1 PUSH2 0xD1C JUMPI JUMPDEST PUSH2 0xA58 SWAP1 PUSH2 0x23E2 JUMP JUMPDEST PUSH1 0x0 MSTORE PUSH1 0x3 PUSH1 0x20 MSTORE PUSH1 0x40 PUSH1 0x0 KECCAK256 PUSH1 0x40 MLOAD SWAP1 PUSH2 0xA72 DUP3 PUSH2 0x21A5 JUMP JUMPDEST DUP1 SLOAD PUSH1 0x1 PUSH1 0x1 PUSH1 0xA0 SHL SUB AND DUP3 MSTORE PUSH1 0x1 DUP2 ADD SLOAD PUSH1 0x20 DUP4 ADD MSTORE PUSH1 0x2 DUP2 ADD SLOAD PUSH1 0x40 DUP4 ADD MSTORE PUSH1 0x3 DUP2 ADD SLOAD PUSH1 0x60 DUP4 ADD MSTORE PUSH1 0x4 DUP2 ADD SLOAD PUSH1 0x80 DUP4 ADD MSTORE PUSH1 0x5 DUP2 ADD SLOAD PUSH1 0xA0 DUP4 ADD MSTORE PUSH1 0x6 DUP2 ADD SLOAD PUSH1 0xC0 DUP4 ADD MSTORE PUSH1 0x7 DUP2 ADD SLOAD PUSH1 0xE0 DUP4 ADD MSTORE PUSH2 0xAD1 PUSH1 0x8 DUP3 ADD PUSH2 0x22D0 JUMP JUMPDEST PUSH2 0x100 DUP4 ADD MSTORE PUSH1 0xFF PUSH1 0x9 DUP3 ADD SLOAD AND PUSH1 0x3 DUP2 LT ISZERO PUSH2 0xD06 JUMPI PUSH2 0xB62 SWAP2 PUSH1 0x11 SWAP2 PUSH2 0x120 DUP6 ADD MSTORE PUSH1 0xA DUP2 ADD SLOAD PUSH2 0x140 DUP6 ADD MSTORE PUSH1 0xB DUP2 ADD SLOAD PUSH2 0x160 DUP6 ADD MSTORE PUSH1 0xFF PUSH1 0xC DUP3 ADD SLOAD AND ISZERO ISZERO PUSH2 0x180 DUP6 ADD MSTORE PUSH2 0xB27 PUSH1 0xD DUP3 ADD PUSH2 0x22D0 JUMP JUMPDEST PUSH2 0x1A0 DUP6 ADD MSTORE PUSH2 0xB39 PUSH1 0xE DUP3 ADD PUSH2 0x22D0 JUMP JUMPDEST PUSH2 0x1C0 DUP6 ADD MSTORE PUSH2 0xB4B PUSH1 0xF DUP3 ADD PUSH2 0x22D0 JUMP JUMPDEST PUSH2 0x1E0 DUP6 ADD MSTORE PUSH1 0x10 DUP2 ADD SLOAD PUSH2 0x200 DUP6 ADD MSTORE ADD PUSH2 0x22D0 JUMP JUMPDEST PUSH2 0x220 DUP3 ADD MSTORE DUP1 MLOAD PUSH1 0x20 DUP3 ADD MLOAD PUSH1 0x40 DUP4 ADD MLOAD PUSH2 0x180 MSTORE PUSH1 0x60 DUP4 ADD MLOAD PUSH2 0x1A0 MSTORE PUSH1 0x80 DUP4 ADD MLOAD PUSH1 0xA0 DUP5 ADD MLOAD PUSH1 0xC0 DUP6 ADD MLOAD PUSH1 0xE0 DUP7 ADD MLOAD PUSH2 0x100 DUP8 ADD MLOAD PUSH2 0x120 DUP9 ADD MLOAD SWAP2 SWAP7 SWAP2 SWAP5 SWAP4 SWAP3 SWAP2 PUSH1 0x1 PUSH1 0x1 PUSH1 0xA0 SHL SUB AND PUSH1 0x3 DUP7 LT ISZERO PUSH2 0xD06 JUMPI DUP9 SWAP8 PUSH2 0x140 DUP10 ADD MLOAD SWAP4 PUSH2 0x160 DUP11 ADD MLOAD SWAP6 PUSH2 0x180 DUP12 ADD MLOAD ISZERO ISZERO SWAP8 PUSH2 0x1A0 DUP13 ADD MLOAD SWAP11 PUSH2 0x1C0 DUP14 ADD MLOAD SWAP13 PUSH2 0x1E0 ADD MLOAD SWAP14 PUSH2 0x200 DUP2 ADD MLOAD PUSH2 0x120 MSTORE PUSH2 0x220 ADD MLOAD PUSH2 0x140 MSTORE PUSH1 0x40 MLOAD PUSH2 0x160 MSTORE PUSH2 0x240 SWAP6 PUSH2 0x160 MLOAD MSTORE PUSH2 0x160 MLOAD PUSH1 0x20 ADD MSTORE PUSH2 0x180 MLOAD PUSH2 0x160 MLOAD PUSH1 0x40 ADD MSTORE PUSH2 0x1A0 MLOAD PUSH2 0x160 MLOAD PUSH1 0x60 ADD MSTORE PUSH2 0x160 MLOAD PUSH1 0x80 ADD MSTORE PUSH2 0x160 MLOAD PUSH1 0xA0 ADD MSTORE PUSH2 0x160 MLOAD PUSH1 0xC0 ADD MSTORE PUSH2 0x160 MLOAD PUSH1 0xE0 ADD MSTORE DUP1 PUSH2 0x160 MLOAD PUSH2 0x100 ADD MSTORE PUSH2 0x160 MLOAD ADD PUSH2 0xC62 SWAP2 PUSH2 0x225B JUMP JUMPDEST SWAP4 ISZERO PUSH2 0x160 MLOAD PUSH2 0x120 ADD MSTORE PUSH2 0x160 MLOAD PUSH2 0x140 ADD MSTORE PUSH2 0x160 MLOAD PUSH2 0x160 ADD MSTORE PUSH2 0x160 MLOAD PUSH2 0x180 ADD MSTORE PUSH2 0x160 MLOAD DUP2 SUB PUSH2 0x160 MLOAD PUSH2 0x1A0 ADD MSTORE PUSH2 0xCA0 SWAP2 PUSH2 0x225B JUMP JUMPDEST PUSH2 0x160 MLOAD DUP2 SUB PUSH2 0x160 MLOAD PUSH2 0x1C0 ADD MSTORE PUSH2 0xCB8 SWAP2 PUSH2 0x225B JUMP JUMPDEST PUSH2 0x160 MLOAD DUP2 SUB PUSH2 0x160 MLOAD PUSH2 0x1E0 ADD MSTORE PUSH2 0xCD0 SWAP2 PUSH2 0x225B JUMP JUMPDEST PUSH2 0x120 MLOAD PUSH2 0x160 MLOAD PUSH2 0x200 ADD MSTORE PUSH2 0x160 MLOAD DUP2 SUB PUSH2 0x160 MLOAD PUSH2 0x220 ADD MSTORE PUSH2 0x160 MLOAD SWAP1 PUSH2 0x140 MLOAD SWAP1 PUSH2 0xCFF SWAP2 PUSH2 0x225B JUMP JUMPDEST SUB PUSH2 0x160 MLOAD RETURN JUMPDEST PUSH4 0x4E487B71 PUSH1 0xE0 SHL PUSH1 0x0 MSTORE PUSH1 0x21 PUSH1 0x4 MSTORE PUSH1 0x24 PUSH1 0x0 REVERT JUMPDEST POP PUSH1 0x2 SLOAD DUP2 GT ISZERO PUSH2 0xA4F JUMP JUMPDEST CALLVALUE PUSH2 0x18F JUMPI PUSH1 0x0 CALLDATASIZE PUSH1 0x3 NOT ADD SLT PUSH2 0x18F JUMPI PUSH1 0x0 SLOAD PUSH2 0xD50 CALLER PUSH1 0x1 PUSH1 0x1 PUSH1 0xA0 SHL SUB DUP4 AND EQ PUSH2 0x24CA JUMP JUMPDEST PUSH1 0xFF DUP2 PUSH1 0xA0 SHR AND PUSH2 0xD93 JUMPI PUSH1 0xFF PUSH1 0xA0 SHL NOT AND PUSH1 0x1 PUSH1 0xA0 SHL OR PUSH1 0x0 SWAP1 DUP2 SSTORE PUSH32 0xAB35696F06E428EBC5CEBA8CD17F8FED287BAF43440206D1943AF1EE53E6D267 SWAP1 DUP1 LOG1 STOP JUMPDEST PUSH1 0x40 MLOAD PUSH3 0x461BCD PUSH1 0xE5 SHL DUP2 MSTORE PUSH1 0x20 PUSH1 0x4 DUP3 ADD MSTORE PUSH1 0x1A PUSH1 0x24 DUP3 ADD MSTORE PUSH32 0x436F6E747261637420697320616C726561647920706175736564000000000000 PUSH1 0x44 DUP3 ADD MSTORE PUSH1 0x64 SWAP1 REVERT JUMPDEST CALLVALUE PUSH2 0x18F JUMPI PUSH2 0x120 CALLDATASIZE PUSH1 0x3 NOT ADD SLT PUSH2 0x18F JUMPI PUSH1 0x44 CALLDATALOAD PUSH1 0x1 PUSH1 0x1 PUSH1 0x40 SHL SUB DUP2 GT PUSH2 0x18F JUMPI PUSH2 0xE09 SWAP1 CALLDATASIZE SWAP1 PUSH1 0x4 ADD PUSH2 0x21E2 JUMP JUMPDEST PUSH2 0xE11 PUSH2 0x2196 JUMP JUMPDEST SWAP1 PUSH1 0x84 CALLDATALOAD PUSH1 0x1 PUSH1 0x1 PUSH1 0x40 SHL SUB DUP2 GT PUSH2 0x18F JUMPI PUSH2 0xE31 SWAP1 CALLDATASIZE SWAP1 PUSH1 0x4 ADD PUSH2 0x21E2 JUMP JUMPDEST PUSH1 0xA4 CALLDATALOAD PUSH1 0x1 PUSH1 0x1 PUSH1 0x40 SHL SUB DUP2 GT PUSH2 0x18F JUMPI PUSH2 0xE50 SWAP1 CALLDATASIZE SWAP1 PUSH1 0x4 ADD PUSH2 0x21E2 JUMP JUMPDEST PUSH1 0xC4 CALLDATALOAD PUSH1 0x1 PUSH1 0x1 PUSH1 0x40 SHL SUB DUP2 GT PUSH2 0x18F JUMPI PUSH2 0xE6F SWAP1 CALLDATASIZE SWAP1 PUSH1 0x4 ADD PUSH2 0x21E2 JUMP JUMPDEST PUSH2 0x104 CALLDATALOAD PUSH1 0x1 PUSH1 0x1 PUSH1 0x40 SHL SUB DUP2 GT PUSH2 0x18F JUMPI PUSH2 0xE8F SWAP1 CALLDATASIZE SWAP1 PUSH1 0x4 ADD PUSH2 0x21E2 JUMP JUMPDEST SWAP2 PUSH2 0xEA2 PUSH1 0xFF PUSH1 0x0 SLOAD PUSH1 0xA0 SHR AND ISZERO PUSH2 0x2489 JUMP JUMPDEST PUSH2 0xEB2 PUSH1 0x24 CALLDATALOAD PUSH1 0x4 CALLDATALOAD GT ISZERO PUSH2 0x2425 JUMP JUMPDEST DUP5 MLOAD ISZERO PUSH2 0x18E4 JUMPI DUP4 MLOAD ISZERO PUSH2 0x189F JUMPI DUP1 MLOAD ISZERO PUSH2 0x185A JUMPI DUP2 MLOAD ISZERO PUSH2 0x181D JUMPI DUP3 MLOAD ISZERO PUSH2 0x17E0 JUMPI PUSH1 0x40 MLOAD CALLER PUSH1 0x60 SHL PUSH1 0x20 DUP3 ADD MSTORE PUSH1 0x4 CALLDATALOAD PUSH1 0x34 DUP3 ADD MSTORE PUSH1 0x24 CALLDATALOAD PUSH1 0x54 DUP3 ADD MSTORE PUSH2 0xF84 PUSH1 0x95 DUP3 DUP9 MLOAD PUSH2 0xF0A DUP2 PUSH1 0x74 DUP5 ADD PUSH1 0x20 DUP14 ADD PUSH2 0x2238 JUMP JUMPDEST DUP11 ISZERO ISZERO PUSH1 0xF8 SHL PUSH1 0x74 DUP3 DUP5 ADD ADD MSTORE DUP9 MLOAD SWAP1 PUSH2 0xF2D DUP3 PUSH1 0x75 DUP4 DUP7 ADD ADD PUSH1 0x20 DUP14 ADD PUSH2 0x2238 JUMP JUMPDEST DUP3 ADD ADD DUP6 MLOAD SWAP1 PUSH2 0xF44 DUP3 PUSH1 0x75 DUP4 ADD PUSH1 0x20 DUP11 ADD PUSH2 0x2238 JUMP JUMPDEST ADD DUP7 MLOAD SWAP1 PUSH2 0xF59 DUP3 PUSH1 0x75 DUP4 ADD PUSH1 0x20 DUP12 ADD PUSH2 0x2238 JUMP JUMPDEST ADD PUSH1 0xE4 CALLDATALOAD PUSH1 0x75 DUP3 ADD MSTORE DUP8 MLOAD SWAP1 PUSH2 0xF75 DUP3 DUP6 DUP4 ADD PUSH1 0x20 DUP13 ADD PUSH2 0x2238 JUMP JUMPDEST ADD SUB PUSH1 0x75 DUP2 ADD DUP5 MSTORE ADD DUP3 PUSH2 0x21C1 JUMP JUMPDEST PUSH1 0x20 DUP2 MLOAD SWAP2 ADD KECCAK256 CALLER PUSH1 0x0 MSTORE PUSH1 0x6 PUSH1 0x20 MSTORE PUSH1 0x40 PUSH1 0x0 KECCAK256 DUP2 PUSH1 0x0 MSTORE PUSH1 0x20 MSTORE PUSH1 0xFF PUSH1 0x40 PUSH1 0x0 KECCAK256 SLOAD AND PUSH2 0x179B JUMPI CALLER PUSH1 0x0 MSTORE PUSH1 0x6 PUSH1 0x20 MSTORE PUSH1 0x40 PUSH1 0x0 KECCAK256 SWAP1 PUSH1 0x0 MSTORE PUSH1 0x20 MSTORE PUSH1 0x40 PUSH1 0x0 KECCAK256 PUSH1 0x1 PUSH1 0xFF NOT DUP3 SLOAD AND OR SWAP1 SSTORE PUSH2 0xFDD PUSH1 0x2 SLOAD PUSH2 0x23B0 JUMP JUMPDEST SWAP4 DUP5 PUSH1 0x2 SSTORE PUSH1 0x40 MLOAD SWAP7 PUSH2 0xFEF DUP9 PUSH2 0x21A5 JUMP JUMPDEST CALLER DUP9 MSTORE PUSH1 0x0 PUSH1 0x20 DUP10 ADD MSTORE PUSH1 0x0 PUSH1 0x40 DUP10 ADD MSTORE PUSH1 0x0 PUSH1 0x60 DUP10 ADD MSTORE PUSH1 0x0 PUSH1 0x80 DUP10 ADD MSTORE PUSH1 0x0 PUSH1 0xA0 DUP10 ADD MSTORE PUSH1 0x4 CALLDATALOAD PUSH1 0xC0 DUP10 ADD MSTORE PUSH1 0x24 CALLDATALOAD PUSH1 0xE0 DUP10 ADD MSTORE DUP7 PUSH2 0x100 DUP10 ADD MSTORE PUSH1 0x0 PUSH2 0x120 DUP10 ADD MSTORE TIMESTAMP PUSH2 0x140 DUP10 ADD MSTORE TIMESTAMP PUSH2 0x160 DUP10 ADD MSTORE ISZERO ISZERO PUSH2 0x180 DUP9 ADD MSTORE PUSH2 0x1A0 DUP8 ADD MSTORE PUSH2 0x1C0 DUP7 ADD MSTORE PUSH2 0x1E0 DUP6 ADD MSTORE PUSH1 0xE4 CALLDATALOAD PUSH2 0x200 DUP6 ADD MSTORE PUSH2 0x220 DUP5 ADD MSTORE PUSH1 0x0 MSTORE PUSH1 0x3 PUSH1 0x20 MSTORE PUSH1 0x40 PUSH1 0x0 KECCAK256 PUSH1 0x1 DUP1 PUSH1 0xA0 SHL SUB DUP4 MLOAD AND PUSH12 0xFFFFFFFFFFFFFFFFFFFFFFFF PUSH1 0xA0 SHL DUP3 SLOAD AND OR DUP2 SSTORE PUSH1 0x20 DUP4 ADD MLOAD PUSH1 0x1 DUP3 ADD SSTORE PUSH1 0x40 DUP4 ADD MLOAD PUSH1 0x2 DUP3 ADD SSTORE PUSH1 0x60 DUP4 ADD MLOAD PUSH1 0x3 DUP3 ADD SSTORE PUSH1 0x80 DUP4 ADD MLOAD PUSH1 0x4 DUP3 ADD SSTORE PUSH1 0xA0 DUP4 ADD MLOAD PUSH1 0x5 DUP3 ADD SSTORE PUSH1 0xC0 DUP4 ADD MLOAD PUSH1 0x6 DUP3 ADD SSTORE PUSH1 0xE0 DUP4 ADD MLOAD PUSH1 0x7 DUP3 ADD SSTORE PUSH2 0x100 DUP4 ADD MLOAD SWAP3 DUP4 MLOAD PUSH1 0x1 PUSH1 0x1 PUSH1 0x40 SHL SUB DUP2 GT PUSH2 0x13BC JUMPI PUSH2 0x1102 PUSH1 0x8 DUP5 ADD SLOAD PUSH2 0x2296 JUMP JUMPDEST PUSH1 0x1F DUP2 GT PUSH2 0x1754 JUMPI JUMPDEST POP PUSH1 0x20 PUSH1 0x1F DUP3 GT PUSH1 0x1 EQ PUSH2 0x16E5 JUMPI DUP2 SWAP3 SWAP4 SWAP5 SWAP6 PUSH1 0x0 SWAP3 PUSH2 0x16DA JUMPI JUMPDEST POP POP DUP2 PUSH1 0x1 SHL SWAP2 PUSH1 0x0 NOT SWAP1 PUSH1 0x3 SHL SHR NOT AND OR PUSH1 0x8 DUP4 ADD SSTORE JUMPDEST PUSH2 0x120 DUP2 ADD MLOAD PUSH1 0x3 DUP2 LT ISZERO PUSH2 0xD06 JUMPI PUSH2 0x115A SWAP1 PUSH1 0x9 DUP5 ADD PUSH2 0x2471 JUMP JUMPDEST PUSH2 0x140 DUP2 ADD MLOAD PUSH1 0xA DUP4 ADD SSTORE PUSH2 0x160 DUP2 ADD MLOAD PUSH1 0xB DUP4 ADD SSTORE PUSH2 0x1190 PUSH2 0x180 DUP3 ADD MLOAD ISZERO ISZERO PUSH1 0xC DUP5 ADD SWAP1 PUSH1 0xFF DUP1 NOT DUP4 SLOAD AND SWAP2 ISZERO ISZERO AND OR SWAP1 SSTORE JUMP JUMPDEST PUSH2 0x1A0 DUP2 ADD MLOAD SWAP3 DUP4 MLOAD PUSH1 0x1 PUSH1 0x1 PUSH1 0x40 SHL SUB DUP2 GT PUSH2 0x13BC JUMPI PUSH2 0x11B4 PUSH1 0xD DUP6 ADD SLOAD PUSH2 0x2296 JUMP JUMPDEST PUSH1 0x1F DUP2 GT PUSH2 0x1693 JUMPI JUMPDEST POP PUSH1 0x20 PUSH1 0x1F DUP3 GT PUSH1 0x1 EQ PUSH2 0x1624 JUMPI DUP2 SWAP3 SWAP4 SWAP5 SWAP6 PUSH1 0x0 SWAP3 PUSH2 0x1619 JUMPI JUMPDEST POP POP DUP2 PUSH1 0x1 SHL SWAP2 PUSH1 0x0 NOT SWAP1 PUSH1 0x3 SHL SHR NOT AND OR PUSH1 0xD DUP5 ADD SSTORE JUMPDEST PUSH2 0x1C0 DUP3 ADD MLOAD SWAP3 DUP4 MLOAD PUSH1 0x1 PUSH1 0x1 PUSH1 0x40 SHL SUB DUP2 GT PUSH2 0x13BC JUMPI PUSH2 0x1214 PUSH1 0xE DUP4 ADD SLOAD PUSH2 0x2296 JUMP JUMPDEST PUSH1 0x1F DUP2 GT PUSH2 0x15D2 JUMPI JUMPDEST POP PUSH1 0x20 PUSH1 0x1F DUP3 GT PUSH1 0x1 EQ PUSH2 0x1563 JUMPI DUP2 SWAP3 SWAP4 SWAP5 SWAP6 PUSH1 0x0 SWAP3 PUSH2 0x1558 JUMPI JUMPDEST POP POP DUP2 PUSH1 0x1 SHL SWAP2 PUSH1 0x0 NOT SWAP1 PUSH1 0x3 SHL SHR NOT AND OR PUSH1 0xE DUP3 ADD SSTORE JUMPDEST PUSH2 0x1E0 DUP4 ADD MLOAD SWAP3 DUP4 MLOAD PUSH1 0x1 PUSH1 0x1 PUSH1 0x40 SHL SUB DUP2 GT PUSH2 0x13BC JUMPI PUSH2 0x1274 PUSH1 0xF DUP5 ADD SLOAD PUSH2 0x2296 JUMP JUMPDEST PUSH1 0x1F DUP2 GT PUSH2 0x1511 JUMPI JUMPDEST POP PUSH1 0x20 PUSH1 0x1F DUP3 GT PUSH1 0x1 EQ PUSH2 0x149D JUMPI DUP2 SWAP1 PUSH2 0x220 SWAP5 SWAP6 SWAP7 PUSH1 0x0 SWAP3 PUSH2 0x1492 JUMPI JUMPDEST POP POP DUP2 PUSH1 0x1 SHL SWAP2 PUSH1 0x0 NOT SWAP1 PUSH1 0x3 SHL SHR NOT AND OR PUSH1 0xF DUP5 ADD SSTORE JUMPDEST PUSH2 0x200 DUP2 ADD MLOAD PUSH1 0x10 DUP5 ADD SSTORE ADD MLOAD DUP1 MLOAD SWAP1 PUSH1 0x1 PUSH1 0x1 PUSH1 0x40 SHL SUB DUP3 GT PUSH2 0x13BC JUMPI PUSH2 0x12DE PUSH1 0x11 DUP5 ADD SLOAD PUSH2 0x2296 JUMP JUMPDEST PUSH1 0x1F DUP2 GT PUSH2 0x144B JUMPI JUMPDEST POP PUSH1 0x20 SWAP1 PUSH1 0x1F DUP4 GT PUSH1 0x1 EQ PUSH2 0x13DD JUMPI PUSH1 0x11 SWAP3 SWAP2 PUSH1 0x0 SWAP2 DUP4 PUSH2 0x13D2 JUMPI JUMPDEST POP POP DUP2 PUSH1 0x1 SHL SWAP2 PUSH1 0x0 NOT SWAP1 PUSH1 0x3 SHL SHR NOT AND OR SWAP2 ADD SSTORE JUMPDEST CALLER PUSH1 0x0 MSTORE PUSH1 0x4 PUSH1 0x20 MSTORE PUSH1 0x40 PUSH1 0x0 KECCAK256 PUSH1 0x2 SLOAD SWAP1 DUP1 SLOAD PUSH9 0x10000000000000000 DUP2 LT ISZERO PUSH2 0x13BC JUMPI PUSH2 0x134D SWAP2 PUSH1 0x1 DUP3 ADD DUP2 SSTORE PUSH2 0x2382 JUMP JUMPDEST DUP2 SWAP3 SWAP2 SLOAD SWAP1 PUSH1 0x3 SHL SWAP2 DUP3 SHL SWAP2 PUSH1 0x0 NOT SWAP1 SHL NOT AND OR SWAP1 SSTORE PUSH1 0x2 SLOAD PUSH32 0x4FF5427640A489B1309586AB0601B3A3EFE935B24A10675C05B4C967C67E1AF5 PUSH2 0x13AC PUSH1 0x40 MLOAD SWAP4 PUSH1 0x4 CALLDATALOAD DUP6 MSTORE PUSH1 0x24 CALLDATALOAD PUSH1 0x20 DUP7 ADD MSTORE PUSH1 0x80 PUSH1 0x40 DUP7 ADD MSTORE PUSH1 0x80 DUP6 ADD SWAP1 PUSH2 0x225B JUMP JUMPDEST SWAP3 PUSH1 0x0 PUSH1 0x60 DUP3 ADD MSTORE DUP1 CALLER SWAP5 SUB SWAP1 LOG3 STOP JUMPDEST PUSH4 0x4E487B71 PUSH1 0xE0 SHL PUSH1 0x0 MSTORE PUSH1 0x41 PUSH1 0x4 MSTORE PUSH1 0x24 PUSH1 0x0 REVERT JUMPDEST ADD MLOAD SWAP1 POP DUP6 DUP1 PUSH2 0x1303 JUMP JUMPDEST SWAP1 PUSH1 0x1F NOT DUP4 AND SWAP2 PUSH1 0x11 DUP6 ADD PUSH1 0x0 MSTORE PUSH1 0x20 PUSH1 0x0 KECCAK256 SWAP3 PUSH1 0x0 JUMPDEST DUP2 DUP2 LT PUSH2 0x1433 JUMPI POP SWAP2 PUSH1 0x1 SWAP4 SWAP2 DUP6 PUSH1 0x11 SWAP7 SWAP5 LT PUSH2 0x141A JUMPI JUMPDEST POP POP POP DUP2 SHL ADD SWAP2 ADD SSTORE PUSH2 0x1319 JUMP JUMPDEST ADD MLOAD PUSH1 0x0 NOT PUSH1 0xF8 DUP5 PUSH1 0x3 SHL AND SHR NOT AND SWAP1 SSTORE DUP6 DUP1 DUP1 PUSH2 0x140C JUMP JUMPDEST SWAP3 SWAP4 PUSH1 0x20 PUSH1 0x1 DUP2 SWAP3 DUP8 DUP7 ADD MLOAD DUP2 SSTORE ADD SWAP6 ADD SWAP4 ADD PUSH2 0x13F4 JUMP JUMPDEST PUSH1 0x11 DUP5 ADD PUSH1 0x0 MSTORE PUSH1 0x20 PUSH1 0x0 KECCAK256 PUSH1 0x1F DUP5 ADD PUSH1 0x5 SHR DUP2 ADD PUSH1 0x20 DUP6 LT PUSH2 0x148B JUMPI JUMPDEST PUSH1 0x1F DUP4 ADD PUSH1 0x5 SHR DUP3 ADD DUP2 LT PUSH2 0x147F JUMPI POP POP PUSH2 0x12E7 JUMP JUMPDEST PUSH1 0x0 DUP2 SSTORE PUSH1 0x1 ADD PUSH2 0x1469 JUMP JUMPDEST POP DUP1 PUSH2 0x1469 JUMP JUMPDEST ADD MLOAD SWAP1 POP DUP7 DUP1 PUSH2 0x129B JUMP JUMPDEST PUSH1 0xF DUP5 ADD PUSH1 0x0 MSTORE PUSH1 0x20 PUSH1 0x0 KECCAK256 SWAP6 PUSH1 0x0 JUMPDEST PUSH1 0x1F NOT DUP5 AND DUP2 LT PUSH2 0x14F9 JUMPI POP SWAP6 DUP3 SWAP2 PUSH2 0x220 SWAP6 SWAP7 SWAP8 PUSH1 0x1 SWAP5 PUSH1 0x1F NOT DUP2 AND LT PUSH2 0x14E0 JUMPI JUMPDEST POP POP POP DUP2 SHL ADD PUSH1 0xF DUP5 ADD SSTORE PUSH2 0x12B3 JUMP JUMPDEST ADD MLOAD PUSH1 0x0 NOT PUSH1 0xF8 DUP5 PUSH1 0x3 SHL AND SHR NOT AND SWAP1 SSTORE DUP7 DUP1 DUP1 PUSH2 0x14D0 JUMP JUMPDEST DUP3 DUP3 ADD MLOAD DUP9 SSTORE PUSH1 0x1 SWAP1 SWAP8 ADD SWAP7 PUSH1 0x20 SWAP3 DUP4 ADD SWAP3 ADD PUSH2 0x14AD JUMP JUMPDEST PUSH1 0xF DUP5 ADD PUSH1 0x0 MSTORE PUSH1 0x20 PUSH1 0x0 KECCAK256 PUSH1 0x1F DUP4 ADD PUSH1 0x5 SHR DUP2 ADD PUSH1 0x20 DUP5 LT PUSH2 0x1551 JUMPI JUMPDEST PUSH1 0x1F DUP4 ADD PUSH1 0x5 SHR DUP3 ADD DUP2 LT PUSH2 0x1545 JUMPI POP POP PUSH2 0x127D JUMP JUMPDEST PUSH1 0x0 DUP2 SSTORE PUSH1 0x1 ADD PUSH2 0x152F JUMP JUMPDEST POP DUP1 PUSH2 0x152F JUMP JUMPDEST ADD MLOAD SWAP1 POP DUP6 DUP1 PUSH2 0x1238 JUMP JUMPDEST PUSH1 0xE DUP4 ADD PUSH1 0x0 MSTORE PUSH1 0x20 PUSH1 0x0 KECCAK256 SWAP1 PUSH1 0x0 JUMPDEST PUSH1 0x1F NOT DUP5 AND DUP2 LT PUSH2 0x15BA JUMPI POP PUSH1 0x1 SWAP4 SWAP5 SWAP6 SWAP7 DUP4 PUSH1 0x1F NOT DUP2 AND LT PUSH2 0x15A1 JUMPI JUMPDEST POP POP POP DUP2 SHL ADD PUSH1 0xE DUP3 ADD SSTORE PUSH2 0x1250 JUMP JUMPDEST ADD MLOAD PUSH1 0x0 NOT PUSH1 0xF8 DUP5 PUSH1 0x3 SHL AND SHR NOT AND SWAP1 SSTORE DUP6 DUP1 DUP1 PUSH2 0x1591 JUMP JUMPDEST SWAP1 SWAP2 PUSH1 0x20 PUSH1 0x1 DUP2 SWAP3 DUP6 DUP12 ADD MLOAD DUP2 SSTORE ADD SWAP4 ADD SWAP2 ADD PUSH2 0x1573 JUMP JUMPDEST PUSH1 0xE DUP4 ADD PUSH1 0x0 MSTORE PUSH1 0x20 PUSH1 0x0 KECCAK256 PUSH1 0x1F DUP4 ADD PUSH1 0x5 SHR DUP2 ADD PUSH1 0x20 DUP5 LT PUSH2 0x1612 JUMPI JUMPDEST PUSH1 0x1F DUP4 ADD PUSH1 0x5 SHR DUP3 ADD DUP2 LT PUSH2 0x1606 JUMPI POP POP PUSH2 0x121D JUMP JUMPDEST PUSH1 0x0 DUP2 SSTORE PUSH1 0x1 ADD PUSH2 0x15F0 JUMP JUMPDEST POP DUP1 PUSH2 0x15F0 JUMP JUMPDEST ADD MLOAD SWAP1 POP DUP6 DUP1 PUSH2 0x11D8 JUMP JUMPDEST PUSH1 0xD DUP6 ADD PUSH1 0x0 MSTORE PUSH1 0x20 PUSH1 0x0 KECCAK256 SWAP1 PUSH1 0x0 JUMPDEST PUSH1 0x1F NOT DUP5 AND DUP2 LT PUSH2 0x167B JUMPI POP PUSH1 0x1 SWAP4 SWAP5 SWAP6 SWAP7 DUP4 PUSH1 0x1F NOT DUP2 AND LT PUSH2 0x1662 JUMPI JUMPDEST POP POP POP DUP2 SHL ADD PUSH1 0xD DUP5 ADD SSTORE PUSH2 0x11F0 JUMP JUMPDEST ADD MLOAD PUSH1 0x0 NOT PUSH1 0xF8 DUP5 PUSH1 0x3 SHL AND SHR NOT AND SWAP1 SSTORE DUP6 DUP1 DUP1 PUSH2 0x1652 JUMP JUMPDEST SWAP1 SWAP2 PUSH1 0x20 PUSH1 0x1 DUP2 SWAP3 DUP6 DUP12 ADD MLOAD DUP2 SSTORE ADD SWAP4 ADD SWAP2 ADD PUSH2 0x1634 JUMP JUMPDEST PUSH1 0xD DUP6 ADD PUSH1 0x0 MSTORE PUSH1 0x20 PUSH1 0x0 KECCAK256 PUSH1 0x1F DUP4 ADD PUSH1 0x5 SHR DUP2 ADD PUSH1 0x20 DUP5 LT PUSH2 0x16D3 JUMPI JUMPDEST PUSH1 0x1F DUP4 ADD PUSH1 0x5 SHR DUP3 ADD DUP2 LT PUSH2 0x16C7 JUMPI POP POP PUSH2 0x11BD JUMP JUMPDEST PUSH1 0x0 DUP2 SSTORE PUSH1 0x1 ADD PUSH2 0x16B1 JUMP JUMPDEST POP DUP1 PUSH2 0x16B1 JUMP JUMPDEST ADD MLOAD SWAP1 POP DUP6 DUP1 PUSH2 0x1126 JUMP JUMPDEST PUSH1 0x8 DUP5 ADD PUSH1 0x0 MSTORE PUSH1 0x20 PUSH1 0x0 KECCAK256 SWAP1 PUSH1 0x0 JUMPDEST PUSH1 0x1F NOT DUP5 AND DUP2 LT PUSH2 0x173C JUMPI POP PUSH1 0x1 SWAP4 SWAP5 SWAP6 SWAP7 DUP4 PUSH1 0x1F NOT DUP2 AND LT PUSH2 0x1723 JUMPI JUMPDEST POP POP POP DUP2 SHL ADD PUSH1 0x8 DUP4 ADD SSTORE PUSH2 0x113E JUMP JUMPDEST ADD MLOAD PUSH1 0x0 NOT PUSH1 0xF8 DUP5 PUSH1 0x3 SHL AND SHR NOT AND SWAP1 SSTORE DUP6 DUP1 DUP1 PUSH2 0x1713 JUMP JUMPDEST SWAP1 SWAP2 PUSH1 0x20 PUSH1 0x1 DUP2 SWAP3 DUP6 DUP12 ADD MLOAD DUP2 SSTORE ADD SWAP4 ADD SWAP2 ADD PUSH2 0x16F5 JUMP JUMPDEST PUSH1 0x8 DUP5 ADD PUSH1 0x0 MSTORE PUSH1 0x20 PUSH1 0x0 KECCAK256 PUSH1 0x1F DUP4 ADD PUSH1 0x5 SHR DUP2 ADD PUSH1 0x20 DUP5 LT PUSH2 0x1794 JUMPI JUMPDEST PUSH1 0x1F DUP4 ADD PUSH1 0x5 SHR DUP3 ADD DUP2 LT PUSH2 0x1788 JUMPI POP POP PUSH2 0x110B JUMP JUMPDEST PUSH1 0x0 DUP2 SSTORE PUSH1 0x1 ADD PUSH2 0x1772 JUMP JUMPDEST POP DUP1 PUSH2 0x1772 JUMP JUMPDEST PUSH1 0x40 MLOAD PUSH3 0x461BCD PUSH1 0xE5 SHL DUP2 MSTORE PUSH1 0x20 PUSH1 0x4 DUP3 ADD MSTORE PUSH1 0x1A PUSH1 0x24 DUP3 ADD MSTORE PUSH32 0x4475706C6963617465206F6666657220706172616D6574657273000000000000 PUSH1 0x44 DUP3 ADD MSTORE PUSH1 0x64 SWAP1 REVERT JUMPDEST PUSH1 0x40 MLOAD PUSH3 0x461BCD PUSH1 0xE5 SHL DUP2 MSTORE PUSH1 0x20 PUSH1 0x4 DUP3 ADD MSTORE PUSH1 0x15 PUSH1 0x24 DUP3 ADD MSTORE PUSH21 0x5469746C652063616E6E6F7420626520656D707479 PUSH1 0x58 SHL PUSH1 0x44 DUP3 ADD MSTORE PUSH1 0x64 SWAP1 REVERT JUMPDEST PUSH1 0x40 MLOAD PUSH3 0x461BCD PUSH1 0xE5 SHL DUP2 MSTORE PUSH1 0x20 PUSH1 0x4 DUP3 ADD MSTORE PUSH1 0x15 PUSH1 0x24 DUP3 ADD MSTORE PUSH21 0x5465726D732063616E6E6F7420626520656D707479 PUSH1 0x58 SHL PUSH1 0x44 DUP3 ADD MSTORE PUSH1 0x64 SWAP1 REVERT JUMPDEST PUSH1 0x40 MLOAD PUSH3 0x461BCD PUSH1 0xE5 SHL DUP2 MSTORE PUSH1 0x20 PUSH1 0x4 DUP3 ADD MSTORE PUSH1 0x1E PUSH1 0x24 DUP3 ADD MSTORE PUSH32 0x5061796D656E74206D6574686F642063616E6E6F7420626520656D7074790000 PUSH1 0x44 DUP3 ADD MSTORE PUSH1 0x64 SWAP1 REVERT JUMPDEST PUSH1 0x40 MLOAD PUSH3 0x461BCD PUSH1 0xE5 SHL DUP2 MSTORE PUSH1 0x20 PUSH1 0x4 DUP3 ADD MSTORE PUSH1 0x17 PUSH1 0x24 DUP3 ADD MSTORE PUSH32 0x436F756E7472792063616E6E6F7420626520656D707479000000000000000000 PUSH1 0x44 DUP3 ADD MSTORE PUSH1 0x64 SWAP1 REVERT JUMPDEST PUSH1 0x40 MLOAD PUSH3 0x461BCD PUSH1 0xE5 SHL DUP2 MSTORE PUSH1 0x20 PUSH1 0x4 DUP3 ADD MSTORE PUSH1 0x1D PUSH1 0x24 DUP3 ADD MSTORE PUSH32 0x466961742063757272656E63792063616E6E6F7420626520656D707479000000 PUSH1 0x44 DUP3 ADD MSTORE PUSH1 0x64 SWAP1 REVERT JUMPDEST CALLVALUE PUSH2 0x18F JUMPI PUSH2 0x140 CALLDATASIZE PUSH1 0x3 NOT ADD SLT PUSH2 0x18F JUMPI PUSH1 0x3 PUSH1 0x64 CALLDATALOAD LT ISZERO PUSH2 0x18F JUMPI PUSH2 0x194E PUSH2 0x2187 JUMP JUMPDEST PUSH1 0xA4 CALLDATALOAD PUSH1 0x1 PUSH1 0x1 PUSH1 0x40 SHL SUB DUP2 GT PUSH2 0x18F JUMPI PUSH2 0x196D SWAP1 CALLDATASIZE SWAP1 PUSH1 0x4 ADD PUSH2 0x21E2 JUMP JUMPDEST SWAP1 PUSH1 0xC4 CALLDATALOAD PUSH1 0x1 PUSH1 0x1 PUSH1 0x40 SHL SUB DUP2 GT PUSH2 0x18F JUMPI PUSH2 0x198D SWAP1 CALLDATASIZE SWAP1 PUSH1 0x4 ADD PUSH2 0x21E2 JUMP JUMPDEST SWAP2 PUSH1 0xE4 CALLDATALOAD PUSH1 0x1 PUSH1 0x1 PUSH1 0x40 SHL SUB DUP2 GT PUSH2 0x18F JUMPI PUSH2 0x19AD SWAP1 CALLDATASIZE SWAP1 PUSH1 0x4 ADD PUSH2 0x21E2 JUMP JUMPDEST SWAP2 PUSH2 0x124 CALLDATALOAD PUSH1 0x1 PUSH1 0x1 PUSH1 0x40 SHL SUB DUP2 GT PUSH2 0x18F JUMPI PUSH2 0x19CE SWAP1 CALLDATASIZE SWAP1 PUSH1 0x4 ADD PUSH2 0x21E2 JUMP JUMPDEST SWAP2 PUSH1 0x4 CALLDATALOAD ISZERO ISZERO DUP1 PUSH2 0x2092 JUMPI JUMPDEST PUSH2 0x19E3 SWAP1 PUSH2 0x23E2 JUMP JUMPDEST PUSH1 0x4 CALLDATALOAD PUSH1 0x0 SWAP1 DUP2 MSTORE PUSH1 0x3 PUSH1 0x20 MSTORE PUSH1 0x40 SWAP1 KECCAK256 SLOAD PUSH1 0x1 PUSH1 0x1 PUSH1 0xA0 SHL SUB AND CALLER SUB PUSH2 0x203F JUMPI PUSH2 0x1A14 PUSH1 0x44 CALLDATALOAD PUSH1 0x24 CALLDATALOAD GT ISZERO PUSH2 0x2425 JUMP JUMPDEST PUSH1 0x4 CALLDATALOAD PUSH1 0x0 MSTORE PUSH1 0x3 PUSH1 0x20 MSTORE PUSH2 0x1A5B PUSH1 0x40 PUSH1 0x0 KECCAK256 SWAP3 PUSH1 0x6 DUP5 ADD PUSH1 0x24 CALLDATALOAD DUP2 SLOAD EQ DUP1 ISZERO SWAP1 PUSH2 0x202F JUMPI JUMPDEST PUSH2 0x1FE4 JUMPI JUMPDEST POP TIMESTAMP PUSH1 0xB DUP6 ADD SSTORE PUSH1 0xC DUP5 ADD SWAP1 PUSH1 0xFF DUP1 NOT DUP4 SLOAD AND SWAP2 ISZERO ISZERO AND OR SWAP1 SSTORE JUMP JUMPDEST DUP1 MLOAD SWAP1 PUSH1 0x1 PUSH1 0x1 PUSH1 0x40 SHL SUB DUP3 GT PUSH2 0x13BC JUMPI DUP2 SWAP1 PUSH2 0x1A7B PUSH1 0xD DUP6 ADD SLOAD PUSH2 0x2296 JUMP JUMPDEST PUSH1 0x1F DUP2 GT PUSH2 0x1F91 JUMPI JUMPDEST POP PUSH1 0x20 SWAP1 PUSH1 0x1F DUP4 GT PUSH1 0x1 EQ PUSH2 0x1F1F JUMPI PUSH1 0x0 SWAP3 PUSH2 0x1F14 JUMPI JUMPDEST POP POP DUP2 PUSH1 0x1 SHL SWAP2 PUSH1 0x0 NOT SWAP1 PUSH1 0x3 SHL SHR NOT AND OR PUSH1 0xD DUP3 ADD SSTORE JUMPDEST DUP4 MLOAD PUSH1 0x1 PUSH1 0x1 PUSH1 0x40 SHL SUB DUP2 GT PUSH2 0x13BC JUMPI PUSH2 0x1AD0 PUSH1 0xE DUP4 ADD SLOAD PUSH2 0x2296 JUMP JUMPDEST PUSH1 0x1F DUP2 GT PUSH2 0x1ECD JUMPI JUMPDEST POP PUSH1 0x20 PUSH1 0x1F DUP3 GT PUSH1 0x1 EQ PUSH2 0x1E5E JUMPI DUP2 SWAP3 SWAP4 SWAP5 SWAP6 PUSH1 0x0 SWAP3 PUSH2 0x1E53 JUMPI JUMPDEST POP POP DUP2 PUSH1 0x1 SHL SWAP2 PUSH1 0x0 NOT SWAP1 PUSH1 0x3 SHL SHR NOT AND OR PUSH1 0xE DUP3 ADD SSTORE JUMPDEST DUP3 MLOAD PUSH1 0x1 PUSH1 0x1 PUSH1 0x40 SHL SUB DUP2 GT PUSH2 0x13BC JUMPI PUSH2 0x1B29 PUSH1 0xF DUP4 ADD SLOAD PUSH2 0x2296 JUMP JUMPDEST PUSH1 0x1F DUP2 GT PUSH2 0x1E0C JUMPI JUMPDEST POP PUSH1 0x20 PUSH1 0x1F DUP3 GT PUSH1 0x1 EQ PUSH2 0x1D9E JUMPI DUP2 SWAP3 SWAP4 SWAP5 PUSH1 0x0 SWAP3 PUSH2 0x1D93 JUMPI JUMPDEST POP POP DUP2 PUSH1 0x1 SHL SWAP2 PUSH1 0x0 NOT SWAP1 PUSH1 0x3 SHL SHR NOT AND OR PUSH1 0xF DUP3 ADD SSTORE JUMPDEST PUSH2 0x104 CALLDATALOAD PUSH1 0x10 DUP3 ADD SSTORE DUP2 MLOAD SWAP2 PUSH1 0x1 PUSH1 0x1 PUSH1 0x40 SHL SUB DUP4 GT PUSH2 0x13BC JUMPI PUSH2 0x1B8B PUSH1 0x11 DUP4 ADD SLOAD PUSH2 0x2296 JUMP JUMPDEST PUSH1 0x1F DUP2 GT PUSH2 0x1D4C JUMPI JUMPDEST POP PUSH1 0x20 SWAP1 PUSH1 0x1F DUP5 GT PUSH1 0x1 EQ PUSH2 0x1CDA JUMPI PUSH1 0x9 SWAP4 SWAP2 PUSH1 0x0 SWAP2 DUP4 PUSH2 0x1CCF JUMPI JUMPDEST POP POP DUP2 PUSH1 0x1 SHL SWAP2 PUSH1 0x0 NOT SWAP1 PUSH1 0x3 SHL SHR NOT AND OR PUSH1 0x11 DUP3 ADD SSTORE JUMPDEST PUSH1 0x40 MLOAD PUSH1 0x24 CALLDATALOAD DUP2 MSTORE PUSH1 0x44 CALLDATALOAD PUSH1 0x20 DUP3 ADD MSTORE PUSH2 0x1BE7 PUSH1 0x40 DUP3 ADD PUSH1 0x64 CALLDATALOAD PUSH2 0x2375 JUMP JUMPDEST PUSH32 0x717FC81B09BB28D1499CA69D8F6D21B741760663F18FE922DBE60D620EDD02D6 PUSH1 0x60 PUSH1 0x4 CALLDATALOAD SWAP3 LOG2 ADD PUSH1 0xFF DUP2 SLOAD AND PUSH1 0x3 DUP2 LT ISZERO PUSH2 0xD06 JUMPI PUSH1 0x64 CALLDATALOAD SUB PUSH2 0x1C28 JUMPI STOP JUMPDEST PUSH2 0x1C35 SWAP1 PUSH1 0x64 CALLDATALOAD SWAP1 PUSH2 0x2471 JUMP JUMPDEST PUSH1 0x64 CALLDATALOAD PUSH1 0x1 SUB PUSH2 0x1C6A JUMPI PUSH1 0x4 CALLDATALOAD PUSH32 0x8775E89363A51BA48AADA8894A2B439B5661FBDB59F8C48BF080272E04E7A4D8 PUSH1 0x0 DUP1 LOG2 JUMPDEST STOP JUMPDEST PUSH1 0x64 CALLDATALOAD PUSH2 0x1C9B JUMPI PUSH1 0x4 CALLDATALOAD PUSH32 0x5F69FA7E73FC633EABBF61AA5BA9AF951CB73BBB6C0C1378638AF9323A998E52 PUSH1 0x0 DUP1 LOG2 STOP JUMPDEST PUSH1 0x2 PUSH1 0x64 CALLDATALOAD SUB PUSH2 0x1C68 JUMPI PUSH1 0x4 CALLDATALOAD PUSH32 0xACBC44B7F46DC350C99FC0D9E5F61ED5C588CB4CDC6B69EA0DEB0C5B28E5EFC4 PUSH1 0x0 DUP1 LOG2 STOP JUMPDEST ADD MLOAD SWAP1 POP DUP5 DUP1 PUSH2 0x1BB0 JUMP JUMPDEST SWAP1 PUSH1 0x11 DUP4 ADD PUSH1 0x0 MSTORE PUSH1 0x20 PUSH1 0x0 KECCAK256 SWAP2 PUSH1 0x0 JUMPDEST PUSH1 0x1F NOT DUP7 AND DUP2 LT PUSH2 0x1D34 JUMPI POP SWAP2 DUP5 SWAP2 PUSH1 0x1 SWAP4 PUSH1 0x9 SWAP7 PUSH1 0x1F NOT DUP2 AND LT PUSH2 0x1D1B JUMPI JUMPDEST POP POP POP DUP2 SHL ADD PUSH1 0x11 DUP3 ADD SSTORE PUSH2 0x1BC8 JUMP JUMPDEST ADD MLOAD PUSH1 0x0 NOT PUSH1 0xF8 DUP5 PUSH1 0x3 SHL AND SHR NOT AND SWAP1 SSTORE DUP5 DUP1 DUP1 PUSH2 0x1D0B JUMP JUMPDEST SWAP2 SWAP3 PUSH1 0x20 PUSH1 0x1 DUP2 SWAP3 DUP7 DUP6 ADD MLOAD DUP2 SSTORE ADD SWAP5 ADD SWAP3 ADD PUSH2 0x1CEB JUMP JUMPDEST PUSH1 0x11 DUP4 ADD PUSH1 0x0 MSTORE PUSH1 0x20 PUSH1 0x0 KECCAK256 PUSH1 0x1F DUP6 ADD PUSH1 0x5 SHR DUP2 ADD PUSH1 0x20 DUP7 LT PUSH2 0x1D8C JUMPI JUMPDEST PUSH1 0x1F DUP4 ADD PUSH1 0x5 SHR DUP3 ADD DUP2 LT PUSH2 0x1D80 JUMPI POP POP PUSH2 0x1B94 JUMP JUMPDEST PUSH1 0x0 DUP2 SSTORE PUSH1 0x1 ADD PUSH2 0x1D6A JUMP JUMPDEST POP DUP1 PUSH2 0x1D6A JUMP JUMPDEST ADD MLOAD SWAP1 POP DUP5 DUP1 PUSH2 0x1B4C JUMP JUMPDEST PUSH1 0xF DUP4 ADD PUSH1 0x0 MSTORE PUSH1 0x20 PUSH1 0x0 KECCAK256 SWAP1 PUSH1 0x0 JUMPDEST PUSH1 0x1F NOT DUP5 AND DUP2 LT PUSH2 0x1DF4 JUMPI POP PUSH1 0x1 SWAP4 SWAP5 SWAP6 DUP4 PUSH1 0x1F NOT DUP2 AND LT PUSH2 0x1DDB JUMPI JUMPDEST POP POP POP DUP2 SHL ADD PUSH1 0xF DUP3 ADD SSTORE PUSH2 0x1B64 JUMP JUMPDEST ADD MLOAD PUSH1 0x0 NOT PUSH1 0xF8 DUP5 PUSH1 0x3 SHL AND SHR NOT AND SWAP1 SSTORE DUP5 DUP1 DUP1 PUSH2 0x1DCB JUMP JUMPDEST SWAP1 SWAP2 PUSH1 0x20 PUSH1 0x1 DUP2 SWAP3 DUP6 DUP11 ADD MLOAD DUP2 SSTORE ADD SWAP4 ADD SWAP2 ADD PUSH2 0x1DAE JUMP JUMPDEST PUSH1 0xF DUP4 ADD PUSH1 0x0 MSTORE PUSH1 0x20 PUSH1 0x0 KECCAK256 PUSH1 0x1F DUP4 ADD PUSH1 0x5 SHR DUP2 ADD PUSH1 0x20 DUP5 LT PUSH2 0x1E4C JUMPI JUMPDEST PUSH1 0x1F DUP4 ADD PUSH1 0x5 SHR DUP3 ADD DUP2 LT PUSH2 0x1E40 JUMPI POP POP PUSH2 0x1B32 JUMP JUMPDEST PUSH1 0x0 DUP2 SSTORE PUSH1 0x1 ADD PUSH2 0x1E2A JUMP JUMPDEST POP DUP1 PUSH2 0x1E2A JUMP JUMPDEST ADD MLOAD SWAP1 POP DUP6 DUP1 PUSH2 0x1AF4 JUMP JUMPDEST PUSH1 0xE DUP4 ADD PUSH1 0x0 MSTORE PUSH1 0x20 PUSH1 0x0 KECCAK256 SWAP1 PUSH1 0x0 JUMPDEST PUSH1 0x1F NOT DUP5 AND DUP2 LT PUSH2 0x1EB5 JUMPI POP PUSH1 0x1 SWAP4 SWAP5 SWAP6 SWAP7 DUP4 PUSH1 0x1F NOT DUP2 AND LT PUSH2 0x1E9C JUMPI JUMPDEST POP POP POP DUP2 SHL ADD PUSH1 0xE DUP3 ADD SSTORE PUSH2 0x1B0C JUMP JUMPDEST ADD MLOAD PUSH1 0x0 NOT PUSH1 0xF8 DUP5 PUSH1 0x3 SHL AND SHR NOT AND SWAP1 SSTORE DUP6 DUP1 DUP1 PUSH2 0x1E8C JUMP JUMPDEST SWAP1 SWAP2 PUSH1 0x20 PUSH1 0x1 DUP2 SWAP3 DUP6 DUP12 ADD MLOAD DUP2 SSTORE ADD SWAP4 ADD SWAP2 ADD PUSH2 0x1E6E JUMP JUMPDEST PUSH1 0xE DUP4 ADD PUSH1 0x0 MSTORE PUSH1 0x20 PUSH1 0x0 KECCAK256 PUSH1 0x1F DUP4 ADD PUSH1 0x5 SHR DUP2 ADD PUSH1 0x20 DUP5 LT PUSH2 0x1F0D JUMPI JUMPDEST PUSH1 0x1F DUP4 ADD PUSH1 0x5 SHR DUP3 ADD DUP2 LT PUSH2 0x1F01 JUMPI POP POP PUSH2 0x1AD9 JUMP JUMPDEST PUSH1 0x0 DUP2 SSTORE PUSH1 0x1 ADD PUSH2 0x1EEB JUMP JUMPDEST POP DUP1 PUSH2 0x1EEB JUMP JUMPDEST ADD MLOAD SWAP1 POP DUP7 DUP1 PUSH2 0x1A9B JUMP JUMPDEST SWAP3 POP PUSH1 0xD DUP5 ADD PUSH1 0x0 MSTORE PUSH1 0x20 PUSH1 0x0 KECCAK256 SWAP1 PUSH1 0x0 SWAP4 JUMPDEST PUSH1 0x1F NOT DUP5 AND DUP6 LT PUSH2 0x1F76 JUMPI PUSH1 0x1 SWAP5 POP DUP4 PUSH1 0x1F NOT DUP2 AND LT PUSH2 0x1F5D JUMPI JUMPDEST POP POP POP DUP2 SHL ADD PUSH1 0xD DUP3 ADD SSTORE PUSH2 0x1AB3 JUMP JUMPDEST ADD MLOAD PUSH1 0x0 NOT PUSH1 0xF8 DUP5 PUSH1 0x3 SHL AND SHR NOT AND SWAP1 SSTORE DUP7 DUP1 DUP1 PUSH2 0x1F4D JUMP JUMPDEST DUP2 DUP2 ADD MLOAD DUP4 SSTORE PUSH1 0x20 SWAP5 DUP6 ADD SWAP5 PUSH1 0x1 SWAP1 SWAP4 ADD SWAP3 SWAP1 SWAP2 ADD SWAP1 PUSH2 0x1F32 JUMP JUMPDEST SWAP1 SWAP2 POP PUSH1 0xD DUP5 ADD PUSH1 0x0 MSTORE PUSH1 0x20 PUSH1 0x0 KECCAK256 PUSH1 0x1F DUP5 ADD PUSH1 0x5 SHR DUP2 ADD PUSH1 0x20 DUP6 LT PUSH2 0x1FDD JUMPI JUMPDEST SWAP1 DUP5 SWAP4 SWAP3 SWAP2 JUMPDEST PUSH1 0x1F DUP4 ADD PUSH1 0x5 SHR DUP3 ADD DUP2 LT PUSH2 0x1FCE JUMPI POP POP PUSH2 0x1A84 JUMP JUMPDEST PUSH1 0x0 DUP2 SSTORE DUP6 SWAP5 POP PUSH1 0x1 ADD PUSH2 0x1FB8 JUMP JUMPDEST POP DUP1 PUSH2 0x1FB2 JUMP JUMPDEST PUSH1 0x24 CALLDATALOAD SWAP1 SSTORE PUSH1 0x44 CALLDATALOAD PUSH1 0x7 DUP6 ADD SSTORE PUSH1 0x40 MLOAD PUSH1 0x24 CALLDATALOAD DUP2 MSTORE PUSH1 0x44 CALLDATALOAD PUSH1 0x20 DUP3 ADD MSTORE PUSH32 0x55D5258CBAF85DF9FF05DC6686D48AC69A8348FB5A953140FA91F218D3AF9CBE PUSH1 0x40 PUSH1 0x4 CALLDATALOAD SWAP3 LOG2 DUP8 PUSH2 0x1A3F JUMP JUMPDEST POP PUSH1 0x44 CALLDATALOAD PUSH1 0x7 DUP7 ADD SLOAD EQ ISZERO PUSH2 0x1A3A JUMP JUMPDEST PUSH1 0x40 MLOAD PUSH3 0x461BCD PUSH1 0xE5 SHL DUP2 MSTORE PUSH1 0x20 PUSH1 0x4 DUP3 ADD MSTORE PUSH1 0x25 PUSH1 0x24 DUP3 ADD MSTORE PUSH32 0x4F6E6C79206F66666572206F776E65722063616E207570646174652074686520 PUSH1 0x44 DUP3 ADD MSTORE PUSH5 0x37B33332B9 PUSH1 0xD9 SHL PUSH1 0x64 DUP3 ADD MSTORE PUSH1 0x84 SWAP1 REVERT JUMPDEST POP PUSH1 0x2 SLOAD PUSH1 0x4 CALLDATALOAD GT ISZERO PUSH2 0x19DA JUMP JUMPDEST CALLVALUE PUSH2 0x18F JUMPI PUSH1 0x0 CALLDATASIZE PUSH1 0x3 NOT ADD SLT PUSH2 0x18F JUMPI PUSH1 0x20 PUSH1 0x2 SLOAD PUSH1 0x40 MLOAD SWAP1 DUP2 MSTORE RETURN JUMPDEST CALLVALUE PUSH2 0x18F JUMPI PUSH1 0x0 CALLDATASIZE PUSH1 0x3 NOT ADD SLT PUSH2 0x18F JUMPI PUSH1 0x0 DUP1 PUSH1 0x0 DUP1 PUSH1 0x1 SWAP4 PUSH1 0x1 PUSH1 0x2 SWAP6 PUSH1 0x2 SLOAD SWAP7 JUMPDEST DUP8 DUP4 GT ISZERO PUSH2 0x2108 JUMPI POP POP POP PUSH1 0x80 SWAP5 POP PUSH1 0x40 MLOAD SWAP4 DUP5 MSTORE PUSH1 0x20 DUP5 ADD MSTORE PUSH1 0x40 DUP4 ADD MSTORE PUSH1 0x60 DUP3 ADD MSTORE RETURN JUMPDEST SWAP1 SWAP2 SWAP5 PUSH2 0x217A PUSH2 0x2180 SWAP2 DUP8 PUSH1 0x0 SWAP10 SWAP8 SWAP7 SWAP10 MSTORE PUSH1 0x3 PUSH2 0x2165 PUSH2 0x214F PUSH2 0x2139 PUSH1 0x20 SWAP11 DUP5 DUP13 MSTORE DUP10 PUSH1 0x40 PUSH1 0x0 KECCAK256 ADD SLOAD SWAP1 PUSH2 0x23D5 JUMP JUMPDEST SWAP12 DUP12 PUSH1 0x0 MSTORE DUP4 DUP12 MSTORE DUP8 PUSH1 0x40 PUSH1 0x0 KECCAK256 ADD SLOAD SWAP1 PUSH2 0x23D5 JUMP JUMPDEST SWAP8 DUP11 PUSH1 0x0 MSTORE DUP3 DUP11 MSTORE DUP3 PUSH1 0x40 PUSH1 0x0 KECCAK256 ADD SLOAD SWAP1 PUSH2 0x23D5 JUMP JUMPDEST SWAP8 DUP10 PUSH1 0x0 MSTORE MSTORE PUSH1 0x4 PUSH1 0x40 PUSH1 0x0 KECCAK256 ADD SLOAD SWAP1 PUSH2 0x23D5 JUMP JUMPDEST SWAP6 PUSH2 0x23B0 JUMP JUMPDEST SWAP2 SWAP1 PUSH2 0x20E2 JUMP JUMPDEST PUSH1 0x84 CALLDATALOAD SWAP1 DUP2 ISZERO ISZERO DUP3 SUB PUSH2 0x18F JUMPI JUMP JUMPDEST PUSH1 0x64 CALLDATALOAD SWAP1 DUP2 ISZERO ISZERO DUP3 SUB PUSH2 0x18F JUMPI JUMP JUMPDEST PUSH2 0x240 DUP2 ADD SWAP1 DUP2 LT PUSH1 0x1 PUSH1 0x1 PUSH1 0x40 SHL SUB DUP3 GT OR PUSH2 0x13BC JUMPI PUSH1 0x40 MSTORE JUMP JUMPDEST SWAP1 PUSH1 0x1F DUP1 NOT SWAP2 ADD AND DUP2 ADD SWAP1 DUP2 LT PUSH1 0x1 PUSH1 0x1 PUSH1 0x40 SHL SUB DUP3 GT OR PUSH2 0x13BC JUMPI PUSH1 0x40 MSTORE JUMP JUMPDEST DUP2 PUSH1 0x1F DUP3 ADD SLT ISZERO PUSH2 0x18F JUMPI DUP1 CALLDATALOAD SWAP1 PUSH1 0x1 PUSH1 0x1 PUSH1 0x40 SHL SUB DUP3 GT PUSH2 0x13BC JUMPI PUSH1 0x40 MLOAD SWAP3 PUSH2 0x2216 PUSH1 0x1F DUP5 ADD PUSH1 0x1F NOT AND PUSH1 0x20 ADD DUP6 PUSH2 0x21C1 JUMP JUMPDEST DUP3 DUP5 MSTORE PUSH1 0x20 DUP4 DUP4 ADD ADD GT PUSH2 0x18F JUMPI DUP2 PUSH1 0x0 SWAP3 PUSH1 0x20 DUP1 SWAP4 ADD DUP4 DUP7 ADD CALLDATACOPY DUP4 ADD ADD MSTORE SWAP1 JUMP JUMPDEST PUSH1 0x0 JUMPDEST DUP4 DUP2 LT PUSH2 0x224B JUMPI POP POP PUSH1 0x0 SWAP2 ADD MSTORE JUMP JUMPDEST DUP2 DUP2 ADD MLOAD DUP4 DUP3 ADD MSTORE PUSH1 0x20 ADD PUSH2 0x223B JUMP JUMPDEST SWAP1 PUSH1 0x20 SWAP2 PUSH2 0x2274 DUP2 MLOAD DUP1 SWAP3 DUP2 DUP6 MSTORE DUP6 DUP1 DUP7 ADD SWAP2 ADD PUSH2 0x2238 JUMP JUMPDEST PUSH1 0x1F ADD PUSH1 0x1F NOT AND ADD ADD SWAP1 JUMP JUMPDEST PUSH1 0x4 CALLDATALOAD SWAP1 PUSH1 0x1 PUSH1 0x1 PUSH1 0xA0 SHL SUB DUP3 AND DUP3 SUB PUSH2 0x18F JUMPI JUMP JUMPDEST SWAP1 PUSH1 0x1 DUP3 DUP2 SHR SWAP3 AND DUP1 ISZERO PUSH2 0x22C6 JUMPI JUMPDEST PUSH1 0x20 DUP4 LT EQ PUSH2 0x22B0 JUMPI JUMP JUMPDEST PUSH4 0x4E487B71 PUSH1 0xE0 SHL PUSH1 0x0 MSTORE PUSH1 0x22 PUSH1 0x4 MSTORE PUSH1 0x24 PUSH1 0x0 REVERT JUMPDEST SWAP2 PUSH1 0x7F AND SWAP2 PUSH2 0x22A5 JUMP JUMPDEST SWAP1 PUSH1 0x40 MLOAD SWAP2 DUP3 PUSH1 0x0 DUP3 SLOAD PUSH2 0x22E3 DUP2 PUSH2 0x2296 JUMP JUMPDEST SWAP1 DUP2 DUP5 MSTORE PUSH1 0x20 SWAP5 PUSH1 0x1 SWAP2 PUSH1 0x1 DUP2 AND SWAP1 DUP2 PUSH1 0x0 EQ PUSH2 0x2353 JUMPI POP PUSH1 0x1 EQ PUSH2 0x2314 JUMPI JUMPDEST POP POP POP PUSH2 0x2312 SWAP3 POP SUB DUP4 PUSH2 0x21C1 JUMP JUMPDEST JUMP JUMPDEST PUSH1 0x0 SWAP1 DUP2 MSTORE DUP6 DUP2 KECCAK256 SWAP6 SWAP4 POP SWAP2 SWAP1 JUMPDEST DUP2 DUP4 LT PUSH2 0x233B JUMPI POP POP PUSH2 0x2312 SWAP4 POP DUP3 ADD ADD CODESIZE DUP1 DUP1 PUSH2 0x2303 JUMP JUMPDEST DUP6 SLOAD DUP9 DUP5 ADD DUP6 ADD MSTORE SWAP5 DUP6 ADD SWAP5 DUP8 SWAP5 POP SWAP2 DUP4 ADD SWAP2 PUSH2 0x2322 JUMP JUMPDEST SWAP3 POP POP POP PUSH2 0x2312 SWAP5 SWAP3 POP PUSH1 0xFF NOT AND DUP3 DUP5 ADD MSTORE ISZERO ISZERO PUSH1 0x5 SHL DUP3 ADD ADD CODESIZE DUP1 DUP1 PUSH2 0x2303 JUMP JUMPDEST SWAP1 PUSH1 0x3 DUP3 LT ISZERO PUSH2 0xD06 JUMPI MSTORE JUMP JUMPDEST DUP1 SLOAD DUP3 LT ISZERO PUSH2 0x239A JUMPI PUSH1 0x0 MSTORE PUSH1 0x20 PUSH1 0x0 KECCAK256 ADD SWAP1 PUSH1 0x0 SWAP1 JUMP JUMPDEST PUSH4 0x4E487B71 PUSH1 0xE0 SHL PUSH1 0x0 MSTORE PUSH1 0x32 PUSH1 0x4 MSTORE PUSH1 0x24 PUSH1 0x0 REVERT JUMPDEST PUSH1 0x0 NOT DUP2 EQ PUSH2 0x23BF JUMPI PUSH1 0x1 ADD SWAP1 JUMP JUMPDEST PUSH4 0x4E487B71 PUSH1 0xE0 SHL PUSH1 0x0 MSTORE PUSH1 0x11 PUSH1 0x4 MSTORE PUSH1 0x24 PUSH1 0x0 REVERT JUMPDEST SWAP2 SWAP1 DUP3 ADD DUP1 SWAP3 GT PUSH2 0x23BF JUMPI JUMP JUMPDEST ISZERO PUSH2 0x23E9 JUMPI JUMP JUMPDEST PUSH1 0x40 MLOAD PUSH3 0x461BCD PUSH1 0xE5 SHL DUP2 MSTORE PUSH1 0x20 PUSH1 0x4 DUP3 ADD MSTORE PUSH1 0x14 PUSH1 0x24 DUP3 ADD MSTORE PUSH20 0x13D999995C88191BD95CC81B9BDD08195E1A5CDD PUSH1 0x62 SHL PUSH1 0x44 DUP3 ADD MSTORE PUSH1 0x64 SWAP1 REVERT JUMPDEST ISZERO PUSH2 0x242C JUMPI JUMP JUMPDEST PUSH1 0x40 MLOAD PUSH3 0x461BCD PUSH1 0xE5 SHL DUP2 MSTORE PUSH1 0x20 PUSH1 0x4 DUP3 ADD MSTORE PUSH1 0x1A PUSH1 0x24 DUP3 ADD MSTORE PUSH32 0x496E76616C696420747261646520616D6F756E742072616E6765000000000000 PUSH1 0x44 DUP3 ADD MSTORE PUSH1 0x64 SWAP1 REVERT JUMPDEST SWAP1 PUSH1 0x3 DUP2 LT ISZERO PUSH2 0xD06 JUMPI PUSH1 0xFF DUP1 NOT DUP4 SLOAD AND SWAP2 AND OR SWAP1 SSTORE JUMP JUMPDEST ISZERO PUSH2 0x2490 JUMPI JUMP JUMPDEST PUSH1 0x40 MLOAD PUSH3 0x461BCD PUSH1 0xE5 SHL DUP2 MSTORE PUSH1 0x20 PUSH1 0x4 DUP3 ADD MSTORE PUSH1 0x12 PUSH1 0x24 DUP3 ADD MSTORE PUSH18 0x10DBDB9D1C9858DD081A5CC81C185D5CD959 PUSH1 0x72 SHL PUSH1 0x44 DUP3 ADD MSTORE PUSH1 0x64 SWAP1 REVERT JUMPDEST ISZERO PUSH2 0x24D1 JUMPI JUMP JUMPDEST PUSH1 0x40 MLOAD PUSH3 0x461BCD PUSH1 0xE5 SHL DUP2 MSTORE PUSH1 0x20 PUSH1 0x4 DUP3 ADD MSTORE PUSH1 0x2F PUSH1 0x24 DUP3 ADD MSTORE PUSH32 0x4F6E6C792074686520636F6E7472616374206F776E65722063616E2070657266 PUSH1 0x44 DUP3 ADD MSTORE PUSH15 0x37B936903A3434B99030B1BA34B7B7 PUSH1 0x89 SHL PUSH1 0x64 DUP3 ADD MSTORE PUSH1 0x84 SWAP1 REVERT INVALID LOG2 PUSH5 0x6970667358 0x22 SLT KECCAK256 SWAP9 MSIZE 0xCC SWAP7 PUSH4 0xD0934D91 0xEF SELFBALANCE PUSH22 0x48D7CCEEFF8F382F66629360A850141836BA7CEA6473 PUSH16 0x6C634300081800330000000000000000 "},"methodIdentifiers":{"getOfferCounts()":"10bcb2e2","getOfferDetails(uint256)":"4fb64be2","getUserOffers(address)":"661d2c2c","offerCount()":"1115c24d","offerCreate(uint256,uint256,string,bool,string,string,string,int256,string)":"37e5814c","offerDisputeCounted(uint256,uint256)":"6862a30d","offerParametersUsed(address,bytes32)":"e7c84dee","offerUpdateOffer(uint256,uint256,uint256,uint8,bool,string,string,string,int256,string)":"2337c515","offers(uint256)":"8a72ea6a","owner()":"8da5cb5b","pauseContract()":"439766ce","paused()":"5c975abb","registry()":"7b103999","transferOwnership(address)":"f2fde38b","unpauseContract()":"b33712c5","updateOfferStats(uint256,uint256,bool,bool,bool,bool,uint256)":"d9efb457","userOffers(address,uint256)":"bd5fec65"}}}}}