{"contracts/Account.sol":{"Account":{"abi":[{"inputs":[{"internalType":"address","name":"_registryAddress","type":"address"}],"stateMutability":"nonpayable","type":"constructor"},{"anonymous":false,"inputs":[{"indexed":true,"internalType":"address","name":"user","type":"address"}],"name":"DisputeInitiated","type":"event"},{"anonymous":false,"inputs":[{"indexed":true,"internalType":"address","name":"user","type":"address"}],"name":"DisputeLost","type":"event"},{"anonymous":false,"inputs":[{"indexed":true,"internalType":"address","name":"endorser","type":"address"},{"indexed":true,"internalType":"address","name":"endorsed","type":"address"}],"name":"EndorsementGiven","type":"event"},{"anonymous":false,"inputs":[{"indexed":true,"internalType":"address","name":"endorser","type":"address"},{"indexed":true,"internalType":"address","name":"endorsed","type":"address"}],"name":"EndorsementReceived","type":"event"},{"anonymous":false,"inputs":[{"indexed":true,"internalType":"address","name":"user","type":"address"},{"indexed":false,"internalType":"uint256","name":"newReputationScore","type":"uint256"}],"name":"ReputationUpdated","type":"event"},{"anonymous":false,"inputs":[{"indexed":true,"internalType":"address","name":"user","type":"address"}],"name":"TradeStatsUpdated","type":"event"},{"anonymous":false,"inputs":[{"indexed":true,"internalType":"address","name":"user","type":"address"},{"indexed":true,"internalType":"uint256","name":"userId","type":"uint256"}],"name":"UserProfileUpdated","type":"event"},{"anonymous":false,"inputs":[{"indexed":true,"internalType":"address","name":"user","type":"address"},{"indexed":true,"internalType":"uint256","name":"userId","type":"uint256"}],"name":"UserRegistered","type":"event"},{"anonymous":false,"inputs":[{"indexed":true,"internalType":"address","name":"user","type":"address"},{"indexed":true,"internalType":"uint256","name":"userId","type":"uint256"},{"indexed":false,"internalType":"string","name":"newRole","type":"string"}],"name":"UserRoleUpdated","type":"event"},{"inputs":[{"internalType":"address","name":"_user","type":"address"}],"name":"getUserInfo","outputs":[{"components":[{"internalType":"uint256","name":"userId","type":"uint256"},{"internalType":"bytes32","name":"userEmail","type":"bytes32"},{"internalType":"bytes32","name":"userChatHandle","type":"bytes32"},{"internalType":"bytes32","name":"userWebsite","type":"bytes32"},{"internalType":"string","name":"userAvatar","type":"string"},{"internalType":"string","name":"userRole","type":"string"}],"internalType":"struct Account.UserBasicInfo","name":"basicInfo","type":"tuple"},{"components":[{"internalType":"uint256","name":"userReputationScore","type":"uint256"},{"internalType":"uint256","name":"userEndorsementsGiven","type":"uint256"},{"internalType":"uint256","name":"userEndorsementsReceived","type":"uint256"},{"internalType":"uint256","name":"userRatingsGiven","type":"uint256"},{"internalType":"uint256","name":"userRatingsReceived","type":"uint256"},{"internalType":"uint256","name":"userDisputesInitiated","type":"uint256"},{"internalType":"uint256","name":"userDisputesLost","type":"uint256"},{"internalType":"uint256","name":"userTotalTradesInitiated","type":"uint256"},{"internalType":"uint256","name":"userTotalTradesAccepted","type":"uint256"},{"internalType":"uint256","name":"userTotalTradesCompleted","type":"uint256"},{"internalType":"uint256","name":"userTotalTradeVolume","type":"uint256"},{"internalType":"uint256","name":"userAverageTradeVolume","type":"uint256"},{"internalType":"uint256","name":"userLastCompletedTradeDate","type":"uint256"}],"internalType":"struct Account.UserStats","name":"stats","type":"tuple"}],"stateMutability":"view","type":"function"},{"inputs":[{"internalType":"address","name":"_user","type":"address"}],"name":"getUserReputationScore","outputs":[{"internalType":"uint256","name":"","type":"uint256"}],"stateMutability":"view","type":"function"},{"inputs":[],"name":"owner","outputs":[{"internalType":"address","name":"","type":"address"}],"stateMutability":"view","type":"function"},{"inputs":[],"name":"registry","outputs":[{"internalType":"contract ContractRegistry","name":"","type":"address"}],"stateMutability":"view","type":"function"},{"inputs":[{"internalType":"address","name":"_user","type":"address"}],"name":"updateDisputesInitiated","outputs":[],"stateMutability":"nonpayable","type":"function"},{"inputs":[{"internalType":"address","name":"_user","type":"address"}],"name":"updateDisputesLost","outputs":[],"stateMutability":"nonpayable","type":"function"},{"inputs":[{"internalType":"address","name":"_endorser","type":"address"},{"internalType":"address","name":"_endorsed","type":"address"}],"name":"updateEndorsementsGiven","outputs":[],"stateMutability":"nonpayable","type":"function"},{"inputs":[{"internalType":"address","name":"_endorser","type":"address"},{"internalType":"address","name":"_endorsed","type":"address"}],"name":"updateEndorsementsReceived","outputs":[],"stateMutability":"nonpayable","type":"function"},{"inputs":[{"internalType":"address","name":"_user","type":"address"},{"internalType":"uint256","name":"_tradeVolume","type":"uint256"},{"internalType":"bool","name":"_initiated","type":"bool"},{"internalType":"bool","name":"_accepted","type":"bool"},{"internalType":"bool","name":"_completed","type":"bool"}],"name":"updateTradeStats","outputs":[],"stateMutability":"nonpayable","type":"function"},{"inputs":[{"internalType":"address","name":"","type":"address"}],"name":"userBasicInfo","outputs":[{"internalType":"uint256","name":"userId","type":"uint256"},{"internalType":"bytes32","name":"userEmail","type":"bytes32"},{"internalType":"bytes32","name":"userChatHandle","type":"bytes32"},{"internalType":"bytes32","name":"userWebsite","type":"bytes32"},{"internalType":"string","name":"userAvatar","type":"string"},{"internalType":"string","name":"userRole","type":"string"}],"stateMutability":"view","type":"function"},{"inputs":[],"name":"userCount","outputs":[{"internalType":"uint256","name":"","type":"uint256"}],"stateMutability":"view","type":"function"},{"inputs":[{"internalType":"uint256","name":"","type":"uint256"}],"name":"userIdToAddress","outputs":[{"internalType":"address","name":"","type":"address"}],"stateMutability":"view","type":"function"},{"inputs":[{"internalType":"bytes32","name":"_userEmail","type":"bytes32"},{"internalType":"bytes32","name":"_userChatHandle","type":"bytes32"},{"internalType":"bytes32","name":"_userWebsite","type":"bytes32"},{"internalType":"string","name":"_userAvatar","type":"string"}],"name":"userReg","outputs":[],"stateMutability":"nonpayable","type":"function"},{"inputs":[{"internalType":"address","name":"_user","type":"address"}],"name":"userReputationCalc","outputs":[{"internalType":"uint256","name":"","type":"uint256"}],"stateMutability":"nonpayable","type":"function"},{"inputs":[{"internalType":"address","name":"","type":"address"}],"name":"userStats","outputs":[{"internalType":"uint256","name":"userReputationScore","type":"uint256"},{"internalType":"uint256","name":"userEndorsementsGiven","type":"uint256"},{"internalType":"uint256","name":"userEndorsementsReceived","type":"uint256"},{"internalType":"uint256","name":"userRatingsGiven","type":"uint256"},{"internalType":"uint256","name":"userRatingsReceived","type":"uint256"},{"internalType":"uint256","name":"userDisputesInitiated","type":"uint256"},{"internalType":"uint256","name":"userDisputesLost","type":"uint256"},{"internalType":"uint256","name":"userTotalTradesInitiated","type":"uint256"},{"internalType":"uint256","name":"userTotalTradesAccepted","type":"uint256"},{"internalType":"uint256","name":"userTotalTradesCompleted","type":"uint256"},{"internalType":"uint256","name":"userTotalTradeVolume","type":"uint256"},{"internalType":"uint256","name":"userAverageTradeVolume","type":"uint256"},{"internalType":"uint256","name":"userLastCompletedTradeDate","type":"uint256"}],"stateMutability":"view","type":"function"},{"inputs":[{"internalType":"bytes32","name":"_userEmail","type":"bytes32"},{"internalType":"bytes32","name":"_userChatHandle","type":"bytes32"},{"internalType":"bytes32","name":"_userWebsite","type":"bytes32"},{"internalType":"string","name":"_userAvatar","type":"string"},{"internalType":"string","name":"_userRole","type":"string"}],"name":"userUpdateProfile","outputs":[],"stateMutability":"nonpayable","type":"function"}],"evm":{"bytecode":{"linkReferences":{},"object":"60803461007a57601f61199c38819003918201601f19168301916001600160401b0383118484101761007f5780849260209460405283398101031261007a57516001600160a01b0381169081900361007a5760018060a01b031933816000541617600055600154161760015560405161190690816100968239f35b600080fd5b634e487b7160e01b600052604160045260246000fdfe608080604052600436101561001357600080fd5b60003560e01c90816307973ccf14611617575080632328aea61461157c5780636386c1c7146112d95780636da7b3fc1461119457806374d3146e1461105e5780637b103999146110355780637b489ed814610eff5780637bb500e214610e0d578063849cf2a014610bd65780638a65d87414610b165780638da5cb5b14610aed57806390ba9f941461098c578063a4e2ea0b14610952578063af10fec51461053b578063b1695201146105075763be516195146100cf57600080fd5b346105025760803660031901126105025760243560043560643567ffffffffffffffff8111610502576101069036906004016117d8565b3360005260026020526040600020546104bd57811515806104b4575b15610461576101326005546118b4565b92836005556040519361014485611698565b8452602084019283526040840190815260608401906044358252608085019283526040516040810181811067ffffffffffffffff8211176103805760405260048152633ab9b2b960e11b602082015260a0860152336000526002602052604060002093855185555160018501555160028401555160038301555180519067ffffffffffffffff8211610380576101dd600484015461165e565b601f8111610416575b50602090601f83116001146103a157918060a09492600594600092610396575b50508160011b916000199060031b1c19161760048201555b0191015190815167ffffffffffffffff81116103805761023e825461165e565b601f8111610338575b50602092601f82116001146102d457928192936000926102c9575b50508160011b916000199060031b1c19161790555b60055460005260046020526040600020336bffffffffffffffffffffffff60a01b825416179055600554337fe29d35093005f4d575e1003753426b57a7f64378ba73332eef9c6ccc2b8decd6600080a3005b015190503880610262565b601f198216938360005260206000209160005b8681106103205750836001959610610307575b505050811b019055610277565b015160001960f88460031b161c191690553880806102fa565b919260206001819286850151815501940192016102e7565b826000526020600020601f830160051c81019160208410610376575b601f0160051c01905b81811061036a5750610247565b6000815560010161035d565b9091508190610354565b634e487b7160e01b600052604160045260246000fd5b015190503880610206565b906004840160005260206000209160005b601f19851681106103fe57509260a0949260019260059583601f198116106103e5575b505050811b01600482015561021e565b015160001960f88460031b161c191690553880806103d5565b919260206001819286850151815501940192016103b2565b600484016000526020600020601f840160051c81019160208510610457575b601f0160051c01905b81811061044b57506101e6565b6000815560010161043e565b9091508190610435565b60405162461bcd60e51b815260206004820152602560248201527f456d61696c20616e6420636861742068616e646c652063616e6e6f7420626520604482015264656d70747960d81b6064820152608490fd5b50821515610122565b60405162461bcd60e51b815260206004820152601760248201527f5573657220616c726561647920726567697374657265640000000000000000006044820152606490fd5b600080fd5b34610502576020366003190112610502576004356000526004602052602060018060a01b0360406000205416604051908152f35b346105025760a03660031901126105025760643567ffffffffffffffff81116105025761056c9036906004016117d8565b60843567ffffffffffffffff81116105025761058c9036906004016117d8565b33600052600260205260406000205415610917576000546001600160a01b0316331480156108ea575b1561088f57336000526002602052604060002090600435600183015560243560028301556044356003830155825167ffffffffffffffff8111610380576105ff600484015461165e565b601f8111610844575b506020601f82116001146107d857819293946000926107cd575b50508160011b916000199060031b1c19161760048301555b6000546001600160a01b03163314610677575b5054337f41ee65669409a0ac67e14c58fee5601cb71a227e78b60a97032cb150a8b6f4e5600080a3005b805191906005820167ffffffffffffffff841161038057610698815461165e565b601f8111610785575b50602093601f8111600114610720578091929394600091610715575b508160011b916000199060031b1c19161790555b8154907f44ecf1694e247e4eed3c572c67cdd1bcb18a4c3d159a0a5cc2d2381b58dd9e1b604051602081528061070c33946020830190611798565b0390a38161064d565b9050830151856106bd565b601f198116948260005260206000209060005b87811061076d57508260019495969710610754575b5050811b0190556106d1565b85015160001960f88460031b161c191690558580610748565b90916020600181928589015181550193019101610733565b816000526020600020601f860160051c810191602087106107c3575b601f0160051c01905b8181106107b757506106a1565b600081556001016107aa565b90915081906107a1565b015190508480610622565b601f198216906004850160005260206000209160005b81811061082c57509583600195969710610813575b505050811b01600483015561063a565b015160001960f88460031b161c19169055848080610803565b9192602060018192868b0151815501940192016107ee565b600484016000526020600020601f830160051c81019160208410610885575b601f0160051c01905b8181106108795750610608565b6000815560010161086c565b9091508190610863565b60405162461bcd60e51b815260206004820152602d60248201527f4f6e6c79207468652075736572206f722061646d696e2063616e20757064617460448201526c65207468652070726f66696c6560981b6064820152608490fd5b50336000526002602052604060002054600052600460205260018060a01b036040600020541633146105b5565b60405162461bcd60e51b8152602060048201526013602482015272155cd95c881b9bdd081c9959da5cdd195c9959606a1b6044820152606490fd5b34610502576020366003190112610502576001600160a01b03610973611632565b1660005260036020526020604060002054604051908152f35b34610502576040366003190112610502576109a5611632565b6109ad611648565b9060018060a01b038091816000541633148015610a95575b8015610a1d575b6109d59061184e565b169182600052600360205260016040600020016109f281546118b4565b905516907f98e9d32fe2d0d678817f18b4f079d2699a01440f871fee0da664fffbb0fa3be6600080a3005b5060206004926001541660405193848092637050565360e01b82525afa8015610a8957836109d5918194600091610a5a575b5016331490506109cc565b610a7c915060203d602011610a82575b610a7481836116d1565b81019061182f565b87610a4f565b503d610a6a565b6040513d6000823e3d90fd5b50602060049260015416604051938480926324ed653d60e11b82525afa918215610a895783928391600091610ace575b501633146109c5565b610ae7915060203d602011610a8257610a7481836116d1565b86610ac5565b34610502576000366003190112610502576000546040516001600160a01b039091168152602090f35b34610502576020366003190112610502576001600160a01b03610b37611632565b1660005260036020526101a0604060002080549060018101549060028101546003820154600483015460058401546006850154600786015491600887015493600988015495600a89015497600c600b8b01549a01549a6040519c8d5260208d015260408c015260608b015260808a015260a089015260c088015260e0870152610100860152610120850152610140840152610160830152610180820152f35b346105025760a036600319011261050257610bef611632565b60443560243581151582036105025760643592831515840361050257608435908115158203610502576000546001600160a01b039190821633148015610db8575b8015610d5c575b610c409061184e565b8315610d0b571693846000526003602052604060002093610cf6575b610ce1575b610c8e575b827f9a7edf3816145d4d9796439facb523bfaddfbd095981f88440412e0da6598023600080a2005b6009820190610c9d82546118b4565b809255610caf600a84019182546118c3565b8091558115610ccb5704600b820155600c429101558180610c66565b634e487b7160e01b600052601260045260246000fd5b60088301610cef81546118b4565b9055610c61565b60078401610d0481546118b4565b9055610c5c565b60405162461bcd60e51b815260206004820152602360248201527f547261646520766f6c756d65206d75737420626520677265617465722074686160448201526206e20360ec1b6064820152608490fd5b5060046020836001541660405192838092637050565360e01b82525afa908115610a8957610c40918491600091610d99575b501633149050610c37565b610db2915060203d602011610a8257610a7481836116d1565b89610d8e565b50600460208360015416604051928380926324ed653d60e11b82525afa8015610a89578391600091610dee575b50163314610c30565b610e07915060203d602011610a8257610a7481836116d1565b88610de5565b34610502576020366003190112610502576001600160a01b03610e2e611632565b1680600052600360205260406000206009810154600a810290808204600a1490151715610ee957610e6e90670de0b6b3a7640000600a84015404906118c3565b916006820154603281029080820460321490151715610ee9578303928311610ee957600282015492600584029380850460051490151715610ee957602093610eb5916118c3565b8092557ffc577563f1b9a0461e24abef1e1fcc0d33d3d881f20b5df6dda59de4aae2c82183604051848152a2604051908152f35b634e487b7160e01b600052601160045260246000fd5b346105025760208060031936011261050257610f19611632565b600054336001600160a01b0391821614918215610fe1575b8215610f85575b610f4360039361184e565b169182600052526006604060002001610f5c81546118b4565b90557f538b488539bec5da1b7056f2b971300dcc72d940255474c061453f7de8c4e277600080a2005b6004925083826001541660405194858092637050565360e01b82525afa8015610a895782610f4391600395600091610fc4575b50163314935050610f38565b610fdb9150873d8911610a8257610a7481836116d1565b87610fb8565b91506004838260015416604051928380926324ed653d60e11b82525afa8015610a89578291600091611018575b5016331491610f31565b61102f9150853d8711610a8257610a7481836116d1565b8561100e565b34610502576000366003190112610502576001546040516001600160a01b039091168152602090f35b346105025760208060031936011261050257611078611632565b600054336001600160a01b0391821614918215611140575b82156110e4575b6110a260039361184e565b1691826000525260056040600020016110bb81546118b4565b90557fdad56d2d81fd6e7af68edb2bd38935358747b828fbc4be904f40daa50a9fc6f9600080a2005b6004925083826001541660405194858092637050565360e01b82525afa8015610a8957826110a291600395600091611123575b50163314935050611097565b61113a9150873d8911610a8257610a7481836116d1565b87611117565b91506004838260015416604051928380926324ed653d60e11b82525afa8015610a89578291600091611177575b5016331491611090565b61118e9150853d8711610a8257610a7481836116d1565b8561116d565b34610502576040366003190112610502576111ad611632565b6111b5611648565b6000546001600160a01b03918291821633148015611281575b8015611225575b6111de9061184e565b169182600052600360205260026040600020016111fb81546118b4565b9055167f094e691f6cebc3375ecf0e31a0a8ef412e0f394ce120aeee4e4d80282ab76175600080a3005b5060206004926001541660405193848092637050565360e01b82525afa8015610a8957836111de918194600091611262575b5016331490506111d5565b61127b915060203d602011610a8257610a7481836116d1565b87611257565b50602060049260015416604051938480926324ed653d60e11b82525afa918215610a8957839283916000916112ba575b501633146111ce565b6112d3915060203d602011610a8257610a7481836116d1565b866112b1565b34610502576020366003190112610502576114f36112f5611632565b606060a060405161130581611698565b60008152600060208201526000604082015260008382015282608082015201526000610180604051611336816116b4565b8281528260208201528260408201528260608201528260808201528260a08201528260c08201528260e082015282610100820152826101208201528261014082015282610160820152015260018060a01b03811660005260026020526040600020906113e36005604051936113aa85611698565b805485526001810154602086015260028101546040860152600381015460608601526113d8600482016116f3565b6080860152016116f3565b60a083015260018060a01b031660005260036020526040600020600c6040519161140c836116b4565b8054835260018101546020840152600281015460408401526003810154606084015260048101546080840152600581015460a0840152600681015460c0840152600781015460e084015260088101546101008401526009810154610120840152600a810154610140840152600b81015461016084015201546101808201526101806040519384936101c080865281519086015260208101516101e08601526040810151610200860152606081015161022086015260a06114dd608083015160c0610240890152610280880190611798565b9101518582036101bf1901610260870152611798565b9180516020850152602081015160408501526040810151606085015260608101516080850152608081015160a085015260a081015160c085015260c081015160e085015260e08101516101008501526101008101516101208501526101208101516101408501526101408101516101608501526101608101518285015201516101a08301520390f35b34610502576020366003190112610502576001600160a01b0361159d611632565b1660005260026020526040600020805461161360018301549261160560028201549160038101546115dc60056115d5600485016116f3565b93016116f3565b93604051978897885260208801526040870152606086015260c0608086015260c0850190611798565b9083820360a0850152611798565b0390f35b34610502576000366003190112610502576020906005548152f35b600435906001600160a01b038216820361050257565b602435906001600160a01b038216820361050257565b90600182811c9216801561168e575b602083101461167857565b634e487b7160e01b600052602260045260246000fd5b91607f169161166d565b60c0810190811067ffffffffffffffff82111761038057604052565b6101a0810190811067ffffffffffffffff82111761038057604052565b90601f8019910116810190811067ffffffffffffffff82111761038057604052565b906040519182600082546117068161165e565b908184526020946001916001811690816000146117765750600114611737575b505050611735925003836116d1565b565b600090815285812095935091905b81831061175e5750506117359350820101388080611726565b85548884018501529485019487945091830191611745565b9250505061173594925060ff191682840152151560051b820101388080611726565b919082519283825260005b8481106117c4575050826000602080949584010152601f8019910116010190565b6020818301810151848301820152016117a3565b81601f820112156105025780359067ffffffffffffffff8211610380576040519261180d601f8401601f1916602001856116d1565b8284526020838301011161050257816000926020809301838601378301015290565b9081602091031261050257516001600160a01b03811681036105025790565b1561185557565b60405162461bcd60e51b815260206004820152603160248201527f4f6e6c7920617574686f72697a656420636f6e7472616374732063616e207065604482015270393337b936903a3434b99030b1ba34b7b760791b6064820152608490fd5b6000198114610ee95760010190565b91908201809211610ee95756fea2646970667358221220e9b435511e47ff14b8e4d347e2f7c36798454008834ca05ecdb68ba567e29f9564736f6c63430008180033","opcodes":"PUSH1 0x80 CALLVALUE PUSH2 0x7A JUMPI PUSH1 0x1F PUSH2 0x199C CODESIZE DUP2 SWAP1 SUB SWAP2 DUP3 ADD PUSH1 0x1F NOT AND DUP4 ADD SWAP2 PUSH1 0x1 PUSH1 0x1 PUSH1 0x40 SHL SUB DUP4 GT DUP5 DUP5 LT OR PUSH2 0x7F JUMPI DUP1 DUP5 SWAP3 PUSH1 0x20 SWAP5 PUSH1 0x40 MSTORE DUP4 CODECOPY DUP2 ADD SUB SLT PUSH2 0x7A JUMPI MLOAD PUSH1 0x1 PUSH1 0x1 PUSH1 0xA0 SHL SUB DUP2 AND SWAP1 DUP2 SWAP1 SUB PUSH2 0x7A JUMPI PUSH1 0x1 DUP1 PUSH1 0xA0 SHL SUB NOT CALLER DUP2 PUSH1 0x0 SLOAD AND OR PUSH1 0x0 SSTORE PUSH1 0x1 SLOAD AND OR PUSH1 0x1 SSTORE PUSH1 0x40 MLOAD PUSH2 0x1906 SWAP1 DUP2 PUSH2 0x96 DUP3 CODECOPY RETURN JUMPDEST PUSH1 0x0 DUP1 REVERT JUMPDEST PUSH4 0x4E487B71 PUSH1 0xE0 SHL PUSH1 0x0 MSTORE PUSH1 0x41 PUSH1 0x4 MSTORE PUSH1 0x24 PUSH1 0x0 REVERT INVALID PUSH1 0x80 DUP1 PUSH1 0x40 MSTORE PUSH1 0x4 CALLDATASIZE LT ISZERO PUSH2 0x13 JUMPI PUSH1 0x0 DUP1 REVERT JUMPDEST PUSH1 0x0 CALLDATALOAD PUSH1 0xE0 SHR SWAP1 DUP2 PUSH4 0x7973CCF EQ PUSH2 0x1617 JUMPI POP DUP1 PUSH4 0x2328AEA6 EQ PUSH2 0x157C JUMPI DUP1 PUSH4 0x6386C1C7 EQ PUSH2 0x12D9 JUMPI DUP1 PUSH4 0x6DA7B3FC EQ PUSH2 0x1194 JUMPI DUP1 PUSH4 0x74D3146E EQ PUSH2 0x105E JUMPI DUP1 PUSH4 0x7B103999 EQ PUSH2 0x1035 JUMPI DUP1 PUSH4 0x7B489ED8 EQ PUSH2 0xEFF JUMPI DUP1 PUSH4 0x7BB500E2 EQ PUSH2 0xE0D JUMPI DUP1 PUSH4 0x849CF2A0 EQ PUSH2 0xBD6 JUMPI DUP1 PUSH4 0x8A65D874 EQ PUSH2 0xB16 JUMPI DUP1 PUSH4 0x8DA5CB5B EQ PUSH2 0xAED JUMPI DUP1 PUSH4 0x90BA9F94 EQ PUSH2 0x98C JUMPI DUP1 PUSH4 0xA4E2EA0B EQ PUSH2 0x952 JUMPI DUP1 PUSH4 0xAF10FEC5 EQ PUSH2 0x53B JUMPI DUP1 PUSH4 0xB1695201 EQ PUSH2 0x507 JUMPI PUSH4 0xBE516195 EQ PUSH2 0xCF JUMPI PUSH1 0x0 DUP1 REVERT JUMPDEST CALLVALUE PUSH2 0x502 JUMPI PUSH1 0x80 CALLDATASIZE PUSH1 0x3 NOT ADD SLT PUSH2 0x502 JUMPI PUSH1 0x24 CALLDATALOAD PUSH1 0x4 CALLDATALOAD PUSH1 0x64 CALLDATALOAD PUSH8 0xFFFFFFFFFFFFFFFF DUP2 GT PUSH2 0x502 JUMPI PUSH2 0x106 SWAP1 CALLDATASIZE SWAP1 PUSH1 0x4 ADD PUSH2 0x17D8 JUMP JUMPDEST CALLER PUSH1 0x0 MSTORE PUSH1 0x2 PUSH1 0x20 MSTORE PUSH1 0x40 PUSH1 0x0 KECCAK256 SLOAD PUSH2 0x4BD JUMPI DUP2 ISZERO ISZERO DUP1 PUSH2 0x4B4 JUMPI JUMPDEST ISZERO PUSH2 0x461 JUMPI PUSH2 0x132 PUSH1 0x5 SLOAD PUSH2 0x18B4 JUMP JUMPDEST SWAP3 DUP4 PUSH1 0x5 SSTORE PUSH1 0x40 MLOAD SWAP4 PUSH2 0x144 DUP6 PUSH2 0x1698 JUMP JUMPDEST DUP5 MSTORE PUSH1 0x20 DUP5 ADD SWAP3 DUP4 MSTORE PUSH1 0x40 DUP5 ADD SWAP1 DUP2 MSTORE PUSH1 0x60 DUP5 ADD SWAP1 PUSH1 0x44 CALLDATALOAD DUP3 MSTORE PUSH1 0x80 DUP6 ADD SWAP3 DUP4 MSTORE PUSH1 0x40 MLOAD PUSH1 0x40 DUP2 ADD DUP2 DUP2 LT PUSH8 0xFFFFFFFFFFFFFFFF DUP3 GT OR PUSH2 0x380 JUMPI PUSH1 0x40 MSTORE PUSH1 0x4 DUP2 MSTORE PUSH4 0x3AB9B2B9 PUSH1 0xE1 SHL PUSH1 0x20 DUP3 ADD MSTORE PUSH1 0xA0 DUP7 ADD MSTORE CALLER PUSH1 0x0 MSTORE PUSH1 0x2 PUSH1 0x20 MSTORE PUSH1 0x40 PUSH1 0x0 KECCAK256 SWAP4 DUP6 MLOAD DUP6 SSTORE MLOAD PUSH1 0x1 DUP6 ADD SSTORE MLOAD PUSH1 0x2 DUP5 ADD SSTORE MLOAD PUSH1 0x3 DUP4 ADD SSTORE MLOAD DUP1 MLOAD SWAP1 PUSH8 0xFFFFFFFFFFFFFFFF DUP3 GT PUSH2 0x380 JUMPI PUSH2 0x1DD PUSH1 0x4 DUP5 ADD SLOAD PUSH2 0x165E JUMP JUMPDEST PUSH1 0x1F DUP2 GT PUSH2 0x416 JUMPI JUMPDEST POP PUSH1 0x20 SWAP1 PUSH1 0x1F DUP4 GT PUSH1 0x1 EQ PUSH2 0x3A1 JUMPI SWAP2 DUP1 PUSH1 0xA0 SWAP5 SWAP3 PUSH1 0x5 SWAP5 PUSH1 0x0 SWAP3 PUSH2 0x396 JUMPI JUMPDEST POP POP DUP2 PUSH1 0x1 SHL SWAP2 PUSH1 0x0 NOT SWAP1 PUSH1 0x3 SHL SHR NOT AND OR PUSH1 0x4 DUP3 ADD SSTORE JUMPDEST ADD SWAP2 ADD MLOAD SWAP1 DUP2 MLOAD PUSH8 0xFFFFFFFFFFFFFFFF DUP2 GT PUSH2 0x380 JUMPI PUSH2 0x23E DUP3 SLOAD PUSH2 0x165E JUMP JUMPDEST PUSH1 0x1F DUP2 GT PUSH2 0x338 JUMPI JUMPDEST POP PUSH1 0x20 SWAP3 PUSH1 0x1F DUP3 GT PUSH1 0x1 EQ PUSH2 0x2D4 JUMPI SWAP3 DUP2 SWAP3 SWAP4 PUSH1 0x0 SWAP3 PUSH2 0x2C9 JUMPI JUMPDEST POP POP DUP2 PUSH1 0x1 SHL SWAP2 PUSH1 0x0 NOT SWAP1 PUSH1 0x3 SHL SHR NOT AND OR SWAP1 SSTORE JUMPDEST PUSH1 0x5 SLOAD PUSH1 0x0 MSTORE PUSH1 0x4 PUSH1 0x20 MSTORE PUSH1 0x40 PUSH1 0x0 KECCAK256 CALLER PUSH12 0xFFFFFFFFFFFFFFFFFFFFFFFF PUSH1 0xA0 SHL DUP3 SLOAD AND OR SWAP1 SSTORE PUSH1 0x5 SLOAD CALLER PUSH32 0xE29D35093005F4D575E1003753426B57A7F64378BA73332EEF9C6CCC2B8DECD6 PUSH1 0x0 DUP1 LOG3 STOP JUMPDEST ADD MLOAD SWAP1 POP CODESIZE DUP1 PUSH2 0x262 JUMP JUMPDEST PUSH1 0x1F NOT DUP3 AND SWAP4 DUP4 PUSH1 0x0 MSTORE PUSH1 0x20 PUSH1 0x0 KECCAK256 SWAP2 PUSH1 0x0 JUMPDEST DUP7 DUP2 LT PUSH2 0x320 JUMPI POP DUP4 PUSH1 0x1 SWAP6 SWAP7 LT PUSH2 0x307 JUMPI JUMPDEST POP POP POP DUP2 SHL ADD SWAP1 SSTORE PUSH2 0x277 JUMP JUMPDEST ADD MLOAD PUSH1 0x0 NOT PUSH1 0xF8 DUP5 PUSH1 0x3 SHL AND SHR NOT AND SWAP1 SSTORE CODESIZE DUP1 DUP1 PUSH2 0x2FA JUMP JUMPDEST SWAP2 SWAP3 PUSH1 0x20 PUSH1 0x1 DUP2 SWAP3 DUP7 DUP6 ADD MLOAD DUP2 SSTORE ADD SWAP5 ADD SWAP3 ADD PUSH2 0x2E7 JUMP JUMPDEST DUP3 PUSH1 0x0 MSTORE PUSH1 0x20 PUSH1 0x0 KECCAK256 PUSH1 0x1F DUP4 ADD PUSH1 0x5 SHR DUP2 ADD SWAP2 PUSH1 0x20 DUP5 LT PUSH2 0x376 JUMPI JUMPDEST PUSH1 0x1F ADD PUSH1 0x5 SHR ADD SWAP1 JUMPDEST DUP2 DUP2 LT PUSH2 0x36A JUMPI POP PUSH2 0x247 JUMP JUMPDEST PUSH1 0x0 DUP2 SSTORE PUSH1 0x1 ADD PUSH2 0x35D JUMP JUMPDEST SWAP1 SWAP2 POP DUP2 SWAP1 PUSH2 0x354 JUMP JUMPDEST PUSH4 0x4E487B71 PUSH1 0xE0 SHL PUSH1 0x0 MSTORE PUSH1 0x41 PUSH1 0x4 MSTORE PUSH1 0x24 PUSH1 0x0 REVERT JUMPDEST ADD MLOAD SWAP1 POP CODESIZE DUP1 PUSH2 0x206 JUMP JUMPDEST SWAP1 PUSH1 0x4 DUP5 ADD PUSH1 0x0 MSTORE PUSH1 0x20 PUSH1 0x0 KECCAK256 SWAP2 PUSH1 0x0 JUMPDEST PUSH1 0x1F NOT DUP6 AND DUP2 LT PUSH2 0x3FE JUMPI POP SWAP3 PUSH1 0xA0 SWAP5 SWAP3 PUSH1 0x1 SWAP3 PUSH1 0x5 SWAP6 DUP4 PUSH1 0x1F NOT DUP2 AND LT PUSH2 0x3E5 JUMPI JUMPDEST POP POP POP DUP2 SHL ADD PUSH1 0x4 DUP3 ADD SSTORE PUSH2 0x21E JUMP JUMPDEST ADD MLOAD PUSH1 0x0 NOT PUSH1 0xF8 DUP5 PUSH1 0x3 SHL AND SHR NOT AND SWAP1 SSTORE CODESIZE DUP1 DUP1 PUSH2 0x3D5 JUMP JUMPDEST SWAP2 SWAP3 PUSH1 0x20 PUSH1 0x1 DUP2 SWAP3 DUP7 DUP6 ADD MLOAD DUP2 SSTORE ADD SWAP5 ADD SWAP3 ADD PUSH2 0x3B2 JUMP JUMPDEST PUSH1 0x4 DUP5 ADD PUSH1 0x0 MSTORE PUSH1 0x20 PUSH1 0x0 KECCAK256 PUSH1 0x1F DUP5 ADD PUSH1 0x5 SHR DUP2 ADD SWAP2 PUSH1 0x20 DUP6 LT PUSH2 0x457 JUMPI JUMPDEST PUSH1 0x1F ADD PUSH1 0x5 SHR ADD SWAP1 JUMPDEST DUP2 DUP2 LT PUSH2 0x44B JUMPI POP PUSH2 0x1E6 JUMP JUMPDEST PUSH1 0x0 DUP2 SSTORE PUSH1 0x1 ADD PUSH2 0x43E JUMP JUMPDEST SWAP1 SWAP2 POP DUP2 SWAP1 PUSH2 0x435 JUMP JUMPDEST PUSH1 0x40 MLOAD PUSH3 0x461BCD PUSH1 0xE5 SHL DUP2 MSTORE PUSH1 0x20 PUSH1 0x4 DUP3 ADD MSTORE PUSH1 0x25 PUSH1 0x24 DUP3 ADD MSTORE PUSH32 0x456D61696C20616E6420636861742068616E646C652063616E6E6F7420626520 PUSH1 0x44 DUP3 ADD MSTORE PUSH5 0x656D707479 PUSH1 0xD8 SHL PUSH1 0x64 DUP3 ADD MSTORE PUSH1 0x84 SWAP1 REVERT JUMPDEST POP DUP3 ISZERO ISZERO PUSH2 0x122 JUMP JUMPDEST PUSH1 0x40 MLOAD PUSH3 0x461BCD PUSH1 0xE5 SHL DUP2 MSTORE PUSH1 0x20 PUSH1 0x4 DUP3 ADD MSTORE PUSH1 0x17 PUSH1 0x24 DUP3 ADD MSTORE PUSH32 0x5573657220616C72656164792072656769737465726564000000000000000000 PUSH1 0x44 DUP3 ADD MSTORE PUSH1 0x64 SWAP1 REVERT JUMPDEST PUSH1 0x0 DUP1 REVERT JUMPDEST CALLVALUE PUSH2 0x502 JUMPI PUSH1 0x20 CALLDATASIZE PUSH1 0x3 NOT ADD SLT PUSH2 0x502 JUMPI PUSH1 0x4 CALLDATALOAD PUSH1 0x0 MSTORE PUSH1 0x4 PUSH1 0x20 MSTORE PUSH1 0x20 PUSH1 0x1 DUP1 PUSH1 0xA0 SHL SUB PUSH1 0x40 PUSH1 0x0 KECCAK256 SLOAD AND PUSH1 0x40 MLOAD SWAP1 DUP2 MSTORE RETURN JUMPDEST CALLVALUE PUSH2 0x502 JUMPI PUSH1 0xA0 CALLDATASIZE PUSH1 0x3 NOT ADD SLT PUSH2 0x502 JUMPI PUSH1 0x64 CALLDATALOAD PUSH8 0xFFFFFFFFFFFFFFFF DUP2 GT PUSH2 0x502 JUMPI PUSH2 0x56C SWAP1 CALLDATASIZE SWAP1 PUSH1 0x4 ADD PUSH2 0x17D8 JUMP JUMPDEST PUSH1 0x84 CALLDATALOAD PUSH8 0xFFFFFFFFFFFFFFFF DUP2 GT PUSH2 0x502 JUMPI PUSH2 0x58C SWAP1 CALLDATASIZE SWAP1 PUSH1 0x4 ADD PUSH2 0x17D8 JUMP JUMPDEST CALLER PUSH1 0x0 MSTORE PUSH1 0x2 PUSH1 0x20 MSTORE PUSH1 0x40 PUSH1 0x0 KECCAK256 SLOAD ISZERO PUSH2 0x917 JUMPI PUSH1 0x0 SLOAD PUSH1 0x1 PUSH1 0x1 PUSH1 0xA0 SHL SUB AND CALLER EQ DUP1 ISZERO PUSH2 0x8EA JUMPI JUMPDEST ISZERO PUSH2 0x88F JUMPI CALLER PUSH1 0x0 MSTORE PUSH1 0x2 PUSH1 0x20 MSTORE PUSH1 0x40 PUSH1 0x0 KECCAK256 SWAP1 PUSH1 0x4 CALLDATALOAD PUSH1 0x1 DUP4 ADD SSTORE PUSH1 0x24 CALLDATALOAD PUSH1 0x2 DUP4 ADD SSTORE PUSH1 0x44 CALLDATALOAD PUSH1 0x3 DUP4 ADD SSTORE DUP3 MLOAD PUSH8 0xFFFFFFFFFFFFFFFF DUP2 GT PUSH2 0x380 JUMPI PUSH2 0x5FF PUSH1 0x4 DUP5 ADD SLOAD PUSH2 0x165E JUMP JUMPDEST PUSH1 0x1F DUP2 GT PUSH2 0x844 JUMPI JUMPDEST POP PUSH1 0x20 PUSH1 0x1F DUP3 GT PUSH1 0x1 EQ PUSH2 0x7D8 JUMPI DUP2 SWAP3 SWAP4 SWAP5 PUSH1 0x0 SWAP3 PUSH2 0x7CD JUMPI JUMPDEST POP POP DUP2 PUSH1 0x1 SHL SWAP2 PUSH1 0x0 NOT SWAP1 PUSH1 0x3 SHL SHR NOT AND OR PUSH1 0x4 DUP4 ADD SSTORE JUMPDEST PUSH1 0x0 SLOAD PUSH1 0x1 PUSH1 0x1 PUSH1 0xA0 SHL SUB AND CALLER EQ PUSH2 0x677 JUMPI JUMPDEST POP SLOAD CALLER PUSH32 0x41EE65669409A0AC67E14C58FEE5601CB71A227E78B60A97032CB150A8B6F4E5 PUSH1 0x0 DUP1 LOG3 STOP JUMPDEST DUP1 MLOAD SWAP2 SWAP1 PUSH1 0x5 DUP3 ADD PUSH8 0xFFFFFFFFFFFFFFFF DUP5 GT PUSH2 0x380 JUMPI PUSH2 0x698 DUP2 SLOAD PUSH2 0x165E JUMP JUMPDEST PUSH1 0x1F DUP2 GT PUSH2 0x785 JUMPI JUMPDEST POP PUSH1 0x20 SWAP4 PUSH1 0x1F DUP2 GT PUSH1 0x1 EQ PUSH2 0x720 JUMPI DUP1 SWAP2 SWAP3 SWAP4 SWAP5 PUSH1 0x0 SWAP2 PUSH2 0x715 JUMPI JUMPDEST POP DUP2 PUSH1 0x1 SHL SWAP2 PUSH1 0x0 NOT SWAP1 PUSH1 0x3 SHL SHR NOT AND OR SWAP1 SSTORE JUMPDEST DUP2 SLOAD SWAP1 PUSH32 0x44ECF1694E247E4EED3C572C67CDD1BCB18A4C3D159A0A5CC2D2381B58DD9E1B PUSH1 0x40 MLOAD PUSH1 0x20 DUP2 MSTORE DUP1 PUSH2 0x70C CALLER SWAP5 PUSH1 0x20 DUP4 ADD SWAP1 PUSH2 0x1798 JUMP JUMPDEST SUB SWAP1 LOG3 DUP2 PUSH2 0x64D JUMP JUMPDEST SWAP1 POP DUP4 ADD MLOAD DUP6 PUSH2 0x6BD JUMP JUMPDEST PUSH1 0x1F NOT DUP2 AND SWAP5 DUP3 PUSH1 0x0 MSTORE PUSH1 0x20 PUSH1 0x0 KECCAK256 SWAP1 PUSH1 0x0 JUMPDEST DUP8 DUP2 LT PUSH2 0x76D JUMPI POP DUP3 PUSH1 0x1 SWAP5 SWAP6 SWAP7 SWAP8 LT PUSH2 0x754 JUMPI JUMPDEST POP POP DUP2 SHL ADD SWAP1 SSTORE PUSH2 0x6D1 JUMP JUMPDEST DUP6 ADD MLOAD PUSH1 0x0 NOT PUSH1 0xF8 DUP5 PUSH1 0x3 SHL AND SHR NOT AND SWAP1 SSTORE DUP6 DUP1 PUSH2 0x748 JUMP JUMPDEST SWAP1 SWAP2 PUSH1 0x20 PUSH1 0x1 DUP2 SWAP3 DUP6 DUP10 ADD MLOAD DUP2 SSTORE ADD SWAP4 ADD SWAP2 ADD PUSH2 0x733 JUMP JUMPDEST DUP2 PUSH1 0x0 MSTORE PUSH1 0x20 PUSH1 0x0 KECCAK256 PUSH1 0x1F DUP7 ADD PUSH1 0x5 SHR DUP2 ADD SWAP2 PUSH1 0x20 DUP8 LT PUSH2 0x7C3 JUMPI JUMPDEST PUSH1 0x1F ADD PUSH1 0x5 SHR ADD SWAP1 JUMPDEST DUP2 DUP2 LT PUSH2 0x7B7 JUMPI POP PUSH2 0x6A1 JUMP JUMPDEST PUSH1 0x0 DUP2 SSTORE PUSH1 0x1 ADD PUSH2 0x7AA JUMP JUMPDEST SWAP1 SWAP2 POP DUP2 SWAP1 PUSH2 0x7A1 JUMP JUMPDEST ADD MLOAD SWAP1 POP DUP5 DUP1 PUSH2 0x622 JUMP JUMPDEST PUSH1 0x1F NOT DUP3 AND SWAP1 PUSH1 0x4 DUP6 ADD PUSH1 0x0 MSTORE PUSH1 0x20 PUSH1 0x0 KECCAK256 SWAP2 PUSH1 0x0 JUMPDEST DUP2 DUP2 LT PUSH2 0x82C JUMPI POP SWAP6 DUP4 PUSH1 0x1 SWAP6 SWAP7 SWAP8 LT PUSH2 0x813 JUMPI JUMPDEST POP POP POP DUP2 SHL ADD PUSH1 0x4 DUP4 ADD SSTORE PUSH2 0x63A JUMP JUMPDEST ADD MLOAD PUSH1 0x0 NOT PUSH1 0xF8 DUP5 PUSH1 0x3 SHL AND SHR NOT AND SWAP1 SSTORE DUP5 DUP1 DUP1 PUSH2 0x803 JUMP JUMPDEST SWAP2 SWAP3 PUSH1 0x20 PUSH1 0x1 DUP2 SWAP3 DUP7 DUP12 ADD MLOAD DUP2 SSTORE ADD SWAP5 ADD SWAP3 ADD PUSH2 0x7EE JUMP JUMPDEST PUSH1 0x4 DUP5 ADD PUSH1 0x0 MSTORE PUSH1 0x20 PUSH1 0x0 KECCAK256 PUSH1 0x1F DUP4 ADD PUSH1 0x5 SHR DUP2 ADD SWAP2 PUSH1 0x20 DUP5 LT PUSH2 0x885 JUMPI JUMPDEST PUSH1 0x1F ADD PUSH1 0x5 SHR ADD SWAP1 JUMPDEST DUP2 DUP2 LT PUSH2 0x879 JUMPI POP PUSH2 0x608 JUMP JUMPDEST PUSH1 0x0 DUP2 SSTORE PUSH1 0x1 ADD PUSH2 0x86C JUMP JUMPDEST SWAP1 SWAP2 POP DUP2 SWAP1 PUSH2 0x863 JUMP JUMPDEST PUSH1 0x40 MLOAD PUSH3 0x461BCD PUSH1 0xE5 SHL DUP2 MSTORE PUSH1 0x20 PUSH1 0x4 DUP3 ADD MSTORE PUSH1 0x2D PUSH1 0x24 DUP3 ADD MSTORE PUSH32 0x4F6E6C79207468652075736572206F722061646D696E2063616E207570646174 PUSH1 0x44 DUP3 ADD MSTORE PUSH13 0x65207468652070726F66696C65 PUSH1 0x98 SHL PUSH1 0x64 DUP3 ADD MSTORE PUSH1 0x84 SWAP1 REVERT JUMPDEST POP CALLER PUSH1 0x0 MSTORE PUSH1 0x2 PUSH1 0x20 MSTORE PUSH1 0x40 PUSH1 0x0 KECCAK256 SLOAD PUSH1 0x0 MSTORE PUSH1 0x4 PUSH1 0x20 MSTORE PUSH1 0x1 DUP1 PUSH1 0xA0 SHL SUB PUSH1 0x40 PUSH1 0x0 KECCAK256 SLOAD AND CALLER EQ PUSH2 0x5B5 JUMP JUMPDEST PUSH1 0x40 MLOAD PUSH3 0x461BCD PUSH1 0xE5 SHL DUP2 MSTORE PUSH1 0x20 PUSH1 0x4 DUP3 ADD MSTORE PUSH1 0x13 PUSH1 0x24 DUP3 ADD MSTORE PUSH19 0x155CD95C881B9BDD081C9959DA5CDD195C9959 PUSH1 0x6A SHL PUSH1 0x44 DUP3 ADD MSTORE PUSH1 0x64 SWAP1 REVERT JUMPDEST CALLVALUE PUSH2 0x502 JUMPI PUSH1 0x20 CALLDATASIZE PUSH1 0x3 NOT ADD SLT PUSH2 0x502 JUMPI PUSH1 0x1 PUSH1 0x1 PUSH1 0xA0 SHL SUB PUSH2 0x973 PUSH2 0x1632 JUMP JUMPDEST AND PUSH1 0x0 MSTORE PUSH1 0x3 PUSH1 0x20 MSTORE PUSH1 0x20 PUSH1 0x40 PUSH1 0x0 KECCAK256 SLOAD PUSH1 0x40 MLOAD SWAP1 DUP2 MSTORE RETURN JUMPDEST CALLVALUE PUSH2 0x502 JUMPI PUSH1 0x40 CALLDATASIZE PUSH1 0x3 NOT ADD SLT PUSH2 0x502 JUMPI PUSH2 0x9A5 PUSH2 0x1632 JUMP JUMPDEST PUSH2 0x9AD PUSH2 0x1648 JUMP JUMPDEST SWAP1 PUSH1 0x1 DUP1 PUSH1 0xA0 SHL SUB DUP1 SWAP2 DUP2 PUSH1 0x0 SLOAD AND CALLER EQ DUP1 ISZERO PUSH2 0xA95 JUMPI JUMPDEST DUP1 ISZERO PUSH2 0xA1D JUMPI JUMPDEST PUSH2 0x9D5 SWAP1 PUSH2 0x184E JUMP JUMPDEST AND SWAP2 DUP3 PUSH1 0x0 MSTORE PUSH1 0x3 PUSH1 0x20 MSTORE PUSH1 0x1 PUSH1 0x40 PUSH1 0x0 KECCAK256 ADD PUSH2 0x9F2 DUP2 SLOAD PUSH2 0x18B4 JUMP JUMPDEST SWAP1 SSTORE AND SWAP1 PUSH32 0x98E9D32FE2D0D678817F18B4F079D2699A01440F871FEE0DA664FFFBB0FA3BE6 PUSH1 0x0 DUP1 LOG3 STOP JUMPDEST POP PUSH1 0x20 PUSH1 0x4 SWAP3 PUSH1 0x1 SLOAD AND PUSH1 0x40 MLOAD SWAP4 DUP5 DUP1 SWAP3 PUSH4 0x70505653 PUSH1 0xE0 SHL DUP3 MSTORE GAS STATICCALL DUP1 ISZERO PUSH2 0xA89 JUMPI DUP4 PUSH2 0x9D5 SWAP2 DUP2 SWAP5 PUSH1 0x0 SWAP2 PUSH2 0xA5A JUMPI JUMPDEST POP AND CALLER EQ SWAP1 POP PUSH2 0x9CC JUMP JUMPDEST PUSH2 0xA7C SWAP2 POP PUSH1 0x20 RETURNDATASIZE PUSH1 0x20 GT PUSH2 0xA82 JUMPI JUMPDEST PUSH2 0xA74 DUP2 DUP4 PUSH2 0x16D1 JUMP JUMPDEST DUP2 ADD SWAP1 PUSH2 0x182F JUMP JUMPDEST DUP8 PUSH2 0xA4F JUMP JUMPDEST POP RETURNDATASIZE PUSH2 0xA6A JUMP JUMPDEST PUSH1 0x40 MLOAD RETURNDATASIZE PUSH1 0x0 DUP3 RETURNDATACOPY RETURNDATASIZE SWAP1 REVERT JUMPDEST POP PUSH1 0x20 PUSH1 0x4 SWAP3 PUSH1 0x1 SLOAD AND PUSH1 0x40 MLOAD SWAP4 DUP5 DUP1 SWAP3 PUSH4 0x24ED653D PUSH1 0xE1 SHL DUP3 MSTORE GAS STATICCALL SWAP2 DUP3 ISZERO PUSH2 0xA89 JUMPI DUP4 SWAP3 DUP4 SWAP2 PUSH1 0x0 SWAP2 PUSH2 0xACE JUMPI JUMPDEST POP AND CALLER EQ PUSH2 0x9C5 JUMP JUMPDEST PUSH2 0xAE7 SWAP2 POP PUSH1 0x20 RETURNDATASIZE PUSH1 0x20 GT PUSH2 0xA82 JUMPI PUSH2 0xA74 DUP2 DUP4 PUSH2 0x16D1 JUMP JUMPDEST DUP7 PUSH2 0xAC5 JUMP JUMPDEST CALLVALUE PUSH2 0x502 JUMPI PUSH1 0x0 CALLDATASIZE PUSH1 0x3 NOT ADD SLT PUSH2 0x502 JUMPI PUSH1 0x0 SLOAD PUSH1 0x40 MLOAD PUSH1 0x1 PUSH1 0x1 PUSH1 0xA0 SHL SUB SWAP1 SWAP2 AND DUP2 MSTORE PUSH1 0x20 SWAP1 RETURN JUMPDEST CALLVALUE PUSH2 0x502 JUMPI PUSH1 0x20 CALLDATASIZE PUSH1 0x3 NOT ADD SLT PUSH2 0x502 JUMPI PUSH1 0x1 PUSH1 0x1 PUSH1 0xA0 SHL SUB PUSH2 0xB37 PUSH2 0x1632 JUMP JUMPDEST AND PUSH1 0x0 MSTORE PUSH1 0x3 PUSH1 0x20 MSTORE PUSH2 0x1A0 PUSH1 0x40 PUSH1 0x0 KECCAK256 DUP1 SLOAD SWAP1 PUSH1 0x1 DUP2 ADD SLOAD SWAP1 PUSH1 0x2 DUP2 ADD SLOAD PUSH1 0x3 DUP3 ADD SLOAD PUSH1 0x4 DUP4 ADD SLOAD PUSH1 0x5 DUP5 ADD SLOAD PUSH1 0x6 DUP6 ADD SLOAD PUSH1 0x7 DUP7 ADD SLOAD SWAP2 PUSH1 0x8 DUP8 ADD SLOAD SWAP4 PUSH1 0x9 DUP9 ADD SLOAD SWAP6 PUSH1 0xA DUP10 ADD SLOAD SWAP8 PUSH1 0xC PUSH1 0xB DUP12 ADD SLOAD SWAP11 ADD SLOAD SWAP11 PUSH1 0x40 MLOAD SWAP13 DUP14 MSTORE PUSH1 0x20 DUP14 ADD MSTORE PUSH1 0x40 DUP13 ADD MSTORE PUSH1 0x60 DUP12 ADD MSTORE PUSH1 0x80 DUP11 ADD MSTORE PUSH1 0xA0 DUP10 ADD MSTORE PUSH1 0xC0 DUP9 ADD MSTORE PUSH1 0xE0 DUP8 ADD MSTORE PUSH2 0x100 DUP7 ADD MSTORE PUSH2 0x120 DUP6 ADD MSTORE PUSH2 0x140 DUP5 ADD MSTORE PUSH2 0x160 DUP4 ADD MSTORE PUSH2 0x180 DUP3 ADD MSTORE RETURN JUMPDEST CALLVALUE PUSH2 0x502 JUMPI PUSH1 0xA0 CALLDATASIZE PUSH1 0x3 NOT ADD SLT PUSH2 0x502 JUMPI PUSH2 0xBEF PUSH2 0x1632 JUMP JUMPDEST PUSH1 0x44 CALLDATALOAD PUSH1 0x24 CALLDATALOAD DUP2 ISZERO ISZERO DUP3 SUB PUSH2 0x502 JUMPI PUSH1 0x64 CALLDATALOAD SWAP3 DUP4 ISZERO ISZERO DUP5 SUB PUSH2 0x502 JUMPI PUSH1 0x84 CALLDATALOAD SWAP1 DUP2 ISZERO ISZERO DUP3 SUB PUSH2 0x502 JUMPI PUSH1 0x0 SLOAD PUSH1 0x1 PUSH1 0x1 PUSH1 0xA0 SHL SUB SWAP2 SWAP1 DUP3 AND CALLER EQ DUP1 ISZERO PUSH2 0xDB8 JUMPI JUMPDEST DUP1 ISZERO PUSH2 0xD5C JUMPI JUMPDEST PUSH2 0xC40 SWAP1 PUSH2 0x184E JUMP JUMPDEST DUP4 ISZERO PUSH2 0xD0B JUMPI AND SWAP4 DUP5 PUSH1 0x0 MSTORE PUSH1 0x3 PUSH1 0x20 MSTORE PUSH1 0x40 PUSH1 0x0 KECCAK256 SWAP4 PUSH2 0xCF6 JUMPI JUMPDEST PUSH2 0xCE1 JUMPI JUMPDEST PUSH2 0xC8E JUMPI JUMPDEST DUP3 PUSH32 0x9A7EDF3816145D4D9796439FACB523BFADDFBD095981F88440412E0DA6598023 PUSH1 0x0 DUP1 LOG2 STOP JUMPDEST PUSH1 0x9 DUP3 ADD SWAP1 PUSH2 0xC9D DUP3 SLOAD PUSH2 0x18B4 JUMP JUMPDEST DUP1 SWAP3 SSTORE PUSH2 0xCAF PUSH1 0xA DUP5 ADD SWAP2 DUP3 SLOAD PUSH2 0x18C3 JUMP JUMPDEST DUP1 SWAP2 SSTORE DUP2 ISZERO PUSH2 0xCCB JUMPI DIV PUSH1 0xB DUP3 ADD SSTORE PUSH1 0xC TIMESTAMP SWAP2 ADD SSTORE DUP2 DUP1 PUSH2 0xC66 JUMP JUMPDEST PUSH4 0x4E487B71 PUSH1 0xE0 SHL PUSH1 0x0 MSTORE PUSH1 0x12 PUSH1 0x4 MSTORE PUSH1 0x24 PUSH1 0x0 REVERT JUMPDEST PUSH1 0x8 DUP4 ADD PUSH2 0xCEF DUP2 SLOAD PUSH2 0x18B4 JUMP JUMPDEST SWAP1 SSTORE PUSH2 0xC61 JUMP JUMPDEST PUSH1 0x7 DUP5 ADD PUSH2 0xD04 DUP2 SLOAD PUSH2 0x18B4 JUMP JUMPDEST SWAP1 SSTORE PUSH2 0xC5C JUMP JUMPDEST PUSH1 0x40 MLOAD PUSH3 0x461BCD PUSH1 0xE5 SHL DUP2 MSTORE PUSH1 0x20 PUSH1 0x4 DUP3 ADD MSTORE PUSH1 0x23 PUSH1 0x24 DUP3 ADD MSTORE PUSH32 0x547261646520766F6C756D65206D757374206265206772656174657220746861 PUSH1 0x44 DUP3 ADD MSTORE PUSH3 0x6E203 PUSH1 0xEC SHL PUSH1 0x64 DUP3 ADD MSTORE PUSH1 0x84 SWAP1 REVERT JUMPDEST POP PUSH1 0x4 PUSH1 0x20 DUP4 PUSH1 0x1 SLOAD AND PUSH1 0x40 MLOAD SWAP3 DUP4 DUP1 SWAP3 PUSH4 0x70505653 PUSH1 0xE0 SHL DUP3 MSTORE GAS STATICCALL SWAP1 DUP2 ISZERO PUSH2 0xA89 JUMPI PUSH2 0xC40 SWAP2 DUP5 SWAP2 PUSH1 0x0 SWAP2 PUSH2 0xD99 JUMPI JUMPDEST POP AND CALLER EQ SWAP1 POP PUSH2 0xC37 JUMP JUMPDEST PUSH2 0xDB2 SWAP2 POP PUSH1 0x20 RETURNDATASIZE PUSH1 0x20 GT PUSH2 0xA82 JUMPI PUSH2 0xA74 DUP2 DUP4 PUSH2 0x16D1 JUMP JUMPDEST DUP10 PUSH2 0xD8E JUMP JUMPDEST POP PUSH1 0x4 PUSH1 0x20 DUP4 PUSH1 0x1 SLOAD AND PUSH1 0x40 MLOAD SWAP3 DUP4 DUP1 SWAP3 PUSH4 0x24ED653D PUSH1 0xE1 SHL DUP3 MSTORE GAS STATICCALL DUP1 ISZERO PUSH2 0xA89 JUMPI DUP4 SWAP2 PUSH1 0x0 SWAP2 PUSH2 0xDEE JUMPI JUMPDEST POP AND CALLER EQ PUSH2 0xC30 JUMP JUMPDEST PUSH2 0xE07 SWAP2 POP PUSH1 0x20 RETURNDATASIZE PUSH1 0x20 GT PUSH2 0xA82 JUMPI PUSH2 0xA74 DUP2 DUP4 PUSH2 0x16D1 JUMP JUMPDEST DUP9 PUSH2 0xDE5 JUMP JUMPDEST CALLVALUE PUSH2 0x502 JUMPI PUSH1 0x20 CALLDATASIZE PUSH1 0x3 NOT ADD SLT PUSH2 0x502 JUMPI PUSH1 0x1 PUSH1 0x1 PUSH1 0xA0 SHL SUB PUSH2 0xE2E PUSH2 0x1632 JUMP JUMPDEST AND DUP1 PUSH1 0x0 MSTORE PUSH1 0x3 PUSH1 0x20 MSTORE PUSH1 0x40 PUSH1 0x0 KECCAK256 PUSH1 0x9 DUP2 ADD SLOAD PUSH1 0xA DUP2 MUL SWAP1 DUP1 DUP3 DIV PUSH1 0xA EQ SWAP1 ISZERO OR ISZERO PUSH2 0xEE9 JUMPI PUSH2 0xE6E SWAP1 PUSH8 0xDE0B6B3A7640000 PUSH1 0xA DUP5 ADD SLOAD DIV SWAP1 PUSH2 0x18C3 JUMP JUMPDEST SWAP2 PUSH1 0x6 DUP3 ADD SLOAD PUSH1 0x32 DUP2 MUL SWAP1 DUP1 DUP3 DIV PUSH1 0x32 EQ SWAP1 ISZERO OR ISZERO PUSH2 0xEE9 JUMPI DUP4 SUB SWAP3 DUP4 GT PUSH2 0xEE9 JUMPI PUSH1 0x2 DUP3 ADD SLOAD SWAP3 PUSH1 0x5 DUP5 MUL SWAP4 DUP1 DUP6 DIV PUSH1 0x5 EQ SWAP1 ISZERO OR ISZERO PUSH2 0xEE9 JUMPI PUSH1 0x20 SWAP4 PUSH2 0xEB5 SWAP2 PUSH2 0x18C3 JUMP JUMPDEST DUP1 SWAP3 SSTORE PUSH32 0xFC577563F1B9A0461E24ABEF1E1FCC0D33D3D881F20B5DF6DDA59DE4AAE2C821 DUP4 PUSH1 0x40 MLOAD DUP5 DUP2 MSTORE LOG2 PUSH1 0x40 MLOAD SWAP1 DUP2 MSTORE RETURN JUMPDEST PUSH4 0x4E487B71 PUSH1 0xE0 SHL PUSH1 0x0 MSTORE PUSH1 0x11 PUSH1 0x4 MSTORE PUSH1 0x24 PUSH1 0x0 REVERT JUMPDEST CALLVALUE PUSH2 0x502 JUMPI PUSH1 0x20 DUP1 PUSH1 0x3 NOT CALLDATASIZE ADD SLT PUSH2 0x502 JUMPI PUSH2 0xF19 PUSH2 0x1632 JUMP JUMPDEST PUSH1 0x0 SLOAD CALLER PUSH1 0x1 PUSH1 0x1 PUSH1 0xA0 SHL SUB SWAP2 DUP3 AND EQ SWAP2 DUP3 ISZERO PUSH2 0xFE1 JUMPI JUMPDEST DUP3 ISZERO PUSH2 0xF85 JUMPI JUMPDEST PUSH2 0xF43 PUSH1 0x3 SWAP4 PUSH2 0x184E JUMP JUMPDEST AND SWAP2 DUP3 PUSH1 0x0 MSTORE MSTORE PUSH1 0x6 PUSH1 0x40 PUSH1 0x0 KECCAK256 ADD PUSH2 0xF5C DUP2 SLOAD PUSH2 0x18B4 JUMP JUMPDEST SWAP1 SSTORE PUSH32 0x538B488539BEC5DA1B7056F2B971300DCC72D940255474C061453F7DE8C4E277 PUSH1 0x0 DUP1 LOG2 STOP JUMPDEST PUSH1 0x4 SWAP3 POP DUP4 DUP3 PUSH1 0x1 SLOAD AND PUSH1 0x40 MLOAD SWAP5 DUP6 DUP1 SWAP3 PUSH4 0x70505653 PUSH1 0xE0 SHL DUP3 MSTORE GAS STATICCALL DUP1 ISZERO PUSH2 0xA89 JUMPI DUP3 PUSH2 0xF43 SWAP2 PUSH1 0x3 SWAP6 PUSH1 0x0 SWAP2 PUSH2 0xFC4 JUMPI JUMPDEST POP AND CALLER EQ SWAP4 POP POP PUSH2 0xF38 JUMP JUMPDEST PUSH2 0xFDB SWAP2 POP DUP8 RETURNDATASIZE DUP10 GT PUSH2 0xA82 JUMPI PUSH2 0xA74 DUP2 DUP4 PUSH2 0x16D1 JUMP JUMPDEST DUP8 PUSH2 0xFB8 JUMP JUMPDEST SWAP2 POP PUSH1 0x4 DUP4 DUP3 PUSH1 0x1 SLOAD AND PUSH1 0x40 MLOAD SWAP3 DUP4 DUP1 SWAP3 PUSH4 0x24ED653D PUSH1 0xE1 SHL DUP3 MSTORE GAS STATICCALL DUP1 ISZERO PUSH2 0xA89 JUMPI DUP3 SWAP2 PUSH1 0x0 SWAP2 PUSH2 0x1018 JUMPI JUMPDEST POP AND CALLER EQ SWAP2 PUSH2 0xF31 JUMP JUMPDEST PUSH2 0x102F SWAP2 POP DUP6 RETURNDATASIZE DUP8 GT PUSH2 0xA82 JUMPI PUSH2 0xA74 DUP2 DUP4 PUSH2 0x16D1 JUMP JUMPDEST DUP6 PUSH2 0x100E JUMP JUMPDEST CALLVALUE PUSH2 0x502 JUMPI PUSH1 0x0 CALLDATASIZE PUSH1 0x3 NOT ADD SLT PUSH2 0x502 JUMPI PUSH1 0x1 SLOAD PUSH1 0x40 MLOAD PUSH1 0x1 PUSH1 0x1 PUSH1 0xA0 SHL SUB SWAP1 SWAP2 AND DUP2 MSTORE PUSH1 0x20 SWAP1 RETURN JUMPDEST CALLVALUE PUSH2 0x502 JUMPI PUSH1 0x20 DUP1 PUSH1 0x3 NOT CALLDATASIZE ADD SLT PUSH2 0x502 JUMPI PUSH2 0x1078 PUSH2 0x1632 JUMP JUMPDEST PUSH1 0x0 SLOAD CALLER PUSH1 0x1 PUSH1 0x1 PUSH1 0xA0 SHL SUB SWAP2 DUP3 AND EQ SWAP2 DUP3 ISZERO PUSH2 0x1140 JUMPI JUMPDEST DUP3 ISZERO PUSH2 0x10E4 JUMPI JUMPDEST PUSH2 0x10A2 PUSH1 0x3 SWAP4 PUSH2 0x184E JUMP JUMPDEST AND SWAP2 DUP3 PUSH1 0x0 MSTORE MSTORE PUSH1 0x5 PUSH1 0x40 PUSH1 0x0 KECCAK256 ADD PUSH2 0x10BB DUP2 SLOAD PUSH2 0x18B4 JUMP JUMPDEST SWAP1 SSTORE PUSH32 0xDAD56D2D81FD6E7AF68EDB2BD38935358747B828FBC4BE904F40DAA50A9FC6F9 PUSH1 0x0 DUP1 LOG2 STOP JUMPDEST PUSH1 0x4 SWAP3 POP DUP4 DUP3 PUSH1 0x1 SLOAD AND PUSH1 0x40 MLOAD SWAP5 DUP6 DUP1 SWAP3 PUSH4 0x70505653 PUSH1 0xE0 SHL DUP3 MSTORE GAS STATICCALL DUP1 ISZERO PUSH2 0xA89 JUMPI DUP3 PUSH2 0x10A2 SWAP2 PUSH1 0x3 SWAP6 PUSH1 0x0 SWAP2 PUSH2 0x1123 JUMPI JUMPDEST POP AND CALLER EQ SWAP4 POP POP PUSH2 0x1097 JUMP JUMPDEST PUSH2 0x113A SWAP2 POP DUP8 RETURNDATASIZE DUP10 GT PUSH2 0xA82 JUMPI PUSH2 0xA74 DUP2 DUP4 PUSH2 0x16D1 JUMP JUMPDEST DUP8 PUSH2 0x1117 JUMP JUMPDEST SWAP2 POP PUSH1 0x4 DUP4 DUP3 PUSH1 0x1 SLOAD AND PUSH1 0x40 MLOAD SWAP3 DUP4 DUP1 SWAP3 PUSH4 0x24ED653D PUSH1 0xE1 SHL DUP3 MSTORE GAS STATICCALL DUP1 ISZERO PUSH2 0xA89 JUMPI DUP3 SWAP2 PUSH1 0x0 SWAP2 PUSH2 0x1177 JUMPI JUMPDEST POP AND CALLER EQ SWAP2 PUSH2 0x1090 JUMP JUMPDEST PUSH2 0x118E SWAP2 POP DUP6 RETURNDATASIZE DUP8 GT PUSH2 0xA82 JUMPI PUSH2 0xA74 DUP2 DUP4 PUSH2 0x16D1 JUMP JUMPDEST DUP6 PUSH2 0x116D JUMP JUMPDEST CALLVALUE PUSH2 0x502 JUMPI PUSH1 0x40 CALLDATASIZE PUSH1 0x3 NOT ADD SLT PUSH2 0x502 JUMPI PUSH2 0x11AD PUSH2 0x1632 JUMP JUMPDEST PUSH2 0x11B5 PUSH2 0x1648 JUMP JUMPDEST PUSH1 0x0 SLOAD PUSH1 0x1 PUSH1 0x1 PUSH1 0xA0 SHL SUB SWAP2 DUP3 SWAP2 DUP3 AND CALLER EQ DUP1 ISZERO PUSH2 0x1281 JUMPI JUMPDEST DUP1 ISZERO PUSH2 0x1225 JUMPI JUMPDEST PUSH2 0x11DE SWAP1 PUSH2 0x184E JUMP JUMPDEST AND SWAP2 DUP3 PUSH1 0x0 MSTORE PUSH1 0x3 PUSH1 0x20 MSTORE PUSH1 0x2 PUSH1 0x40 PUSH1 0x0 KECCAK256 ADD PUSH2 0x11FB DUP2 SLOAD PUSH2 0x18B4 JUMP JUMPDEST SWAP1 SSTORE AND PUSH32 0x94E691F6CEBC3375ECF0E31A0A8EF412E0F394CE120AEEE4E4D80282AB76175 PUSH1 0x0 DUP1 LOG3 STOP JUMPDEST POP PUSH1 0x20 PUSH1 0x4 SWAP3 PUSH1 0x1 SLOAD AND PUSH1 0x40 MLOAD SWAP4 DUP5 DUP1 SWAP3 PUSH4 0x70505653 PUSH1 0xE0 SHL DUP3 MSTORE GAS STATICCALL DUP1 ISZERO PUSH2 0xA89 JUMPI DUP4 PUSH2 0x11DE SWAP2 DUP2 SWAP5 PUSH1 0x0 SWAP2 PUSH2 0x1262 JUMPI JUMPDEST POP AND CALLER EQ SWAP1 POP PUSH2 0x11D5 JUMP JUMPDEST PUSH2 0x127B SWAP2 POP PUSH1 0x20 RETURNDATASIZE PUSH1 0x20 GT PUSH2 0xA82 JUMPI PUSH2 0xA74 DUP2 DUP4 PUSH2 0x16D1 JUMP JUMPDEST DUP8 PUSH2 0x1257 JUMP JUMPDEST POP PUSH1 0x20 PUSH1 0x4 SWAP3 PUSH1 0x1 SLOAD AND PUSH1 0x40 MLOAD SWAP4 DUP5 DUP1 SWAP3 PUSH4 0x24ED653D PUSH1 0xE1 SHL DUP3 MSTORE GAS STATICCALL SWAP2 DUP3 ISZERO PUSH2 0xA89 JUMPI DUP4 SWAP3 DUP4 SWAP2 PUSH1 0x0 SWAP2 PUSH2 0x12BA JUMPI JUMPDEST POP AND CALLER EQ PUSH2 0x11CE JUMP JUMPDEST PUSH2 0x12D3 SWAP2 POP PUSH1 0x20 RETURNDATASIZE PUSH1 0x20 GT PUSH2 0xA82 JUMPI PUSH2 0xA74 DUP2 DUP4 PUSH2 0x16D1 JUMP JUMPDEST DUP7 PUSH2 0x12B1 JUMP JUMPDEST CALLVALUE PUSH2 0x502 JUMPI PUSH1 0x20 CALLDATASIZE PUSH1 0x3 NOT ADD SLT PUSH2 0x502 JUMPI PUSH2 0x14F3 PUSH2 0x12F5 PUSH2 0x1632 JUMP JUMPDEST PUSH1 0x60 PUSH1 0xA0 PUSH1 0x40 MLOAD PUSH2 0x1305 DUP2 PUSH2 0x1698 JUMP JUMPDEST PUSH1 0x0 DUP2 MSTORE PUSH1 0x0 PUSH1 0x20 DUP3 ADD MSTORE PUSH1 0x0 PUSH1 0x40 DUP3 ADD MSTORE PUSH1 0x0 DUP4 DUP3 ADD MSTORE DUP3 PUSH1 0x80 DUP3 ADD MSTORE ADD MSTORE PUSH1 0x0 PUSH2 0x180 PUSH1 0x40 MLOAD PUSH2 0x1336 DUP2 PUSH2 0x16B4 JUMP JUMPDEST DUP3 DUP2 MSTORE DUP3 PUSH1 0x20 DUP3 ADD MSTORE DUP3 PUSH1 0x40 DUP3 ADD MSTORE DUP3 PUSH1 0x60 DUP3 ADD MSTORE DUP3 PUSH1 0x80 DUP3 ADD MSTORE DUP3 PUSH1 0xA0 DUP3 ADD MSTORE DUP3 PUSH1 0xC0 DUP3 ADD MSTORE DUP3 PUSH1 0xE0 DUP3 ADD MSTORE DUP3 PUSH2 0x100 DUP3 ADD MSTORE DUP3 PUSH2 0x120 DUP3 ADD MSTORE DUP3 PUSH2 0x140 DUP3 ADD MSTORE DUP3 PUSH2 0x160 DUP3 ADD MSTORE ADD MSTORE PUSH1 0x1 DUP1 PUSH1 0xA0 SHL SUB DUP2 AND PUSH1 0x0 MSTORE PUSH1 0x2 PUSH1 0x20 MSTORE PUSH1 0x40 PUSH1 0x0 KECCAK256 SWAP1 PUSH2 0x13E3 PUSH1 0x5 PUSH1 0x40 MLOAD SWAP4 PUSH2 0x13AA DUP6 PUSH2 0x1698 JUMP JUMPDEST DUP1 SLOAD DUP6 MSTORE PUSH1 0x1 DUP2 ADD SLOAD PUSH1 0x20 DUP7 ADD MSTORE PUSH1 0x2 DUP2 ADD SLOAD PUSH1 0x40 DUP7 ADD MSTORE PUSH1 0x3 DUP2 ADD SLOAD PUSH1 0x60 DUP7 ADD MSTORE PUSH2 0x13D8 PUSH1 0x4 DUP3 ADD PUSH2 0x16F3 JUMP JUMPDEST PUSH1 0x80 DUP7 ADD MSTORE ADD PUSH2 0x16F3 JUMP JUMPDEST PUSH1 0xA0 DUP4 ADD MSTORE PUSH1 0x1 DUP1 PUSH1 0xA0 SHL SUB AND PUSH1 0x0 MSTORE PUSH1 0x3 PUSH1 0x20 MSTORE PUSH1 0x40 PUSH1 0x0 KECCAK256 PUSH1 0xC PUSH1 0x40 MLOAD SWAP2 PUSH2 0x140C DUP4 PUSH2 0x16B4 JUMP JUMPDEST DUP1 SLOAD DUP4 MSTORE PUSH1 0x1 DUP2 ADD SLOAD PUSH1 0x20 DUP5 ADD MSTORE PUSH1 0x2 DUP2 ADD SLOAD PUSH1 0x40 DUP5 ADD MSTORE PUSH1 0x3 DUP2 ADD SLOAD PUSH1 0x60 DUP5 ADD MSTORE PUSH1 0x4 DUP2 ADD SLOAD PUSH1 0x80 DUP5 ADD MSTORE PUSH1 0x5 DUP2 ADD SLOAD PUSH1 0xA0 DUP5 ADD MSTORE PUSH1 0x6 DUP2 ADD SLOAD PUSH1 0xC0 DUP5 ADD MSTORE PUSH1 0x7 DUP2 ADD SLOAD PUSH1 0xE0 DUP5 ADD MSTORE PUSH1 0x8 DUP2 ADD SLOAD PUSH2 0x100 DUP5 ADD MSTORE PUSH1 0x9 DUP2 ADD SLOAD PUSH2 0x120 DUP5 ADD MSTORE PUSH1 0xA DUP2 ADD SLOAD PUSH2 0x140 DUP5 ADD MSTORE PUSH1 0xB DUP2 ADD SLOAD PUSH2 0x160 DUP5 ADD MSTORE ADD SLOAD PUSH2 0x180 DUP3 ADD MSTORE PUSH2 0x180 PUSH1 0x40 MLOAD SWAP4 DUP5 SWAP4 PUSH2 0x1C0 DUP1 DUP7 MSTORE DUP2 MLOAD SWAP1 DUP7 ADD MSTORE PUSH1 0x20 DUP2 ADD MLOAD PUSH2 0x1E0 DUP7 ADD MSTORE PUSH1 0x40 DUP2 ADD MLOAD PUSH2 0x200 DUP7 ADD MSTORE PUSH1 0x60 DUP2 ADD MLOAD PUSH2 0x220 DUP7 ADD MSTORE PUSH1 0xA0 PUSH2 0x14DD PUSH1 0x80 DUP4 ADD MLOAD PUSH1 0xC0 PUSH2 0x240 DUP10 ADD MSTORE PUSH2 0x280 DUP9 ADD SWAP1 PUSH2 0x1798 JUMP JUMPDEST SWAP2 ADD MLOAD DUP6 DUP3 SUB PUSH2 0x1BF NOT ADD PUSH2 0x260 DUP8 ADD MSTORE PUSH2 0x1798 JUMP JUMPDEST SWAP2 DUP1 MLOAD PUSH1 0x20 DUP6 ADD MSTORE PUSH1 0x20 DUP2 ADD MLOAD PUSH1 0x40 DUP6 ADD MSTORE PUSH1 0x40 DUP2 ADD MLOAD PUSH1 0x60 DUP6 ADD MSTORE PUSH1 0x60 DUP2 ADD MLOAD PUSH1 0x80 DUP6 ADD MSTORE PUSH1 0x80 DUP2 ADD MLOAD PUSH1 0xA0 DUP6 ADD MSTORE PUSH1 0xA0 DUP2 ADD MLOAD PUSH1 0xC0 DUP6 ADD MSTORE PUSH1 0xC0 DUP2 ADD MLOAD PUSH1 0xE0 DUP6 ADD MSTORE PUSH1 0xE0 DUP2 ADD MLOAD PUSH2 0x100 DUP6 ADD MSTORE PUSH2 0x100 DUP2 ADD MLOAD PUSH2 0x120 DUP6 ADD MSTORE PUSH2 0x120 DUP2 ADD MLOAD PUSH2 0x140 DUP6 ADD MSTORE PUSH2 0x140 DUP2 ADD MLOAD PUSH2 0x160 DUP6 ADD MSTORE PUSH2 0x160 DUP2 ADD MLOAD DUP3 DUP6 ADD MSTORE ADD MLOAD PUSH2 0x1A0 DUP4 ADD MSTORE SUB SWAP1 RETURN JUMPDEST CALLVALUE PUSH2 0x502 JUMPI PUSH1 0x20 CALLDATASIZE PUSH1 0x3 NOT ADD SLT PUSH2 0x502 JUMPI PUSH1 0x1 PUSH1 0x1 PUSH1 0xA0 SHL SUB PUSH2 0x159D PUSH2 0x1632 JUMP JUMPDEST AND PUSH1 0x0 MSTORE PUSH1 0x2 PUSH1 0x20 MSTORE PUSH1 0x40 PUSH1 0x0 KECCAK256 DUP1 SLOAD PUSH2 0x1613 PUSH1 0x1 DUP4 ADD SLOAD SWAP3 PUSH2 0x1605 PUSH1 0x2 DUP3 ADD SLOAD SWAP2 PUSH1 0x3 DUP2 ADD SLOAD PUSH2 0x15DC PUSH1 0x5 PUSH2 0x15D5 PUSH1 0x4 DUP6 ADD PUSH2 0x16F3 JUMP JUMPDEST SWAP4 ADD PUSH2 0x16F3 JUMP JUMPDEST SWAP4 PUSH1 0x40 MLOAD SWAP8 DUP9 SWAP8 DUP9 MSTORE PUSH1 0x20 DUP9 ADD MSTORE PUSH1 0x40 DUP8 ADD MSTORE PUSH1 0x60 DUP7 ADD MSTORE PUSH1 0xC0 PUSH1 0x80 DUP7 ADD MSTORE PUSH1 0xC0 DUP6 ADD SWAP1 PUSH2 0x1798 JUMP JUMPDEST SWAP1 DUP4 DUP3 SUB PUSH1 0xA0 DUP6 ADD MSTORE PUSH2 0x1798 JUMP JUMPDEST SUB SWAP1 RETURN JUMPDEST CALLVALUE PUSH2 0x502 JUMPI PUSH1 0x0 CALLDATASIZE PUSH1 0x3 NOT ADD SLT PUSH2 0x502 JUMPI PUSH1 0x20 SWAP1 PUSH1 0x5 SLOAD DUP2 MSTORE RETURN JUMPDEST PUSH1 0x4 CALLDATALOAD SWAP1 PUSH1 0x1 PUSH1 0x1 PUSH1 0xA0 SHL SUB DUP3 AND DUP3 SUB PUSH2 0x502 JUMPI JUMP JUMPDEST PUSH1 0x24 CALLDATALOAD SWAP1 PUSH1 0x1 PUSH1 0x1 PUSH1 0xA0 SHL SUB DUP3 AND DUP3 SUB PUSH2 0x502 JUMPI JUMP JUMPDEST SWAP1 PUSH1 0x1 DUP3 DUP2 SHR SWAP3 AND DUP1 ISZERO PUSH2 0x168E JUMPI JUMPDEST PUSH1 0x20 DUP4 LT EQ PUSH2 0x1678 JUMPI JUMP JUMPDEST PUSH4 0x4E487B71 PUSH1 0xE0 SHL PUSH1 0x0 MSTORE PUSH1 0x22 PUSH1 0x4 MSTORE PUSH1 0x24 PUSH1 0x0 REVERT JUMPDEST SWAP2 PUSH1 0x7F AND SWAP2 PUSH2 0x166D JUMP JUMPDEST PUSH1 0xC0 DUP2 ADD SWAP1 DUP2 LT PUSH8 0xFFFFFFFFFFFFFFFF DUP3 GT OR PUSH2 0x380 JUMPI PUSH1 0x40 MSTORE JUMP JUMPDEST PUSH2 0x1A0 DUP2 ADD SWAP1 DUP2 LT PUSH8 0xFFFFFFFFFFFFFFFF DUP3 GT OR PUSH2 0x380 JUMPI PUSH1 0x40 MSTORE JUMP JUMPDEST SWAP1 PUSH1 0x1F DUP1 NOT SWAP2 ADD AND DUP2 ADD SWAP1 DUP2 LT PUSH8 0xFFFFFFFFFFFFFFFF DUP3 GT OR PUSH2 0x380 JUMPI PUSH1 0x40 MSTORE JUMP JUMPDEST SWAP1 PUSH1 0x40 MLOAD SWAP2 DUP3 PUSH1 0x0 DUP3 SLOAD PUSH2 0x1706 DUP2 PUSH2 0x165E JUMP JUMPDEST SWAP1 DUP2 DUP5 MSTORE PUSH1 0x20 SWAP5 PUSH1 0x1 SWAP2 PUSH1 0x1 DUP2 AND SWAP1 DUP2 PUSH1 0x0 EQ PUSH2 0x1776 JUMPI POP PUSH1 0x1 EQ PUSH2 0x1737 JUMPI JUMPDEST POP POP POP PUSH2 0x1735 SWAP3 POP SUB DUP4 PUSH2 0x16D1 JUMP JUMPDEST JUMP JUMPDEST PUSH1 0x0 SWAP1 DUP2 MSTORE DUP6 DUP2 KECCAK256 SWAP6 SWAP4 POP SWAP2 SWAP1 JUMPDEST DUP2 DUP4 LT PUSH2 0x175E JUMPI POP POP PUSH2 0x1735 SWAP4 POP DUP3 ADD ADD CODESIZE DUP1 DUP1 PUSH2 0x1726 JUMP JUMPDEST DUP6 SLOAD DUP9 DUP5 ADD DUP6 ADD MSTORE SWAP5 DUP6 ADD SWAP5 DUP8 SWAP5 POP SWAP2 DUP4 ADD SWAP2 PUSH2 0x1745 JUMP JUMPDEST SWAP3 POP POP POP PUSH2 0x1735 SWAP5 SWAP3 POP PUSH1 0xFF NOT AND DUP3 DUP5 ADD MSTORE ISZERO ISZERO PUSH1 0x5 SHL DUP3 ADD ADD CODESIZE DUP1 DUP1 PUSH2 0x1726 JUMP JUMPDEST SWAP2 SWAP1 DUP3 MLOAD SWAP3 DUP4 DUP3 MSTORE PUSH1 0x0 JUMPDEST DUP5 DUP2 LT PUSH2 0x17C4 JUMPI POP POP DUP3 PUSH1 0x0 PUSH1 0x20 DUP1 SWAP5 SWAP6 DUP5 ADD ADD MSTORE PUSH1 0x1F DUP1 NOT SWAP2 ADD AND ADD ADD SWAP1 JUMP JUMPDEST PUSH1 0x20 DUP2 DUP4 ADD DUP2 ADD MLOAD DUP5 DUP4 ADD DUP3 ADD MSTORE ADD PUSH2 0x17A3 JUMP JUMPDEST DUP2 PUSH1 0x1F DUP3 ADD SLT ISZERO PUSH2 0x502 JUMPI DUP1 CALLDATALOAD SWAP1 PUSH8 0xFFFFFFFFFFFFFFFF DUP3 GT PUSH2 0x380 JUMPI PUSH1 0x40 MLOAD SWAP3 PUSH2 0x180D PUSH1 0x1F DUP5 ADD PUSH1 0x1F NOT AND PUSH1 0x20 ADD DUP6 PUSH2 0x16D1 JUMP JUMPDEST DUP3 DUP5 MSTORE PUSH1 0x20 DUP4 DUP4 ADD ADD GT PUSH2 0x502 JUMPI DUP2 PUSH1 0x0 SWAP3 PUSH1 0x20 DUP1 SWAP4 ADD DUP4 DUP7 ADD CALLDATACOPY DUP4 ADD ADD MSTORE SWAP1 JUMP JUMPDEST SWAP1 DUP2 PUSH1 0x20 SWAP2 SUB SLT PUSH2 0x502 JUMPI MLOAD PUSH1 0x1 PUSH1 0x1 PUSH1 0xA0 SHL SUB DUP2 AND DUP2 SUB PUSH2 0x502 JUMPI SWAP1 JUMP JUMPDEST ISZERO PUSH2 0x1855 JUMPI JUMP JUMPDEST PUSH1 0x40 MLOAD PUSH3 0x461BCD PUSH1 0xE5 SHL DUP2 MSTORE PUSH1 0x20 PUSH1 0x4 DUP3 ADD MSTORE PUSH1 0x31 PUSH1 0x24 DUP3 ADD MSTORE PUSH32 0x4F6E6C7920617574686F72697A656420636F6E7472616374732063616E207065 PUSH1 0x44 DUP3 ADD MSTORE PUSH17 0x393337B936903A3434B99030B1BA34B7B7 PUSH1 0x79 SHL PUSH1 0x64 DUP3 ADD MSTORE PUSH1 0x84 SWAP1 REVERT JUMPDEST PUSH1 0x0 NOT DUP2 EQ PUSH2 0xEE9 JUMPI PUSH1 0x1 ADD SWAP1 JUMP JUMPDEST SWAP2 SWAP1 DUP3 ADD DUP1 SWAP3 GT PUSH2 0xEE9 JUMPI JUMP INVALID LOG2 PUSH5 0x6970667358 0x22 SLT KECCAK256 0xE9 0xB4 CALLDATALOAD MLOAD 0x1E SELFBALANCE SELFDESTRUCT EQ 0xB8 0xE4 0xD3 SELFBALANCE 0xE2 0xF7 0xC3 PUSH8 0x98454008834CA05E 0xCD 0xB6 DUP12 0xA5 PUSH8 0xE29F9564736F6C63 NUMBER STOP ADDMOD XOR STOP CALLER "},"methodIdentifiers":{"getUserInfo(address)":"6386c1c7","getUserReputationScore(address)":"a4e2ea0b","owner()":"8da5cb5b","registry()":"7b103999","updateDisputesInitiated(address)":"74d3146e","updateDisputesLost(address)":"7b489ed8","updateEndorsementsGiven(address,address)":"90ba9f94","updateEndorsementsReceived(address,address)":"6da7b3fc","updateTradeStats(address,uint256,bool,bool,bool)":"849cf2a0","userBasicInfo(address)":"2328aea6","userCount()":"07973ccf","userIdToAddress(uint256)":"b1695201","userReg(bytes32,bytes32,bytes32,string)":"be516195","userReputationCalc(address)":"7bb500e2","userStats(address)":"8a65d874","userUpdateProfile(bytes32,bytes32,bytes32,string,string)":"af10fec5"}}}}}