{"contracts/Reputation.sol":{"Reputation":{"abi":[{"inputs":[{"internalType":"address","name":"_registryAddress","type":"address"}],"stateMutability":"nonpayable","type":"constructor"},{"inputs":[{"internalType":"address","name":"_user","type":"address"}],"name":"calculateReputation","outputs":[{"internalType":"uint256","name":"","type":"uint256"}],"stateMutability":"view","type":"function"},{"inputs":[],"name":"registry","outputs":[{"internalType":"contract ContractRegistry","name":"","type":"address"}],"stateMutability":"view","type":"function"}],"evm":{"bytecode":{"linkReferences":{},"object":"6080346100be57601f61066438819003918201601f19168301916001600160401b038311848410176100c3578084926020946040528339810103126100be57516001600160a01b038116908190036100be57801561007a57600080546001600160a01b03191691909117905560405161058a90816100da8239f35b606460405162461bcd60e51b815260206004820152602060248201527f496e76616c696420436f6e7472616374526567697374727920616464726573736044820152fd5b600080fd5b634e487b7160e01b600052604160045260246000fdfe6080604081815260048036101561001557600080fd5b600092833560e01c91826327c06fd514610064575050637b1039991461003a57600080fd5b34610060578160031936011261006057905490516001600160a01b039091168152602090f35b5080fd5b90929150346103d85760209384600319360112610446576001600160a01b0391803583811690819003610431578686838187875416630f4d898960e11b82525afa95861561043c578396610400575b5082908551968791636386c1c760e01b835284830152816024968792165afa9485156103f657829561026d575b50610140850151601e810290808204601e149015171561025c5760e086015160148102908082046014149015171561024a576101208701918251926014840293808504601414901517156102205751606481029080820460641490151715610220576101008901518061024457506001905b8115610232570492600f840293808504600f149015171561022057885192600a840293808504600a149015171561020e57888a0151946005860295808704600514901517156101fc57610180946101c06064956101c06101c5966101c06101ce9b978a6101c09804946104f6565b6104f6565b04960151610519565b948581029581870414901517156101ec575050506064905191048152f35b634e487b7160e01b825260119052fd5b634e487b7160e01b8852601187528888fd5b634e487b7160e01b8752601186528787fd5b634e487b7160e01b8652601185528686fd5b634e487b7160e01b8752601286528787fd5b90610152565b5050634e487b7160e01b825260119052fd5b50634e487b7160e01b825260119052fd5b9094503d8083833e61027f8183610449565b8101908082036101c081126103d85781519267ffffffffffffffff938481116103f25783019060c0828203126103f25787519160c08301838110878211176103e0578952805183528a8101518b84015288810151898401526060810151606084015260808101518681116103dc57826102f9918301610481565b608084015260a0810151908682116103dc57916103199160a09301610481565b9101526101a08091601f1901126103d857855192818401908111848210176103c657865287820151835285820151888401526060820151868401526080820151606084015260a0820151608084015260c082015160a084015260e082015160c0840152610100918281015160e085015261012092838201519085015261014092838201519085015261016092838201519085015261018092838201519085015201519082015293386100e0565b634e487b7160e01b8552604188528585fd5b8380fd5b8780fd5b634e487b7160e01b885260418b528888fd5b8580fd5b84513d84823e3d90fd5b9095508681813d8311610435575b6104188183610449565b81010312610431575183811681036104315794826100b3565b8280fd5b503d61040e565b85513d85823e3d90fd5b80fd5b90601f8019910116810190811067ffffffffffffffff82111761046b57604052565b634e487b7160e01b600052604160045260246000fd5b919080601f840112156104f157825167ffffffffffffffff811161046b57602090604051926104b983601f19601f8501160185610449565b8184528282870101116104f15760005b8181106104de57508260009394955001015290565b85810183015184820184015282016104c9565b600080fd5b9190820180921161050357565b634e487b7160e01b600052601160045260246000fd5b801561054e574203428111610503576301e1338081111561053a5750603290565b62ed4e00101561054957604b90565b606490565b5060649056fea2646970667358221220789a53b2142dc781e6dd031fa898a9fa47010c0651ed2226fdaed1486cd2cc0364736f6c63430008180033","opcodes":"PUSH1 0x80 CALLVALUE PUSH2 0xBE JUMPI PUSH1 0x1F PUSH2 0x664 CODESIZE DUP2 SWAP1 SUB SWAP2 DUP3 ADD PUSH1 0x1F NOT AND DUP4 ADD SWAP2 PUSH1 0x1 PUSH1 0x1 PUSH1 0x40 SHL SUB DUP4 GT DUP5 DUP5 LT OR PUSH2 0xC3 JUMPI DUP1 DUP5 SWAP3 PUSH1 0x20 SWAP5 PUSH1 0x40 MSTORE DUP4 CODECOPY DUP2 ADD SUB SLT PUSH2 0xBE JUMPI MLOAD PUSH1 0x1 PUSH1 0x1 PUSH1 0xA0 SHL SUB DUP2 AND SWAP1 DUP2 SWAP1 SUB PUSH2 0xBE JUMPI DUP1 ISZERO PUSH2 0x7A JUMPI PUSH1 0x0 DUP1 SLOAD PUSH1 0x1 PUSH1 0x1 PUSH1 0xA0 SHL SUB NOT AND SWAP2 SWAP1 SWAP2 OR SWAP1 SSTORE PUSH1 0x40 MLOAD PUSH2 0x58A SWAP1 DUP2 PUSH2 0xDA DUP3 CODECOPY RETURN JUMPDEST PUSH1 0x64 PUSH1 0x40 MLOAD PUSH3 0x461BCD PUSH1 0xE5 SHL DUP2 MSTORE PUSH1 0x20 PUSH1 0x4 DUP3 ADD MSTORE PUSH1 0x20 PUSH1 0x24 DUP3 ADD MSTORE PUSH32 0x496E76616C696420436F6E747261637452656769737472792061646472657373 PUSH1 0x44 DUP3 ADD MSTORE REVERT JUMPDEST PUSH1 0x0 DUP1 REVERT JUMPDEST PUSH4 0x4E487B71 PUSH1 0xE0 SHL PUSH1 0x0 MSTORE PUSH1 0x41 PUSH1 0x4 MSTORE PUSH1 0x24 PUSH1 0x0 REVERT INVALID PUSH1 0x80 PUSH1 0x40 DUP2 DUP2 MSTORE PUSH1 0x4 DUP1 CALLDATASIZE LT ISZERO PUSH2 0x15 JUMPI PUSH1 0x0 DUP1 REVERT JUMPDEST PUSH1 0x0 SWAP3 DUP4 CALLDATALOAD PUSH1 0xE0 SHR SWAP2 DUP3 PUSH4 0x27C06FD5 EQ PUSH2 0x64 JUMPI POP POP PUSH4 0x7B103999 EQ PUSH2 0x3A JUMPI PUSH1 0x0 DUP1 REVERT JUMPDEST CALLVALUE PUSH2 0x60 JUMPI DUP2 PUSH1 0x3 NOT CALLDATASIZE ADD SLT PUSH2 0x60 JUMPI SWAP1 SLOAD SWAP1 MLOAD PUSH1 0x1 PUSH1 0x1 PUSH1 0xA0 SHL SUB SWAP1 SWAP2 AND DUP2 MSTORE PUSH1 0x20 SWAP1 RETURN JUMPDEST POP DUP1 REVERT JUMPDEST SWAP1 SWAP3 SWAP2 POP CALLVALUE PUSH2 0x3D8 JUMPI PUSH1 0x20 SWAP4 DUP5 PUSH1 0x3 NOT CALLDATASIZE ADD SLT PUSH2 0x446 JUMPI PUSH1 0x1 PUSH1 0x1 PUSH1 0xA0 SHL SUB SWAP2 DUP1 CALLDATALOAD DUP4 DUP2 AND SWAP1 DUP2 SWAP1 SUB PUSH2 0x431 JUMPI DUP7 DUP7 DUP4 DUP2 DUP8 DUP8 SLOAD AND PUSH4 0xF4D8989 PUSH1 0xE1 SHL DUP3 MSTORE GAS STATICCALL SWAP6 DUP7 ISZERO PUSH2 0x43C JUMPI DUP4 SWAP7 PUSH2 0x400 JUMPI JUMPDEST POP DUP3 SWAP1 DUP6 MLOAD SWAP7 DUP8 SWAP2 PUSH4 0x6386C1C7 PUSH1 0xE0 SHL DUP4 MSTORE DUP5 DUP4 ADD MSTORE DUP2 PUSH1 0x24 SWAP7 DUP8 SWAP3 AND GAS STATICCALL SWAP5 DUP6 ISZERO PUSH2 0x3F6 JUMPI DUP3 SWAP6 PUSH2 0x26D JUMPI JUMPDEST POP PUSH2 0x140 DUP6 ADD MLOAD PUSH1 0x1E DUP2 MUL SWAP1 DUP1 DUP3 DIV PUSH1 0x1E EQ SWAP1 ISZERO OR ISZERO PUSH2 0x25C JUMPI PUSH1 0xE0 DUP7 ADD MLOAD PUSH1 0x14 DUP2 MUL SWAP1 DUP1 DUP3 DIV PUSH1 0x14 EQ SWAP1 ISZERO OR ISZERO PUSH2 0x24A JUMPI PUSH2 0x120 DUP8 ADD SWAP2 DUP3 MLOAD SWAP3 PUSH1 0x14 DUP5 MUL SWAP4 DUP1 DUP6 DIV PUSH1 0x14 EQ SWAP1 ISZERO OR ISZERO PUSH2 0x220 JUMPI MLOAD PUSH1 0x64 DUP2 MUL SWAP1 DUP1 DUP3 DIV PUSH1 0x64 EQ SWAP1 ISZERO OR ISZERO PUSH2 0x220 JUMPI PUSH2 0x100 DUP10 ADD MLOAD DUP1 PUSH2 0x244 JUMPI POP PUSH1 0x1 SWAP1 JUMPDEST DUP2 ISZERO PUSH2 0x232 JUMPI DIV SWAP3 PUSH1 0xF DUP5 MUL SWAP4 DUP1 DUP6 DIV PUSH1 0xF EQ SWAP1 ISZERO OR ISZERO PUSH2 0x220 JUMPI DUP9 MLOAD SWAP3 PUSH1 0xA DUP5 MUL SWAP4 DUP1 DUP6 DIV PUSH1 0xA EQ SWAP1 ISZERO OR ISZERO PUSH2 0x20E JUMPI DUP9 DUP11 ADD MLOAD SWAP5 PUSH1 0x5 DUP7 MUL SWAP6 DUP1 DUP8 DIV PUSH1 0x5 EQ SWAP1 ISZERO OR ISZERO PUSH2 0x1FC JUMPI PUSH2 0x180 SWAP5 PUSH2 0x1C0 PUSH1 0x64 SWAP6 PUSH2 0x1C0 PUSH2 0x1C5 SWAP7 PUSH2 0x1C0 PUSH2 0x1CE SWAP12 SWAP8 DUP11 PUSH2 0x1C0 SWAP9 DIV SWAP5 PUSH2 0x4F6 JUMP JUMPDEST PUSH2 0x4F6 JUMP JUMPDEST DIV SWAP7 ADD MLOAD PUSH2 0x519 JUMP JUMPDEST SWAP5 DUP6 DUP2 MUL SWAP6 DUP2 DUP8 DIV EQ SWAP1 ISZERO OR ISZERO PUSH2 0x1EC JUMPI POP POP POP PUSH1 0x64 SWAP1 MLOAD SWAP2 DIV DUP2 MSTORE RETURN JUMPDEST PUSH4 0x4E487B71 PUSH1 0xE0 SHL DUP3 MSTORE PUSH1 0x11 SWAP1 MSTORE REVERT JUMPDEST PUSH4 0x4E487B71 PUSH1 0xE0 SHL DUP9 MSTORE PUSH1 0x11 DUP8 MSTORE DUP9 DUP9 REVERT JUMPDEST PUSH4 0x4E487B71 PUSH1 0xE0 SHL DUP8 MSTORE PUSH1 0x11 DUP7 MSTORE DUP8 DUP8 REVERT JUMPDEST PUSH4 0x4E487B71 PUSH1 0xE0 SHL DUP7 MSTORE PUSH1 0x11 DUP6 MSTORE DUP7 DUP7 REVERT JUMPDEST PUSH4 0x4E487B71 PUSH1 0xE0 SHL DUP8 MSTORE PUSH1 0x12 DUP7 MSTORE DUP8 DUP8 REVERT JUMPDEST SWAP1 PUSH2 0x152 JUMP JUMPDEST POP POP PUSH4 0x4E487B71 PUSH1 0xE0 SHL DUP3 MSTORE PUSH1 0x11 SWAP1 MSTORE REVERT JUMPDEST POP PUSH4 0x4E487B71 PUSH1 0xE0 SHL DUP3 MSTORE PUSH1 0x11 SWAP1 MSTORE REVERT JUMPDEST SWAP1 SWAP5 POP RETURNDATASIZE DUP1 DUP4 DUP4 RETURNDATACOPY PUSH2 0x27F DUP2 DUP4 PUSH2 0x449 JUMP JUMPDEST DUP2 ADD SWAP1 DUP1 DUP3 SUB PUSH2 0x1C0 DUP2 SLT PUSH2 0x3D8 JUMPI DUP2 MLOAD SWAP3 PUSH8 0xFFFFFFFFFFFFFFFF SWAP4 DUP5 DUP2 GT PUSH2 0x3F2 JUMPI DUP4 ADD SWAP1 PUSH1 0xC0 DUP3 DUP3 SUB SLT PUSH2 0x3F2 JUMPI DUP8 MLOAD SWAP2 PUSH1 0xC0 DUP4 ADD DUP4 DUP2 LT DUP8 DUP3 GT OR PUSH2 0x3E0 JUMPI DUP10 MSTORE DUP1 MLOAD DUP4 MSTORE DUP11 DUP2 ADD MLOAD DUP12 DUP5 ADD MSTORE DUP9 DUP2 ADD MLOAD DUP10 DUP5 ADD MSTORE PUSH1 0x60 DUP2 ADD MLOAD PUSH1 0x60 DUP5 ADD MSTORE PUSH1 0x80 DUP2 ADD MLOAD DUP7 DUP2 GT PUSH2 0x3DC JUMPI DUP3 PUSH2 0x2F9 SWAP2 DUP4 ADD PUSH2 0x481 JUMP JUMPDEST PUSH1 0x80 DUP5 ADD MSTORE PUSH1 0xA0 DUP2 ADD MLOAD SWAP1 DUP7 DUP3 GT PUSH2 0x3DC JUMPI SWAP2 PUSH2 0x319 SWAP2 PUSH1 0xA0 SWAP4 ADD PUSH2 0x481 JUMP JUMPDEST SWAP2 ADD MSTORE PUSH2 0x1A0 DUP1 SWAP2 PUSH1 0x1F NOT ADD SLT PUSH2 0x3D8 JUMPI DUP6 MLOAD SWAP3 DUP2 DUP5 ADD SWAP1 DUP2 GT DUP5 DUP3 LT OR PUSH2 0x3C6 JUMPI DUP7 MSTORE DUP8 DUP3 ADD MLOAD DUP4 MSTORE DUP6 DUP3 ADD MLOAD DUP9 DUP5 ADD MSTORE PUSH1 0x60 DUP3 ADD MLOAD DUP7 DUP5 ADD MSTORE PUSH1 0x80 DUP3 ADD MLOAD PUSH1 0x60 DUP5 ADD MSTORE PUSH1 0xA0 DUP3 ADD MLOAD PUSH1 0x80 DUP5 ADD MSTORE PUSH1 0xC0 DUP3 ADD MLOAD PUSH1 0xA0 DUP5 ADD MSTORE PUSH1 0xE0 DUP3 ADD MLOAD PUSH1 0xC0 DUP5 ADD MSTORE PUSH2 0x100 SWAP2 DUP3 DUP2 ADD MLOAD PUSH1 0xE0 DUP6 ADD MSTORE PUSH2 0x120 SWAP3 DUP4 DUP3 ADD MLOAD SWAP1 DUP6 ADD MSTORE PUSH2 0x140 SWAP3 DUP4 DUP3 ADD MLOAD SWAP1 DUP6 ADD MSTORE PUSH2 0x160 SWAP3 DUP4 DUP3 ADD MLOAD SWAP1 DUP6 ADD MSTORE PUSH2 0x180 SWAP3 DUP4 DUP3 ADD MLOAD SWAP1 DUP6 ADD MSTORE ADD MLOAD SWAP1 DUP3 ADD MSTORE SWAP4 CODESIZE PUSH2 0xE0 JUMP JUMPDEST PUSH4 0x4E487B71 PUSH1 0xE0 SHL DUP6 MSTORE PUSH1 0x41 DUP9 MSTORE DUP6 DUP6 REVERT JUMPDEST DUP4 DUP1 REVERT JUMPDEST DUP8 DUP1 REVERT JUMPDEST PUSH4 0x4E487B71 PUSH1 0xE0 SHL DUP9 MSTORE PUSH1 0x41 DUP12 MSTORE DUP9 DUP9 REVERT JUMPDEST DUP6 DUP1 REVERT JUMPDEST DUP5 MLOAD RETURNDATASIZE DUP5 DUP3 RETURNDATACOPY RETURNDATASIZE SWAP1 REVERT JUMPDEST SWAP1 SWAP6 POP DUP7 DUP2 DUP2 RETURNDATASIZE DUP4 GT PUSH2 0x435 JUMPI JUMPDEST PUSH2 0x418 DUP2 DUP4 PUSH2 0x449 JUMP JUMPDEST DUP2 ADD SUB SLT PUSH2 0x431 JUMPI MLOAD DUP4 DUP2 AND DUP2 SUB PUSH2 0x431 JUMPI SWAP5 DUP3 PUSH2 0xB3 JUMP JUMPDEST DUP3 DUP1 REVERT JUMPDEST POP RETURNDATASIZE PUSH2 0x40E JUMP JUMPDEST DUP6 MLOAD RETURNDATASIZE DUP6 DUP3 RETURNDATACOPY RETURNDATASIZE SWAP1 REVERT JUMPDEST DUP1 REVERT JUMPDEST SWAP1 PUSH1 0x1F DUP1 NOT SWAP2 ADD AND DUP2 ADD SWAP1 DUP2 LT PUSH8 0xFFFFFFFFFFFFFFFF DUP3 GT OR PUSH2 0x46B JUMPI PUSH1 0x40 MSTORE JUMP JUMPDEST PUSH4 0x4E487B71 PUSH1 0xE0 SHL PUSH1 0x0 MSTORE PUSH1 0x41 PUSH1 0x4 MSTORE PUSH1 0x24 PUSH1 0x0 REVERT JUMPDEST SWAP2 SWAP1 DUP1 PUSH1 0x1F DUP5 ADD SLT ISZERO PUSH2 0x4F1 JUMPI DUP3 MLOAD PUSH8 0xFFFFFFFFFFFFFFFF DUP2 GT PUSH2 0x46B JUMPI PUSH1 0x20 SWAP1 PUSH1 0x40 MLOAD SWAP3 PUSH2 0x4B9 DUP4 PUSH1 0x1F NOT PUSH1 0x1F DUP6 ADD AND ADD DUP6 PUSH2 0x449 JUMP JUMPDEST DUP2 DUP5 MSTORE DUP3 DUP3 DUP8 ADD ADD GT PUSH2 0x4F1 JUMPI PUSH1 0x0 JUMPDEST DUP2 DUP2 LT PUSH2 0x4DE JUMPI POP DUP3 PUSH1 0x0 SWAP4 SWAP5 SWAP6 POP ADD ADD MSTORE SWAP1 JUMP JUMPDEST DUP6 DUP2 ADD DUP4 ADD MLOAD DUP5 DUP3 ADD DUP5 ADD MSTORE DUP3 ADD PUSH2 0x4C9 JUMP JUMPDEST PUSH1 0x0 DUP1 REVERT JUMPDEST SWAP2 SWAP1 DUP3 ADD DUP1 SWAP3 GT PUSH2 0x503 JUMPI JUMP JUMPDEST PUSH4 0x4E487B71 PUSH1 0xE0 SHL PUSH1 0x0 MSTORE PUSH1 0x11 PUSH1 0x4 MSTORE PUSH1 0x24 PUSH1 0x0 REVERT JUMPDEST DUP1 ISZERO PUSH2 0x54E JUMPI TIMESTAMP SUB TIMESTAMP DUP2 GT PUSH2 0x503 JUMPI PUSH4 0x1E13380 DUP2 GT ISZERO PUSH2 0x53A JUMPI POP PUSH1 0x32 SWAP1 JUMP JUMPDEST PUSH3 0xED4E00 LT ISZERO PUSH2 0x549 JUMPI PUSH1 0x4B SWAP1 JUMP JUMPDEST PUSH1 0x64 SWAP1 JUMP JUMPDEST POP PUSH1 0x64 SWAP1 JUMP INVALID LOG2 PUSH5 0x6970667358 0x22 SLT KECCAK256 PUSH25 0x9A53B2142DC781E6DD031FA898A9FA47010C0651ED2226FDAE 0xD1 BASEFEE PUSH13 0xD2CC0364736F6C634300081800 CALLER "},"methodIdentifiers":{"calculateReputation(address)":"27c06fd5","registry()":"7b103999"}}}}}