{"contracts/Account.sol":{"Account":{"abi":[{"anonymous":false,"inputs":[{"indexed":true,"internalType":"address","name":"user","type":"address"},{"indexed":true,"internalType":"uint256","name":"userId","type":"uint256"}],"name":"UserProfileUpdated","type":"event"},{"anonymous":false,"inputs":[{"indexed":true,"internalType":"address","name":"user","type":"address"},{"indexed":true,"internalType":"uint256","name":"userId","type":"uint256"}],"name":"UserRegistered","type":"event"},{"inputs":[{"internalType":"address","name":"","type":"address"}],"name":"userBasicInfo","outputs":[{"internalType":"uint256","name":"userId","type":"uint256"},{"internalType":"bytes32","name":"userEmail","type":"bytes32"},{"internalType":"bytes32","name":"userChatHandle","type":"bytes32"},{"internalType":"bytes32","name":"userWebsite","type":"bytes32"},{"internalType":"string","name":"userAvatar","type":"string"},{"internalType":"string","name":"userRole","type":"string"}],"stateMutability":"view","type":"function"},{"inputs":[],"name":"userCount","outputs":[{"internalType":"uint256","name":"","type":"uint256"}],"stateMutability":"view","type":"function"},{"inputs":[{"internalType":"uint256","name":"","type":"uint256"}],"name":"userIdToAddress","outputs":[{"internalType":"address","name":"","type":"address"}],"stateMutability":"view","type":"function"},{"inputs":[{"internalType":"bytes32","name":"_userEmail","type":"bytes32"},{"internalType":"bytes32","name":"_userChatHandle","type":"bytes32"},{"internalType":"bytes32","name":"_userWebsite","type":"bytes32"},{"internalType":"string","name":"_userAvatar","type":"string"},{"internalType":"string","name":"_userRole","type":"string"}],"name":"userReg","outputs":[],"stateMutability":"nonpayable","type":"function"},{"inputs":[{"internalType":"address","name":"_user","type":"address"}],"name":"userReputationCalc","outputs":[],"stateMutability":"nonpayable","type":"function"},{"inputs":[{"internalType":"address","name":"","type":"address"}],"name":"userStats","outputs":[{"internalType":"uint256","name":"userReputationScore","type":"uint256"},{"internalType":"uint256","name":"userEndorsementsGiven","type":"uint256"},{"internalType":"uint256","name":"userEndorsementsReceived","type":"uint256"},{"internalType":"uint256","name":"userDisputesInitiated","type":"uint256"},{"internalType":"uint256","name":"userDisputesLost","type":"uint256"},{"internalType":"uint256","name":"userTotalTradesInitiated","type":"uint256"},{"internalType":"uint256","name":"userTotalTradesAccepted","type":"uint256"},{"internalType":"uint256","name":"userTotalTradesCompleted","type":"uint256"},{"internalType":"uint256","name":"userTotalTradeVolume","type":"uint256"},{"internalType":"uint256","name":"userAverageTradeVolume","type":"uint256"},{"internalType":"uint256","name":"userLastCompletedTradeDate","type":"uint256"}],"stateMutability":"view","type":"function"},{"inputs":[{"internalType":"bytes32","name":"_userEmail","type":"bytes32"},{"internalType":"bytes32","name":"_userChatHandle","type":"bytes32"},{"internalType":"bytes32","name":"_userWebsite","type":"bytes32"},{"internalType":"string","name":"_userAvatar","type":"string"},{"internalType":"string","name":"_userRole","type":"string"}],"name":"userUpdateProfile","outputs":[],"stateMutability":"nonpayable","type":"function"}],"evm":{"bytecode":{"linkReferences":{},"object":"608060405234801561001057600080fd5b5061105b806100206000396000f3fe608060405234801561001057600080fd5b506004361061007d5760003560e01c80638a65d8741161005b5780638a65d874146100f1578063a20fb00e1461012b578063af10fec514610147578063b1695201146101635761007d565b806307973ccf146100825780632328aea6146100a05780637bb500e2146100d5575b600080fd5b61008a610193565b60405161009791906106e4565b60405180910390f35b6100ba60048036038101906100b59190610771565b610199565b6040516100cc96959493929190610847565b60405180910390f35b6100ef60048036038101906100ea9190610771565b6102e5565b005b61010b60048036038101906101069190610771565b6102e8565b6040516101229b9a999897969594939291906108b6565b60405180910390f35b61014560048036038101906101409190610ac2565b610342565b005b610161600480360381019061015c9190610ac2565b610543565b005b61017d60048036038101906101789190610ba1565b610698565b60405161018a9190610bdd565b60405180910390f35b60035481565b60006020528060005260406000206000915090508060000154908060010154908060020154908060030154908060040180546101d490610c27565b80601f016020809104026020016040519081016040528092919081815260200182805461020090610c27565b801561024d5780601f106102225761010080835404028352916020019161024d565b820191906000526020600020905b81548152906001019060200180831161023057829003601f168201915b50505050509080600501805461026290610c27565b80601f016020809104026020016040519081016040528092919081815260200182805461028e90610c27565b80156102db5780601f106102b0576101008083540402835291602001916102db565b820191906000526020600020905b8154815290600101906020018083116102be57829003601f168201915b5050505050905086565b50565b600160205280600052604060002060009150905080600001549080600101549080600201549080600301549080600401549080600501549080600601549080600701549080600801549080600901549080600a015490508b565b60008060003373ffffffffffffffffffffffffffffffffffffffff1673ffffffffffffffffffffffffffffffffffffffff16815260200190815260200160002060000154146103c6576040517f08c379a00000000000000000000000000000000000000000000000000000000081526004016103bd90610ca4565b60405180910390fd5b600360008154809291906103d990610cf3565b91905055506040518060c001604052806003548152602001868152602001858152602001848152602001838152602001828152506000803373ffffffffffffffffffffffffffffffffffffffff1673ffffffffffffffffffffffffffffffffffffffff1681526020019081526020016000206000820151816000015560208201518160010155604082015181600201556060820151816003015560808201518160040190816104889190610ee7565b5060a082015181600501908161049e9190610ee7565b509050503360026000600354815260200190815260200160002060006101000a81548173ffffffffffffffffffffffffffffffffffffffff021916908373ffffffffffffffffffffffffffffffffffffffff1602179055506003543373ffffffffffffffffffffffffffffffffffffffff167fe29d35093005f4d575e1003753426b57a7f64378ba73332eef9c6ccc2b8decd660405160405180910390a35050505050565b60008060003373ffffffffffffffffffffffffffffffffffffffff1673ffffffffffffffffffffffffffffffffffffffff16815260200190815260200160002060000154036105c7576040517f08c379a00000000000000000000000000000000000000000000000000000000081526004016105be90611005565b60405180910390fd5b60008060003373ffffffffffffffffffffffffffffffffffffffff1673ffffffffffffffffffffffffffffffffffffffff1681526020019081526020016000209050858160010181905550848160020181905550838160030181905550828160040190816106359190610ee7565b50818160050190816106479190610ee7565b5080600001543373ffffffffffffffffffffffffffffffffffffffff167f41ee65669409a0ac67e14c58fee5601cb71a227e78b60a97032cb150a8b6f4e560405160405180910390a3505050505050565b60026020528060005260406000206000915054906101000a900473ffffffffffffffffffffffffffffffffffffffff1681565b6000819050919050565b6106de816106cb565b82525050565b60006020820190506106f960008301846106d5565b92915050565b6000604051905090565b600080fd5b600080fd5b600073ffffffffffffffffffffffffffffffffffffffff82169050919050565b600061073e82610713565b9050919050565b61074e81610733565b811461075957600080fd5b50565b60008135905061076b81610745565b92915050565b60006020828403121561078757610786610709565b5b60006107958482850161075c565b91505092915050565b6000819050919050565b6107b18161079e565b82525050565b600081519050919050565b600082825260208201905092915050565b60005b838110156107f15780820151818401526020810190506107d6565b60008484015250505050565b6000601f19601f8301169050919050565b6000610819826107b7565b61082381856107c2565b93506108338185602086016107d3565b61083c816107fd565b840191505092915050565b600060c08201905061085c60008301896106d5565b61086960208301886107a8565b61087660408301876107a8565b61088360608301866107a8565b8181036080830152610895818561080e565b905081810360a08301526108a9818461080e565b9050979650505050505050565b6000610160820190506108cc600083018e6106d5565b6108d9602083018d6106d5565b6108e6604083018c6106d5565b6108f3606083018b6106d5565b610900608083018a6106d5565b61090d60a08301896106d5565b61091a60c08301886106d5565b61092760e08301876106d5565b6109356101008301866106d5565b6109436101208301856106d5565b6109516101408301846106d5565b9c9b505050505050505050505050565b61096a8161079e565b811461097557600080fd5b50565b60008135905061098781610961565b92915050565b600080fd5b600080fd5b7f4e487b7100000000000000000000000000000000000000000000000000000000600052604160045260246000fd5b6109cf826107fd565b810181811067ffffffffffffffff821117156109ee576109ed610997565b5b80604052505050565b6000610a016106ff565b9050610a0d82826109c6565b919050565b600067ffffffffffffffff821115610a2d57610a2c610997565b5b610a36826107fd565b9050602081019050919050565b82818337600083830152505050565b6000610a65610a6084610a12565b6109f7565b905082815260208101848484011115610a8157610a80610992565b5b610a8c848285610a43565b509392505050565b600082601f830112610aa957610aa861098d565b5b8135610ab9848260208601610a52565b91505092915050565b600080600080600060a08688031215610ade57610add610709565b5b6000610aec88828901610978565b9550506020610afd88828901610978565b9450506040610b0e88828901610978565b935050606086013567ffffffffffffffff811115610b2f57610b2e61070e565b5b610b3b88828901610a94565b925050608086013567ffffffffffffffff811115610b5c57610b5b61070e565b5b610b6888828901610a94565b9150509295509295909350565b610b7e816106cb565b8114610b8957600080fd5b50565b600081359050610b9b81610b75565b92915050565b600060208284031215610bb757610bb6610709565b5b6000610bc584828501610b8c565b91505092915050565b610bd781610733565b82525050565b6000602082019050610bf26000830184610bce565b92915050565b7f4e487b7100000000000000000000000000000000000000000000000000000000600052602260045260246000fd5b60006002820490506001821680610c3f57607f821691505b602082108103610c5257610c51610bf8565b5b50919050565b7f5573657220616c72656164792072656769737465726564000000000000000000600082015250565b6000610c8e6017836107c2565b9150610c9982610c58565b602082019050919050565b60006020820190508181036000830152610cbd81610c81565b9050919050565b7f4e487b7100000000000000000000000000000000000000000000000000000000600052601160045260246000fd5b6000610cfe826106cb565b91507fffffffffffffffffffffffffffffffffffffffffffffffffffffffffffffffff8203610d3057610d2f610cc4565b5b600182019050919050565b60008190508160005260206000209050919050565b60006020601f8301049050919050565b600082821b905092915050565b600060088302610d9d7fffffffffffffffffffffffffffffffffffffffffffffffffffffffffffffffff82610d60565b610da78683610d60565b95508019841693508086168417925050509392505050565b6000819050919050565b6000610de4610ddf610dda846106cb565b610dbf565b6106cb565b9050919050565b6000819050919050565b610dfe83610dc9565b610e12610e0a82610deb565b848454610d6d565b825550505050565b600090565b610e27610e1a565b610e32818484610df5565b505050565b5b81811015610e5657610e4b600082610e1f565b600181019050610e38565b5050565b601f821115610e9b57610e6c81610d3b565b610e7584610d50565b81016020851015610e84578190505b610e98610e9085610d50565b830182610e37565b50505b505050565b600082821c905092915050565b6000610ebe60001984600802610ea0565b1980831691505092915050565b6000610ed78383610ead565b9150826002028217905092915050565b610ef0826107b7565b67ffffffffffffffff811115610f0957610f08610997565b5b610f138254610c27565b610f1e828285610e5a565b600060209050601f831160018114610f515760008415610f3f578287015190505b610f498582610ecb565b865550610fb1565b601f198416610f5f86610d3b565b60005b82811015610f8757848901518255600182019150602085019450602081019050610f62565b86831015610fa45784890151610fa0601f891682610ead565b8355505b6001600288020188555050505b505050505050565b7f55736572206e6f74207265676973746572656400000000000000000000000000600082015250565b6000610fef6013836107c2565b9150610ffa82610fb9565b602082019050919050565b6000602082019050818103600083015261101e81610fe2565b905091905056fea26469706673582212208736112e5a932e5aceeda242b290cd383d9bddcc122da225337e4ceb67100b4e64736f6c63430008180033","opcodes":"PUSH1 0x80 PUSH1 0x40 MSTORE CALLVALUE DUP1 ISZERO PUSH2 0x10 JUMPI PUSH1 0x0 DUP1 REVERT JUMPDEST POP PUSH2 0x105B DUP1 PUSH2 0x20 PUSH1 0x0 CODECOPY PUSH1 0x0 RETURN INVALID PUSH1 0x80 PUSH1 0x40 MSTORE CALLVALUE DUP1 ISZERO PUSH2 0x10 JUMPI PUSH1 0x0 DUP1 REVERT JUMPDEST POP PUSH1 0x4 CALLDATASIZE LT PUSH2 0x7D JUMPI PUSH1 0x0 CALLDATALOAD PUSH1 0xE0 SHR DUP1 PUSH4 0x8A65D874 GT PUSH2 0x5B JUMPI DUP1 PUSH4 0x8A65D874 EQ PUSH2 0xF1 JUMPI DUP1 PUSH4 0xA20FB00E EQ PUSH2 0x12B JUMPI DUP1 PUSH4 0xAF10FEC5 EQ PUSH2 0x147 JUMPI DUP1 PUSH4 0xB1695201 EQ PUSH2 0x163 JUMPI PUSH2 0x7D JUMP JUMPDEST DUP1 PUSH4 0x7973CCF EQ PUSH2 0x82 JUMPI DUP1 PUSH4 0x2328AEA6 EQ PUSH2 0xA0 JUMPI DUP1 PUSH4 0x7BB500E2 EQ PUSH2 0xD5 JUMPI JUMPDEST PUSH1 0x0 DUP1 REVERT JUMPDEST PUSH2 0x8A PUSH2 0x193 JUMP JUMPDEST PUSH1 0x40 MLOAD PUSH2 0x97 SWAP2 SWAP1 PUSH2 0x6E4 JUMP JUMPDEST PUSH1 0x40 MLOAD DUP1 SWAP2 SUB SWAP1 RETURN JUMPDEST PUSH2 0xBA PUSH1 0x4 DUP1 CALLDATASIZE SUB DUP2 ADD SWAP1 PUSH2 0xB5 SWAP2 SWAP1 PUSH2 0x771 JUMP JUMPDEST PUSH2 0x199 JUMP JUMPDEST PUSH1 0x40 MLOAD PUSH2 0xCC SWAP7 SWAP6 SWAP5 SWAP4 SWAP3 SWAP2 SWAP1 PUSH2 0x847 JUMP JUMPDEST PUSH1 0x40 MLOAD DUP1 SWAP2 SUB SWAP1 RETURN JUMPDEST PUSH2 0xEF PUSH1 0x4 DUP1 CALLDATASIZE SUB DUP2 ADD SWAP1 PUSH2 0xEA SWAP2 SWAP1 PUSH2 0x771 JUMP JUMPDEST PUSH2 0x2E5 JUMP JUMPDEST STOP JUMPDEST PUSH2 0x10B PUSH1 0x4 DUP1 CALLDATASIZE SUB DUP2 ADD SWAP1 PUSH2 0x106 SWAP2 SWAP1 PUSH2 0x771 JUMP JUMPDEST PUSH2 0x2E8 JUMP JUMPDEST PUSH1 0x40 MLOAD PUSH2 0x122 SWAP12 SWAP11 SWAP10 SWAP9 SWAP8 SWAP7 SWAP6 SWAP5 SWAP4 SWAP3 SWAP2 SWAP1 PUSH2 0x8B6 JUMP JUMPDEST PUSH1 0x40 MLOAD DUP1 SWAP2 SUB SWAP1 RETURN JUMPDEST PUSH2 0x145 PUSH1 0x4 DUP1 CALLDATASIZE SUB DUP2 ADD SWAP1 PUSH2 0x140 SWAP2 SWAP1 PUSH2 0xAC2 JUMP JUMPDEST PUSH2 0x342 JUMP JUMPDEST STOP JUMPDEST PUSH2 0x161 PUSH1 0x4 DUP1 CALLDATASIZE SUB DUP2 ADD SWAP1 PUSH2 0x15C SWAP2 SWAP1 PUSH2 0xAC2 JUMP JUMPDEST PUSH2 0x543 JUMP JUMPDEST STOP JUMPDEST PUSH2 0x17D PUSH1 0x4 DUP1 CALLDATASIZE SUB DUP2 ADD SWAP1 PUSH2 0x178 SWAP2 SWAP1 PUSH2 0xBA1 JUMP JUMPDEST PUSH2 0x698 JUMP JUMPDEST PUSH1 0x40 MLOAD PUSH2 0x18A SWAP2 SWAP1 PUSH2 0xBDD JUMP JUMPDEST PUSH1 0x40 MLOAD DUP1 SWAP2 SUB SWAP1 RETURN JUMPDEST PUSH1 0x3 SLOAD DUP2 JUMP JUMPDEST PUSH1 0x0 PUSH1 0x20 MSTORE DUP1 PUSH1 0x0 MSTORE PUSH1 0x40 PUSH1 0x0 KECCAK256 PUSH1 0x0 SWAP2 POP SWAP1 POP DUP1 PUSH1 0x0 ADD SLOAD SWAP1 DUP1 PUSH1 0x1 ADD SLOAD SWAP1 DUP1 PUSH1 0x2 ADD SLOAD SWAP1 DUP1 PUSH1 0x3 ADD SLOAD SWAP1 DUP1 PUSH1 0x4 ADD DUP1 SLOAD PUSH2 0x1D4 SWAP1 PUSH2 0xC27 JUMP JUMPDEST DUP1 PUSH1 0x1F ADD PUSH1 0x20 DUP1 SWAP2 DIV MUL PUSH1 0x20 ADD PUSH1 0x40 MLOAD SWAP1 DUP2 ADD PUSH1 0x40 MSTORE DUP1 SWAP3 SWAP2 SWAP1 DUP2 DUP2 MSTORE PUSH1 0x20 ADD DUP3 DUP1 SLOAD PUSH2 0x200 SWAP1 PUSH2 0xC27 JUMP JUMPDEST DUP1 ISZERO PUSH2 0x24D JUMPI DUP1 PUSH1 0x1F LT PUSH2 0x222 JUMPI PUSH2 0x100 DUP1 DUP4 SLOAD DIV MUL DUP4 MSTORE SWAP2 PUSH1 0x20 ADD SWAP2 PUSH2 0x24D JUMP JUMPDEST DUP3 ADD SWAP2 SWAP1 PUSH1 0x0 MSTORE PUSH1 0x20 PUSH1 0x0 KECCAK256 SWAP1 JUMPDEST DUP2 SLOAD DUP2 MSTORE SWAP1 PUSH1 0x1 ADD SWAP1 PUSH1 0x20 ADD DUP1 DUP4 GT PUSH2 0x230 JUMPI DUP3 SWAP1 SUB PUSH1 0x1F AND DUP3 ADD SWAP2 JUMPDEST POP POP POP POP POP SWAP1 DUP1 PUSH1 0x5 ADD DUP1 SLOAD PUSH2 0x262 SWAP1 PUSH2 0xC27 JUMP JUMPDEST DUP1 PUSH1 0x1F ADD PUSH1 0x20 DUP1 SWAP2 DIV MUL PUSH1 0x20 ADD PUSH1 0x40 MLOAD SWAP1 DUP2 ADD PUSH1 0x40 MSTORE DUP1 SWAP3 SWAP2 SWAP1 DUP2 DUP2 MSTORE PUSH1 0x20 ADD DUP3 DUP1 SLOAD PUSH2 0x28E SWAP1 PUSH2 0xC27 JUMP JUMPDEST DUP1 ISZERO PUSH2 0x2DB JUMPI DUP1 PUSH1 0x1F LT PUSH2 0x2B0 JUMPI PUSH2 0x100 DUP1 DUP4 SLOAD DIV MUL DUP4 MSTORE SWAP2 PUSH1 0x20 ADD SWAP2 PUSH2 0x2DB JUMP JUMPDEST DUP3 ADD SWAP2 SWAP1 PUSH1 0x0 MSTORE PUSH1 0x20 PUSH1 0x0 KECCAK256 SWAP1 JUMPDEST DUP2 SLOAD DUP2 MSTORE SWAP1 PUSH1 0x1 ADD SWAP1 PUSH1 0x20 ADD DUP1 DUP4 GT PUSH2 0x2BE JUMPI DUP3 SWAP1 SUB PUSH1 0x1F AND DUP3 ADD SWAP2 JUMPDEST POP POP POP POP POP SWAP1 POP DUP7 JUMP JUMPDEST POP JUMP JUMPDEST PUSH1 0x1 PUSH1 0x20 MSTORE DUP1 PUSH1 0x0 MSTORE PUSH1 0x40 PUSH1 0x0 KECCAK256 PUSH1 0x0 SWAP2 POP SWAP1 POP DUP1 PUSH1 0x0 ADD SLOAD SWAP1 DUP1 PUSH1 0x1 ADD SLOAD SWAP1 DUP1 PUSH1 0x2 ADD SLOAD SWAP1 DUP1 PUSH1 0x3 ADD SLOAD SWAP1 DUP1 PUSH1 0x4 ADD SLOAD SWAP1 DUP1 PUSH1 0x5 ADD SLOAD SWAP1 DUP1 PUSH1 0x6 ADD SLOAD SWAP1 DUP1 PUSH1 0x7 ADD SLOAD SWAP1 DUP1 PUSH1 0x8 ADD SLOAD SWAP1 DUP1 PUSH1 0x9 ADD SLOAD SWAP1 DUP1 PUSH1 0xA ADD SLOAD SWAP1 POP DUP12 JUMP JUMPDEST PUSH1 0x0 DUP1 PUSH1 0x0 CALLER PUSH20 0xFFFFFFFFFFFFFFFFFFFFFFFFFFFFFFFFFFFFFFFF AND PUSH20 0xFFFFFFFFFFFFFFFFFFFFFFFFFFFFFFFFFFFFFFFF AND DUP2 MSTORE PUSH1 0x20 ADD SWAP1 DUP2 MSTORE PUSH1 0x20 ADD PUSH1 0x0 KECCAK256 PUSH1 0x0 ADD SLOAD EQ PUSH2 0x3C6 JUMPI PUSH1 0x40 MLOAD PUSH32 0x8C379A000000000000000000000000000000000000000000000000000000000 DUP2 MSTORE PUSH1 0x4 ADD PUSH2 0x3BD SWAP1 PUSH2 0xCA4 JUMP JUMPDEST PUSH1 0x40 MLOAD DUP1 SWAP2 SUB SWAP1 REVERT JUMPDEST PUSH1 0x3 PUSH1 0x0 DUP2 SLOAD DUP1 SWAP3 SWAP2 SWAP1 PUSH2 0x3D9 SWAP1 PUSH2 0xCF3 JUMP JUMPDEST SWAP2 SWAP1 POP SSTORE POP PUSH1 0x40 MLOAD DUP1 PUSH1 0xC0 ADD PUSH1 0x40 MSTORE DUP1 PUSH1 0x3 SLOAD DUP2 MSTORE PUSH1 0x20 ADD DUP7 DUP2 MSTORE PUSH1 0x20 ADD DUP6 DUP2 MSTORE PUSH1 0x20 ADD DUP5 DUP2 MSTORE PUSH1 0x20 ADD DUP4 DUP2 MSTORE PUSH1 0x20 ADD DUP3 DUP2 MSTORE POP PUSH1 0x0 DUP1 CALLER PUSH20 0xFFFFFFFFFFFFFFFFFFFFFFFFFFFFFFFFFFFFFFFF AND PUSH20 0xFFFFFFFFFFFFFFFFFFFFFFFFFFFFFFFFFFFFFFFF AND DUP2 MSTORE PUSH1 0x20 ADD SWAP1 DUP2 MSTORE PUSH1 0x20 ADD PUSH1 0x0 KECCAK256 PUSH1 0x0 DUP3 ADD MLOAD DUP2 PUSH1 0x0 ADD SSTORE PUSH1 0x20 DUP3 ADD MLOAD DUP2 PUSH1 0x1 ADD SSTORE PUSH1 0x40 DUP3 ADD MLOAD DUP2 PUSH1 0x2 ADD SSTORE PUSH1 0x60 DUP3 ADD MLOAD DUP2 PUSH1 0x3 ADD SSTORE PUSH1 0x80 DUP3 ADD MLOAD DUP2 PUSH1 0x4 ADD SWAP1 DUP2 PUSH2 0x488 SWAP2 SWAP1 PUSH2 0xEE7 JUMP JUMPDEST POP PUSH1 0xA0 DUP3 ADD MLOAD DUP2 PUSH1 0x5 ADD SWAP1 DUP2 PUSH2 0x49E SWAP2 SWAP1 PUSH2 0xEE7 JUMP JUMPDEST POP SWAP1 POP POP CALLER PUSH1 0x2 PUSH1 0x0 PUSH1 0x3 SLOAD DUP2 MSTORE PUSH1 0x20 ADD SWAP1 DUP2 MSTORE PUSH1 0x20 ADD PUSH1 0x0 KECCAK256 PUSH1 0x0 PUSH2 0x100 EXP DUP2 SLOAD DUP2 PUSH20 0xFFFFFFFFFFFFFFFFFFFFFFFFFFFFFFFFFFFFFFFF MUL NOT AND SWAP1 DUP4 PUSH20 0xFFFFFFFFFFFFFFFFFFFFFFFFFFFFFFFFFFFFFFFF AND MUL OR SWAP1 SSTORE POP PUSH1 0x3 SLOAD CALLER PUSH20 0xFFFFFFFFFFFFFFFFFFFFFFFFFFFFFFFFFFFFFFFF AND PUSH32 0xE29D35093005F4D575E1003753426B57A7F64378BA73332EEF9C6CCC2B8DECD6 PUSH1 0x40 MLOAD PUSH1 0x40 MLOAD DUP1 SWAP2 SUB SWAP1 LOG3 POP POP POP POP POP JUMP JUMPDEST PUSH1 0x0 DUP1 PUSH1 0x0 CALLER PUSH20 0xFFFFFFFFFFFFFFFFFFFFFFFFFFFFFFFFFFFFFFFF AND PUSH20 0xFFFFFFFFFFFFFFFFFFFFFFFFFFFFFFFFFFFFFFFF AND DUP2 MSTORE PUSH1 0x20 ADD SWAP1 DUP2 MSTORE PUSH1 0x20 ADD PUSH1 0x0 KECCAK256 PUSH1 0x0 ADD SLOAD SUB PUSH2 0x5C7 JUMPI PUSH1 0x40 MLOAD PUSH32 0x8C379A000000000000000000000000000000000000000000000000000000000 DUP2 MSTORE PUSH1 0x4 ADD PUSH2 0x5BE SWAP1 PUSH2 0x1005 JUMP JUMPDEST PUSH1 0x40 MLOAD DUP1 SWAP2 SUB SWAP1 REVERT JUMPDEST PUSH1 0x0 DUP1 PUSH1 0x0 CALLER PUSH20 0xFFFFFFFFFFFFFFFFFFFFFFFFFFFFFFFFFFFFFFFF AND PUSH20 0xFFFFFFFFFFFFFFFFFFFFFFFFFFFFFFFFFFFFFFFF AND DUP2 MSTORE PUSH1 0x20 ADD SWAP1 DUP2 MSTORE PUSH1 0x20 ADD PUSH1 0x0 KECCAK256 SWAP1 POP DUP6 DUP2 PUSH1 0x1 ADD DUP2 SWAP1 SSTORE POP DUP5 DUP2 PUSH1 0x2 ADD DUP2 SWAP1 SSTORE POP DUP4 DUP2 PUSH1 0x3 ADD DUP2 SWAP1 SSTORE POP DUP3 DUP2 PUSH1 0x4 ADD SWAP1 DUP2 PUSH2 0x635 SWAP2 SWAP1 PUSH2 0xEE7 JUMP JUMPDEST POP DUP2 DUP2 PUSH1 0x5 ADD SWAP1 DUP2 PUSH2 0x647 SWAP2 SWAP1 PUSH2 0xEE7 JUMP JUMPDEST POP DUP1 PUSH1 0x0 ADD SLOAD CALLER PUSH20 0xFFFFFFFFFFFFFFFFFFFFFFFFFFFFFFFFFFFFFFFF AND PUSH32 0x41EE65669409A0AC67E14C58FEE5601CB71A227E78B60A97032CB150A8B6F4E5 PUSH1 0x40 MLOAD PUSH1 0x40 MLOAD DUP1 SWAP2 SUB SWAP1 LOG3 POP POP POP POP POP POP JUMP JUMPDEST PUSH1 0x2 PUSH1 0x20 MSTORE DUP1 PUSH1 0x0 MSTORE PUSH1 0x40 PUSH1 0x0 KECCAK256 PUSH1 0x0 SWAP2 POP SLOAD SWAP1 PUSH2 0x100 EXP SWAP1 DIV PUSH20 0xFFFFFFFFFFFFFFFFFFFFFFFFFFFFFFFFFFFFFFFF AND DUP2 JUMP JUMPDEST PUSH1 0x0 DUP2 SWAP1 POP SWAP2 SWAP1 POP JUMP JUMPDEST PUSH2 0x6DE DUP2 PUSH2 0x6CB JUMP JUMPDEST DUP3 MSTORE POP POP JUMP JUMPDEST PUSH1 0x0 PUSH1 0x20 DUP3 ADD SWAP1 POP PUSH2 0x6F9 PUSH1 0x0 DUP4 ADD DUP5 PUSH2 0x6D5 JUMP JUMPDEST SWAP3 SWAP2 POP POP JUMP JUMPDEST PUSH1 0x0 PUSH1 0x40 MLOAD SWAP1 POP SWAP1 JUMP JUMPDEST PUSH1 0x0 DUP1 REVERT JUMPDEST PUSH1 0x0 DUP1 REVERT JUMPDEST PUSH1 0x0 PUSH20 0xFFFFFFFFFFFFFFFFFFFFFFFFFFFFFFFFFFFFFFFF DUP3 AND SWAP1 POP SWAP2 SWAP1 POP JUMP JUMPDEST PUSH1 0x0 PUSH2 0x73E DUP3 PUSH2 0x713 JUMP JUMPDEST SWAP1 POP SWAP2 SWAP1 POP JUMP JUMPDEST PUSH2 0x74E DUP2 PUSH2 0x733 JUMP JUMPDEST DUP2 EQ PUSH2 0x759 JUMPI PUSH1 0x0 DUP1 REVERT JUMPDEST POP JUMP JUMPDEST PUSH1 0x0 DUP2 CALLDATALOAD SWAP1 POP PUSH2 0x76B DUP2 PUSH2 0x745 JUMP JUMPDEST SWAP3 SWAP2 POP POP JUMP JUMPDEST PUSH1 0x0 PUSH1 0x20 DUP3 DUP5 SUB SLT ISZERO PUSH2 0x787 JUMPI PUSH2 0x786 PUSH2 0x709 JUMP JUMPDEST JUMPDEST PUSH1 0x0 PUSH2 0x795 DUP5 DUP3 DUP6 ADD PUSH2 0x75C JUMP JUMPDEST SWAP2 POP POP SWAP3 SWAP2 POP POP JUMP JUMPDEST PUSH1 0x0 DUP2 SWAP1 POP SWAP2 SWAP1 POP JUMP JUMPDEST PUSH2 0x7B1 DUP2 PUSH2 0x79E JUMP JUMPDEST DUP3 MSTORE POP POP JUMP JUMPDEST PUSH1 0x0 DUP2 MLOAD SWAP1 POP SWAP2 SWAP1 POP JUMP JUMPDEST PUSH1 0x0 DUP3 DUP3 MSTORE PUSH1 0x20 DUP3 ADD SWAP1 POP SWAP3 SWAP2 POP POP JUMP JUMPDEST PUSH1 0x0 JUMPDEST DUP4 DUP2 LT ISZERO PUSH2 0x7F1 JUMPI DUP1 DUP3 ADD MLOAD DUP2 DUP5 ADD MSTORE PUSH1 0x20 DUP2 ADD SWAP1 POP PUSH2 0x7D6 JUMP JUMPDEST PUSH1 0x0 DUP5 DUP5 ADD MSTORE POP POP POP POP JUMP JUMPDEST PUSH1 0x0 PUSH1 0x1F NOT PUSH1 0x1F DUP4 ADD AND SWAP1 POP SWAP2 SWAP1 POP JUMP JUMPDEST PUSH1 0x0 PUSH2 0x819 DUP3 PUSH2 0x7B7 JUMP JUMPDEST PUSH2 0x823 DUP2 DUP6 PUSH2 0x7C2 JUMP JUMPDEST SWAP4 POP PUSH2 0x833 DUP2 DUP6 PUSH1 0x20 DUP7 ADD PUSH2 0x7D3 JUMP JUMPDEST PUSH2 0x83C DUP2 PUSH2 0x7FD JUMP JUMPDEST DUP5 ADD SWAP2 POP POP SWAP3 SWAP2 POP POP JUMP JUMPDEST PUSH1 0x0 PUSH1 0xC0 DUP3 ADD SWAP1 POP PUSH2 0x85C PUSH1 0x0 DUP4 ADD DUP10 PUSH2 0x6D5 JUMP JUMPDEST PUSH2 0x869 PUSH1 0x20 DUP4 ADD DUP9 PUSH2 0x7A8 JUMP JUMPDEST PUSH2 0x876 PUSH1 0x40 DUP4 ADD DUP8 PUSH2 0x7A8 JUMP JUMPDEST PUSH2 0x883 PUSH1 0x60 DUP4 ADD DUP7 PUSH2 0x7A8 JUMP JUMPDEST DUP2 DUP2 SUB PUSH1 0x80 DUP4 ADD MSTORE PUSH2 0x895 DUP2 DUP6 PUSH2 0x80E JUMP JUMPDEST SWAP1 POP DUP2 DUP2 SUB PUSH1 0xA0 DUP4 ADD MSTORE PUSH2 0x8A9 DUP2 DUP5 PUSH2 0x80E JUMP JUMPDEST SWAP1 POP SWAP8 SWAP7 POP POP POP POP POP POP POP JUMP JUMPDEST PUSH1 0x0 PUSH2 0x160 DUP3 ADD SWAP1 POP PUSH2 0x8CC PUSH1 0x0 DUP4 ADD DUP15 PUSH2 0x6D5 JUMP JUMPDEST PUSH2 0x8D9 PUSH1 0x20 DUP4 ADD DUP14 PUSH2 0x6D5 JUMP JUMPDEST PUSH2 0x8E6 PUSH1 0x40 DUP4 ADD DUP13 PUSH2 0x6D5 JUMP JUMPDEST PUSH2 0x8F3 PUSH1 0x60 DUP4 ADD DUP12 PUSH2 0x6D5 JUMP JUMPDEST PUSH2 0x900 PUSH1 0x80 DUP4 ADD DUP11 PUSH2 0x6D5 JUMP JUMPDEST PUSH2 0x90D PUSH1 0xA0 DUP4 ADD DUP10 PUSH2 0x6D5 JUMP JUMPDEST PUSH2 0x91A PUSH1 0xC0 DUP4 ADD DUP9 PUSH2 0x6D5 JUMP JUMPDEST PUSH2 0x927 PUSH1 0xE0 DUP4 ADD DUP8 PUSH2 0x6D5 JUMP JUMPDEST PUSH2 0x935 PUSH2 0x100 DUP4 ADD DUP7 PUSH2 0x6D5 JUMP JUMPDEST PUSH2 0x943 PUSH2 0x120 DUP4 ADD DUP6 PUSH2 0x6D5 JUMP JUMPDEST PUSH2 0x951 PUSH2 0x140 DUP4 ADD DUP5 PUSH2 0x6D5 JUMP JUMPDEST SWAP13 SWAP12 POP POP POP POP POP POP POP POP POP POP POP POP JUMP JUMPDEST PUSH2 0x96A DUP2 PUSH2 0x79E JUMP JUMPDEST DUP2 EQ PUSH2 0x975 JUMPI PUSH1 0x0 DUP1 REVERT JUMPDEST POP JUMP JUMPDEST PUSH1 0x0 DUP2 CALLDATALOAD SWAP1 POP PUSH2 0x987 DUP2 PUSH2 0x961 JUMP JUMPDEST SWAP3 SWAP2 POP POP JUMP JUMPDEST PUSH1 0x0 DUP1 REVERT JUMPDEST PUSH1 0x0 DUP1 REVERT JUMPDEST PUSH32 0x4E487B7100000000000000000000000000000000000000000000000000000000 PUSH1 0x0 MSTORE PUSH1 0x41 PUSH1 0x4 MSTORE PUSH1 0x24 PUSH1 0x0 REVERT JUMPDEST PUSH2 0x9CF DUP3 PUSH2 0x7FD JUMP JUMPDEST DUP2 ADD DUP2 DUP2 LT PUSH8 0xFFFFFFFFFFFFFFFF DUP3 GT OR ISZERO PUSH2 0x9EE JUMPI PUSH2 0x9ED PUSH2 0x997 JUMP JUMPDEST JUMPDEST DUP1 PUSH1 0x40 MSTORE POP POP POP JUMP JUMPDEST PUSH1 0x0 PUSH2 0xA01 PUSH2 0x6FF JUMP JUMPDEST SWAP1 POP PUSH2 0xA0D DUP3 DUP3 PUSH2 0x9C6 JUMP JUMPDEST SWAP2 SWAP1 POP JUMP JUMPDEST PUSH1 0x0 PUSH8 0xFFFFFFFFFFFFFFFF DUP3 GT ISZERO PUSH2 0xA2D JUMPI PUSH2 0xA2C PUSH2 0x997 JUMP JUMPDEST JUMPDEST PUSH2 0xA36 DUP3 PUSH2 0x7FD JUMP JUMPDEST SWAP1 POP PUSH1 0x20 DUP2 ADD SWAP1 POP SWAP2 SWAP1 POP JUMP JUMPDEST DUP3 DUP2 DUP4 CALLDATACOPY PUSH1 0x0 DUP4 DUP4 ADD MSTORE POP POP POP JUMP JUMPDEST PUSH1 0x0 PUSH2 0xA65 PUSH2 0xA60 DUP5 PUSH2 0xA12 JUMP JUMPDEST PUSH2 0x9F7 JUMP JUMPDEST SWAP1 POP DUP3 DUP2 MSTORE PUSH1 0x20 DUP2 ADD DUP5 DUP5 DUP5 ADD GT ISZERO PUSH2 0xA81 JUMPI PUSH2 0xA80 PUSH2 0x992 JUMP JUMPDEST JUMPDEST PUSH2 0xA8C DUP5 DUP3 DUP6 PUSH2 0xA43 JUMP JUMPDEST POP SWAP4 SWAP3 POP POP POP JUMP JUMPDEST PUSH1 0x0 DUP3 PUSH1 0x1F DUP4 ADD SLT PUSH2 0xAA9 JUMPI PUSH2 0xAA8 PUSH2 0x98D JUMP JUMPDEST JUMPDEST DUP2 CALLDATALOAD PUSH2 0xAB9 DUP5 DUP3 PUSH1 0x20 DUP7 ADD PUSH2 0xA52 JUMP JUMPDEST SWAP2 POP POP SWAP3 SWAP2 POP POP JUMP JUMPDEST PUSH1 0x0 DUP1 PUSH1 0x0 DUP1 PUSH1 0x0 PUSH1 0xA0 DUP7 DUP9 SUB SLT ISZERO PUSH2 0xADE JUMPI PUSH2 0xADD PUSH2 0x709 JUMP JUMPDEST JUMPDEST PUSH1 0x0 PUSH2 0xAEC DUP9 DUP3 DUP10 ADD PUSH2 0x978 JUMP JUMPDEST SWAP6 POP POP PUSH1 0x20 PUSH2 0xAFD DUP9 DUP3 DUP10 ADD PUSH2 0x978 JUMP JUMPDEST SWAP5 POP POP PUSH1 0x40 PUSH2 0xB0E DUP9 DUP3 DUP10 ADD PUSH2 0x978 JUMP JUMPDEST SWAP4 POP POP PUSH1 0x60 DUP7 ADD CALLDATALOAD PUSH8 0xFFFFFFFFFFFFFFFF DUP2 GT ISZERO PUSH2 0xB2F JUMPI PUSH2 0xB2E PUSH2 0x70E JUMP JUMPDEST JUMPDEST PUSH2 0xB3B DUP9 DUP3 DUP10 ADD PUSH2 0xA94 JUMP JUMPDEST SWAP3 POP POP PUSH1 0x80 DUP7 ADD CALLDATALOAD PUSH8 0xFFFFFFFFFFFFFFFF DUP2 GT ISZERO PUSH2 0xB5C JUMPI PUSH2 0xB5B PUSH2 0x70E JUMP JUMPDEST JUMPDEST PUSH2 0xB68 DUP9 DUP3 DUP10 ADD PUSH2 0xA94 JUMP JUMPDEST SWAP2 POP POP SWAP3 SWAP6 POP SWAP3 SWAP6 SWAP1 SWAP4 POP JUMP JUMPDEST PUSH2 0xB7E DUP2 PUSH2 0x6CB JUMP JUMPDEST DUP2 EQ PUSH2 0xB89 JUMPI PUSH1 0x0 DUP1 REVERT JUMPDEST POP JUMP JUMPDEST PUSH1 0x0 DUP2 CALLDATALOAD SWAP1 POP PUSH2 0xB9B DUP2 PUSH2 0xB75 JUMP JUMPDEST SWAP3 SWAP2 POP POP JUMP JUMPDEST PUSH1 0x0 PUSH1 0x20 DUP3 DUP5 SUB SLT ISZERO PUSH2 0xBB7 JUMPI PUSH2 0xBB6 PUSH2 0x709 JUMP JUMPDEST JUMPDEST PUSH1 0x0 PUSH2 0xBC5 DUP5 DUP3 DUP6 ADD PUSH2 0xB8C JUMP JUMPDEST SWAP2 POP POP SWAP3 SWAP2 POP POP JUMP JUMPDEST PUSH2 0xBD7 DUP2 PUSH2 0x733 JUMP JUMPDEST DUP3 MSTORE POP POP JUMP JUMPDEST PUSH1 0x0 PUSH1 0x20 DUP3 ADD SWAP1 POP PUSH2 0xBF2 PUSH1 0x0 DUP4 ADD DUP5 PUSH2 0xBCE JUMP JUMPDEST SWAP3 SWAP2 POP POP JUMP JUMPDEST PUSH32 0x4E487B7100000000000000000000000000000000000000000000000000000000 PUSH1 0x0 MSTORE PUSH1 0x22 PUSH1 0x4 MSTORE PUSH1 0x24 PUSH1 0x0 REVERT JUMPDEST PUSH1 0x0 PUSH1 0x2 DUP3 DIV SWAP1 POP PUSH1 0x1 DUP3 AND DUP1 PUSH2 0xC3F JUMPI PUSH1 0x7F DUP3 AND SWAP2 POP JUMPDEST PUSH1 0x20 DUP3 LT DUP2 SUB PUSH2 0xC52 JUMPI PUSH2 0xC51 PUSH2 0xBF8 JUMP JUMPDEST JUMPDEST POP SWAP2 SWAP1 POP JUMP JUMPDEST PUSH32 0x5573657220616C72656164792072656769737465726564000000000000000000 PUSH1 0x0 DUP3 ADD MSTORE POP JUMP JUMPDEST PUSH1 0x0 PUSH2 0xC8E PUSH1 0x17 DUP4 PUSH2 0x7C2 JUMP JUMPDEST SWAP2 POP PUSH2 0xC99 DUP3 PUSH2 0xC58 JUMP JUMPDEST PUSH1 0x20 DUP3 ADD SWAP1 POP SWAP2 SWAP1 POP JUMP JUMPDEST PUSH1 0x0 PUSH1 0x20 DUP3 ADD SWAP1 POP DUP2 DUP2 SUB PUSH1 0x0 DUP4 ADD MSTORE PUSH2 0xCBD DUP2 PUSH2 0xC81 JUMP JUMPDEST SWAP1 POP SWAP2 SWAP1 POP JUMP JUMPDEST PUSH32 0x4E487B7100000000000000000000000000000000000000000000000000000000 PUSH1 0x0 MSTORE PUSH1 0x11 PUSH1 0x4 MSTORE PUSH1 0x24 PUSH1 0x0 REVERT JUMPDEST PUSH1 0x0 PUSH2 0xCFE DUP3 PUSH2 0x6CB JUMP JUMPDEST SWAP2 POP PUSH32 0xFFFFFFFFFFFFFFFFFFFFFFFFFFFFFFFFFFFFFFFFFFFFFFFFFFFFFFFFFFFFFFFF DUP3 SUB PUSH2 0xD30 JUMPI PUSH2 0xD2F PUSH2 0xCC4 JUMP JUMPDEST JUMPDEST PUSH1 0x1 DUP3 ADD SWAP1 POP SWAP2 SWAP1 POP JUMP JUMPDEST PUSH1 0x0 DUP2 SWAP1 POP DUP2 PUSH1 0x0 MSTORE PUSH1 0x20 PUSH1 0x0 KECCAK256 SWAP1 POP SWAP2 SWAP1 POP JUMP JUMPDEST PUSH1 0x0 PUSH1 0x20 PUSH1 0x1F DUP4 ADD DIV SWAP1 POP SWAP2 SWAP1 POP JUMP JUMPDEST PUSH1 0x0 DUP3 DUP3 SHL SWAP1 POP SWAP3 SWAP2 POP POP JUMP JUMPDEST PUSH1 0x0 PUSH1 0x8 DUP4 MUL PUSH2 0xD9D PUSH32 0xFFFFFFFFFFFFFFFFFFFFFFFFFFFFFFFFFFFFFFFFFFFFFFFFFFFFFFFFFFFFFFFF DUP3 PUSH2 0xD60 JUMP JUMPDEST PUSH2 0xDA7 DUP7 DUP4 PUSH2 0xD60 JUMP JUMPDEST SWAP6 POP DUP1 NOT DUP5 AND SWAP4 POP DUP1 DUP7 AND DUP5 OR SWAP3 POP POP POP SWAP4 SWAP3 POP POP POP JUMP JUMPDEST PUSH1 0x0 DUP2 SWAP1 POP SWAP2 SWAP1 POP JUMP JUMPDEST PUSH1 0x0 PUSH2 0xDE4 PUSH2 0xDDF PUSH2 0xDDA DUP5 PUSH2 0x6CB JUMP JUMPDEST PUSH2 0xDBF JUMP JUMPDEST PUSH2 0x6CB JUMP JUMPDEST SWAP1 POP SWAP2 SWAP1 POP JUMP JUMPDEST PUSH1 0x0 DUP2 SWAP1 POP SWAP2 SWAP1 POP JUMP JUMPDEST PUSH2 0xDFE DUP4 PUSH2 0xDC9 JUMP JUMPDEST PUSH2 0xE12 PUSH2 0xE0A DUP3 PUSH2 0xDEB JUMP JUMPDEST DUP5 DUP5 SLOAD PUSH2 0xD6D JUMP JUMPDEST DUP3 SSTORE POP POP POP POP JUMP JUMPDEST PUSH1 0x0 SWAP1 JUMP JUMPDEST PUSH2 0xE27 PUSH2 0xE1A JUMP JUMPDEST PUSH2 0xE32 DUP2 DUP5 DUP5 PUSH2 0xDF5 JUMP JUMPDEST POP POP POP JUMP JUMPDEST JUMPDEST DUP2 DUP2 LT ISZERO PUSH2 0xE56 JUMPI PUSH2 0xE4B PUSH1 0x0 DUP3 PUSH2 0xE1F JUMP JUMPDEST PUSH1 0x1 DUP2 ADD SWAP1 POP PUSH2 0xE38 JUMP JUMPDEST POP POP JUMP JUMPDEST PUSH1 0x1F DUP3 GT ISZERO PUSH2 0xE9B JUMPI PUSH2 0xE6C DUP2 PUSH2 0xD3B JUMP JUMPDEST PUSH2 0xE75 DUP5 PUSH2 0xD50 JUMP JUMPDEST DUP2 ADD PUSH1 0x20 DUP6 LT ISZERO PUSH2 0xE84 JUMPI DUP2 SWAP1 POP JUMPDEST PUSH2 0xE98 PUSH2 0xE90 DUP6 PUSH2 0xD50 JUMP JUMPDEST DUP4 ADD DUP3 PUSH2 0xE37 JUMP JUMPDEST POP POP JUMPDEST POP POP POP JUMP JUMPDEST PUSH1 0x0 DUP3 DUP3 SHR SWAP1 POP SWAP3 SWAP2 POP POP JUMP JUMPDEST PUSH1 0x0 PUSH2 0xEBE PUSH1 0x0 NOT DUP5 PUSH1 0x8 MUL PUSH2 0xEA0 JUMP JUMPDEST NOT DUP1 DUP4 AND SWAP2 POP POP SWAP3 SWAP2 POP POP JUMP JUMPDEST PUSH1 0x0 PUSH2 0xED7 DUP4 DUP4 PUSH2 0xEAD JUMP JUMPDEST SWAP2 POP DUP3 PUSH1 0x2 MUL DUP3 OR SWAP1 POP SWAP3 SWAP2 POP POP JUMP JUMPDEST PUSH2 0xEF0 DUP3 PUSH2 0x7B7 JUMP JUMPDEST PUSH8 0xFFFFFFFFFFFFFFFF DUP2 GT ISZERO PUSH2 0xF09 JUMPI PUSH2 0xF08 PUSH2 0x997 JUMP JUMPDEST JUMPDEST PUSH2 0xF13 DUP3 SLOAD PUSH2 0xC27 JUMP JUMPDEST PUSH2 0xF1E DUP3 DUP3 DUP6 PUSH2 0xE5A JUMP JUMPDEST PUSH1 0x0 PUSH1 0x20 SWAP1 POP PUSH1 0x1F DUP4 GT PUSH1 0x1 DUP2 EQ PUSH2 0xF51 JUMPI PUSH1 0x0 DUP5 ISZERO PUSH2 0xF3F JUMPI DUP3 DUP8 ADD MLOAD SWAP1 POP JUMPDEST PUSH2 0xF49 DUP6 DUP3 PUSH2 0xECB JUMP JUMPDEST DUP7 SSTORE POP PUSH2 0xFB1 JUMP JUMPDEST PUSH1 0x1F NOT DUP5 AND PUSH2 0xF5F DUP7 PUSH2 0xD3B JUMP JUMPDEST PUSH1 0x0 JUMPDEST DUP3 DUP2 LT ISZERO PUSH2 0xF87 JUMPI DUP5 DUP10 ADD MLOAD DUP3 SSTORE PUSH1 0x1 DUP3 ADD SWAP2 POP PUSH1 0x20 DUP6 ADD SWAP5 POP PUSH1 0x20 DUP2 ADD SWAP1 POP PUSH2 0xF62 JUMP JUMPDEST DUP7 DUP4 LT ISZERO PUSH2 0xFA4 JUMPI DUP5 DUP10 ADD MLOAD PUSH2 0xFA0 PUSH1 0x1F DUP10 AND DUP3 PUSH2 0xEAD JUMP JUMPDEST DUP4 SSTORE POP JUMPDEST PUSH1 0x1 PUSH1 0x2 DUP9 MUL ADD DUP9 SSTORE POP POP POP JUMPDEST POP POP POP POP POP POP JUMP JUMPDEST PUSH32 0x55736572206E6F74207265676973746572656400000000000000000000000000 PUSH1 0x0 DUP3 ADD MSTORE POP JUMP JUMPDEST PUSH1 0x0 PUSH2 0xFEF PUSH1 0x13 DUP4 PUSH2 0x7C2 JUMP JUMPDEST SWAP2 POP PUSH2 0xFFA DUP3 PUSH2 0xFB9 JUMP JUMPDEST PUSH1 0x20 DUP3 ADD SWAP1 POP SWAP2 SWAP1 POP JUMP JUMPDEST PUSH1 0x0 PUSH1 0x20 DUP3 ADD SWAP1 POP DUP2 DUP2 SUB PUSH1 0x0 DUP4 ADD MSTORE PUSH2 0x101E DUP2 PUSH2 0xFE2 JUMP JUMPDEST SWAP1 POP SWAP2 SWAP1 POP JUMP INVALID LOG2 PUSH5 0x6970667358 0x22 SLT KECCAK256 DUP8 CALLDATASIZE GT 0x2E GAS SWAP4 0x2E GAS 0xCE 0xED LOG2 TIMESTAMP 0xB2 SWAP1 0xCD CODESIZE RETURNDATASIZE SWAP12 0xDD 0xCC SLT 0x2D LOG2 0x25 CALLER PUSH31 0x4CEB67100B4E64736F6C634300081800330000000000000000000000000000 "},"methodIdentifiers":{"userBasicInfo(address)":"2328aea6","userCount()":"07973ccf","userIdToAddress(uint256)":"b1695201","userReg(bytes32,bytes32,bytes32,string,string)":"a20fb00e","userReputationCalc(address)":"7bb500e2","userStats(address)":"8a65d874","userUpdateProfile(bytes32,bytes32,bytes32,string,string)":"af10fec5"}}}}}